{
  "abi": [
    {
      "inputs": [
        {
          "internalType": "address",
          "name": "_user",
          "type": "address"
        }
      ],
      "name": "YourProfileUsername",
      "outputs": [
        {
          "internalType": "string",
          "name": "",
          "type": "string"
        }
      ],
      "stateMutability": "view",
      "type": "function"
    },
    {
      "inputs": [
        {
          "internalType": "uint256",
          "name": "",
          "type": "uint256"
        }
      ],
      "name": "allUsers",
      "outputs": [
        {
          "internalType": "address",
          "name": "",
          "type": "address"
        }
      ],
      "stateMutability": "view",
      "type": "function"
    },
    {
      "inputs": [
        {
          "internalType": "uint256",
          "name": "index",
          "type": "uint256"
        }
      ],
      "name": "allUsersAddress",
      "outputs": [
        {
          "internalType": "address",
          "name": "",
          "type": "address"
        }
      ],
      "stateMutability": "view",
      "type": "function"
    },
    {
      "inputs": [],
      "name": "allUsersLength",
      "outputs": [
        {
          "internalType": "uint256",
          "name": "",
          "type": "uint256"
        }
      ],
      "stateMutability": "view",
      "type": "function"
    },
    {
      "inputs": [
        {
          "internalType": "address",
          "name": "_user",
          "type": "address"
        },
        {
          "internalType": "address",
          "name": "_msgsender",
          "type": "address"
        }
      ],
      "name": "checkFollower",
      "outputs": [
        {
          "internalType": "bool",
          "name": "",
          "type": "bool"
        }
      ],
      "stateMutability": "view",
      "type": "function"
    },
    {
      "inputs": [
        {
          "internalType": "address",
          "name": "_user",
          "type": "address"
        }
      ],
      "name": "checkUserExist",
      "outputs": [
        {
          "internalType": "bool",
          "name": "",
          "type": "bool"
        }
      ],
      "stateMutability": "view",
      "type": "function"
    },
    {
      "inputs": [
        {
          "internalType": "address",
          "name": "_userToFollow",
          "type": "address"
        }
      ],
      "name": "followUser",
      "outputs": [],
      "stateMutability": "nonpayable",
      "type": "function"
    },
    {
      "inputs": [
        {
          "internalType": "address",
          "name": "",
          "type": "address"
        },
        {
          "internalType": "address",
          "name": "",
          "type": "address"
        }
      ],
      "name": "followers",
      "outputs": [
        {
          "internalType": "bool",
          "name": "",
          "type": "bool"
        }
      ],
      "stateMutability": "view",
      "type": "function"
    },
    {
      "inputs": [],
      "name": "getAllUserAddresses",
      "outputs": [
        {
          "internalType": "address[]",
          "name": "",
          "type": "address[]"
        }
      ],
      "stateMutability": "view",
      "type": "function"
    },
    {
      "inputs": [],
      "name": "getAllUsers",
      "outputs": [
        {
          "components": [
            {
              "internalType": "string",
              "name": "username",
              "type": "string"
            },
            {
              "internalType": "string",
              "name": "jobDescription",
              "type": "string"
            },
            {
              "internalType": "string",
              "name": "location",
              "type": "string"
            },
            {
              "internalType": "string",
              "name": "cidProfilePhoto",
              "type": "string"
            },
            {
              "internalType": "string",
              "name": "cidBannerPhoto",
              "type": "string"
            },
            {
              "internalType": "uint256",
              "name": "followers",
              "type": "uint256"
            },
            {
              "internalType": "uint256",
              "name": "following",
              "type": "uint256"
            },
            {
              "internalType": "uint256",
              "name": "totalPosts",
              "type": "uint256"
            }
          ],
          "internalType": "struct SocialProfile.Profile[]",
          "name": "",
          "type": "tuple[]"
        }
      ],
      "stateMutability": "view",
      "type": "function"
    },
    {
      "inputs": [],
      "name": "getMyProfile",
      "outputs": [
        {
          "components": [
            {
              "internalType": "string",
              "name": "username",
              "type": "string"
            },
            {
              "internalType": "string",
              "name": "jobDescription",
              "type": "string"
            },
            {
              "internalType": "string",
              "name": "location",
              "type": "string"
            },
            {
              "internalType": "string",
              "name": "cidProfilePhoto",
              "type": "string"
            },
            {
              "internalType": "string",
              "name": "cidBannerPhoto",
              "type": "string"
            },
            {
              "internalType": "uint256",
              "name": "followers",
              "type": "uint256"
            },
            {
              "internalType": "uint256",
              "name": "following",
              "type": "uint256"
            },
            {
              "internalType": "uint256",
              "name": "totalPosts",
              "type": "uint256"
            }
          ],
          "internalType": "struct SocialProfile.Profile",
          "name": "",
          "type": "tuple"
        }
      ],
      "stateMutability": "view",
      "type": "function"
    },
    {
      "inputs": [
        {
          "internalType": "address",
          "name": "_userAddress",
          "type": "address"
        }
      ],
      "name": "getUserProfile",
      "outputs": [
        {
          "components": [
            {
              "internalType": "string",
              "name": "username",
              "type": "string"
            },
            {
              "internalType": "string",
              "name": "jobDescription",
              "type": "string"
            },
            {
              "internalType": "string",
              "name": "location",
              "type": "string"
            },
            {
              "internalType": "string",
              "name": "cidProfilePhoto",
              "type": "string"
            },
            {
              "internalType": "string",
              "name": "cidBannerPhoto",
              "type": "string"
            },
            {
              "internalType": "uint256",
              "name": "followers",
              "type": "uint256"
            },
            {
              "internalType": "uint256",
              "name": "following",
              "type": "uint256"
            },
            {
              "internalType": "uint256",
              "name": "totalPosts",
              "type": "uint256"
            }
          ],
          "internalType": "struct SocialProfile.Profile",
          "name": "",
          "type": "tuple"
        }
      ],
      "stateMutability": "view",
      "type": "function"
    },
    {
      "inputs": [
        {
          "internalType": "address",
          "name": "_user",
          "type": "address"
        }
      ],
      "name": "incrementTotalPosts",
      "outputs": [],
      "stateMutability": "nonpayable",
      "type": "function"
    },
    {
      "inputs": [
        {
          "internalType": "address",
          "name": "_user",
          "type": "address"
        }
      ],
      "name": "profilePhoto",
      "outputs": [
        {
          "internalType": "string",
          "name": "",
          "type": "string"
        }
      ],
      "stateMutability": "view",
      "type": "function"
    },
    {
      "inputs": [
        {
          "internalType": "address",
          "name": "_user",
          "type": "address"
        }
      ],
      "name": "profileUsername",
      "outputs": [
        {
          "internalType": "string",
          "name": "",
          "type": "string"
        }
      ],
      "stateMutability": "view",
      "type": "function"
    },
    {
      "inputs": [
        {
          "internalType": "address",
          "name": "",
          "type": "address"
        }
      ],
      "name": "profiles",
      "outputs": [
        {
          "internalType": "string",
          "name": "username",
          "type": "string"
        },
        {
          "internalType": "string",
          "name": "jobDescription",
          "type": "string"
        },
        {
          "internalType": "string",
          "name": "location",
          "type": "string"
        },
        {
          "internalType": "string",
          "name": "cidProfilePhoto",
          "type": "string"
        },
        {
          "internalType": "string",
          "name": "cidBannerPhoto",
          "type": "string"
        },
        {
          "internalType": "uint256",
          "name": "followers",
          "type": "uint256"
        },
        {
          "internalType": "uint256",
          "name": "following",
          "type": "uint256"
        },
        {
          "internalType": "uint256",
          "name": "totalPosts",
          "type": "uint256"
        }
      ],
      "stateMutability": "view",
      "type": "function"
    },
    {
      "inputs": [
        {
          "internalType": "string",
          "name": "_username",
          "type": "string"
        },
        {
          "internalType": "string",
          "name": "_jobDescription",
          "type": "string"
        },
        {
          "internalType": "string",
          "name": "_location",
          "type": "string"
        },
        {
          "internalType": "string",
          "name": "_cidProfilePhoto",
          "type": "string"
        },
        {
          "internalType": "string",
          "name": "_cidBannerPhoto",
          "type": "string"
        }
      ],
      "name": "updateProfile",
      "outputs": [],
      "stateMutability": "nonpayable",
      "type": "function"
    },
    {
      "inputs": [
        {
          "internalType": "address",
          "name": "",
          "type": "address"
        }
      ],
      "name": "userExists",
      "outputs": [
        {
          "internalType": "bool",
          "name": "",
          "type": "bool"
        }
      ],
      "stateMutability": "view",
      "type": "function"
    }
  ],
  "devdoc": {
    "kind": "dev",
    "methods": {},
    "version": 1
  },
  "evm": {
    "assembly": "    /* \"Profile.sol\":64:4638  contract SocialProfile {... */\n  mstore(0x40, 0x80)\n  callvalue\n  dup1\n  iszero\n  tag_1\n  jumpi\n  0x00\n  dup1\n  revert\ntag_1:\n  pop\n  dataSize(sub_0)\n  dup1\n  dataOffset(sub_0)\n  0x00\n  codecopy\n  0x00\n  return\nstop\n\nsub_0: assembly {\n        /* \"Profile.sol\":64:4638  contract SocialProfile {... */\n      mstore(0x40, 0x80)\n      callvalue\n      dup1\n      iszero\n      tag_1\n      jumpi\n      0x00\n      dup1\n      revert\n    tag_1:\n      pop\n      jumpi(tag_2, lt(calldatasize, 0x04))\n      shr(0xe0, calldataload(0x00))\n      dup1\n      0xa4b65d63\n      gt\n      tag_21\n      jumpi\n      dup1\n      0xbbe15627\n      gt\n      tag_22\n      jumpi\n      dup1\n      0xe85befc2\n      gt\n      tag_23\n      jumpi\n      dup1\n      0xe85befc2\n      eq\n      tag_12\n      jumpi\n      dup1\n      0xf847211f\n      eq\n      tag_19\n      jumpi\n      dup1\n      0xfbf31669\n      eq\n      tag_20\n      jumpi\n      0x00\n      dup1\n      revert\n    tag_23:\n      dup1\n      0xbbe15627\n      eq\n      tag_16\n      jumpi\n      dup1\n      0xe2842d79\n      eq\n      tag_17\n      jumpi\n      0x00\n      dup1\n      revert\n    tag_22:\n      dup1\n      0xa4b65d63\n      eq\n      tag_12\n      jumpi\n      dup1\n      0xa70806f7\n      eq\n      tag_13\n      jumpi\n      dup1\n      0xad88881b\n      eq\n      tag_14\n      jumpi\n      dup1\n      0xb043e032\n      eq\n      tag_15\n      jumpi\n      0x00\n      dup1\n      revert\n    tag_21:\n      dup1\n      0x584b5126\n      gt\n      tag_24\n      jumpi\n      dup1\n      0x987ee156\n      gt\n      tag_25\n      jumpi\n      dup1\n      0x987ee156\n      eq\n      tag_9\n      jumpi\n      dup1\n      0x9f1953c3\n      eq\n      tag_10\n      jumpi\n      dup1\n      0xa2bdedf4\n      eq\n      tag_11\n      jumpi\n      0x00\n      dup1\n      revert\n    tag_25:\n      dup1\n      0x584b5126\n      eq\n      tag_7\n      jumpi\n      dup1\n      0x926bef63\n      eq\n      tag_8\n      jumpi\n      0x00\n      dup1\n      revert\n    tag_24:\n      dup1\n      0x0d28afc7\n      eq\n      tag_3\n      jumpi\n      dup1\n      0x0e666e49\n      eq\n      tag_4\n      jumpi\n      dup1\n      0x21527e50\n      eq\n      tag_5\n      jumpi\n      dup1\n      0x2f330023\n      eq\n      tag_6\n      jumpi\n    tag_2:\n      0x00\n      dup1\n      revert\n        /* \"Profile.sol\":895:990  function allUsersLength() public view returns (uint256) {... */\n    tag_3:\n        /* \"Profile.sol\":968:976  allUsers */\n      0x03\n        /* \"Profile.sol\":968:983  allUsers.length */\n      sload\n        /* \"Profile.sol\":895:990  function allUsersLength() public view returns (uint256) {... */\n      mload(0x40)\n        /* \"#utility.yul\":160:185   */\n      swap1\n      dup2\n      mstore\n        /* \"#utility.yul\":148:150   */\n      0x20\n        /* \"#utility.yul\":133:151   */\n      add\n        /* \"Profile.sol\":895:990  function allUsersLength() public view returns (uint256) {... */\n    tag_28:\n      mload(0x40)\n      dup1\n      swap2\n      sub\n      swap1\n      return\n        /* \"Profile.sol\":422:464  mapping(address => bool) public userExists */\n    tag_4:\n      tag_30\n      tag_31\n      calldatasize\n      0x04\n      tag_32\n      jump\t// in\n    tag_31:\n      mstore(0x20, 0x01)\n      0x00\n      swap1\n      dup2\n      mstore\n      0x40\n      swap1\n      keccak256\n      sload\n      0xff\n      and\n      dup2\n      jump\n    tag_30:\n      mload(0x40)\n        /* \"#utility.yul\":753:767   */\n      swap1\n      iszero\n        /* \"#utility.yul\":746:768   */\n      iszero\n        /* \"#utility.yul\":728:769   */\n      dup2\n      mstore\n        /* \"#utility.yul\":716:718   */\n      0x20\n        /* \"#utility.yul\":701:719   */\n      add\n        /* \"Profile.sol\":422:464  mapping(address => bool) public userExists */\n      tag_28\n        /* \"#utility.yul\":588:775   */\n      jump\n        /* \"Profile.sol\":3808:3980  function getMyProfile() public view returns (Profile memory) {... */\n    tag_5:\n      tag_36\n      tag_37\n      jump\t// in\n    tag_36:\n      mload(0x40)\n      tag_28\n      swap2\n      swap1\n      tag_39\n      jump\t// in\n        /* \"Profile.sol\":4534:4636  function getAllUserAddresses() public view returns (address[] memory) {... */\n    tag_6:\n      tag_40\n      tag_41\n      jump\t// in\n    tag_40:\n      mload(0x40)\n      tag_28\n      swap2\n      swap1\n      tag_43\n      jump\t// in\n        /* \"Profile.sol\":724:889  function checkFollower(address _user, address _msgsender)... */\n    tag_7:\n      tag_30\n      tag_45\n      calldatasize\n      0x04\n      tag_46\n      jump\t// in\n    tag_45:\n      sub(shl(0xa0, 0x01), 0x01)\n        /* \"Profile.sol\":854:870  followers[_user] */\n      swap2\n      dup3\n      and\n        /* \"Profile.sol\":827:831  bool */\n      0x00\n        /* \"Profile.sol\":854:870  followers[_user] */\n      swap1\n      dup2\n      mstore\n        /* \"Profile.sol\":854:863  followers */\n      0x02\n        /* \"Profile.sol\":854:870  followers[_user] */\n      0x20\n      swap1\n      dup2\n      mstore\n      0x40\n      dup1\n      dup4\n      keccak256\n        /* \"Profile.sol\":854:882  followers[_user][_msgsender] */\n      swap4\n      swap1\n      swap5\n      and\n      dup3\n      mstore\n      swap2\n      swap1\n      swap2\n      mstore\n      keccak256\n      sload\n      0xff\n      and\n      swap1\n        /* \"Profile.sol\":724:889  function checkFollower(address _user, address _msgsender)... */\n      jump\n        /* \"Profile.sol\":1403:1510  function checkUserExist(address _user) public view returns (bool) {... */\n    tag_8:\n      tag_30\n      tag_50\n      calldatasize\n      0x04\n      tag_32\n      jump\t// in\n    tag_50:\n      sub(shl(0xa0, 0x01), 0x01)\n        /* \"Profile.sol\":1486:1503  userExists[_user] */\n      and\n        /* \"Profile.sol\":1463:1467  bool */\n      0x00\n        /* \"Profile.sol\":1486:1503  userExists[_user] */\n      swap1\n      dup2\n      mstore\n        /* \"Profile.sol\":1486:1496  userExists */\n      0x01\n        /* \"Profile.sol\":1486:1503  userExists[_user] */\n      0x20\n      mstore\n      0x40\n      swap1\n      keccak256\n      sload\n      0xff\n      and\n      swap1\n        /* \"Profile.sol\":1403:1510  function checkUserExist(address _user) public view returns (bool) {... */\n      jump\n        /* \"Profile.sol\":3509:3732  function getUserProfile(address _userAddress)... */\n    tag_9:\n      tag_36\n      tag_54\n      calldatasize\n      0x04\n      tag_32\n      jump\t// in\n    tag_54:\n      tag_55\n      jump\t// in\n        /* \"Profile.sol\":996:1105  function allUsersAddress(uint256 index) public view returns (address) {... */\n    tag_10:\n      tag_57\n      tag_58\n      calldatasize\n      0x04\n      tag_59\n      jump\t// in\n    tag_58:\n      tag_60\n      jump\t// in\n    tag_57:\n      mload(0x40)\n      sub(shl(0xa0, 0x01), 0x01)\n        /* \"#utility.yul\":3717:3772   */\n      swap1\n      swap2\n      and\n        /* \"#utility.yul\":3699:3773   */\n      dup2\n      mstore\n        /* \"#utility.yul\":3687:3689   */\n      0x20\n        /* \"#utility.yul\":3672:3690   */\n      add\n        /* \"Profile.sol\":996:1105  function allUsersAddress(uint256 index) public view returns (address) {... */\n      tag_28\n        /* \"#utility.yul\":3553:3779   */\n      jump\n        /* \"Profile.sol\":565:590  address[] public allUsers */\n    tag_11:\n      tag_57\n      tag_64\n      calldatasize\n      0x04\n      tag_59\n      jump\t// in\n    tag_64:\n      tag_65\n      jump\t// in\n        /* \"Profile.sol\":1516:1672  function YourProfileUsername(address _user)... */\n    tag_12:\n      tag_67\n      tag_68\n      calldatasize\n      0x04\n      tag_32\n      jump\t// in\n    tag_68:\n      tag_69\n      jump\t// in\n    tag_67:\n      mload(0x40)\n      tag_28\n      swap2\n      swap1\n      tag_71\n      jump\t// in\n        /* \"Profile.sol\":4038:4528  function followUser(address _userToFollow) public {... */\n    tag_13:\n      tag_72\n      tag_73\n      calldatasize\n      0x04\n      tag_32\n      jump\t// in\n    tag_73:\n      tag_74\n      jump\t// in\n    tag_72:\n      stop\n        /* \"Profile.sol\":470:531  mapping(address => mapping(address => bool)) public followers */\n    tag_14:\n      tag_30\n      tag_76\n      calldatasize\n      0x04\n      tag_46\n      jump\t// in\n    tag_76:\n      0x02\n      0x20\n      swap1\n      dup2\n      mstore\n      0x00\n      swap3\n      dup4\n      mstore\n      0x40\n      dup1\n      dup5\n      keccak256\n      swap1\n      swap2\n      mstore\n      swap1\n      dup3\n      mstore\n      swap1\n      keccak256\n      sload\n      0xff\n      and\n      dup2\n      jump\n        /* \"Profile.sol\":1734:2577  function updateProfile(... */\n    tag_15:\n      tag_72\n      tag_80\n      calldatasize\n      0x04\n      tag_81\n      jump\t// in\n    tag_80:\n      tag_82\n      jump\t// in\n        /* \"Profile.sol\":373:416  mapping(address => Profile) public profiles */\n    tag_16:\n      tag_83\n      tag_84\n      calldatasize\n      0x04\n      tag_32\n      jump\t// in\n    tag_84:\n      tag_85\n      jump\t// in\n    tag_83:\n      mload(0x40)\n      tag_28\n      swap9\n      swap8\n      swap7\n      swap6\n      swap5\n      swap4\n      swap3\n      swap2\n      swap1\n      tag_87\n      jump\t// in\n        /* \"Profile.sol\":2648:3427  function getAllUsers() public view returns (Profile[] memory) {... */\n    tag_17:\n      tag_88\n      tag_89\n      jump\t// in\n    tag_88:\n      mload(0x40)\n      tag_28\n      swap2\n      swap1\n      tag_91\n      jump\t// in\n        /* \"Profile.sol\":622:718  function incrementTotalPosts(address _user) public {... */\n    tag_19:\n      tag_72\n      tag_97\n      calldatasize\n      0x04\n      tag_32\n      jump\t// in\n    tag_97:\n      tag_98\n      jump\t// in\n        /* \"Profile.sol\":1269:1397  function profilePhoto(address _user) public view returns (string memory) {... */\n    tag_20:\n      tag_67\n      tag_100\n      calldatasize\n      0x04\n      tag_32\n      jump\t// in\n    tag_100:\n      tag_101\n      jump\t// in\n        /* \"Profile.sol\":3808:3980  function getMyProfile() public view returns (Profile memory) {... */\n    tag_37:\n        /* \"Profile.sol\":3853:3867  Profile memory */\n      tag_104\n      mload(0x40)\n      dup1\n      0x0100\n      add\n      0x40\n      mstore\n      dup1\n      0x60\n      dup2\n      mstore\n      0x20\n      add\n      0x60\n      dup2\n      mstore\n      0x20\n      add\n      0x60\n      dup2\n      mstore\n      0x20\n      add\n      0x60\n      dup2\n      mstore\n      0x20\n      add\n      0x60\n      dup2\n      mstore\n      0x20\n      add\n      0x00\n      dup2\n      mstore\n      0x20\n      add\n      0x00\n      dup2\n      mstore\n      0x20\n      add\n      0x00\n      dup2\n      mstore\n      pop\n      swap1\n      jump\n    tag_104:\n        /* \"Profile.sol\":3898:3908  msg.sender */\n      caller\n        /* \"Profile.sol\":3887:3909  userExists[msg.sender] */\n      0x00\n      swap1\n      dup2\n      mstore\n        /* \"Profile.sol\":3887:3897  userExists */\n      0x01\n        /* \"Profile.sol\":3887:3909  userExists[msg.sender] */\n      0x20\n      mstore\n      0x40\n      swap1\n      keccak256\n      sload\n      0xff\n      and\n        /* \"Profile.sol\":3879:3936  require(userExists[msg.sender], \"Profile does not exist\") */\n      tag_107\n      jumpi\n      mload(0x40)\n      shl(0xe5, 0x461bcd)\n      dup2\n      mstore\n        /* \"#utility.yul\":8179:8181   */\n      0x20\n        /* \"Profile.sol\":3879:3936  require(userExists[msg.sender], \"Profile does not exist\") */\n      0x04\n      dup3\n      add\n        /* \"#utility.yul\":8161:8182   */\n      mstore\n        /* \"#utility.yul\":8218:8220   */\n      0x16\n        /* \"#utility.yul\":8198:8216   */\n      0x24\n      dup3\n      add\n        /* \"#utility.yul\":8191:8221   */\n      mstore\n        /* \"#utility.yul\":8257:8281   */\n      0x50726f66696c6520646f6573206e6f7420657869737400000000000000000000\n        /* \"#utility.yul\":8237:8255   */\n      0x44\n      dup3\n      add\n        /* \"#utility.yul\":8230:8282   */\n      mstore\n        /* \"#utility.yul\":8299:8317   */\n      0x64\n      add\n        /* \"Profile.sol\":3879:3936  require(userExists[msg.sender], \"Profile does not exist\") */\n    tag_108:\n      mload(0x40)\n      dup1\n      swap2\n      sub\n      swap1\n      revert\n    tag_107:\n        /* \"Profile.sol\":3962:3972  msg.sender */\n      caller\n        /* \"Profile.sol\":3953:3961  profiles */\n      0x00\n        /* \"Profile.sol\":3953:3973  profiles[msg.sender] */\n      swap1\n      dup2\n      mstore\n      0x20\n      dup2\n      swap1\n      mstore\n      0x40\n      swap1\n      dup2\n      swap1\n      keccak256\n        /* \"Profile.sol\":3946:3973  return profiles[msg.sender] */\n      dup2\n      mload\n      0x0100\n      dup2\n      add\n      swap1\n      swap3\n      mstore\n      dup1\n      sload\n      dup3\n      swap1\n        /* \"Profile.sol\":3953:3973  profiles[msg.sender] */\n      dup3\n      swap1\n        /* \"Profile.sol\":3946:3973  return profiles[msg.sender] */\n      tag_110\n      swap1\n      tag_111\n      jump\t// in\n    tag_110:\n      dup1\n      0x1f\n      add\n      0x20\n      dup1\n      swap2\n      div\n      mul\n      0x20\n      add\n      mload(0x40)\n      swap1\n      dup2\n      add\n      0x40\n      mstore\n      dup1\n      swap3\n      swap2\n      swap1\n      dup2\n      dup2\n      mstore\n      0x20\n      add\n      dup3\n      dup1\n      sload\n      tag_112\n      swap1\n      tag_111\n      jump\t// in\n    tag_112:\n      dup1\n      iszero\n      tag_113\n      jumpi\n      dup1\n      0x1f\n      lt\n      tag_114\n      jumpi\n      0x0100\n      dup1\n      dup4\n      sload\n      div\n      mul\n      dup4\n      mstore\n      swap2\n      0x20\n      add\n      swap2\n      jump(tag_113)\n    tag_114:\n      dup3\n      add\n      swap2\n      swap1\n      0x00\n      mstore\n      keccak256(0x00, 0x20)\n      swap1\n    tag_115:\n      dup2\n      sload\n      dup2\n      mstore\n      swap1\n      0x01\n      add\n      swap1\n      0x20\n      add\n      dup1\n      dup4\n      gt\n      tag_115\n      jumpi\n      dup3\n      swap1\n      sub\n      0x1f\n      and\n      dup3\n      add\n      swap2\n    tag_113:\n      pop\n      pop\n      pop\n      pop\n      pop\n      dup2\n      mstore\n      0x20\n      add\n      0x01\n      dup3\n      add\n      dup1\n      sload\n      tag_116\n      swap1\n      tag_111\n      jump\t// in\n    tag_116:\n      dup1\n      0x1f\n      add\n      0x20\n      dup1\n      swap2\n      div\n      mul\n      0x20\n      add\n      mload(0x40)\n      swap1\n      dup2\n      add\n      0x40\n      mstore\n      dup1\n      swap3\n      swap2\n      swap1\n      dup2\n      dup2\n      mstore\n      0x20\n      add\n      dup3\n      dup1\n      sload\n      tag_117\n      swap1\n      tag_111\n      jump\t// in\n    tag_117:\n      dup1\n      iszero\n      tag_118\n      jumpi\n      dup1\n      0x1f\n      lt\n      tag_119\n      jumpi\n      0x0100\n      dup1\n      dup4\n      sload\n      div\n      mul\n      dup4\n      mstore\n      swap2\n      0x20\n      add\n      swap2\n      jump(tag_118)\n    tag_119:\n      dup3\n      add\n      swap2\n      swap1\n      0x00\n      mstore\n      keccak256(0x00, 0x20)\n      swap1\n    tag_120:\n      dup2\n      sload\n      dup2\n      mstore\n      swap1\n      0x01\n      add\n      swap1\n      0x20\n      add\n      dup1\n      dup4\n      gt\n      tag_120\n      jumpi\n      dup3\n      swap1\n      sub\n      0x1f\n      and\n      dup3\n      add\n      swap2\n    tag_118:\n      pop\n      pop\n      pop\n      pop\n      pop\n      dup2\n      mstore\n      0x20\n      add\n      0x02\n      dup3\n      add\n      dup1\n      sload\n      tag_121\n      swap1\n      tag_111\n      jump\t// in\n    tag_121:\n      dup1\n      0x1f\n      add\n      0x20\n      dup1\n      swap2\n      div\n      mul\n      0x20\n      add\n      mload(0x40)\n      swap1\n      dup2\n      add\n      0x40\n      mstore\n      dup1\n      swap3\n      swap2\n      swap1\n      dup2\n      dup2\n      mstore\n      0x20\n      add\n      dup3\n      dup1\n      sload\n      tag_122\n      swap1\n      tag_111\n      jump\t// in\n    tag_122:\n      dup1\n      iszero\n      tag_123\n      jumpi\n      dup1\n      0x1f\n      lt\n      tag_124\n      jumpi\n      0x0100\n      dup1\n      dup4\n      sload\n      div\n      mul\n      dup4\n      mstore\n      swap2\n      0x20\n      add\n      swap2\n      jump(tag_123)\n    tag_124:\n      dup3\n      add\n      swap2\n      swap1\n      0x00\n      mstore\n      keccak256(0x00, 0x20)\n      swap1\n    tag_125:\n      dup2\n      sload\n      dup2\n      mstore\n      swap1\n      0x01\n      add\n      swap1\n      0x20\n      add\n      dup1\n      dup4\n      gt\n      tag_125\n      jumpi\n      dup3\n      swap1\n      sub\n      0x1f\n      and\n      dup3\n      add\n      swap2\n    tag_123:\n      pop\n      pop\n      pop\n      pop\n      pop\n      dup2\n      mstore\n      0x20\n      add\n      0x03\n      dup3\n      add\n      dup1\n      sload\n      tag_126\n      swap1\n      tag_111\n      jump\t// in\n    tag_126:\n      dup1\n      0x1f\n      add\n      0x20\n      dup1\n      swap2\n      div\n      mul\n      0x20\n      add\n      mload(0x40)\n      swap1\n      dup2\n      add\n      0x40\n      mstore\n      dup1\n      swap3\n      swap2\n      swap1\n      dup2\n      dup2\n      mstore\n      0x20\n      add\n      dup3\n      dup1\n      sload\n      tag_127\n      swap1\n      tag_111\n      jump\t// in\n    tag_127:\n      dup1\n      iszero\n      tag_128\n      jumpi\n      dup1\n      0x1f\n      lt\n      tag_129\n      jumpi\n      0x0100\n      dup1\n      dup4\n      sload\n      div\n      mul\n      dup4\n      mstore\n      swap2\n      0x20\n      add\n      swap2\n      jump(tag_128)\n    tag_129:\n      dup3\n      add\n      swap2\n      swap1\n      0x00\n      mstore\n      keccak256(0x00, 0x20)\n      swap1\n    tag_130:\n      dup2\n      sload\n      dup2\n      mstore\n      swap1\n      0x01\n      add\n      swap1\n      0x20\n      add\n      dup1\n      dup4\n      gt\n      tag_130\n      jumpi\n      dup3\n      swap1\n      sub\n      0x1f\n      and\n      dup3\n      add\n      swap2\n    tag_128:\n      pop\n      pop\n      pop\n      pop\n      pop\n      dup2\n      mstore\n      0x20\n      add\n      0x04\n      dup3\n      add\n      dup1\n      sload\n      tag_131\n      swap1\n      tag_111\n      jump\t// in\n    tag_131:\n      dup1\n      0x1f\n      add\n      0x20\n      dup1\n      swap2\n      div\n      mul\n      0x20\n      add\n      mload(0x40)\n      swap1\n      dup2\n      add\n      0x40\n      mstore\n      dup1\n      swap3\n      swap2\n      swap1\n      dup2\n      dup2\n      mstore\n      0x20\n      add\n      dup3\n      dup1\n      sload\n      tag_132\n      swap1\n      tag_111\n      jump\t// in\n    tag_132:\n      dup1\n      iszero\n      tag_133\n      jumpi\n      dup1\n      0x1f\n      lt\n      tag_134\n      jumpi\n      0x0100\n      dup1\n      dup4\n      sload\n      div\n      mul\n      dup4\n      mstore\n      swap2\n      0x20\n      add\n      swap2\n      jump(tag_133)\n    tag_134:\n      dup3\n      add\n      swap2\n      swap1\n      0x00\n      mstore\n      keccak256(0x00, 0x20)\n      swap1\n    tag_135:\n      dup2\n      sload\n      dup2\n      mstore\n      swap1\n      0x01\n      add\n      swap1\n      0x20\n      add\n      dup1\n      dup4\n      gt\n      tag_135\n      jumpi\n      dup3\n      swap1\n      sub\n      0x1f\n      and\n      dup3\n      add\n      swap2\n    tag_133:\n      pop\n      pop\n      pop\n      pop\n      pop\n      dup2\n      mstore\n      0x20\n      add\n      0x05\n      dup3\n      add\n      sload\n      dup2\n      mstore\n      0x20\n      add\n      0x06\n      dup3\n      add\n      sload\n      dup2\n      mstore\n      0x20\n      add\n      0x07\n      dup3\n      add\n      sload\n      dup2\n      mstore\n      pop\n      pop\n      swap1\n      pop\n        /* \"Profile.sol\":3808:3980  function getMyProfile() public view returns (Profile memory) {... */\n      swap1\n      jump\t// out\n        /* \"Profile.sol\":4534:4636  function getAllUserAddresses() public view returns (address[] memory) {... */\n    tag_41:\n        /* \"Profile.sol\":4586:4602  address[] memory */\n      0x60\n        /* \"Profile.sol\":4621:4629  allUsers */\n      0x03\n        /* \"Profile.sol\":4614:4629  return allUsers */\n      dup1\n      sload\n      dup1\n      0x20\n      mul\n      0x20\n      add\n      mload(0x40)\n      swap1\n      dup2\n      add\n      0x40\n      mstore\n      dup1\n      swap3\n      swap2\n      swap1\n      dup2\n      dup2\n      mstore\n      0x20\n      add\n      dup3\n      dup1\n      sload\n      dup1\n      iszero\n      tag_137\n      jumpi\n      0x20\n      mul\n      dup3\n      add\n      swap2\n      swap1\n      0x00\n      mstore\n      keccak256(0x00, 0x20)\n      swap1\n    tag_138:\n      dup2\n      sload\n      sub(shl(0xa0, 0x01), 0x01)\n      and\n      dup2\n      mstore\n      0x01\n      swap1\n      swap2\n      add\n      swap1\n      0x20\n      add\n      dup1\n      dup4\n      gt\n      tag_138\n      jumpi\n    tag_137:\n      pop\n      pop\n      pop\n      pop\n      pop\n      swap1\n      pop\n        /* \"Profile.sol\":4534:4636  function getAllUserAddresses() public view returns (address[] memory) {... */\n      swap1\n      jump\t// out\n        /* \"Profile.sol\":3509:3732  function getUserProfile(address _userAddress)... */\n    tag_55:\n        /* \"Profile.sol\":3600:3614  Profile memory */\n      tag_141\n      mload(0x40)\n      dup1\n      0x0100\n      add\n      0x40\n      mstore\n      dup1\n      0x60\n      dup2\n      mstore\n      0x20\n      add\n      0x60\n      dup2\n      mstore\n      0x20\n      add\n      0x60\n      dup2\n      mstore\n      0x20\n      add\n      0x60\n      dup2\n      mstore\n      0x20\n      add\n      0x60\n      dup2\n      mstore\n      0x20\n      add\n      0x00\n      dup2\n      mstore\n      0x20\n      add\n      0x00\n      dup2\n      mstore\n      0x20\n      add\n      0x00\n      dup2\n      mstore\n      pop\n      swap1\n      jump\n    tag_141:\n      sub(shl(0xa0, 0x01), 0x01)\n        /* \"Profile.sol\":3638:3662  userExists[_userAddress] */\n      dup3\n      and\n      0x00\n      swap1\n      dup2\n      mstore\n        /* \"Profile.sol\":3638:3648  userExists */\n      0x01\n        /* \"Profile.sol\":3638:3662  userExists[_userAddress] */\n      0x20\n      mstore\n      0x40\n      swap1\n      keccak256\n      sload\n      0xff\n      and\n        /* \"Profile.sol\":3630:3686  require(userExists[_userAddress], \"User does not exist\") */\n      tag_143\n      jumpi\n      mload(0x40)\n      shl(0xe5, 0x461bcd)\n      dup2\n      mstore\n        /* \"#utility.yul\":8915:8917   */\n      0x20\n        /* \"Profile.sol\":3630:3686  require(userExists[_userAddress], \"User does not exist\") */\n      0x04\n      dup3\n      add\n        /* \"#utility.yul\":8897:8918   */\n      mstore\n        /* \"#utility.yul\":8954:8956   */\n      0x13\n        /* \"#utility.yul\":8934:8952   */\n      0x24\n      dup3\n      add\n        /* \"#utility.yul\":8927:8957   */\n      mstore\n        /* \"#utility.yul\":8993:9014   */\n      0x5573657220646f6573206e6f7420657869737400000000000000000000000000\n        /* \"#utility.yul\":8973:8991   */\n      0x44\n      dup3\n      add\n        /* \"#utility.yul\":8966:9015   */\n      mstore\n        /* \"#utility.yul\":9032:9050   */\n      0x64\n      add\n        /* \"Profile.sol\":3630:3686  require(userExists[_userAddress], \"User does not exist\") */\n      tag_108\n        /* \"#utility.yul\":8713:9056   */\n      jump\n        /* \"Profile.sol\":3630:3686  require(userExists[_userAddress], \"User does not exist\") */\n    tag_143:\n      sub(shl(0xa0, 0x01), 0x01)\n        /* \"Profile.sol\":3703:3725  profiles[_userAddress] */\n      dup3\n      and\n        /* \"Profile.sol\":3703:3711  profiles */\n      0x00\n        /* \"Profile.sol\":3703:3725  profiles[_userAddress] */\n      swap1\n      dup2\n      mstore\n      0x20\n      dup2\n      swap1\n      mstore\n      0x40\n      swap1\n      dup2\n      swap1\n      keccak256\n        /* \"Profile.sol\":3696:3725  return profiles[_userAddress] */\n      dup2\n      mload\n      0x0100\n      dup2\n      add\n      swap1\n      swap3\n      mstore\n      dup1\n      sload\n      dup3\n      swap1\n        /* \"Profile.sol\":3703:3725  profiles[_userAddress] */\n      dup3\n      swap1\n        /* \"Profile.sol\":3696:3725  return profiles[_userAddress] */\n      tag_146\n      swap1\n      tag_111\n      jump\t// in\n    tag_146:\n      dup1\n      0x1f\n      add\n      0x20\n      dup1\n      swap2\n      div\n      mul\n      0x20\n      add\n      mload(0x40)\n      swap1\n      dup2\n      add\n      0x40\n      mstore\n      dup1\n      swap3\n      swap2\n      swap1\n      dup2\n      dup2\n      mstore\n      0x20\n      add\n      dup3\n      dup1\n      sload\n      tag_147\n      swap1\n      tag_111\n      jump\t// in\n    tag_147:\n      dup1\n      iszero\n      tag_148\n      jumpi\n      dup1\n      0x1f\n      lt\n      tag_149\n      jumpi\n      0x0100\n      dup1\n      dup4\n      sload\n      div\n      mul\n      dup4\n      mstore\n      swap2\n      0x20\n      add\n      swap2\n      jump(tag_148)\n    tag_149:\n      dup3\n      add\n      swap2\n      swap1\n      0x00\n      mstore\n      keccak256(0x00, 0x20)\n      swap1\n    tag_150:\n      dup2\n      sload\n      dup2\n      mstore\n      swap1\n      0x01\n      add\n      swap1\n      0x20\n      add\n      dup1\n      dup4\n      gt\n      tag_150\n      jumpi\n      dup3\n      swap1\n      sub\n      0x1f\n      and\n      dup3\n      add\n      swap2\n    tag_148:\n      pop\n      pop\n      pop\n      pop\n      pop\n      dup2\n      mstore\n      0x20\n      add\n      0x01\n      dup3\n      add\n      dup1\n      sload\n      tag_151\n      swap1\n      tag_111\n      jump\t// in\n    tag_151:\n      dup1\n      0x1f\n      add\n      0x20\n      dup1\n      swap2\n      div\n      mul\n      0x20\n      add\n      mload(0x40)\n      swap1\n      dup2\n      add\n      0x40\n      mstore\n      dup1\n      swap3\n      swap2\n      swap1\n      dup2\n      dup2\n      mstore\n      0x20\n      add\n      dup3\n      dup1\n      sload\n      tag_152\n      swap1\n      tag_111\n      jump\t// in\n    tag_152:\n      dup1\n      iszero\n      tag_153\n      jumpi\n      dup1\n      0x1f\n      lt\n      tag_154\n      jumpi\n      0x0100\n      dup1\n      dup4\n      sload\n      div\n      mul\n      dup4\n      mstore\n      swap2\n      0x20\n      add\n      swap2\n      jump(tag_153)\n    tag_154:\n      dup3\n      add\n      swap2\n      swap1\n      0x00\n      mstore\n      keccak256(0x00, 0x20)\n      swap1\n    tag_155:\n      dup2\n      sload\n      dup2\n      mstore\n      swap1\n      0x01\n      add\n      swap1\n      0x20\n      add\n      dup1\n      dup4\n      gt\n      tag_155\n      jumpi\n      dup3\n      swap1\n      sub\n      0x1f\n      and\n      dup3\n      add\n      swap2\n    tag_153:\n      pop\n      pop\n      pop\n      pop\n      pop\n      dup2\n      mstore\n      0x20\n      add\n      0x02\n      dup3\n      add\n      dup1\n      sload\n      tag_156\n      swap1\n      tag_111\n      jump\t// in\n    tag_156:\n      dup1\n      0x1f\n      add\n      0x20\n      dup1\n      swap2\n      div\n      mul\n      0x20\n      add\n      mload(0x40)\n      swap1\n      dup2\n      add\n      0x40\n      mstore\n      dup1\n      swap3\n      swap2\n      swap1\n      dup2\n      dup2\n      mstore\n      0x20\n      add\n      dup3\n      dup1\n      sload\n      tag_157\n      swap1\n      tag_111\n      jump\t// in\n    tag_157:\n      dup1\n      iszero\n      tag_158\n      jumpi\n      dup1\n      0x1f\n      lt\n      tag_159\n      jumpi\n      0x0100\n      dup1\n      dup4\n      sload\n      div\n      mul\n      dup4\n      mstore\n      swap2\n      0x20\n      add\n      swap2\n      jump(tag_158)\n    tag_159:\n      dup3\n      add\n      swap2\n      swap1\n      0x00\n      mstore\n      keccak256(0x00, 0x20)\n      swap1\n    tag_160:\n      dup2\n      sload\n      dup2\n      mstore\n      swap1\n      0x01\n      add\n      swap1\n      0x20\n      add\n      dup1\n      dup4\n      gt\n      tag_160\n      jumpi\n      dup3\n      swap1\n      sub\n      0x1f\n      and\n      dup3\n      add\n      swap2\n    tag_158:\n      pop\n      pop\n      pop\n      pop\n      pop\n      dup2\n      mstore\n      0x20\n      add\n      0x03\n      dup3\n      add\n      dup1\n      sload\n      tag_161\n      swap1\n      tag_111\n      jump\t// in\n    tag_161:\n      dup1\n      0x1f\n      add\n      0x20\n      dup1\n      swap2\n      div\n      mul\n      0x20\n      add\n      mload(0x40)\n      swap1\n      dup2\n      add\n      0x40\n      mstore\n      dup1\n      swap3\n      swap2\n      swap1\n      dup2\n      dup2\n      mstore\n      0x20\n      add\n      dup3\n      dup1\n      sload\n      tag_162\n      swap1\n      tag_111\n      jump\t// in\n    tag_162:\n      dup1\n      iszero\n      tag_163\n      jumpi\n      dup1\n      0x1f\n      lt\n      tag_164\n      jumpi\n      0x0100\n      dup1\n      dup4\n      sload\n      div\n      mul\n      dup4\n      mstore\n      swap2\n      0x20\n      add\n      swap2\n      jump(tag_163)\n    tag_164:\n      dup3\n      add\n      swap2\n      swap1\n      0x00\n      mstore\n      keccak256(0x00, 0x20)\n      swap1\n    tag_165:\n      dup2\n      sload\n      dup2\n      mstore\n      swap1\n      0x01\n      add\n      swap1\n      0x20\n      add\n      dup1\n      dup4\n      gt\n      tag_165\n      jumpi\n      dup3\n      swap1\n      sub\n      0x1f\n      and\n      dup3\n      add\n      swap2\n    tag_163:\n      pop\n      pop\n      pop\n      pop\n      pop\n      dup2\n      mstore\n      0x20\n      add\n      0x04\n      dup3\n      add\n      dup1\n      sload\n      tag_166\n      swap1\n      tag_111\n      jump\t// in\n    tag_166:\n      dup1\n      0x1f\n      add\n      0x20\n      dup1\n      swap2\n      div\n      mul\n      0x20\n      add\n      mload(0x40)\n      swap1\n      dup2\n      add\n      0x40\n      mstore\n      dup1\n      swap3\n      swap2\n      swap1\n      dup2\n      dup2\n      mstore\n      0x20\n      add\n      dup3\n      dup1\n      sload\n      tag_167\n      swap1\n      tag_111\n      jump\t// in\n    tag_167:\n      dup1\n      iszero\n      tag_168\n      jumpi\n      dup1\n      0x1f\n      lt\n      tag_169\n      jumpi\n      0x0100\n      dup1\n      dup4\n      sload\n      div\n      mul\n      dup4\n      mstore\n      swap2\n      0x20\n      add\n      swap2\n      jump(tag_168)\n    tag_169:\n      dup3\n      add\n      swap2\n      swap1\n      0x00\n      mstore\n      keccak256(0x00, 0x20)\n      swap1\n    tag_170:\n      dup2\n      sload\n      dup2\n      mstore\n      swap1\n      0x01\n      add\n      swap1\n      0x20\n      add\n      dup1\n      dup4\n      gt\n      tag_170\n      jumpi\n      dup3\n      swap1\n      sub\n      0x1f\n      and\n      dup3\n      add\n      swap2\n    tag_168:\n      pop\n      pop\n      pop\n      pop\n      pop\n      dup2\n      mstore\n      0x20\n      add\n      0x05\n      dup3\n      add\n      sload\n      dup2\n      mstore\n      0x20\n      add\n      0x06\n      dup3\n      add\n      sload\n      dup2\n      mstore\n      0x20\n      add\n      0x07\n      dup3\n      add\n      sload\n      dup2\n      mstore\n      pop\n      pop\n      swap1\n      pop\n        /* \"Profile.sol\":3509:3732  function getUserProfile(address _userAddress)... */\n      swap2\n      swap1\n      pop\n      jump\t// out\n        /* \"Profile.sol\":996:1105  function allUsersAddress(uint256 index) public view returns (address) {... */\n    tag_60:\n        /* \"Profile.sol\":1057:1064  address */\n      0x00\n        /* \"Profile.sol\":1083:1091  allUsers */\n      0x03\n        /* \"Profile.sol\":1092:1097  index */\n      dup3\n        /* \"Profile.sol\":1083:1098  allUsers[index] */\n      dup2\n      sload\n      dup2\n      lt\n      tag_173\n      jumpi\n      tag_173\n      tag_174\n      jump\t// in\n    tag_173:\n      0x00\n      swap2\n      dup3\n      mstore\n      0x20\n      swap1\n      swap2\n      keccak256\n      add\n      sload\n      sub(shl(0xa0, 0x01), 0x01)\n      and\n      swap3\n        /* \"Profile.sol\":996:1105  function allUsersAddress(uint256 index) public view returns (address) {... */\n      swap2\n      pop\n      pop\n      jump\t// out\n        /* \"Profile.sol\":565:590  address[] public allUsers */\n    tag_65:\n      0x03\n      dup2\n      dup2\n      sload\n      dup2\n      lt\n      tag_176\n      jumpi\n      0x00\n      dup1\n      revert\n    tag_176:\n      0x00\n      swap2\n      dup3\n      mstore\n      0x20\n      swap1\n      swap2\n      keccak256\n      add\n      sload\n      sub(shl(0xa0, 0x01), 0x01)\n      and\n      swap1\n      pop\n      dup2\n      jump\t// out\n        /* \"Profile.sol\":1516:1672  function YourProfileUsername(address _user)... */\n    tag_69:\n      sub(shl(0xa0, 0x01), 0x01)\n        /* \"Profile.sol\":1641:1656  profiles[_user] */\n      dup2\n      and\n        /* \"Profile.sol\":1641:1649  profiles */\n      0x00\n        /* \"Profile.sol\":1641:1656  profiles[_user] */\n      swap1\n      dup2\n      mstore\n      0x20\n      dup2\n      swap1\n      mstore\n      0x40\n      swap1\n      keccak256\n        /* \"Profile.sol\":1634:1665  return profiles[_user].username */\n      dup1\n      sload\n        /* \"Profile.sol\":1605:1618  string memory */\n      0x60\n      swap2\n        /* \"Profile.sol\":1641:1656  profiles[_user] */\n      swap1\n        /* \"Profile.sol\":1634:1665  return profiles[_user].username */\n      tag_179\n      swap1\n      tag_111\n      jump\t// in\n    tag_179:\n      dup1\n      0x1f\n      add\n      0x20\n      dup1\n      swap2\n      div\n      mul\n      0x20\n      add\n      mload(0x40)\n      swap1\n      dup2\n      add\n      0x40\n      mstore\n      dup1\n      swap3\n      swap2\n      swap1\n      dup2\n      dup2\n      mstore\n      0x20\n      add\n      dup3\n      dup1\n      sload\n      tag_180\n      swap1\n      tag_111\n      jump\t// in\n    tag_180:\n      dup1\n      iszero\n      tag_181\n      jumpi\n      dup1\n      0x1f\n      lt\n      tag_182\n      jumpi\n      0x0100\n      dup1\n      dup4\n      sload\n      div\n      mul\n      dup4\n      mstore\n      swap2\n      0x20\n      add\n      swap2\n      jump(tag_181)\n    tag_182:\n      dup3\n      add\n      swap2\n      swap1\n      0x00\n      mstore\n      keccak256(0x00, 0x20)\n      swap1\n    tag_183:\n      dup2\n      sload\n      dup2\n      mstore\n      swap1\n      0x01\n      add\n      swap1\n      0x20\n      add\n      dup1\n      dup4\n      gt\n      tag_183\n      jumpi\n      dup3\n      swap1\n      sub\n      0x1f\n      and\n      dup3\n      add\n      swap2\n    tag_181:\n      pop\n      pop\n      pop\n      pop\n      pop\n      swap1\n      pop\n        /* \"Profile.sol\":1516:1672  function YourProfileUsername(address _user)... */\n      swap2\n      swap1\n      pop\n      jump\t// out\n        /* \"Profile.sol\":4038:4528  function followUser(address _userToFollow) public {... */\n    tag_74:\n      sub(shl(0xa0, 0x01), 0x01)\n        /* \"Profile.sol\":4106:4131  userExists[_userToFollow] */\n      dup2\n      and\n      0x00\n      swap1\n      dup2\n      mstore\n        /* \"Profile.sol\":4106:4116  userExists */\n      0x01\n        /* \"Profile.sol\":4106:4131  userExists[_userToFollow] */\n      0x20\n      mstore\n      0x40\n      swap1\n      keccak256\n      sload\n      0xff\n      and\n        /* \"Profile.sol\":4098:4155  require(userExists[_userToFollow], \"User does not exist\") */\n      tag_185\n      jumpi\n      mload(0x40)\n      shl(0xe5, 0x461bcd)\n      dup2\n      mstore\n        /* \"#utility.yul\":8915:8917   */\n      0x20\n        /* \"Profile.sol\":4098:4155  require(userExists[_userToFollow], \"User does not exist\") */\n      0x04\n      dup3\n      add\n        /* \"#utility.yul\":8897:8918   */\n      mstore\n        /* \"#utility.yul\":8954:8956   */\n      0x13\n        /* \"#utility.yul\":8934:8952   */\n      0x24\n      dup3\n      add\n        /* \"#utility.yul\":8927:8957   */\n      mstore\n        /* \"#utility.yul\":8993:9014   */\n      0x5573657220646f6573206e6f7420657869737400000000000000000000000000\n        /* \"#utility.yul\":8973:8991   */\n      0x44\n      dup3\n      add\n        /* \"#utility.yul\":8966:9015   */\n      mstore\n        /* \"#utility.yul\":9032:9050   */\n      0x64\n      add\n        /* \"Profile.sol\":4098:4155  require(userExists[_userToFollow], \"User does not exist\") */\n      tag_108\n        /* \"#utility.yul\":8713:9056   */\n      jump\n        /* \"Profile.sol\":4098:4155  require(userExists[_userToFollow], \"User does not exist\") */\n    tag_185:\n      sub(shl(0xa0, 0x01), 0x01)\n        /* \"Profile.sol\":4289:4313  followers[_userToFollow] */\n      dup2\n      and\n      0x00\n      swap1\n      dup2\n      mstore\n        /* \"Profile.sol\":4289:4298  followers */\n      0x02\n        /* \"Profile.sol\":4289:4313  followers[_userToFollow] */\n      0x20\n      swap1\n      dup2\n      mstore\n      0x40\n      dup1\n      dup4\n      keccak256\n        /* \"Profile.sol\":4314:4324  msg.sender */\n      caller\n        /* \"Profile.sol\":4289:4325  followers[_userToFollow][msg.sender] */\n      dup5\n      mstore\n      swap1\n      swap2\n      mstore\n      swap1\n      keccak256\n      sload\n      0xff\n      and\n        /* \"Profile.sol\":4288:4325  !followers[_userToFollow][msg.sender] */\n      iszero\n        /* \"Profile.sol\":4267:4378  require(... */\n      tag_187\n      jumpi\n      mload(0x40)\n      shl(0xe5, 0x461bcd)\n      dup2\n      mstore\n        /* \"#utility.yul\":9395:9397   */\n      0x20\n        /* \"Profile.sol\":4267:4378  require(... */\n      0x04\n      dup3\n      add\n        /* \"#utility.yul\":9377:9398   */\n      mstore\n        /* \"#utility.yul\":9434:9436   */\n      0x1b\n        /* \"#utility.yul\":9414:9432   */\n      0x24\n      dup3\n      add\n        /* \"#utility.yul\":9407:9437   */\n      mstore\n        /* \"#utility.yul\":9473:9502   */\n      0x416c726561647920666f6c6c6f77696e67207468697320757365720000000000\n        /* \"#utility.yul\":9453:9471   */\n      0x44\n      dup3\n      add\n        /* \"#utility.yul\":9446:9503   */\n      mstore\n        /* \"#utility.yul\":9520:9538   */\n      0x64\n      add\n        /* \"Profile.sol\":4267:4378  require(... */\n      tag_108\n        /* \"#utility.yul\":9193:9544   */\n      jump\n        /* \"Profile.sol\":4267:4378  require(... */\n    tag_187:\n      sub(shl(0xa0, 0x01), 0x01)\n        /* \"Profile.sol\":4389:4412  profiles[_userToFollow] */\n      dup2\n      and\n        /* \"Profile.sol\":4389:4397  profiles */\n      0x00\n        /* \"Profile.sol\":4389:4412  profiles[_userToFollow] */\n      swap1\n      dup2\n      mstore\n      0x20\n      dup2\n      swap1\n      mstore\n      0x40\n      dup2\n      keccak256\n        /* \"Profile.sol\":4389:4422  profiles[_userToFollow].followers */\n      0x05\n      add\n        /* \"Profile.sol\":4389:4424  profiles[_userToFollow].followers++ */\n      dup1\n      sload\n      swap2\n      tag_190\n      dup4\n      tag_191\n      jump\t// in\n    tag_190:\n      swap1\n      swap2\n      sstore\n      pop\n      pop\n        /* \"Profile.sol\":4444:4454  msg.sender */\n      caller\n        /* \"Profile.sol\":4435:4443  profiles */\n      0x00\n        /* \"Profile.sol\":4435:4455  profiles[msg.sender] */\n      swap1\n      dup2\n      mstore\n      0x20\n      dup2\n      swap1\n      mstore\n      0x40\n      dup2\n      keccak256\n        /* \"Profile.sol\":4435:4465  profiles[msg.sender].following */\n      0x06\n      add\n        /* \"Profile.sol\":4435:4467  profiles[msg.sender].following++ */\n      dup1\n      sload\n      swap2\n      tag_192\n      dup4\n      tag_191\n      jump\t// in\n    tag_192:\n      swap1\n      swap2\n      sstore\n      pop\n      pop\n      sub(shl(0xa0, 0x01), 0x01)\n        /* \"Profile.sol\":4478:4502  followers[_userToFollow] */\n      and\n      0x00\n      swap1\n      dup2\n      mstore\n        /* \"Profile.sol\":4478:4487  followers */\n      0x02\n        /* \"Profile.sol\":4478:4502  followers[_userToFollow] */\n      0x20\n      swap1\n      dup2\n      mstore\n      0x40\n      dup1\n      dup4\n      keccak256\n        /* \"Profile.sol\":4503:4513  msg.sender */\n      caller\n        /* \"Profile.sol\":4478:4514  followers[_userToFollow][msg.sender] */\n      dup5\n      mstore\n      swap1\n      swap2\n      mstore\n      swap1\n      keccak256\n        /* \"Profile.sol\":4478:4521  followers[_userToFollow][msg.sender] = true */\n      dup1\n      sload\n      not(0xff)\n      and\n        /* \"Profile.sol\":4517:4521  true */\n      0x01\n        /* \"Profile.sol\":4478:4521  followers[_userToFollow][msg.sender] = true */\n      or\n      swap1\n      sstore\n        /* \"Profile.sol\":4038:4528  function followUser(address _userToFollow) public {... */\n      jump\t// out\n        /* \"Profile.sol\":1734:2577  function updateProfile(... */\n    tag_82:\n        /* \"Profile.sol\":1998:1999  0 */\n      0x00\n        /* \"Profile.sol\":1978:1987  _username */\n      dup6\n        /* \"Profile.sol\":1972:1995  bytes(_username).length */\n      mload\n        /* \"Profile.sol\":1972:1999  bytes(_username).length > 0 */\n      gt\n        /* \"Profile.sol\":1964:2028  require(bytes(_username).length > 0, \"Username cannot be empty\") */\n      tag_194\n      jumpi\n      mload(0x40)\n      shl(0xe5, 0x461bcd)\n      dup2\n      mstore\n        /* \"#utility.yul\":9988:9990   */\n      0x20\n        /* \"Profile.sol\":1964:2028  require(bytes(_username).length > 0, \"Username cannot be empty\") */\n      0x04\n      dup3\n      add\n        /* \"#utility.yul\":9970:9991   */\n      mstore\n        /* \"#utility.yul\":10027:10029   */\n      0x18\n        /* \"#utility.yul\":10007:10025   */\n      0x24\n      dup3\n      add\n        /* \"#utility.yul\":10000:10030   */\n      mstore\n        /* \"#utility.yul\":10066:10092   */\n      0x557365726e616d652063616e6e6f7420626520656d7074790000000000000000\n        /* \"#utility.yul\":10046:10064   */\n      0x44\n      dup3\n      add\n        /* \"#utility.yul\":10039:10093   */\n      mstore\n        /* \"#utility.yul\":10110:10128   */\n      0x64\n      add\n        /* \"Profile.sol\":1964:2028  require(bytes(_username).length > 0, \"Username cannot be empty\") */\n      tag_108\n        /* \"#utility.yul\":9786:10134   */\n      jump\n        /* \"Profile.sol\":1964:2028  require(bytes(_username).length > 0, \"Username cannot be empty\") */\n    tag_194:\n        /* \"Profile.sol\":2092:2093  0 */\n      0x00\n        /* \"Profile.sol\":2065:2081  _cidProfilePhoto */\n      dup3\n        /* \"Profile.sol\":2059:2089  bytes(_cidProfilePhoto).length */\n      mload\n        /* \"Profile.sol\":2059:2093  bytes(_cidProfilePhoto).length > 0 */\n      gt\n        /* \"Profile.sol\":2038:2152  require(... */\n      tag_197\n      jumpi\n      mload(0x40)\n      shl(0xe5, 0x461bcd)\n      dup2\n      mstore\n        /* \"#utility.yul\":10341:10343   */\n      0x20\n        /* \"Profile.sol\":2038:2152  require(... */\n      0x04\n      dup3\n      add\n        /* \"#utility.yul\":10323:10344   */\n      mstore\n        /* \"#utility.yul\":10380:10382   */\n      0x21\n        /* \"#utility.yul\":10360:10378   */\n      0x24\n      dup3\n      add\n        /* \"#utility.yul\":10353:10383   */\n      mstore\n        /* \"#utility.yul\":10419:10453   */\n      0x50726f66696c652070686f746f204349442063616e6e6f7420626520656d7074\n        /* \"#utility.yul\":10399:10417   */\n      0x44\n      dup3\n      add\n        /* \"#utility.yul\":10392:10454   */\n      mstore\n      shl(0xf8, 0x79)\n        /* \"#utility.yul\":10470:10488   */\n      0x64\n      dup3\n      add\n        /* \"#utility.yul\":10463:10494   */\n      mstore\n        /* \"#utility.yul\":10511:10530   */\n      0x84\n      add\n        /* \"Profile.sol\":2038:2152  require(... */\n      tag_108\n        /* \"#utility.yul\":10139:10536   */\n      jump\n        /* \"Profile.sol\":2038:2152  require(... */\n    tag_197:\n        /* \"Profile.sol\":2179:2189  msg.sender */\n      caller\n        /* \"Profile.sol\":2168:2190  userExists[msg.sender] */\n      0x00\n      swap1\n      dup2\n      mstore\n        /* \"Profile.sol\":2168:2178  userExists */\n      0x01\n        /* \"Profile.sol\":2168:2190  userExists[msg.sender] */\n      0x20\n      mstore\n      0x40\n      swap1\n      keccak256\n      sload\n      0xff\n      and\n        /* \"Profile.sol\":2163:2285  if (!userExists[msg.sender]) {... */\n      tag_200\n      jumpi\n        /* \"Profile.sol\":2206:2214  allUsers */\n      0x03\n        /* \"Profile.sol\":2206:2231  allUsers.push(msg.sender) */\n      dup1\n      sload\n      0x01\n      dup2\n      dup2\n      add\n      swap1\n      swap3\n      sstore\n      0xc2575a0e9e593c00f959f8c92f12db2869c3395a3b0502d05e2516446f71f85b\n      add\n      dup1\n      sload\n      0xffffffffffffffffffffffff0000000000000000000000000000000000000000\n      and\n        /* \"Profile.sol\":2220:2230  msg.sender */\n      caller\n        /* \"Profile.sol\":2206:2231  allUsers.push(msg.sender) */\n      swap1\n      dup2\n      or\n      swap1\n      swap2\n      sstore\n      0x00\n        /* \"Profile.sol\":2245:2267  userExists[msg.sender] */\n      swap1\n      dup2\n      mstore\n        /* \"Profile.sol\":2206:2231  allUsers.push(msg.sender) */\n      0x20\n        /* \"Profile.sol\":2245:2267  userExists[msg.sender] */\n      dup3\n      swap1\n      mstore\n      0x40\n      swap1\n      keccak256\n        /* \"Profile.sol\":2245:2274  userExists[msg.sender] = true */\n      dup1\n      sload\n      not(0xff)\n      and\n      swap1\n      swap2\n      or\n      swap1\n      sstore\n        /* \"Profile.sol\":2163:2285  if (!userExists[msg.sender]) {... */\n    tag_200:\n        /* \"Profile.sol\":2330:2340  msg.sender */\n      caller\n        /* \"Profile.sol\":2295:2318  Profile storage profile */\n      0x00\n        /* \"Profile.sol\":2321:2341  profiles[msg.sender] */\n      swap1\n      dup2\n      mstore\n      0x20\n      dup2\n      swap1\n      mstore\n      0x40\n      swap1\n      keccak256\n      dup1\n        /* \"Profile.sol\":2352:2380  profile.username = _username */\n      tag_202\n        /* \"Profile.sol\":2371:2380  _username */\n      dup8\n        /* \"Profile.sol\":2321:2341  profiles[msg.sender] */\n      dup3\n        /* \"Profile.sol\":2352:2380  profile.username = _username */\n      tag_203\n      jump\t// in\n    tag_202:\n      pop\n        /* \"Profile.sol\":2390:2412  profile.jobDescription */\n      0x01\n      dup2\n      add\n        /* \"Profile.sol\":2390:2430  profile.jobDescription = _jobDescription */\n      tag_204\n        /* \"Profile.sol\":2415:2430  _jobDescription */\n      dup7\n        /* \"Profile.sol\":2390:2412  profile.jobDescription */\n      dup3\n        /* \"Profile.sol\":2390:2430  profile.jobDescription = _jobDescription */\n      tag_203\n      jump\t// in\n    tag_204:\n      pop\n        /* \"Profile.sol\":2440:2456  profile.location */\n      0x02\n      dup2\n      add\n        /* \"Profile.sol\":2440:2468  profile.location = _location */\n      tag_205\n        /* \"Profile.sol\":2459:2468  _location */\n      dup6\n        /* \"Profile.sol\":2440:2456  profile.location */\n      dup3\n        /* \"Profile.sol\":2440:2468  profile.location = _location */\n      tag_203\n      jump\t// in\n    tag_205:\n      pop\n        /* \"Profile.sol\":2478:2501  profile.cidProfilePhoto */\n      0x03\n      dup2\n      add\n        /* \"Profile.sol\":2478:2520  profile.cidProfilePhoto = _cidProfilePhoto */\n      tag_206\n        /* \"Profile.sol\":2504:2520  _cidProfilePhoto */\n      dup5\n        /* \"Profile.sol\":2478:2501  profile.cidProfilePhoto */\n      dup3\n        /* \"Profile.sol\":2478:2520  profile.cidProfilePhoto = _cidProfilePhoto */\n      tag_203\n      jump\t// in\n    tag_206:\n      pop\n        /* \"Profile.sol\":2530:2552  profile.cidBannerPhoto */\n      0x04\n      dup2\n      add\n        /* \"Profile.sol\":2530:2570  profile.cidBannerPhoto = _cidBannerPhoto */\n      tag_207\n        /* \"Profile.sol\":2555:2570  _cidBannerPhoto */\n      dup4\n        /* \"Profile.sol\":2530:2552  profile.cidBannerPhoto */\n      dup3\n        /* \"Profile.sol\":2530:2570  profile.cidBannerPhoto = _cidBannerPhoto */\n      tag_203\n      jump\t// in\n    tag_207:\n      pop\n        /* \"Profile.sol\":1954:2577  {... */\n      pop\n        /* \"Profile.sol\":1734:2577  function updateProfile(... */\n      pop\n      pop\n      pop\n      pop\n      pop\n      jump\t// out\n        /* \"Profile.sol\":373:416  mapping(address => Profile) public profiles */\n    tag_85:\n      0x00\n      0x20\n      dup2\n      swap1\n      mstore\n      swap1\n      dup2\n      mstore\n      0x40\n      swap1\n      keccak256\n      dup1\n      sload\n      dup2\n      swap1\n      tag_208\n      swap1\n      tag_111\n      jump\t// in\n    tag_208:\n      dup1\n      0x1f\n      add\n      0x20\n      dup1\n      swap2\n      div\n      mul\n      0x20\n      add\n      mload(0x40)\n      swap1\n      dup2\n      add\n      0x40\n      mstore\n      dup1\n      swap3\n      swap2\n      swap1\n      dup2\n      dup2\n      mstore\n      0x20\n      add\n      dup3\n      dup1\n      sload\n      tag_209\n      swap1\n      tag_111\n      jump\t// in\n    tag_209:\n      dup1\n      iszero\n      tag_210\n      jumpi\n      dup1\n      0x1f\n      lt\n      tag_211\n      jumpi\n      0x0100\n      dup1\n      dup4\n      sload\n      div\n      mul\n      dup4\n      mstore\n      swap2\n      0x20\n      add\n      swap2\n      jump(tag_210)\n    tag_211:\n      dup3\n      add\n      swap2\n      swap1\n      0x00\n      mstore\n      keccak256(0x00, 0x20)\n      swap1\n    tag_212:\n      dup2\n      sload\n      dup2\n      mstore\n      swap1\n      0x01\n      add\n      swap1\n      0x20\n      add\n      dup1\n      dup4\n      gt\n      tag_212\n      jumpi\n      dup3\n      swap1\n      sub\n      0x1f\n      and\n      dup3\n      add\n      swap2\n    tag_210:\n      pop\n      pop\n      pop\n      pop\n      pop\n      swap1\n      dup1\n      0x01\n      add\n      dup1\n      sload\n      tag_213\n      swap1\n      tag_111\n      jump\t// in\n    tag_213:\n      dup1\n      0x1f\n      add\n      0x20\n      dup1\n      swap2\n      div\n      mul\n      0x20\n      add\n      mload(0x40)\n      swap1\n      dup2\n      add\n      0x40\n      mstore\n      dup1\n      swap3\n      swap2\n      swap1\n      dup2\n      dup2\n      mstore\n      0x20\n      add\n      dup3\n      dup1\n      sload\n      tag_214\n      swap1\n      tag_111\n      jump\t// in\n    tag_214:\n      dup1\n      iszero\n      tag_215\n      jumpi\n      dup1\n      0x1f\n      lt\n      tag_216\n      jumpi\n      0x0100\n      dup1\n      dup4\n      sload\n      div\n      mul\n      dup4\n      mstore\n      swap2\n      0x20\n      add\n      swap2\n      jump(tag_215)\n    tag_216:\n      dup3\n      add\n      swap2\n      swap1\n      0x00\n      mstore\n      keccak256(0x00, 0x20)\n      swap1\n    tag_217:\n      dup2\n      sload\n      dup2\n      mstore\n      swap1\n      0x01\n      add\n      swap1\n      0x20\n      add\n      dup1\n      dup4\n      gt\n      tag_217\n      jumpi\n      dup3\n      swap1\n      sub\n      0x1f\n      and\n      dup3\n      add\n      swap2\n    tag_215:\n      pop\n      pop\n      pop\n      pop\n      pop\n      swap1\n      dup1\n      0x02\n      add\n      dup1\n      sload\n      tag_218\n      swap1\n      tag_111\n      jump\t// in\n    tag_218:\n      dup1\n      0x1f\n      add\n      0x20\n      dup1\n      swap2\n      div\n      mul\n      0x20\n      add\n      mload(0x40)\n      swap1\n      dup2\n      add\n      0x40\n      mstore\n      dup1\n      swap3\n      swap2\n      swap1\n      dup2\n      dup2\n      mstore\n      0x20\n      add\n      dup3\n      dup1\n      sload\n      tag_219\n      swap1\n      tag_111\n      jump\t// in\n    tag_219:\n      dup1\n      iszero\n      tag_220\n      jumpi\n      dup1\n      0x1f\n      lt\n      tag_221\n      jumpi\n      0x0100\n      dup1\n      dup4\n      sload\n      div\n      mul\n      dup4\n      mstore\n      swap2\n      0x20\n      add\n      swap2\n      jump(tag_220)\n    tag_221:\n      dup3\n      add\n      swap2\n      swap1\n      0x00\n      mstore\n      keccak256(0x00, 0x20)\n      swap1\n    tag_222:\n      dup2\n      sload\n      dup2\n      mstore\n      swap1\n      0x01\n      add\n      swap1\n      0x20\n      add\n      dup1\n      dup4\n      gt\n      tag_222\n      jumpi\n      dup3\n      swap1\n      sub\n      0x1f\n      and\n      dup3\n      add\n      swap2\n    tag_220:\n      pop\n      pop\n      pop\n      pop\n      pop\n      swap1\n      dup1\n      0x03\n      add\n      dup1\n      sload\n      tag_223\n      swap1\n      tag_111\n      jump\t// in\n    tag_223:\n      dup1\n      0x1f\n      add\n      0x20\n      dup1\n      swap2\n      div\n      mul\n      0x20\n      add\n      mload(0x40)\n      swap1\n      dup2\n      add\n      0x40\n      mstore\n      dup1\n      swap3\n      swap2\n      swap1\n      dup2\n      dup2\n      mstore\n      0x20\n      add\n      dup3\n      dup1\n      sload\n      tag_224\n      swap1\n      tag_111\n      jump\t// in\n    tag_224:\n      dup1\n      iszero\n      tag_225\n      jumpi\n      dup1\n      0x1f\n      lt\n      tag_226\n      jumpi\n      0x0100\n      dup1\n      dup4\n      sload\n      div\n      mul\n      dup4\n      mstore\n      swap2\n      0x20\n      add\n      swap2\n      jump(tag_225)\n    tag_226:\n      dup3\n      add\n      swap2\n      swap1\n      0x00\n      mstore\n      keccak256(0x00, 0x20)\n      swap1\n    tag_227:\n      dup2\n      sload\n      dup2\n      mstore\n      swap1\n      0x01\n      add\n      swap1\n      0x20\n      add\n      dup1\n      dup4\n      gt\n      tag_227\n      jumpi\n      dup3\n      swap1\n      sub\n      0x1f\n      and\n      dup3\n      add\n      swap2\n    tag_225:\n      pop\n      pop\n      pop\n      pop\n      pop\n      swap1\n      dup1\n      0x04\n      add\n      dup1\n      sload\n      tag_228\n      swap1\n      tag_111\n      jump\t// in\n    tag_228:\n      dup1\n      0x1f\n      add\n      0x20\n      dup1\n      swap2\n      div\n      mul\n      0x20\n      add\n      mload(0x40)\n      swap1\n      dup2\n      add\n      0x40\n      mstore\n      dup1\n      swap3\n      swap2\n      swap1\n      dup2\n      dup2\n      mstore\n      0x20\n      add\n      dup3\n      dup1\n      sload\n      tag_229\n      swap1\n      tag_111\n      jump\t// in\n    tag_229:\n      dup1\n      iszero\n      tag_230\n      jumpi\n      dup1\n      0x1f\n      lt\n      tag_231\n      jumpi\n      0x0100\n      dup1\n      dup4\n      sload\n      div\n      mul\n      dup4\n      mstore\n      swap2\n      0x20\n      add\n      swap2\n      jump(tag_230)\n    tag_231:\n      dup3\n      add\n      swap2\n      swap1\n      0x00\n      mstore\n      keccak256(0x00, 0x20)\n      swap1\n    tag_232:\n      dup2\n      sload\n      dup2\n      mstore\n      swap1\n      0x01\n      add\n      swap1\n      0x20\n      add\n      dup1\n      dup4\n      gt\n      tag_232\n      jumpi\n      dup3\n      swap1\n      sub\n      0x1f\n      and\n      dup3\n      add\n      swap2\n    tag_230:\n      pop\n      pop\n      pop\n      pop\n      pop\n      swap1\n      dup1\n      0x05\n      add\n      sload\n      swap1\n      dup1\n      0x06\n      add\n      sload\n      swap1\n      dup1\n      0x07\n      add\n      sload\n      swap1\n      pop\n      dup9\n      jump\t// out\n        /* \"Profile.sol\":2648:3427  function getAllUsers() public view returns (Profile[] memory) {... */\n    tag_89:\n        /* \"Profile.sol\":2759:2767  allUsers */\n      0x03\n        /* \"Profile.sol\":2759:2774  allUsers.length */\n      sload\n        /* \"Profile.sol\":2692:2708  Profile[] memory */\n      0x60\n      swap1\n        /* \"Profile.sol\":2720:2742  Profile[] memory users */\n      0x00\n      swap1\n        /* \"Profile.sol\":2745:2775  new Profile[](allUsers.length) */\n      0xffffffffffffffff\n      dup2\n      gt\n      iszero\n      tag_235\n      jumpi\n      tag_235\n      tag_236\n      jump\t// in\n    tag_235:\n      mload(0x40)\n      swap1\n      dup1\n      dup3\n      mstore\n      dup1\n      0x20\n      mul\n      0x20\n      add\n      dup3\n      add\n      0x40\n      mstore\n      dup1\n      iszero\n      tag_237\n      jumpi\n      dup2\n      0x20\n      add\n    tag_238:\n      tag_239\n      mload(0x40)\n      dup1\n      0x0100\n      add\n      0x40\n      mstore\n      dup1\n      0x60\n      dup2\n      mstore\n      0x20\n      add\n      0x60\n      dup2\n      mstore\n      0x20\n      add\n      0x60\n      dup2\n      mstore\n      0x20\n      add\n      0x60\n      dup2\n      mstore\n      0x20\n      add\n      0x60\n      dup2\n      mstore\n      0x20\n      add\n      0x00\n      dup2\n      mstore\n      0x20\n      add\n      0x00\n      dup2\n      mstore\n      0x20\n      add\n      0x00\n      dup2\n      mstore\n      pop\n      swap1\n      jump\n    tag_239:\n      dup2\n      mstore\n      0x20\n      add\n      swap1\n      0x01\n      swap1\n      sub\n      swap1\n      dup2\n      tag_238\n      jumpi\n      swap1\n      pop\n    tag_237:\n      pop\n        /* \"Profile.sol\":2720:2775  Profile[] memory users = new Profile[](allUsers.length) */\n      swap1\n      pop\n        /* \"Profile.sol\":2791:2800  uint256 i */\n      0x00\n        /* \"Profile.sol\":2786:3398  for (uint256 i = 0; i < allUsers.length; i++) {... */\n    tag_240:\n        /* \"Profile.sol\":2810:2818  allUsers */\n      0x03\n        /* \"Profile.sol\":2810:2825  allUsers.length */\n      sload\n        /* \"Profile.sol\":2806:2825  i < allUsers.length */\n      dup2\n      lt\n        /* \"Profile.sol\":2786:3398  for (uint256 i = 0; i < allUsers.length; i++) {... */\n      iszero\n      tag_241\n      jumpi\n        /* \"Profile.sol\":2846:2865  address userAddress */\n      0x00\n        /* \"Profile.sol\":2868:2876  allUsers */\n      0x03\n        /* \"Profile.sol\":2877:2878  i */\n      dup3\n        /* \"Profile.sol\":2868:2879  allUsers[i] */\n      dup2\n      sload\n      dup2\n      lt\n      tag_244\n      jumpi\n      tag_244\n      tag_174\n      jump\t// in\n    tag_244:\n      0x00\n      swap2\n      dup3\n      mstore\n      0x20\n      dup1\n      dup4\n      keccak256\n      swap1\n      swap2\n      add\n      sload\n      sub(shl(0xa0, 0x01), 0x01)\n      and\n        /* \"Profile.sol\":2919:2940  profiles[userAddress] */\n      dup1\n      dup4\n      mstore\n      swap1\n      dup3\n      swap1\n      mstore\n      0x40\n      swap2\n      dup3\n      swap1\n      keccak256\n        /* \"Profile.sol\":2966:3387  Profile({... */\n      dup3\n      mload\n        /* \"Profile.sol\":2868:2879  allUsers[i] */\n      0x0100\n        /* \"Profile.sol\":2966:3387  Profile({... */\n      dup2\n      add\n      swap1\n      swap4\n      mstore\n      dup1\n      sload\n        /* \"Profile.sol\":2868:2879  allUsers[i] */\n      swap2\n      swap4\n      pop\n        /* \"Profile.sol\":2919:2940  profiles[userAddress] */\n      swap2\n        /* \"Profile.sol\":2966:3387  Profile({... */\n      swap1\n      dup2\n      swap1\n        /* \"Profile.sol\":2919:2940  profiles[userAddress] */\n      dup4\n      swap1\n        /* \"Profile.sol\":2966:3387  Profile({... */\n      tag_246\n      swap1\n      tag_111\n      jump\t// in\n    tag_246:\n      dup1\n      0x1f\n      add\n      0x20\n      dup1\n      swap2\n      div\n      mul\n      0x20\n      add\n      mload(0x40)\n      swap1\n      dup2\n      add\n      0x40\n      mstore\n      dup1\n      swap3\n      swap2\n      swap1\n      dup2\n      dup2\n      mstore\n      0x20\n      add\n      dup3\n      dup1\n      sload\n      tag_247\n      swap1\n      tag_111\n      jump\t// in\n    tag_247:\n      dup1\n      iszero\n      tag_248\n      jumpi\n      dup1\n      0x1f\n      lt\n      tag_249\n      jumpi\n      0x0100\n      dup1\n      dup4\n      sload\n      div\n      mul\n      dup4\n      mstore\n      swap2\n      0x20\n      add\n      swap2\n      jump(tag_248)\n    tag_249:\n      dup3\n      add\n      swap2\n      swap1\n      0x00\n      mstore\n      keccak256(0x00, 0x20)\n      swap1\n    tag_250:\n      dup2\n      sload\n      dup2\n      mstore\n      swap1\n      0x01\n      add\n      swap1\n      0x20\n      add\n      dup1\n      dup4\n      gt\n      tag_250\n      jumpi\n      dup3\n      swap1\n      sub\n      0x1f\n      and\n      dup3\n      add\n      swap2\n    tag_248:\n      pop\n      pop\n      pop\n      pop\n      pop\n      dup2\n      mstore\n      0x20\n      add\n        /* \"Profile.sol\":3052:3059  profile */\n      dup3\n        /* \"Profile.sol\":3052:3074  profile.jobDescription */\n      0x01\n      add\n        /* \"Profile.sol\":2966:3387  Profile({... */\n      dup1\n      sload\n      tag_251\n      swap1\n      tag_111\n      jump\t// in\n    tag_251:\n      dup1\n      0x1f\n      add\n      0x20\n      dup1\n      swap2\n      div\n      mul\n      0x20\n      add\n      mload(0x40)\n      swap1\n      dup2\n      add\n      0x40\n      mstore\n      dup1\n      swap3\n      swap2\n      swap1\n      dup2\n      dup2\n      mstore\n      0x20\n      add\n      dup3\n      dup1\n      sload\n      tag_252\n      swap1\n      tag_111\n      jump\t// in\n    tag_252:\n      dup1\n      iszero\n      tag_253\n      jumpi\n      dup1\n      0x1f\n      lt\n      tag_254\n      jumpi\n      0x0100\n      dup1\n      dup4\n      sload\n      div\n      mul\n      dup4\n      mstore\n      swap2\n      0x20\n      add\n      swap2\n      jump(tag_253)\n    tag_254:\n      dup3\n      add\n      swap2\n      swap1\n      0x00\n      mstore\n      keccak256(0x00, 0x20)\n      swap1\n    tag_255:\n      dup2\n      sload\n      dup2\n      mstore\n      swap1\n      0x01\n      add\n      swap1\n      0x20\n      add\n      dup1\n      dup4\n      gt\n      tag_255\n      jumpi\n      dup3\n      swap1\n      sub\n      0x1f\n      and\n      dup3\n      add\n      swap2\n    tag_253:\n      pop\n      pop\n      pop\n      pop\n      pop\n      dup2\n      mstore\n      0x20\n      add\n        /* \"Profile.sol\":3102:3109  profile */\n      dup3\n        /* \"Profile.sol\":3102:3118  profile.location */\n      0x02\n      add\n        /* \"Profile.sol\":2966:3387  Profile({... */\n      dup1\n      sload\n      tag_256\n      swap1\n      tag_111\n      jump\t// in\n    tag_256:\n      dup1\n      0x1f\n      add\n      0x20\n      dup1\n      swap2\n      div\n      mul\n      0x20\n      add\n      mload(0x40)\n      swap1\n      dup2\n      add\n      0x40\n      mstore\n      dup1\n      swap3\n      swap2\n      swap1\n      dup2\n      dup2\n      mstore\n      0x20\n      add\n      dup3\n      dup1\n      sload\n      tag_257\n      swap1\n      tag_111\n      jump\t// in\n    tag_257:\n      dup1\n      iszero\n      tag_258\n      jumpi\n      dup1\n      0x1f\n      lt\n      tag_259\n      jumpi\n      0x0100\n      dup1\n      dup4\n      sload\n      div\n      mul\n      dup4\n      mstore\n      swap2\n      0x20\n      add\n      swap2\n      jump(tag_258)\n    tag_259:\n      dup3\n      add\n      swap2\n      swap1\n      0x00\n      mstore\n      keccak256(0x00, 0x20)\n      swap1\n    tag_260:\n      dup2\n      sload\n      dup2\n      mstore\n      swap1\n      0x01\n      add\n      swap1\n      0x20\n      add\n      dup1\n      dup4\n      gt\n      tag_260\n      jumpi\n      dup3\n      swap1\n      sub\n      0x1f\n      and\n      dup3\n      add\n      swap2\n    tag_258:\n      pop\n      pop\n      pop\n      pop\n      pop\n      dup2\n      mstore\n      0x20\n      add\n        /* \"Profile.sol\":3153:3160  profile */\n      dup3\n        /* \"Profile.sol\":3153:3176  profile.cidProfilePhoto */\n      0x03\n      add\n        /* \"Profile.sol\":2966:3387  Profile({... */\n      dup1\n      sload\n      tag_261\n      swap1\n      tag_111\n      jump\t// in\n    tag_261:\n      dup1\n      0x1f\n      add\n      0x20\n      dup1\n      swap2\n      div\n      mul\n      0x20\n      add\n      mload(0x40)\n      swap1\n      dup2\n      add\n      0x40\n      mstore\n      dup1\n      swap3\n      swap2\n      swap1\n      dup2\n      dup2\n      mstore\n      0x20\n      add\n      dup3\n      dup1\n      sload\n      tag_262\n      swap1\n      tag_111\n      jump\t// in\n    tag_262:\n      dup1\n      iszero\n      tag_263\n      jumpi\n      dup1\n      0x1f\n      lt\n      tag_264\n      jumpi\n      0x0100\n      dup1\n      dup4\n      sload\n      div\n      mul\n      dup4\n      mstore\n      swap2\n      0x20\n      add\n      swap2\n      jump(tag_263)\n    tag_264:\n      dup3\n      add\n      swap2\n      swap1\n      0x00\n      mstore\n      keccak256(0x00, 0x20)\n      swap1\n    tag_265:\n      dup2\n      sload\n      dup2\n      mstore\n      swap1\n      0x01\n      add\n      swap1\n      0x20\n      add\n      dup1\n      dup4\n      gt\n      tag_265\n      jumpi\n      dup3\n      swap1\n      sub\n      0x1f\n      and\n      dup3\n      add\n      swap2\n    tag_263:\n      pop\n      pop\n      pop\n      pop\n      pop\n      dup2\n      mstore\n      0x20\n      add\n        /* \"Profile.sol\":3210:3217  profile */\n      dup3\n        /* \"Profile.sol\":3210:3232  profile.cidBannerPhoto */\n      0x04\n      add\n        /* \"Profile.sol\":2966:3387  Profile({... */\n      dup1\n      sload\n      tag_266\n      swap1\n      tag_111\n      jump\t// in\n    tag_266:\n      dup1\n      0x1f\n      add\n      0x20\n      dup1\n      swap2\n      div\n      mul\n      0x20\n      add\n      mload(0x40)\n      swap1\n      dup2\n      add\n      0x40\n      mstore\n      dup1\n      swap3\n      swap2\n      swap1\n      dup2\n      dup2\n      mstore\n      0x20\n      add\n      dup3\n      dup1\n      sload\n      tag_267\n      swap1\n      tag_111\n      jump\t// in\n    tag_267:\n      dup1\n      iszero\n      tag_268\n      jumpi\n      dup1\n      0x1f\n      lt\n      tag_269\n      jumpi\n      0x0100\n      dup1\n      dup4\n      sload\n      div\n      mul\n      dup4\n      mstore\n      swap2\n      0x20\n      add\n      swap2\n      jump(tag_268)\n    tag_269:\n      dup3\n      add\n      swap2\n      swap1\n      0x00\n      mstore\n      keccak256(0x00, 0x20)\n      swap1\n    tag_270:\n      dup2\n      sload\n      dup2\n      mstore\n      swap1\n      0x01\n      add\n      swap1\n      0x20\n      add\n      dup1\n      dup4\n      gt\n      tag_270\n      jumpi\n      dup3\n      swap1\n      sub\n      0x1f\n      and\n      dup3\n      add\n      swap2\n    tag_268:\n      pop\n      pop\n      pop\n      pop\n      pop\n      dup2\n      mstore\n      0x20\n      add\n        /* \"Profile.sol\":3261:3268  profile */\n      dup3\n        /* \"Profile.sol\":3261:3278  profile.followers */\n      0x05\n      add\n      sload\n        /* \"Profile.sol\":2966:3387  Profile({... */\n      dup2\n      mstore\n      0x20\n      add\n        /* \"Profile.sol\":3307:3314  profile */\n      dup3\n        /* \"Profile.sol\":3307:3324  profile.following */\n      0x06\n      add\n      sload\n        /* \"Profile.sol\":2966:3387  Profile({... */\n      dup2\n      mstore\n      0x20\n      add\n        /* \"Profile.sol\":3354:3361  profile */\n      dup3\n        /* \"Profile.sol\":3354:3372  profile.totalPosts */\n      0x07\n      add\n      sload\n        /* \"Profile.sol\":2966:3387  Profile({... */\n      dup2\n      mstore\n      pop\n        /* \"Profile.sol\":2955:2960  users */\n      dup5\n        /* \"Profile.sol\":2961:2962  i */\n      dup5\n        /* \"Profile.sol\":2955:2963  users[i] */\n      dup2\n      mload\n      dup2\n      lt\n      tag_272\n      jumpi\n      tag_272\n      tag_174\n      jump\t// in\n    tag_272:\n      0x20\n      swap1\n      dup2\n      mul\n      swap2\n      swap1\n      swap2\n      add\n      add\n        /* \"Profile.sol\":2955:3387  users[i] = Profile({... */\n      mstore\n      pop\n      pop\n        /* \"Profile.sol\":2827:2830  i++ */\n      0x01\n      add\n        /* \"Profile.sol\":2786:3398  for (uint256 i = 0; i < allUsers.length; i++) {... */\n      jump(tag_240)\n    tag_241:\n      pop\n        /* \"Profile.sol\":3415:3420  users */\n      swap2\n        /* \"Profile.sol\":2648:3427  function getAllUsers() public view returns (Profile[] memory) {... */\n      swap1\n      pop\n      jump\t// out\n        /* \"Profile.sol\":622:718  function incrementTotalPosts(address _user) public {... */\n    tag_98:\n      sub(shl(0xa0, 0x01), 0x01)\n        /* \"Profile.sol\":683:698  profiles[_user] */\n      dup2\n      and\n        /* \"Profile.sol\":683:691  profiles */\n      0x00\n        /* \"Profile.sol\":683:698  profiles[_user] */\n      swap1\n      dup2\n      mstore\n      0x20\n      dup2\n      swap1\n      mstore\n      0x40\n      dup2\n      keccak256\n        /* \"Profile.sol\":683:709  profiles[_user].totalPosts */\n      0x07\n      add\n        /* \"Profile.sol\":683:711  profiles[_user].totalPosts++ */\n      dup1\n      sload\n      swap2\n      tag_280\n      dup4\n      tag_191\n      jump\t// in\n    tag_280:\n      swap2\n      swap1\n      pop\n      sstore\n      pop\n        /* \"Profile.sol\":622:718  function incrementTotalPosts(address _user) public {... */\n      pop\n      jump\t// out\n        /* \"Profile.sol\":1269:1397  function profilePhoto(address _user) public view returns (string memory) {... */\n    tag_101:\n      sub(shl(0xa0, 0x01), 0x01)\n        /* \"Profile.sol\":1359:1374  profiles[_user] */\n      dup2\n      and\n        /* \"Profile.sol\":1359:1367  profiles */\n      0x00\n        /* \"Profile.sol\":1359:1374  profiles[_user] */\n      swap1\n      dup2\n      mstore\n      0x20\n      dup2\n      swap1\n      mstore\n      0x40\n      swap1\n      keccak256\n        /* \"Profile.sol\":1359:1390  profiles[_user].cidProfilePhoto */\n      0x03\n      add\n        /* \"Profile.sol\":1352:1390  return profiles[_user].cidProfilePhoto */\n      dup1\n      sload\n        /* \"Profile.sol\":1327:1340  string memory */\n      0x60\n      swap2\n        /* \"Profile.sol\":1359:1390  profiles[_user].cidProfilePhoto */\n      swap1\n        /* \"Profile.sol\":1352:1390  return profiles[_user].cidProfilePhoto */\n      tag_179\n      swap1\n      tag_111\n      jump\t// in\n        /* \"#utility.yul\":196:392   */\n    tag_287:\n        /* \"#utility.yul\":264:284   */\n      dup1\n      calldataload\n      sub(shl(0xa0, 0x01), 0x01)\n        /* \"#utility.yul\":313:367   */\n      dup2\n      and\n        /* \"#utility.yul\":303:368   */\n      dup2\n      eq\n        /* \"#utility.yul\":293:386   */\n      tag_297\n      jumpi\n        /* \"#utility.yul\":382:383   */\n      0x00\n        /* \"#utility.yul\":379:380   */\n      dup1\n        /* \"#utility.yul\":372:384   */\n      revert\n        /* \"#utility.yul\":293:386   */\n    tag_297:\n        /* \"#utility.yul\":196:392   */\n      swap2\n      swap1\n      pop\n      jump\t// out\n        /* \"#utility.yul\":397:583   */\n    tag_32:\n        /* \"#utility.yul\":456:462   */\n      0x00\n        /* \"#utility.yul\":509:511   */\n      0x20\n        /* \"#utility.yul\":497:506   */\n      dup3\n        /* \"#utility.yul\":488:495   */\n      dup5\n        /* \"#utility.yul\":484:507   */\n      sub\n        /* \"#utility.yul\":480:512   */\n      slt\n        /* \"#utility.yul\":477:529   */\n      iszero\n      tag_299\n      jumpi\n        /* \"#utility.yul\":525:526   */\n      0x00\n        /* \"#utility.yul\":522:523   */\n      dup1\n        /* \"#utility.yul\":515:527   */\n      revert\n        /* \"#utility.yul\":477:529   */\n    tag_299:\n        /* \"#utility.yul\":548:577   */\n      tag_300\n        /* \"#utility.yul\":567:576   */\n      dup3\n        /* \"#utility.yul\":548:577   */\n      tag_287\n      jump\t// in\n    tag_300:\n        /* \"#utility.yul\":538:577   */\n      swap4\n        /* \"#utility.yul\":397:583   */\n      swap3\n      pop\n      pop\n      pop\n      jump\t// out\n        /* \"#utility.yul\":780:1069   */\n    tag_288:\n        /* \"#utility.yul\":822:825   */\n      0x00\n        /* \"#utility.yul\":860:865   */\n      dup2\n        /* \"#utility.yul\":854:866   */\n      mload\n        /* \"#utility.yul\":887:893   */\n      dup1\n        /* \"#utility.yul\":882:885   */\n      dup5\n        /* \"#utility.yul\":875:894   */\n      mstore\n        /* \"#utility.yul\":943:949   */\n      dup1\n        /* \"#utility.yul\":936:940   */\n      0x20\n        /* \"#utility.yul\":929:934   */\n      dup5\n        /* \"#utility.yul\":925:941   */\n      add\n        /* \"#utility.yul\":918:922   */\n      0x20\n        /* \"#utility.yul\":913:916   */\n      dup7\n        /* \"#utility.yul\":909:923   */\n      add\n        /* \"#utility.yul\":903:950   */\n      mcopy\n        /* \"#utility.yul\":995:996   */\n      0x00\n        /* \"#utility.yul\":988:992   */\n      0x20\n        /* \"#utility.yul\":979:985   */\n      dup3\n        /* \"#utility.yul\":974:977   */\n      dup7\n        /* \"#utility.yul\":970:986   */\n      add\n        /* \"#utility.yul\":966:993   */\n      add\n        /* \"#utility.yul\":959:997   */\n      mstore\n        /* \"#utility.yul\":1058:1062   */\n      0x20\n        /* \"#utility.yul\":1051:1053   */\n      0x1f\n        /* \"#utility.yul\":1047:1054   */\n      not\n        /* \"#utility.yul\":1042:1044   */\n      0x1f\n        /* \"#utility.yul\":1034:1040   */\n      dup4\n        /* \"#utility.yul\":1030:1045   */\n      add\n        /* \"#utility.yul\":1026:1055   */\n      and\n        /* \"#utility.yul\":1021:1024   */\n      dup6\n        /* \"#utility.yul\":1017:1056   */\n      add\n        /* \"#utility.yul\":1013:1063   */\n      add\n        /* \"#utility.yul\":1006:1063   */\n      swap2\n      pop\n      pop\n        /* \"#utility.yul\":780:1069   */\n      swap3\n      swap2\n      pop\n      pop\n      jump\t// out\n        /* \"#utility.yul\":1074:2149   */\n    tag_289:\n        /* \"#utility.yul\":1124:1127   */\n      0x00\n        /* \"#utility.yul\":1152:1158   */\n      0x0100\n        /* \"#utility.yul\":1193:1198   */\n      dup3\n        /* \"#utility.yul\":1187:1199   */\n      mload\n        /* \"#utility.yul\":1220:1222   */\n      dup2\n        /* \"#utility.yul\":1215:1218   */\n      dup6\n        /* \"#utility.yul\":1208:1223   */\n      mstore\n        /* \"#utility.yul\":1244:1289   */\n      tag_304\n        /* \"#utility.yul\":1285:1287   */\n      dup3\n        /* \"#utility.yul\":1280:1283   */\n      dup7\n        /* \"#utility.yul\":1276:1288   */\n      add\n        /* \"#utility.yul\":1262:1274   */\n      dup3\n        /* \"#utility.yul\":1244:1289   */\n      tag_288\n      jump\t// in\n    tag_304:\n        /* \"#utility.yul\":1232:1289   */\n      swap2\n      pop\n      pop\n        /* \"#utility.yul\":1337:1341   */\n      0x20\n        /* \"#utility.yul\":1330:1335   */\n      dup4\n        /* \"#utility.yul\":1326:1342   */\n      add\n        /* \"#utility.yul\":1320:1343   */\n      mload\n        /* \"#utility.yul\":1385:1388   */\n      dup5\n        /* \"#utility.yul\":1379:1383   */\n      dup3\n        /* \"#utility.yul\":1375:1389   */\n      sub\n        /* \"#utility.yul\":1368:1372   */\n      0x20\n        /* \"#utility.yul\":1363:1366   */\n      dup7\n        /* \"#utility.yul\":1359:1373   */\n      add\n        /* \"#utility.yul\":1352:1390   */\n      mstore\n        /* \"#utility.yul\":1413:1452   */\n      tag_305\n        /* \"#utility.yul\":1447:1451   */\n      dup3\n        /* \"#utility.yul\":1431:1445   */\n      dup3\n        /* \"#utility.yul\":1413:1452   */\n      tag_288\n      jump\t// in\n    tag_305:\n        /* \"#utility.yul\":1399:1452   */\n      swap2\n      pop\n      pop\n        /* \"#utility.yul\":1500:1504   */\n      0x40\n        /* \"#utility.yul\":1493:1498   */\n      dup4\n        /* \"#utility.yul\":1489:1505   */\n      add\n        /* \"#utility.yul\":1483:1506   */\n      mload\n        /* \"#utility.yul\":1550:1553   */\n      dup5\n        /* \"#utility.yul\":1542:1548   */\n      dup3\n        /* \"#utility.yul\":1538:1554   */\n      sub\n        /* \"#utility.yul\":1531:1535   */\n      0x40\n        /* \"#utility.yul\":1526:1529   */\n      dup7\n        /* \"#utility.yul\":1522:1536   */\n      add\n        /* \"#utility.yul\":1515:1555   */\n      mstore\n        /* \"#utility.yul\":1578:1619   */\n      tag_306\n        /* \"#utility.yul\":1612:1618   */\n      dup3\n        /* \"#utility.yul\":1596:1610   */\n      dup3\n        /* \"#utility.yul\":1578:1619   */\n      tag_288\n      jump\t// in\n    tag_306:\n        /* \"#utility.yul\":1564:1619   */\n      swap2\n      pop\n      pop\n        /* \"#utility.yul\":1667:1671   */\n      0x60\n        /* \"#utility.yul\":1660:1665   */\n      dup4\n        /* \"#utility.yul\":1656:1672   */\n      add\n        /* \"#utility.yul\":1650:1673   */\n      mload\n        /* \"#utility.yul\":1717:1720   */\n      dup5\n        /* \"#utility.yul\":1709:1715   */\n      dup3\n        /* \"#utility.yul\":1705:1721   */\n      sub\n        /* \"#utility.yul\":1698:1702   */\n      0x60\n        /* \"#utility.yul\":1693:1696   */\n      dup7\n        /* \"#utility.yul\":1689:1703   */\n      add\n        /* \"#utility.yul\":1682:1722   */\n      mstore\n        /* \"#utility.yul\":1745:1786   */\n      tag_307\n        /* \"#utility.yul\":1779:1785   */\n      dup3\n        /* \"#utility.yul\":1763:1777   */\n      dup3\n        /* \"#utility.yul\":1745:1786   */\n      tag_288\n      jump\t// in\n    tag_307:\n        /* \"#utility.yul\":1731:1786   */\n      swap2\n      pop\n      pop\n        /* \"#utility.yul\":1834:1838   */\n      0x80\n        /* \"#utility.yul\":1827:1832   */\n      dup4\n        /* \"#utility.yul\":1823:1839   */\n      add\n        /* \"#utility.yul\":1817:1840   */\n      mload\n        /* \"#utility.yul\":1884:1887   */\n      dup5\n        /* \"#utility.yul\":1876:1882   */\n      dup3\n        /* \"#utility.yul\":1872:1888   */\n      sub\n        /* \"#utility.yul\":1865:1869   */\n      0x80\n        /* \"#utility.yul\":1860:1863   */\n      dup7\n        /* \"#utility.yul\":1856:1870   */\n      add\n        /* \"#utility.yul\":1849:1889   */\n      mstore\n        /* \"#utility.yul\":1912:1953   */\n      tag_308\n        /* \"#utility.yul\":1946:1952   */\n      dup3\n        /* \"#utility.yul\":1930:1944   */\n      dup3\n        /* \"#utility.yul\":1912:1953   */\n      tag_288\n      jump\t// in\n    tag_308:\n        /* \"#utility.yul\":1898:1953   */\n      swap2\n      pop\n      pop\n        /* \"#utility.yul\":2002:2006   */\n      0xa0\n        /* \"#utility.yul\":1995:2000   */\n      dup4\n        /* \"#utility.yul\":1991:2007   */\n      add\n        /* \"#utility.yul\":1985:2008   */\n      mload\n        /* \"#utility.yul\":1978:1982   */\n      0xa0\n        /* \"#utility.yul\":1973:1976   */\n      dup6\n        /* \"#utility.yul\":1969:1983   */\n      add\n        /* \"#utility.yul\":1962:2009   */\n      mstore\n        /* \"#utility.yul\":2058:2062   */\n      0xc0\n        /* \"#utility.yul\":2051:2056   */\n      dup4\n        /* \"#utility.yul\":2047:2063   */\n      add\n        /* \"#utility.yul\":2041:2064   */\n      mload\n        /* \"#utility.yul\":2034:2038   */\n      0xc0\n        /* \"#utility.yul\":2029:2032   */\n      dup6\n        /* \"#utility.yul\":2025:2039   */\n      add\n        /* \"#utility.yul\":2018:2065   */\n      mstore\n        /* \"#utility.yul\":2114:2118   */\n      0xe0\n        /* \"#utility.yul\":2107:2112   */\n      dup4\n        /* \"#utility.yul\":2103:2119   */\n      add\n        /* \"#utility.yul\":2097:2120   */\n      mload\n        /* \"#utility.yul\":2090:2094   */\n      0xe0\n        /* \"#utility.yul\":2085:2088   */\n      dup6\n        /* \"#utility.yul\":2081:2095   */\n      add\n        /* \"#utility.yul\":2074:2121   */\n      mstore\n        /* \"#utility.yul\":2137:2143   */\n      dup1\n        /* \"#utility.yul\":2130:2143   */\n      swap2\n      pop\n      pop\n        /* \"#utility.yul\":1074:2149   */\n      swap3\n      swap2\n      pop\n      pop\n      jump\t// out\n        /* \"#utility.yul\":2154:2412   */\n    tag_39:\n        /* \"#utility.yul\":2333:2335   */\n      0x20\n        /* \"#utility.yul\":2322:2331   */\n      dup2\n        /* \"#utility.yul\":2315:2336   */\n      mstore\n        /* \"#utility.yul\":2296:2300   */\n      0x00\n        /* \"#utility.yul\":2353:2406   */\n      tag_300\n        /* \"#utility.yul\":2402:2404   */\n      0x20\n        /* \"#utility.yul\":2391:2400   */\n      dup4\n        /* \"#utility.yul\":2387:2405   */\n      add\n        /* \"#utility.yul\":2379:2385   */\n      dup5\n        /* \"#utility.yul\":2353:2406   */\n      tag_289\n      jump\t// in\n        /* \"#utility.yul\":2417:3098   */\n    tag_43:\n        /* \"#utility.yul\":2588:2590   */\n      0x20\n        /* \"#utility.yul\":2640:2661   */\n      dup1\n      dup3\n      mstore\n        /* \"#utility.yul\":2710:2723   */\n      dup3\n      mload\n        /* \"#utility.yul\":2613:2631   */\n      dup3\n      dup3\n      add\n        /* \"#utility.yul\":2732:2754   */\n      dup2\n      swap1\n      mstore\n        /* \"#utility.yul\":2559:2563   */\n      0x00\n      swap2\n        /* \"#utility.yul\":2588:2590   */\n      swap1\n        /* \"#utility.yul\":2811:2826   */\n      dup5\n      dup3\n      add\n      swap1\n        /* \"#utility.yul\":2785:2787   */\n      0x40\n        /* \"#utility.yul\":2770:2788   */\n      dup6\n      add\n      swap1\n        /* \"#utility.yul\":2559:2563   */\n      dup5\n        /* \"#utility.yul\":2854:3072   */\n    tag_312:\n        /* \"#utility.yul\":2868:2874   */\n      dup2\n        /* \"#utility.yul\":2865:2866   */\n      dup2\n        /* \"#utility.yul\":2862:2875   */\n      lt\n        /* \"#utility.yul\":2854:3072   */\n      iszero\n      tag_314\n      jumpi\n        /* \"#utility.yul\":2933:2946   */\n      dup4\n      mload\n      sub(shl(0xa0, 0x01), 0x01)\n        /* \"#utility.yul\":2929:2991   */\n      and\n        /* \"#utility.yul\":2917:2992   */\n      dup4\n      mstore\n        /* \"#utility.yul\":3047:3062   */\n      swap3\n      dup5\n      add\n      swap3\n        /* \"#utility.yul\":3012:3024   */\n      swap2\n      dup5\n      add\n      swap2\n        /* \"#utility.yul\":2890:2891   */\n      0x01\n        /* \"#utility.yul\":2883:2892   */\n      add\n        /* \"#utility.yul\":2854:3072   */\n      jump(tag_312)\n    tag_314:\n      pop\n        /* \"#utility.yul\":3089:3092   */\n      swap1\n      swap7\n        /* \"#utility.yul\":2417:3098   */\n      swap6\n      pop\n      pop\n      pop\n      pop\n      pop\n      pop\n      jump\t// out\n        /* \"#utility.yul\":3103:3363   */\n    tag_46:\n        /* \"#utility.yul\":3171:3177   */\n      0x00\n        /* \"#utility.yul\":3179:3185   */\n      dup1\n        /* \"#utility.yul\":3232:3234   */\n      0x40\n        /* \"#utility.yul\":3220:3229   */\n      dup4\n        /* \"#utility.yul\":3211:3218   */\n      dup6\n        /* \"#utility.yul\":3207:3230   */\n      sub\n        /* \"#utility.yul\":3203:3235   */\n      slt\n        /* \"#utility.yul\":3200:3252   */\n      iszero\n      tag_316\n      jumpi\n        /* \"#utility.yul\":3248:3249   */\n      0x00\n        /* \"#utility.yul\":3245:3246   */\n      dup1\n        /* \"#utility.yul\":3238:3250   */\n      revert\n        /* \"#utility.yul\":3200:3252   */\n    tag_316:\n        /* \"#utility.yul\":3271:3300   */\n      tag_317\n        /* \"#utility.yul\":3290:3299   */\n      dup4\n        /* \"#utility.yul\":3271:3300   */\n      tag_287\n      jump\t// in\n    tag_317:\n        /* \"#utility.yul\":3261:3300   */\n      swap2\n      pop\n        /* \"#utility.yul\":3319:3357   */\n      tag_318\n        /* \"#utility.yul\":3353:3355   */\n      0x20\n        /* \"#utility.yul\":3342:3351   */\n      dup5\n        /* \"#utility.yul\":3338:3356   */\n      add\n        /* \"#utility.yul\":3319:3357   */\n      tag_287\n      jump\t// in\n    tag_318:\n        /* \"#utility.yul\":3309:3357   */\n      swap1\n      pop\n        /* \"#utility.yul\":3103:3363   */\n      swap3\n      pop\n      swap3\n      swap1\n      pop\n      jump\t// out\n        /* \"#utility.yul\":3368:3548   */\n    tag_59:\n        /* \"#utility.yul\":3427:3433   */\n      0x00\n        /* \"#utility.yul\":3480:3482   */\n      0x20\n        /* \"#utility.yul\":3468:3477   */\n      dup3\n        /* \"#utility.yul\":3459:3466   */\n      dup5\n        /* \"#utility.yul\":3455:3478   */\n      sub\n        /* \"#utility.yul\":3451:3483   */\n      slt\n        /* \"#utility.yul\":3448:3500   */\n      iszero\n      tag_320\n      jumpi\n        /* \"#utility.yul\":3496:3497   */\n      0x00\n        /* \"#utility.yul\":3493:3494   */\n      dup1\n        /* \"#utility.yul\":3486:3498   */\n      revert\n        /* \"#utility.yul\":3448:3500   */\n    tag_320:\n      pop\n        /* \"#utility.yul\":3519:3542   */\n      calldataload\n      swap2\n        /* \"#utility.yul\":3368:3548   */\n      swap1\n      pop\n      jump\t// out\n        /* \"#utility.yul\":3784:4004   */\n    tag_71:\n        /* \"#utility.yul\":3933:3935   */\n      0x20\n        /* \"#utility.yul\":3922:3931   */\n      dup2\n        /* \"#utility.yul\":3915:3936   */\n      mstore\n        /* \"#utility.yul\":3896:3900   */\n      0x00\n        /* \"#utility.yul\":3953:3998   */\n      tag_300\n        /* \"#utility.yul\":3994:3996   */\n      0x20\n        /* \"#utility.yul\":3983:3992   */\n      dup4\n        /* \"#utility.yul\":3979:3997   */\n      add\n        /* \"#utility.yul\":3971:3977   */\n      dup5\n        /* \"#utility.yul\":3953:3998   */\n      tag_288\n      jump\t// in\n        /* \"#utility.yul\":4009:4136   */\n    tag_236:\n        /* \"#utility.yul\":4070:4080   */\n      0x4e487b71\n        /* \"#utility.yul\":4065:4068   */\n      0xe0\n        /* \"#utility.yul\":4061:4081   */\n      shl\n        /* \"#utility.yul\":4058:4059   */\n      0x00\n        /* \"#utility.yul\":4051:4082   */\n      mstore\n        /* \"#utility.yul\":4101:4105   */\n      0x41\n        /* \"#utility.yul\":4098:4099   */\n      0x04\n        /* \"#utility.yul\":4091:4106   */\n      mstore\n        /* \"#utility.yul\":4125:4129   */\n      0x24\n        /* \"#utility.yul\":4122:4123   */\n      0x00\n        /* \"#utility.yul\":4115:4130   */\n      revert\n        /* \"#utility.yul\":4141:4860   */\n    tag_290:\n        /* \"#utility.yul\":4184:4189   */\n      0x00\n        /* \"#utility.yul\":4237:4240   */\n      dup3\n        /* \"#utility.yul\":4230:4234   */\n      0x1f\n        /* \"#utility.yul\":4222:4228   */\n      dup4\n        /* \"#utility.yul\":4218:4235   */\n      add\n        /* \"#utility.yul\":4214:4241   */\n      slt\n        /* \"#utility.yul\":4204:4259   */\n      tag_326\n      jumpi\n        /* \"#utility.yul\":4255:4256   */\n      0x00\n        /* \"#utility.yul\":4252:4253   */\n      dup1\n        /* \"#utility.yul\":4245:4257   */\n      revert\n        /* \"#utility.yul\":4204:4259   */\n    tag_326:\n        /* \"#utility.yul\":4291:4297   */\n      dup2\n        /* \"#utility.yul\":4278:4298   */\n      calldataload\n        /* \"#utility.yul\":4317:4335   */\n      0xffffffffffffffff\n        /* \"#utility.yul\":4354:4356   */\n      dup1\n        /* \"#utility.yul\":4350:4352   */\n      dup3\n        /* \"#utility.yul\":4347:4357   */\n      gt\n        /* \"#utility.yul\":4344:4380   */\n      iszero\n      tag_328\n      jumpi\n        /* \"#utility.yul\":4360:4378   */\n      tag_328\n      tag_236\n      jump\t// in\n    tag_328:\n        /* \"#utility.yul\":4435:4437   */\n      0x40\n        /* \"#utility.yul\":4429:4438   */\n      mload\n        /* \"#utility.yul\":4403:4405   */\n      0x1f\n        /* \"#utility.yul\":4489:4502   */\n      dup4\n      add\n      not(0x1f)\n        /* \"#utility.yul\":4485:4507   */\n      swap1\n      dup2\n      and\n        /* \"#utility.yul\":4509:4511   */\n      0x3f\n        /* \"#utility.yul\":4481:4512   */\n      add\n        /* \"#utility.yul\":4477:4517   */\n      and\n        /* \"#utility.yul\":4465:4518   */\n      dup2\n      add\n      swap1\n        /* \"#utility.yul\":4533:4551   */\n      dup3\n      dup3\n      gt\n        /* \"#utility.yul\":4553:4575   */\n      dup2\n      dup4\n      lt\n        /* \"#utility.yul\":4530:4576   */\n      or\n        /* \"#utility.yul\":4527:4599   */\n      iszero\n      tag_330\n      jumpi\n        /* \"#utility.yul\":4579:4597   */\n      tag_330\n      tag_236\n      jump\t// in\n    tag_330:\n        /* \"#utility.yul\":4619:4629   */\n      dup2\n        /* \"#utility.yul\":4615:4617   */\n      0x40\n        /* \"#utility.yul\":4608:4630   */\n      mstore\n        /* \"#utility.yul\":4654:4656   */\n      dup4\n        /* \"#utility.yul\":4646:4652   */\n      dup2\n        /* \"#utility.yul\":4639:4657   */\n      mstore\n        /* \"#utility.yul\":4700:4703   */\n      dup7\n        /* \"#utility.yul\":4693:4697   */\n      0x20\n        /* \"#utility.yul\":4688:4690   */\n      dup6\n        /* \"#utility.yul\":4680:4686   */\n      dup9\n        /* \"#utility.yul\":4676:4691   */\n      add\n        /* \"#utility.yul\":4672:4698   */\n      add\n        /* \"#utility.yul\":4669:4704   */\n      gt\n        /* \"#utility.yul\":4666:4721   */\n      iszero\n      tag_331\n      jumpi\n        /* \"#utility.yul\":4717:4718   */\n      0x00\n        /* \"#utility.yul\":4714:4715   */\n      dup1\n        /* \"#utility.yul\":4707:4719   */\n      revert\n        /* \"#utility.yul\":4666:4721   */\n    tag_331:\n        /* \"#utility.yul\":4781:4783   */\n      dup4\n        /* \"#utility.yul\":4774:4778   */\n      0x20\n        /* \"#utility.yul\":4766:4772   */\n      dup8\n        /* \"#utility.yul\":4762:4779   */\n      add\n        /* \"#utility.yul\":4755:4759   */\n      0x20\n        /* \"#utility.yul\":4747:4753   */\n      dup4\n        /* \"#utility.yul\":4743:4760   */\n      add\n        /* \"#utility.yul\":4730:4784   */\n      calldatacopy\n        /* \"#utility.yul\":4828:4829   */\n      0x00\n        /* \"#utility.yul\":4821:4825   */\n      0x20\n        /* \"#utility.yul\":4816:4818   */\n      dup6\n        /* \"#utility.yul\":4808:4814   */\n      dup4\n        /* \"#utility.yul\":4804:4819   */\n      add\n        /* \"#utility.yul\":4800:4826   */\n      add\n        /* \"#utility.yul\":4793:4830   */\n      mstore\n        /* \"#utility.yul\":4848:4854   */\n      dup1\n        /* \"#utility.yul\":4839:4854   */\n      swap5\n      pop\n      pop\n      pop\n      pop\n      pop\n        /* \"#utility.yul\":4141:4860   */\n      swap3\n      swap2\n      pop\n      pop\n      jump\t// out\n        /* \"#utility.yul\":4865:6010   */\n    tag_81:\n        /* \"#utility.yul\":5010:5016   */\n      0x00\n        /* \"#utility.yul\":5018:5024   */\n      dup1\n        /* \"#utility.yul\":5026:5032   */\n      0x00\n        /* \"#utility.yul\":5034:5040   */\n      dup1\n        /* \"#utility.yul\":5042:5048   */\n      0x00\n        /* \"#utility.yul\":5095:5098   */\n      0xa0\n        /* \"#utility.yul\":5083:5092   */\n      dup7\n        /* \"#utility.yul\":5074:5081   */\n      dup9\n        /* \"#utility.yul\":5070:5093   */\n      sub\n        /* \"#utility.yul\":5066:5099   */\n      slt\n        /* \"#utility.yul\":5063:5116   */\n      iszero\n      tag_333\n      jumpi\n        /* \"#utility.yul\":5112:5113   */\n      0x00\n        /* \"#utility.yul\":5109:5110   */\n      dup1\n        /* \"#utility.yul\":5102:5114   */\n      revert\n        /* \"#utility.yul\":5063:5116   */\n    tag_333:\n        /* \"#utility.yul\":5152:5161   */\n      dup6\n        /* \"#utility.yul\":5139:5162   */\n      calldataload\n        /* \"#utility.yul\":5181:5199   */\n      0xffffffffffffffff\n        /* \"#utility.yul\":5222:5224   */\n      dup1\n        /* \"#utility.yul\":5214:5220   */\n      dup3\n        /* \"#utility.yul\":5211:5225   */\n      gt\n        /* \"#utility.yul\":5208:5242   */\n      iszero\n      tag_334\n      jumpi\n        /* \"#utility.yul\":5238:5239   */\n      0x00\n        /* \"#utility.yul\":5235:5236   */\n      dup1\n        /* \"#utility.yul\":5228:5240   */\n      revert\n        /* \"#utility.yul\":5208:5242   */\n    tag_334:\n        /* \"#utility.yul\":5261:5311   */\n      tag_335\n        /* \"#utility.yul\":5303:5310   */\n      dup10\n        /* \"#utility.yul\":5294:5300   */\n      dup4\n        /* \"#utility.yul\":5283:5292   */\n      dup11\n        /* \"#utility.yul\":5279:5301   */\n      add\n        /* \"#utility.yul\":5261:5311   */\n      tag_290\n      jump\t// in\n    tag_335:\n        /* \"#utility.yul\":5251:5311   */\n      swap7\n      pop\n        /* \"#utility.yul\":5364:5366   */\n      0x20\n        /* \"#utility.yul\":5353:5362   */\n      dup9\n        /* \"#utility.yul\":5349:5367   */\n      add\n        /* \"#utility.yul\":5336:5368   */\n      calldataload\n        /* \"#utility.yul\":5320:5368   */\n      swap2\n      pop\n        /* \"#utility.yul\":5393:5395   */\n      dup1\n        /* \"#utility.yul\":5383:5391   */\n      dup3\n        /* \"#utility.yul\":5380:5396   */\n      gt\n        /* \"#utility.yul\":5377:5413   */\n      iszero\n      tag_336\n      jumpi\n        /* \"#utility.yul\":5409:5410   */\n      0x00\n        /* \"#utility.yul\":5406:5407   */\n      dup1\n        /* \"#utility.yul\":5399:5411   */\n      revert\n        /* \"#utility.yul\":5377:5413   */\n    tag_336:\n        /* \"#utility.yul\":5432:5484   */\n      tag_337\n        /* \"#utility.yul\":5476:5483   */\n      dup10\n        /* \"#utility.yul\":5465:5473   */\n      dup4\n        /* \"#utility.yul\":5454:5463   */\n      dup11\n        /* \"#utility.yul\":5450:5474   */\n      add\n        /* \"#utility.yul\":5432:5484   */\n      tag_290\n      jump\t// in\n    tag_337:\n        /* \"#utility.yul\":5422:5484   */\n      swap6\n      pop\n        /* \"#utility.yul\":5537:5539   */\n      0x40\n        /* \"#utility.yul\":5526:5535   */\n      dup9\n        /* \"#utility.yul\":5522:5540   */\n      add\n        /* \"#utility.yul\":5509:5541   */\n      calldataload\n        /* \"#utility.yul\":5493:5541   */\n      swap2\n      pop\n        /* \"#utility.yul\":5566:5568   */\n      dup1\n        /* \"#utility.yul\":5556:5564   */\n      dup3\n        /* \"#utility.yul\":5553:5569   */\n      gt\n        /* \"#utility.yul\":5550:5586   */\n      iszero\n      tag_338\n      jumpi\n        /* \"#utility.yul\":5582:5583   */\n      0x00\n        /* \"#utility.yul\":5579:5580   */\n      dup1\n        /* \"#utility.yul\":5572:5584   */\n      revert\n        /* \"#utility.yul\":5550:5586   */\n    tag_338:\n        /* \"#utility.yul\":5605:5657   */\n      tag_339\n        /* \"#utility.yul\":5649:5656   */\n      dup10\n        /* \"#utility.yul\":5638:5646   */\n      dup4\n        /* \"#utility.yul\":5627:5636   */\n      dup11\n        /* \"#utility.yul\":5623:5647   */\n      add\n        /* \"#utility.yul\":5605:5657   */\n      tag_290\n      jump\t// in\n    tag_339:\n        /* \"#utility.yul\":5595:5657   */\n      swap5\n      pop\n        /* \"#utility.yul\":5710:5712   */\n      0x60\n        /* \"#utility.yul\":5699:5708   */\n      dup9\n        /* \"#utility.yul\":5695:5713   */\n      add\n        /* \"#utility.yul\":5682:5714   */\n      calldataload\n        /* \"#utility.yul\":5666:5714   */\n      swap2\n      pop\n        /* \"#utility.yul\":5739:5741   */\n      dup1\n        /* \"#utility.yul\":5729:5737   */\n      dup3\n        /* \"#utility.yul\":5726:5742   */\n      gt\n        /* \"#utility.yul\":5723:5759   */\n      iszero\n      tag_340\n      jumpi\n        /* \"#utility.yul\":5755:5756   */\n      0x00\n        /* \"#utility.yul\":5752:5753   */\n      dup1\n        /* \"#utility.yul\":5745:5757   */\n      revert\n        /* \"#utility.yul\":5723:5759   */\n    tag_340:\n        /* \"#utility.yul\":5778:5830   */\n      tag_341\n        /* \"#utility.yul\":5822:5829   */\n      dup10\n        /* \"#utility.yul\":5811:5819   */\n      dup4\n        /* \"#utility.yul\":5800:5809   */\n      dup11\n        /* \"#utility.yul\":5796:5820   */\n      add\n        /* \"#utility.yul\":5778:5830   */\n      tag_290\n      jump\t// in\n    tag_341:\n        /* \"#utility.yul\":5768:5830   */\n      swap4\n      pop\n        /* \"#utility.yul\":5883:5886   */\n      0x80\n        /* \"#utility.yul\":5872:5881   */\n      dup9\n        /* \"#utility.yul\":5868:5887   */\n      add\n        /* \"#utility.yul\":5855:5888   */\n      calldataload\n        /* \"#utility.yul\":5839:5888   */\n      swap2\n      pop\n        /* \"#utility.yul\":5913:5915   */\n      dup1\n        /* \"#utility.yul\":5903:5911   */\n      dup3\n        /* \"#utility.yul\":5900:5916   */\n      gt\n        /* \"#utility.yul\":5897:5933   */\n      iszero\n      tag_342\n      jumpi\n        /* \"#utility.yul\":5929:5930   */\n      0x00\n        /* \"#utility.yul\":5926:5927   */\n      dup1\n        /* \"#utility.yul\":5919:5931   */\n      revert\n        /* \"#utility.yul\":5897:5933   */\n    tag_342:\n      pop\n        /* \"#utility.yul\":5952:6004   */\n      tag_343\n        /* \"#utility.yul\":5996:6003   */\n      dup9\n        /* \"#utility.yul\":5985:5993   */\n      dup3\n        /* \"#utility.yul\":5974:5983   */\n      dup10\n        /* \"#utility.yul\":5970:5994   */\n      add\n        /* \"#utility.yul\":5952:6004   */\n      tag_290\n      jump\t// in\n    tag_343:\n        /* \"#utility.yul\":5942:6004   */\n      swap2\n      pop\n      pop\n        /* \"#utility.yul\":4865:6010   */\n      swap3\n      swap6\n      pop\n      swap3\n      swap6\n      swap1\n      swap4\n      pop\n      jump\t// out\n        /* \"#utility.yul\":6015:7126   */\n    tag_87:\n        /* \"#utility.yul\":6403:6407   */\n      0x00\n        /* \"#utility.yul\":6432:6435   */\n      0x0100\n        /* \"#utility.yul\":6462:6464   */\n      dup1\n        /* \"#utility.yul\":6451:6460   */\n      dup4\n        /* \"#utility.yul\":6444:6465   */\n      mstore\n        /* \"#utility.yul\":6488:6533   */\n      tag_345\n        /* \"#utility.yul\":6529:6531   */\n      dup2\n        /* \"#utility.yul\":6518:6527   */\n      dup5\n        /* \"#utility.yul\":6514:6532   */\n      add\n        /* \"#utility.yul\":6506:6512   */\n      dup13\n        /* \"#utility.yul\":6488:6533   */\n      tag_288\n      jump\t// in\n    tag_345:\n        /* \"#utility.yul\":6474:6533   */\n      swap1\n      pop\n        /* \"#utility.yul\":6581:6590   */\n      dup3\n        /* \"#utility.yul\":6573:6579   */\n      dup2\n        /* \"#utility.yul\":6569:6591   */\n      sub\n        /* \"#utility.yul\":6564:6566   */\n      0x20\n        /* \"#utility.yul\":6553:6562   */\n      dup5\n        /* \"#utility.yul\":6549:6567   */\n      add\n        /* \"#utility.yul\":6542:6592   */\n      mstore\n        /* \"#utility.yul\":6615:6648   */\n      tag_346\n        /* \"#utility.yul\":6641:6647   */\n      dup2\n        /* \"#utility.yul\":6633:6639   */\n      dup12\n        /* \"#utility.yul\":6615:6648   */\n      tag_288\n      jump\t// in\n    tag_346:\n        /* \"#utility.yul\":6601:6648   */\n      swap1\n      pop\n        /* \"#utility.yul\":6696:6705   */\n      dup3\n        /* \"#utility.yul\":6688:6694   */\n      dup2\n        /* \"#utility.yul\":6684:6706   */\n      sub\n        /* \"#utility.yul\":6679:6681   */\n      0x40\n        /* \"#utility.yul\":6668:6677   */\n      dup5\n        /* \"#utility.yul\":6664:6682   */\n      add\n        /* \"#utility.yul\":6657:6707   */\n      mstore\n        /* \"#utility.yul\":6730:6763   */\n      tag_347\n        /* \"#utility.yul\":6756:6762   */\n      dup2\n        /* \"#utility.yul\":6748:6754   */\n      dup11\n        /* \"#utility.yul\":6730:6763   */\n      tag_288\n      jump\t// in\n    tag_347:\n        /* \"#utility.yul\":6716:6763   */\n      swap1\n      pop\n        /* \"#utility.yul\":6811:6820   */\n      dup3\n        /* \"#utility.yul\":6803:6809   */\n      dup2\n        /* \"#utility.yul\":6799:6821   */\n      sub\n        /* \"#utility.yul\":6794:6796   */\n      0x60\n        /* \"#utility.yul\":6783:6792   */\n      dup5\n        /* \"#utility.yul\":6779:6797   */\n      add\n        /* \"#utility.yul\":6772:6822   */\n      mstore\n        /* \"#utility.yul\":6845:6878   */\n      tag_348\n        /* \"#utility.yul\":6871:6877   */\n      dup2\n        /* \"#utility.yul\":6863:6869   */\n      dup10\n        /* \"#utility.yul\":6845:6878   */\n      tag_288\n      jump\t// in\n    tag_348:\n        /* \"#utility.yul\":6831:6878   */\n      swap1\n      pop\n        /* \"#utility.yul\":6927:6936   */\n      dup3\n        /* \"#utility.yul\":6919:6925   */\n      dup2\n        /* \"#utility.yul\":6915:6937   */\n      sub\n        /* \"#utility.yul\":6909:6912   */\n      0x80\n        /* \"#utility.yul\":6898:6907   */\n      dup5\n        /* \"#utility.yul\":6894:6913   */\n      add\n        /* \"#utility.yul\":6887:6938   */\n      mstore\n        /* \"#utility.yul\":6955:6988   */\n      tag_349\n        /* \"#utility.yul\":6981:6987   */\n      dup2\n        /* \"#utility.yul\":6973:6979   */\n      dup9\n        /* \"#utility.yul\":6955:6988   */\n      tag_288\n      jump\t// in\n    tag_349:\n        /* \"#utility.yul\":7019:7022   */\n      0xa0\n        /* \"#utility.yul\":7004:7023   */\n      dup5\n      add\n        /* \"#utility.yul\":6997:7032   */\n      swap7\n      swap1\n      swap7\n      mstore\n      pop\n      pop\n        /* \"#utility.yul\":7063:7066   */\n      0xc0\n        /* \"#utility.yul\":7048:7067   */\n      dup2\n      add\n        /* \"#utility.yul\":7041:7076   */\n      swap3\n      swap1\n      swap3\n      mstore\n        /* \"#utility.yul\":7107:7110   */\n      0xe0\n        /* \"#utility.yul\":7092:7111   */\n      swap1\n      swap2\n      add\n        /* \"#utility.yul\":7085:7120   */\n      mstore\n        /* \"#utility.yul\":6947:6988   */\n      swap6\n        /* \"#utility.yul\":6015:7126   */\n      swap5\n      pop\n      pop\n      pop\n      pop\n      pop\n      jump\t// out\n        /* \"#utility.yul\":7131:7972   */\n    tag_91:\n        /* \"#utility.yul\":7323:7327   */\n      0x00\n        /* \"#utility.yul\":7352:7354   */\n      0x20\n        /* \"#utility.yul\":7392:7394   */\n      dup1\n        /* \"#utility.yul\":7381:7390   */\n      dup4\n        /* \"#utility.yul\":7377:7395   */\n      add\n        /* \"#utility.yul\":7422:7424   */\n      0x20\n        /* \"#utility.yul\":7411:7420   */\n      dup5\n        /* \"#utility.yul\":7404:7425   */\n      mstore\n        /* \"#utility.yul\":7445:7451   */\n      dup1\n        /* \"#utility.yul\":7480:7486   */\n      dup6\n        /* \"#utility.yul\":7474:7487   */\n      mload\n        /* \"#utility.yul\":7511:7517   */\n      dup1\n        /* \"#utility.yul\":7503:7509   */\n      dup4\n        /* \"#utility.yul\":7496:7518   */\n      mstore\n        /* \"#utility.yul\":7549:7551   */\n      0x40\n        /* \"#utility.yul\":7538:7547   */\n      dup7\n        /* \"#utility.yul\":7534:7552   */\n      add\n        /* \"#utility.yul\":7527:7552   */\n      swap2\n      pop\n        /* \"#utility.yul\":7611:7613   */\n      0x40\n        /* \"#utility.yul\":7601:7607   */\n      dup2\n        /* \"#utility.yul\":7598:7599   */\n      0x05\n        /* \"#utility.yul\":7594:7608   */\n      shl\n        /* \"#utility.yul\":7583:7592   */\n      dup8\n        /* \"#utility.yul\":7579:7609   */\n      add\n        /* \"#utility.yul\":7575:7614   */\n      add\n        /* \"#utility.yul\":7561:7614   */\n      swap3\n      pop\n        /* \"#utility.yul\":7649:7651   */\n      0x20\n        /* \"#utility.yul\":7641:7647   */\n      dup8\n        /* \"#utility.yul\":7637:7652   */\n      add\n        /* \"#utility.yul\":7670:7671   */\n      0x00\n        /* \"#utility.yul\":7680:7943   */\n    tag_351:\n        /* \"#utility.yul\":7694:7700   */\n      dup3\n        /* \"#utility.yul\":7691:7692   */\n      dup2\n        /* \"#utility.yul\":7688:7701   */\n      lt\n        /* \"#utility.yul\":7680:7943   */\n      iszero\n      tag_353\n      jumpi\n        /* \"#utility.yul\":7787:7789   */\n      0x3f\n        /* \"#utility.yul\":7783:7790   */\n      not\n        /* \"#utility.yul\":7771:7780   */\n      dup9\n        /* \"#utility.yul\":7763:7769   */\n      dup7\n        /* \"#utility.yul\":7759:7781   */\n      sub\n        /* \"#utility.yul\":7755:7791   */\n      add\n        /* \"#utility.yul\":7750:7753   */\n      dup5\n        /* \"#utility.yul\":7743:7792   */\n      mstore\n        /* \"#utility.yul\":7815:7863   */\n      tag_354\n        /* \"#utility.yul\":7856:7862   */\n      dup6\n        /* \"#utility.yul\":7847:7853   */\n      dup4\n        /* \"#utility.yul\":7841:7854   */\n      mload\n        /* \"#utility.yul\":7815:7863   */\n      tag_289\n      jump\t// in\n    tag_354:\n        /* \"#utility.yul\":7805:7863   */\n      swap5\n      pop\n        /* \"#utility.yul\":7921:7933   */\n      swap3\n      dup6\n      add\n      swap3\n        /* \"#utility.yul\":7886:7901   */\n      swap1\n      dup6\n      add\n      swap1\n        /* \"#utility.yul\":7716:7717   */\n      0x01\n        /* \"#utility.yul\":7709:7718   */\n      add\n        /* \"#utility.yul\":7680:7943   */\n      jump(tag_351)\n    tag_353:\n      pop\n        /* \"#utility.yul\":7960:7966   */\n      swap3\n      swap8\n        /* \"#utility.yul\":7131:7972   */\n      swap7\n      pop\n      pop\n      pop\n      pop\n      pop\n      pop\n      pop\n      jump\t// out\n        /* \"#utility.yul\":8328:8708   */\n    tag_111:\n        /* \"#utility.yul\":8407:8408   */\n      0x01\n        /* \"#utility.yul\":8403:8415   */\n      dup2\n      dup2\n      shr\n      swap1\n        /* \"#utility.yul\":8450:8462   */\n      dup3\n      and\n      dup1\n        /* \"#utility.yul\":8471:8532   */\n      tag_357\n      jumpi\n        /* \"#utility.yul\":8525:8529   */\n      0x7f\n        /* \"#utility.yul\":8517:8523   */\n      dup3\n        /* \"#utility.yul\":8513:8530   */\n      and\n        /* \"#utility.yul\":8503:8530   */\n      swap2\n      pop\n        /* \"#utility.yul\":8471:8532   */\n    tag_357:\n        /* \"#utility.yul\":8578:8580   */\n      0x20\n        /* \"#utility.yul\":8570:8576   */\n      dup3\n        /* \"#utility.yul\":8567:8581   */\n      lt\n        /* \"#utility.yul\":8547:8565   */\n      dup2\n        /* \"#utility.yul\":8544:8582   */\n      sub\n        /* \"#utility.yul\":8541:8702   */\n      tag_241\n      jumpi\n        /* \"#utility.yul\":8624:8634   */\n      0x4e487b71\n        /* \"#utility.yul\":8619:8622   */\n      0xe0\n        /* \"#utility.yul\":8615:8635   */\n      shl\n        /* \"#utility.yul\":8612:8613   */\n      0x00\n        /* \"#utility.yul\":8605:8636   */\n      mstore\n        /* \"#utility.yul\":8659:8663   */\n      0x22\n        /* \"#utility.yul\":8656:8657   */\n      0x04\n        /* \"#utility.yul\":8649:8664   */\n      mstore\n        /* \"#utility.yul\":8687:8691   */\n      0x24\n        /* \"#utility.yul\":8684:8685   */\n      0x00\n        /* \"#utility.yul\":8677:8692   */\n      revert\n        /* \"#utility.yul\":9061:9188   */\n    tag_174:\n        /* \"#utility.yul\":9122:9132   */\n      0x4e487b71\n        /* \"#utility.yul\":9117:9120   */\n      0xe0\n        /* \"#utility.yul\":9113:9133   */\n      shl\n        /* \"#utility.yul\":9110:9111   */\n      0x00\n        /* \"#utility.yul\":9103:9134   */\n      mstore\n        /* \"#utility.yul\":9153:9157   */\n      0x32\n        /* \"#utility.yul\":9150:9151   */\n      0x04\n        /* \"#utility.yul\":9143:9158   */\n      mstore\n        /* \"#utility.yul\":9177:9181   */\n      0x24\n        /* \"#utility.yul\":9174:9175   */\n      0x00\n        /* \"#utility.yul\":9167:9182   */\n      revert\n        /* \"#utility.yul\":9549:9781   */\n    tag_191:\n        /* \"#utility.yul\":9588:9591   */\n      0x00\n        /* \"#utility.yul\":9609:9626   */\n      0x01\n      dup3\n      add\n        /* \"#utility.yul\":9606:9746   */\n      tag_363\n      jumpi\n        /* \"#utility.yul\":9668:9678   */\n      0x4e487b71\n        /* \"#utility.yul\":9663:9666   */\n      0xe0\n        /* \"#utility.yul\":9659:9679   */\n      shl\n        /* \"#utility.yul\":9656:9657   */\n      0x00\n        /* \"#utility.yul\":9649:9680   */\n      mstore\n        /* \"#utility.yul\":9703:9707   */\n      0x11\n        /* \"#utility.yul\":9700:9701   */\n      0x04\n        /* \"#utility.yul\":9693:9708   */\n      mstore\n        /* \"#utility.yul\":9731:9735   */\n      0x24\n        /* \"#utility.yul\":9728:9729   */\n      0x00\n        /* \"#utility.yul\":9721:9736   */\n      revert\n        /* \"#utility.yul\":9606:9746   */\n    tag_363:\n      pop\n        /* \"#utility.yul\":9773:9774   */\n      0x01\n        /* \"#utility.yul\":9762:9775   */\n      add\n      swap1\n        /* \"#utility.yul\":9549:9781   */\n      jump\t// out\n        /* \"#utility.yul\":10667:11185   */\n    tag_292:\n        /* \"#utility.yul\":10769:10771   */\n      0x1f\n        /* \"#utility.yul\":10764:10767   */\n      dup3\n        /* \"#utility.yul\":10761:10772   */\n      gt\n        /* \"#utility.yul\":10758:11179   */\n      iszero\n      tag_368\n      jumpi\n        /* \"#utility.yul\":10805:10810   */\n      dup1\n        /* \"#utility.yul\":10802:10803   */\n      0x00\n        /* \"#utility.yul\":10795:10811   */\n      mstore\n        /* \"#utility.yul\":10849:10853   */\n      0x20\n        /* \"#utility.yul\":10846:10847   */\n      0x00\n        /* \"#utility.yul\":10836:10854   */\n      keccak256\n        /* \"#utility.yul\":10919:10921   */\n      0x1f\n        /* \"#utility.yul\":10907:10917   */\n      dup5\n        /* \"#utility.yul\":10903:10922   */\n      add\n        /* \"#utility.yul\":10900:10901   */\n      0x05\n        /* \"#utility.yul\":10896:10923   */\n      shr\n        /* \"#utility.yul\":10890:10894   */\n      dup2\n        /* \"#utility.yul\":10886:10924   */\n      add\n        /* \"#utility.yul\":10955:10959   */\n      0x20\n        /* \"#utility.yul\":10943:10953   */\n      dup6\n        /* \"#utility.yul\":10940:10960   */\n      lt\n        /* \"#utility.yul\":10937:10984   */\n      iszero\n      tag_369\n      jumpi\n      pop\n        /* \"#utility.yul\":10978:10982   */\n      dup1\n        /* \"#utility.yul\":10937:10984   */\n    tag_369:\n        /* \"#utility.yul\":11033:11035   */\n      0x1f\n        /* \"#utility.yul\":11028:11031   */\n      dup5\n        /* \"#utility.yul\":11024:11036   */\n      add\n        /* \"#utility.yul\":11021:11022   */\n      0x05\n        /* \"#utility.yul\":11017:11037   */\n      shr\n        /* \"#utility.yul\":11011:11015   */\n      dup3\n        /* \"#utility.yul\":11007:11038   */\n      add\n        /* \"#utility.yul\":10997:11038   */\n      swap2\n      pop\n        /* \"#utility.yul\":11088:11169   */\n    tag_370:\n        /* \"#utility.yul\":11106:11108   */\n      dup2\n        /* \"#utility.yul\":11099:11104   */\n      dup2\n        /* \"#utility.yul\":11096:11109   */\n      lt\n        /* \"#utility.yul\":11088:11169   */\n      iszero\n      tag_372\n      jumpi\n        /* \"#utility.yul\":11165:11166   */\n      0x00\n        /* \"#utility.yul\":11151:11167   */\n      dup2\n      sstore\n        /* \"#utility.yul\":11132:11133   */\n      0x01\n        /* \"#utility.yul\":11121:11134   */\n      add\n        /* \"#utility.yul\":11088:11169   */\n      jump(tag_370)\n    tag_372:\n        /* \"#utility.yul\":11092:11095   */\n      pop\n      pop\n        /* \"#utility.yul\":10758:11179   */\n    tag_368:\n        /* \"#utility.yul\":10667:11185   */\n      pop\n      pop\n      pop\n      jump\t// out\n        /* \"#utility.yul\":11361:12706   */\n    tag_203:\n        /* \"#utility.yul\":11487:11490   */\n      dup2\n        /* \"#utility.yul\":11481:11491   */\n      mload\n        /* \"#utility.yul\":11514:11532   */\n      0xffffffffffffffff\n        /* \"#utility.yul\":11506:11512   */\n      dup2\n        /* \"#utility.yul\":11503:11533   */\n      gt\n        /* \"#utility.yul\":11500:11556   */\n      iszero\n      tag_376\n      jumpi\n        /* \"#utility.yul\":11536:11554   */\n      tag_376\n      tag_236\n      jump\t// in\n    tag_376:\n        /* \"#utility.yul\":11565:11662   */\n      tag_377\n        /* \"#utility.yul\":11655:11661   */\n      dup2\n        /* \"#utility.yul\":11615:11653   */\n      tag_378\n        /* \"#utility.yul\":11647:11651   */\n      dup5\n        /* \"#utility.yul\":11641:11652   */\n      sload\n        /* \"#utility.yul\":11615:11653   */\n      tag_111\n      jump\t// in\n    tag_378:\n        /* \"#utility.yul\":11609:11613   */\n      dup5\n        /* \"#utility.yul\":11565:11662   */\n      tag_292\n      jump\t// in\n    tag_377:\n        /* \"#utility.yul\":11717:11721   */\n      0x20\n      dup1\n        /* \"#utility.yul\":11774:11776   */\n      0x1f\n        /* \"#utility.yul\":11763:11777   */\n      dup4\n      gt\n        /* \"#utility.yul\":11791:11792   */\n      0x01\n        /* \"#utility.yul\":11786:12449   */\n      dup2\n      eq\n      tag_380\n      jumpi\n        /* \"#utility.yul\":12493:12494   */\n      0x00\n        /* \"#utility.yul\":12510:12516   */\n      dup5\n        /* \"#utility.yul\":12507:12596   */\n      iszero\n      tag_381\n      jumpi\n      pop\n        /* \"#utility.yul\":12562:12581   */\n      dup6\n      dup4\n      add\n        /* \"#utility.yul\":12556:12582   */\n      mload\n        /* \"#utility.yul\":12507:12596   */\n    tag_381:\n      not(0x00)\n        /* \"#utility.yul\":11318:11319   */\n      0x03\n        /* \"#utility.yul\":11314:11325   */\n      dup7\n      swap1\n      shl\n        /* \"#utility.yul\":11310:11334   */\n      shr\n        /* \"#utility.yul\":11306:11335   */\n      not\n        /* \"#utility.yul\":11296:11336   */\n      and\n        /* \"#utility.yul\":11342:11343   */\n      0x01\n        /* \"#utility.yul\":11338:11349   */\n      dup6\n      swap1\n      shl\n        /* \"#utility.yul\":11293:11350   */\n      or\n        /* \"#utility.yul\":12609:12690   */\n      dup6\n      sstore\n        /* \"#utility.yul\":11756:12700   */\n      jump(tag_379)\n        /* \"#utility.yul\":11786:12449   */\n    tag_380:\n        /* \"#utility.yul\":10614:10615   */\n      0x00\n        /* \"#utility.yul\":10607:10621   */\n      dup6\n      dup2\n      mstore\n        /* \"#utility.yul\":10651:10655   */\n      0x20\n        /* \"#utility.yul\":10638:10656   */\n      dup2\n      keccak256\n      not(0x1f)\n        /* \"#utility.yul\":11822:11842   */\n      dup7\n      and\n      swap2\n        /* \"#utility.yul\":11940:12176   */\n    tag_384:\n        /* \"#utility.yul\":11954:11961   */\n      dup3\n        /* \"#utility.yul\":11951:11952   */\n      dup2\n        /* \"#utility.yul\":11948:11962   */\n      lt\n        /* \"#utility.yul\":11940:12176   */\n      iszero\n      tag_386\n      jumpi\n        /* \"#utility.yul\":12043:12062   */\n      dup9\n      dup7\n      add\n        /* \"#utility.yul\":12037:12063   */\n      mload\n        /* \"#utility.yul\":12022:12064   */\n      dup3\n      sstore\n        /* \"#utility.yul\":12135:12162   */\n      swap5\n      dup5\n      add\n      swap5\n        /* \"#utility.yul\":12103:12104   */\n      0x01\n        /* \"#utility.yul\":12091:12105   */\n      swap1\n      swap2\n      add\n      swap1\n        /* \"#utility.yul\":11970:11989   */\n      dup5\n      add\n        /* \"#utility.yul\":11940:12176   */\n      jump(tag_384)\n    tag_386:\n        /* \"#utility.yul\":11944:11947   */\n      pop\n        /* \"#utility.yul\":12204:12210   */\n      dup6\n        /* \"#utility.yul\":12195:12202   */\n      dup3\n        /* \"#utility.yul\":12192:12211   */\n      lt\n        /* \"#utility.yul\":12189:12390   */\n      iszero\n      tag_387\n      jumpi\n        /* \"#utility.yul\":12265:12284   */\n      dup8\n      dup6\n      add\n        /* \"#utility.yul\":12259:12285   */\n      mload\n      not(0x00)\n        /* \"#utility.yul\":12348:12349   */\n      0x03\n        /* \"#utility.yul\":12344:12358   */\n      dup9\n      swap1\n      shl\n        /* \"#utility.yul\":12360:12363   */\n      0xf8\n        /* \"#utility.yul\":12340:12364   */\n      and\n        /* \"#utility.yul\":12336:12373   */\n      shr\n        /* \"#utility.yul\":12332:12374   */\n      not\n        /* \"#utility.yul\":12317:12375   */\n      and\n        /* \"#utility.yul\":12302:12376   */\n      dup2\n      sstore\n        /* \"#utility.yul\":12189:12390   */\n    tag_387:\n      pop\n      pop\n        /* \"#utility.yul\":12436:12437   */\n      0x01\n        /* \"#utility.yul\":12427:12433   */\n      dup5\n        /* \"#utility.yul\":12424:12425   */\n      0x01\n        /* \"#utility.yul\":12420:12434   */\n      shl\n        /* \"#utility.yul\":12416:12438   */\n      add\n        /* \"#utility.yul\":12410:12414   */\n      dup6\n        /* \"#utility.yul\":12403:12439   */\n      sstore\n        /* \"#utility.yul\":11756:12700   */\n    tag_379:\n      pop\n      pop\n      pop\n      pop\n        /* \"#utility.yul\":11361:12706   */\n      pop\n      pop\n      jump\t// out\n\n    auxdata: 0xa264697066735822122062915927263d5458007090261910d10501a4db21bdfc1a2af0b825d41103bddf64736f6c63430008190033\n}\n",
    "bytecode": {
      "linkReferences": {},
      "object": "6080604052348015600e575f80fd5b50611be78061001c5f395ff3fe608060405234801561000f575f80fd5b506004361061012f575f3560e01c8063a4b65d63116100ad578063bbe156271161007d578063e85befc211610063578063e85befc21461025c578063f847211f1461030d578063fbf3166914610320575f80fd5b8063bbe15627146102d1578063e2842d79146102f8575f80fd5b8063a4b65d631461025c578063a70806f71461027c578063ad88881b14610291578063b043e032146102be575f80fd5b8063584b512611610102578063987ee156116100e8578063987ee1561461020b5780639f1953c31461021e578063a2bdedf414610249575f80fd5b8063584b5126146101a5578063926bef63146101e0575f80fd5b80630d28afc7146101335780630e666e491461014957806321527e501461017b5780632f33002314610190575b5f80fd5b6003546040519081526020015b60405180910390f35b61016b610157366004611641565b60016020525f908152604090205460ff1681565b6040519015158152602001610140565b610183610333565b6040516101409190611737565b6101986106e7565b6040516101409190611749565b61016b6101b3366004611795565b6001600160a01b039182165f90815260026020908152604080832093909416825291909152205460ff1690565b61016b6101ee366004611641565b6001600160a01b03165f9081526001602052604090205460ff1690565b610183610219366004611641565b610747565b61023161022c3660046117c6565b610b0a565b6040516001600160a01b039091168152602001610140565b6102316102573660046117c6565b610b38565b61026f61026a366004611641565b610b60565b60405161014091906117dd565b61028f61028a366004611641565b610c09565b005b61016b61029f366004611795565b600260209081525f928352604080842090915290825290205460ff1681565b61028f6102cc36600461188c565b610d5e565b6102e46102df366004611641565b610eee565b604051610140989796959493929190611955565b6103006111cb565b60405161014091906119d9565b61028f61031b366004611641565b6115cf565b61026f61032e366004611641565b6115fd565b61037860405180610100016040528060608152602001606081526020016060815260200160608152602001606081526020015f81526020015f81526020015f81525090565b335f9081526001602052604090205460ff166103db5760405162461bcd60e51b815260206004820152601660248201527f50726f66696c6520646f6573206e6f742065786973740000000000000000000060448201526064015b60405180910390fd5b335f90815260208190526040908190208151610100810190925280548290829061040490611a3b565b80601f016020809104026020016040519081016040528092919081815260200182805461043090611a3b565b801561047b5780601f106104525761010080835404028352916020019161047b565b820191905f5260205f20905b81548152906001019060200180831161045e57829003601f168201915b5050505050815260200160018201805461049490611a3b565b80601f01602080910402602001604051908101604052809291908181526020018280546104c090611a3b565b801561050b5780601f106104e25761010080835404028352916020019161050b565b820191905f5260205f20905b8154815290600101906020018083116104ee57829003601f168201915b5050505050815260200160028201805461052490611a3b565b80601f016020809104026020016040519081016040528092919081815260200182805461055090611a3b565b801561059b5780601f106105725761010080835404028352916020019161059b565b820191905f5260205f20905b81548152906001019060200180831161057e57829003601f168201915b505050505081526020016003820180546105b490611a3b565b80601f01602080910402602001604051908101604052809291908181526020018280546105e090611a3b565b801561062b5780601f106106025761010080835404028352916020019161062b565b820191905f5260205f20905b81548152906001019060200180831161060e57829003601f168201915b5050505050815260200160048201805461064490611a3b565b80601f016020809104026020016040519081016040528092919081815260200182805461067090611a3b565b80156106bb5780601f10610692576101008083540402835291602001916106bb565b820191905f5260205f20905b81548152906001019060200180831161069e57829003601f168201915b505050505081526020016005820154815260200160068201548152602001600782015481525050905090565b6060600380548060200260200160405190810160405280929190818152602001828054801561073d57602002820191905f5260205f20905b81546001600160a01b0316815260019091019060200180831161071f575b5050505050905090565b61078c60405180610100016040528060608152602001606081526020016060815260200160608152602001606081526020015f81526020015f81526020015f81525090565b6001600160a01b0382165f9081526001602052604090205460ff166107f35760405162461bcd60e51b815260206004820152601360248201527f5573657220646f6573206e6f742065786973740000000000000000000000000060448201526064016103d2565b6001600160a01b0382165f90815260208190526040908190208151610100810190925280548290829061082590611a3b565b80601f016020809104026020016040519081016040528092919081815260200182805461085190611a3b565b801561089c5780601f106108735761010080835404028352916020019161089c565b820191905f5260205f20905b81548152906001019060200180831161087f57829003601f168201915b505050505081526020016001820180546108b590611a3b565b80601f01602080910402602001604051908101604052809291908181526020018280546108e190611a3b565b801561092c5780601f106109035761010080835404028352916020019161092c565b820191905f5260205f20905b81548152906001019060200180831161090f57829003601f168201915b5050505050815260200160028201805461094590611a3b565b80601f016020809104026020016040519081016040528092919081815260200182805461097190611a3b565b80156109bc5780601f10610993576101008083540402835291602001916109bc565b820191905f5260205f20905b81548152906001019060200180831161099f57829003601f168201915b505050505081526020016003820180546109d590611a3b565b80601f0160208091040260200160405190810160405280929190818152602001828054610a0190611a3b565b8015610a4c5780601f10610a2357610100808354040283529160200191610a4c565b820191905f5260205f20905b815481529060010190602001808311610a2f57829003601f168201915b50505050508152602001600482018054610a6590611a3b565b80601f0160208091040260200160405190810160405280929190818152602001828054610a9190611a3b565b8015610adc5780601f10610ab357610100808354040283529160200191610adc565b820191905f5260205f20905b815481529060010190602001808311610abf57829003601f168201915b5050505050815260200160058201548152602001600682015481526020016007820154815250509050919050565b5f60038281548110610b1e57610b1e611a6d565b5f918252602090912001546001600160a01b031692915050565b60038181548110610b47575f80fd5b5f918252602090912001546001600160a01b0316905081565b6001600160a01b0381165f908152602081905260409020805460609190610b8690611a3b565b80601f0160208091040260200160405190810160405280929190818152602001828054610bb290611a3b565b8015610bfd5780601f10610bd457610100808354040283529160200191610bfd565b820191905f5260205f20905b815481529060010190602001808311610be057829003601f168201915b50505050509050919050565b6001600160a01b0381165f9081526001602052604090205460ff16610c705760405162461bcd60e51b815260206004820152601360248201527f5573657220646f6573206e6f742065786973740000000000000000000000000060448201526064016103d2565b6001600160a01b0381165f90815260026020908152604080832033845290915290205460ff1615610ce35760405162461bcd60e51b815260206004820152601b60248201527f416c726561647920666f6c6c6f77696e6720746869732075736572000000000060448201526064016103d2565b6001600160a01b0381165f908152602081905260408120600501805491610d0983611a81565b9091555050335f908152602081905260408120600601805491610d2b83611a81565b90915550506001600160a01b03165f9081526002602090815260408083203384529091529020805460ff19166001179055565b5f855111610dae5760405162461bcd60e51b815260206004820152601860248201527f557365726e616d652063616e6e6f7420626520656d707479000000000000000060448201526064016103d2565b5f825111610e085760405162461bcd60e51b815260206004820152602160248201527f50726f66696c652070686f746f204349442063616e6e6f7420626520656d70746044820152607960f81b60648201526084016103d2565b335f9081526001602052604090205460ff16610e90576003805460018181019092557fc2575a0e9e593c00f959f8c92f12db2869c3395a3b0502d05e2516446f71f85b0180547fffffffffffffffffffffffff000000000000000000000000000000000000000016339081179091555f908152602082905260409020805460ff191690911790555b335f90815260208190526040902080610ea98782611af1565b5060018101610eb88682611af1565b5060028101610ec78582611af1565b5060038101610ed68482611af1565b5060048101610ee58382611af1565b50505050505050565b5f60208190529081526040902080548190610f0890611a3b565b80601f0160208091040260200160405190810160405280929190818152602001828054610f3490611a3b565b8015610f7f5780601f10610f5657610100808354040283529160200191610f7f565b820191905f5260205f20905b815481529060010190602001808311610f6257829003601f168201915b505050505090806001018054610f9490611a3b565b80601f0160208091040260200160405190810160405280929190818152602001828054610fc090611a3b565b801561100b5780601f10610fe25761010080835404028352916020019161100b565b820191905f5260205f20905b815481529060010190602001808311610fee57829003601f168201915b50505050509080600201805461102090611a3b565b80601f016020809104026020016040519081016040528092919081815260200182805461104c90611a3b565b80156110975780601f1061106e57610100808354040283529160200191611097565b820191905f5260205f20905b81548152906001019060200180831161107a57829003601f168201915b5050505050908060030180546110ac90611a3b565b80601f01602080910402602001604051908101604052809291908181526020018280546110d890611a3b565b80156111235780601f106110fa57610100808354040283529160200191611123565b820191905f5260205f20905b81548152906001019060200180831161110657829003601f168201915b50505050509080600401805461113890611a3b565b80601f016020809104026020016040519081016040528092919081815260200182805461116490611a3b565b80156111af5780601f10611186576101008083540402835291602001916111af565b820191905f5260205f20905b81548152906001019060200180831161119257829003601f168201915b5050505050908060050154908060060154908060070154905088565b6003546060905f9067ffffffffffffffff8111156111eb576111eb6117ef565b60405190808252806020026020018201604052801561126157816020015b61124e60405180610100016040528060608152602001606081526020016060815260200160608152602001606081526020015f81526020015f81526020015f81525090565b8152602001906001900390816112095790505b5090505f5b6003548110156115c9575f6003828154811061128457611284611a6d565b5f9182526020808320909101546001600160a01b0316808352908290526040918290208251610100810190935280549193509190819083906112c590611a3b565b80601f01602080910402602001604051908101604052809291908181526020018280546112f190611a3b565b801561133c5780601f106113135761010080835404028352916020019161133c565b820191905f5260205f20905b81548152906001019060200180831161131f57829003601f168201915b5050505050815260200182600101805461135590611a3b565b80601f016020809104026020016040519081016040528092919081815260200182805461138190611a3b565b80156113cc5780601f106113a3576101008083540402835291602001916113cc565b820191905f5260205f20905b8154815290600101906020018083116113af57829003601f168201915b505050505081526020018260020180546113e590611a3b565b80601f016020809104026020016040519081016040528092919081815260200182805461141190611a3b565b801561145c5780601f106114335761010080835404028352916020019161145c565b820191905f5260205f20905b81548152906001019060200180831161143f57829003601f168201915b5050505050815260200182600301805461147590611a3b565b80601f01602080910402602001604051908101604052809291908181526020018280546114a190611a3b565b80156114ec5780601f106114c3576101008083540402835291602001916114ec565b820191905f5260205f20905b8154815290600101906020018083116114cf57829003601f168201915b5050505050815260200182600401805461150590611a3b565b80601f016020809104026020016040519081016040528092919081815260200182805461153190611a3b565b801561157c5780601f106115535761010080835404028352916020019161157c565b820191905f5260205f20905b81548152906001019060200180831161155f57829003601f168201915b50505050508152602001826005015481526020018260060154815260200182600701548152508484815181106115b4576115b4611a6d565b60209081029190910101525050600101611266565b50919050565b6001600160a01b0381165f9081526020819052604081206007018054916115f583611a81565b919050555050565b6001600160a01b0381165f908152602081905260409020600301805460609190610b8690611a3b565b80356001600160a01b038116811461163c575f80fd5b919050565b5f60208284031215611651575f80fd5b61165a82611626565b9392505050565b5f81518084528060208401602086015e5f602082860101526020601f19601f83011685010191505092915050565b5f61010082518185526116a482860182611661565b915050602083015184820360208601526116be8282611661565b915050604083015184820360408601526116d88282611661565b915050606083015184820360608601526116f28282611661565b9150506080830151848203608086015261170c8282611661565b91505060a083015160a085015260c083015160c085015260e083015160e08501528091505092915050565b602081525f61165a602083018461168f565b602080825282518282018190525f9190848201906040850190845b818110156117895783516001600160a01b031683529284019291840191600101611764565b50909695505050505050565b5f80604083850312156117a6575f80fd5b6117af83611626565b91506117bd60208401611626565b90509250929050565b5f602082840312156117d6575f80fd5b5035919050565b602081525f61165a6020830184611661565b634e487b7160e01b5f52604160045260245ffd5b5f82601f830112611812575f80fd5b813567ffffffffffffffff8082111561182d5761182d6117ef565b604051601f8301601f19908116603f01168101908282118183101715611855576118556117ef565b8160405283815286602085880101111561186d575f80fd5b836020870160208301375f602085830101528094505050505092915050565b5f805f805f60a086880312156118a0575f80fd5b853567ffffffffffffffff808211156118b7575f80fd5b6118c389838a01611803565b965060208801359150808211156118d8575f80fd5b6118e489838a01611803565b955060408801359150808211156118f9575f80fd5b61190589838a01611803565b9450606088013591508082111561191a575f80fd5b61192689838a01611803565b9350608088013591508082111561193b575f80fd5b5061194888828901611803565b9150509295509295909350565b5f6101008083526119688184018c611661565b9050828103602084015261197c818b611661565b90508281036040840152611990818a611661565b905082810360608401526119a48189611661565b905082810360808401526119b88188611661565b60a0840196909652505060c081019290925260e09091015295945050505050565b5f60208083016020845280855180835260408601915060408160051b8701019250602087015f5b82811015611a2e57603f19888603018452611a1c85835161168f565b94509285019290850190600101611a00565b5092979650505050505050565b600181811c90821680611a4f57607f821691505b6020821081036115c957634e487b7160e01b5f52602260045260245ffd5b634e487b7160e01b5f52603260045260245ffd5b5f60018201611a9e57634e487b7160e01b5f52601160045260245ffd5b5060010190565b601f821115611aec57805f5260205f20601f840160051c81016020851015611aca5750805b601f840160051c820191505b81811015611ae9575f8155600101611ad6565b50505b505050565b815167ffffffffffffffff811115611b0b57611b0b6117ef565b611b1f81611b198454611a3b565b84611aa5565b602080601f831160018114611b52575f8415611b3b5750858301515b5f19600386901b1c1916600185901b178555611ba9565b5f85815260208120601f198616915b82811015611b8057888601518255948401946001909101908401611b61565b5085821015611b9d57878501515f19600388901b60f8161c191681555b505060018460011b0185555b50505050505056fea264697066735822122062915927263d5458007090261910d10501a4db21bdfc1a2af0b825d41103bddf64736f6c63430008190033",
      "opcodes": "PUSH1 0x80 PUSH1 0x40 MSTORE CALLVALUE DUP1 ISZERO PUSH1 0xE JUMPI PUSH0 DUP1 REVERT JUMPDEST POP PUSH2 0x1BE7 DUP1 PUSH2 0x1C PUSH0 CODECOPY PUSH0 RETURN INVALID PUSH1 0x80 PUSH1 0x40 MSTORE CALLVALUE DUP1 ISZERO PUSH2 0xF JUMPI PUSH0 DUP1 REVERT JUMPDEST POP PUSH1 0x4 CALLDATASIZE LT PUSH2 0x12F JUMPI PUSH0 CALLDATALOAD PUSH1 0xE0 SHR DUP1 PUSH4 0xA4B65D63 GT PUSH2 0xAD JUMPI DUP1 PUSH4 0xBBE15627 GT PUSH2 0x7D JUMPI DUP1 PUSH4 0xE85BEFC2 GT PUSH2 0x63 JUMPI DUP1 PUSH4 0xE85BEFC2 EQ PUSH2 0x25C JUMPI DUP1 PUSH4 0xF847211F EQ PUSH2 0x30D JUMPI DUP1 PUSH4 0xFBF31669 EQ PUSH2 0x320 JUMPI PUSH0 DUP1 REVERT JUMPDEST DUP1 PUSH4 0xBBE15627 EQ PUSH2 0x2D1 JUMPI DUP1 PUSH4 0xE2842D79 EQ PUSH2 0x2F8 JUMPI PUSH0 DUP1 REVERT JUMPDEST DUP1 PUSH4 0xA4B65D63 EQ PUSH2 0x25C JUMPI DUP1 PUSH4 0xA70806F7 EQ PUSH2 0x27C JUMPI DUP1 PUSH4 0xAD88881B EQ PUSH2 0x291 JUMPI DUP1 PUSH4 0xB043E032 EQ PUSH2 0x2BE JUMPI PUSH0 DUP1 REVERT JUMPDEST DUP1 PUSH4 0x584B5126 GT PUSH2 0x102 JUMPI DUP1 PUSH4 0x987EE156 GT PUSH2 0xE8 JUMPI DUP1 PUSH4 0x987EE156 EQ PUSH2 0x20B JUMPI DUP1 PUSH4 0x9F1953C3 EQ PUSH2 0x21E JUMPI DUP1 PUSH4 0xA2BDEDF4 EQ PUSH2 0x249 JUMPI PUSH0 DUP1 REVERT JUMPDEST DUP1 PUSH4 0x584B5126 EQ PUSH2 0x1A5 JUMPI DUP1 PUSH4 0x926BEF63 EQ PUSH2 0x1E0 JUMPI PUSH0 DUP1 REVERT JUMPDEST DUP1 PUSH4 0xD28AFC7 EQ PUSH2 0x133 JUMPI DUP1 PUSH4 0xE666E49 EQ PUSH2 0x149 JUMPI DUP1 PUSH4 0x21527E50 EQ PUSH2 0x17B JUMPI DUP1 PUSH4 0x2F330023 EQ PUSH2 0x190 JUMPI JUMPDEST PUSH0 DUP1 REVERT JUMPDEST PUSH1 0x3 SLOAD PUSH1 0x40 MLOAD SWAP1 DUP2 MSTORE PUSH1 0x20 ADD JUMPDEST PUSH1 0x40 MLOAD DUP1 SWAP2 SUB SWAP1 RETURN JUMPDEST PUSH2 0x16B PUSH2 0x157 CALLDATASIZE PUSH1 0x4 PUSH2 0x1641 JUMP JUMPDEST PUSH1 0x1 PUSH1 0x20 MSTORE PUSH0 SWAP1 DUP2 MSTORE PUSH1 0x40 SWAP1 KECCAK256 SLOAD PUSH1 0xFF AND DUP2 JUMP JUMPDEST PUSH1 0x40 MLOAD SWAP1 ISZERO ISZERO DUP2 MSTORE PUSH1 0x20 ADD PUSH2 0x140 JUMP JUMPDEST PUSH2 0x183 PUSH2 0x333 JUMP JUMPDEST PUSH1 0x40 MLOAD PUSH2 0x140 SWAP2 SWAP1 PUSH2 0x1737 JUMP JUMPDEST PUSH2 0x198 PUSH2 0x6E7 JUMP JUMPDEST PUSH1 0x40 MLOAD PUSH2 0x140 SWAP2 SWAP1 PUSH2 0x1749 JUMP JUMPDEST PUSH2 0x16B PUSH2 0x1B3 CALLDATASIZE PUSH1 0x4 PUSH2 0x1795 JUMP JUMPDEST PUSH1 0x1 PUSH1 0x1 PUSH1 0xA0 SHL SUB SWAP2 DUP3 AND PUSH0 SWAP1 DUP2 MSTORE PUSH1 0x2 PUSH1 0x20 SWAP1 DUP2 MSTORE PUSH1 0x40 DUP1 DUP4 KECCAK256 SWAP4 SWAP1 SWAP5 AND DUP3 MSTORE SWAP2 SWAP1 SWAP2 MSTORE KECCAK256 SLOAD PUSH1 0xFF AND SWAP1 JUMP JUMPDEST PUSH2 0x16B PUSH2 0x1EE CALLDATASIZE PUSH1 0x4 PUSH2 0x1641 JUMP JUMPDEST PUSH1 0x1 PUSH1 0x1 PUSH1 0xA0 SHL SUB AND PUSH0 SWAP1 DUP2 MSTORE PUSH1 0x1 PUSH1 0x20 MSTORE PUSH1 0x40 SWAP1 KECCAK256 SLOAD PUSH1 0xFF AND SWAP1 JUMP JUMPDEST PUSH2 0x183 PUSH2 0x219 CALLDATASIZE PUSH1 0x4 PUSH2 0x1641 JUMP JUMPDEST PUSH2 0x747 JUMP JUMPDEST PUSH2 0x231 PUSH2 0x22C CALLDATASIZE PUSH1 0x4 PUSH2 0x17C6 JUMP JUMPDEST PUSH2 0xB0A JUMP JUMPDEST PUSH1 0x40 MLOAD PUSH1 0x1 PUSH1 0x1 PUSH1 0xA0 SHL SUB SWAP1 SWAP2 AND DUP2 MSTORE PUSH1 0x20 ADD PUSH2 0x140 JUMP JUMPDEST PUSH2 0x231 PUSH2 0x257 CALLDATASIZE PUSH1 0x4 PUSH2 0x17C6 JUMP JUMPDEST PUSH2 0xB38 JUMP JUMPDEST PUSH2 0x26F PUSH2 0x26A CALLDATASIZE PUSH1 0x4 PUSH2 0x1641 JUMP JUMPDEST PUSH2 0xB60 JUMP JUMPDEST PUSH1 0x40 MLOAD PUSH2 0x140 SWAP2 SWAP1 PUSH2 0x17DD JUMP JUMPDEST PUSH2 0x28F PUSH2 0x28A CALLDATASIZE PUSH1 0x4 PUSH2 0x1641 JUMP JUMPDEST PUSH2 0xC09 JUMP JUMPDEST STOP JUMPDEST PUSH2 0x16B PUSH2 0x29F CALLDATASIZE PUSH1 0x4 PUSH2 0x1795 JUMP JUMPDEST PUSH1 0x2 PUSH1 0x20 SWAP1 DUP2 MSTORE PUSH0 SWAP3 DUP4 MSTORE PUSH1 0x40 DUP1 DUP5 KECCAK256 SWAP1 SWAP2 MSTORE SWAP1 DUP3 MSTORE SWAP1 KECCAK256 SLOAD PUSH1 0xFF AND DUP2 JUMP JUMPDEST PUSH2 0x28F PUSH2 0x2CC CALLDATASIZE PUSH1 0x4 PUSH2 0x188C JUMP JUMPDEST PUSH2 0xD5E JUMP JUMPDEST PUSH2 0x2E4 PUSH2 0x2DF CALLDATASIZE PUSH1 0x4 PUSH2 0x1641 JUMP JUMPDEST PUSH2 0xEEE JUMP JUMPDEST PUSH1 0x40 MLOAD PUSH2 0x140 SWAP9 SWAP8 SWAP7 SWAP6 SWAP5 SWAP4 SWAP3 SWAP2 SWAP1 PUSH2 0x1955 JUMP JUMPDEST PUSH2 0x300 PUSH2 0x11CB JUMP JUMPDEST PUSH1 0x40 MLOAD PUSH2 0x140 SWAP2 SWAP1 PUSH2 0x19D9 JUMP JUMPDEST PUSH2 0x28F PUSH2 0x31B CALLDATASIZE PUSH1 0x4 PUSH2 0x1641 JUMP JUMPDEST PUSH2 0x15CF JUMP JUMPDEST PUSH2 0x26F PUSH2 0x32E CALLDATASIZE PUSH1 0x4 PUSH2 0x1641 JUMP JUMPDEST PUSH2 0x15FD JUMP JUMPDEST PUSH2 0x378 PUSH1 0x40 MLOAD DUP1 PUSH2 0x100 ADD PUSH1 0x40 MSTORE DUP1 PUSH1 0x60 DUP2 MSTORE PUSH1 0x20 ADD PUSH1 0x60 DUP2 MSTORE PUSH1 0x20 ADD PUSH1 0x60 DUP2 MSTORE PUSH1 0x20 ADD PUSH1 0x60 DUP2 MSTORE PUSH1 0x20 ADD PUSH1 0x60 DUP2 MSTORE PUSH1 0x20 ADD PUSH0 DUP2 MSTORE PUSH1 0x20 ADD PUSH0 DUP2 MSTORE PUSH1 0x20 ADD PUSH0 DUP2 MSTORE POP SWAP1 JUMP JUMPDEST CALLER PUSH0 SWAP1 DUP2 MSTORE PUSH1 0x1 PUSH1 0x20 MSTORE PUSH1 0x40 SWAP1 KECCAK256 SLOAD PUSH1 0xFF AND PUSH2 0x3DB JUMPI PUSH1 0x40 MLOAD PUSH3 0x461BCD PUSH1 0xE5 SHL DUP2 MSTORE PUSH1 0x20 PUSH1 0x4 DUP3 ADD MSTORE PUSH1 0x16 PUSH1 0x24 DUP3 ADD MSTORE PUSH32 0x50726F66696C6520646F6573206E6F7420657869737400000000000000000000 PUSH1 0x44 DUP3 ADD MSTORE PUSH1 0x64 ADD JUMPDEST PUSH1 0x40 MLOAD DUP1 SWAP2 SUB SWAP1 REVERT JUMPDEST CALLER PUSH0 SWAP1 DUP2 MSTORE PUSH1 0x20 DUP2 SWAP1 MSTORE PUSH1 0x40 SWAP1 DUP2 SWAP1 KECCAK256 DUP2 MLOAD PUSH2 0x100 DUP2 ADD SWAP1 SWAP3 MSTORE DUP1 SLOAD DUP3 SWAP1 DUP3 SWAP1 PUSH2 0x404 SWAP1 PUSH2 0x1A3B JUMP JUMPDEST DUP1 PUSH1 0x1F ADD PUSH1 0x20 DUP1 SWAP2 DIV MUL PUSH1 0x20 ADD PUSH1 0x40 MLOAD SWAP1 DUP2 ADD PUSH1 0x40 MSTORE DUP1 SWAP3 SWAP2 SWAP1 DUP2 DUP2 MSTORE PUSH1 0x20 ADD DUP3 DUP1 SLOAD PUSH2 0x430 SWAP1 PUSH2 0x1A3B JUMP JUMPDEST DUP1 ISZERO PUSH2 0x47B JUMPI DUP1 PUSH1 0x1F LT PUSH2 0x452 JUMPI PUSH2 0x100 DUP1 DUP4 SLOAD DIV MUL DUP4 MSTORE SWAP2 PUSH1 0x20 ADD SWAP2 PUSH2 0x47B JUMP JUMPDEST DUP3 ADD SWAP2 SWAP1 PUSH0 MSTORE PUSH1 0x20 PUSH0 KECCAK256 SWAP1 JUMPDEST DUP2 SLOAD DUP2 MSTORE SWAP1 PUSH1 0x1 ADD SWAP1 PUSH1 0x20 ADD DUP1 DUP4 GT PUSH2 0x45E JUMPI DUP3 SWAP1 SUB PUSH1 0x1F AND DUP3 ADD SWAP2 JUMPDEST POP POP POP POP POP DUP2 MSTORE PUSH1 0x20 ADD PUSH1 0x1 DUP3 ADD DUP1 SLOAD PUSH2 0x494 SWAP1 PUSH2 0x1A3B JUMP JUMPDEST DUP1 PUSH1 0x1F ADD PUSH1 0x20 DUP1 SWAP2 DIV MUL PUSH1 0x20 ADD PUSH1 0x40 MLOAD SWAP1 DUP2 ADD PUSH1 0x40 MSTORE DUP1 SWAP3 SWAP2 SWAP1 DUP2 DUP2 MSTORE PUSH1 0x20 ADD DUP3 DUP1 SLOAD PUSH2 0x4C0 SWAP1 PUSH2 0x1A3B JUMP JUMPDEST DUP1 ISZERO PUSH2 0x50B JUMPI DUP1 PUSH1 0x1F LT PUSH2 0x4E2 JUMPI PUSH2 0x100 DUP1 DUP4 SLOAD DIV MUL DUP4 MSTORE SWAP2 PUSH1 0x20 ADD SWAP2 PUSH2 0x50B JUMP JUMPDEST DUP3 ADD SWAP2 SWAP1 PUSH0 MSTORE PUSH1 0x20 PUSH0 KECCAK256 SWAP1 JUMPDEST DUP2 SLOAD DUP2 MSTORE SWAP1 PUSH1 0x1 ADD SWAP1 PUSH1 0x20 ADD DUP1 DUP4 GT PUSH2 0x4EE JUMPI DUP3 SWAP1 SUB PUSH1 0x1F AND DUP3 ADD SWAP2 JUMPDEST POP POP POP POP POP DUP2 MSTORE PUSH1 0x20 ADD PUSH1 0x2 DUP3 ADD DUP1 SLOAD PUSH2 0x524 SWAP1 PUSH2 0x1A3B JUMP JUMPDEST DUP1 PUSH1 0x1F ADD PUSH1 0x20 DUP1 SWAP2 DIV MUL PUSH1 0x20 ADD PUSH1 0x40 MLOAD SWAP1 DUP2 ADD PUSH1 0x40 MSTORE DUP1 SWAP3 SWAP2 SWAP1 DUP2 DUP2 MSTORE PUSH1 0x20 ADD DUP3 DUP1 SLOAD PUSH2 0x550 SWAP1 PUSH2 0x1A3B JUMP JUMPDEST DUP1 ISZERO PUSH2 0x59B JUMPI DUP1 PUSH1 0x1F LT PUSH2 0x572 JUMPI PUSH2 0x100 DUP1 DUP4 SLOAD DIV MUL DUP4 MSTORE SWAP2 PUSH1 0x20 ADD SWAP2 PUSH2 0x59B JUMP JUMPDEST DUP3 ADD SWAP2 SWAP1 PUSH0 MSTORE PUSH1 0x20 PUSH0 KECCAK256 SWAP1 JUMPDEST DUP2 SLOAD DUP2 MSTORE SWAP1 PUSH1 0x1 ADD SWAP1 PUSH1 0x20 ADD DUP1 DUP4 GT PUSH2 0x57E JUMPI DUP3 SWAP1 SUB PUSH1 0x1F AND DUP3 ADD SWAP2 JUMPDEST POP POP POP POP POP DUP2 MSTORE PUSH1 0x20 ADD PUSH1 0x3 DUP3 ADD DUP1 SLOAD PUSH2 0x5B4 SWAP1 PUSH2 0x1A3B JUMP JUMPDEST DUP1 PUSH1 0x1F ADD PUSH1 0x20 DUP1 SWAP2 DIV MUL PUSH1 0x20 ADD PUSH1 0x40 MLOAD SWAP1 DUP2 ADD PUSH1 0x40 MSTORE DUP1 SWAP3 SWAP2 SWAP1 DUP2 DUP2 MSTORE PUSH1 0x20 ADD DUP3 DUP1 SLOAD PUSH2 0x5E0 SWAP1 PUSH2 0x1A3B JUMP JUMPDEST DUP1 ISZERO PUSH2 0x62B JUMPI DUP1 PUSH1 0x1F LT PUSH2 0x602 JUMPI PUSH2 0x100 DUP1 DUP4 SLOAD DIV MUL DUP4 MSTORE SWAP2 PUSH1 0x20 ADD SWAP2 PUSH2 0x62B JUMP JUMPDEST DUP3 ADD SWAP2 SWAP1 PUSH0 MSTORE PUSH1 0x20 PUSH0 KECCAK256 SWAP1 JUMPDEST DUP2 SLOAD DUP2 MSTORE SWAP1 PUSH1 0x1 ADD SWAP1 PUSH1 0x20 ADD DUP1 DUP4 GT PUSH2 0x60E JUMPI DUP3 SWAP1 SUB PUSH1 0x1F AND DUP3 ADD SWAP2 JUMPDEST POP POP POP POP POP DUP2 MSTORE PUSH1 0x20 ADD PUSH1 0x4 DUP3 ADD DUP1 SLOAD PUSH2 0x644 SWAP1 PUSH2 0x1A3B JUMP JUMPDEST DUP1 PUSH1 0x1F ADD PUSH1 0x20 DUP1 SWAP2 DIV MUL PUSH1 0x20 ADD PUSH1 0x40 MLOAD SWAP1 DUP2 ADD PUSH1 0x40 MSTORE DUP1 SWAP3 SWAP2 SWAP1 DUP2 DUP2 MSTORE PUSH1 0x20 ADD DUP3 DUP1 SLOAD PUSH2 0x670 SWAP1 PUSH2 0x1A3B JUMP JUMPDEST DUP1 ISZERO PUSH2 0x6BB JUMPI DUP1 PUSH1 0x1F LT PUSH2 0x692 JUMPI PUSH2 0x100 DUP1 DUP4 SLOAD DIV MUL DUP4 MSTORE SWAP2 PUSH1 0x20 ADD SWAP2 PUSH2 0x6BB JUMP JUMPDEST DUP3 ADD SWAP2 SWAP1 PUSH0 MSTORE PUSH1 0x20 PUSH0 KECCAK256 SWAP1 JUMPDEST DUP2 SLOAD DUP2 MSTORE SWAP1 PUSH1 0x1 ADD SWAP1 PUSH1 0x20 ADD DUP1 DUP4 GT PUSH2 0x69E JUMPI DUP3 SWAP1 SUB PUSH1 0x1F AND DUP3 ADD SWAP2 JUMPDEST POP POP POP POP POP DUP2 MSTORE PUSH1 0x20 ADD PUSH1 0x5 DUP3 ADD SLOAD DUP2 MSTORE PUSH1 0x20 ADD PUSH1 0x6 DUP3 ADD SLOAD DUP2 MSTORE PUSH1 0x20 ADD PUSH1 0x7 DUP3 ADD SLOAD DUP2 MSTORE POP POP SWAP1 POP SWAP1 JUMP JUMPDEST PUSH1 0x60 PUSH1 0x3 DUP1 SLOAD DUP1 PUSH1 0x20 MUL PUSH1 0x20 ADD PUSH1 0x40 MLOAD SWAP1 DUP2 ADD PUSH1 0x40 MSTORE DUP1 SWAP3 SWAP2 SWAP1 DUP2 DUP2 MSTORE PUSH1 0x20 ADD DUP3 DUP1 SLOAD DUP1 ISZERO PUSH2 0x73D JUMPI PUSH1 0x20 MUL DUP3 ADD SWAP2 SWAP1 PUSH0 MSTORE PUSH1 0x20 PUSH0 KECCAK256 SWAP1 JUMPDEST DUP2 SLOAD PUSH1 0x1 PUSH1 0x1 PUSH1 0xA0 SHL SUB AND DUP2 MSTORE PUSH1 0x1 SWAP1 SWAP2 ADD SWAP1 PUSH1 0x20 ADD DUP1 DUP4 GT PUSH2 0x71F JUMPI JUMPDEST POP POP POP POP POP SWAP1 POP SWAP1 JUMP JUMPDEST PUSH2 0x78C PUSH1 0x40 MLOAD DUP1 PUSH2 0x100 ADD PUSH1 0x40 MSTORE DUP1 PUSH1 0x60 DUP2 MSTORE PUSH1 0x20 ADD PUSH1 0x60 DUP2 MSTORE PUSH1 0x20 ADD PUSH1 0x60 DUP2 MSTORE PUSH1 0x20 ADD PUSH1 0x60 DUP2 MSTORE PUSH1 0x20 ADD PUSH1 0x60 DUP2 MSTORE PUSH1 0x20 ADD PUSH0 DUP2 MSTORE PUSH1 0x20 ADD PUSH0 DUP2 MSTORE PUSH1 0x20 ADD PUSH0 DUP2 MSTORE POP SWAP1 JUMP JUMPDEST PUSH1 0x1 PUSH1 0x1 PUSH1 0xA0 SHL SUB DUP3 AND PUSH0 SWAP1 DUP2 MSTORE PUSH1 0x1 PUSH1 0x20 MSTORE PUSH1 0x40 SWAP1 KECCAK256 SLOAD PUSH1 0xFF AND PUSH2 0x7F3 JUMPI PUSH1 0x40 MLOAD PUSH3 0x461BCD PUSH1 0xE5 SHL DUP2 MSTORE PUSH1 0x20 PUSH1 0x4 DUP3 ADD MSTORE PUSH1 0x13 PUSH1 0x24 DUP3 ADD MSTORE PUSH32 0x5573657220646F6573206E6F7420657869737400000000000000000000000000 PUSH1 0x44 DUP3 ADD MSTORE PUSH1 0x64 ADD PUSH2 0x3D2 JUMP JUMPDEST PUSH1 0x1 PUSH1 0x1 PUSH1 0xA0 SHL SUB DUP3 AND PUSH0 SWAP1 DUP2 MSTORE PUSH1 0x20 DUP2 SWAP1 MSTORE PUSH1 0x40 SWAP1 DUP2 SWAP1 KECCAK256 DUP2 MLOAD PUSH2 0x100 DUP2 ADD SWAP1 SWAP3 MSTORE DUP1 SLOAD DUP3 SWAP1 DUP3 SWAP1 PUSH2 0x825 SWAP1 PUSH2 0x1A3B JUMP JUMPDEST DUP1 PUSH1 0x1F ADD PUSH1 0x20 DUP1 SWAP2 DIV MUL PUSH1 0x20 ADD PUSH1 0x40 MLOAD SWAP1 DUP2 ADD PUSH1 0x40 MSTORE DUP1 SWAP3 SWAP2 SWAP1 DUP2 DUP2 MSTORE PUSH1 0x20 ADD DUP3 DUP1 SLOAD PUSH2 0x851 SWAP1 PUSH2 0x1A3B JUMP JUMPDEST DUP1 ISZERO PUSH2 0x89C JUMPI DUP1 PUSH1 0x1F LT PUSH2 0x873 JUMPI PUSH2 0x100 DUP1 DUP4 SLOAD DIV MUL DUP4 MSTORE SWAP2 PUSH1 0x20 ADD SWAP2 PUSH2 0x89C JUMP JUMPDEST DUP3 ADD SWAP2 SWAP1 PUSH0 MSTORE PUSH1 0x20 PUSH0 KECCAK256 SWAP1 JUMPDEST DUP2 SLOAD DUP2 MSTORE SWAP1 PUSH1 0x1 ADD SWAP1 PUSH1 0x20 ADD DUP1 DUP4 GT PUSH2 0x87F JUMPI DUP3 SWAP1 SUB PUSH1 0x1F AND DUP3 ADD SWAP2 JUMPDEST POP POP POP POP POP DUP2 MSTORE PUSH1 0x20 ADD PUSH1 0x1 DUP3 ADD DUP1 SLOAD PUSH2 0x8B5 SWAP1 PUSH2 0x1A3B JUMP JUMPDEST DUP1 PUSH1 0x1F ADD PUSH1 0x20 DUP1 SWAP2 DIV MUL PUSH1 0x20 ADD PUSH1 0x40 MLOAD SWAP1 DUP2 ADD PUSH1 0x40 MSTORE DUP1 SWAP3 SWAP2 SWAP1 DUP2 DUP2 MSTORE PUSH1 0x20 ADD DUP3 DUP1 SLOAD PUSH2 0x8E1 SWAP1 PUSH2 0x1A3B JUMP JUMPDEST DUP1 ISZERO PUSH2 0x92C JUMPI DUP1 PUSH1 0x1F LT PUSH2 0x903 JUMPI PUSH2 0x100 DUP1 DUP4 SLOAD DIV MUL DUP4 MSTORE SWAP2 PUSH1 0x20 ADD SWAP2 PUSH2 0x92C JUMP JUMPDEST DUP3 ADD SWAP2 SWAP1 PUSH0 MSTORE PUSH1 0x20 PUSH0 KECCAK256 SWAP1 JUMPDEST DUP2 SLOAD DUP2 MSTORE SWAP1 PUSH1 0x1 ADD SWAP1 PUSH1 0x20 ADD DUP1 DUP4 GT PUSH2 0x90F JUMPI DUP3 SWAP1 SUB PUSH1 0x1F AND DUP3 ADD SWAP2 JUMPDEST POP POP POP POP POP DUP2 MSTORE PUSH1 0x20 ADD PUSH1 0x2 DUP3 ADD DUP1 SLOAD PUSH2 0x945 SWAP1 PUSH2 0x1A3B JUMP JUMPDEST DUP1 PUSH1 0x1F ADD PUSH1 0x20 DUP1 SWAP2 DIV MUL PUSH1 0x20 ADD PUSH1 0x40 MLOAD SWAP1 DUP2 ADD PUSH1 0x40 MSTORE DUP1 SWAP3 SWAP2 SWAP1 DUP2 DUP2 MSTORE PUSH1 0x20 ADD DUP3 DUP1 SLOAD PUSH2 0x971 SWAP1 PUSH2 0x1A3B JUMP JUMPDEST DUP1 ISZERO PUSH2 0x9BC JUMPI DUP1 PUSH1 0x1F LT PUSH2 0x993 JUMPI PUSH2 0x100 DUP1 DUP4 SLOAD DIV MUL DUP4 MSTORE SWAP2 PUSH1 0x20 ADD SWAP2 PUSH2 0x9BC JUMP JUMPDEST DUP3 ADD SWAP2 SWAP1 PUSH0 MSTORE PUSH1 0x20 PUSH0 KECCAK256 SWAP1 JUMPDEST DUP2 SLOAD DUP2 MSTORE SWAP1 PUSH1 0x1 ADD SWAP1 PUSH1 0x20 ADD DUP1 DUP4 GT PUSH2 0x99F JUMPI DUP3 SWAP1 SUB PUSH1 0x1F AND DUP3 ADD SWAP2 JUMPDEST POP POP POP POP POP DUP2 MSTORE PUSH1 0x20 ADD PUSH1 0x3 DUP3 ADD DUP1 SLOAD PUSH2 0x9D5 SWAP1 PUSH2 0x1A3B JUMP JUMPDEST DUP1 PUSH1 0x1F ADD PUSH1 0x20 DUP1 SWAP2 DIV MUL PUSH1 0x20 ADD PUSH1 0x40 MLOAD SWAP1 DUP2 ADD PUSH1 0x40 MSTORE DUP1 SWAP3 SWAP2 SWAP1 DUP2 DUP2 MSTORE PUSH1 0x20 ADD DUP3 DUP1 SLOAD PUSH2 0xA01 SWAP1 PUSH2 0x1A3B JUMP JUMPDEST DUP1 ISZERO PUSH2 0xA4C JUMPI DUP1 PUSH1 0x1F LT PUSH2 0xA23 JUMPI PUSH2 0x100 DUP1 DUP4 SLOAD DIV MUL DUP4 MSTORE SWAP2 PUSH1 0x20 ADD SWAP2 PUSH2 0xA4C JUMP JUMPDEST DUP3 ADD SWAP2 SWAP1 PUSH0 MSTORE PUSH1 0x20 PUSH0 KECCAK256 SWAP1 JUMPDEST DUP2 SLOAD DUP2 MSTORE SWAP1 PUSH1 0x1 ADD SWAP1 PUSH1 0x20 ADD DUP1 DUP4 GT PUSH2 0xA2F JUMPI DUP3 SWAP1 SUB PUSH1 0x1F AND DUP3 ADD SWAP2 JUMPDEST POP POP POP POP POP DUP2 MSTORE PUSH1 0x20 ADD PUSH1 0x4 DUP3 ADD DUP1 SLOAD PUSH2 0xA65 SWAP1 PUSH2 0x1A3B JUMP JUMPDEST DUP1 PUSH1 0x1F ADD PUSH1 0x20 DUP1 SWAP2 DIV MUL PUSH1 0x20 ADD PUSH1 0x40 MLOAD SWAP1 DUP2 ADD PUSH1 0x40 MSTORE DUP1 SWAP3 SWAP2 SWAP1 DUP2 DUP2 MSTORE PUSH1 0x20 ADD DUP3 DUP1 SLOAD PUSH2 0xA91 SWAP1 PUSH2 0x1A3B JUMP JUMPDEST DUP1 ISZERO PUSH2 0xADC JUMPI DUP1 PUSH1 0x1F LT PUSH2 0xAB3 JUMPI PUSH2 0x100 DUP1 DUP4 SLOAD DIV MUL DUP4 MSTORE SWAP2 PUSH1 0x20 ADD SWAP2 PUSH2 0xADC JUMP JUMPDEST DUP3 ADD SWAP2 SWAP1 PUSH0 MSTORE PUSH1 0x20 PUSH0 KECCAK256 SWAP1 JUMPDEST DUP2 SLOAD DUP2 MSTORE SWAP1 PUSH1 0x1 ADD SWAP1 PUSH1 0x20 ADD DUP1 DUP4 GT PUSH2 0xABF JUMPI DUP3 SWAP1 SUB PUSH1 0x1F AND DUP3 ADD SWAP2 JUMPDEST POP POP POP POP POP DUP2 MSTORE PUSH1 0x20 ADD PUSH1 0x5 DUP3 ADD SLOAD DUP2 MSTORE PUSH1 0x20 ADD PUSH1 0x6 DUP3 ADD SLOAD DUP2 MSTORE PUSH1 0x20 ADD PUSH1 0x7 DUP3 ADD SLOAD DUP2 MSTORE POP POP SWAP1 POP SWAP2 SWAP1 POP JUMP JUMPDEST PUSH0 PUSH1 0x3 DUP3 DUP2 SLOAD DUP2 LT PUSH2 0xB1E JUMPI PUSH2 0xB1E PUSH2 0x1A6D JUMP JUMPDEST PUSH0 SWAP2 DUP3 MSTORE PUSH1 0x20 SWAP1 SWAP2 KECCAK256 ADD SLOAD PUSH1 0x1 PUSH1 0x1 PUSH1 0xA0 SHL SUB AND SWAP3 SWAP2 POP POP JUMP JUMPDEST PUSH1 0x3 DUP2 DUP2 SLOAD DUP2 LT PUSH2 0xB47 JUMPI PUSH0 DUP1 REVERT JUMPDEST PUSH0 SWAP2 DUP3 MSTORE PUSH1 0x20 SWAP1 SWAP2 KECCAK256 ADD SLOAD PUSH1 0x1 PUSH1 0x1 PUSH1 0xA0 SHL SUB AND SWAP1 POP DUP2 JUMP JUMPDEST PUSH1 0x1 PUSH1 0x1 PUSH1 0xA0 SHL SUB DUP2 AND PUSH0 SWAP1 DUP2 MSTORE PUSH1 0x20 DUP2 SWAP1 MSTORE PUSH1 0x40 SWAP1 KECCAK256 DUP1 SLOAD PUSH1 0x60 SWAP2 SWAP1 PUSH2 0xB86 SWAP1 PUSH2 0x1A3B JUMP JUMPDEST DUP1 PUSH1 0x1F ADD PUSH1 0x20 DUP1 SWAP2 DIV MUL PUSH1 0x20 ADD PUSH1 0x40 MLOAD SWAP1 DUP2 ADD PUSH1 0x40 MSTORE DUP1 SWAP3 SWAP2 SWAP1 DUP2 DUP2 MSTORE PUSH1 0x20 ADD DUP3 DUP1 SLOAD PUSH2 0xBB2 SWAP1 PUSH2 0x1A3B JUMP JUMPDEST DUP1 ISZERO PUSH2 0xBFD JUMPI DUP1 PUSH1 0x1F LT PUSH2 0xBD4 JUMPI PUSH2 0x100 DUP1 DUP4 SLOAD DIV MUL DUP4 MSTORE SWAP2 PUSH1 0x20 ADD SWAP2 PUSH2 0xBFD JUMP JUMPDEST DUP3 ADD SWAP2 SWAP1 PUSH0 MSTORE PUSH1 0x20 PUSH0 KECCAK256 SWAP1 JUMPDEST DUP2 SLOAD DUP2 MSTORE SWAP1 PUSH1 0x1 ADD SWAP1 PUSH1 0x20 ADD DUP1 DUP4 GT PUSH2 0xBE0 JUMPI DUP3 SWAP1 SUB PUSH1 0x1F AND DUP3 ADD SWAP2 JUMPDEST POP POP POP POP POP SWAP1 POP SWAP2 SWAP1 POP JUMP JUMPDEST PUSH1 0x1 PUSH1 0x1 PUSH1 0xA0 SHL SUB DUP2 AND PUSH0 SWAP1 DUP2 MSTORE PUSH1 0x1 PUSH1 0x20 MSTORE PUSH1 0x40 SWAP1 KECCAK256 SLOAD PUSH1 0xFF AND PUSH2 0xC70 JUMPI PUSH1 0x40 MLOAD PUSH3 0x461BCD PUSH1 0xE5 SHL DUP2 MSTORE PUSH1 0x20 PUSH1 0x4 DUP3 ADD MSTORE PUSH1 0x13 PUSH1 0x24 DUP3 ADD MSTORE PUSH32 0x5573657220646F6573206E6F7420657869737400000000000000000000000000 PUSH1 0x44 DUP3 ADD MSTORE PUSH1 0x64 ADD PUSH2 0x3D2 JUMP JUMPDEST PUSH1 0x1 PUSH1 0x1 PUSH1 0xA0 SHL SUB DUP2 AND PUSH0 SWAP1 DUP2 MSTORE PUSH1 0x2 PUSH1 0x20 SWAP1 DUP2 MSTORE PUSH1 0x40 DUP1 DUP4 KECCAK256 CALLER DUP5 MSTORE SWAP1 SWAP2 MSTORE SWAP1 KECCAK256 SLOAD PUSH1 0xFF AND ISZERO PUSH2 0xCE3 JUMPI PUSH1 0x40 MLOAD PUSH3 0x461BCD PUSH1 0xE5 SHL DUP2 MSTORE PUSH1 0x20 PUSH1 0x4 DUP3 ADD MSTORE PUSH1 0x1B PUSH1 0x24 DUP3 ADD MSTORE PUSH32 0x416C726561647920666F6C6C6F77696E67207468697320757365720000000000 PUSH1 0x44 DUP3 ADD MSTORE PUSH1 0x64 ADD PUSH2 0x3D2 JUMP JUMPDEST PUSH1 0x1 PUSH1 0x1 PUSH1 0xA0 SHL SUB DUP2 AND PUSH0 SWAP1 DUP2 MSTORE PUSH1 0x20 DUP2 SWAP1 MSTORE PUSH1 0x40 DUP2 KECCAK256 PUSH1 0x5 ADD DUP1 SLOAD SWAP2 PUSH2 0xD09 DUP4 PUSH2 0x1A81 JUMP JUMPDEST SWAP1 SWAP2 SSTORE POP POP CALLER PUSH0 SWAP1 DUP2 MSTORE PUSH1 0x20 DUP2 SWAP1 MSTORE PUSH1 0x40 DUP2 KECCAK256 PUSH1 0x6 ADD DUP1 SLOAD SWAP2 PUSH2 0xD2B DUP4 PUSH2 0x1A81 JUMP JUMPDEST SWAP1 SWAP2 SSTORE POP POP PUSH1 0x1 PUSH1 0x1 PUSH1 0xA0 SHL SUB AND PUSH0 SWAP1 DUP2 MSTORE PUSH1 0x2 PUSH1 0x20 SWAP1 DUP2 MSTORE PUSH1 0x40 DUP1 DUP4 KECCAK256 CALLER DUP5 MSTORE SWAP1 SWAP2 MSTORE SWAP1 KECCAK256 DUP1 SLOAD PUSH1 0xFF NOT AND PUSH1 0x1 OR SWAP1 SSTORE JUMP JUMPDEST PUSH0 DUP6 MLOAD GT PUSH2 0xDAE JUMPI PUSH1 0x40 MLOAD PUSH3 0x461BCD PUSH1 0xE5 SHL DUP2 MSTORE PUSH1 0x20 PUSH1 0x4 DUP3 ADD MSTORE PUSH1 0x18 PUSH1 0x24 DUP3 ADD MSTORE PUSH32 0x557365726E616D652063616E6E6F7420626520656D7074790000000000000000 PUSH1 0x44 DUP3 ADD MSTORE PUSH1 0x64 ADD PUSH2 0x3D2 JUMP JUMPDEST PUSH0 DUP3 MLOAD GT PUSH2 0xE08 JUMPI PUSH1 0x40 MLOAD PUSH3 0x461BCD PUSH1 0xE5 SHL DUP2 MSTORE PUSH1 0x20 PUSH1 0x4 DUP3 ADD MSTORE PUSH1 0x21 PUSH1 0x24 DUP3 ADD MSTORE PUSH32 0x50726F66696C652070686F746F204349442063616E6E6F7420626520656D7074 PUSH1 0x44 DUP3 ADD MSTORE PUSH1 0x79 PUSH1 0xF8 SHL PUSH1 0x64 DUP3 ADD MSTORE PUSH1 0x84 ADD PUSH2 0x3D2 JUMP JUMPDEST CALLER PUSH0 SWAP1 DUP2 MSTORE PUSH1 0x1 PUSH1 0x20 MSTORE PUSH1 0x40 SWAP1 KECCAK256 SLOAD PUSH1 0xFF AND PUSH2 0xE90 JUMPI PUSH1 0x3 DUP1 SLOAD PUSH1 0x1 DUP2 DUP2 ADD SWAP1 SWAP3 SSTORE PUSH32 0xC2575A0E9E593C00F959F8C92F12DB2869C3395A3B0502D05E2516446F71F85B ADD DUP1 SLOAD PUSH32 0xFFFFFFFFFFFFFFFFFFFFFFFF0000000000000000000000000000000000000000 AND CALLER SWAP1 DUP2 OR SWAP1 SWAP2 SSTORE PUSH0 SWAP1 DUP2 MSTORE PUSH1 0x20 DUP3 SWAP1 MSTORE PUSH1 0x40 SWAP1 KECCAK256 DUP1 SLOAD PUSH1 0xFF NOT AND SWAP1 SWAP2 OR SWAP1 SSTORE JUMPDEST CALLER PUSH0 SWAP1 DUP2 MSTORE PUSH1 0x20 DUP2 SWAP1 MSTORE PUSH1 0x40 SWAP1 KECCAK256 DUP1 PUSH2 0xEA9 DUP8 DUP3 PUSH2 0x1AF1 JUMP JUMPDEST POP PUSH1 0x1 DUP2 ADD PUSH2 0xEB8 DUP7 DUP3 PUSH2 0x1AF1 JUMP JUMPDEST POP PUSH1 0x2 DUP2 ADD PUSH2 0xEC7 DUP6 DUP3 PUSH2 0x1AF1 JUMP JUMPDEST POP PUSH1 0x3 DUP2 ADD PUSH2 0xED6 DUP5 DUP3 PUSH2 0x1AF1 JUMP JUMPDEST POP PUSH1 0x4 DUP2 ADD PUSH2 0xEE5 DUP4 DUP3 PUSH2 0x1AF1 JUMP JUMPDEST POP POP POP POP POP POP POP JUMP JUMPDEST PUSH0 PUSH1 0x20 DUP2 SWAP1 MSTORE SWAP1 DUP2 MSTORE PUSH1 0x40 SWAP1 KECCAK256 DUP1 SLOAD DUP2 SWAP1 PUSH2 0xF08 SWAP1 PUSH2 0x1A3B JUMP JUMPDEST DUP1 PUSH1 0x1F ADD PUSH1 0x20 DUP1 SWAP2 DIV MUL PUSH1 0x20 ADD PUSH1 0x40 MLOAD SWAP1 DUP2 ADD PUSH1 0x40 MSTORE DUP1 SWAP3 SWAP2 SWAP1 DUP2 DUP2 MSTORE PUSH1 0x20 ADD DUP3 DUP1 SLOAD PUSH2 0xF34 SWAP1 PUSH2 0x1A3B JUMP JUMPDEST DUP1 ISZERO PUSH2 0xF7F JUMPI DUP1 PUSH1 0x1F LT PUSH2 0xF56 JUMPI PUSH2 0x100 DUP1 DUP4 SLOAD DIV MUL DUP4 MSTORE SWAP2 PUSH1 0x20 ADD SWAP2 PUSH2 0xF7F JUMP JUMPDEST DUP3 ADD SWAP2 SWAP1 PUSH0 MSTORE PUSH1 0x20 PUSH0 KECCAK256 SWAP1 JUMPDEST DUP2 SLOAD DUP2 MSTORE SWAP1 PUSH1 0x1 ADD SWAP1 PUSH1 0x20 ADD DUP1 DUP4 GT PUSH2 0xF62 JUMPI DUP3 SWAP1 SUB PUSH1 0x1F AND DUP3 ADD SWAP2 JUMPDEST POP POP POP POP POP SWAP1 DUP1 PUSH1 0x1 ADD DUP1 SLOAD PUSH2 0xF94 SWAP1 PUSH2 0x1A3B JUMP JUMPDEST DUP1 PUSH1 0x1F ADD PUSH1 0x20 DUP1 SWAP2 DIV MUL PUSH1 0x20 ADD PUSH1 0x40 MLOAD SWAP1 DUP2 ADD PUSH1 0x40 MSTORE DUP1 SWAP3 SWAP2 SWAP1 DUP2 DUP2 MSTORE PUSH1 0x20 ADD DUP3 DUP1 SLOAD PUSH2 0xFC0 SWAP1 PUSH2 0x1A3B JUMP JUMPDEST DUP1 ISZERO PUSH2 0x100B JUMPI DUP1 PUSH1 0x1F LT PUSH2 0xFE2 JUMPI PUSH2 0x100 DUP1 DUP4 SLOAD DIV MUL DUP4 MSTORE SWAP2 PUSH1 0x20 ADD SWAP2 PUSH2 0x100B JUMP JUMPDEST DUP3 ADD SWAP2 SWAP1 PUSH0 MSTORE PUSH1 0x20 PUSH0 KECCAK256 SWAP1 JUMPDEST DUP2 SLOAD DUP2 MSTORE SWAP1 PUSH1 0x1 ADD SWAP1 PUSH1 0x20 ADD DUP1 DUP4 GT PUSH2 0xFEE JUMPI DUP3 SWAP1 SUB PUSH1 0x1F AND DUP3 ADD SWAP2 JUMPDEST POP POP POP POP POP SWAP1 DUP1 PUSH1 0x2 ADD DUP1 SLOAD PUSH2 0x1020 SWAP1 PUSH2 0x1A3B JUMP JUMPDEST DUP1 PUSH1 0x1F ADD PUSH1 0x20 DUP1 SWAP2 DIV MUL PUSH1 0x20 ADD PUSH1 0x40 MLOAD SWAP1 DUP2 ADD PUSH1 0x40 MSTORE DUP1 SWAP3 SWAP2 SWAP1 DUP2 DUP2 MSTORE PUSH1 0x20 ADD DUP3 DUP1 SLOAD PUSH2 0x104C SWAP1 PUSH2 0x1A3B JUMP JUMPDEST DUP1 ISZERO PUSH2 0x1097 JUMPI DUP1 PUSH1 0x1F LT PUSH2 0x106E JUMPI PUSH2 0x100 DUP1 DUP4 SLOAD DIV MUL DUP4 MSTORE SWAP2 PUSH1 0x20 ADD SWAP2 PUSH2 0x1097 JUMP JUMPDEST DUP3 ADD SWAP2 SWAP1 PUSH0 MSTORE PUSH1 0x20 PUSH0 KECCAK256 SWAP1 JUMPDEST DUP2 SLOAD DUP2 MSTORE SWAP1 PUSH1 0x1 ADD SWAP1 PUSH1 0x20 ADD DUP1 DUP4 GT PUSH2 0x107A JUMPI DUP3 SWAP1 SUB PUSH1 0x1F AND DUP3 ADD SWAP2 JUMPDEST POP POP POP POP POP SWAP1 DUP1 PUSH1 0x3 ADD DUP1 SLOAD PUSH2 0x10AC SWAP1 PUSH2 0x1A3B JUMP JUMPDEST DUP1 PUSH1 0x1F ADD PUSH1 0x20 DUP1 SWAP2 DIV MUL PUSH1 0x20 ADD PUSH1 0x40 MLOAD SWAP1 DUP2 ADD PUSH1 0x40 MSTORE DUP1 SWAP3 SWAP2 SWAP1 DUP2 DUP2 MSTORE PUSH1 0x20 ADD DUP3 DUP1 SLOAD PUSH2 0x10D8 SWAP1 PUSH2 0x1A3B JUMP JUMPDEST DUP1 ISZERO PUSH2 0x1123 JUMPI DUP1 PUSH1 0x1F LT PUSH2 0x10FA JUMPI PUSH2 0x100 DUP1 DUP4 SLOAD DIV MUL DUP4 MSTORE SWAP2 PUSH1 0x20 ADD SWAP2 PUSH2 0x1123 JUMP JUMPDEST DUP3 ADD SWAP2 SWAP1 PUSH0 MSTORE PUSH1 0x20 PUSH0 KECCAK256 SWAP1 JUMPDEST DUP2 SLOAD DUP2 MSTORE SWAP1 PUSH1 0x1 ADD SWAP1 PUSH1 0x20 ADD DUP1 DUP4 GT PUSH2 0x1106 JUMPI DUP3 SWAP1 SUB PUSH1 0x1F AND DUP3 ADD SWAP2 JUMPDEST POP POP POP POP POP SWAP1 DUP1 PUSH1 0x4 ADD DUP1 SLOAD PUSH2 0x1138 SWAP1 PUSH2 0x1A3B JUMP JUMPDEST DUP1 PUSH1 0x1F ADD PUSH1 0x20 DUP1 SWAP2 DIV MUL PUSH1 0x20 ADD PUSH1 0x40 MLOAD SWAP1 DUP2 ADD PUSH1 0x40 MSTORE DUP1 SWAP3 SWAP2 SWAP1 DUP2 DUP2 MSTORE PUSH1 0x20 ADD DUP3 DUP1 SLOAD PUSH2 0x1164 SWAP1 PUSH2 0x1A3B JUMP JUMPDEST DUP1 ISZERO PUSH2 0x11AF JUMPI DUP1 PUSH1 0x1F LT PUSH2 0x1186 JUMPI PUSH2 0x100 DUP1 DUP4 SLOAD DIV MUL DUP4 MSTORE SWAP2 PUSH1 0x20 ADD SWAP2 PUSH2 0x11AF JUMP JUMPDEST DUP3 ADD SWAP2 SWAP1 PUSH0 MSTORE PUSH1 0x20 PUSH0 KECCAK256 SWAP1 JUMPDEST DUP2 SLOAD DUP2 MSTORE SWAP1 PUSH1 0x1 ADD SWAP1 PUSH1 0x20 ADD DUP1 DUP4 GT PUSH2 0x1192 JUMPI DUP3 SWAP1 SUB PUSH1 0x1F AND DUP3 ADD SWAP2 JUMPDEST POP POP POP POP POP SWAP1 DUP1 PUSH1 0x5 ADD SLOAD SWAP1 DUP1 PUSH1 0x6 ADD SLOAD SWAP1 DUP1 PUSH1 0x7 ADD SLOAD SWAP1 POP DUP9 JUMP JUMPDEST PUSH1 0x3 SLOAD PUSH1 0x60 SWAP1 PUSH0 SWAP1 PUSH8 0xFFFFFFFFFFFFFFFF DUP2 GT ISZERO PUSH2 0x11EB JUMPI PUSH2 0x11EB PUSH2 0x17EF JUMP JUMPDEST PUSH1 0x40 MLOAD SWAP1 DUP1 DUP3 MSTORE DUP1 PUSH1 0x20 MUL PUSH1 0x20 ADD DUP3 ADD PUSH1 0x40 MSTORE DUP1 ISZERO PUSH2 0x1261 JUMPI DUP2 PUSH1 0x20 ADD JUMPDEST PUSH2 0x124E PUSH1 0x40 MLOAD DUP1 PUSH2 0x100 ADD PUSH1 0x40 MSTORE DUP1 PUSH1 0x60 DUP2 MSTORE PUSH1 0x20 ADD PUSH1 0x60 DUP2 MSTORE PUSH1 0x20 ADD PUSH1 0x60 DUP2 MSTORE PUSH1 0x20 ADD PUSH1 0x60 DUP2 MSTORE PUSH1 0x20 ADD PUSH1 0x60 DUP2 MSTORE PUSH1 0x20 ADD PUSH0 DUP2 MSTORE PUSH1 0x20 ADD PUSH0 DUP2 MSTORE PUSH1 0x20 ADD PUSH0 DUP2 MSTORE POP SWAP1 JUMP JUMPDEST DUP2 MSTORE PUSH1 0x20 ADD SWAP1 PUSH1 0x1 SWAP1 SUB SWAP1 DUP2 PUSH2 0x1209 JUMPI SWAP1 POP JUMPDEST POP SWAP1 POP PUSH0 JUMPDEST PUSH1 0x3 SLOAD DUP2 LT ISZERO PUSH2 0x15C9 JUMPI PUSH0 PUSH1 0x3 DUP3 DUP2 SLOAD DUP2 LT PUSH2 0x1284 JUMPI PUSH2 0x1284 PUSH2 0x1A6D JUMP JUMPDEST PUSH0 SWAP2 DUP3 MSTORE PUSH1 0x20 DUP1 DUP4 KECCAK256 SWAP1 SWAP2 ADD SLOAD PUSH1 0x1 PUSH1 0x1 PUSH1 0xA0 SHL SUB AND DUP1 DUP4 MSTORE SWAP1 DUP3 SWAP1 MSTORE PUSH1 0x40 SWAP2 DUP3 SWAP1 KECCAK256 DUP3 MLOAD PUSH2 0x100 DUP2 ADD SWAP1 SWAP4 MSTORE DUP1 SLOAD SWAP2 SWAP4 POP SWAP2 SWAP1 DUP2 SWAP1 DUP4 SWAP1 PUSH2 0x12C5 SWAP1 PUSH2 0x1A3B JUMP JUMPDEST DUP1 PUSH1 0x1F ADD PUSH1 0x20 DUP1 SWAP2 DIV MUL PUSH1 0x20 ADD PUSH1 0x40 MLOAD SWAP1 DUP2 ADD PUSH1 0x40 MSTORE DUP1 SWAP3 SWAP2 SWAP1 DUP2 DUP2 MSTORE PUSH1 0x20 ADD DUP3 DUP1 SLOAD PUSH2 0x12F1 SWAP1 PUSH2 0x1A3B JUMP JUMPDEST DUP1 ISZERO PUSH2 0x133C JUMPI DUP1 PUSH1 0x1F LT PUSH2 0x1313 JUMPI PUSH2 0x100 DUP1 DUP4 SLOAD DIV MUL DUP4 MSTORE SWAP2 PUSH1 0x20 ADD SWAP2 PUSH2 0x133C JUMP JUMPDEST DUP3 ADD SWAP2 SWAP1 PUSH0 MSTORE PUSH1 0x20 PUSH0 KECCAK256 SWAP1 JUMPDEST DUP2 SLOAD DUP2 MSTORE SWAP1 PUSH1 0x1 ADD SWAP1 PUSH1 0x20 ADD DUP1 DUP4 GT PUSH2 0x131F JUMPI DUP3 SWAP1 SUB PUSH1 0x1F AND DUP3 ADD SWAP2 JUMPDEST POP POP POP POP POP DUP2 MSTORE PUSH1 0x20 ADD DUP3 PUSH1 0x1 ADD DUP1 SLOAD PUSH2 0x1355 SWAP1 PUSH2 0x1A3B JUMP JUMPDEST DUP1 PUSH1 0x1F ADD PUSH1 0x20 DUP1 SWAP2 DIV MUL PUSH1 0x20 ADD PUSH1 0x40 MLOAD SWAP1 DUP2 ADD PUSH1 0x40 MSTORE DUP1 SWAP3 SWAP2 SWAP1 DUP2 DUP2 MSTORE PUSH1 0x20 ADD DUP3 DUP1 SLOAD PUSH2 0x1381 SWAP1 PUSH2 0x1A3B JUMP JUMPDEST DUP1 ISZERO PUSH2 0x13CC JUMPI DUP1 PUSH1 0x1F LT PUSH2 0x13A3 JUMPI PUSH2 0x100 DUP1 DUP4 SLOAD DIV MUL DUP4 MSTORE SWAP2 PUSH1 0x20 ADD SWAP2 PUSH2 0x13CC JUMP JUMPDEST DUP3 ADD SWAP2 SWAP1 PUSH0 MSTORE PUSH1 0x20 PUSH0 KECCAK256 SWAP1 JUMPDEST DUP2 SLOAD DUP2 MSTORE SWAP1 PUSH1 0x1 ADD SWAP1 PUSH1 0x20 ADD DUP1 DUP4 GT PUSH2 0x13AF JUMPI DUP3 SWAP1 SUB PUSH1 0x1F AND DUP3 ADD SWAP2 JUMPDEST POP POP POP POP POP DUP2 MSTORE PUSH1 0x20 ADD DUP3 PUSH1 0x2 ADD DUP1 SLOAD PUSH2 0x13E5 SWAP1 PUSH2 0x1A3B JUMP JUMPDEST DUP1 PUSH1 0x1F ADD PUSH1 0x20 DUP1 SWAP2 DIV MUL PUSH1 0x20 ADD PUSH1 0x40 MLOAD SWAP1 DUP2 ADD PUSH1 0x40 MSTORE DUP1 SWAP3 SWAP2 SWAP1 DUP2 DUP2 MSTORE PUSH1 0x20 ADD DUP3 DUP1 SLOAD PUSH2 0x1411 SWAP1 PUSH2 0x1A3B JUMP JUMPDEST DUP1 ISZERO PUSH2 0x145C JUMPI DUP1 PUSH1 0x1F LT PUSH2 0x1433 JUMPI PUSH2 0x100 DUP1 DUP4 SLOAD DIV MUL DUP4 MSTORE SWAP2 PUSH1 0x20 ADD SWAP2 PUSH2 0x145C JUMP JUMPDEST DUP3 ADD SWAP2 SWAP1 PUSH0 MSTORE PUSH1 0x20 PUSH0 KECCAK256 SWAP1 JUMPDEST DUP2 SLOAD DUP2 MSTORE SWAP1 PUSH1 0x1 ADD SWAP1 PUSH1 0x20 ADD DUP1 DUP4 GT PUSH2 0x143F JUMPI DUP3 SWAP1 SUB PUSH1 0x1F AND DUP3 ADD SWAP2 JUMPDEST POP POP POP POP POP DUP2 MSTORE PUSH1 0x20 ADD DUP3 PUSH1 0x3 ADD DUP1 SLOAD PUSH2 0x1475 SWAP1 PUSH2 0x1A3B JUMP JUMPDEST DUP1 PUSH1 0x1F ADD PUSH1 0x20 DUP1 SWAP2 DIV MUL PUSH1 0x20 ADD PUSH1 0x40 MLOAD SWAP1 DUP2 ADD PUSH1 0x40 MSTORE DUP1 SWAP3 SWAP2 SWAP1 DUP2 DUP2 MSTORE PUSH1 0x20 ADD DUP3 DUP1 SLOAD PUSH2 0x14A1 SWAP1 PUSH2 0x1A3B JUMP JUMPDEST DUP1 ISZERO PUSH2 0x14EC JUMPI DUP1 PUSH1 0x1F LT PUSH2 0x14C3 JUMPI PUSH2 0x100 DUP1 DUP4 SLOAD DIV MUL DUP4 MSTORE SWAP2 PUSH1 0x20 ADD SWAP2 PUSH2 0x14EC JUMP JUMPDEST DUP3 ADD SWAP2 SWAP1 PUSH0 MSTORE PUSH1 0x20 PUSH0 KECCAK256 SWAP1 JUMPDEST DUP2 SLOAD DUP2 MSTORE SWAP1 PUSH1 0x1 ADD SWAP1 PUSH1 0x20 ADD DUP1 DUP4 GT PUSH2 0x14CF JUMPI DUP3 SWAP1 SUB PUSH1 0x1F AND DUP3 ADD SWAP2 JUMPDEST POP POP POP POP POP DUP2 MSTORE PUSH1 0x20 ADD DUP3 PUSH1 0x4 ADD DUP1 SLOAD PUSH2 0x1505 SWAP1 PUSH2 0x1A3B JUMP JUMPDEST DUP1 PUSH1 0x1F ADD PUSH1 0x20 DUP1 SWAP2 DIV MUL PUSH1 0x20 ADD PUSH1 0x40 MLOAD SWAP1 DUP2 ADD PUSH1 0x40 MSTORE DUP1 SWAP3 SWAP2 SWAP1 DUP2 DUP2 MSTORE PUSH1 0x20 ADD DUP3 DUP1 SLOAD PUSH2 0x1531 SWAP1 PUSH2 0x1A3B JUMP JUMPDEST DUP1 ISZERO PUSH2 0x157C JUMPI DUP1 PUSH1 0x1F LT PUSH2 0x1553 JUMPI PUSH2 0x100 DUP1 DUP4 SLOAD DIV MUL DUP4 MSTORE SWAP2 PUSH1 0x20 ADD SWAP2 PUSH2 0x157C JUMP JUMPDEST DUP3 ADD SWAP2 SWAP1 PUSH0 MSTORE PUSH1 0x20 PUSH0 KECCAK256 SWAP1 JUMPDEST DUP2 SLOAD DUP2 MSTORE SWAP1 PUSH1 0x1 ADD SWAP1 PUSH1 0x20 ADD DUP1 DUP4 GT PUSH2 0x155F JUMPI DUP3 SWAP1 SUB PUSH1 0x1F AND DUP3 ADD SWAP2 JUMPDEST POP POP POP POP POP DUP2 MSTORE PUSH1 0x20 ADD DUP3 PUSH1 0x5 ADD SLOAD DUP2 MSTORE PUSH1 0x20 ADD DUP3 PUSH1 0x6 ADD SLOAD DUP2 MSTORE PUSH1 0x20 ADD DUP3 PUSH1 0x7 ADD SLOAD DUP2 MSTORE POP DUP5 DUP5 DUP2 MLOAD DUP2 LT PUSH2 0x15B4 JUMPI PUSH2 0x15B4 PUSH2 0x1A6D JUMP JUMPDEST PUSH1 0x20 SWAP1 DUP2 MUL SWAP2 SWAP1 SWAP2 ADD ADD MSTORE POP POP PUSH1 0x1 ADD PUSH2 0x1266 JUMP JUMPDEST POP SWAP2 SWAP1 POP JUMP JUMPDEST PUSH1 0x1 PUSH1 0x1 PUSH1 0xA0 SHL SUB DUP2 AND PUSH0 SWAP1 DUP2 MSTORE PUSH1 0x20 DUP2 SWAP1 MSTORE PUSH1 0x40 DUP2 KECCAK256 PUSH1 0x7 ADD DUP1 SLOAD SWAP2 PUSH2 0x15F5 DUP4 PUSH2 0x1A81 JUMP JUMPDEST SWAP2 SWAP1 POP SSTORE POP POP JUMP JUMPDEST PUSH1 0x1 PUSH1 0x1 PUSH1 0xA0 SHL SUB DUP2 AND PUSH0 SWAP1 DUP2 MSTORE PUSH1 0x20 DUP2 SWAP1 MSTORE PUSH1 0x40 SWAP1 KECCAK256 PUSH1 0x3 ADD DUP1 SLOAD PUSH1 0x60 SWAP2 SWAP1 PUSH2 0xB86 SWAP1 PUSH2 0x1A3B JUMP JUMPDEST DUP1 CALLDATALOAD PUSH1 0x1 PUSH1 0x1 PUSH1 0xA0 SHL SUB DUP2 AND DUP2 EQ PUSH2 0x163C JUMPI PUSH0 DUP1 REVERT JUMPDEST SWAP2 SWAP1 POP JUMP JUMPDEST PUSH0 PUSH1 0x20 DUP3 DUP5 SUB SLT ISZERO PUSH2 0x1651 JUMPI PUSH0 DUP1 REVERT JUMPDEST PUSH2 0x165A DUP3 PUSH2 0x1626 JUMP JUMPDEST SWAP4 SWAP3 POP POP POP JUMP JUMPDEST PUSH0 DUP2 MLOAD DUP1 DUP5 MSTORE DUP1 PUSH1 0x20 DUP5 ADD PUSH1 0x20 DUP7 ADD MCOPY PUSH0 PUSH1 0x20 DUP3 DUP7 ADD ADD MSTORE PUSH1 0x20 PUSH1 0x1F NOT PUSH1 0x1F DUP4 ADD AND DUP6 ADD ADD SWAP2 POP POP SWAP3 SWAP2 POP POP JUMP JUMPDEST PUSH0 PUSH2 0x100 DUP3 MLOAD DUP2 DUP6 MSTORE PUSH2 0x16A4 DUP3 DUP7 ADD DUP3 PUSH2 0x1661 JUMP JUMPDEST SWAP2 POP POP PUSH1 0x20 DUP4 ADD MLOAD DUP5 DUP3 SUB PUSH1 0x20 DUP7 ADD MSTORE PUSH2 0x16BE DUP3 DUP3 PUSH2 0x1661 JUMP JUMPDEST SWAP2 POP POP PUSH1 0x40 DUP4 ADD MLOAD DUP5 DUP3 SUB PUSH1 0x40 DUP7 ADD MSTORE PUSH2 0x16D8 DUP3 DUP3 PUSH2 0x1661 JUMP JUMPDEST SWAP2 POP POP PUSH1 0x60 DUP4 ADD MLOAD DUP5 DUP3 SUB PUSH1 0x60 DUP7 ADD MSTORE PUSH2 0x16F2 DUP3 DUP3 PUSH2 0x1661 JUMP JUMPDEST SWAP2 POP POP PUSH1 0x80 DUP4 ADD MLOAD DUP5 DUP3 SUB PUSH1 0x80 DUP7 ADD MSTORE PUSH2 0x170C DUP3 DUP3 PUSH2 0x1661 JUMP JUMPDEST SWAP2 POP POP PUSH1 0xA0 DUP4 ADD MLOAD PUSH1 0xA0 DUP6 ADD MSTORE PUSH1 0xC0 DUP4 ADD MLOAD PUSH1 0xC0 DUP6 ADD MSTORE PUSH1 0xE0 DUP4 ADD MLOAD PUSH1 0xE0 DUP6 ADD MSTORE DUP1 SWAP2 POP POP SWAP3 SWAP2 POP POP JUMP JUMPDEST PUSH1 0x20 DUP2 MSTORE PUSH0 PUSH2 0x165A PUSH1 0x20 DUP4 ADD DUP5 PUSH2 0x168F JUMP JUMPDEST PUSH1 0x20 DUP1 DUP3 MSTORE DUP3 MLOAD DUP3 DUP3 ADD DUP2 SWAP1 MSTORE PUSH0 SWAP2 SWAP1 DUP5 DUP3 ADD SWAP1 PUSH1 0x40 DUP6 ADD SWAP1 DUP5 JUMPDEST DUP2 DUP2 LT ISZERO PUSH2 0x1789 JUMPI DUP4 MLOAD PUSH1 0x1 PUSH1 0x1 PUSH1 0xA0 SHL SUB AND DUP4 MSTORE SWAP3 DUP5 ADD SWAP3 SWAP2 DUP5 ADD SWAP2 PUSH1 0x1 ADD PUSH2 0x1764 JUMP JUMPDEST POP SWAP1 SWAP7 SWAP6 POP POP POP POP POP POP JUMP JUMPDEST PUSH0 DUP1 PUSH1 0x40 DUP4 DUP6 SUB SLT ISZERO PUSH2 0x17A6 JUMPI PUSH0 DUP1 REVERT JUMPDEST PUSH2 0x17AF DUP4 PUSH2 0x1626 JUMP JUMPDEST SWAP2 POP PUSH2 0x17BD PUSH1 0x20 DUP5 ADD PUSH2 0x1626 JUMP JUMPDEST SWAP1 POP SWAP3 POP SWAP3 SWAP1 POP JUMP JUMPDEST PUSH0 PUSH1 0x20 DUP3 DUP5 SUB SLT ISZERO PUSH2 0x17D6 JUMPI PUSH0 DUP1 REVERT JUMPDEST POP CALLDATALOAD SWAP2 SWAP1 POP JUMP JUMPDEST PUSH1 0x20 DUP2 MSTORE PUSH0 PUSH2 0x165A PUSH1 0x20 DUP4 ADD DUP5 PUSH2 0x1661 JUMP JUMPDEST PUSH4 0x4E487B71 PUSH1 0xE0 SHL PUSH0 MSTORE PUSH1 0x41 PUSH1 0x4 MSTORE PUSH1 0x24 PUSH0 REVERT JUMPDEST PUSH0 DUP3 PUSH1 0x1F DUP4 ADD SLT PUSH2 0x1812 JUMPI PUSH0 DUP1 REVERT JUMPDEST DUP2 CALLDATALOAD PUSH8 0xFFFFFFFFFFFFFFFF DUP1 DUP3 GT ISZERO PUSH2 0x182D JUMPI PUSH2 0x182D PUSH2 0x17EF JUMP JUMPDEST PUSH1 0x40 MLOAD PUSH1 0x1F DUP4 ADD PUSH1 0x1F NOT SWAP1 DUP2 AND PUSH1 0x3F ADD AND DUP2 ADD SWAP1 DUP3 DUP3 GT DUP2 DUP4 LT OR ISZERO PUSH2 0x1855 JUMPI PUSH2 0x1855 PUSH2 0x17EF JUMP JUMPDEST DUP2 PUSH1 0x40 MSTORE DUP4 DUP2 MSTORE DUP7 PUSH1 0x20 DUP6 DUP9 ADD ADD GT ISZERO PUSH2 0x186D JUMPI PUSH0 DUP1 REVERT JUMPDEST DUP4 PUSH1 0x20 DUP8 ADD PUSH1 0x20 DUP4 ADD CALLDATACOPY PUSH0 PUSH1 0x20 DUP6 DUP4 ADD ADD MSTORE DUP1 SWAP5 POP POP POP POP POP SWAP3 SWAP2 POP POP JUMP JUMPDEST PUSH0 DUP1 PUSH0 DUP1 PUSH0 PUSH1 0xA0 DUP7 DUP9 SUB SLT ISZERO PUSH2 0x18A0 JUMPI PUSH0 DUP1 REVERT JUMPDEST DUP6 CALLDATALOAD PUSH8 0xFFFFFFFFFFFFFFFF DUP1 DUP3 GT ISZERO PUSH2 0x18B7 JUMPI PUSH0 DUP1 REVERT JUMPDEST PUSH2 0x18C3 DUP10 DUP4 DUP11 ADD PUSH2 0x1803 JUMP JUMPDEST SWAP7 POP PUSH1 0x20 DUP9 ADD CALLDATALOAD SWAP2 POP DUP1 DUP3 GT ISZERO PUSH2 0x18D8 JUMPI PUSH0 DUP1 REVERT JUMPDEST PUSH2 0x18E4 DUP10 DUP4 DUP11 ADD PUSH2 0x1803 JUMP JUMPDEST SWAP6 POP PUSH1 0x40 DUP9 ADD CALLDATALOAD SWAP2 POP DUP1 DUP3 GT ISZERO PUSH2 0x18F9 JUMPI PUSH0 DUP1 REVERT JUMPDEST PUSH2 0x1905 DUP10 DUP4 DUP11 ADD PUSH2 0x1803 JUMP JUMPDEST SWAP5 POP PUSH1 0x60 DUP9 ADD CALLDATALOAD SWAP2 POP DUP1 DUP3 GT ISZERO PUSH2 0x191A JUMPI PUSH0 DUP1 REVERT JUMPDEST PUSH2 0x1926 DUP10 DUP4 DUP11 ADD PUSH2 0x1803 JUMP JUMPDEST SWAP4 POP PUSH1 0x80 DUP9 ADD CALLDATALOAD SWAP2 POP DUP1 DUP3 GT ISZERO PUSH2 0x193B JUMPI PUSH0 DUP1 REVERT JUMPDEST POP PUSH2 0x1948 DUP9 DUP3 DUP10 ADD PUSH2 0x1803 JUMP JUMPDEST SWAP2 POP POP SWAP3 SWAP6 POP SWAP3 SWAP6 SWAP1 SWAP4 POP JUMP JUMPDEST PUSH0 PUSH2 0x100 DUP1 DUP4 MSTORE PUSH2 0x1968 DUP2 DUP5 ADD DUP13 PUSH2 0x1661 JUMP JUMPDEST SWAP1 POP DUP3 DUP2 SUB PUSH1 0x20 DUP5 ADD MSTORE PUSH2 0x197C DUP2 DUP12 PUSH2 0x1661 JUMP JUMPDEST SWAP1 POP DUP3 DUP2 SUB PUSH1 0x40 DUP5 ADD MSTORE PUSH2 0x1990 DUP2 DUP11 PUSH2 0x1661 JUMP JUMPDEST SWAP1 POP DUP3 DUP2 SUB PUSH1 0x60 DUP5 ADD MSTORE PUSH2 0x19A4 DUP2 DUP10 PUSH2 0x1661 JUMP JUMPDEST SWAP1 POP DUP3 DUP2 SUB PUSH1 0x80 DUP5 ADD MSTORE PUSH2 0x19B8 DUP2 DUP9 PUSH2 0x1661 JUMP JUMPDEST PUSH1 0xA0 DUP5 ADD SWAP7 SWAP1 SWAP7 MSTORE POP POP PUSH1 0xC0 DUP2 ADD SWAP3 SWAP1 SWAP3 MSTORE PUSH1 0xE0 SWAP1 SWAP2 ADD MSTORE SWAP6 SWAP5 POP POP POP POP POP JUMP JUMPDEST PUSH0 PUSH1 0x20 DUP1 DUP4 ADD PUSH1 0x20 DUP5 MSTORE DUP1 DUP6 MLOAD DUP1 DUP4 MSTORE PUSH1 0x40 DUP7 ADD SWAP2 POP PUSH1 0x40 DUP2 PUSH1 0x5 SHL DUP8 ADD ADD SWAP3 POP PUSH1 0x20 DUP8 ADD PUSH0 JUMPDEST DUP3 DUP2 LT ISZERO PUSH2 0x1A2E JUMPI PUSH1 0x3F NOT DUP9 DUP7 SUB ADD DUP5 MSTORE PUSH2 0x1A1C DUP6 DUP4 MLOAD PUSH2 0x168F JUMP JUMPDEST SWAP5 POP SWAP3 DUP6 ADD SWAP3 SWAP1 DUP6 ADD SWAP1 PUSH1 0x1 ADD PUSH2 0x1A00 JUMP JUMPDEST POP SWAP3 SWAP8 SWAP7 POP POP POP POP POP POP POP JUMP JUMPDEST PUSH1 0x1 DUP2 DUP2 SHR SWAP1 DUP3 AND DUP1 PUSH2 0x1A4F JUMPI PUSH1 0x7F DUP3 AND SWAP2 POP JUMPDEST PUSH1 0x20 DUP3 LT DUP2 SUB PUSH2 0x15C9 JUMPI PUSH4 0x4E487B71 PUSH1 0xE0 SHL PUSH0 MSTORE PUSH1 0x22 PUSH1 0x4 MSTORE PUSH1 0x24 PUSH0 REVERT JUMPDEST PUSH4 0x4E487B71 PUSH1 0xE0 SHL PUSH0 MSTORE PUSH1 0x32 PUSH1 0x4 MSTORE PUSH1 0x24 PUSH0 REVERT JUMPDEST PUSH0 PUSH1 0x1 DUP3 ADD PUSH2 0x1A9E JUMPI PUSH4 0x4E487B71 PUSH1 0xE0 SHL PUSH0 MSTORE PUSH1 0x11 PUSH1 0x4 MSTORE PUSH1 0x24 PUSH0 REVERT JUMPDEST POP PUSH1 0x1 ADD SWAP1 JUMP JUMPDEST PUSH1 0x1F DUP3 GT ISZERO PUSH2 0x1AEC JUMPI DUP1 PUSH0 MSTORE PUSH1 0x20 PUSH0 KECCAK256 PUSH1 0x1F DUP5 ADD PUSH1 0x5 SHR DUP2 ADD PUSH1 0x20 DUP6 LT ISZERO PUSH2 0x1ACA JUMPI POP DUP1 JUMPDEST PUSH1 0x1F DUP5 ADD PUSH1 0x5 SHR DUP3 ADD SWAP2 POP JUMPDEST DUP2 DUP2 LT ISZERO PUSH2 0x1AE9 JUMPI PUSH0 DUP2 SSTORE PUSH1 0x1 ADD PUSH2 0x1AD6 JUMP JUMPDEST POP POP JUMPDEST POP POP POP JUMP JUMPDEST DUP2 MLOAD PUSH8 0xFFFFFFFFFFFFFFFF DUP2 GT ISZERO PUSH2 0x1B0B JUMPI PUSH2 0x1B0B PUSH2 0x17EF JUMP JUMPDEST PUSH2 0x1B1F DUP2 PUSH2 0x1B19 DUP5 SLOAD PUSH2 0x1A3B JUMP JUMPDEST DUP5 PUSH2 0x1AA5 JUMP JUMPDEST PUSH1 0x20 DUP1 PUSH1 0x1F DUP4 GT PUSH1 0x1 DUP2 EQ PUSH2 0x1B52 JUMPI PUSH0 DUP5 ISZERO PUSH2 0x1B3B JUMPI POP DUP6 DUP4 ADD MLOAD JUMPDEST PUSH0 NOT PUSH1 0x3 DUP7 SWAP1 SHL SHR NOT AND PUSH1 0x1 DUP6 SWAP1 SHL OR DUP6 SSTORE PUSH2 0x1BA9 JUMP JUMPDEST PUSH0 DUP6 DUP2 MSTORE PUSH1 0x20 DUP2 KECCAK256 PUSH1 0x1F NOT DUP7 AND SWAP2 JUMPDEST DUP3 DUP2 LT ISZERO PUSH2 0x1B80 JUMPI DUP9 DUP7 ADD MLOAD DUP3 SSTORE SWAP5 DUP5 ADD SWAP5 PUSH1 0x1 SWAP1 SWAP2 ADD SWAP1 DUP5 ADD PUSH2 0x1B61 JUMP JUMPDEST POP DUP6 DUP3 LT ISZERO PUSH2 0x1B9D JUMPI DUP8 DUP6 ADD MLOAD PUSH0 NOT PUSH1 0x3 DUP9 SWAP1 SHL PUSH1 0xF8 AND SHR NOT AND DUP2 SSTORE JUMPDEST POP POP PUSH1 0x1 DUP5 PUSH1 0x1 SHL ADD DUP6 SSTORE JUMPDEST POP POP POP POP POP POP JUMP INVALID LOG2 PUSH5 0x6970667358 0x22 SLT KECCAK256 PUSH3 0x915927 0x26 RETURNDATASIZE SLOAD PC STOP PUSH17 0x90261910D10501A4DB21BDFC1A2AF0B825 0xD4 GT SUB 0xBD 0xDF PUSH5 0x736F6C6343 STOP ADDMOD NOT STOP CALLER "
    },
    "gasEstimates": {
      "creation": {
        "codeDepositCost": "1428600",
        "executionCost": "1491",
        "totalCost": "1430091"
      },
      "external": {
        "YourProfileUsername(address)": "infinite",
        "allUsers(uint256)": "4700",
        "allUsersAddress(uint256)": "4682",
        "allUsersLength()": "2292",
        "checkFollower(address,address)": "infinite",
        "checkUserExist(address)": "2614",
        "followUser(address)": "infinite",
        "followers(address,address)": "infinite",
        "getAllUserAddresses()": "infinite",
        "getAllUsers()": "infinite",
        "getMyProfile()": "infinite",
        "getUserProfile(address)": "infinite",
        "incrementTotalPosts(address)": "24745",
        "profilePhoto(address)": "infinite",
        "profileUsername(address)": "infinite",
        "profiles(address)": "infinite",
        "updateProfile(string,string,string,string,string)": "infinite",
        "userExists(address)": "2574"
      }
    },
    "methodIdentifiers": {
      "YourProfileUsername(address)": "a4b65d63",
      "allUsers(uint256)": "a2bdedf4",
      "allUsersAddress(uint256)": "9f1953c3",
      "allUsersLength()": "0d28afc7",
      "checkFollower(address,address)": "584b5126",
      "checkUserExist(address)": "926bef63",
      "followUser(address)": "a70806f7",
      "followers(address,address)": "ad88881b",
      "getAllUserAddresses()": "2f330023",
      "getAllUsers()": "e2842d79",
      "getMyProfile()": "21527e50",
      "getUserProfile(address)": "987ee156",
      "incrementTotalPosts(address)": "f847211f",
      "profilePhoto(address)": "fbf31669",
      "profileUsername(address)": "e85befc2",
      "profiles(address)": "bbe15627",
      "updateProfile(string,string,string,string,string)": "b043e032",
      "userExists(address)": "0e666e49"
    }
  },
  "storageLayout": {
    "storage": [
      {
        "astId": 2157,
        "contract": "Profile.sol:SocialProfile",
        "label": "profiles",
        "offset": 0,
        "slot": "0",
        "type": "t_mapping(t_address,t_struct(Profile)2152_storage)"
      },
      {
        "astId": 2161,
        "contract": "Profile.sol:SocialProfile",
        "label": "userExists",
        "offset": 0,
        "slot": "1",
        "type": "t_mapping(t_address,t_bool)"
      },
      {
        "astId": 2167,
        "contract": "Profile.sol:SocialProfile",
        "label": "followers",
        "offset": 0,
        "slot": "2",
        "type": "t_mapping(t_address,t_mapping(t_address,t_bool))"
      },
      {
        "astId": 2170,
        "contract": "Profile.sol:SocialProfile",
        "label": "allUsers",
        "offset": 0,
        "slot": "3",
        "type": "t_array(t_address)dyn_storage"
      }
    ],
    "types": {
      "t_address": {
        "encoding": "inplace",
        "label": "address",
        "numberOfBytes": "20"
      },
      "t_array(t_address)dyn_storage": {
        "base": "t_address",
        "encoding": "dynamic_array",
        "label": "address[]",
        "numberOfBytes": "32"
      },
      "t_bool": {
        "encoding": "inplace",
        "label": "bool",
        "numberOfBytes": "1"
      },
      "t_mapping(t_address,t_bool)": {
        "encoding": "mapping",
        "key": "t_address",
        "label": "mapping(address => bool)",
        "numberOfBytes": "32",
        "value": "t_bool"
      },
      "t_mapping(t_address,t_mapping(t_address,t_bool))": {
        "encoding": "mapping",
        "key": "t_address",
        "label": "mapping(address => mapping(address => bool))",
        "numberOfBytes": "32",
        "value": "t_mapping(t_address,t_bool)"
      },
      "t_mapping(t_address,t_struct(Profile)2152_storage)": {
        "encoding": "mapping",
        "key": "t_address",
        "label": "mapping(address => struct SocialProfile.Profile)",
        "numberOfBytes": "32",
        "value": "t_struct(Profile)2152_storage"
      },
      "t_string_storage": {
        "encoding": "bytes",
        "label": "string",
        "numberOfBytes": "32"
      },
      "t_struct(Profile)2152_storage": {
        "encoding": "inplace",
        "label": "struct SocialProfile.Profile",
        "members": [
          {
            "astId": 2137,
            "contract": "Profile.sol:SocialProfile",
            "label": "username",
            "offset": 0,
            "slot": "0",
            "type": "t_string_storage"
          },
          {
            "astId": 2139,
            "contract": "Profile.sol:SocialProfile",
            "label": "jobDescription",
            "offset": 0,
            "slot": "1",
            "type": "t_string_storage"
          },
          {
            "astId": 2141,
            "contract": "Profile.sol:SocialProfile",
            "label": "location",
            "offset": 0,
            "slot": "2",
            "type": "t_string_storage"
          },
          {
            "astId": 2143,
            "contract": "Profile.sol:SocialProfile",
            "label": "cidProfilePhoto",
            "offset": 0,
            "slot": "3",
            "type": "t_string_storage"
          },
          {
            "astId": 2145,
            "contract": "Profile.sol:SocialProfile",
            "label": "cidBannerPhoto",
            "offset": 0,
            "slot": "4",
            "type": "t_string_storage"
          },
          {
            "astId": 2147,
            "contract": "Profile.sol:SocialProfile",
            "label": "followers",
            "offset": 0,
            "slot": "5",
            "type": "t_uint256"
          },
          {
            "astId": 2149,
            "contract": "Profile.sol:SocialProfile",
            "label": "following",
            "offset": 0,
            "slot": "6",
            "type": "t_uint256"
          },
          {
            "astId": 2151,
            "contract": "Profile.sol:SocialProfile",
            "label": "totalPosts",
            "offset": 0,
            "slot": "7",
            "type": "t_uint256"
          }
        ],
        "numberOfBytes": "256"
      },
      "t_uint256": {
        "encoding": "inplace",
        "label": "uint256",
        "numberOfBytes": "32"
      }
    }
  },
  "userdoc": {
    "kind": "user",
    "methods": {},
    "version": 1
  }
}