{
  "abi": [
    {
      "inputs": [
        {
          "internalType": "address",
          "name": "_socialProfileAddress",
          "type": "address"
        }
      ],
      "stateMutability": "nonpayable",
      "type": "constructor"
    },
    {
      "inputs": [
        {
          "internalType": "uint256",
          "name": "_id",
          "type": "uint256"
        },
        {
          "internalType": "address",
          "name": "_CommentUser",
          "type": "address"
        },
        {
          "internalType": "uint256",
          "name": "_CommentDate",
          "type": "uint256"
        },
        {
          "internalType": "string",
          "name": "_CommentText",
          "type": "string"
        }
      ],
      "name": "Comment",
      "outputs": [],
      "stateMutability": "nonpayable",
      "type": "function"
    },
    {
      "inputs": [
        {
          "internalType": "uint256",
          "name": "_id",
          "type": "uint256"
        },
        {
          "internalType": "uint256",
          "name": "_commentId",
          "type": "uint256"
        }
      ],
      "name": "CommentLike",
      "outputs": [],
      "stateMutability": "nonpayable",
      "type": "function"
    },
    {
      "inputs": [
        {
          "internalType": "uint256",
          "name": "_id",
          "type": "uint256"
        }
      ],
      "name": "PostLike",
      "outputs": [],
      "stateMutability": "nonpayable",
      "type": "function"
    },
    {
      "inputs": [
        {
          "internalType": "uint256",
          "name": "",
          "type": "uint256"
        }
      ],
      "name": "allFolders",
      "outputs": [
        {
          "internalType": "string",
          "name": "",
          "type": "string"
        }
      ],
      "stateMutability": "view",
      "type": "function"
    },
    {
      "inputs": [
        {
          "internalType": "uint256",
          "name": "",
          "type": "uint256"
        },
        {
          "internalType": "uint256",
          "name": "",
          "type": "uint256"
        },
        {
          "internalType": "address",
          "name": "",
          "type": "address"
        }
      ],
      "name": "commentLikes",
      "outputs": [
        {
          "internalType": "bool",
          "name": "",
          "type": "bool"
        }
      ],
      "stateMutability": "view",
      "type": "function"
    },
    {
      "inputs": [
        {
          "internalType": "string",
          "name": "_folderName",
          "type": "string"
        }
      ],
      "name": "createFolder",
      "outputs": [],
      "stateMutability": "nonpayable",
      "type": "function"
    },
    {
      "inputs": [
        {
          "internalType": "address",
          "name": "_user",
          "type": "address"
        },
        {
          "internalType": "string",
          "name": "_caption",
          "type": "string"
        },
        {
          "internalType": "string",
          "name": "_cidPostPicture",
          "type": "string"
        },
        {
          "internalType": "uint256",
          "name": "_date",
          "type": "uint256"
        }
      ],
      "name": "createPost",
      "outputs": [],
      "stateMutability": "nonpayable",
      "type": "function"
    },
    {
      "inputs": [
        {
          "internalType": "uint256",
          "name": "_id",
          "type": "uint256"
        }
      ],
      "name": "donateToPost",
      "outputs": [],
      "stateMutability": "payable",
      "type": "function"
    },
    {
      "inputs": [
        {
          "internalType": "string",
          "name": "_folderName",
          "type": "string"
        }
      ],
      "name": "folderExists",
      "outputs": [
        {
          "internalType": "bool",
          "name": "",
          "type": "bool"
        }
      ],
      "stateMutability": "view",
      "type": "function"
    },
    {
      "inputs": [
        {
          "internalType": "string",
          "name": "",
          "type": "string"
        },
        {
          "internalType": "uint256",
          "name": "",
          "type": "uint256"
        }
      ],
      "name": "folders",
      "outputs": [
        {
          "internalType": "uint256",
          "name": "",
          "type": "uint256"
        }
      ],
      "stateMutability": "view",
      "type": "function"
    },
    {
      "inputs": [],
      "name": "getAllFolders",
      "outputs": [
        {
          "internalType": "string[]",
          "name": "",
          "type": "string[]"
        }
      ],
      "stateMutability": "view",
      "type": "function"
    },
    {
      "inputs": [
        {
          "internalType": "uint256",
          "name": "_postId",
          "type": "uint256"
        },
        {
          "internalType": "uint256",
          "name": "_commentId",
          "type": "uint256"
        }
      ],
      "name": "getCommentLikes",
      "outputs": [
        {
          "internalType": "string[]",
          "name": "",
          "type": "string[]"
        },
        {
          "internalType": "string[]",
          "name": "",
          "type": "string[]"
        },
        {
          "internalType": "address[]",
          "name": "",
          "type": "address[]"
        }
      ],
      "stateMutability": "view",
      "type": "function"
    },
    {
      "inputs": [
        {
          "internalType": "uint256",
          "name": "_postId",
          "type": "uint256"
        }
      ],
      "name": "getCommentersProfilePhotos",
      "outputs": [
        {
          "internalType": "string[]",
          "name": "",
          "type": "string[]"
        }
      ],
      "stateMutability": "view",
      "type": "function"
    },
    {
      "inputs": [],
      "name": "getExplorePage",
      "outputs": [
        {
          "components": [
            {
              "internalType": "address",
              "name": "user",
              "type": "address"
            },
            {
              "internalType": "uint256",
              "name": "postId",
              "type": "uint256"
            },
            {
              "internalType": "string",
              "name": "userName",
              "type": "string"
            },
            {
              "internalType": "string",
              "name": "caption",
              "type": "string"
            },
            {
              "internalType": "string",
              "name": "cidPostPicture",
              "type": "string"
            },
            {
              "internalType": "uint256",
              "name": "date",
              "type": "uint256"
            },
            {
              "internalType": "uint256",
              "name": "likeCount",
              "type": "uint256"
            },
            {
              "internalType": "uint256",
              "name": "totalDonations",
              "type": "uint256"
            },
            {
              "internalType": "address[]",
              "name": "CommentUser",
              "type": "address[]"
            },
            {
              "internalType": "string[]",
              "name": "CommentUserName",
              "type": "string[]"
            },
            {
              "internalType": "uint256[]",
              "name": "CommentDate",
              "type": "uint256[]"
            },
            {
              "internalType": "string[]",
              "name": "CommentText",
              "type": "string[]"
            },
            {
              "internalType": "uint256[]",
              "name": "CommentLikeCount",
              "type": "uint256[]"
            }
          ],
          "internalType": "struct SocialPosts.Post[]",
          "name": "",
          "type": "tuple[]"
        }
      ],
      "stateMutability": "view",
      "type": "function"
    },
    {
      "inputs": [
        {
          "internalType": "address",
          "name": "_address",
          "type": "address"
        }
      ],
      "name": "getHome",
      "outputs": [
        {
          "components": [
            {
              "internalType": "address",
              "name": "user",
              "type": "address"
            },
            {
              "internalType": "uint256",
              "name": "postId",
              "type": "uint256"
            },
            {
              "internalType": "string",
              "name": "userName",
              "type": "string"
            },
            {
              "internalType": "string",
              "name": "caption",
              "type": "string"
            },
            {
              "internalType": "string",
              "name": "cidPostPicture",
              "type": "string"
            },
            {
              "internalType": "uint256",
              "name": "date",
              "type": "uint256"
            },
            {
              "internalType": "uint256",
              "name": "likeCount",
              "type": "uint256"
            },
            {
              "internalType": "uint256",
              "name": "totalDonations",
              "type": "uint256"
            },
            {
              "internalType": "address[]",
              "name": "CommentUser",
              "type": "address[]"
            },
            {
              "internalType": "string[]",
              "name": "CommentUserName",
              "type": "string[]"
            },
            {
              "internalType": "uint256[]",
              "name": "CommentDate",
              "type": "uint256[]"
            },
            {
              "internalType": "string[]",
              "name": "CommentText",
              "type": "string[]"
            },
            {
              "internalType": "uint256[]",
              "name": "CommentLikeCount",
              "type": "uint256[]"
            }
          ],
          "internalType": "struct SocialPosts.Post[]",
          "name": "",
          "type": "tuple[]"
        }
      ],
      "stateMutability": "view",
      "type": "function"
    },
    {
      "inputs": [],
      "name": "getMyPosts",
      "outputs": [
        {
          "components": [
            {
              "internalType": "address",
              "name": "user",
              "type": "address"
            },
            {
              "internalType": "uint256",
              "name": "postId",
              "type": "uint256"
            },
            {
              "internalType": "string",
              "name": "userName",
              "type": "string"
            },
            {
              "internalType": "string",
              "name": "caption",
              "type": "string"
            },
            {
              "internalType": "string",
              "name": "cidPostPicture",
              "type": "string"
            },
            {
              "internalType": "uint256",
              "name": "date",
              "type": "uint256"
            },
            {
              "internalType": "uint256",
              "name": "likeCount",
              "type": "uint256"
            },
            {
              "internalType": "uint256",
              "name": "totalDonations",
              "type": "uint256"
            },
            {
              "internalType": "address[]",
              "name": "CommentUser",
              "type": "address[]"
            },
            {
              "internalType": "string[]",
              "name": "CommentUserName",
              "type": "string[]"
            },
            {
              "internalType": "uint256[]",
              "name": "CommentDate",
              "type": "uint256[]"
            },
            {
              "internalType": "string[]",
              "name": "CommentText",
              "type": "string[]"
            },
            {
              "internalType": "uint256[]",
              "name": "CommentLikeCount",
              "type": "uint256[]"
            }
          ],
          "internalType": "struct SocialPosts.Post[]",
          "name": "",
          "type": "tuple[]"
        }
      ],
      "stateMutability": "view",
      "type": "function"
    },
    {
      "inputs": [
        {
          "internalType": "uint256",
          "name": "_postId",
          "type": "uint256"
        }
      ],
      "name": "getPostById",
      "outputs": [
        {
          "components": [
            {
              "internalType": "address",
              "name": "user",
              "type": "address"
            },
            {
              "internalType": "uint256",
              "name": "postId",
              "type": "uint256"
            },
            {
              "internalType": "string",
              "name": "userName",
              "type": "string"
            },
            {
              "internalType": "string",
              "name": "caption",
              "type": "string"
            },
            {
              "internalType": "string",
              "name": "cidPostPicture",
              "type": "string"
            },
            {
              "internalType": "uint256",
              "name": "date",
              "type": "uint256"
            },
            {
              "internalType": "uint256",
              "name": "likeCount",
              "type": "uint256"
            },
            {
              "internalType": "uint256",
              "name": "totalDonations",
              "type": "uint256"
            },
            {
              "internalType": "address[]",
              "name": "CommentUser",
              "type": "address[]"
            },
            {
              "internalType": "string[]",
              "name": "CommentUserName",
              "type": "string[]"
            },
            {
              "internalType": "uint256[]",
              "name": "CommentDate",
              "type": "uint256[]"
            },
            {
              "internalType": "string[]",
              "name": "CommentText",
              "type": "string[]"
            },
            {
              "internalType": "uint256[]",
              "name": "CommentLikeCount",
              "type": "uint256[]"
            }
          ],
          "internalType": "struct SocialPosts.Post",
          "name": "",
          "type": "tuple"
        }
      ],
      "stateMutability": "view",
      "type": "function"
    },
    {
      "inputs": [
        {
          "internalType": "uint256",
          "name": "_postId",
          "type": "uint256"
        }
      ],
      "name": "getPostLikes",
      "outputs": [
        {
          "internalType": "string[]",
          "name": "",
          "type": "string[]"
        },
        {
          "internalType": "string[]",
          "name": "",
          "type": "string[]"
        },
        {
          "internalType": "address[]",
          "name": "",
          "type": "address[]"
        }
      ],
      "stateMutability": "view",
      "type": "function"
    },
    {
      "inputs": [
        {
          "internalType": "address",
          "name": "_user",
          "type": "address"
        }
      ],
      "name": "getPostsByUser",
      "outputs": [
        {
          "components": [
            {
              "internalType": "address",
              "name": "user",
              "type": "address"
            },
            {
              "internalType": "uint256",
              "name": "postId",
              "type": "uint256"
            },
            {
              "internalType": "string",
              "name": "userName",
              "type": "string"
            },
            {
              "internalType": "string",
              "name": "caption",
              "type": "string"
            },
            {
              "internalType": "string",
              "name": "cidPostPicture",
              "type": "string"
            },
            {
              "internalType": "uint256",
              "name": "date",
              "type": "uint256"
            },
            {
              "internalType": "uint256",
              "name": "likeCount",
              "type": "uint256"
            },
            {
              "internalType": "uint256",
              "name": "totalDonations",
              "type": "uint256"
            },
            {
              "internalType": "address[]",
              "name": "CommentUser",
              "type": "address[]"
            },
            {
              "internalType": "string[]",
              "name": "CommentUserName",
              "type": "string[]"
            },
            {
              "internalType": "uint256[]",
              "name": "CommentDate",
              "type": "uint256[]"
            },
            {
              "internalType": "string[]",
              "name": "CommentText",
              "type": "string[]"
            },
            {
              "internalType": "uint256[]",
              "name": "CommentLikeCount",
              "type": "uint256[]"
            }
          ],
          "internalType": "struct SocialPosts.Post[]",
          "name": "",
          "type": "tuple[]"
        }
      ],
      "stateMutability": "view",
      "type": "function"
    },
    {
      "inputs": [
        {
          "internalType": "string",
          "name": "_folderName",
          "type": "string"
        }
      ],
      "name": "getPostsInFolder",
      "outputs": [
        {
          "components": [
            {
              "internalType": "address",
              "name": "user",
              "type": "address"
            },
            {
              "internalType": "uint256",
              "name": "postId",
              "type": "uint256"
            },
            {
              "internalType": "string",
              "name": "userName",
              "type": "string"
            },
            {
              "internalType": "string",
              "name": "caption",
              "type": "string"
            },
            {
              "internalType": "string",
              "name": "cidPostPicture",
              "type": "string"
            },
            {
              "internalType": "uint256",
              "name": "date",
              "type": "uint256"
            },
            {
              "internalType": "uint256",
              "name": "likeCount",
              "type": "uint256"
            },
            {
              "internalType": "uint256",
              "name": "totalDonations",
              "type": "uint256"
            },
            {
              "internalType": "address[]",
              "name": "CommentUser",
              "type": "address[]"
            },
            {
              "internalType": "string[]",
              "name": "CommentUserName",
              "type": "string[]"
            },
            {
              "internalType": "uint256[]",
              "name": "CommentDate",
              "type": "uint256[]"
            },
            {
              "internalType": "string[]",
              "name": "CommentText",
              "type": "string[]"
            },
            {
              "internalType": "uint256[]",
              "name": "CommentLikeCount",
              "type": "uint256[]"
            }
          ],
          "internalType": "struct SocialPosts.Post[]",
          "name": "",
          "type": "tuple[]"
        }
      ],
      "stateMutability": "view",
      "type": "function"
    },
    {
      "inputs": [
        {
          "internalType": "address[]",
          "name": "users",
          "type": "address[]"
        }
      ],
      "name": "getProfilePictures",
      "outputs": [
        {
          "internalType": "string[]",
          "name": "",
          "type": "string[]"
        }
      ],
      "stateMutability": "view",
      "type": "function"
    },
    {
      "inputs": [
        {
          "internalType": "address",
          "name": "",
          "type": "address"
        },
        {
          "internalType": "uint256",
          "name": "",
          "type": "uint256"
        }
      ],
      "name": "hasUserSavedPost",
      "outputs": [
        {
          "internalType": "bool",
          "name": "",
          "type": "bool"
        }
      ],
      "stateMutability": "view",
      "type": "function"
    },
    {
      "inputs": [],
      "name": "numberOfPosts",
      "outputs": [
        {
          "internalType": "uint256",
          "name": "",
          "type": "uint256"
        }
      ],
      "stateMutability": "view",
      "type": "function"
    },
    {
      "inputs": [
        {
          "internalType": "uint256",
          "name": "",
          "type": "uint256"
        },
        {
          "internalType": "address",
          "name": "",
          "type": "address"
        }
      ],
      "name": "postLikes",
      "outputs": [
        {
          "internalType": "bool",
          "name": "",
          "type": "bool"
        }
      ],
      "stateMutability": "view",
      "type": "function"
    },
    {
      "inputs": [
        {
          "internalType": "uint256",
          "name": "",
          "type": "uint256"
        }
      ],
      "name": "posts",
      "outputs": [
        {
          "internalType": "address",
          "name": "user",
          "type": "address"
        },
        {
          "internalType": "uint256",
          "name": "postId",
          "type": "uint256"
        },
        {
          "internalType": "string",
          "name": "userName",
          "type": "string"
        },
        {
          "internalType": "string",
          "name": "caption",
          "type": "string"
        },
        {
          "internalType": "string",
          "name": "cidPostPicture",
          "type": "string"
        },
        {
          "internalType": "uint256",
          "name": "date",
          "type": "uint256"
        },
        {
          "internalType": "uint256",
          "name": "likeCount",
          "type": "uint256"
        },
        {
          "internalType": "uint256",
          "name": "totalDonations",
          "type": "uint256"
        }
      ],
      "stateMutability": "view",
      "type": "function"
    },
    {
      "inputs": [
        {
          "internalType": "string",
          "name": "_folderName",
          "type": "string"
        },
        {
          "internalType": "uint256",
          "name": "_postId",
          "type": "uint256"
        },
        {
          "internalType": "address",
          "name": "_userAddress",
          "type": "address"
        }
      ],
      "name": "savePostToFolder",
      "outputs": [],
      "stateMutability": "nonpayable",
      "type": "function"
    },
    {
      "inputs": [],
      "name": "socialProfileAddress",
      "outputs": [
        {
          "internalType": "address",
          "name": "",
          "type": "address"
        }
      ],
      "stateMutability": "view",
      "type": "function"
    },
    {
      "inputs": [
        {
          "internalType": "address",
          "name": "",
          "type": "address"
        },
        {
          "internalType": "uint256",
          "name": "",
          "type": "uint256"
        }
      ],
      "name": "userPosts",
      "outputs": [
        {
          "internalType": "uint256",
          "name": "",
          "type": "uint256"
        }
      ],
      "stateMutability": "view",
      "type": "function"
    }
  ],
  "devdoc": {
    "kind": "dev",
    "methods": {},
    "version": 1
  },
  "evm": {
    "assembly": "    /* \"Post.sol\":89:14254  contract SocialPosts {... */\n  mstore(0x40, 0x80)\n    /* \"Post.sol\":998:999  0 */\n  0x00\n    /* \"Post.sol\":967:999  uint256 public numberOfPosts = 0 */\n  0x07\n  sstore\n    /* \"Post.sol\":1067:1171  constructor(address _socialProfileAddress) {... */\n  callvalue\n  dup1\n  iszero\n  tag_1\n  jumpi\n  0x00\n  dup1\n  revert\ntag_1:\n  pop\n  mload(0x40)\n  sub(codesize, bytecodeSize)\n  dup1\n  bytecodeSize\n  dup4\n  codecopy\n  dup2\n  add\n  0x40\n  dup2\n  swap1\n  mstore\n  tag_2\n  swap2\n  tag_3\n  jump\t// in\ntag_2:\n    /* \"Post.sol\":1120:1140  socialProfileAddress */\n  0x08\n    /* \"Post.sol\":1120:1164  socialProfileAddress = _socialProfileAddress */\n  dup1\n  sload\n  not(sub(shl(0xa0, 0x01), 0x01))\n  and\n  sub(shl(0xa0, 0x01), 0x01)\n  swap3\n  swap1\n  swap3\n  and\n  swap2\n  swap1\n  swap2\n  or\n  swap1\n  sstore\n    /* \"Post.sol\":89:14254  contract SocialPosts {... */\n  jump(tag_7)\n    /* \"#utility.yul\":14:304   */\ntag_3:\n    /* \"#utility.yul\":84:90   */\n  0x00\n    /* \"#utility.yul\":137:139   */\n  0x20\n    /* \"#utility.yul\":125:134   */\n  dup3\n    /* \"#utility.yul\":116:123   */\n  dup5\n    /* \"#utility.yul\":112:135   */\n  sub\n    /* \"#utility.yul\":108:140   */\n  slt\n    /* \"#utility.yul\":105:157   */\n  iszero\n  tag_9\n  jumpi\n    /* \"#utility.yul\":153:154   */\n  0x00\n    /* \"#utility.yul\":150:151   */\n  dup1\n    /* \"#utility.yul\":143:155   */\n  revert\n    /* \"#utility.yul\":105:157   */\ntag_9:\n    /* \"#utility.yul\":179:195   */\n  dup2\n  mload\n  sub(shl(0xa0, 0x01), 0x01)\n    /* \"#utility.yul\":224:255   */\n  dup2\n  and\n    /* \"#utility.yul\":214:256   */\n  dup2\n  eq\n    /* \"#utility.yul\":204:274   */\n  tag_10\n  jumpi\n    /* \"#utility.yul\":270:271   */\n  0x00\n    /* \"#utility.yul\":267:268   */\n  dup1\n    /* \"#utility.yul\":260:272   */\n  revert\n    /* \"#utility.yul\":204:274   */\ntag_10:\n    /* \"#utility.yul\":293:298   */\n  swap4\n    /* \"#utility.yul\":14:304   */\n  swap3\n  pop\n  pop\n  pop\n  jump\t// out\ntag_7:\n    /* \"Post.sol\":89:14254  contract SocialPosts {... */\n  dataSize(sub_0)\n  dup1\n  dataOffset(sub_0)\n  0x00\n  codecopy\n  0x00\n  return\nstop\n\nsub_0: assembly {\n        /* \"Post.sol\":89:14254  contract SocialPosts {... */\n      mstore(0x40, 0x80)\n      jumpi(tag_1, lt(calldatasize, 0x04))\n      shr(0xe0, calldataload(0x00))\n      dup1\n      0x7a9a33f3\n      gt\n      tag_30\n      jumpi\n      dup1\n      0xb68603b6\n      gt\n      tag_31\n      jumpi\n      dup1\n      0xd9524ee4\n      gt\n      tag_32\n      jumpi\n      dup1\n      0xd9524ee4\n      eq\n      tag_26\n      jumpi\n      dup1\n      0xdb700dee\n      eq\n      tag_27\n      jumpi\n      dup1\n      0xe3a29428\n      eq\n      tag_28\n      jumpi\n      dup1\n      0xeceeca66\n      eq\n      tag_29\n      jumpi\n      0x00\n      dup1\n      revert\n    tag_32:\n      dup1\n      0xb68603b6\n      eq\n      tag_23\n      jumpi\n      dup1\n      0xc992c114\n      eq\n      tag_24\n      jumpi\n      dup1\n      0xca1f0cad\n      eq\n      tag_25\n      jumpi\n      0x00\n      dup1\n      revert\n    tag_31:\n      dup1\n      0x86b605cb\n      gt\n      tag_33\n      jumpi\n      dup1\n      0x86b605cb\n      eq\n      tag_19\n      jumpi\n      dup1\n      0x901c9a5d\n      eq\n      tag_20\n      jumpi\n      dup1\n      0xa008e715\n      eq\n      tag_21\n      jumpi\n      dup1\n      0xb0b2671d\n      eq\n      tag_22\n      jumpi\n      0x00\n      dup1\n      revert\n    tag_33:\n      dup1\n      0x7a9a33f3\n      eq\n      tag_16\n      jumpi\n      dup1\n      0x7c64cff1\n      eq\n      tag_17\n      jumpi\n      dup1\n      0x8064d149\n      eq\n      tag_18\n      jumpi\n      0x00\n      dup1\n      revert\n    tag_30:\n      dup1\n      0x57ce0675\n      gt\n      tag_34\n      jumpi\n      dup1\n      0x64b09ec3\n      gt\n      tag_35\n      jumpi\n      dup1\n      0x64b09ec3\n      eq\n      tag_12\n      jumpi\n      dup1\n      0x64e95895\n      eq\n      tag_13\n      jumpi\n      dup1\n      0x702d3ebb\n      eq\n      tag_14\n      jumpi\n      dup1\n      0x7a8f102f\n      eq\n      tag_15\n      jumpi\n      0x00\n      dup1\n      revert\n    tag_35:\n      dup1\n      0x57ce0675\n      eq\n      tag_9\n      jumpi\n      dup1\n      0x5950eb5b\n      eq\n      tag_10\n      jumpi\n      dup1\n      0x5d29a742\n      eq\n      tag_11\n      jumpi\n      0x00\n      dup1\n      revert\n    tag_34:\n      dup1\n      0x3251e563\n      gt\n      tag_36\n      jumpi\n      dup1\n      0x3251e563\n      eq\n      tag_5\n      jumpi\n      dup1\n      0x36e23f4c\n      eq\n      tag_6\n      jumpi\n      dup1\n      0x485cef06\n      eq\n      tag_7\n      jumpi\n      dup1\n      0x51be0fca\n      eq\n      tag_8\n      jumpi\n      0x00\n      dup1\n      revert\n    tag_36:\n      dup1\n      0x0931ef4c\n      eq\n      tag_2\n      jumpi\n      dup1\n      0x0b1e7f83\n      eq\n      tag_3\n      jumpi\n      dup1\n      0x28538949\n      eq\n      tag_4\n      jumpi\n    tag_1:\n      0x00\n      dup1\n      revert\n        /* \"Post.sol\":734:777  mapping(string => uint256[]) public folders */\n    tag_2:\n      callvalue\n      dup1\n      iszero\n      tag_37\n      jumpi\n      0x00\n      dup1\n      revert\n    tag_37:\n      pop\n      tag_38\n      tag_39\n      calldatasize\n      0x04\n      tag_40\n      jump\t// in\n    tag_39:\n      tag_41\n      jump\t// in\n    tag_38:\n      mload(0x40)\n        /* \"#utility.yul\":1628:1653   */\n      swap1\n      dup2\n      mstore\n        /* \"#utility.yul\":1616:1618   */\n      0x20\n        /* \"#utility.yul\":1601:1619   */\n      add\n        /* \"Post.sol\":734:777  mapping(string => uint256[]) public folders */\n    tag_42:\n      mload(0x40)\n      dup1\n      swap2\n      sub\n      swap1\n      return\n        /* \"Post.sol\":526:563  mapping(uint256 => Post) public posts */\n    tag_3:\n      callvalue\n      dup1\n      iszero\n      tag_44\n      jumpi\n      0x00\n      dup1\n      revert\n    tag_44:\n      pop\n      tag_45\n      tag_46\n      calldatasize\n      0x04\n      tag_47\n      jump\t// in\n    tag_46:\n      tag_48\n      jump\t// in\n    tag_45:\n      mload(0x40)\n      tag_42\n      swap9\n      swap8\n      swap7\n      swap6\n      swap5\n      swap4\n      swap3\n      swap2\n      swap1\n      tag_50\n      jump\t// in\n        /* \"Post.sol\":7499:8525  function getPostsByUser(address _user) public view returns (Post[] memory) {... */\n    tag_4:\n      callvalue\n      dup1\n      iszero\n      tag_51\n      jumpi\n      0x00\n      dup1\n      revert\n    tag_51:\n      pop\n      tag_52\n      tag_53\n      calldatasize\n      0x04\n      tag_54\n      jump\t// in\n    tag_53:\n      tag_55\n      jump\t// in\n    tag_52:\n      mload(0x40)\n      tag_42\n      swap2\n      swap1\n      tag_57\n      jump\t// in\n        /* \"Post.sol\":935:961  string[] public allFolders */\n    tag_5:\n      callvalue\n      dup1\n      iszero\n      tag_58\n      jumpi\n      0x00\n      dup1\n      revert\n    tag_58:\n      pop\n      tag_59\n      tag_60\n      calldatasize\n      0x04\n      tag_47\n      jump\t// in\n    tag_60:\n      tag_61\n      jump\t// in\n    tag_59:\n      mload(0x40)\n      tag_42\n      swap2\n      swap1\n      tag_63\n      jump\t// in\n        /* \"Post.sol\":3431:3959  function CommentLike(uint256 _id, uint256 _commentId) public {... */\n    tag_6:\n      callvalue\n      dup1\n      iszero\n      tag_64\n      jumpi\n      0x00\n      dup1\n      revert\n    tag_64:\n      pop\n      tag_65\n      tag_66\n      calldatasize\n      0x04\n      tag_67\n      jump\t// in\n    tag_66:\n      tag_68\n      jump\t// in\n    tag_65:\n      stop\n        /* \"Post.sol\":11098:11525  function getProfilePictures(address[] memory users)... */\n    tag_7:\n      callvalue\n      dup1\n      iszero\n      tag_69\n      jumpi\n      0x00\n      dup1\n      revert\n    tag_69:\n      pop\n      tag_70\n      tag_71\n      calldatasize\n      0x04\n      tag_72\n      jump\t// in\n    tag_71:\n      tag_73\n      jump\t// in\n    tag_70:\n      mload(0x40)\n      tag_42\n      swap2\n      swap1\n      tag_75\n      jump\t// in\n        /* \"Post.sol\":3049:3381  function PostLike(uint256 _id) public {... */\n    tag_8:\n      callvalue\n      dup1\n      iszero\n      tag_76\n      jumpi\n      0x00\n      dup1\n      revert\n    tag_76:\n      pop\n      tag_65\n      tag_78\n      calldatasize\n      0x04\n      tag_47\n      jump\t// in\n    tag_78:\n      tag_79\n      jump\t// in\n        /* \"Post.sol\":783:851  mapping(address => mapping(uint256 => bool)) public hasUserSavedPost */\n    tag_9:\n      callvalue\n      dup1\n      iszero\n      tag_80\n      jumpi\n      0x00\n      dup1\n      revert\n    tag_80:\n      pop\n      tag_81\n      tag_82\n      calldatasize\n      0x04\n      tag_83\n      jump\t// in\n    tag_82:\n      0x04\n      0x20\n      swap1\n      dup2\n      mstore\n      0x00\n      swap3\n      dup4\n      mstore\n      0x40\n      dup1\n      dup5\n      keccak256\n      swap1\n      swap2\n      mstore\n      swap1\n      dup3\n      mstore\n      swap1\n      keccak256\n      sload\n      0xff\n      and\n      dup2\n      jump\n    tag_81:\n      mload(0x40)\n        /* \"#utility.yul\":10794:10808   */\n      swap1\n      iszero\n        /* \"#utility.yul\":10787:10809   */\n      iszero\n        /* \"#utility.yul\":10769:10810   */\n      dup2\n      mstore\n        /* \"#utility.yul\":10757:10759   */\n      0x20\n        /* \"#utility.yul\":10742:10760   */\n      add\n        /* \"Post.sol\":783:851  mapping(address => mapping(uint256 => bool)) public hasUserSavedPost */\n      tag_42\n        /* \"#utility.yul\":10629:10816   */\n      jump\n        /* \"Post.sol\":8602:8710  function getMyPosts() public view returns (Post[] memory) {... */\n    tag_10:\n      callvalue\n      dup1\n      iszero\n      tag_87\n      jumpi\n      0x00\n      dup1\n      revert\n    tag_87:\n      pop\n      tag_52\n      tag_89\n      jump\t// in\n        /* \"Post.sol\":5590:6619  function getPostsInFolder(string memory _folderName)... */\n    tag_11:\n      callvalue\n      dup1\n      iszero\n      tag_91\n      jumpi\n      0x00\n      dup1\n      revert\n    tag_91:\n      pop\n      tag_52\n      tag_93\n      calldatasize\n      0x04\n      tag_94\n      jump\t// in\n    tag_93:\n      tag_95\n      jump\t// in\n        /* \"Post.sol\":4045:4949  function getExplorePage() public view returns (Post[] memory) {... */\n    tag_12:\n      callvalue\n      dup1\n      iszero\n      tag_97\n      jumpi\n      0x00\n      dup1\n      revert\n    tag_97:\n      pop\n      tag_52\n      tag_99\n      jump\t// in\n        /* \"Post.sol\":14077:14252  function getPostById(uint256 _postId) public view returns (Post memory) {... */\n    tag_13:\n      callvalue\n      dup1\n      iszero\n      tag_101\n      jumpi\n      0x00\n      dup1\n      revert\n    tag_101:\n      pop\n      tag_102\n      tag_103\n      calldatasize\n      0x04\n      tag_47\n      jump\t// in\n    tag_103:\n      tag_104\n      jump\t// in\n    tag_102:\n      mload(0x40)\n      tag_42\n      swap2\n      swap1\n      tag_106\n      jump\t// in\n        /* \"Post.sol\":1005:1040  address public socialProfileAddress */\n    tag_14:\n      callvalue\n      dup1\n      iszero\n      tag_107\n      jumpi\n      0x00\n      dup1\n      revert\n    tag_107:\n      pop\n      sload(0x08)\n      tag_108\n      swap1\n      sub(shl(0xa0, 0x01), 0x01)\n      and\n      dup2\n      jump\n    tag_108:\n      mload(0x40)\n      sub(shl(0xa0, 0x01), 0x01)\n        /* \"#utility.yul\":11564:11619   */\n      swap1\n      swap2\n      and\n        /* \"#utility.yul\":11546:11620   */\n      dup2\n      mstore\n        /* \"#utility.yul\":11534:11536   */\n      0x20\n        /* \"#utility.yul\":11519:11537   */\n      add\n        /* \"Post.sol\":1005:1040  address public socialProfileAddress */\n      tag_42\n        /* \"#utility.yul\":11400:11626   */\n      jump\n        /* \"Post.sol\":7318:7415  function getAllFolders() public view returns (string[] memory) {... */\n    tag_15:\n      callvalue\n      dup1\n      iszero\n      tag_112\n      jumpi\n      0x00\n      dup1\n      revert\n    tag_112:\n      pop\n      tag_70\n      tag_114\n      jump\t// in\n        /* \"Post.sol\":8806:10312  function getHome(address _address) public view returns (Post[] memory) {... */\n    tag_16:\n      callvalue\n      dup1\n      iszero\n      tag_116\n      jumpi\n      0x00\n      dup1\n      revert\n    tag_116:\n      pop\n      tag_52\n      tag_118\n      calldatasize\n      0x04\n      tag_54\n      jump\t// in\n    tag_118:\n      tag_119\n      jump\t// in\n        /* \"Post.sol\":1232:1925  function createPost(... */\n    tag_17:\n      callvalue\n      dup1\n      iszero\n      tag_121\n      jumpi\n      0x00\n      dup1\n      revert\n    tag_121:\n      pop\n      tag_65\n      tag_123\n      calldatasize\n      0x04\n      tag_124\n      jump\t// in\n    tag_123:\n      tag_125\n      jump\t// in\n        /* \"Post.sol\":857:903  mapping(address => uint256[]) public userPosts */\n    tag_18:\n      callvalue\n      dup1\n      iszero\n      tag_126\n      jumpi\n      0x00\n      dup1\n      revert\n    tag_126:\n      pop\n      tag_38\n      tag_128\n      calldatasize\n      0x04\n      tag_83\n      jump\t// in\n    tag_128:\n      tag_129\n      jump\t// in\n        /* \"Post.sol\":6905:7263  function folderExists(string memory _folderName)... */\n    tag_19:\n      callvalue\n      dup1\n      iszero\n      tag_131\n      jumpi\n      0x00\n      dup1\n      revert\n    tag_131:\n      pop\n      tag_81\n      tag_133\n      calldatasize\n      0x04\n      tag_94\n      jump\t// in\n    tag_133:\n      tag_134\n      jump\t// in\n        /* \"Post.sol\":10380:11030  function getCommentersProfilePhotos(uint256 _postId)... */\n    tag_20:\n      callvalue\n      dup1\n      iszero\n      tag_136\n      jumpi\n      0x00\n      dup1\n      revert\n    tag_136:\n      pop\n      tag_70\n      tag_138\n      calldatasize\n      0x04\n      tag_47\n      jump\t// in\n    tag_138:\n      tag_139\n      jump\t// in\n        /* \"Post.sol\":636:728  mapping(uint256 => mapping(uint256 => mapping(address => bool)))... */\n    tag_21:\n      callvalue\n      dup1\n      iszero\n      tag_141\n      jumpi\n      0x00\n      dup1\n      revert\n    tag_141:\n      pop\n      tag_81\n      tag_143\n      calldatasize\n      0x04\n      tag_144\n      jump\t// in\n    tag_143:\n      0x02\n      0x20\n      swap1\n      dup2\n      mstore\n      0x00\n      swap4\n      dup5\n      mstore\n      0x40\n      dup1\n      dup6\n      keccak256\n      dup3\n      mstore\n      swap3\n      dup5\n      mstore\n      dup3\n      dup5\n      keccak256\n      swap1\n      mstore\n      dup3\n      mstore\n      swap1\n      keccak256\n      sload\n      0xff\n      and\n      dup2\n      jump\n        /* \"Post.sol\":11596:12704  function getPostLikes(uint256 _postId)... */\n    tag_22:\n      callvalue\n      dup1\n      iszero\n      tag_147\n      jumpi\n      0x00\n      dup1\n      revert\n    tag_147:\n      pop\n      tag_148\n      tag_149\n      calldatasize\n      0x04\n      tag_47\n      jump\t// in\n    tag_149:\n      tag_150\n      jump\t// in\n    tag_148:\n      mload(0x40)\n      tag_42\n      swap4\n      swap3\n      swap2\n      swap1\n      tag_152\n      jump\t// in\n        /* \"Post.sol\":1967:2390  function donateToPost(uint256 _id) public payable {... */\n    tag_23:\n      tag_65\n      tag_154\n      calldatasize\n      0x04\n      tag_47\n      jump\t// in\n    tag_154:\n      tag_155\n      jump\t// in\n        /* \"Post.sol\":6674:6845  function createFolder(string memory _folderName) public {... */\n    tag_24:\n      callvalue\n      dup1\n      iszero\n      tag_156\n      jumpi\n      0x00\n      dup1\n      revert\n    tag_156:\n      pop\n      tag_65\n      tag_158\n      calldatasize\n      0x04\n      tag_94\n      jump\t// in\n    tag_158:\n      tag_159\n      jump\t// in\n        /* \"Post.sol\":569:630  mapping(uint256 => mapping(address => bool)) public postLikes */\n    tag_25:\n      callvalue\n      dup1\n      iszero\n      tag_160\n      jumpi\n      0x00\n      dup1\n      revert\n    tag_160:\n      pop\n      tag_81\n      tag_162\n      calldatasize\n      0x04\n      tag_163\n      jump\t// in\n    tag_162:\n      0x01\n      0x20\n      swap1\n      dup2\n      mstore\n      0x00\n      swap3\n      dup4\n      mstore\n      0x40\n      dup1\n      dup5\n      keccak256\n      swap1\n      swap2\n      mstore\n      swap1\n      dup3\n      mstore\n      swap1\n      keccak256\n      sload\n      0xff\n      and\n      dup2\n      jump\n        /* \"Post.sol\":967:999  uint256 public numberOfPosts = 0 */\n    tag_26:\n      callvalue\n      dup1\n      iszero\n      tag_166\n      jumpi\n      0x00\n      dup1\n      revert\n    tag_166:\n      pop\n      tag_38\n      sload(0x07)\n      dup2\n      jump\n        /* \"Post.sol\":2443:3002  function Comment(... */\n    tag_27:\n      callvalue\n      dup1\n      iszero\n      tag_170\n      jumpi\n      0x00\n      dup1\n      revert\n    tag_170:\n      pop\n      tag_65\n      tag_172\n      calldatasize\n      0x04\n      tag_173\n      jump\t// in\n    tag_172:\n      tag_174\n      jump\t// in\n        /* \"Post.sol\":5011:5518  function savePostToFolder(... */\n    tag_28:\n      callvalue\n      dup1\n      iszero\n      tag_175\n      jumpi\n      0x00\n      dup1\n      revert\n    tag_175:\n      pop\n      tag_65\n      tag_177\n      calldatasize\n      0x04\n      tag_178\n      jump\t// in\n    tag_177:\n      tag_179\n      jump\t// in\n        /* \"Post.sol\":12781:14071  function getCommentLikes(uint256 _postId, uint256 _commentId)... */\n    tag_29:\n      callvalue\n      dup1\n      iszero\n      tag_180\n      jumpi\n      0x00\n      dup1\n      revert\n    tag_180:\n      pop\n      tag_148\n      tag_182\n      calldatasize\n      0x04\n      tag_67\n      jump\t// in\n    tag_182:\n      tag_183\n      jump\t// in\n        /* \"Post.sol\":734:777  mapping(string => uint256[]) public folders */\n    tag_41:\n      dup2\n      mload\n      0x20\n      dup2\n      dup5\n      add\n      dup2\n      add\n      dup1\n      mload\n      0x03\n      dup3\n      mstore\n      swap3\n      dup3\n      add\n      swap2\n      dup6\n      add\n      swap2\n      swap1\n      swap2\n      keccak256\n      swap2\n      swap1\n      mstore\n      dup1\n      sload\n      dup3\n      swap1\n      dup2\n      lt\n      tag_185\n      jumpi\n      0x00\n      dup1\n      revert\n    tag_185:\n      swap1\n      0x00\n      mstore\n      keccak256(0x00, 0x20)\n      add\n      0x00\n      swap2\n      pop\n      swap2\n      pop\n      pop\n      sload\n      dup2\n      jump\t// out\n        /* \"Post.sol\":526:563  mapping(uint256 => Post) public posts */\n    tag_48:\n      0x00\n      0x20\n      dup2\n      swap1\n      mstore\n      swap1\n      dup2\n      mstore\n      0x40\n      swap1\n      keccak256\n      dup1\n      sload\n      0x01\n      dup3\n      add\n      sload\n      0x02\n      dup4\n      add\n      dup1\n      sload\n      sub(shl(0xa0, 0x01), 0x01)\n      swap1\n      swap4\n      and\n      swap4\n      swap2\n      swap3\n      tag_187\n      swap1\n      tag_188\n      jump\t// in\n    tag_187:\n      dup1\n      0x1f\n      add\n      0x20\n      dup1\n      swap2\n      div\n      mul\n      0x20\n      add\n      mload(0x40)\n      swap1\n      dup2\n      add\n      0x40\n      mstore\n      dup1\n      swap3\n      swap2\n      swap1\n      dup2\n      dup2\n      mstore\n      0x20\n      add\n      dup3\n      dup1\n      sload\n      tag_189\n      swap1\n      tag_188\n      jump\t// in\n    tag_189:\n      dup1\n      iszero\n      tag_190\n      jumpi\n      dup1\n      0x1f\n      lt\n      tag_191\n      jumpi\n      0x0100\n      dup1\n      dup4\n      sload\n      div\n      mul\n      dup4\n      mstore\n      swap2\n      0x20\n      add\n      swap2\n      jump(tag_190)\n    tag_191:\n      dup3\n      add\n      swap2\n      swap1\n      0x00\n      mstore\n      keccak256(0x00, 0x20)\n      swap1\n    tag_192:\n      dup2\n      sload\n      dup2\n      mstore\n      swap1\n      0x01\n      add\n      swap1\n      0x20\n      add\n      dup1\n      dup4\n      gt\n      tag_192\n      jumpi\n      dup3\n      swap1\n      sub\n      0x1f\n      and\n      dup3\n      add\n      swap2\n    tag_190:\n      pop\n      pop\n      pop\n      pop\n      pop\n      swap1\n      dup1\n      0x03\n      add\n      dup1\n      sload\n      tag_193\n      swap1\n      tag_188\n      jump\t// in\n    tag_193:\n      dup1\n      0x1f\n      add\n      0x20\n      dup1\n      swap2\n      div\n      mul\n      0x20\n      add\n      mload(0x40)\n      swap1\n      dup2\n      add\n      0x40\n      mstore\n      dup1\n      swap3\n      swap2\n      swap1\n      dup2\n      dup2\n      mstore\n      0x20\n      add\n      dup3\n      dup1\n      sload\n      tag_194\n      swap1\n      tag_188\n      jump\t// in\n    tag_194:\n      dup1\n      iszero\n      tag_195\n      jumpi\n      dup1\n      0x1f\n      lt\n      tag_196\n      jumpi\n      0x0100\n      dup1\n      dup4\n      sload\n      div\n      mul\n      dup4\n      mstore\n      swap2\n      0x20\n      add\n      swap2\n      jump(tag_195)\n    tag_196:\n      dup3\n      add\n      swap2\n      swap1\n      0x00\n      mstore\n      keccak256(0x00, 0x20)\n      swap1\n    tag_197:\n      dup2\n      sload\n      dup2\n      mstore\n      swap1\n      0x01\n      add\n      swap1\n      0x20\n      add\n      dup1\n      dup4\n      gt\n      tag_197\n      jumpi\n      dup3\n      swap1\n      sub\n      0x1f\n      and\n      dup3\n      add\n      swap2\n    tag_195:\n      pop\n      pop\n      pop\n      pop\n      pop\n      swap1\n      dup1\n      0x04\n      add\n      dup1\n      sload\n      tag_198\n      swap1\n      tag_188\n      jump\t// in\n    tag_198:\n      dup1\n      0x1f\n      add\n      0x20\n      dup1\n      swap2\n      div\n      mul\n      0x20\n      add\n      mload(0x40)\n      swap1\n      dup2\n      add\n      0x40\n      mstore\n      dup1\n      swap3\n      swap2\n      swap1\n      dup2\n      dup2\n      mstore\n      0x20\n      add\n      dup3\n      dup1\n      sload\n      tag_199\n      swap1\n      tag_188\n      jump\t// in\n    tag_199:\n      dup1\n      iszero\n      tag_200\n      jumpi\n      dup1\n      0x1f\n      lt\n      tag_201\n      jumpi\n      0x0100\n      dup1\n      dup4\n      sload\n      div\n      mul\n      dup4\n      mstore\n      swap2\n      0x20\n      add\n      swap2\n      jump(tag_200)\n    tag_201:\n      dup3\n      add\n      swap2\n      swap1\n      0x00\n      mstore\n      keccak256(0x00, 0x20)\n      swap1\n    tag_202:\n      dup2\n      sload\n      dup2\n      mstore\n      swap1\n      0x01\n      add\n      swap1\n      0x20\n      add\n      dup1\n      dup4\n      gt\n      tag_202\n      jumpi\n      dup3\n      swap1\n      sub\n      0x1f\n      and\n      dup3\n      add\n      swap2\n    tag_200:\n      pop\n      pop\n      pop\n      pop\n      pop\n      swap1\n      dup1\n      0x05\n      add\n      sload\n      swap1\n      dup1\n      0x06\n      add\n      sload\n      swap1\n      dup1\n      0x07\n      add\n      sload\n      swap1\n      pop\n      dup9\n      jump\t// out\n        /* \"Post.sol\":7499:8525  function getPostsByUser(address _user) public view returns (Post[] memory) {... */\n    tag_55:\n      sub(shl(0xa0, 0x01), 0x01)\n        /* \"Post.sol\":7611:7627  userPosts[_user] */\n      dup2\n      and\n        /* \"Post.sol\":7584:7608  uint256[] memory postIds */\n      0x00\n        /* \"Post.sol\":7611:7627  userPosts[_user] */\n      swap1\n      dup2\n      mstore\n        /* \"Post.sol\":7611:7620  userPosts */\n      0x05\n        /* \"Post.sol\":7611:7627  userPosts[_user] */\n      0x20\n      swap1\n      dup2\n      mstore\n      0x40\n      dup1\n      dup4\n      keccak256\n        /* \"Post.sol\":7584:7627  uint256[] memory postIds = userPosts[_user] */\n      dup1\n      sload\n      dup3\n      mload\n      dup2\n      dup6\n      mul\n      dup2\n      add\n      dup6\n      add\n      swap1\n      swap4\n      mstore\n      dup1\n      dup4\n      mstore\n        /* \"Post.sol\":7559:7572  Post[] memory */\n      0x60\n      swap5\n        /* \"Post.sol\":7584:7608  uint256[] memory postIds */\n      swap4\n        /* \"Post.sol\":7584:7627  uint256[] memory postIds = userPosts[_user] */\n      dup4\n      add\n        /* \"Post.sol\":7611:7627  userPosts[_user] */\n      dup3\n        /* \"Post.sol\":7584:7627  uint256[] memory postIds = userPosts[_user] */\n      dup3\n      dup1\n      iszero\n      tag_204\n      jumpi\n      0x20\n      mul\n      dup3\n      add\n      swap2\n      swap1\n      0x00\n      mstore\n      keccak256(0x00, 0x20)\n      swap1\n    tag_205:\n      dup2\n      sload\n      dup2\n      mstore\n      0x20\n      add\n      swap1\n      0x01\n      add\n      swap1\n      dup1\n      dup4\n      gt\n      tag_205\n      jumpi\n    tag_204:\n      pop\n      pop\n      pop\n      pop\n      pop\n      swap1\n      pop\n        /* \"Post.sol\":7637:7665  Post[] memory userPostsArray */\n      0x00\n        /* \"Post.sol\":7679:7686  postIds */\n      dup2\n        /* \"Post.sol\":7679:7693  postIds.length */\n      mload\n        /* \"Post.sol\":7668:7694  new Post[](postIds.length) */\n      0xffffffffffffffff\n      dup2\n      gt\n      iszero\n      tag_207\n      jumpi\n      tag_207\n      tag_208\n      jump\t// in\n    tag_207:\n      mload(0x40)\n      swap1\n      dup1\n      dup3\n      mstore\n      dup1\n      0x20\n      mul\n      0x20\n      add\n      dup3\n      add\n      0x40\n      mstore\n      dup1\n      iszero\n      tag_209\n      jumpi\n      dup2\n      0x20\n      add\n    tag_210:\n      tag_211\n      mload(0x40)\n      dup1\n      0x01a0\n      add\n      0x40\n      mstore\n      dup1\n      and(sub(shl(0xa0, 0x01), 0x01), 0x00)\n      dup2\n      mstore\n      0x20\n      add\n      0x00\n      dup2\n      mstore\n      0x20\n      add\n      0x60\n      dup2\n      mstore\n      0x20\n      add\n      0x60\n      dup2\n      mstore\n      0x20\n      add\n      0x60\n      dup2\n      mstore\n      0x20\n      add\n      0x00\n      dup2\n      mstore\n      0x20\n      add\n      0x00\n      dup2\n      mstore\n      0x20\n      add\n      0x00\n      dup2\n      mstore\n      0x20\n      add\n      0x60\n      dup2\n      mstore\n      0x20\n      add\n      0x60\n      dup2\n      mstore\n      0x20\n      add\n      0x60\n      dup2\n      mstore\n      0x20\n      add\n      0x60\n      dup2\n      mstore\n      0x20\n      add\n      0x60\n      dup2\n      mstore\n      pop\n      swap1\n      jump\n    tag_211:\n      dup2\n      mstore\n      0x20\n      add\n      swap1\n      0x01\n      swap1\n      sub\n      swap1\n      dup2\n      tag_210\n      jumpi\n      swap1\n      pop\n    tag_209:\n      pop\n        /* \"Post.sol\":7637:7694  Post[] memory userPostsArray = new Post[](postIds.length) */\n      swap1\n      pop\n        /* \"Post.sol\":7710:7719  uint256 i */\n      0x00\n        /* \"Post.sol\":7705:8487  for (uint256 i = 0; i < postIds.length; i++) {... */\n    tag_213:\n        /* \"Post.sol\":7729:7736  postIds */\n      dup3\n        /* \"Post.sol\":7729:7743  postIds.length */\n      mload\n        /* \"Post.sol\":7725:7726  i */\n      dup2\n        /* \"Post.sol\":7725:7743  i < postIds.length */\n      lt\n        /* \"Post.sol\":7705:8487  for (uint256 i = 0; i < postIds.length; i++) {... */\n      iszero\n      tag_214\n      jumpi\n        /* \"Post.sol\":7764:7781  Post storage post */\n      0x00\n        /* \"Post.sol\":7784:7789  posts */\n      dup1\n        /* \"Post.sol\":7784:7801  posts[postIds[i]] */\n      0x00\n        /* \"Post.sol\":7790:7797  postIds */\n      dup6\n        /* \"Post.sol\":7798:7799  i */\n      dup5\n        /* \"Post.sol\":7790:7800  postIds[i] */\n      dup2\n      mload\n      dup2\n      lt\n      tag_217\n      jumpi\n      tag_217\n      tag_218\n      jump\t// in\n    tag_217:\n      0x20\n      mul\n      0x20\n      add\n      add\n      mload\n        /* \"Post.sol\":7784:7801  posts[postIds[i]] */\n      dup2\n      mstore\n      0x20\n      add\n      swap1\n      dup2\n      mstore\n      0x20\n      add\n      0x00\n      keccak256\n        /* \"Post.sol\":7764:7801  Post storage post = posts[postIds[i]] */\n      swap1\n      pop\n        /* \"Post.sol\":7871:8476  Post({... */\n      mload(0x40)\n      dup1\n      0x01a0\n      add\n      0x40\n      mstore\n      dup1\n        /* \"Post.sol\":7900:7904  post */\n      dup3\n        /* \"Post.sol\":7900:7909  post.user */\n      0x00\n      add\n      0x00\n      swap1\n      sload\n      swap1\n      0x0100\n      exp\n      swap1\n      div\n      sub(shl(0xa0, 0x01), 0x01)\n      and\n      sub(shl(0xa0, 0x01), 0x01)\n        /* \"Post.sol\":7871:8476  Post({... */\n      and\n      dup2\n      mstore\n      0x20\n      add\n        /* \"Post.sol\":7935:7939  post */\n      dup3\n        /* \"Post.sol\":7935:7946  post.postId */\n      0x01\n      add\n      sload\n        /* \"Post.sol\":7871:8476  Post({... */\n      dup2\n      mstore\n      0x20\n      add\n        /* \"Post.sol\":7974:7978  post */\n      dup3\n        /* \"Post.sol\":7974:7987  post.userName */\n      0x02\n      add\n        /* \"Post.sol\":7871:8476  Post({... */\n      dup1\n      sload\n      tag_219\n      swap1\n      tag_188\n      jump\t// in\n    tag_219:\n      dup1\n      0x1f\n      add\n      0x20\n      dup1\n      swap2\n      div\n      mul\n      0x20\n      add\n      mload(0x40)\n      swap1\n      dup2\n      add\n      0x40\n      mstore\n      dup1\n      swap3\n      swap2\n      swap1\n      dup2\n      dup2\n      mstore\n      0x20\n      add\n      dup3\n      dup1\n      sload\n      tag_220\n      swap1\n      tag_188\n      jump\t// in\n    tag_220:\n      dup1\n      iszero\n      tag_221\n      jumpi\n      dup1\n      0x1f\n      lt\n      tag_222\n      jumpi\n      0x0100\n      dup1\n      dup4\n      sload\n      div\n      mul\n      dup4\n      mstore\n      swap2\n      0x20\n      add\n      swap2\n      jump(tag_221)\n    tag_222:\n      dup3\n      add\n      swap2\n      swap1\n      0x00\n      mstore\n      keccak256(0x00, 0x20)\n      swap1\n    tag_223:\n      dup2\n      sload\n      dup2\n      mstore\n      swap1\n      0x01\n      add\n      swap1\n      0x20\n      add\n      dup1\n      dup4\n      gt\n      tag_223\n      jumpi\n      dup3\n      swap1\n      sub\n      0x1f\n      and\n      dup3\n      add\n      swap2\n    tag_221:\n      pop\n      pop\n      pop\n      pop\n      pop\n      dup2\n      mstore\n      0x20\n      add\n        /* \"Post.sol\":8014:8018  post */\n      dup3\n        /* \"Post.sol\":8014:8026  post.caption */\n      0x03\n      add\n        /* \"Post.sol\":7871:8476  Post({... */\n      dup1\n      sload\n      tag_224\n      swap1\n      tag_188\n      jump\t// in\n    tag_224:\n      dup1\n      0x1f\n      add\n      0x20\n      dup1\n      swap2\n      div\n      mul\n      0x20\n      add\n      mload(0x40)\n      swap1\n      dup2\n      add\n      0x40\n      mstore\n      dup1\n      swap3\n      swap2\n      swap1\n      dup2\n      dup2\n      mstore\n      0x20\n      add\n      dup3\n      dup1\n      sload\n      tag_225\n      swap1\n      tag_188\n      jump\t// in\n    tag_225:\n      dup1\n      iszero\n      tag_226\n      jumpi\n      dup1\n      0x1f\n      lt\n      tag_227\n      jumpi\n      0x0100\n      dup1\n      dup4\n      sload\n      div\n      mul\n      dup4\n      mstore\n      swap2\n      0x20\n      add\n      swap2\n      jump(tag_226)\n    tag_227:\n      dup3\n      add\n      swap2\n      swap1\n      0x00\n      mstore\n      keccak256(0x00, 0x20)\n      swap1\n    tag_228:\n      dup2\n      sload\n      dup2\n      mstore\n      swap1\n      0x01\n      add\n      swap1\n      0x20\n      add\n      dup1\n      dup4\n      gt\n      tag_228\n      jumpi\n      dup3\n      swap1\n      sub\n      0x1f\n      and\n      dup3\n      add\n      swap2\n    tag_226:\n      pop\n      pop\n      pop\n      pop\n      pop\n      dup2\n      mstore\n      0x20\n      add\n        /* \"Post.sol\":8060:8064  post */\n      dup3\n        /* \"Post.sol\":8060:8079  post.cidPostPicture */\n      0x04\n      add\n        /* \"Post.sol\":7871:8476  Post({... */\n      dup1\n      sload\n      tag_229\n      swap1\n      tag_188\n      jump\t// in\n    tag_229:\n      dup1\n      0x1f\n      add\n      0x20\n      dup1\n      swap2\n      div\n      mul\n      0x20\n      add\n      mload(0x40)\n      swap1\n      dup2\n      add\n      0x40\n      mstore\n      dup1\n      swap3\n      swap2\n      swap1\n      dup2\n      dup2\n      mstore\n      0x20\n      add\n      dup3\n      dup1\n      sload\n      tag_230\n      swap1\n      tag_188\n      jump\t// in\n    tag_230:\n      dup1\n      iszero\n      tag_231\n      jumpi\n      dup1\n      0x1f\n      lt\n      tag_232\n      jumpi\n      0x0100\n      dup1\n      dup4\n      sload\n      div\n      mul\n      dup4\n      mstore\n      swap2\n      0x20\n      add\n      swap2\n      jump(tag_231)\n    tag_232:\n      dup3\n      add\n      swap2\n      swap1\n      0x00\n      mstore\n      keccak256(0x00, 0x20)\n      swap1\n    tag_233:\n      dup2\n      sload\n      dup2\n      mstore\n      swap1\n      0x01\n      add\n      swap1\n      0x20\n      add\n      dup1\n      dup4\n      gt\n      tag_233\n      jumpi\n      dup3\n      swap1\n      sub\n      0x1f\n      and\n      dup3\n      add\n      swap2\n    tag_231:\n      pop\n      pop\n      pop\n      pop\n      pop\n      dup2\n      mstore\n      0x20\n      add\n        /* \"Post.sol\":8103:8107  post */\n      dup3\n        /* \"Post.sol\":8103:8112  post.date */\n      0x05\n      add\n      sload\n        /* \"Post.sol\":7871:8476  Post({... */\n      dup2\n      mstore\n      0x20\n      add\n        /* \"Post.sol\":8141:8145  post */\n      dup3\n        /* \"Post.sol\":8141:8155  post.likeCount */\n      0x06\n      add\n      sload\n        /* \"Post.sol\":7871:8476  Post({... */\n      dup2\n      mstore\n      0x20\n      add\n        /* \"Post.sol\":8189:8193  post */\n      dup3\n        /* \"Post.sol\":8189:8208  post.totalDonations */\n      0x07\n      add\n      sload\n        /* \"Post.sol\":7871:8476  Post({... */\n      dup2\n      mstore\n      0x20\n      add\n        /* \"Post.sol\":8239:8243  post */\n      dup3\n        /* \"Post.sol\":8239:8255  post.CommentUser */\n      0x08\n      add\n        /* \"Post.sol\":7871:8476  Post({... */\n      dup1\n      sload\n      dup1\n      0x20\n      mul\n      0x20\n      add\n      mload(0x40)\n      swap1\n      dup2\n      add\n      0x40\n      mstore\n      dup1\n      swap3\n      swap2\n      swap1\n      dup2\n      dup2\n      mstore\n      0x20\n      add\n      dup3\n      dup1\n      sload\n      dup1\n      iszero\n      tag_234\n      jumpi\n      0x20\n      mul\n      dup3\n      add\n      swap2\n      swap1\n      0x00\n      mstore\n      keccak256(0x00, 0x20)\n      swap1\n    tag_235:\n      dup2\n      sload\n      sub(shl(0xa0, 0x01), 0x01)\n      and\n      dup2\n      mstore\n      0x01\n      swap1\n      swap2\n      add\n      swap1\n      0x20\n      add\n      dup1\n      dup4\n      gt\n      tag_235\n      jumpi\n    tag_234:\n      pop\n      pop\n      pop\n      pop\n      pop\n      dup2\n      mstore\n      0x20\n      add\n        /* \"Post.sol\":8290:8294  post */\n      dup3\n        /* \"Post.sol\":8290:8310  post.CommentUserName */\n      0x09\n      add\n        /* \"Post.sol\":7871:8476  Post({... */\n      dup1\n      sload\n      dup1\n      0x20\n      mul\n      0x20\n      add\n      mload(0x40)\n      swap1\n      dup2\n      add\n      0x40\n      mstore\n      dup1\n      swap3\n      swap2\n      swap1\n      dup2\n      dup2\n      mstore\n      0x20\n      add\n      0x00\n      swap1\n    tag_236:\n      dup3\n      dup3\n      lt\n      iszero\n      tag_237\n      jumpi\n      dup4\n      dup3\n      swap1\n      0x00\n      mstore\n      keccak256(0x00, 0x20)\n      add\n      dup1\n      sload\n      tag_239\n      swap1\n      tag_188\n      jump\t// in\n    tag_239:\n      dup1\n      0x1f\n      add\n      0x20\n      dup1\n      swap2\n      div\n      mul\n      0x20\n      add\n      mload(0x40)\n      swap1\n      dup2\n      add\n      0x40\n      mstore\n      dup1\n      swap3\n      swap2\n      swap1\n      dup2\n      dup2\n      mstore\n      0x20\n      add\n      dup3\n      dup1\n      sload\n      tag_240\n      swap1\n      tag_188\n      jump\t// in\n    tag_240:\n      dup1\n      iszero\n      tag_241\n      jumpi\n      dup1\n      0x1f\n      lt\n      tag_242\n      jumpi\n      0x0100\n      dup1\n      dup4\n      sload\n      div\n      mul\n      dup4\n      mstore\n      swap2\n      0x20\n      add\n      swap2\n      jump(tag_241)\n    tag_242:\n      dup3\n      add\n      swap2\n      swap1\n      0x00\n      mstore\n      keccak256(0x00, 0x20)\n      swap1\n    tag_243:\n      dup2\n      sload\n      dup2\n      mstore\n      swap1\n      0x01\n      add\n      swap1\n      0x20\n      add\n      dup1\n      dup4\n      gt\n      tag_243\n      jumpi\n      dup3\n      swap1\n      sub\n      0x1f\n      and\n      dup3\n      add\n      swap2\n    tag_241:\n      pop\n      pop\n      pop\n      pop\n      pop\n      dup2\n      mstore\n      0x20\n      add\n      swap1\n      0x01\n      add\n      swap1\n      jump(tag_236)\n    tag_237:\n      pop\n      pop\n      pop\n      pop\n      dup2\n      mstore\n      0x20\n      add\n        /* \"Post.sol\":8341:8345  post */\n      dup3\n        /* \"Post.sol\":8341:8357  post.CommentDate */\n      0x0a\n      add\n        /* \"Post.sol\":7871:8476  Post({... */\n      dup1\n      sload\n      dup1\n      0x20\n      mul\n      0x20\n      add\n      mload(0x40)\n      swap1\n      dup2\n      add\n      0x40\n      mstore\n      dup1\n      swap3\n      swap2\n      swap1\n      dup2\n      dup2\n      mstore\n      0x20\n      add\n      dup3\n      dup1\n      sload\n      dup1\n      iszero\n      tag_244\n      jumpi\n      0x20\n      mul\n      dup3\n      add\n      swap2\n      swap1\n      0x00\n      mstore\n      keccak256(0x00, 0x20)\n      swap1\n    tag_245:\n      dup2\n      sload\n      dup2\n      mstore\n      0x20\n      add\n      swap1\n      0x01\n      add\n      swap1\n      dup1\n      dup4\n      gt\n      tag_245\n      jumpi\n    tag_244:\n      pop\n      pop\n      pop\n      pop\n      pop\n      dup2\n      mstore\n      0x20\n      add\n        /* \"Post.sol\":8388:8392  post */\n      dup3\n        /* \"Post.sol\":8388:8404  post.CommentText */\n      0x0b\n      add\n        /* \"Post.sol\":7871:8476  Post({... */\n      dup1\n      sload\n      dup1\n      0x20\n      mul\n      0x20\n      add\n      mload(0x40)\n      swap1\n      dup2\n      add\n      0x40\n      mstore\n      dup1\n      swap3\n      swap2\n      swap1\n      dup2\n      dup2\n      mstore\n      0x20\n      add\n      0x00\n      swap1\n    tag_246:\n      dup3\n      dup3\n      lt\n      iszero\n      tag_247\n      jumpi\n      dup4\n      dup3\n      swap1\n      0x00\n      mstore\n      keccak256(0x00, 0x20)\n      add\n      dup1\n      sload\n      tag_249\n      swap1\n      tag_188\n      jump\t// in\n    tag_249:\n      dup1\n      0x1f\n      add\n      0x20\n      dup1\n      swap2\n      div\n      mul\n      0x20\n      add\n      mload(0x40)\n      swap1\n      dup2\n      add\n      0x40\n      mstore\n      dup1\n      swap3\n      swap2\n      swap1\n      dup2\n      dup2\n      mstore\n      0x20\n      add\n      dup3\n      dup1\n      sload\n      tag_250\n      swap1\n      tag_188\n      jump\t// in\n    tag_250:\n      dup1\n      iszero\n      tag_251\n      jumpi\n      dup1\n      0x1f\n      lt\n      tag_252\n      jumpi\n      0x0100\n      dup1\n      dup4\n      sload\n      div\n      mul\n      dup4\n      mstore\n      swap2\n      0x20\n      add\n      swap2\n      jump(tag_251)\n    tag_252:\n      dup3\n      add\n      swap2\n      swap1\n      0x00\n      mstore\n      keccak256(0x00, 0x20)\n      swap1\n    tag_253:\n      dup2\n      sload\n      dup2\n      mstore\n      swap1\n      0x01\n      add\n      swap1\n      0x20\n      add\n      dup1\n      dup4\n      gt\n      tag_253\n      jumpi\n      dup3\n      swap1\n      sub\n      0x1f\n      and\n      dup3\n      add\n      swap2\n    tag_251:\n      pop\n      pop\n      pop\n      pop\n      pop\n      dup2\n      mstore\n      0x20\n      add\n      swap1\n      0x01\n      add\n      swap1\n      jump(tag_246)\n    tag_247:\n      pop\n      pop\n      pop\n      pop\n      dup2\n      mstore\n      0x20\n      add\n        /* \"Post.sol\":8440:8444  post */\n      dup3\n        /* \"Post.sol\":8440:8461  post.CommentLikeCount */\n      0x0c\n      add\n        /* \"Post.sol\":7871:8476  Post({... */\n      dup1\n      sload\n      dup1\n      0x20\n      mul\n      0x20\n      add\n      mload(0x40)\n      swap1\n      dup2\n      add\n      0x40\n      mstore\n      dup1\n      swap3\n      swap2\n      swap1\n      dup2\n      dup2\n      mstore\n      0x20\n      add\n      dup3\n      dup1\n      sload\n      dup1\n      iszero\n      tag_254\n      jumpi\n      0x20\n      mul\n      dup3\n      add\n      swap2\n      swap1\n      0x00\n      mstore\n      keccak256(0x00, 0x20)\n      swap1\n    tag_255:\n      dup2\n      sload\n      dup2\n      mstore\n      0x20\n      add\n      swap1\n      0x01\n      add\n      swap1\n      dup1\n      dup4\n      gt\n      tag_255\n      jumpi\n    tag_254:\n      pop\n      pop\n      pop\n      pop\n      pop\n      dup2\n      mstore\n      pop\n        /* \"Post.sol\":7851:7865  userPostsArray */\n      dup4\n        /* \"Post.sol\":7866:7867  i */\n      dup4\n        /* \"Post.sol\":7851:7868  userPostsArray[i] */\n      dup2\n      mload\n      dup2\n      lt\n      tag_257\n      jumpi\n      tag_257\n      tag_218\n      jump\t// in\n    tag_257:\n      0x20\n      swap1\n      dup2\n      mul\n      swap2\n      swap1\n      swap2\n      add\n      add\n        /* \"Post.sol\":7851:8476  userPostsArray[i] = Post({... */\n      mstore\n      pop\n        /* \"Post.sol\":7745:7748  i++ */\n      0x01\n      add\n        /* \"Post.sol\":7705:8487  for (uint256 i = 0; i < postIds.length; i++) {... */\n      jump(tag_213)\n    tag_214:\n      pop\n        /* \"Post.sol\":8504:8518  userPostsArray */\n      swap4\n        /* \"Post.sol\":7499:8525  function getPostsByUser(address _user) public view returns (Post[] memory) {... */\n      swap3\n      pop\n      pop\n      pop\n      jump\t// out\n        /* \"Post.sol\":935:961  string[] public allFolders */\n    tag_61:\n      0x06\n      dup2\n      dup2\n      sload\n      dup2\n      lt\n      tag_258\n      jumpi\n      0x00\n      dup1\n      revert\n    tag_258:\n      swap1\n      0x00\n      mstore\n      keccak256(0x00, 0x20)\n      add\n      0x00\n      swap2\n      pop\n      swap1\n      pop\n      dup1\n      sload\n      tag_260\n      swap1\n      tag_188\n      jump\t// in\n    tag_260:\n      dup1\n      0x1f\n      add\n      0x20\n      dup1\n      swap2\n      div\n      mul\n      0x20\n      add\n      mload(0x40)\n      swap1\n      dup2\n      add\n      0x40\n      mstore\n      dup1\n      swap3\n      swap2\n      swap1\n      dup2\n      dup2\n      mstore\n      0x20\n      add\n      dup3\n      dup1\n      sload\n      tag_261\n      swap1\n      tag_188\n      jump\t// in\n    tag_261:\n      dup1\n      iszero\n      tag_262\n      jumpi\n      dup1\n      0x1f\n      lt\n      tag_263\n      jumpi\n      0x0100\n      dup1\n      dup4\n      sload\n      div\n      mul\n      dup4\n      mstore\n      swap2\n      0x20\n      add\n      swap2\n      jump(tag_262)\n    tag_263:\n      dup3\n      add\n      swap2\n      swap1\n      0x00\n      mstore\n      keccak256(0x00, 0x20)\n      swap1\n    tag_264:\n      dup2\n      sload\n      dup2\n      mstore\n      swap1\n      0x01\n      add\n      swap1\n      0x20\n      add\n      dup1\n      dup4\n      gt\n      tag_264\n      jumpi\n      dup3\n      swap1\n      sub\n      0x1f\n      and\n      dup3\n      add\n      swap2\n    tag_262:\n      pop\n      pop\n      pop\n      pop\n      pop\n      dup2\n      jump\t// out\n        /* \"Post.sol\":3431:3959  function CommentLike(uint256 _id, uint256 _commentId) public {... */\n    tag_68:\n        /* \"Post.sol\":3516:3529  numberOfPosts */\n      sload(0x07)\n        /* \"Post.sol\":3510:3513  _id */\n      dup3\n        /* \"Post.sol\":3510:3529  _id < numberOfPosts */\n      lt\n        /* \"Post.sol\":3502:3553  require(_id < numberOfPosts, \"Post does not exist\") */\n      tag_266\n      jumpi\n      mload(0x40)\n      shl(0xe5, 0x461bcd)\n      dup2\n      mstore\n        /* \"#utility.yul\":16083:16085   */\n      0x20\n        /* \"Post.sol\":3502:3553  require(_id < numberOfPosts, \"Post does not exist\") */\n      0x04\n      dup3\n      add\n        /* \"#utility.yul\":16065:16086   */\n      mstore\n        /* \"#utility.yul\":16122:16124   */\n      0x13\n        /* \"#utility.yul\":16102:16120   */\n      0x24\n      dup3\n      add\n        /* \"#utility.yul\":16095:16125   */\n      mstore\n      shl(0x6a, 0x141bdcdd08191bd95cc81b9bdd08195e1a5cdd)\n        /* \"#utility.yul\":16141:16159   */\n      0x44\n      dup3\n      add\n        /* \"#utility.yul\":16134:16183   */\n      mstore\n        /* \"#utility.yul\":16200:16218   */\n      0x64\n      add\n        /* \"Post.sol\":3502:3553  require(_id < numberOfPosts, \"Post does not exist\") */\n    tag_267:\n      mload(0x40)\n      dup1\n      swap2\n      sub\n      swap1\n      revert\n    tag_266:\n        /* \"Post.sol\":3597:3602  posts */\n      0x00\n        /* \"Post.sol\":3597:3607  posts[_id] */\n      dup3\n      dup2\n      mstore\n      0x20\n      dup2\n      swap1\n      mstore\n      0x40\n      swap1\n      keccak256\n        /* \"Post.sol\":3597:3619  posts[_id].CommentUser */\n      0x08\n      add\n        /* \"Post.sol\":3597:3626  posts[_id].CommentUser.length */\n      sload\n        /* \"Post.sol\":3584:3626  _commentId < posts[_id].CommentUser.length */\n      dup2\n      lt\n        /* \"Post.sol\":3563:3674  require(... */\n      tag_269\n      jumpi\n      mload(0x40)\n      shl(0xe5, 0x461bcd)\n      dup2\n      mstore\n        /* \"#utility.yul\":16431:16433   */\n      0x20\n        /* \"Post.sol\":3563:3674  require(... */\n      0x04\n      dup3\n      add\n        /* \"#utility.yul\":16413:16434   */\n      mstore\n        /* \"#utility.yul\":16470:16472   */\n      0x16\n        /* \"#utility.yul\":16450:16468   */\n      0x24\n      dup3\n      add\n        /* \"#utility.yul\":16443:16473   */\n      mstore\n        /* \"#utility.yul\":16509:16533   */\n      0x436f6d6d656e7420646f6573206e6f7420657869737400000000000000000000\n        /* \"#utility.yul\":16489:16507   */\n      0x44\n      dup3\n      add\n        /* \"#utility.yul\":16482:16534   */\n      mstore\n        /* \"#utility.yul\":16551:16569   */\n      0x64\n      add\n        /* \"Post.sol\":3563:3674  require(... */\n      tag_267\n        /* \"#utility.yul\":16229:16575   */\n      jump\n        /* \"Post.sol\":3563:3674  require(... */\n    tag_269:\n        /* \"Post.sol\":3706:3723  commentLikes[_id] */\n      0x00\n      dup3\n      dup2\n      mstore\n        /* \"Post.sol\":3706:3718  commentLikes */\n      0x02\n        /* \"Post.sol\":3706:3723  commentLikes[_id] */\n      0x20\n      swap1\n      dup2\n      mstore\n      0x40\n      dup1\n      dup4\n      keccak256\n        /* \"Post.sol\":3706:3735  commentLikes[_id][_commentId] */\n      dup5\n      dup5\n      mstore\n      dup3\n      mstore\n      dup1\n      dup4\n      keccak256\n        /* \"Post.sol\":3736:3746  msg.sender */\n      caller\n        /* \"Post.sol\":3706:3747  commentLikes[_id][_commentId][msg.sender] */\n      dup5\n      mstore\n      swap1\n      swap2\n      mstore\n      swap1\n      keccak256\n      sload\n      0xff\n      and\n        /* \"Post.sol\":3705:3747  !commentLikes[_id][_commentId][msg.sender] */\n      iszero\n        /* \"Post.sol\":3684:3808  require(... */\n      tag_272\n      jumpi\n      mload(0x40)\n      shl(0xe5, 0x461bcd)\n      dup2\n      mstore\n        /* \"#utility.yul\":16782:16784   */\n      0x20\n        /* \"Post.sol\":3684:3808  require(... */\n      0x04\n      dup3\n      add\n        /* \"#utility.yul\":16764:16785   */\n      mstore\n        /* \"#utility.yul\":16821:16823   */\n      0x23\n        /* \"#utility.yul\":16801:16819   */\n      0x24\n      dup3\n      add\n        /* \"#utility.yul\":16794:16824   */\n      mstore\n        /* \"#utility.yul\":16860:16894   */\n      0x557365722068617320616c7265616479206c696b6564207468697320636f6d6d\n        /* \"#utility.yul\":16840:16858   */\n      0x44\n      dup3\n      add\n        /* \"#utility.yul\":16833:16895   */\n      mstore\n      shl(0xea, 0x195b9d)\n        /* \"#utility.yul\":16911:16929   */\n      0x64\n      dup3\n      add\n        /* \"#utility.yul\":16904:16937   */\n      mstore\n        /* \"#utility.yul\":16954:16973   */\n      0x84\n      add\n        /* \"Post.sol\":3684:3808  require(... */\n      tag_267\n        /* \"#utility.yul\":16580:16979   */\n      jump\n        /* \"Post.sol\":3684:3808  require(... */\n    tag_272:\n        /* \"Post.sol\":3819:3836  Post storage post */\n      0x00\n        /* \"Post.sol\":3839:3849  posts[_id] */\n      dup3\n      dup2\n      mstore\n      0x20\n      dup2\n      swap1\n      mstore\n      0x40\n      swap1\n      keccak256\n        /* \"Post.sol\":3859:3880  post.CommentLikeCount */\n      0x0c\n      dup2\n      add\n        /* \"Post.sol\":3859:3892  post.CommentLikeCount[_commentId] */\n      dup1\n      sload\n        /* \"Post.sol\":3881:3891  _commentId */\n      dup4\n      swap1\n        /* \"Post.sol\":3859:3892  post.CommentLikeCount[_commentId] */\n      dup2\n      lt\n      tag_276\n      jumpi\n      tag_276\n      tag_218\n      jump\t// in\n    tag_276:\n      0x00\n      swap2\n      dup3\n      mstore\n      0x20\n      dup3\n      keccak256\n      add\n        /* \"Post.sol\":3859:3894  post.CommentLikeCount[_commentId]++ */\n      dup1\n      sload\n      swap2\n      tag_278\n      dup4\n      tag_279\n      jump\t// in\n    tag_278:\n      swap1\n      swap2\n      sstore\n      pop\n      pop\n      pop\n        /* \"Post.sol\":3904:3921  commentLikes[_id] */\n      0x00\n      swap2\n      dup3\n      mstore\n        /* \"Post.sol\":3904:3916  commentLikes */\n      0x02\n        /* \"Post.sol\":3904:3921  commentLikes[_id] */\n      0x20\n      swap1\n      dup2\n      mstore\n      0x40\n      dup1\n      dup5\n      keccak256\n        /* \"Post.sol\":3904:3933  commentLikes[_id][_commentId] */\n      swap3\n      dup5\n      mstore\n      swap2\n      dup2\n      mstore\n      dup2\n      dup4\n      keccak256\n        /* \"Post.sol\":3934:3944  msg.sender */\n      caller\n        /* \"Post.sol\":3904:3945  commentLikes[_id][_commentId][msg.sender] */\n      dup5\n      mstore\n      swap1\n      mstore\n      swap1\n      keccak256\n        /* \"Post.sol\":3904:3952  commentLikes[_id][_commentId][msg.sender] = true */\n      dup1\n      sload\n      not(0xff)\n      and\n        /* \"Post.sol\":3948:3952  true */\n      0x01\n        /* \"Post.sol\":3904:3952  commentLikes[_id][_commentId][msg.sender] = true */\n      or\n      swap1\n      sstore\n        /* \"Post.sol\":3431:3959  function CommentLike(uint256 _id, uint256 _commentId) public {... */\n      jump\t// out\n        /* \"Post.sol\":11098:11525  function getProfilePictures(address[] memory users)... */\n    tag_73:\n        /* \"Post.sol\":11264:11284  socialProfileAddress */\n      sload(0x08)\n        /* \"Post.sol\":11343:11355  users.length */\n      dup2\n      mload\n        /* \"Post.sol\":11195:11210  string[] memory */\n      0x60\n      swap2\n      sub(shl(0xa0, 0x01), 0x01)\n        /* \"Post.sol\":11264:11284  socialProfileAddress */\n      and\n      swap1\n        /* \"Post.sol\":11226:11247  SocialProfile profile */\n      0x00\n      swap1\n        /* \"Post.sol\":11330:11356  new string[](users.length) */\n      0xffffffffffffffff\n      dup2\n      gt\n      iszero\n      tag_282\n      jumpi\n      tag_282\n      tag_208\n      jump\t// in\n    tag_282:\n      mload(0x40)\n      swap1\n      dup1\n      dup3\n      mstore\n      dup1\n      0x20\n      mul\n      0x20\n      add\n      dup3\n      add\n      0x40\n      mstore\n      dup1\n      iszero\n      tag_283\n      jumpi\n      dup2\n      0x20\n      add\n    tag_284:\n      0x60\n      dup2\n      mstore\n      0x20\n      add\n      swap1\n      0x01\n      swap1\n      sub\n      swap1\n      dup2\n      tag_284\n      jumpi\n      swap1\n      pop\n    tag_283:\n      pop\n        /* \"Post.sol\":11296:11356  string[] memory profilePictures = new string[](users.length) */\n      swap1\n      pop\n        /* \"Post.sol\":11372:11381  uint256 i */\n      0x00\n        /* \"Post.sol\":11367:11486  for (uint256 i = 0; i < users.length; i++) {... */\n    tag_285:\n        /* \"Post.sol\":11391:11396  users */\n      dup5\n        /* \"Post.sol\":11391:11403  users.length */\n      mload\n        /* \"Post.sol\":11387:11388  i */\n      dup2\n        /* \"Post.sol\":11387:11403  i < users.length */\n      lt\n        /* \"Post.sol\":11367:11486  for (uint256 i = 0; i < users.length; i++) {... */\n      iszero\n      tag_214\n      jumpi\n        /* \"Post.sol\":11445:11452  profile */\n      dup3\n      sub(shl(0xa0, 0x01), 0x01)\n        /* \"Post.sol\":11445:11465  profile.profilePhoto */\n      and\n      0xfbf31669\n        /* \"Post.sol\":11466:11471  users */\n      dup7\n        /* \"Post.sol\":11472:11473  i */\n      dup4\n        /* \"Post.sol\":11466:11474  users[i] */\n      dup2\n      mload\n      dup2\n      lt\n      tag_289\n      jumpi\n      tag_289\n      tag_218\n      jump\t// in\n    tag_289:\n      0x20\n      mul\n      0x20\n      add\n      add\n      mload\n        /* \"Post.sol\":11445:11475  profile.profilePhoto(users[i]) */\n      mload(0x40)\n      dup3\n      0xffffffff\n      and\n      0xe0\n      shl\n      dup2\n      mstore\n      0x04\n      add\n      tag_290\n      swap2\n      swap1\n      sub(shl(0xa0, 0x01), 0x01)\n        /* \"#utility.yul\":11564:11619   */\n      swap2\n      swap1\n      swap2\n      and\n        /* \"#utility.yul\":11546:11620   */\n      dup2\n      mstore\n        /* \"#utility.yul\":11534:11536   */\n      0x20\n        /* \"#utility.yul\":11519:11537   */\n      add\n      swap1\n        /* \"#utility.yul\":11400:11626   */\n      jump\n        /* \"Post.sol\":11445:11475  profile.profilePhoto(users[i]) */\n    tag_290:\n      0x00\n      mload(0x40)\n      dup1\n      dup4\n      sub\n      dup2\n      dup7\n      gas\n      staticcall\n      iszero\n      dup1\n      iszero\n      tag_292\n      jumpi\n      returndatasize\n      0x00\n      dup1\n      returndatacopy\n      revert(0x00, returndatasize)\n    tag_292:\n      pop\n      pop\n      pop\n      pop\n      mload(0x40)\n      returndatasize\n      0x00\n      dup3\n      returndatacopy\n      0x1f\n      returndatasize\n      swap1\n      dup2\n      add\n      not(0x1f)\n      and\n      dup3\n      add\n      0x40\n      mstore\n      tag_293\n      swap2\n      swap1\n      dup2\n      add\n      swap1\n      tag_294\n      jump\t// in\n    tag_293:\n        /* \"Post.sol\":11424:11439  profilePictures */\n      dup3\n        /* \"Post.sol\":11440:11441  i */\n      dup3\n        /* \"Post.sol\":11424:11442  profilePictures[i] */\n      dup2\n      mload\n      dup2\n      lt\n      tag_296\n      jumpi\n      tag_296\n      tag_218\n      jump\t// in\n    tag_296:\n      0x20\n      swap1\n      dup2\n      mul\n      swap2\n      swap1\n      swap2\n      add\n      add\n        /* \"Post.sol\":11424:11475  profilePictures[i] = profile.profilePhoto(users[i]) */\n      mstore\n        /* \"Post.sol\":11405:11408  i++ */\n      0x01\n      add\n        /* \"Post.sol\":11367:11486  for (uint256 i = 0; i < users.length; i++) {... */\n      jump(tag_285)\n        /* \"Post.sol\":3049:3381  function PostLike(uint256 _id) public {... */\n    tag_79:\n        /* \"Post.sol\":3111:3124  numberOfPosts */\n      sload(0x07)\n        /* \"Post.sol\":3105:3108  _id */\n      dup2\n        /* \"Post.sol\":3105:3124  _id < numberOfPosts */\n      lt\n        /* \"Post.sol\":3097:3148  require(_id < numberOfPosts, \"Post does not exist\") */\n      tag_298\n      jumpi\n      mload(0x40)\n      shl(0xe5, 0x461bcd)\n      dup2\n      mstore\n        /* \"#utility.yul\":16083:16085   */\n      0x20\n        /* \"Post.sol\":3097:3148  require(_id < numberOfPosts, \"Post does not exist\") */\n      0x04\n      dup3\n      add\n        /* \"#utility.yul\":16065:16086   */\n      mstore\n        /* \"#utility.yul\":16122:16124   */\n      0x13\n        /* \"#utility.yul\":16102:16120   */\n      0x24\n      dup3\n      add\n        /* \"#utility.yul\":16095:16125   */\n      mstore\n      shl(0x6a, 0x141bdcdd08191bd95cc81b9bdd08195e1a5cdd)\n        /* \"#utility.yul\":16141:16159   */\n      0x44\n      dup3\n      add\n        /* \"#utility.yul\":16134:16183   */\n      mstore\n        /* \"#utility.yul\":16200:16218   */\n      0x64\n      add\n        /* \"Post.sol\":3097:3148  require(_id < numberOfPosts, \"Post does not exist\") */\n      tag_267\n        /* \"#utility.yul\":15881:16224   */\n      jump\n        /* \"Post.sol\":3097:3148  require(_id < numberOfPosts, \"Post does not exist\") */\n    tag_298:\n        /* \"Post.sol\":3180:3194  postLikes[_id] */\n      0x00\n      dup2\n      dup2\n      mstore\n        /* \"Post.sol\":3180:3189  postLikes */\n      0x01\n        /* \"Post.sol\":3180:3194  postLikes[_id] */\n      0x20\n      swap1\n      dup2\n      mstore\n      0x40\n      dup1\n      dup4\n      keccak256\n        /* \"Post.sol\":3195:3205  msg.sender */\n      caller\n        /* \"Post.sol\":3180:3206  postLikes[_id][msg.sender] */\n      dup5\n      mstore\n      swap1\n      swap2\n      mstore\n      swap1\n      keccak256\n      sload\n      0xff\n      and\n        /* \"Post.sol\":3179:3206  !postLikes[_id][msg.sender] */\n      iszero\n        /* \"Post.sol\":3158:3264  require(... */\n      tag_300\n      jumpi\n      mload(0x40)\n      shl(0xe5, 0x461bcd)\n      dup2\n      mstore\n        /* \"#utility.yul\":18126:18128   */\n      0x20\n        /* \"Post.sol\":3158:3264  require(... */\n      0x04\n      dup3\n      add\n        /* \"#utility.yul\":18108:18129   */\n      dup2\n      swap1\n      mstore\n        /* \"#utility.yul\":18145:18163   */\n      0x24\n      dup3\n      add\n        /* \"#utility.yul\":18138:18168   */\n      mstore\n        /* \"#utility.yul\":18204:18238   */\n      0x557365722068617320616c7265616479206c696b6564207468697320706f7374\n        /* \"#utility.yul\":18184:18202   */\n      0x44\n      dup3\n      add\n        /* \"#utility.yul\":18177:18239   */\n      mstore\n        /* \"#utility.yul\":18256:18274   */\n      0x64\n      add\n        /* \"Post.sol\":3158:3264  require(... */\n      tag_267\n        /* \"#utility.yul\":17924:18280   */\n      jump\n        /* \"Post.sol\":3158:3264  require(... */\n    tag_300:\n        /* \"Post.sol\":3275:3292  Post storage post */\n      0x00\n        /* \"Post.sol\":3295:3305  posts[_id] */\n      dup2\n      dup2\n      mstore\n      0x20\n      dup2\n      swap1\n      mstore\n      0x40\n      dup2\n      keccak256\n        /* \"Post.sol\":3315:3329  post.likeCount */\n      0x06\n      dup2\n      add\n        /* \"Post.sol\":3315:3331  post.likeCount++ */\n      dup1\n      sload\n        /* \"Post.sol\":3295:3305  posts[_id] */\n      swap2\n      swap3\n        /* \"Post.sol\":3315:3331  post.likeCount++ */\n      tag_303\n      dup4\n      tag_279\n      jump\t// in\n    tag_303:\n      swap1\n      swap2\n      sstore\n      pop\n      pop\n      pop\n        /* \"Post.sol\":3341:3355  postLikes[_id] */\n      0x00\n      swap1\n      dup2\n      mstore\n        /* \"Post.sol\":3370:3374  true */\n      0x01\n        /* \"Post.sol\":3341:3355  postLikes[_id] */\n      0x20\n      dup2\n      dup2\n      mstore\n      0x40\n      dup1\n      dup5\n      keccak256\n        /* \"Post.sol\":3356:3366  msg.sender */\n      caller\n        /* \"Post.sol\":3341:3367  postLikes[_id][msg.sender] */\n      dup6\n      mstore\n      swap1\n      swap2\n      mstore\n      swap1\n      swap2\n      keccak256\n        /* \"Post.sol\":3341:3374  postLikes[_id][msg.sender] = true */\n      dup1\n      sload\n      not(0xff)\n      and\n      swap1\n      swap2\n      or\n      swap1\n      sstore\n        /* \"Post.sol\":3049:3381  function PostLike(uint256 _id) public {... */\n      jump\t// out\n        /* \"Post.sol\":8602:8710  function getMyPosts() public view returns (Post[] memory) {... */\n    tag_89:\n        /* \"Post.sol\":8645:8658  Post[] memory */\n      0x60\n        /* \"Post.sol\":8677:8703  getPostsByUser(msg.sender) */\n      tag_305\n        /* \"Post.sol\":8692:8702  msg.sender */\n      caller\n        /* \"Post.sol\":8677:8691  getPostsByUser */\n      tag_55\n        /* \"Post.sol\":8677:8703  getPostsByUser(msg.sender) */\n      jump\t// in\n    tag_305:\n        /* \"Post.sol\":8670:8703  return getPostsByUser(msg.sender) */\n      swap1\n      pop\n        /* \"Post.sol\":8602:8710  function getMyPosts() public view returns (Post[] memory) {... */\n      swap1\n      jump\t// out\n        /* \"Post.sol\":5590:6619  function getPostsInFolder(string memory _folderName)... */\n    tag_95:\n        /* \"Post.sol\":5688:5701  Post[] memory */\n      0x60\n        /* \"Post.sol\":5717:5741  uint256[] memory postIds */\n      0x00\n        /* \"Post.sol\":5744:5751  folders */\n      0x03\n        /* \"Post.sol\":5752:5763  _folderName */\n      dup4\n        /* \"Post.sol\":5744:5764  folders[_folderName] */\n      mload(0x40)\n      tag_307\n      swap2\n      swap1\n      tag_308\n      jump\t// in\n    tag_307:\n      swap1\n      dup2\n      mstore\n      0x40\n      dup1\n      mload\n      swap2\n      dup3\n      swap1\n      sub\n      0x20\n      swap1\n      dup2\n      add\n      dup4\n      keccak256\n        /* \"Post.sol\":5717:5764  uint256[] memory postIds = folders[_folderName] */\n      dup1\n      sload\n      dup1\n      dup4\n      mul\n      dup6\n      add\n      dup4\n      add\n      swap1\n      swap4\n      mstore\n      dup3\n      dup5\n      mstore\n        /* \"Post.sol\":5744:5764  folders[_folderName] */\n      swap2\n        /* \"Post.sol\":5717:5764  uint256[] memory postIds = folders[_folderName] */\n      swap1\n      dup4\n      add\n        /* \"Post.sol\":5744:5764  folders[_folderName] */\n      dup3\n        /* \"Post.sol\":5717:5764  uint256[] memory postIds = folders[_folderName] */\n      dup3\n      dup1\n      iszero\n      tag_309\n      jumpi\n      0x20\n      mul\n      dup3\n      add\n      swap2\n      swap1\n      0x00\n      mstore\n      keccak256(0x00, 0x20)\n      swap1\n    tag_310:\n      dup2\n      sload\n      dup2\n      mstore\n      0x20\n      add\n      swap1\n      0x01\n      add\n      swap1\n      dup1\n      dup4\n      gt\n      tag_310\n      jumpi\n    tag_309:\n      pop\n      pop\n      pop\n      pop\n      pop\n      swap1\n      pop\n        /* \"Post.sol\":5775:5800  Post[] memory folderPosts */\n      0x00\n        /* \"Post.sol\":5814:5821  postIds */\n      dup2\n        /* \"Post.sol\":5814:5828  postIds.length */\n      mload\n        /* \"Post.sol\":5803:5829  new Post[](postIds.length) */\n      0xffffffffffffffff\n      dup2\n      gt\n      iszero\n      tag_312\n      jumpi\n      tag_312\n      tag_208\n      jump\t// in\n    tag_312:\n      mload(0x40)\n      swap1\n      dup1\n      dup3\n      mstore\n      dup1\n      0x20\n      mul\n      0x20\n      add\n      dup3\n      add\n      0x40\n      mstore\n      dup1\n      iszero\n      tag_313\n      jumpi\n      dup2\n      0x20\n      add\n    tag_314:\n      tag_315\n      mload(0x40)\n      dup1\n      0x01a0\n      add\n      0x40\n      mstore\n      dup1\n      and(sub(shl(0xa0, 0x01), 0x01), 0x00)\n      dup2\n      mstore\n      0x20\n      add\n      0x00\n      dup2\n      mstore\n      0x20\n      add\n      0x60\n      dup2\n      mstore\n      0x20\n      add\n      0x60\n      dup2\n      mstore\n      0x20\n      add\n      0x60\n      dup2\n      mstore\n      0x20\n      add\n      0x00\n      dup2\n      mstore\n      0x20\n      add\n      0x00\n      dup2\n      mstore\n      0x20\n      add\n      0x00\n      dup2\n      mstore\n      0x20\n      add\n      0x60\n      dup2\n      mstore\n      0x20\n      add\n      0x60\n      dup2\n      mstore\n      0x20\n      add\n      0x60\n      dup2\n      mstore\n      0x20\n      add\n      0x60\n      dup2\n      mstore\n      0x20\n      add\n      0x60\n      dup2\n      mstore\n      pop\n      swap1\n      jump\n    tag_315:\n      dup2\n      mstore\n      0x20\n      add\n      swap1\n      0x01\n      swap1\n      sub\n      swap1\n      dup2\n      tag_314\n      jumpi\n      swap1\n      pop\n    tag_313:\n      pop\n        /* \"Post.sol\":5775:5829  Post[] memory folderPosts = new Post[](postIds.length) */\n      swap1\n      pop\n        /* \"Post.sol\":5845:5854  uint256 i */\n      0x00\n        /* \"Post.sol\":5840:6584  for (uint256 i = 0; i < postIds.length; i++) {... */\n    tag_316:\n        /* \"Post.sol\":5864:5871  postIds */\n      dup3\n        /* \"Post.sol\":5864:5878  postIds.length */\n      mload\n        /* \"Post.sol\":5860:5861  i */\n      dup2\n        /* \"Post.sol\":5860:5878  i < postIds.length */\n      lt\n        /* \"Post.sol\":5840:6584  for (uint256 i = 0; i < postIds.length; i++) {... */\n      iszero\n      tag_214\n      jumpi\n        /* \"Post.sol\":5899:5916  Post storage post */\n      0x00\n        /* \"Post.sol\":5919:5924  posts */\n      dup1\n        /* \"Post.sol\":5919:5936  posts[postIds[i]] */\n      0x00\n        /* \"Post.sol\":5925:5932  postIds */\n      dup6\n        /* \"Post.sol\":5933:5934  i */\n      dup5\n        /* \"Post.sol\":5925:5935  postIds[i] */\n      dup2\n      mload\n      dup2\n      lt\n      tag_320\n      jumpi\n      tag_320\n      tag_218\n      jump\t// in\n    tag_320:\n      0x20\n      mul\n      0x20\n      add\n      add\n      mload\n        /* \"Post.sol\":5919:5936  posts[postIds[i]] */\n      dup2\n      mstore\n      0x20\n      add\n      swap1\n      dup2\n      mstore\n      0x20\n      add\n      0x00\n      keccak256\n        /* \"Post.sol\":5899:5936  Post storage post = posts[postIds[i]] */\n      swap1\n      pop\n        /* \"Post.sol\":5968:6573  Post({... */\n      mload(0x40)\n      dup1\n      0x01a0\n      add\n      0x40\n      mstore\n      dup1\n        /* \"Post.sol\":5997:6001  post */\n      dup3\n        /* \"Post.sol\":5997:6006  post.user */\n      0x00\n      add\n      0x00\n      swap1\n      sload\n      swap1\n      0x0100\n      exp\n      swap1\n      div\n      sub(shl(0xa0, 0x01), 0x01)\n      and\n      sub(shl(0xa0, 0x01), 0x01)\n        /* \"Post.sol\":5968:6573  Post({... */\n      and\n      dup2\n      mstore\n      0x20\n      add\n        /* \"Post.sol\":6032:6036  post */\n      dup3\n        /* \"Post.sol\":6032:6043  post.postId */\n      0x01\n      add\n      sload\n        /* \"Post.sol\":5968:6573  Post({... */\n      dup2\n      mstore\n      0x20\n      add\n        /* \"Post.sol\":6071:6075  post */\n      dup3\n        /* \"Post.sol\":6071:6084  post.userName */\n      0x02\n      add\n        /* \"Post.sol\":5968:6573  Post({... */\n      dup1\n      sload\n      tag_321\n      swap1\n      tag_188\n      jump\t// in\n    tag_321:\n      dup1\n      0x1f\n      add\n      0x20\n      dup1\n      swap2\n      div\n      mul\n      0x20\n      add\n      mload(0x40)\n      swap1\n      dup2\n      add\n      0x40\n      mstore\n      dup1\n      swap3\n      swap2\n      swap1\n      dup2\n      dup2\n      mstore\n      0x20\n      add\n      dup3\n      dup1\n      sload\n      tag_322\n      swap1\n      tag_188\n      jump\t// in\n    tag_322:\n      dup1\n      iszero\n      tag_323\n      jumpi\n      dup1\n      0x1f\n      lt\n      tag_324\n      jumpi\n      0x0100\n      dup1\n      dup4\n      sload\n      div\n      mul\n      dup4\n      mstore\n      swap2\n      0x20\n      add\n      swap2\n      jump(tag_323)\n    tag_324:\n      dup3\n      add\n      swap2\n      swap1\n      0x00\n      mstore\n      keccak256(0x00, 0x20)\n      swap1\n    tag_325:\n      dup2\n      sload\n      dup2\n      mstore\n      swap1\n      0x01\n      add\n      swap1\n      0x20\n      add\n      dup1\n      dup4\n      gt\n      tag_325\n      jumpi\n      dup3\n      swap1\n      sub\n      0x1f\n      and\n      dup3\n      add\n      swap2\n    tag_323:\n      pop\n      pop\n      pop\n      pop\n      pop\n      dup2\n      mstore\n      0x20\n      add\n        /* \"Post.sol\":6111:6115  post */\n      dup3\n        /* \"Post.sol\":6111:6123  post.caption */\n      0x03\n      add\n        /* \"Post.sol\":5968:6573  Post({... */\n      dup1\n      sload\n      tag_326\n      swap1\n      tag_188\n      jump\t// in\n    tag_326:\n      dup1\n      0x1f\n      add\n      0x20\n      dup1\n      swap2\n      div\n      mul\n      0x20\n      add\n      mload(0x40)\n      swap1\n      dup2\n      add\n      0x40\n      mstore\n      dup1\n      swap3\n      swap2\n      swap1\n      dup2\n      dup2\n      mstore\n      0x20\n      add\n      dup3\n      dup1\n      sload\n      tag_327\n      swap1\n      tag_188\n      jump\t// in\n    tag_327:\n      dup1\n      iszero\n      tag_328\n      jumpi\n      dup1\n      0x1f\n      lt\n      tag_329\n      jumpi\n      0x0100\n      dup1\n      dup4\n      sload\n      div\n      mul\n      dup4\n      mstore\n      swap2\n      0x20\n      add\n      swap2\n      jump(tag_328)\n    tag_329:\n      dup3\n      add\n      swap2\n      swap1\n      0x00\n      mstore\n      keccak256(0x00, 0x20)\n      swap1\n    tag_330:\n      dup2\n      sload\n      dup2\n      mstore\n      swap1\n      0x01\n      add\n      swap1\n      0x20\n      add\n      dup1\n      dup4\n      gt\n      tag_330\n      jumpi\n      dup3\n      swap1\n      sub\n      0x1f\n      and\n      dup3\n      add\n      swap2\n    tag_328:\n      pop\n      pop\n      pop\n      pop\n      pop\n      dup2\n      mstore\n      0x20\n      add\n        /* \"Post.sol\":6157:6161  post */\n      dup3\n        /* \"Post.sol\":6157:6176  post.cidPostPicture */\n      0x04\n      add\n        /* \"Post.sol\":5968:6573  Post({... */\n      dup1\n      sload\n      tag_331\n      swap1\n      tag_188\n      jump\t// in\n    tag_331:\n      dup1\n      0x1f\n      add\n      0x20\n      dup1\n      swap2\n      div\n      mul\n      0x20\n      add\n      mload(0x40)\n      swap1\n      dup2\n      add\n      0x40\n      mstore\n      dup1\n      swap3\n      swap2\n      swap1\n      dup2\n      dup2\n      mstore\n      0x20\n      add\n      dup3\n      dup1\n      sload\n      tag_332\n      swap1\n      tag_188\n      jump\t// in\n    tag_332:\n      dup1\n      iszero\n      tag_333\n      jumpi\n      dup1\n      0x1f\n      lt\n      tag_334\n      jumpi\n      0x0100\n      dup1\n      dup4\n      sload\n      div\n      mul\n      dup4\n      mstore\n      swap2\n      0x20\n      add\n      swap2\n      jump(tag_333)\n    tag_334:\n      dup3\n      add\n      swap2\n      swap1\n      0x00\n      mstore\n      keccak256(0x00, 0x20)\n      swap1\n    tag_335:\n      dup2\n      sload\n      dup2\n      mstore\n      swap1\n      0x01\n      add\n      swap1\n      0x20\n      add\n      dup1\n      dup4\n      gt\n      tag_335\n      jumpi\n      dup3\n      swap1\n      sub\n      0x1f\n      and\n      dup3\n      add\n      swap2\n    tag_333:\n      pop\n      pop\n      pop\n      pop\n      pop\n      dup2\n      mstore\n      0x20\n      add\n        /* \"Post.sol\":6200:6204  post */\n      dup3\n        /* \"Post.sol\":6200:6209  post.date */\n      0x05\n      add\n      sload\n        /* \"Post.sol\":5968:6573  Post({... */\n      dup2\n      mstore\n      0x20\n      add\n        /* \"Post.sol\":6238:6242  post */\n      dup3\n        /* \"Post.sol\":6238:6252  post.likeCount */\n      0x06\n      add\n      sload\n        /* \"Post.sol\":5968:6573  Post({... */\n      dup2\n      mstore\n      0x20\n      add\n        /* \"Post.sol\":6286:6290  post */\n      dup3\n        /* \"Post.sol\":6286:6305  post.totalDonations */\n      0x07\n      add\n      sload\n        /* \"Post.sol\":5968:6573  Post({... */\n      dup2\n      mstore\n      0x20\n      add\n        /* \"Post.sol\":6336:6340  post */\n      dup3\n        /* \"Post.sol\":6336:6352  post.CommentUser */\n      0x08\n      add\n        /* \"Post.sol\":5968:6573  Post({... */\n      dup1\n      sload\n      dup1\n      0x20\n      mul\n      0x20\n      add\n      mload(0x40)\n      swap1\n      dup2\n      add\n      0x40\n      mstore\n      dup1\n      swap3\n      swap2\n      swap1\n      dup2\n      dup2\n      mstore\n      0x20\n      add\n      dup3\n      dup1\n      sload\n      dup1\n      iszero\n      tag_336\n      jumpi\n      0x20\n      mul\n      dup3\n      add\n      swap2\n      swap1\n      0x00\n      mstore\n      keccak256(0x00, 0x20)\n      swap1\n    tag_337:\n      dup2\n      sload\n      sub(shl(0xa0, 0x01), 0x01)\n      and\n      dup2\n      mstore\n      0x01\n      swap1\n      swap2\n      add\n      swap1\n      0x20\n      add\n      dup1\n      dup4\n      gt\n      tag_337\n      jumpi\n    tag_336:\n      pop\n      pop\n      pop\n      pop\n      pop\n      dup2\n      mstore\n      0x20\n      add\n        /* \"Post.sol\":6387:6391  post */\n      dup3\n        /* \"Post.sol\":6387:6407  post.CommentUserName */\n      0x09\n      add\n        /* \"Post.sol\":5968:6573  Post({... */\n      dup1\n      sload\n      dup1\n      0x20\n      mul\n      0x20\n      add\n      mload(0x40)\n      swap1\n      dup2\n      add\n      0x40\n      mstore\n      dup1\n      swap3\n      swap2\n      swap1\n      dup2\n      dup2\n      mstore\n      0x20\n      add\n      0x00\n      swap1\n    tag_338:\n      dup3\n      dup3\n      lt\n      iszero\n      tag_339\n      jumpi\n      dup4\n      dup3\n      swap1\n      0x00\n      mstore\n      keccak256(0x00, 0x20)\n      add\n      dup1\n      sload\n      tag_341\n      swap1\n      tag_188\n      jump\t// in\n    tag_341:\n      dup1\n      0x1f\n      add\n      0x20\n      dup1\n      swap2\n      div\n      mul\n      0x20\n      add\n      mload(0x40)\n      swap1\n      dup2\n      add\n      0x40\n      mstore\n      dup1\n      swap3\n      swap2\n      swap1\n      dup2\n      dup2\n      mstore\n      0x20\n      add\n      dup3\n      dup1\n      sload\n      tag_342\n      swap1\n      tag_188\n      jump\t// in\n    tag_342:\n      dup1\n      iszero\n      tag_343\n      jumpi\n      dup1\n      0x1f\n      lt\n      tag_344\n      jumpi\n      0x0100\n      dup1\n      dup4\n      sload\n      div\n      mul\n      dup4\n      mstore\n      swap2\n      0x20\n      add\n      swap2\n      jump(tag_343)\n    tag_344:\n      dup3\n      add\n      swap2\n      swap1\n      0x00\n      mstore\n      keccak256(0x00, 0x20)\n      swap1\n    tag_345:\n      dup2\n      sload\n      dup2\n      mstore\n      swap1\n      0x01\n      add\n      swap1\n      0x20\n      add\n      dup1\n      dup4\n      gt\n      tag_345\n      jumpi\n      dup3\n      swap1\n      sub\n      0x1f\n      and\n      dup3\n      add\n      swap2\n    tag_343:\n      pop\n      pop\n      pop\n      pop\n      pop\n      dup2\n      mstore\n      0x20\n      add\n      swap1\n      0x01\n      add\n      swap1\n      jump(tag_338)\n    tag_339:\n      pop\n      pop\n      pop\n      pop\n      dup2\n      mstore\n      0x20\n      add\n        /* \"Post.sol\":6438:6442  post */\n      dup3\n        /* \"Post.sol\":6438:6454  post.CommentDate */\n      0x0a\n      add\n        /* \"Post.sol\":5968:6573  Post({... */\n      dup1\n      sload\n      dup1\n      0x20\n      mul\n      0x20\n      add\n      mload(0x40)\n      swap1\n      dup2\n      add\n      0x40\n      mstore\n      dup1\n      swap3\n      swap2\n      swap1\n      dup2\n      dup2\n      mstore\n      0x20\n      add\n      dup3\n      dup1\n      sload\n      dup1\n      iszero\n      tag_346\n      jumpi\n      0x20\n      mul\n      dup3\n      add\n      swap2\n      swap1\n      0x00\n      mstore\n      keccak256(0x00, 0x20)\n      swap1\n    tag_347:\n      dup2\n      sload\n      dup2\n      mstore\n      0x20\n      add\n      swap1\n      0x01\n      add\n      swap1\n      dup1\n      dup4\n      gt\n      tag_347\n      jumpi\n    tag_346:\n      pop\n      pop\n      pop\n      pop\n      pop\n      dup2\n      mstore\n      0x20\n      add\n        /* \"Post.sol\":6485:6489  post */\n      dup3\n        /* \"Post.sol\":6485:6501  post.CommentText */\n      0x0b\n      add\n        /* \"Post.sol\":5968:6573  Post({... */\n      dup1\n      sload\n      dup1\n      0x20\n      mul\n      0x20\n      add\n      mload(0x40)\n      swap1\n      dup2\n      add\n      0x40\n      mstore\n      dup1\n      swap3\n      swap2\n      swap1\n      dup2\n      dup2\n      mstore\n      0x20\n      add\n      0x00\n      swap1\n    tag_348:\n      dup3\n      dup3\n      lt\n      iszero\n      tag_349\n      jumpi\n      dup4\n      dup3\n      swap1\n      0x00\n      mstore\n      keccak256(0x00, 0x20)\n      add\n      dup1\n      sload\n      tag_351\n      swap1\n      tag_188\n      jump\t// in\n    tag_351:\n      dup1\n      0x1f\n      add\n      0x20\n      dup1\n      swap2\n      div\n      mul\n      0x20\n      add\n      mload(0x40)\n      swap1\n      dup2\n      add\n      0x40\n      mstore\n      dup1\n      swap3\n      swap2\n      swap1\n      dup2\n      dup2\n      mstore\n      0x20\n      add\n      dup3\n      dup1\n      sload\n      tag_352\n      swap1\n      tag_188\n      jump\t// in\n    tag_352:\n      dup1\n      iszero\n      tag_353\n      jumpi\n      dup1\n      0x1f\n      lt\n      tag_354\n      jumpi\n      0x0100\n      dup1\n      dup4\n      sload\n      div\n      mul\n      dup4\n      mstore\n      swap2\n      0x20\n      add\n      swap2\n      jump(tag_353)\n    tag_354:\n      dup3\n      add\n      swap2\n      swap1\n      0x00\n      mstore\n      keccak256(0x00, 0x20)\n      swap1\n    tag_355:\n      dup2\n      sload\n      dup2\n      mstore\n      swap1\n      0x01\n      add\n      swap1\n      0x20\n      add\n      dup1\n      dup4\n      gt\n      tag_355\n      jumpi\n      dup3\n      swap1\n      sub\n      0x1f\n      and\n      dup3\n      add\n      swap2\n    tag_353:\n      pop\n      pop\n      pop\n      pop\n      pop\n      dup2\n      mstore\n      0x20\n      add\n      swap1\n      0x01\n      add\n      swap1\n      jump(tag_348)\n    tag_349:\n      pop\n      pop\n      pop\n      pop\n      dup2\n      mstore\n      0x20\n      add\n        /* \"Post.sol\":6537:6541  post */\n      dup3\n        /* \"Post.sol\":6537:6558  post.CommentLikeCount */\n      0x0c\n      add\n        /* \"Post.sol\":5968:6573  Post({... */\n      dup1\n      sload\n      dup1\n      0x20\n      mul\n      0x20\n      add\n      mload(0x40)\n      swap1\n      dup2\n      add\n      0x40\n      mstore\n      dup1\n      swap3\n      swap2\n      swap1\n      dup2\n      dup2\n      mstore\n      0x20\n      add\n      dup3\n      dup1\n      sload\n      dup1\n      iszero\n      tag_356\n      jumpi\n      0x20\n      mul\n      dup3\n      add\n      swap2\n      swap1\n      0x00\n      mstore\n      keccak256(0x00, 0x20)\n      swap1\n    tag_357:\n      dup2\n      sload\n      dup2\n      mstore\n      0x20\n      add\n      swap1\n      0x01\n      add\n      swap1\n      dup1\n      dup4\n      gt\n      tag_357\n      jumpi\n    tag_356:\n      pop\n      pop\n      pop\n      pop\n      pop\n      dup2\n      mstore\n      pop\n        /* \"Post.sol\":5951:5962  folderPosts */\n      dup4\n        /* \"Post.sol\":5963:5964  i */\n      dup4\n        /* \"Post.sol\":5951:5965  folderPosts[i] */\n      dup2\n      mload\n      dup2\n      lt\n      tag_359\n      jumpi\n      tag_359\n      tag_218\n      jump\t// in\n    tag_359:\n      0x20\n      swap1\n      dup2\n      mul\n      swap2\n      swap1\n      swap2\n      add\n      add\n        /* \"Post.sol\":5951:6573  folderPosts[i] = Post({... */\n      mstore\n      pop\n        /* \"Post.sol\":5880:5883  i++ */\n      0x01\n      add\n        /* \"Post.sol\":5840:6584  for (uint256 i = 0; i < postIds.length; i++) {... */\n      jump(tag_316)\n        /* \"Post.sol\":4045:4949  function getExplorePage() public view returns (Post[] memory) {... */\n    tag_99:\n        /* \"Post.sol\":4092:4105  Post[] memory */\n      0x60\n        /* \"Post.sol\":4117:4142  Post[] memory explorePage */\n      0x00\n        /* \"Post.sol\":4156:4169  numberOfPosts */\n      sload(0x07)\n        /* \"Post.sol\":4145:4170  new Post[](numberOfPosts) */\n      0xffffffffffffffff\n      dup2\n      gt\n      iszero\n      tag_362\n      jumpi\n      tag_362\n      tag_208\n      jump\t// in\n    tag_362:\n      mload(0x40)\n      swap1\n      dup1\n      dup3\n      mstore\n      dup1\n      0x20\n      mul\n      0x20\n      add\n      dup3\n      add\n      0x40\n      mstore\n      dup1\n      iszero\n      tag_363\n      jumpi\n      dup2\n      0x20\n      add\n    tag_364:\n      tag_365\n      mload(0x40)\n      dup1\n      0x01a0\n      add\n      0x40\n      mstore\n      dup1\n      and(sub(shl(0xa0, 0x01), 0x01), 0x00)\n      dup2\n      mstore\n      0x20\n      add\n      0x00\n      dup2\n      mstore\n      0x20\n      add\n      0x60\n      dup2\n      mstore\n      0x20\n      add\n      0x60\n      dup2\n      mstore\n      0x20\n      add\n      0x60\n      dup2\n      mstore\n      0x20\n      add\n      0x00\n      dup2\n      mstore\n      0x20\n      add\n      0x00\n      dup2\n      mstore\n      0x20\n      add\n      0x00\n      dup2\n      mstore\n      0x20\n      add\n      0x60\n      dup2\n      mstore\n      0x20\n      add\n      0x60\n      dup2\n      mstore\n      0x20\n      add\n      0x60\n      dup2\n      mstore\n      0x20\n      add\n      0x60\n      dup2\n      mstore\n      0x20\n      add\n      0x60\n      dup2\n      mstore\n      pop\n      swap1\n      jump\n    tag_365:\n      dup2\n      mstore\n      0x20\n      add\n      swap1\n      0x01\n      swap1\n      sub\n      swap1\n      dup2\n      tag_364\n      jumpi\n      swap1\n      pop\n    tag_363:\n      pop\n        /* \"Post.sol\":4117:4170  Post[] memory explorePage = new Post[](numberOfPosts) */\n      swap1\n      pop\n        /* \"Post.sol\":4186:4195  uint256 i */\n      0x00\n        /* \"Post.sol\":4181:4915  for (uint256 i = 0; i < numberOfPosts; i++) {... */\n    tag_366:\n        /* \"Post.sol\":4205:4218  numberOfPosts */\n      sload(0x07)\n        /* \"Post.sol\":4201:4202  i */\n      dup2\n        /* \"Post.sol\":4201:4218  i < numberOfPosts */\n      lt\n        /* \"Post.sol\":4181:4915  for (uint256 i = 0; i < numberOfPosts; i++) {... */\n      iszero\n      tag_367\n      jumpi\n        /* \"Post.sol\":4239:4256  Post storage item */\n      0x00\n        /* \"Post.sol\":4259:4267  posts[i] */\n      dup2\n      dup2\n      mstore\n      0x20\n      dup2\n      dup2\n      mstore\n      0x40\n      swap2\n      dup3\n      swap1\n      keccak256\n        /* \"Post.sol\":4299:4904  Post({... */\n      dup3\n      mload\n      0x01a0\n      dup2\n      add\n      dup5\n      mstore\n        /* \"Post.sol\":4328:4337  item.user */\n      dup2\n      sload\n      sub(shl(0xa0, 0x01), 0x01)\n      and\n        /* \"Post.sol\":4299:4904  Post({... */\n      dup2\n      mstore\n        /* \"Post.sol\":4328:4337  item.user */\n      0x01\n        /* \"Post.sol\":4363:4374  item.postId */\n      dup3\n      add\n      sload\n        /* \"Post.sol\":4299:4904  Post({... */\n      swap3\n      dup2\n      add\n      swap3\n      swap1\n      swap3\n      mstore\n        /* \"Post.sol\":4402:4415  item.userName */\n      0x02\n      dup2\n      add\n        /* \"Post.sol\":4299:4904  Post({... */\n      dup1\n      sload\n        /* \"Post.sol\":4259:4267  posts[i] */\n      swap2\n      swap4\n        /* \"Post.sol\":4299:4904  Post({... */\n      dup4\n      add\n      swap2\n      tag_369\n      swap1\n      tag_188\n      jump\t// in\n    tag_369:\n      dup1\n      0x1f\n      add\n      0x20\n      dup1\n      swap2\n      div\n      mul\n      0x20\n      add\n      mload(0x40)\n      swap1\n      dup2\n      add\n      0x40\n      mstore\n      dup1\n      swap3\n      swap2\n      swap1\n      dup2\n      dup2\n      mstore\n      0x20\n      add\n      dup3\n      dup1\n      sload\n      tag_370\n      swap1\n      tag_188\n      jump\t// in\n    tag_370:\n      dup1\n      iszero\n      tag_371\n      jumpi\n      dup1\n      0x1f\n      lt\n      tag_372\n      jumpi\n      0x0100\n      dup1\n      dup4\n      sload\n      div\n      mul\n      dup4\n      mstore\n      swap2\n      0x20\n      add\n      swap2\n      jump(tag_371)\n    tag_372:\n      dup3\n      add\n      swap2\n      swap1\n      0x00\n      mstore\n      keccak256(0x00, 0x20)\n      swap1\n    tag_373:\n      dup2\n      sload\n      dup2\n      mstore\n      swap1\n      0x01\n      add\n      swap1\n      0x20\n      add\n      dup1\n      dup4\n      gt\n      tag_373\n      jumpi\n      dup3\n      swap1\n      sub\n      0x1f\n      and\n      dup3\n      add\n      swap2\n    tag_371:\n      pop\n      pop\n      pop\n      pop\n      pop\n      dup2\n      mstore\n      0x20\n      add\n        /* \"Post.sol\":4442:4446  item */\n      dup3\n        /* \"Post.sol\":4442:4454  item.caption */\n      0x03\n      add\n        /* \"Post.sol\":4299:4904  Post({... */\n      dup1\n      sload\n      tag_374\n      swap1\n      tag_188\n      jump\t// in\n    tag_374:\n      dup1\n      0x1f\n      add\n      0x20\n      dup1\n      swap2\n      div\n      mul\n      0x20\n      add\n      mload(0x40)\n      swap1\n      dup2\n      add\n      0x40\n      mstore\n      dup1\n      swap3\n      swap2\n      swap1\n      dup2\n      dup2\n      mstore\n      0x20\n      add\n      dup3\n      dup1\n      sload\n      tag_375\n      swap1\n      tag_188\n      jump\t// in\n    tag_375:\n      dup1\n      iszero\n      tag_376\n      jumpi\n      dup1\n      0x1f\n      lt\n      tag_377\n      jumpi\n      0x0100\n      dup1\n      dup4\n      sload\n      div\n      mul\n      dup4\n      mstore\n      swap2\n      0x20\n      add\n      swap2\n      jump(tag_376)\n    tag_377:\n      dup3\n      add\n      swap2\n      swap1\n      0x00\n      mstore\n      keccak256(0x00, 0x20)\n      swap1\n    tag_378:\n      dup2\n      sload\n      dup2\n      mstore\n      swap1\n      0x01\n      add\n      swap1\n      0x20\n      add\n      dup1\n      dup4\n      gt\n      tag_378\n      jumpi\n      dup3\n      swap1\n      sub\n      0x1f\n      and\n      dup3\n      add\n      swap2\n    tag_376:\n      pop\n      pop\n      pop\n      pop\n      pop\n      dup2\n      mstore\n      0x20\n      add\n        /* \"Post.sol\":4488:4492  item */\n      dup3\n        /* \"Post.sol\":4488:4507  item.cidPostPicture */\n      0x04\n      add\n        /* \"Post.sol\":4299:4904  Post({... */\n      dup1\n      sload\n      tag_379\n      swap1\n      tag_188\n      jump\t// in\n    tag_379:\n      dup1\n      0x1f\n      add\n      0x20\n      dup1\n      swap2\n      div\n      mul\n      0x20\n      add\n      mload(0x40)\n      swap1\n      dup2\n      add\n      0x40\n      mstore\n      dup1\n      swap3\n      swap2\n      swap1\n      dup2\n      dup2\n      mstore\n      0x20\n      add\n      dup3\n      dup1\n      sload\n      tag_380\n      swap1\n      tag_188\n      jump\t// in\n    tag_380:\n      dup1\n      iszero\n      tag_381\n      jumpi\n      dup1\n      0x1f\n      lt\n      tag_382\n      jumpi\n      0x0100\n      dup1\n      dup4\n      sload\n      div\n      mul\n      dup4\n      mstore\n      swap2\n      0x20\n      add\n      swap2\n      jump(tag_381)\n    tag_382:\n      dup3\n      add\n      swap2\n      swap1\n      0x00\n      mstore\n      keccak256(0x00, 0x20)\n      swap1\n    tag_383:\n      dup2\n      sload\n      dup2\n      mstore\n      swap1\n      0x01\n      add\n      swap1\n      0x20\n      add\n      dup1\n      dup4\n      gt\n      tag_383\n      jumpi\n      dup3\n      swap1\n      sub\n      0x1f\n      and\n      dup3\n      add\n      swap2\n    tag_381:\n      pop\n      pop\n      pop\n      pop\n      pop\n      dup2\n      mstore\n      0x20\n      add\n        /* \"Post.sol\":4531:4535  item */\n      dup3\n        /* \"Post.sol\":4531:4540  item.date */\n      0x05\n      add\n      sload\n        /* \"Post.sol\":4299:4904  Post({... */\n      dup2\n      mstore\n      0x20\n      add\n        /* \"Post.sol\":4569:4573  item */\n      dup3\n        /* \"Post.sol\":4569:4583  item.likeCount */\n      0x06\n      add\n      sload\n        /* \"Post.sol\":4299:4904  Post({... */\n      dup2\n      mstore\n      0x20\n      add\n        /* \"Post.sol\":4617:4621  item */\n      dup3\n        /* \"Post.sol\":4617:4636  item.totalDonations */\n      0x07\n      add\n      sload\n        /* \"Post.sol\":4299:4904  Post({... */\n      dup2\n      mstore\n      0x20\n      add\n        /* \"Post.sol\":4667:4671  item */\n      dup3\n        /* \"Post.sol\":4667:4683  item.CommentUser */\n      0x08\n      add\n        /* \"Post.sol\":4299:4904  Post({... */\n      dup1\n      sload\n      dup1\n      0x20\n      mul\n      0x20\n      add\n      mload(0x40)\n      swap1\n      dup2\n      add\n      0x40\n      mstore\n      dup1\n      swap3\n      swap2\n      swap1\n      dup2\n      dup2\n      mstore\n      0x20\n      add\n      dup3\n      dup1\n      sload\n      dup1\n      iszero\n      tag_384\n      jumpi\n      0x20\n      mul\n      dup3\n      add\n      swap2\n      swap1\n      0x00\n      mstore\n      keccak256(0x00, 0x20)\n      swap1\n    tag_385:\n      dup2\n      sload\n      sub(shl(0xa0, 0x01), 0x01)\n      and\n      dup2\n      mstore\n      0x01\n      swap1\n      swap2\n      add\n      swap1\n      0x20\n      add\n      dup1\n      dup4\n      gt\n      tag_385\n      jumpi\n    tag_384:\n      pop\n      pop\n      pop\n      pop\n      pop\n      dup2\n      mstore\n      0x20\n      add\n        /* \"Post.sol\":4718:4722  item */\n      dup3\n        /* \"Post.sol\":4718:4738  item.CommentUserName */\n      0x09\n      add\n        /* \"Post.sol\":4299:4904  Post({... */\n      dup1\n      sload\n      dup1\n      0x20\n      mul\n      0x20\n      add\n      mload(0x40)\n      swap1\n      dup2\n      add\n      0x40\n      mstore\n      dup1\n      swap3\n      swap2\n      swap1\n      dup2\n      dup2\n      mstore\n      0x20\n      add\n      0x00\n      swap1\n    tag_386:\n      dup3\n      dup3\n      lt\n      iszero\n      tag_387\n      jumpi\n      dup4\n      dup3\n      swap1\n      0x00\n      mstore\n      keccak256(0x00, 0x20)\n      add\n      dup1\n      sload\n      tag_389\n      swap1\n      tag_188\n      jump\t// in\n    tag_389:\n      dup1\n      0x1f\n      add\n      0x20\n      dup1\n      swap2\n      div\n      mul\n      0x20\n      add\n      mload(0x40)\n      swap1\n      dup2\n      add\n      0x40\n      mstore\n      dup1\n      swap3\n      swap2\n      swap1\n      dup2\n      dup2\n      mstore\n      0x20\n      add\n      dup3\n      dup1\n      sload\n      tag_390\n      swap1\n      tag_188\n      jump\t// in\n    tag_390:\n      dup1\n      iszero\n      tag_391\n      jumpi\n      dup1\n      0x1f\n      lt\n      tag_392\n      jumpi\n      0x0100\n      dup1\n      dup4\n      sload\n      div\n      mul\n      dup4\n      mstore\n      swap2\n      0x20\n      add\n      swap2\n      jump(tag_391)\n    tag_392:\n      dup3\n      add\n      swap2\n      swap1\n      0x00\n      mstore\n      keccak256(0x00, 0x20)\n      swap1\n    tag_393:\n      dup2\n      sload\n      dup2\n      mstore\n      swap1\n      0x01\n      add\n      swap1\n      0x20\n      add\n      dup1\n      dup4\n      gt\n      tag_393\n      jumpi\n      dup3\n      swap1\n      sub\n      0x1f\n      and\n      dup3\n      add\n      swap2\n    tag_391:\n      pop\n      pop\n      pop\n      pop\n      pop\n      dup2\n      mstore\n      0x20\n      add\n      swap1\n      0x01\n      add\n      swap1\n      jump(tag_386)\n    tag_387:\n      pop\n      pop\n      pop\n      pop\n      dup2\n      mstore\n      0x20\n      add\n        /* \"Post.sol\":4769:4773  item */\n      dup3\n        /* \"Post.sol\":4769:4785  item.CommentDate */\n      0x0a\n      add\n        /* \"Post.sol\":4299:4904  Post({... */\n      dup1\n      sload\n      dup1\n      0x20\n      mul\n      0x20\n      add\n      mload(0x40)\n      swap1\n      dup2\n      add\n      0x40\n      mstore\n      dup1\n      swap3\n      swap2\n      swap1\n      dup2\n      dup2\n      mstore\n      0x20\n      add\n      dup3\n      dup1\n      sload\n      dup1\n      iszero\n      tag_394\n      jumpi\n      0x20\n      mul\n      dup3\n      add\n      swap2\n      swap1\n      0x00\n      mstore\n      keccak256(0x00, 0x20)\n      swap1\n    tag_395:\n      dup2\n      sload\n      dup2\n      mstore\n      0x20\n      add\n      swap1\n      0x01\n      add\n      swap1\n      dup1\n      dup4\n      gt\n      tag_395\n      jumpi\n    tag_394:\n      pop\n      pop\n      pop\n      pop\n      pop\n      dup2\n      mstore\n      0x20\n      add\n        /* \"Post.sol\":4816:4820  item */\n      dup3\n        /* \"Post.sol\":4816:4832  item.CommentText */\n      0x0b\n      add\n        /* \"Post.sol\":4299:4904  Post({... */\n      dup1\n      sload\n      dup1\n      0x20\n      mul\n      0x20\n      add\n      mload(0x40)\n      swap1\n      dup2\n      add\n      0x40\n      mstore\n      dup1\n      swap3\n      swap2\n      swap1\n      dup2\n      dup2\n      mstore\n      0x20\n      add\n      0x00\n      swap1\n    tag_396:\n      dup3\n      dup3\n      lt\n      iszero\n      tag_397\n      jumpi\n      dup4\n      dup3\n      swap1\n      0x00\n      mstore\n      keccak256(0x00, 0x20)\n      add\n      dup1\n      sload\n      tag_399\n      swap1\n      tag_188\n      jump\t// in\n    tag_399:\n      dup1\n      0x1f\n      add\n      0x20\n      dup1\n      swap2\n      div\n      mul\n      0x20\n      add\n      mload(0x40)\n      swap1\n      dup2\n      add\n      0x40\n      mstore\n      dup1\n      swap3\n      swap2\n      swap1\n      dup2\n      dup2\n      mstore\n      0x20\n      add\n      dup3\n      dup1\n      sload\n      tag_400\n      swap1\n      tag_188\n      jump\t// in\n    tag_400:\n      dup1\n      iszero\n      tag_401\n      jumpi\n      dup1\n      0x1f\n      lt\n      tag_402\n      jumpi\n      0x0100\n      dup1\n      dup4\n      sload\n      div\n      mul\n      dup4\n      mstore\n      swap2\n      0x20\n      add\n      swap2\n      jump(tag_401)\n    tag_402:\n      dup3\n      add\n      swap2\n      swap1\n      0x00\n      mstore\n      keccak256(0x00, 0x20)\n      swap1\n    tag_403:\n      dup2\n      sload\n      dup2\n      mstore\n      swap1\n      0x01\n      add\n      swap1\n      0x20\n      add\n      dup1\n      dup4\n      gt\n      tag_403\n      jumpi\n      dup3\n      swap1\n      sub\n      0x1f\n      and\n      dup3\n      add\n      swap2\n    tag_401:\n      pop\n      pop\n      pop\n      pop\n      pop\n      dup2\n      mstore\n      0x20\n      add\n      swap1\n      0x01\n      add\n      swap1\n      jump(tag_396)\n    tag_397:\n      pop\n      pop\n      pop\n      pop\n      dup2\n      mstore\n      0x20\n      add\n        /* \"Post.sol\":4868:4872  item */\n      dup3\n        /* \"Post.sol\":4868:4889  item.CommentLikeCount */\n      0x0c\n      add\n        /* \"Post.sol\":4299:4904  Post({... */\n      dup1\n      sload\n      dup1\n      0x20\n      mul\n      0x20\n      add\n      mload(0x40)\n      swap1\n      dup2\n      add\n      0x40\n      mstore\n      dup1\n      swap3\n      swap2\n      swap1\n      dup2\n      dup2\n      mstore\n      0x20\n      add\n      dup3\n      dup1\n      sload\n      dup1\n      iszero\n      tag_404\n      jumpi\n      0x20\n      mul\n      dup3\n      add\n      swap2\n      swap1\n      0x00\n      mstore\n      keccak256(0x00, 0x20)\n      swap1\n    tag_405:\n      dup2\n      sload\n      dup2\n      mstore\n      0x20\n      add\n      swap1\n      0x01\n      add\n      swap1\n      dup1\n      dup4\n      gt\n      tag_405\n      jumpi\n    tag_404:\n      pop\n      pop\n      pop\n      pop\n      pop\n      dup2\n      mstore\n      pop\n        /* \"Post.sol\":4282:4293  explorePage */\n      dup4\n        /* \"Post.sol\":4294:4295  i */\n      dup4\n        /* \"Post.sol\":4282:4296  explorePage[i] */\n      dup2\n      mload\n      dup2\n      lt\n      tag_407\n      jumpi\n      tag_407\n      tag_218\n      jump\t// in\n    tag_407:\n      0x20\n      swap1\n      dup2\n      mul\n      swap2\n      swap1\n      swap2\n      add\n      add\n        /* \"Post.sol\":4282:4904  explorePage[i] = Post({... */\n      mstore\n      pop\n        /* \"Post.sol\":4220:4223  i++ */\n      0x01\n      add\n        /* \"Post.sol\":4181:4915  for (uint256 i = 0; i < numberOfPosts; i++) {... */\n      jump(tag_366)\n    tag_367:\n      pop\n        /* \"Post.sol\":4931:4942  explorePage */\n      swap2\n        /* \"Post.sol\":4045:4949  function getExplorePage() public view returns (Post[] memory) {... */\n      swap1\n      pop\n      jump\t// out\n        /* \"Post.sol\":14077:14252  function getPostById(uint256 _postId) public view returns (Post memory) {... */\n    tag_104:\n        /* \"Post.sol\":14136:14147  Post memory */\n      tag_408\n      mload(0x40)\n      dup1\n      0x01a0\n      add\n      0x40\n      mstore\n      dup1\n      and(sub(shl(0xa0, 0x01), 0x01), 0x00)\n      dup2\n      mstore\n      0x20\n      add\n      0x00\n      dup2\n      mstore\n      0x20\n      add\n      0x60\n      dup2\n      mstore\n      0x20\n      add\n      0x60\n      dup2\n      mstore\n      0x20\n      add\n      0x60\n      dup2\n      mstore\n      0x20\n      add\n      0x00\n      dup2\n      mstore\n      0x20\n      add\n      0x00\n      dup2\n      mstore\n      0x20\n      add\n      0x00\n      dup2\n      mstore\n      0x20\n      add\n      0x60\n      dup2\n      mstore\n      0x20\n      add\n      0x60\n      dup2\n      mstore\n      0x20\n      add\n      0x60\n      dup2\n      mstore\n      0x20\n      add\n      0x60\n      dup2\n      mstore\n      0x20\n      add\n      0x60\n      dup2\n      mstore\n      pop\n      swap1\n      jump\n    tag_408:\n        /* \"Post.sol\":14177:14190  numberOfPosts */\n      sload(0x07)\n        /* \"Post.sol\":14167:14174  _postId */\n      dup3\n        /* \"Post.sol\":14167:14190  _postId < numberOfPosts */\n      lt\n        /* \"Post.sol\":14159:14214  require(_postId < numberOfPosts, \"Post does not exist\") */\n      tag_410\n      jumpi\n      mload(0x40)\n      shl(0xe5, 0x461bcd)\n      dup2\n      mstore\n        /* \"#utility.yul\":16083:16085   */\n      0x20\n        /* \"Post.sol\":14159:14214  require(_postId < numberOfPosts, \"Post does not exist\") */\n      0x04\n      dup3\n      add\n        /* \"#utility.yul\":16065:16086   */\n      mstore\n        /* \"#utility.yul\":16122:16124   */\n      0x13\n        /* \"#utility.yul\":16102:16120   */\n      0x24\n      dup3\n      add\n        /* \"#utility.yul\":16095:16125   */\n      mstore\n      shl(0x6a, 0x141bdcdd08191bd95cc81b9bdd08195e1a5cdd)\n        /* \"#utility.yul\":16141:16159   */\n      0x44\n      dup3\n      add\n        /* \"#utility.yul\":16134:16183   */\n      mstore\n        /* \"#utility.yul\":16200:16218   */\n      0x64\n      add\n        /* \"Post.sol\":14159:14214  require(_postId < numberOfPosts, \"Post does not exist\") */\n      tag_267\n        /* \"#utility.yul\":15881:16224   */\n      jump\n        /* \"Post.sol\":14159:14214  require(_postId < numberOfPosts, \"Post does not exist\") */\n    tag_410:\n        /* \"Post.sol\":14231:14236  posts */\n      0x00\n        /* \"Post.sol\":14231:14245  posts[_postId] */\n      dup3\n      dup2\n      mstore\n      0x20\n      dup2\n      dup2\n      mstore\n      0x40\n      swap2\n      dup3\n      swap1\n      keccak256\n        /* \"Post.sol\":14224:14245  return posts[_postId] */\n      dup3\n      mload\n      0x01a0\n      dup2\n      add\n      dup5\n      mstore\n      dup2\n      sload\n      sub(shl(0xa0, 0x01), 0x01)\n      and\n      dup2\n      mstore\n      0x01\n      dup3\n      add\n      sload\n      swap3\n      dup2\n      add\n      swap3\n      swap1\n      swap3\n      mstore\n      0x02\n      dup2\n      add\n      dup1\n      sload\n      swap3\n      swap4\n        /* \"Post.sol\":14231:14245  posts[_postId] */\n      swap2\n      swap3\n        /* \"Post.sol\":14224:14245  return posts[_postId] */\n      swap2\n      dup5\n      add\n      swap2\n      tag_412\n      swap1\n      tag_188\n      jump\t// in\n    tag_412:\n      dup1\n      0x1f\n      add\n      0x20\n      dup1\n      swap2\n      div\n      mul\n      0x20\n      add\n      mload(0x40)\n      swap1\n      dup2\n      add\n      0x40\n      mstore\n      dup1\n      swap3\n      swap2\n      swap1\n      dup2\n      dup2\n      mstore\n      0x20\n      add\n      dup3\n      dup1\n      sload\n      tag_413\n      swap1\n      tag_188\n      jump\t// in\n    tag_413:\n      dup1\n      iszero\n      tag_414\n      jumpi\n      dup1\n      0x1f\n      lt\n      tag_415\n      jumpi\n      0x0100\n      dup1\n      dup4\n      sload\n      div\n      mul\n      dup4\n      mstore\n      swap2\n      0x20\n      add\n      swap2\n      jump(tag_414)\n    tag_415:\n      dup3\n      add\n      swap2\n      swap1\n      0x00\n      mstore\n      keccak256(0x00, 0x20)\n      swap1\n    tag_416:\n      dup2\n      sload\n      dup2\n      mstore\n      swap1\n      0x01\n      add\n      swap1\n      0x20\n      add\n      dup1\n      dup4\n      gt\n      tag_416\n      jumpi\n      dup3\n      swap1\n      sub\n      0x1f\n      and\n      dup3\n      add\n      swap2\n    tag_414:\n      pop\n      pop\n      pop\n      pop\n      pop\n      dup2\n      mstore\n      0x20\n      add\n      0x03\n      dup3\n      add\n      dup1\n      sload\n      tag_417\n      swap1\n      tag_188\n      jump\t// in\n    tag_417:\n      dup1\n      0x1f\n      add\n      0x20\n      dup1\n      swap2\n      div\n      mul\n      0x20\n      add\n      mload(0x40)\n      swap1\n      dup2\n      add\n      0x40\n      mstore\n      dup1\n      swap3\n      swap2\n      swap1\n      dup2\n      dup2\n      mstore\n      0x20\n      add\n      dup3\n      dup1\n      sload\n      tag_418\n      swap1\n      tag_188\n      jump\t// in\n    tag_418:\n      dup1\n      iszero\n      tag_419\n      jumpi\n      dup1\n      0x1f\n      lt\n      tag_420\n      jumpi\n      0x0100\n      dup1\n      dup4\n      sload\n      div\n      mul\n      dup4\n      mstore\n      swap2\n      0x20\n      add\n      swap2\n      jump(tag_419)\n    tag_420:\n      dup3\n      add\n      swap2\n      swap1\n      0x00\n      mstore\n      keccak256(0x00, 0x20)\n      swap1\n    tag_421:\n      dup2\n      sload\n      dup2\n      mstore\n      swap1\n      0x01\n      add\n      swap1\n      0x20\n      add\n      dup1\n      dup4\n      gt\n      tag_421\n      jumpi\n      dup3\n      swap1\n      sub\n      0x1f\n      and\n      dup3\n      add\n      swap2\n    tag_419:\n      pop\n      pop\n      pop\n      pop\n      pop\n      dup2\n      mstore\n      0x20\n      add\n      0x04\n      dup3\n      add\n      dup1\n      sload\n      tag_422\n      swap1\n      tag_188\n      jump\t// in\n    tag_422:\n      dup1\n      0x1f\n      add\n      0x20\n      dup1\n      swap2\n      div\n      mul\n      0x20\n      add\n      mload(0x40)\n      swap1\n      dup2\n      add\n      0x40\n      mstore\n      dup1\n      swap3\n      swap2\n      swap1\n      dup2\n      dup2\n      mstore\n      0x20\n      add\n      dup3\n      dup1\n      sload\n      tag_423\n      swap1\n      tag_188\n      jump\t// in\n    tag_423:\n      dup1\n      iszero\n      tag_424\n      jumpi\n      dup1\n      0x1f\n      lt\n      tag_425\n      jumpi\n      0x0100\n      dup1\n      dup4\n      sload\n      div\n      mul\n      dup4\n      mstore\n      swap2\n      0x20\n      add\n      swap2\n      jump(tag_424)\n    tag_425:\n      dup3\n      add\n      swap2\n      swap1\n      0x00\n      mstore\n      keccak256(0x00, 0x20)\n      swap1\n    tag_426:\n      dup2\n      sload\n      dup2\n      mstore\n      swap1\n      0x01\n      add\n      swap1\n      0x20\n      add\n      dup1\n      dup4\n      gt\n      tag_426\n      jumpi\n      dup3\n      swap1\n      sub\n      0x1f\n      and\n      dup3\n      add\n      swap2\n    tag_424:\n      pop\n      pop\n      pop\n      pop\n      pop\n      dup2\n      mstore\n      0x20\n      add\n      0x05\n      dup3\n      add\n      sload\n      dup2\n      mstore\n      0x20\n      add\n      0x06\n      dup3\n      add\n      sload\n      dup2\n      mstore\n      0x20\n      add\n      0x07\n      dup3\n      add\n      sload\n      dup2\n      mstore\n      0x20\n      add\n      0x08\n      dup3\n      add\n      dup1\n      sload\n      dup1\n      0x20\n      mul\n      0x20\n      add\n      mload(0x40)\n      swap1\n      dup2\n      add\n      0x40\n      mstore\n      dup1\n      swap3\n      swap2\n      swap1\n      dup2\n      dup2\n      mstore\n      0x20\n      add\n      dup3\n      dup1\n      sload\n      dup1\n      iszero\n      tag_427\n      jumpi\n      0x20\n      mul\n      dup3\n      add\n      swap2\n      swap1\n      0x00\n      mstore\n      keccak256(0x00, 0x20)\n      swap1\n    tag_428:\n      dup2\n      sload\n      sub(shl(0xa0, 0x01), 0x01)\n      and\n      dup2\n      mstore\n      0x01\n      swap1\n      swap2\n      add\n      swap1\n      0x20\n      add\n      dup1\n      dup4\n      gt\n      tag_428\n      jumpi\n    tag_427:\n      pop\n      pop\n      pop\n      pop\n      pop\n      dup2\n      mstore\n      0x20\n      add\n      0x09\n      dup3\n      add\n      dup1\n      sload\n      dup1\n      0x20\n      mul\n      0x20\n      add\n      mload(0x40)\n      swap1\n      dup2\n      add\n      0x40\n      mstore\n      dup1\n      swap3\n      swap2\n      swap1\n      dup2\n      dup2\n      mstore\n      0x20\n      add\n      0x00\n      swap1\n    tag_429:\n      dup3\n      dup3\n      lt\n      iszero\n      tag_430\n      jumpi\n      dup4\n      dup3\n      swap1\n      0x00\n      mstore\n      keccak256(0x00, 0x20)\n      add\n      dup1\n      sload\n      tag_432\n      swap1\n      tag_188\n      jump\t// in\n    tag_432:\n      dup1\n      0x1f\n      add\n      0x20\n      dup1\n      swap2\n      div\n      mul\n      0x20\n      add\n      mload(0x40)\n      swap1\n      dup2\n      add\n      0x40\n      mstore\n      dup1\n      swap3\n      swap2\n      swap1\n      dup2\n      dup2\n      mstore\n      0x20\n      add\n      dup3\n      dup1\n      sload\n      tag_433\n      swap1\n      tag_188\n      jump\t// in\n    tag_433:\n      dup1\n      iszero\n      tag_434\n      jumpi\n      dup1\n      0x1f\n      lt\n      tag_435\n      jumpi\n      0x0100\n      dup1\n      dup4\n      sload\n      div\n      mul\n      dup4\n      mstore\n      swap2\n      0x20\n      add\n      swap2\n      jump(tag_434)\n    tag_435:\n      dup3\n      add\n      swap2\n      swap1\n      0x00\n      mstore\n      keccak256(0x00, 0x20)\n      swap1\n    tag_436:\n      dup2\n      sload\n      dup2\n      mstore\n      swap1\n      0x01\n      add\n      swap1\n      0x20\n      add\n      dup1\n      dup4\n      gt\n      tag_436\n      jumpi\n      dup3\n      swap1\n      sub\n      0x1f\n      and\n      dup3\n      add\n      swap2\n    tag_434:\n      pop\n      pop\n      pop\n      pop\n      pop\n      dup2\n      mstore\n      0x20\n      add\n      swap1\n      0x01\n      add\n      swap1\n      jump(tag_429)\n    tag_430:\n      pop\n      pop\n      pop\n      pop\n      dup2\n      mstore\n      0x20\n      add\n      0x0a\n      dup3\n      add\n      dup1\n      sload\n      dup1\n      0x20\n      mul\n      0x20\n      add\n      mload(0x40)\n      swap1\n      dup2\n      add\n      0x40\n      mstore\n      dup1\n      swap3\n      swap2\n      swap1\n      dup2\n      dup2\n      mstore\n      0x20\n      add\n      dup3\n      dup1\n      sload\n      dup1\n      iszero\n      tag_437\n      jumpi\n      0x20\n      mul\n      dup3\n      add\n      swap2\n      swap1\n      0x00\n      mstore\n      keccak256(0x00, 0x20)\n      swap1\n    tag_438:\n      dup2\n      sload\n      dup2\n      mstore\n      0x20\n      add\n      swap1\n      0x01\n      add\n      swap1\n      dup1\n      dup4\n      gt\n      tag_438\n      jumpi\n    tag_437:\n      pop\n      pop\n      pop\n      pop\n      pop\n      dup2\n      mstore\n      0x20\n      add\n      0x0b\n      dup3\n      add\n      dup1\n      sload\n      dup1\n      0x20\n      mul\n      0x20\n      add\n      mload(0x40)\n      swap1\n      dup2\n      add\n      0x40\n      mstore\n      dup1\n      swap3\n      swap2\n      swap1\n      dup2\n      dup2\n      mstore\n      0x20\n      add\n      0x00\n      swap1\n    tag_439:\n      dup3\n      dup3\n      lt\n      iszero\n      tag_440\n      jumpi\n      dup4\n      dup3\n      swap1\n      0x00\n      mstore\n      keccak256(0x00, 0x20)\n      add\n      dup1\n      sload\n      tag_442\n      swap1\n      tag_188\n      jump\t// in\n    tag_442:\n      dup1\n      0x1f\n      add\n      0x20\n      dup1\n      swap2\n      div\n      mul\n      0x20\n      add\n      mload(0x40)\n      swap1\n      dup2\n      add\n      0x40\n      mstore\n      dup1\n      swap3\n      swap2\n      swap1\n      dup2\n      dup2\n      mstore\n      0x20\n      add\n      dup3\n      dup1\n      sload\n      tag_443\n      swap1\n      tag_188\n      jump\t// in\n    tag_443:\n      dup1\n      iszero\n      tag_444\n      jumpi\n      dup1\n      0x1f\n      lt\n      tag_445\n      jumpi\n      0x0100\n      dup1\n      dup4\n      sload\n      div\n      mul\n      dup4\n      mstore\n      swap2\n      0x20\n      add\n      swap2\n      jump(tag_444)\n    tag_445:\n      dup3\n      add\n      swap2\n      swap1\n      0x00\n      mstore\n      keccak256(0x00, 0x20)\n      swap1\n    tag_446:\n      dup2\n      sload\n      dup2\n      mstore\n      swap1\n      0x01\n      add\n      swap1\n      0x20\n      add\n      dup1\n      dup4\n      gt\n      tag_446\n      jumpi\n      dup3\n      swap1\n      sub\n      0x1f\n      and\n      dup3\n      add\n      swap2\n    tag_444:\n      pop\n      pop\n      pop\n      pop\n      pop\n      dup2\n      mstore\n      0x20\n      add\n      swap1\n      0x01\n      add\n      swap1\n      jump(tag_439)\n    tag_440:\n      pop\n      pop\n      pop\n      pop\n      dup2\n      mstore\n      0x20\n      add\n      0x0c\n      dup3\n      add\n      dup1\n      sload\n      dup1\n      0x20\n      mul\n      0x20\n      add\n      mload(0x40)\n      swap1\n      dup2\n      add\n      0x40\n      mstore\n      dup1\n      swap3\n      swap2\n      swap1\n      dup2\n      dup2\n      mstore\n      0x20\n      add\n      dup3\n      dup1\n      sload\n      dup1\n      iszero\n      tag_447\n      jumpi\n      0x20\n      mul\n      dup3\n      add\n      swap2\n      swap1\n      0x00\n      mstore\n      keccak256(0x00, 0x20)\n      swap1\n    tag_448:\n      dup2\n      sload\n      dup2\n      mstore\n      0x20\n      add\n      swap1\n      0x01\n      add\n      swap1\n      dup1\n      dup4\n      gt\n      tag_448\n      jumpi\n    tag_447:\n      pop\n      pop\n      pop\n      pop\n      pop\n      dup2\n      mstore\n      pop\n      pop\n      swap1\n      pop\n        /* \"Post.sol\":14077:14252  function getPostById(uint256 _postId) public view returns (Post memory) {... */\n      swap2\n      swap1\n      pop\n      jump\t// out\n        /* \"Post.sol\":7318:7415  function getAllFolders() public view returns (string[] memory) {... */\n    tag_114:\n        /* \"Post.sol\":7364:7379  string[] memory */\n      0x60\n        /* \"Post.sol\":7398:7408  allFolders */\n      0x06\n        /* \"Post.sol\":7391:7408  return allFolders */\n      dup1\n      sload\n      dup1\n      0x20\n      mul\n      0x20\n      add\n      mload(0x40)\n      swap1\n      dup2\n      add\n      0x40\n      mstore\n      dup1\n      swap3\n      swap2\n      swap1\n      dup2\n      dup2\n      mstore\n      0x20\n      add\n      0x00\n      swap1\n    tag_450:\n      dup3\n      dup3\n      lt\n      iszero\n      tag_451\n      jumpi\n      dup4\n      dup3\n      swap1\n      0x00\n      mstore\n      keccak256(0x00, 0x20)\n      add\n      dup1\n      sload\n      tag_453\n      swap1\n      tag_188\n      jump\t// in\n    tag_453:\n      dup1\n      0x1f\n      add\n      0x20\n      dup1\n      swap2\n      div\n      mul\n      0x20\n      add\n      mload(0x40)\n      swap1\n      dup2\n      add\n      0x40\n      mstore\n      dup1\n      swap3\n      swap2\n      swap1\n      dup2\n      dup2\n      mstore\n      0x20\n      add\n      dup3\n      dup1\n      sload\n      tag_454\n      swap1\n      tag_188\n      jump\t// in\n    tag_454:\n      dup1\n      iszero\n      tag_455\n      jumpi\n      dup1\n      0x1f\n      lt\n      tag_456\n      jumpi\n      0x0100\n      dup1\n      dup4\n      sload\n      div\n      mul\n      dup4\n      mstore\n      swap2\n      0x20\n      add\n      swap2\n      jump(tag_455)\n    tag_456:\n      dup3\n      add\n      swap2\n      swap1\n      0x00\n      mstore\n      keccak256(0x00, 0x20)\n      swap1\n    tag_457:\n      dup2\n      sload\n      dup2\n      mstore\n      swap1\n      0x01\n      add\n      swap1\n      0x20\n      add\n      dup1\n      dup4\n      gt\n      tag_457\n      jumpi\n      dup3\n      swap1\n      sub\n      0x1f\n      and\n      dup3\n      add\n      swap2\n    tag_455:\n      pop\n      pop\n      pop\n      pop\n      pop\n      dup2\n      mstore\n      0x20\n      add\n      swap1\n      0x01\n      add\n      swap1\n      jump(tag_450)\n    tag_451:\n      pop\n      pop\n      pop\n      pop\n      swap1\n      pop\n        /* \"Post.sol\":7318:7415  function getAllFolders() public view returns (string[] memory) {... */\n      swap1\n      jump\t// out\n        /* \"Post.sol\":8806:10312  function getHome(address _address) public view returns (Post[] memory) {... */\n    tag_119:\n        /* \"Post.sol\":8862:8875  Post[] memory */\n      0x60\n        /* \"Post.sol\":8887:8910  Post[] memory tempPosts */\n      0x00\n        /* \"Post.sol\":8924:8937  numberOfPosts */\n      sload(0x07)\n        /* \"Post.sol\":8913:8938  new Post[](numberOfPosts) */\n      0xffffffffffffffff\n      dup2\n      gt\n      iszero\n      tag_460\n      jumpi\n      tag_460\n      tag_208\n      jump\t// in\n    tag_460:\n      mload(0x40)\n      swap1\n      dup1\n      dup3\n      mstore\n      dup1\n      0x20\n      mul\n      0x20\n      add\n      dup3\n      add\n      0x40\n      mstore\n      dup1\n      iszero\n      tag_461\n      jumpi\n      dup2\n      0x20\n      add\n    tag_462:\n      tag_463\n      mload(0x40)\n      dup1\n      0x01a0\n      add\n      0x40\n      mstore\n      dup1\n      and(sub(shl(0xa0, 0x01), 0x01), 0x00)\n      dup2\n      mstore\n      0x20\n      add\n      0x00\n      dup2\n      mstore\n      0x20\n      add\n      0x60\n      dup2\n      mstore\n      0x20\n      add\n      0x60\n      dup2\n      mstore\n      0x20\n      add\n      0x60\n      dup2\n      mstore\n      0x20\n      add\n      0x00\n      dup2\n      mstore\n      0x20\n      add\n      0x00\n      dup2\n      mstore\n      0x20\n      add\n      0x00\n      dup2\n      mstore\n      0x20\n      add\n      0x60\n      dup2\n      mstore\n      0x20\n      add\n      0x60\n      dup2\n      mstore\n      0x20\n      add\n      0x60\n      dup2\n      mstore\n      0x20\n      add\n      0x60\n      dup2\n      mstore\n      0x20\n      add\n      0x60\n      dup2\n      mstore\n      pop\n      swap1\n      jump\n    tag_463:\n      dup2\n      mstore\n      0x20\n      add\n      swap1\n      0x01\n      swap1\n      sub\n      swap1\n      dup2\n      tag_462\n      jumpi\n      swap1\n      pop\n    tag_461:\n      pop\n        /* \"Post.sol\":9013:9033  socialProfileAddress */\n      sload(0x08)\n        /* \"Post.sol\":8887:8938  Post[] memory tempPosts = new Post[](numberOfPosts) */\n      swap1\n      swap2\n      pop\n        /* \"Post.sol\":8948:8961  uint256 count */\n      0x00\n      swap1\n      sub(shl(0xa0, 0x01), 0x01)\n        /* \"Post.sol\":9013:9033  socialProfileAddress */\n      and\n        /* \"Post.sol\":8948:8961  uint256 count */\n      dup2\n        /* \"Post.sol\":9045:10064  for (uint256 i = 0; i < numberOfPosts; i++) {... */\n    tag_464:\n        /* \"Post.sol\":9069:9082  numberOfPosts */\n      sload(0x07)\n        /* \"Post.sol\":9065:9066  i */\n      dup2\n        /* \"Post.sol\":9065:9082  i < numberOfPosts */\n      lt\n        /* \"Post.sol\":9045:10064  for (uint256 i = 0; i < numberOfPosts; i++) {... */\n      iszero\n      tag_465\n      jumpi\n        /* \"Post.sol\":9165:9182  Post storage post */\n      0x00\n        /* \"Post.sol\":9185:9193  posts[i] */\n      dup2\n      dup2\n      mstore\n      0x20\n      dup2\n      swap1\n      mstore\n      0x40\n      swap1\n      dup2\n      swap1\n      keccak256\n        /* \"Post.sol\":9234:9243  post.user */\n      dup1\n      sload\n        /* \"Post.sol\":9212:9254  profile.checkFollower(post.user, _address) */\n      swap2\n      mload\n      shl(0xe1, 0x2c25a893)\n      dup2\n      mstore\n      sub(shl(0xa0, 0x01), 0x01)\n        /* \"Post.sol\":9234:9243  post.user */\n      swap3\n      dup4\n      and\n        /* \"Post.sol\":9212:9254  profile.checkFollower(post.user, _address) */\n      0x04\n      dup3\n      add\n        /* \"#utility.yul\":18828:18862   */\n      mstore\n        /* \"#utility.yul\":18898:18913   */\n      dup9\n      dup4\n      and\n        /* \"#utility.yul\":18878:18896   */\n      0x24\n      dup3\n      add\n        /* \"#utility.yul\":18871:18914   */\n      mstore\n        /* \"Post.sol\":9185:9193  posts[i] */\n      swap1\n      swap2\n        /* \"Post.sol\":9212:9233  profile.checkFollower */\n      dup5\n      and\n      swap1\n      0x584b5126\n      swap1\n        /* \"#utility.yul\":18740:18758   */\n      0x44\n      add\n        /* \"Post.sol\":9212:9254  profile.checkFollower(post.user, _address) */\n      0x20\n      mload(0x40)\n      dup1\n      dup4\n      sub\n      dup2\n      dup7\n      gas\n      staticcall\n      iszero\n      dup1\n      iszero\n      tag_470\n      jumpi\n      returndatasize\n      0x00\n      dup1\n      returndatacopy\n      revert(0x00, returndatasize)\n    tag_470:\n      pop\n      pop\n      pop\n      pop\n      mload(0x40)\n      returndatasize\n      not(0x1f)\n      0x1f\n      dup3\n      add\n      and\n      dup3\n      add\n      dup1\n      0x40\n      mstore\n      pop\n      dup2\n      add\n      swap1\n      tag_471\n      swap2\n      swap1\n      tag_472\n      jump\t// in\n    tag_471:\n        /* \"Post.sol\":9208:10054  if (profile.checkFollower(post.user, _address)) {... */\n      iszero\n      tag_473\n      jumpi\n        /* \"Post.sol\":9353:10014  Post({... */\n      0x40\n      dup1\n      mload\n      0x01a0\n      dup2\n      add\n      dup3\n      mstore\n        /* \"Post.sol\":9386:9395  post.user */\n      dup3\n      sload\n      sub(shl(0xa0, 0x01), 0x01)\n      and\n        /* \"Post.sol\":9353:10014  Post({... */\n      dup2\n      mstore\n        /* \"Post.sol\":9386:9395  post.user */\n      0x01\n        /* \"Post.sol\":9425:9436  post.postId */\n      dup4\n      add\n      sload\n        /* \"Post.sol\":9353:10014  Post({... */\n      0x20\n      dup3\n      add\n      mstore\n        /* \"Post.sol\":9468:9481  post.userName */\n      0x02\n      dup4\n      add\n        /* \"Post.sol\":9353:10014  Post({... */\n      dup1\n      sload\n      swap2\n      swap3\n      dup4\n      add\n      swap2\n      tag_474\n      swap1\n      tag_188\n      jump\t// in\n    tag_474:\n      dup1\n      0x1f\n      add\n      0x20\n      dup1\n      swap2\n      div\n      mul\n      0x20\n      add\n      mload(0x40)\n      swap1\n      dup2\n      add\n      0x40\n      mstore\n      dup1\n      swap3\n      swap2\n      swap1\n      dup2\n      dup2\n      mstore\n      0x20\n      add\n      dup3\n      dup1\n      sload\n      tag_475\n      swap1\n      tag_188\n      jump\t// in\n    tag_475:\n      dup1\n      iszero\n      tag_476\n      jumpi\n      dup1\n      0x1f\n      lt\n      tag_477\n      jumpi\n      0x0100\n      dup1\n      dup4\n      sload\n      div\n      mul\n      dup4\n      mstore\n      swap2\n      0x20\n      add\n      swap2\n      jump(tag_476)\n    tag_477:\n      dup3\n      add\n      swap2\n      swap1\n      0x00\n      mstore\n      keccak256(0x00, 0x20)\n      swap1\n    tag_478:\n      dup2\n      sload\n      dup2\n      mstore\n      swap1\n      0x01\n      add\n      swap1\n      0x20\n      add\n      dup1\n      dup4\n      gt\n      tag_478\n      jumpi\n      dup3\n      swap1\n      sub\n      0x1f\n      and\n      dup3\n      add\n      swap2\n    tag_476:\n      pop\n      pop\n      pop\n      pop\n      pop\n      dup2\n      mstore\n      0x20\n      add\n        /* \"Post.sol\":9512:9516  post */\n      dup3\n        /* \"Post.sol\":9512:9524  post.caption */\n      0x03\n      add\n        /* \"Post.sol\":9353:10014  Post({... */\n      dup1\n      sload\n      tag_479\n      swap1\n      tag_188\n      jump\t// in\n    tag_479:\n      dup1\n      0x1f\n      add\n      0x20\n      dup1\n      swap2\n      div\n      mul\n      0x20\n      add\n      mload(0x40)\n      swap1\n      dup2\n      add\n      0x40\n      mstore\n      dup1\n      swap3\n      swap2\n      swap1\n      dup2\n      dup2\n      mstore\n      0x20\n      add\n      dup3\n      dup1\n      sload\n      tag_480\n      swap1\n      tag_188\n      jump\t// in\n    tag_480:\n      dup1\n      iszero\n      tag_481\n      jumpi\n      dup1\n      0x1f\n      lt\n      tag_482\n      jumpi\n      0x0100\n      dup1\n      dup4\n      sload\n      div\n      mul\n      dup4\n      mstore\n      swap2\n      0x20\n      add\n      swap2\n      jump(tag_481)\n    tag_482:\n      dup3\n      add\n      swap2\n      swap1\n      0x00\n      mstore\n      keccak256(0x00, 0x20)\n      swap1\n    tag_483:\n      dup2\n      sload\n      dup2\n      mstore\n      swap1\n      0x01\n      add\n      swap1\n      0x20\n      add\n      dup1\n      dup4\n      gt\n      tag_483\n      jumpi\n      dup3\n      swap1\n      sub\n      0x1f\n      and\n      dup3\n      add\n      swap2\n    tag_481:\n      pop\n      pop\n      pop\n      pop\n      pop\n      dup2\n      mstore\n      0x20\n      add\n        /* \"Post.sol\":9562:9566  post */\n      dup3\n        /* \"Post.sol\":9562:9581  post.cidPostPicture */\n      0x04\n      add\n        /* \"Post.sol\":9353:10014  Post({... */\n      dup1\n      sload\n      tag_484\n      swap1\n      tag_188\n      jump\t// in\n    tag_484:\n      dup1\n      0x1f\n      add\n      0x20\n      dup1\n      swap2\n      div\n      mul\n      0x20\n      add\n      mload(0x40)\n      swap1\n      dup2\n      add\n      0x40\n      mstore\n      dup1\n      swap3\n      swap2\n      swap1\n      dup2\n      dup2\n      mstore\n      0x20\n      add\n      dup3\n      dup1\n      sload\n      tag_485\n      swap1\n      tag_188\n      jump\t// in\n    tag_485:\n      dup1\n      iszero\n      tag_486\n      jumpi\n      dup1\n      0x1f\n      lt\n      tag_487\n      jumpi\n      0x0100\n      dup1\n      dup4\n      sload\n      div\n      mul\n      dup4\n      mstore\n      swap2\n      0x20\n      add\n      swap2\n      jump(tag_486)\n    tag_487:\n      dup3\n      add\n      swap2\n      swap1\n      0x00\n      mstore\n      keccak256(0x00, 0x20)\n      swap1\n    tag_488:\n      dup2\n      sload\n      dup2\n      mstore\n      swap1\n      0x01\n      add\n      swap1\n      0x20\n      add\n      dup1\n      dup4\n      gt\n      tag_488\n      jumpi\n      dup3\n      swap1\n      sub\n      0x1f\n      and\n      dup3\n      add\n      swap2\n    tag_486:\n      pop\n      pop\n      pop\n      pop\n      pop\n      dup2\n      mstore\n      0x20\n      add\n        /* \"Post.sol\":9609:9613  post */\n      dup3\n        /* \"Post.sol\":9609:9618  post.date */\n      0x05\n      add\n      sload\n        /* \"Post.sol\":9353:10014  Post({... */\n      dup2\n      mstore\n      0x20\n      add\n        /* \"Post.sol\":9651:9655  post */\n      dup3\n        /* \"Post.sol\":9651:9665  post.likeCount */\n      0x06\n      add\n      sload\n        /* \"Post.sol\":9353:10014  Post({... */\n      dup2\n      mstore\n      0x20\n      add\n        /* \"Post.sol\":9703:9707  post */\n      dup3\n        /* \"Post.sol\":9703:9722  post.totalDonations */\n      0x07\n      add\n      sload\n        /* \"Post.sol\":9353:10014  Post({... */\n      dup2\n      mstore\n      0x20\n      add\n        /* \"Post.sol\":9757:9761  post */\n      dup3\n        /* \"Post.sol\":9757:9773  post.CommentUser */\n      0x08\n      add\n        /* \"Post.sol\":9353:10014  Post({... */\n      dup1\n      sload\n      dup1\n      0x20\n      mul\n      0x20\n      add\n      mload(0x40)\n      swap1\n      dup2\n      add\n      0x40\n      mstore\n      dup1\n      swap3\n      swap2\n      swap1\n      dup2\n      dup2\n      mstore\n      0x20\n      add\n      dup3\n      dup1\n      sload\n      dup1\n      iszero\n      tag_489\n      jumpi\n      0x20\n      mul\n      dup3\n      add\n      swap2\n      swap1\n      0x00\n      mstore\n      keccak256(0x00, 0x20)\n      swap1\n    tag_490:\n      dup2\n      sload\n      sub(shl(0xa0, 0x01), 0x01)\n      and\n      dup2\n      mstore\n      0x01\n      swap1\n      swap2\n      add\n      swap1\n      0x20\n      add\n      dup1\n      dup4\n      gt\n      tag_490\n      jumpi\n    tag_489:\n      pop\n      pop\n      pop\n      pop\n      pop\n      dup2\n      mstore\n      0x20\n      add\n        /* \"Post.sol\":9812:9816  post */\n      dup3\n        /* \"Post.sol\":9812:9832  post.CommentUserName */\n      0x09\n      add\n        /* \"Post.sol\":9353:10014  Post({... */\n      dup1\n      sload\n      dup1\n      0x20\n      mul\n      0x20\n      add\n      mload(0x40)\n      swap1\n      dup2\n      add\n      0x40\n      mstore\n      dup1\n      swap3\n      swap2\n      swap1\n      dup2\n      dup2\n      mstore\n      0x20\n      add\n      0x00\n      swap1\n    tag_491:\n      dup3\n      dup3\n      lt\n      iszero\n      tag_492\n      jumpi\n      dup4\n      dup3\n      swap1\n      0x00\n      mstore\n      keccak256(0x00, 0x20)\n      add\n      dup1\n      sload\n      tag_494\n      swap1\n      tag_188\n      jump\t// in\n    tag_494:\n      dup1\n      0x1f\n      add\n      0x20\n      dup1\n      swap2\n      div\n      mul\n      0x20\n      add\n      mload(0x40)\n      swap1\n      dup2\n      add\n      0x40\n      mstore\n      dup1\n      swap3\n      swap2\n      swap1\n      dup2\n      dup2\n      mstore\n      0x20\n      add\n      dup3\n      dup1\n      sload\n      tag_495\n      swap1\n      tag_188\n      jump\t// in\n    tag_495:\n      dup1\n      iszero\n      tag_496\n      jumpi\n      dup1\n      0x1f\n      lt\n      tag_497\n      jumpi\n      0x0100\n      dup1\n      dup4\n      sload\n      div\n      mul\n      dup4\n      mstore\n      swap2\n      0x20\n      add\n      swap2\n      jump(tag_496)\n    tag_497:\n      dup3\n      add\n      swap2\n      swap1\n      0x00\n      mstore\n      keccak256(0x00, 0x20)\n      swap1\n    tag_498:\n      dup2\n      sload\n      dup2\n      mstore\n      swap1\n      0x01\n      add\n      swap1\n      0x20\n      add\n      dup1\n      dup4\n      gt\n      tag_498\n      jumpi\n      dup3\n      swap1\n      sub\n      0x1f\n      and\n      dup3\n      add\n      swap2\n    tag_496:\n      pop\n      pop\n      pop\n      pop\n      pop\n      dup2\n      mstore\n      0x20\n      add\n      swap1\n      0x01\n      add\n      swap1\n      jump(tag_491)\n    tag_492:\n      pop\n      pop\n      pop\n      pop\n      dup2\n      mstore\n      0x20\n      add\n        /* \"Post.sol\":9867:9871  post */\n      dup3\n        /* \"Post.sol\":9867:9883  post.CommentDate */\n      0x0a\n      add\n        /* \"Post.sol\":9353:10014  Post({... */\n      dup1\n      sload\n      dup1\n      0x20\n      mul\n      0x20\n      add\n      mload(0x40)\n      swap1\n      dup2\n      add\n      0x40\n      mstore\n      dup1\n      swap3\n      swap2\n      swap1\n      dup2\n      dup2\n      mstore\n      0x20\n      add\n      dup3\n      dup1\n      sload\n      dup1\n      iszero\n      tag_499\n      jumpi\n      0x20\n      mul\n      dup3\n      add\n      swap2\n      swap1\n      0x00\n      mstore\n      keccak256(0x00, 0x20)\n      swap1\n    tag_500:\n      dup2\n      sload\n      dup2\n      mstore\n      0x20\n      add\n      swap1\n      0x01\n      add\n      swap1\n      dup1\n      dup4\n      gt\n      tag_500\n      jumpi\n    tag_499:\n      pop\n      pop\n      pop\n      pop\n      pop\n      dup2\n      mstore\n      0x20\n      add\n        /* \"Post.sol\":9918:9922  post */\n      dup3\n        /* \"Post.sol\":9918:9934  post.CommentText */\n      0x0b\n      add\n        /* \"Post.sol\":9353:10014  Post({... */\n      dup1\n      sload\n      dup1\n      0x20\n      mul\n      0x20\n      add\n      mload(0x40)\n      swap1\n      dup2\n      add\n      0x40\n      mstore\n      dup1\n      swap3\n      swap2\n      swap1\n      dup2\n      dup2\n      mstore\n      0x20\n      add\n      0x00\n      swap1\n    tag_501:\n      dup3\n      dup3\n      lt\n      iszero\n      tag_502\n      jumpi\n      dup4\n      dup3\n      swap1\n      0x00\n      mstore\n      keccak256(0x00, 0x20)\n      add\n      dup1\n      sload\n      tag_504\n      swap1\n      tag_188\n      jump\t// in\n    tag_504:\n      dup1\n      0x1f\n      add\n      0x20\n      dup1\n      swap2\n      div\n      mul\n      0x20\n      add\n      mload(0x40)\n      swap1\n      dup2\n      add\n      0x40\n      mstore\n      dup1\n      swap3\n      swap2\n      swap1\n      dup2\n      dup2\n      mstore\n      0x20\n      add\n      dup3\n      dup1\n      sload\n      tag_505\n      swap1\n      tag_188\n      jump\t// in\n    tag_505:\n      dup1\n      iszero\n      tag_506\n      jumpi\n      dup1\n      0x1f\n      lt\n      tag_507\n      jumpi\n      0x0100\n      dup1\n      dup4\n      sload\n      div\n      mul\n      dup4\n      mstore\n      swap2\n      0x20\n      add\n      swap2\n      jump(tag_506)\n    tag_507:\n      dup3\n      add\n      swap2\n      swap1\n      0x00\n      mstore\n      keccak256(0x00, 0x20)\n      swap1\n    tag_508:\n      dup2\n      sload\n      dup2\n      mstore\n      swap1\n      0x01\n      add\n      swap1\n      0x20\n      add\n      dup1\n      dup4\n      gt\n      tag_508\n      jumpi\n      dup3\n      swap1\n      sub\n      0x1f\n      and\n      dup3\n      add\n      swap2\n    tag_506:\n      pop\n      pop\n      pop\n      pop\n      pop\n      dup2\n      mstore\n      0x20\n      add\n      swap1\n      0x01\n      add\n      swap1\n      jump(tag_501)\n    tag_502:\n      pop\n      pop\n      pop\n      pop\n      dup2\n      mstore\n      0x20\n      add\n        /* \"Post.sol\":9974:9978  post */\n      dup3\n        /* \"Post.sol\":9974:9995  post.CommentLikeCount */\n      0x0c\n      add\n        /* \"Post.sol\":9353:10014  Post({... */\n      dup1\n      sload\n      dup1\n      0x20\n      mul\n      0x20\n      add\n      mload(0x40)\n      swap1\n      dup2\n      add\n      0x40\n      mstore\n      dup1\n      swap3\n      swap2\n      swap1\n      dup2\n      dup2\n      mstore\n      0x20\n      add\n      dup3\n      dup1\n      sload\n      dup1\n      iszero\n      tag_509\n      jumpi\n      0x20\n      mul\n      dup3\n      add\n      swap2\n      swap1\n      0x00\n      mstore\n      keccak256(0x00, 0x20)\n      swap1\n    tag_510:\n      dup2\n      sload\n      dup2\n      mstore\n      0x20\n      add\n      swap1\n      0x01\n      add\n      swap1\n      dup1\n      dup4\n      gt\n      tag_510\n      jumpi\n    tag_509:\n      pop\n      pop\n      pop\n      pop\n      pop\n      dup2\n      mstore\n      pop\n        /* \"Post.sol\":9334:9343  tempPosts */\n      dup6\n        /* \"Post.sol\":9344:9349  count */\n      dup6\n        /* \"Post.sol\":9334:9350  tempPosts[count] */\n      dup2\n      mload\n      dup2\n      lt\n      tag_512\n      jumpi\n      tag_512\n      tag_218\n      jump\t// in\n    tag_512:\n      0x20\n      mul\n      0x20\n      add\n      add\n        /* \"Post.sol\":9334:10014  tempPosts[count] = Post({... */\n      dup2\n      swap1\n      mstore\n      pop\n        /* \"Post.sol\":10032:10039  count++ */\n      dup4\n      dup1\n      tag_513\n      swap1\n      tag_279\n      jump\t// in\n    tag_513:\n      swap5\n      pop\n      pop\n        /* \"Post.sol\":9208:10054  if (profile.checkFollower(post.user, _address)) {... */\n    tag_473:\n      pop\n        /* \"Post.sol\":9084:9087  i++ */\n      0x01\n      add\n        /* \"Post.sol\":9045:10064  for (uint256 i = 0; i < numberOfPosts; i++) {... */\n      jump(tag_464)\n    tag_465:\n      pop\n        /* \"Post.sol\":10126:10153  Post[] memory followedPosts */\n      0x00\n        /* \"Post.sol\":10167:10172  count */\n      dup3\n        /* \"Post.sol\":10156:10173  new Post[](count) */\n      0xffffffffffffffff\n      dup2\n      gt\n      iszero\n      tag_515\n      jumpi\n      tag_515\n      tag_208\n      jump\t// in\n    tag_515:\n      mload(0x40)\n      swap1\n      dup1\n      dup3\n      mstore\n      dup1\n      0x20\n      mul\n      0x20\n      add\n      dup3\n      add\n      0x40\n      mstore\n      dup1\n      iszero\n      tag_516\n      jumpi\n      dup2\n      0x20\n      add\n    tag_517:\n      tag_518\n      mload(0x40)\n      dup1\n      0x01a0\n      add\n      0x40\n      mstore\n      dup1\n      and(sub(shl(0xa0, 0x01), 0x01), 0x00)\n      dup2\n      mstore\n      0x20\n      add\n      0x00\n      dup2\n      mstore\n      0x20\n      add\n      0x60\n      dup2\n      mstore\n      0x20\n      add\n      0x60\n      dup2\n      mstore\n      0x20\n      add\n      0x60\n      dup2\n      mstore\n      0x20\n      add\n      0x00\n      dup2\n      mstore\n      0x20\n      add\n      0x00\n      dup2\n      mstore\n      0x20\n      add\n      0x00\n      dup2\n      mstore\n      0x20\n      add\n      0x60\n      dup2\n      mstore\n      0x20\n      add\n      0x60\n      dup2\n      mstore\n      0x20\n      add\n      0x60\n      dup2\n      mstore\n      0x20\n      add\n      0x60\n      dup2\n      mstore\n      0x20\n      add\n      0x60\n      dup2\n      mstore\n      pop\n      swap1\n      jump\n    tag_518:\n      dup2\n      mstore\n      0x20\n      add\n      swap1\n      0x01\n      swap1\n      sub\n      swap1\n      dup2\n      tag_517\n      jumpi\n      swap1\n      pop\n    tag_516:\n      pop\n        /* \"Post.sol\":10126:10173  Post[] memory followedPosts = new Post[](count) */\n      swap1\n      pop\n        /* \"Post.sol\":10188:10197  uint256 j */\n      0x00\n        /* \"Post.sol\":10183:10275  for (uint256 j = 0; j < count; j++) {... */\n    tag_519:\n        /* \"Post.sol\":10207:10212  count */\n      dup4\n        /* \"Post.sol\":10203:10204  j */\n      dup2\n        /* \"Post.sol\":10203:10212  j < count */\n      lt\n        /* \"Post.sol\":10183:10275  for (uint256 j = 0; j < count; j++) {... */\n      iszero\n      tag_520\n      jumpi\n        /* \"Post.sol\":10252:10261  tempPosts */\n      dup5\n        /* \"Post.sol\":10262:10263  j */\n      dup2\n        /* \"Post.sol\":10252:10264  tempPosts[j] */\n      dup2\n      mload\n      dup2\n      lt\n      tag_523\n      jumpi\n      tag_523\n      tag_218\n      jump\t// in\n    tag_523:\n      0x20\n      mul\n      0x20\n      add\n      add\n      mload\n        /* \"Post.sol\":10233:10246  followedPosts */\n      dup3\n        /* \"Post.sol\":10247:10248  j */\n      dup3\n        /* \"Post.sol\":10233:10249  followedPosts[j] */\n      dup2\n      mload\n      dup2\n      lt\n      tag_525\n      jumpi\n      tag_525\n      tag_218\n      jump\t// in\n    tag_525:\n      0x20\n      swap1\n      dup2\n      mul\n      swap2\n      swap1\n      swap2\n      add\n      add\n        /* \"Post.sol\":10233:10264  followedPosts[j] = tempPosts[j] */\n      mstore\n        /* \"Post.sol\":10214:10217  j++ */\n      0x01\n      add\n        /* \"Post.sol\":10183:10275  for (uint256 j = 0; j < count; j++) {... */\n      jump(tag_519)\n    tag_520:\n      pop\n        /* \"Post.sol\":10292:10305  followedPosts */\n      swap6\n        /* \"Post.sol\":8806:10312  function getHome(address _address) public view returns (Post[] memory) {... */\n      swap5\n      pop\n      pop\n      pop\n      pop\n      pop\n      jump\t// out\n        /* \"Post.sol\":1232:1925  function createPost(... */\n    tag_125:\n        /* \"Post.sol\":1400:1410  msg.sender */\n      caller\n      sub(shl(0xa0, 0x01), 0x01)\n        /* \"Post.sol\":1400:1419  msg.sender == _user */\n      dup6\n      and\n      eq\n        /* \"Post.sol\":1392:1420  require(msg.sender == _user) */\n      tag_527\n      jumpi\n      0x00\n      dup1\n      revert\n    tag_527:\n        /* \"Post.sol\":1468:1488  socialProfileAddress */\n      sload(0x08)\n        /* \"Post.sol\":1526:1539  numberOfPosts */\n      0x07\n      dup1\n      sload\n        /* \"Post.sol\":1430:1451  SocialProfile profile */\n      0x00\n        /* \"Post.sol\":1520:1540  posts[numberOfPosts] */\n      swap1\n      dup2\n      mstore\n      0x20\n      dup2\n      swap1\n      mstore\n      0x40\n      swap1\n      dup2\n      swap1\n      keccak256\n        /* \"Post.sol\":1551:1568  post.user = _user */\n      dup1\n      sload\n      not(0xffffffffffffffffffffffffffffffffffffffff)\n      and\n      sub(shl(0xa0, 0x01), 0x01)\n      dup10\n      dup2\n      and\n      swap2\n      dup3\n      or\n      dup4\n      sstore\n        /* \"Post.sol\":1592:1605  numberOfPosts */\n      swap4\n      sload\n      0x01\n        /* \"Post.sol\":1578:1589  post.postId */\n      dup4\n      add\n        /* \"Post.sol\":1578:1605  post.postId = numberOfPosts */\n      sstore\n        /* \"Post.sol\":1631:1665  profile.YourProfileUsername(_user) */\n      swap2\n      mload\n      shl(0xe0, 0xa4b65d63)\n      dup2\n      mstore\n      0x04\n      dup2\n      add\n        /* \"#utility.yul\":11546:11620   */\n      swap3\n      swap1\n      swap3\n      mstore\n        /* \"Post.sol\":1468:1488  socialProfileAddress */\n      swap2\n      swap1\n      swap3\n      and\n      swap2\n      dup3\n      swap1\n        /* \"Post.sol\":1631:1658  profile.YourProfileUsername */\n      0xa4b65d63\n      swap1\n        /* \"#utility.yul\":11519:11537   */\n      0x24\n      add\n        /* \"Post.sol\":1631:1665  profile.YourProfileUsername(_user) */\n      0x00\n      mload(0x40)\n      dup1\n      dup4\n      sub\n      dup2\n      dup7\n      gas\n      staticcall\n      iszero\n      dup1\n      iszero\n      tag_530\n      jumpi\n      returndatasize\n      0x00\n      dup1\n      returndatacopy\n      revert(0x00, returndatasize)\n    tag_530:\n      pop\n      pop\n      pop\n      pop\n      mload(0x40)\n      returndatasize\n      0x00\n      dup3\n      returndatacopy\n      0x1f\n      returndatasize\n      swap1\n      dup2\n      add\n      not(0x1f)\n      and\n      dup3\n      add\n      0x40\n      mstore\n      tag_531\n      swap2\n      swap1\n      dup2\n      add\n      swap1\n      tag_294\n      jump\t// in\n    tag_531:\n        /* \"Post.sol\":1615:1628  post.userName */\n      0x02\n      dup3\n      add\n      swap1\n        /* \"Post.sol\":1615:1665  post.userName = profile.YourProfileUsername(_user) */\n      tag_532\n      swap1\n        /* \"Post.sol\":1615:1628  post.userName */\n      dup3\n        /* \"Post.sol\":1615:1665  post.userName = profile.YourProfileUsername(_user) */\n      tag_533\n      jump\t// in\n    tag_532:\n      pop\n        /* \"Post.sol\":1675:1687  post.caption */\n      0x03\n      dup2\n      add\n        /* \"Post.sol\":1675:1698  post.caption = _caption */\n      tag_534\n        /* \"Post.sol\":1690:1698  _caption */\n      dup7\n        /* \"Post.sol\":1675:1687  post.caption */\n      dup3\n        /* \"Post.sol\":1675:1698  post.caption = _caption */\n      tag_533\n      jump\t// in\n    tag_534:\n      pop\n        /* \"Post.sol\":1708:1727  post.cidPostPicture */\n      0x04\n      dup2\n      add\n        /* \"Post.sol\":1708:1745  post.cidPostPicture = _cidPostPicture */\n      tag_535\n        /* \"Post.sol\":1730:1745  _cidPostPicture */\n      dup6\n        /* \"Post.sol\":1708:1727  post.cidPostPicture */\n      dup3\n        /* \"Post.sol\":1708:1745  post.cidPostPicture = _cidPostPicture */\n      tag_533\n      jump\t// in\n    tag_535:\n      pop\n        /* \"Post.sol\":1755:1764  post.date */\n      0x05\n      dup2\n      dup2\n      add\n        /* \"Post.sol\":1755:1772  post.date = _date */\n      dup5\n      swap1\n      sstore\n        /* \"Post.sol\":1799:1800  0 */\n      0x00\n        /* \"Post.sol\":1782:1796  post.likeCount */\n      0x06\n      dup4\n      add\n        /* \"Post.sol\":1782:1800  post.likeCount = 0 */\n      dup2\n      swap1\n      sstore\n      sub(shl(0xa0, 0x01), 0x01)\n        /* \"Post.sol\":1811:1827  userPosts[_user] */\n      dup9\n      dup2\n      and\n      dup1\n      dup4\n      mstore\n      0x20\n      swap4\n      dup5\n      mstore\n      0x40\n      dup1\n      dup5\n      keccak256\n        /* \"Post.sol\":1833:1846  numberOfPosts */\n      sload(0x07)\n        /* \"Post.sol\":1811:1847  userPosts[_user].push(numberOfPosts) */\n      dup2\n      sload\n      0x01\n      dup2\n      add\n      dup4\n      sstore\n      swap2\n      dup7\n      mstore\n      swap6\n      swap1\n      swap5\n      keccak256\n      swap1\n      swap4\n      add\n      swap4\n      swap1\n      swap4\n      sstore\n        /* \"Post.sol\":1858:1892  profile.incrementTotalPosts(_user) */\n      swap1\n      mload\n      shl(0xe0, 0xf847211f)\n      dup2\n      mstore\n      0x04\n      dup2\n      add\n        /* \"#utility.yul\":11546:11620   */\n      swap3\n      swap1\n      swap3\n      mstore\n        /* \"Post.sol\":1858:1885  profile.incrementTotalPosts */\n      dup4\n      and\n      swap1\n      0xf847211f\n      swap1\n        /* \"#utility.yul\":11519:11537   */\n      0x24\n      add\n        /* \"Post.sol\":1858:1892  profile.incrementTotalPosts(_user) */\n      0x00\n      mload(0x40)\n      dup1\n      dup4\n      sub\n      dup2\n      0x00\n      dup8\n      dup1\n      extcodesize\n      iszero\n      dup1\n      iszero\n      tag_538\n      jumpi\n      0x00\n      dup1\n      revert\n    tag_538:\n      pop\n      gas\n      call\n      iszero\n      dup1\n      iszero\n      tag_540\n      jumpi\n      returndatasize\n      0x00\n      dup1\n      returndatacopy\n      revert(0x00, returndatasize)\n    tag_540:\n      pop\n      pop\n        /* \"Post.sol\":1903:1916  numberOfPosts */\n      0x07\n        /* \"Post.sol\":1903:1918  numberOfPosts++ */\n      dup1\n      sload\n      swap3\n      pop\n        /* \"Post.sol\":1903:1916  numberOfPosts */\n      swap1\n      pop\n      0x00\n        /* \"Post.sol\":1903:1918  numberOfPosts++ */\n      tag_541\n      dup4\n      tag_279\n      jump\t// in\n    tag_541:\n      swap2\n      swap1\n      pop\n      sstore\n      pop\n        /* \"Post.sol\":1382:1925  {... */\n      pop\n      pop\n        /* \"Post.sol\":1232:1925  function createPost(... */\n      pop\n      pop\n      pop\n      pop\n      jump\t// out\n        /* \"Post.sol\":857:903  mapping(address => uint256[]) public userPosts */\n    tag_129:\n      mstore(0x20, 0x05)\n      dup2\n      0x00\n      mstore\n      keccak256(0x00, 0x40)\n      dup2\n      dup2\n      sload\n      dup2\n      lt\n      tag_185\n      jumpi\n      0x00\n      dup1\n      revert\n        /* \"Post.sol\":6905:7263  function folderExists(string memory _folderName)... */\n    tag_134:\n        /* \"Post.sol\":6999:7003  bool */\n      0x00\n      dup1\n        /* \"Post.sol\":7019:7235  for (uint256 i = 0; i < allFolders.length; i++) {... */\n    tag_545:\n        /* \"Post.sol\":7043:7053  allFolders */\n      0x06\n        /* \"Post.sol\":7043:7060  allFolders.length */\n      sload\n        /* \"Post.sol\":7039:7060  i < allFolders.length */\n      dup2\n      lt\n        /* \"Post.sol\":7019:7235  for (uint256 i = 0; i < allFolders.length; i++) {... */\n      iszero\n      tag_546\n      jumpi\n        /* \"Post.sol\":7153:7164  _folderName */\n      dup3\n        /* \"Post.sol\":7137:7166  keccak256(bytes(_folderName)) */\n      dup1\n      mload\n      swap1\n      0x20\n      add\n      keccak256\n        /* \"Post.sol\":7118:7128  allFolders */\n      0x06\n        /* \"Post.sol\":7129:7130  i */\n      dup3\n        /* \"Post.sol\":7118:7131  allFolders[i] */\n      dup2\n      sload\n      dup2\n      lt\n      tag_549\n      jumpi\n      tag_549\n      tag_218\n      jump\t// in\n    tag_549:\n      swap1\n      0x00\n      mstore\n      keccak256(0x00, 0x20)\n      add\n        /* \"Post.sol\":7102:7133  keccak256(bytes(allFolders[i])) */\n      mload(0x40)\n      tag_551\n      swap2\n      swap1\n      tag_552\n      jump\t// in\n    tag_551:\n      mload(0x40)\n      dup1\n      swap2\n      sub\n      swap1\n      keccak256\n        /* \"Post.sol\":7102:7166  keccak256(bytes(allFolders[i])) == keccak256(bytes(_folderName)) */\n      sub\n        /* \"Post.sol\":7081:7225  if (... */\n      tag_553\n      jumpi\n      pop\n        /* \"Post.sol\":7206:7210  true */\n      0x01\n      swap3\n        /* \"Post.sol\":6905:7263  function folderExists(string memory _folderName)... */\n      swap2\n      pop\n      pop\n      jump\t// out\n        /* \"Post.sol\":7081:7225  if (... */\n    tag_553:\n        /* \"Post.sol\":7062:7065  i++ */\n      0x01\n      add\n        /* \"Post.sol\":7019:7235  for (uint256 i = 0; i < allFolders.length; i++) {... */\n      jump(tag_545)\n    tag_546:\n      pop\n        /* \"Post.sol\":7251:7256  false */\n      0x00\n      swap3\n        /* \"Post.sol\":6905:7263  function folderExists(string memory _folderName)... */\n      swap2\n      pop\n      pop\n      jump\t// out\n        /* \"Post.sol\":10380:11030  function getCommentersProfilePhotos(uint256 _postId)... */\n    tag_139:\n        /* \"Post.sol\":10478:10493  string[] memory */\n      0x60\n        /* \"Post.sol\":10527:10540  numberOfPosts */\n      sload(0x07)\n        /* \"Post.sol\":10517:10524  _postId */\n      dup3\n        /* \"Post.sol\":10517:10540  _postId < numberOfPosts */\n      lt\n        /* \"Post.sol\":10509:10564  require(_postId < numberOfPosts, \"Post does not exist\") */\n      tag_555\n      jumpi\n      mload(0x40)\n      shl(0xe5, 0x461bcd)\n      dup2\n      mstore\n        /* \"#utility.yul\":16083:16085   */\n      0x20\n        /* \"Post.sol\":10509:10564  require(_postId < numberOfPosts, \"Post does not exist\") */\n      0x04\n      dup3\n      add\n        /* \"#utility.yul\":16065:16086   */\n      mstore\n        /* \"#utility.yul\":16122:16124   */\n      0x13\n        /* \"#utility.yul\":16102:16120   */\n      0x24\n      dup3\n      add\n        /* \"#utility.yul\":16095:16125   */\n      mstore\n      shl(0x6a, 0x141bdcdd08191bd95cc81b9bdd08195e1a5cdd)\n        /* \"#utility.yul\":16141:16159   */\n      0x44\n      dup3\n      add\n        /* \"#utility.yul\":16134:16183   */\n      mstore\n        /* \"#utility.yul\":16200:16218   */\n      0x64\n      add\n        /* \"Post.sol\":10509:10564  require(_postId < numberOfPosts, \"Post does not exist\") */\n      tag_267\n        /* \"#utility.yul\":15881:16224   */\n      jump\n        /* \"Post.sol\":10509:10564  require(_postId < numberOfPosts, \"Post does not exist\") */\n    tag_555:\n        /* \"Post.sol\":10574:10587  uint256 count */\n      0x00\n        /* \"Post.sol\":10590:10604  posts[_postId] */\n      dup3\n      dup2\n      mstore\n      0x20\n      dup2\n      swap1\n      mstore\n      0x40\n      dup2\n      keccak256\n        /* \"Post.sol\":10590:10620  posts[_postId].CommentUserName */\n      0x09\n      add\n        /* \"Post.sol\":10590:10627  posts[_postId].CommentUserName.length */\n      sload\n      swap1\n      dup2\n        /* \"Post.sol\":10679:10698  new string[](count) */\n      0xffffffffffffffff\n      dup2\n      gt\n      iszero\n      tag_558\n      jumpi\n      tag_558\n      tag_208\n      jump\t// in\n    tag_558:\n      mload(0x40)\n      swap1\n      dup1\n      dup3\n      mstore\n      dup1\n      0x20\n      mul\n      0x20\n      add\n      dup3\n      add\n      0x40\n      mstore\n      dup1\n      iszero\n      tag_559\n      jumpi\n      dup2\n      0x20\n      add\n    tag_560:\n      0x60\n      dup2\n      mstore\n      0x20\n      add\n      swap1\n      0x01\n      swap1\n      sub\n      swap1\n      dup2\n      tag_560\n      jumpi\n      swap1\n      pop\n    tag_559:\n      pop\n        /* \"Post.sol\":10747:10767  socialProfileAddress */\n      sload(0x08)\n        /* \"Post.sol\":10709:10730  SocialProfile profile */\n      0x00\n        /* \"Post.sol\":10798:10812  posts[_postId] */\n      dup7\n      dup2\n      mstore\n      0x20\n      dup2\n      swap1\n      mstore\n      0x40\n      dup2\n      keccak256\n        /* \"Post.sol\":10637:10698  string[] memory CommentUserProfilePhoto = new string[](count) */\n      swap3\n      swap4\n      pop\n      sub(shl(0xa0, 0x01), 0x01)\n        /* \"Post.sol\":10747:10767  socialProfileAddress */\n      swap1\n      swap2\n      and\n      swap2\n        /* \"Post.sol\":10798:10812  posts[_postId] */\n      swap1\n        /* \"Post.sol\":10823:10984  for (uint256 i = 0; i < count; i++) {... */\n    tag_561:\n        /* \"Post.sol\":10847:10852  count */\n      dup5\n        /* \"Post.sol\":10843:10844  i */\n      dup2\n        /* \"Post.sol\":10843:10852  i < count */\n      lt\n        /* \"Post.sol\":10823:10984  for (uint256 i = 0; i < count; i++) {... */\n      iszero\n      tag_562\n      jumpi\n        /* \"Post.sol\":10902:10909  profile */\n      dup3\n      sub(shl(0xa0, 0x01), 0x01)\n        /* \"Post.sol\":10902:10922  profile.profilePhoto */\n      and\n      0xfbf31669\n        /* \"Post.sol\":10940:10944  post */\n      dup4\n        /* \"Post.sol\":10940:10956  post.CommentUser */\n      0x08\n      add\n        /* \"Post.sol\":10957:10958  i */\n      dup4\n        /* \"Post.sol\":10940:10959  post.CommentUser[i] */\n      dup2\n      sload\n      dup2\n      lt\n      tag_565\n      jumpi\n      tag_565\n      tag_218\n      jump\t// in\n    tag_565:\n      0x00\n      swap2\n      dup3\n      mstore\n      0x20\n      swap1\n      swap2\n      keccak256\n      add\n      sload\n        /* \"Post.sol\":10902:10973  profile.profilePhoto(... */\n      mload(0x40)\n      0xe0\n      dup4\n      swap1\n      shl\n      0xffffffff00000000000000000000000000000000000000000000000000000000\n      and\n      dup2\n      mstore\n      sub(shl(0xa0, 0x01), 0x01)\n        /* \"Post.sol\":10940:10959  post.CommentUser[i] */\n      swap1\n      swap2\n      and\n        /* \"Post.sol\":10902:10973  profile.profilePhoto(... */\n      0x04\n      dup3\n      add\n        /* \"#utility.yul\":11546:11620   */\n      mstore\n        /* \"#utility.yul\":11519:11537   */\n      0x24\n      add\n        /* \"Post.sol\":10902:10973  profile.profilePhoto(... */\n      0x00\n      mload(0x40)\n      dup1\n      dup4\n      sub\n      dup2\n      dup7\n      gas\n      staticcall\n      iszero\n      dup1\n      iszero\n      tag_569\n      jumpi\n      returndatasize\n      0x00\n      dup1\n      returndatacopy\n      revert(0x00, returndatasize)\n    tag_569:\n      pop\n      pop\n      pop\n      pop\n      mload(0x40)\n      returndatasize\n      0x00\n      dup3\n      returndatacopy\n      0x1f\n      returndatasize\n      swap1\n      dup2\n      add\n      not(0x1f)\n      and\n      dup3\n      add\n      0x40\n      mstore\n      tag_570\n      swap2\n      swap1\n      dup2\n      add\n      swap1\n      tag_294\n      jump\t// in\n    tag_570:\n        /* \"Post.sol\":10873:10896  CommentUserProfilePhoto */\n      dup5\n        /* \"Post.sol\":10897:10898  i */\n      dup3\n        /* \"Post.sol\":10873:10899  CommentUserProfilePhoto[i] */\n      dup2\n      mload\n      dup2\n      lt\n      tag_572\n      jumpi\n      tag_572\n      tag_218\n      jump\t// in\n    tag_572:\n      0x20\n      swap1\n      dup2\n      mul\n      swap2\n      swap1\n      swap2\n      add\n      add\n        /* \"Post.sol\":10873:10973  CommentUserProfilePhoto[i] = profile.profilePhoto(... */\n      mstore\n        /* \"Post.sol\":10854:10857  i++ */\n      0x01\n      add\n        /* \"Post.sol\":10823:10984  for (uint256 i = 0; i < count; i++) {... */\n      jump(tag_561)\n    tag_562:\n      pop\n        /* \"Post.sol\":11000:11023  CommentUserProfilePhoto */\n      swap2\n      swap6\n        /* \"Post.sol\":10380:11030  function getCommentersProfilePhotos(uint256 _postId)... */\n      swap5\n      pop\n      pop\n      pop\n      pop\n      pop\n      jump\t// out\n        /* \"Post.sol\":11596:12704  function getPostLikes(uint256 _postId)... */\n    tag_150:\n        /* \"Post.sol\":11693:11708  string[] memory */\n      0x60\n        /* \"Post.sol\":11722:11737  string[] memory */\n      dup1\n        /* \"Post.sol\":11751:11767  address[] memory */\n      0x60\n        /* \"Post.sol\":11810:11823  numberOfPosts */\n      sload(0x07)\n        /* \"Post.sol\":11800:11807  _postId */\n      dup5\n        /* \"Post.sol\":11800:11823  _postId < numberOfPosts */\n      lt\n        /* \"Post.sol\":11792:11847  require(_postId < numberOfPosts, \"Post does not exist\") */\n      tag_574\n      jumpi\n      mload(0x40)\n      shl(0xe5, 0x461bcd)\n      dup2\n      mstore\n        /* \"#utility.yul\":16083:16085   */\n      0x20\n        /* \"Post.sol\":11792:11847  require(_postId < numberOfPosts, \"Post does not exist\") */\n      0x04\n      dup3\n      add\n        /* \"#utility.yul\":16065:16086   */\n      mstore\n        /* \"#utility.yul\":16122:16124   */\n      0x13\n        /* \"#utility.yul\":16102:16120   */\n      0x24\n      dup3\n      add\n        /* \"#utility.yul\":16095:16125   */\n      mstore\n      shl(0x6a, 0x141bdcdd08191bd95cc81b9bdd08195e1a5cdd)\n        /* \"#utility.yul\":16141:16159   */\n      0x44\n      dup3\n      add\n        /* \"#utility.yul\":16134:16183   */\n      mstore\n        /* \"#utility.yul\":16200:16218   */\n      0x64\n      add\n        /* \"Post.sol\":11792:11847  require(_postId < numberOfPosts, \"Post does not exist\") */\n      tag_267\n        /* \"#utility.yul\":15881:16224   */\n      jump\n        /* \"Post.sol\":11792:11847  require(_postId < numberOfPosts, \"Post does not exist\") */\n    tag_574:\n        /* \"Post.sol\":11858:11875  uint256 likeCount */\n      0x00\n        /* \"Post.sol\":11878:11892  posts[_postId] */\n      dup5\n      dup2\n      mstore\n      0x20\n      dup2\n      swap1\n      mstore\n      0x40\n      dup2\n      keccak256\n        /* \"Post.sol\":11878:11902  posts[_postId].likeCount */\n      0x06\n      add\n      sload\n      swap1\n      dup2\n        /* \"Post.sol\":11940:11963  new string[](likeCount) */\n      0xffffffffffffffff\n      dup2\n      gt\n      iszero\n      tag_577\n      jumpi\n      tag_577\n      tag_208\n      jump\t// in\n    tag_577:\n      mload(0x40)\n      swap1\n      dup1\n      dup3\n      mstore\n      dup1\n      0x20\n      mul\n      0x20\n      add\n      dup3\n      add\n      0x40\n      mstore\n      dup1\n      iszero\n      tag_578\n      jumpi\n      dup2\n      0x20\n      add\n    tag_579:\n      0x60\n      dup2\n      mstore\n      0x20\n      add\n      swap1\n      0x01\n      swap1\n      sub\n      swap1\n      dup2\n      tag_579\n      jumpi\n      swap1\n      pop\n    tag_578:\n      pop\n        /* \"Post.sol\":11912:11963  string[] memory userNames = new string[](likeCount) */\n      swap1\n      pop\n        /* \"Post.sol\":11973:12002  string[] memory profilePhotos */\n      0x00\n        /* \"Post.sol\":12018:12027  likeCount */\n      dup3\n        /* \"Post.sol\":12005:12028  new string[](likeCount) */\n      0xffffffffffffffff\n      dup2\n      gt\n      iszero\n      tag_581\n      jumpi\n      tag_581\n      tag_208\n      jump\t// in\n    tag_581:\n      mload(0x40)\n      swap1\n      dup1\n      dup3\n      mstore\n      dup1\n      0x20\n      mul\n      0x20\n      add\n      dup3\n      add\n      0x40\n      mstore\n      dup1\n      iszero\n      tag_582\n      jumpi\n      dup2\n      0x20\n      add\n    tag_583:\n      0x60\n      dup2\n      mstore\n      0x20\n      add\n      swap1\n      0x01\n      swap1\n      sub\n      swap1\n      dup2\n      tag_583\n      jumpi\n      swap1\n      pop\n    tag_582:\n      pop\n        /* \"Post.sol\":11973:12028  string[] memory profilePhotos = new string[](likeCount) */\n      swap1\n      pop\n        /* \"Post.sol\":12038:12068  address[] memory userAddresses */\n      0x00\n        /* \"Post.sol\":12085:12094  likeCount */\n      dup4\n        /* \"Post.sol\":12071:12095  new address[](likeCount) */\n      0xffffffffffffffff\n      dup2\n      gt\n      iszero\n      tag_585\n      jumpi\n      tag_585\n      tag_208\n      jump\t// in\n    tag_585:\n      mload(0x40)\n      swap1\n      dup1\n      dup3\n      mstore\n      dup1\n      0x20\n      mul\n      0x20\n      add\n      dup3\n      add\n      0x40\n      mstore\n      dup1\n      iszero\n      tag_586\n      jumpi\n      dup2\n      0x20\n      add\n      0x20\n      dup3\n      mul\n      dup1\n      calldatasize\n      dup4\n      calldatacopy\n      add\n      swap1\n      pop\n    tag_586:\n      pop\n        /* \"Post.sol\":12038:12095  address[] memory userAddresses = new address[](likeCount) */\n      swap1\n      pop\n        /* \"Post.sol\":12106:12127  SocialProfile profile */\n      0x00\n        /* \"Post.sol\":12144:12164  socialProfileAddress */\n      0x08\n      0x00\n      swap1\n      sload\n      swap1\n      0x0100\n      exp\n      swap1\n      div\n      sub(shl(0xa0, 0x01), 0x01)\n      and\n        /* \"Post.sol\":12106:12165  SocialProfile profile = SocialProfile(socialProfileAddress) */\n      swap1\n      pop\n        /* \"Post.sol\":12176:12200  uint256 lengthOfAllUsers */\n      0x00\n        /* \"Post.sol\":12203:12210  profile */\n      dup2\n      sub(shl(0xa0, 0x01), 0x01)\n        /* \"Post.sol\":12203:12225  profile.allUsersLength */\n      and\n      0x0d28afc7\n        /* \"Post.sol\":12203:12227  profile.allUsersLength() */\n      mload(0x40)\n      dup2\n      0xffffffff\n      and\n      0xe0\n      shl\n      dup2\n      mstore\n      0x04\n      add\n      0x20\n      mload(0x40)\n      dup1\n      dup4\n      sub\n      dup2\n      dup7\n      gas\n      staticcall\n      iszero\n      dup1\n      iszero\n      tag_588\n      jumpi\n      returndatasize\n      0x00\n      dup1\n      returndatacopy\n      revert(0x00, returndatasize)\n    tag_588:\n      pop\n      pop\n      pop\n      pop\n      mload(0x40)\n      returndatasize\n      not(0x1f)\n      0x1f\n      dup3\n      add\n      and\n      dup3\n      add\n      dup1\n      0x40\n      mstore\n      pop\n      dup2\n      add\n      swap1\n      tag_589\n      swap2\n      swap1\n      tag_590\n      jump\t// in\n    tag_589:\n        /* \"Post.sol\":12176:12227  uint256 lengthOfAllUsers = profile.allUsersLength() */\n      swap1\n      pop\n        /* \"Post.sol\":12237:12250  uint256 index */\n      0x00\n        /* \"Post.sol\":12270:12279  uint256 i */\n      dup1\n        /* \"Post.sol\":12265:12639  for (uint256 i = 0; i < lengthOfAllUsers; i++) {... */\n    tag_591:\n        /* \"Post.sol\":12289:12305  lengthOfAllUsers */\n      dup3\n        /* \"Post.sol\":12285:12286  i */\n      dup2\n        /* \"Post.sol\":12285:12305  i < lengthOfAllUsers */\n      lt\n        /* \"Post.sol\":12265:12639  for (uint256 i = 0; i < lengthOfAllUsers; i++) {... */\n      iszero\n      tag_592\n      jumpi\n        /* \"Post.sol\":12341:12367  profile.allUsersAddress(i) */\n      mload(0x40)\n      shl(0xe0, 0x9f1953c3)\n      dup2\n      mstore\n      0x04\n      dup2\n      add\n        /* \"#utility.yul\":1628:1653   */\n      dup3\n      swap1\n      mstore\n        /* \"Post.sol\":12326:12338  address user */\n      0x00\n      swap1\n      sub(shl(0xa0, 0x01), 0x01)\n        /* \"Post.sol\":12341:12364  profile.allUsersAddress */\n      dup7\n      and\n      swap1\n      0x9f1953c3\n      swap1\n        /* \"#utility.yul\":1601:1619   */\n      0x24\n      add\n        /* \"Post.sol\":12341:12367  profile.allUsersAddress(i) */\n      0x20\n      mload(0x40)\n      dup1\n      dup4\n      sub\n      dup2\n      dup7\n      gas\n      staticcall\n      iszero\n      dup1\n      iszero\n      tag_596\n      jumpi\n      returndatasize\n      0x00\n      dup1\n      returndatacopy\n      revert(0x00, returndatasize)\n    tag_596:\n      pop\n      pop\n      pop\n      pop\n      mload(0x40)\n      returndatasize\n      not(0x1f)\n      0x1f\n      dup3\n      add\n      and\n      dup3\n      add\n      dup1\n      0x40\n      mstore\n      pop\n      dup2\n      add\n      swap1\n      tag_597\n      swap2\n      swap1\n      tag_598\n      jump\t// in\n    tag_597:\n        /* \"Post.sol\":12385:12403  postLikes[_postId] */\n      0x00\n      dup15\n      dup2\n      mstore\n        /* \"Post.sol\":12385:12394  postLikes */\n      0x01\n        /* \"Post.sol\":12385:12403  postLikes[_postId] */\n      0x20\n      swap1\n      dup2\n      mstore\n      0x40\n      dup1\n      dup4\n      keccak256\n      sub(shl(0xa0, 0x01), 0x01)\n        /* \"Post.sol\":12385:12409  postLikes[_postId][user] */\n      dup6\n      and\n      dup5\n      mstore\n      swap1\n      swap2\n      mstore\n      swap1\n      keccak256\n      sload\n        /* \"Post.sol\":12326:12367  address user = profile.allUsersAddress(i) */\n      swap1\n      swap2\n      pop\n        /* \"Post.sol\":12385:12409  postLikes[_postId][user] */\n      0xff\n      and\n        /* \"Post.sol\":12381:12629  if (postLikes[_postId][user]) {... */\n      iszero\n      tag_599\n      jumpi\n        /* \"Post.sol\":12448:12477  profile.profileUsername(user) */\n      mload(0x40)\n      shl(0xe1, 0x742df7e1)\n      dup2\n      mstore\n      sub(shl(0xa0, 0x01), 0x01)\n        /* \"#utility.yul\":11564:11619   */\n      dup3\n      dup2\n      and\n        /* \"Post.sol\":12448:12477  profile.profileUsername(user) */\n      0x04\n      dup4\n      add\n        /* \"#utility.yul\":11546:11620   */\n      mstore\n        /* \"Post.sol\":12448:12471  profile.profileUsername */\n      dup7\n      and\n      swap1\n      0xe85befc2\n      swap1\n        /* \"#utility.yul\":11519:11537   */\n      0x24\n      add\n        /* \"Post.sol\":12448:12477  profile.profileUsername(user) */\n      0x00\n      mload(0x40)\n      dup1\n      dup4\n      sub\n      dup2\n      dup7\n      gas\n      staticcall\n      iszero\n      dup1\n      iszero\n      tag_602\n      jumpi\n      returndatasize\n      0x00\n      dup1\n      returndatacopy\n      revert(0x00, returndatasize)\n    tag_602:\n      pop\n      pop\n      pop\n      pop\n      mload(0x40)\n      returndatasize\n      0x00\n      dup3\n      returndatacopy\n      0x1f\n      returndatasize\n      swap1\n      dup2\n      add\n      not(0x1f)\n      and\n      dup3\n      add\n      0x40\n      mstore\n      tag_603\n      swap2\n      swap1\n      dup2\n      add\n      swap1\n      tag_294\n      jump\t// in\n    tag_603:\n        /* \"Post.sol\":12429:12438  userNames */\n      dup9\n        /* \"Post.sol\":12439:12444  index */\n      dup5\n        /* \"Post.sol\":12429:12445  userNames[index] */\n      dup2\n      mload\n      dup2\n      lt\n      tag_605\n      jumpi\n      tag_605\n      tag_218\n      jump\t// in\n    tag_605:\n      0x20\n      swap1\n      dup2\n      mul\n      swap2\n      swap1\n      swap2\n      add\n      add\n        /* \"Post.sol\":12429:12477  userNames[index] = profile.profileUsername(user) */\n      mstore\n        /* \"Post.sol\":12518:12544  profile.profilePhoto(user) */\n      mload(0x40)\n      shl(0xe0, 0xfbf31669)\n      dup2\n      mstore\n      sub(shl(0xa0, 0x01), 0x01)\n        /* \"#utility.yul\":11564:11619   */\n      dup3\n      dup2\n      and\n        /* \"Post.sol\":12518:12544  profile.profilePhoto(user) */\n      0x04\n      dup4\n      add\n        /* \"#utility.yul\":11546:11620   */\n      mstore\n        /* \"Post.sol\":12518:12538  profile.profilePhoto */\n      dup7\n      and\n      swap1\n      0xfbf31669\n      swap1\n        /* \"#utility.yul\":11519:11537   */\n      0x24\n      add\n        /* \"Post.sol\":12518:12544  profile.profilePhoto(user) */\n      0x00\n      mload(0x40)\n      dup1\n      dup4\n      sub\n      dup2\n      dup7\n      gas\n      staticcall\n      iszero\n      dup1\n      iszero\n      tag_608\n      jumpi\n      returndatasize\n      0x00\n      dup1\n      returndatacopy\n      revert(0x00, returndatasize)\n    tag_608:\n      pop\n      pop\n      pop\n      pop\n      mload(0x40)\n      returndatasize\n      0x00\n      dup3\n      returndatacopy\n      0x1f\n      returndatasize\n      swap1\n      dup2\n      add\n      not(0x1f)\n      and\n      dup3\n      add\n      0x40\n      mstore\n      tag_609\n      swap2\n      swap1\n      dup2\n      add\n      swap1\n      tag_294\n      jump\t// in\n    tag_609:\n        /* \"Post.sol\":12495:12508  profilePhotos */\n      dup8\n        /* \"Post.sol\":12509:12514  index */\n      dup5\n        /* \"Post.sol\":12495:12515  profilePhotos[index] */\n      dup2\n      mload\n      dup2\n      lt\n      tag_611\n      jumpi\n      tag_611\n      tag_218\n      jump\t// in\n    tag_611:\n      0x20\n      mul\n      0x20\n      add\n      add\n        /* \"Post.sol\":12495:12544  profilePhotos[index] = profile.profilePhoto(user) */\n      dup2\n      swap1\n      mstore\n      pop\n        /* \"Post.sol\":12585:12589  user */\n      dup1\n        /* \"Post.sol\":12562:12575  userAddresses */\n      dup7\n        /* \"Post.sol\":12576:12581  index */\n      dup5\n        /* \"Post.sol\":12562:12582  userAddresses[index] */\n      dup2\n      mload\n      dup2\n      lt\n      tag_613\n      jumpi\n      tag_613\n      tag_218\n      jump\t// in\n    tag_613:\n      sub(shl(0xa0, 0x01), 0x01)\n        /* \"Post.sol\":12562:12589  userAddresses[index] = user */\n      swap1\n      swap3\n      and\n        /* \"Post.sol\":12562:12582  userAddresses[index] */\n      0x20\n      swap3\n      dup4\n      mul\n      swap2\n      swap1\n      swap2\n      add\n      swap1\n      swap2\n      add\n        /* \"Post.sol\":12562:12589  userAddresses[index] = user */\n      mstore\n        /* \"Post.sol\":12607:12614  index++ */\n      dup3\n      tag_614\n      dup2\n      tag_279\n      jump\t// in\n    tag_614:\n      swap4\n      pop\n      pop\n        /* \"Post.sol\":12381:12629  if (postLikes[_postId][user]) {... */\n    tag_599:\n      pop\n        /* \"Post.sol\":12307:12310  i++ */\n      0x01\n      add\n        /* \"Post.sol\":12265:12639  for (uint256 i = 0; i < lengthOfAllUsers; i++) {... */\n      jump(tag_591)\n    tag_592:\n      pop\n        /* \"Post.sol\":12657:12666  userNames */\n      swap5\n      swap11\n        /* \"Post.sol\":12668:12681  profilePhotos */\n      swap4\n      swap10\n      pop\n        /* \"Post.sol\":12683:12696  userAddresses */\n      swap2\n      swap8\n      pop\n        /* \"Post.sol\":11596:12704  function getPostLikes(uint256 _postId)... */\n      swap2\n      swap6\n      pop\n      pop\n      pop\n      pop\n      pop\n      pop\n      jump\t// out\n        /* \"Post.sol\":1967:2390  function donateToPost(uint256 _id) public payable {... */\n    tag_155:\n        /* \"Post.sol\":2041:2054  numberOfPosts */\n      sload(0x07)\n        /* \"Post.sol\":2035:2038  _id */\n      dup2\n        /* \"Post.sol\":2035:2054  _id < numberOfPosts */\n      lt\n        /* \"Post.sol\":2027:2078  require(_id < numberOfPosts, \"Post does not exist\") */\n      tag_616\n      jumpi\n      mload(0x40)\n      shl(0xe5, 0x461bcd)\n      dup2\n      mstore\n        /* \"#utility.yul\":16083:16085   */\n      0x20\n        /* \"Post.sol\":2027:2078  require(_id < numberOfPosts, \"Post does not exist\") */\n      0x04\n      dup3\n      add\n        /* \"#utility.yul\":16065:16086   */\n      mstore\n        /* \"#utility.yul\":16122:16124   */\n      0x13\n        /* \"#utility.yul\":16102:16120   */\n      0x24\n      dup3\n      add\n        /* \"#utility.yul\":16095:16125   */\n      mstore\n      shl(0x6a, 0x141bdcdd08191bd95cc81b9bdd08195e1a5cdd)\n        /* \"#utility.yul\":16141:16159   */\n      0x44\n      dup3\n      add\n        /* \"#utility.yul\":16134:16183   */\n      mstore\n        /* \"#utility.yul\":16200:16218   */\n      0x64\n      add\n        /* \"Post.sol\":2027:2078  require(_id < numberOfPosts, \"Post does not exist\") */\n      tag_267\n        /* \"#utility.yul\":15881:16224   */\n      jump\n        /* \"Post.sol\":2027:2078  require(_id < numberOfPosts, \"Post does not exist\") */\n    tag_616:\n        /* \"Post.sol\":2108:2109  0 */\n      0x00\n        /* \"Post.sol\":2096:2105  msg.value */\n      callvalue\n        /* \"Post.sol\":2096:2109  msg.value > 0 */\n      gt\n        /* \"Post.sol\":2088:2148  require(msg.value > 0, \"Donation must be greater than zero\") */\n      tag_618\n      jumpi\n      mload(0x40)\n      shl(0xe5, 0x461bcd)\n      dup2\n      mstore\n        /* \"#utility.yul\":22874:22876   */\n      0x20\n        /* \"Post.sol\":2088:2148  require(msg.value > 0, \"Donation must be greater than zero\") */\n      0x04\n      dup3\n      add\n        /* \"#utility.yul\":22856:22877   */\n      mstore\n        /* \"#utility.yul\":22913:22915   */\n      0x22\n        /* \"#utility.yul\":22893:22911   */\n      0x24\n      dup3\n      add\n        /* \"#utility.yul\":22886:22916   */\n      mstore\n        /* \"#utility.yul\":22952:22986   */\n      0x446f6e6174696f6e206d7573742062652067726561746572207468616e207a65\n        /* \"#utility.yul\":22932:22950   */\n      0x44\n      dup3\n      add\n        /* \"#utility.yul\":22925:22987   */\n      mstore\n      shl(0xf0, 0x726f)\n        /* \"#utility.yul\":23003:23021   */\n      0x64\n      dup3\n      add\n        /* \"#utility.yul\":22996:23028   */\n      mstore\n        /* \"#utility.yul\":23045:23064   */\n      0x84\n      add\n        /* \"Post.sol\":2088:2148  require(msg.value > 0, \"Donation must be greater than zero\") */\n      tag_267\n        /* \"#utility.yul\":22672:23070   */\n      jump\n        /* \"Post.sol\":2088:2148  require(msg.value > 0, \"Donation must be greater than zero\") */\n    tag_618:\n        /* \"Post.sol\":2159:2173  uint256 amount */\n      0x00\n        /* \"Post.sol\":2216:2226  posts[_id] */\n      dup2\n      dup2\n      mstore\n      0x20\n      dup2\n      swap1\n      mstore\n      0x40\n      dup1\n      dup3\n      keccak256\n        /* \"Post.sol\":2261:2270  post.user */\n      dup1\n      sload\n        /* \"Post.sol\":2253:2295  payable(post.user).call{value: amount}(\"\") */\n      swap2\n      mload\n        /* \"Post.sol\":2176:2185  msg.value */\n      callvalue\n      swap4\n        /* \"Post.sol\":2216:2226  posts[_id] */\n      swap2\n      swap3\n      sub(shl(0xa0, 0x01), 0x01)\n        /* \"Post.sol\":2261:2270  post.user */\n      and\n      swap1\n        /* \"Post.sol\":2176:2185  msg.value */\n      dup5\n      swap1\n        /* \"Post.sol\":2159:2173  uint256 amount */\n      dup4\n        /* \"Post.sol\":2253:2295  payable(post.user).call{value: amount}(\"\") */\n      dup2\n        /* \"Post.sol\":2159:2173  uint256 amount */\n      dup2\n        /* \"Post.sol\":2253:2295  payable(post.user).call{value: amount}(\"\") */\n      dup2\n        /* \"Post.sol\":2176:2185  msg.value */\n      dup6\n        /* \"Post.sol\":2261:2270  post.user */\n      dup8\n        /* \"Post.sol\":2253:2295  payable(post.user).call{value: amount}(\"\") */\n      gas\n      call\n      swap3\n      pop\n      pop\n      pop\n      returndatasize\n      dup1\n      0x00\n      dup2\n      eq\n      tag_625\n      jumpi\n      mload(0x40)\n      swap2\n      pop\n      and(add(returndatasize, 0x3f), not(0x1f))\n      dup3\n      add\n      0x40\n      mstore\n      returndatasize\n      dup3\n      mstore\n      returndatasize\n      0x00\n      0x20\n      dup5\n      add\n      returndatacopy\n      jump(tag_624)\n    tag_625:\n      0x60\n      swap2\n      pop\n    tag_624:\n      pop\n        /* \"Post.sol\":2237:2295  (bool sent, ) = payable(post.user).call{value: amount}(\"\") */\n      pop\n      swap1\n      pop\n        /* \"Post.sol\":2314:2318  sent */\n      dup1\n        /* \"Post.sol\":2306:2343  require(sent, \"Failed to send Ether\") */\n      tag_626\n      jumpi\n      mload(0x40)\n      shl(0xe5, 0x461bcd)\n      dup2\n      mstore\n        /* \"#utility.yul\":23487:23489   */\n      0x20\n        /* \"Post.sol\":2306:2343  require(sent, \"Failed to send Ether\") */\n      0x04\n      dup3\n      add\n        /* \"#utility.yul\":23469:23490   */\n      mstore\n        /* \"#utility.yul\":23526:23528   */\n      0x14\n        /* \"#utility.yul\":23506:23524   */\n      0x24\n      dup3\n      add\n        /* \"#utility.yul\":23499:23529   */\n      mstore\n        /* \"#utility.yul\":23565:23587   */\n      0x4661696c656420746f2073656e64204574686572000000000000000000000000\n        /* \"#utility.yul\":23545:23563   */\n      0x44\n      dup3\n      add\n        /* \"#utility.yul\":23538:23588   */\n      mstore\n        /* \"#utility.yul\":23605:23623   */\n      0x64\n      add\n        /* \"Post.sol\":2306:2343  require(sent, \"Failed to send Ether\") */\n      tag_267\n        /* \"#utility.yul\":23285:23629   */\n      jump\n        /* \"Post.sol\":2306:2343  require(sent, \"Failed to send Ether\") */\n    tag_626:\n        /* \"Post.sol\":2377:2383  amount */\n      dup3\n        /* \"Post.sol\":2354:2358  post */\n      dup3\n        /* \"Post.sol\":2354:2373  post.totalDonations */\n      0x07\n      add\n      0x00\n        /* \"Post.sol\":2354:2383  post.totalDonations += amount */\n      dup3\n      dup3\n      sload\n      tag_629\n      swap2\n      swap1\n      tag_630\n      jump\t// in\n    tag_629:\n      swap1\n      swap2\n      sstore\n      pop\n      pop\n      pop\n      pop\n      pop\n      pop\n        /* \"Post.sol\":1967:2390  function donateToPost(uint256 _id) public payable {... */\n      jump\t// out\n        /* \"Post.sol\":6674:6845  function createFolder(string memory _folderName) public {... */\n    tag_159:\n        /* \"Post.sol\":6749:6774  folderExists(_folderName) */\n      tag_632\n        /* \"Post.sol\":6762:6773  _folderName */\n      dup2\n        /* \"Post.sol\":6749:6761  folderExists */\n      tag_134\n        /* \"Post.sol\":6749:6774  folderExists(_folderName) */\n      jump\t// in\n    tag_632:\n        /* \"Post.sol\":6748:6774  !folderExists(_folderName) */\n      iszero\n        /* \"Post.sol\":6740:6800  require(!folderExists(_folderName), \"Folder already exists\") */\n      tag_633\n      jumpi\n      mload(0x40)\n      shl(0xe5, 0x461bcd)\n      dup2\n      mstore\n        /* \"#utility.yul\":23966:23968   */\n      0x20\n        /* \"Post.sol\":6740:6800  require(!folderExists(_folderName), \"Folder already exists\") */\n      0x04\n      dup3\n      add\n        /* \"#utility.yul\":23948:23969   */\n      mstore\n        /* \"#utility.yul\":24005:24007   */\n      0x15\n        /* \"#utility.yul\":23985:24003   */\n      0x24\n      dup3\n      add\n        /* \"#utility.yul\":23978:24008   */\n      mstore\n        /* \"#utility.yul\":24044:24067   */\n      0x466f6c64657220616c7265616479206578697374730000000000000000000000\n        /* \"#utility.yul\":24024:24042   */\n      0x44\n      dup3\n      add\n        /* \"#utility.yul\":24017:24068   */\n      mstore\n        /* \"#utility.yul\":24085:24103   */\n      0x64\n      add\n        /* \"Post.sol\":6740:6800  require(!folderExists(_folderName), \"Folder already exists\") */\n      tag_267\n        /* \"#utility.yul\":23764:24109   */\n      jump\n        /* \"Post.sol\":6740:6800  require(!folderExists(_folderName), \"Folder already exists\") */\n    tag_633:\n        /* \"Post.sol\":6810:6820  allFolders */\n      0x06\n        /* \"Post.sol\":6810:6838  allFolders.push(_folderName) */\n      dup1\n      sload\n      0x01\n      dup2\n      add\n      dup3\n      sstore\n      0x00\n      swap2\n      swap1\n      swap2\n      mstore\n      0xf652222313e28459528d920b65115c16c04f3efc82aaedc97be59f3f377c0d3f\n      add\n      tag_637\n        /* \"Post.sol\":6826:6837  _folderName */\n      dup3\n        /* \"Post.sol\":6810:6838  allFolders.push(_folderName) */\n      dup3\n      tag_533\n      jump\t// in\n    tag_637:\n      pop\n        /* \"Post.sol\":6674:6845  function createFolder(string memory _folderName) public {... */\n      pop\n      jump\t// out\n        /* \"Post.sol\":2443:3002  function Comment(... */\n    tag_174:\n        /* \"Post.sol\":2608:2618  msg.sender */\n      caller\n      sub(shl(0xa0, 0x01), 0x01)\n        /* \"Post.sol\":2608:2634  msg.sender == _CommentUser */\n      dup5\n      and\n      eq\n        /* \"Post.sol\":2600:2635  require(msg.sender == _CommentUser) */\n      tag_639\n      jumpi\n      0x00\n      dup1\n      revert\n    tag_639:\n        /* \"Post.sol\":2683:2703  socialProfileAddress */\n      0x08\n      dup1\n      sload\n        /* \"Post.sol\":2645:2666  SocialProfile profile */\n      0x00\n        /* \"Post.sol\":2734:2744  posts[_id] */\n      dup7\n      dup2\n      mstore\n      0x20\n      dup2\n      dup2\n      mstore\n      0x40\n      dup1\n      dup4\n      keccak256\n        /* \"Post.sol\":2755:2771  post.CommentUser */\n      swap5\n      dup6\n      add\n        /* \"Post.sol\":2755:2790  post.CommentUser.push(_CommentUser) */\n      dup1\n      sload\n        /* \"Post.sol\":2683:2703  socialProfileAddress */\n      0x01\n        /* \"Post.sol\":2755:2790  post.CommentUser.push(_CommentUser) */\n      dup2\n      add\n      dup3\n      sstore\n      swap1\n      dup5\n      mstore\n      swap2\n      swap1\n      swap3\n      keccak256\n      add\n      dup1\n      sload\n      not(0xffffffffffffffffffffffffffffffffffffffff)\n      and\n      sub(shl(0xa0, 0x01), 0x01)\n      dup9\n      dup2\n      and\n      swap2\n      swap1\n      swap2\n      or\n      swap1\n      swap2\n      sstore\n        /* \"Post.sol\":2826:2865  profile.YourProfileUsername(msg.sender) */\n      swap1\n      mload\n      shl(0xe0, 0xa4b65d63)\n      dup2\n      mstore\n        /* \"Post.sol\":2854:2864  msg.sender */\n      caller\n        /* \"Post.sol\":2826:2865  profile.YourProfileUsername(msg.sender) */\n      0x04\n      dup3\n      add\n        /* \"#utility.yul\":11546:11620   */\n      mstore\n        /* \"Post.sol\":2683:2703  socialProfileAddress */\n      swap2\n      and\n      swap2\n        /* \"Post.sol\":2734:2744  posts[_id] */\n      swap1\n        /* \"Post.sol\":2800:2820  post.CommentUserName */\n      0x09\n      dup3\n      add\n      swap1\n        /* \"Post.sol\":2683:2703  socialProfileAddress */\n      dup4\n      swap1\n        /* \"Post.sol\":2826:2853  profile.YourProfileUsername */\n      0xa4b65d63\n      swap1\n        /* \"#utility.yul\":11519:11537   */\n      0x24\n      add\n        /* \"Post.sol\":2826:2865  profile.YourProfileUsername(msg.sender) */\n      0x00\n      mload(0x40)\n      dup1\n      dup4\n      sub\n      dup2\n      dup7\n      gas\n      staticcall\n      iszero\n      dup1\n      iszero\n      tag_643\n      jumpi\n      returndatasize\n      0x00\n      dup1\n      returndatacopy\n      revert(0x00, returndatasize)\n    tag_643:\n      pop\n      pop\n      pop\n      pop\n      mload(0x40)\n      returndatasize\n      0x00\n      dup3\n      returndatacopy\n      0x1f\n      returndatasize\n      swap1\n      dup2\n      add\n      not(0x1f)\n      and\n      dup3\n      add\n      0x40\n      mstore\n      tag_644\n      swap2\n      swap1\n      dup2\n      add\n      swap1\n      tag_294\n      jump\t// in\n    tag_644:\n        /* \"Post.sol\":2800:2866  post.CommentUserName.push(profile.YourProfileUsername(msg.sender)) */\n      dup2\n      sload\n      0x01\n      dup2\n      add\n      dup4\n      sstore\n      0x00\n      swap3\n      dup4\n      mstore\n      0x20\n      swap1\n      swap3\n      keccak256\n      swap1\n      swap2\n      add\n      swap1\n      tag_646\n      swap1\n      dup3\n      tag_533\n      jump\t// in\n    tag_646:\n      pop\n        /* \"Post.sol\":2876:2892  post.CommentDate */\n      0x0a\n      dup2\n      add\n        /* \"Post.sol\":2876:2911  post.CommentDate.push(_CommentDate) */\n      dup1\n      sload\n      0x01\n      dup2\n      dup2\n      add\n      dup4\n      sstore\n      0x00\n      swap3\n      dup4\n      mstore\n      0x20\n      dup1\n      dup5\n      keccak256\n      swap1\n      swap3\n      add\n      dup8\n      swap1\n      sstore\n        /* \"Post.sol\":2921:2937  post.CommentText */\n      0x0b\n      dup5\n      add\n        /* \"Post.sol\":2921:2956  post.CommentText.push(_CommentText) */\n      dup1\n      sload\n      swap2\n      dup3\n      add\n      dup2\n      sstore\n      dup4\n      mstore\n      swap2\n      keccak256\n      add\n      tag_649\n        /* \"Post.sol\":2943:2955  _CommentText */\n      dup5\n        /* \"Post.sol\":2921:2956  post.CommentText.push(_CommentText) */\n      dup3\n      tag_533\n      jump\t// in\n    tag_649:\n      pop\n        /* \"Post.sol\":2966:2987  post.CommentLikeCount */\n      0x0c\n      add\n        /* \"Post.sol\":2966:2995  post.CommentLikeCount.push(0) */\n      dup1\n      sload\n      0x01\n      dup2\n      add\n      dup3\n      sstore\n        /* \"Post.sol\":2993:2994  0 */\n      0x00\n        /* \"Post.sol\":2966:2995  post.CommentLikeCount.push(0) */\n      swap2\n      dup3\n      mstore\n      0x20\n      dup3\n      keccak256\n      add\n      sstore\n      pop\n      pop\n      pop\n      pop\n      pop\n        /* \"Post.sol\":2443:3002  function Comment(... */\n      jump\t// out\n        /* \"Post.sol\":5011:5518  function savePostToFolder(... */\n    tag_179:\n        /* \"Post.sol\":5168:5181  numberOfPosts */\n      sload(0x07)\n        /* \"Post.sol\":5158:5165  _postId */\n      dup3\n        /* \"Post.sol\":5158:5181  _postId < numberOfPosts */\n      lt\n        /* \"Post.sol\":5150:5205  require(_postId < numberOfPosts, \"Post does not exist\") */\n      tag_652\n      jumpi\n      mload(0x40)\n      shl(0xe5, 0x461bcd)\n      dup2\n      mstore\n        /* \"#utility.yul\":16083:16085   */\n      0x20\n        /* \"Post.sol\":5150:5205  require(_postId < numberOfPosts, \"Post does not exist\") */\n      0x04\n      dup3\n      add\n        /* \"#utility.yul\":16065:16086   */\n      mstore\n        /* \"#utility.yul\":16122:16124   */\n      0x13\n        /* \"#utility.yul\":16102:16120   */\n      0x24\n      dup3\n      add\n        /* \"#utility.yul\":16095:16125   */\n      mstore\n      shl(0x6a, 0x141bdcdd08191bd95cc81b9bdd08195e1a5cdd)\n        /* \"#utility.yul\":16141:16159   */\n      0x44\n      dup3\n      add\n        /* \"#utility.yul\":16134:16183   */\n      mstore\n        /* \"#utility.yul\":16200:16218   */\n      0x64\n      add\n        /* \"Post.sol\":5150:5205  require(_postId < numberOfPosts, \"Post does not exist\") */\n      tag_267\n        /* \"#utility.yul\":15881:16224   */\n      jump\n        /* \"Post.sol\":5150:5205  require(_postId < numberOfPosts, \"Post does not exist\") */\n    tag_652:\n        /* \"Post.sol\":5216:5243  uint256[] storage savePosts */\n      0x00\n        /* \"Post.sol\":5246:5253  folders */\n      0x03\n        /* \"Post.sol\":5254:5265  _folderName */\n      dup5\n        /* \"Post.sol\":5246:5266  folders[_folderName] */\n      mload(0x40)\n      tag_654\n      swap2\n      swap1\n      tag_308\n      jump\t// in\n    tag_654:\n      swap1\n      dup2\n      mstore\n      0x20\n      add\n      mload(0x40)\n      dup1\n      swap2\n      sub\n      swap1\n      keccak256\n        /* \"Post.sol\":5216:5266  uint256[] storage savePosts = folders[_folderName] */\n      swap1\n      pop\n        /* \"Post.sol\":5281:5290  uint256 i */\n      0x00\n        /* \"Post.sol\":5276:5412  for (uint256 i = 0; i < savePosts.length; i++) {... */\n    tag_655:\n        /* \"Post.sol\":5300:5316  savePosts.length */\n      dup2\n      sload\n        /* \"Post.sol\":5296:5316  i < savePosts.length */\n      dup2\n      lt\n        /* \"Post.sol\":5276:5412  for (uint256 i = 0; i < savePosts.length; i++) {... */\n      iszero\n      tag_656\n      jumpi\n        /* \"Post.sol\":5361:5368  _postId */\n      dup4\n        /* \"Post.sol\":5345:5354  savePosts */\n      dup3\n        /* \"Post.sol\":5355:5356  i */\n      dup3\n        /* \"Post.sol\":5345:5357  savePosts[i] */\n      dup2\n      sload\n      dup2\n      lt\n      tag_659\n      jumpi\n      tag_659\n      tag_218\n      jump\t// in\n    tag_659:\n      swap1\n      0x00\n      mstore\n      keccak256(0x00, 0x20)\n      add\n      sload\n        /* \"Post.sol\":5345:5368  savePosts[i] != _postId */\n      sub\n        /* \"Post.sol\":5337:5401  require(savePosts[i] != _postId, \"Post already saved in folder\") */\n      tag_661\n      jumpi\n      mload(0x40)\n      shl(0xe5, 0x461bcd)\n      dup2\n      mstore\n        /* \"#utility.yul\":24316:24318   */\n      0x20\n        /* \"Post.sol\":5337:5401  require(savePosts[i] != _postId, \"Post already saved in folder\") */\n      0x04\n      dup3\n      add\n        /* \"#utility.yul\":24298:24319   */\n      mstore\n        /* \"#utility.yul\":24355:24357   */\n      0x1c\n        /* \"#utility.yul\":24335:24353   */\n      0x24\n      dup3\n      add\n        /* \"#utility.yul\":24328:24358   */\n      mstore\n        /* \"#utility.yul\":24394:24424   */\n      0x506f737420616c726561647920736176656420696e20666f6c64657200000000\n        /* \"#utility.yul\":24374:24392   */\n      0x44\n      dup3\n      add\n        /* \"#utility.yul\":24367:24425   */\n      mstore\n        /* \"#utility.yul\":24442:24460   */\n      0x64\n      add\n        /* \"Post.sol\":5337:5401  require(savePosts[i] != _postId, \"Post already saved in folder\") */\n      tag_267\n        /* \"#utility.yul\":24114:24466   */\n      jump\n        /* \"Post.sol\":5337:5401  require(savePosts[i] != _postId, \"Post already saved in folder\") */\n    tag_661:\n        /* \"Post.sol\":5318:5321  i++ */\n      0x01\n      add\n        /* \"Post.sol\":5276:5412  for (uint256 i = 0; i < savePosts.length; i++) {... */\n      jump(tag_655)\n    tag_656:\n      pop\n        /* \"Post.sol\":5421:5428  folders */\n      0x03\n        /* \"Post.sol\":5429:5440  _folderName */\n      dup5\n        /* \"Post.sol\":5421:5441  folders[_folderName] */\n      mload(0x40)\n      tag_664\n      swap2\n      swap1\n      tag_308\n      jump\t// in\n    tag_664:\n      swap1\n      dup2\n      mstore\n      0x40\n      dup1\n      mload\n      0x20\n      swap3\n      dup2\n      swap1\n      sub\n      dup4\n      add\n      swap1\n      keccak256\n        /* \"Post.sol\":5421:5455  folders[_folderName].push(_postId) */\n      dup1\n      sload\n      0x01\n      dup1\n      dup3\n      add\n      dup4\n      sstore\n      0x00\n      swap3\n      dup4\n      mstore\n      dup5\n      dup4\n      keccak256\n      swap1\n      swap2\n      add\n      dup8\n      swap1\n      sstore\n      sub(shl(0xa0, 0x01), 0x01)\n        /* \"Post.sol\":5465:5495  hasUserSavedPost[_userAddress] */\n      swap6\n      swap1\n      swap6\n      and\n      dup2\n      mstore\n        /* \"Post.sol\":5465:5481  hasUserSavedPost */\n      0x04\n        /* \"Post.sol\":5465:5495  hasUserSavedPost[_userAddress] */\n      dup4\n      mstore\n      dup2\n      dup2\n      keccak256\n        /* \"Post.sol\":5465:5504  hasUserSavedPost[_userAddress][_postId] */\n      swap6\n      dup2\n      mstore\n      swap5\n      swap1\n      swap2\n      mstore\n      swap1\n      swap3\n      keccak256\n        /* \"Post.sol\":5465:5511  hasUserSavedPost[_userAddress][_postId] = true */\n      dup1\n      sload\n      not(0xff)\n      and\n      swap1\n      swap2\n      or\n      swap1\n      sstore\n      pop\n      pop\n        /* \"Post.sol\":5011:5518  function savePostToFolder(... */\n      jump\t// out\n        /* \"Post.sol\":12781:14071  function getCommentLikes(uint256 _postId, uint256 _commentId)... */\n    tag_183:\n        /* \"Post.sol\":12901:12916  string[] memory */\n      0x60\n        /* \"Post.sol\":12930:12945  string[] memory */\n      dup1\n        /* \"Post.sol\":12959:12975  address[] memory */\n      0x60\n        /* \"Post.sol\":13018:13031  numberOfPosts */\n      sload(0x07)\n        /* \"Post.sol\":13008:13015  _postId */\n      dup6\n        /* \"Post.sol\":13008:13031  _postId < numberOfPosts */\n      lt\n        /* \"Post.sol\":13000:13055  require(_postId < numberOfPosts, \"Post does not exist\") */\n      tag_667\n      jumpi\n      mload(0x40)\n      shl(0xe5, 0x461bcd)\n      dup2\n      mstore\n        /* \"#utility.yul\":16083:16085   */\n      0x20\n        /* \"Post.sol\":13000:13055  require(_postId < numberOfPosts, \"Post does not exist\") */\n      0x04\n      dup3\n      add\n        /* \"#utility.yul\":16065:16086   */\n      mstore\n        /* \"#utility.yul\":16122:16124   */\n      0x13\n        /* \"#utility.yul\":16102:16120   */\n      0x24\n      dup3\n      add\n        /* \"#utility.yul\":16095:16125   */\n      mstore\n      shl(0x6a, 0x141bdcdd08191bd95cc81b9bdd08195e1a5cdd)\n        /* \"#utility.yul\":16141:16159   */\n      0x44\n      dup3\n      add\n        /* \"#utility.yul\":16134:16183   */\n      mstore\n        /* \"#utility.yul\":16200:16218   */\n      0x64\n      add\n        /* \"Post.sol\":13000:13055  require(_postId < numberOfPosts, \"Post does not exist\") */\n      tag_267\n        /* \"#utility.yul\":15881:16224   */\n      jump\n        /* \"Post.sol\":13000:13055  require(_postId < numberOfPosts, \"Post does not exist\") */\n    tag_667:\n        /* \"Post.sol\":13099:13104  posts */\n      0x00\n        /* \"Post.sol\":13099:13113  posts[_postId] */\n      dup6\n      dup2\n      mstore\n      0x20\n      dup2\n      swap1\n      mstore\n      0x40\n      swap1\n      keccak256\n        /* \"Post.sol\":13099:13125  posts[_postId].CommentUser */\n      0x08\n      add\n        /* \"Post.sol\":13099:13132  posts[_postId].CommentUser.length */\n      sload\n        /* \"Post.sol\":13086:13132  _commentId < posts[_postId].CommentUser.length */\n      dup5\n      lt\n        /* \"Post.sol\":13065:13180  require(... */\n      tag_669\n      jumpi\n      mload(0x40)\n      shl(0xe5, 0x461bcd)\n      dup2\n      mstore\n        /* \"#utility.yul\":16431:16433   */\n      0x20\n        /* \"Post.sol\":13065:13180  require(... */\n      0x04\n      dup3\n      add\n        /* \"#utility.yul\":16413:16434   */\n      mstore\n        /* \"#utility.yul\":16470:16472   */\n      0x16\n        /* \"#utility.yul\":16450:16468   */\n      0x24\n      dup3\n      add\n        /* \"#utility.yul\":16443:16473   */\n      mstore\n        /* \"#utility.yul\":16509:16533   */\n      0x436f6d6d656e7420646f6573206e6f7420657869737400000000000000000000\n        /* \"#utility.yul\":16489:16507   */\n      0x44\n      dup3\n      add\n        /* \"#utility.yul\":16482:16534   */\n      mstore\n        /* \"#utility.yul\":16551:16569   */\n      0x64\n      add\n        /* \"Post.sol\":13065:13180  require(... */\n      tag_267\n        /* \"#utility.yul\":16229:16575   */\n      jump\n        /* \"Post.sol\":13065:13180  require(... */\n    tag_669:\n        /* \"Post.sol\":13191:13208  uint256 likeCount */\n      0x00\n        /* \"Post.sol\":13211:13225  posts[_postId] */\n      dup6\n      dup2\n      mstore\n      0x20\n      dup2\n      swap1\n      mstore\n      0x40\n      dup2\n      keccak256\n        /* \"Post.sol\":13211:13242  posts[_postId].CommentLikeCount */\n      0x0c\n      add\n        /* \"Post.sol\":13211:13254  posts[_postId].CommentLikeCount[_commentId] */\n      dup1\n      sload\n        /* \"Post.sol\":13243:13253  _commentId */\n      dup7\n      swap1\n        /* \"Post.sol\":13211:13254  posts[_postId].CommentLikeCount[_commentId] */\n      dup2\n      lt\n      tag_672\n      jumpi\n      tag_672\n      tag_218\n      jump\t// in\n    tag_672:\n      swap1\n      0x00\n      mstore\n      keccak256(0x00, 0x20)\n      add\n      sload\n        /* \"Post.sol\":13191:13254  uint256 likeCount = posts[_postId].CommentLikeCount[_commentId] */\n      swap1\n      pop\n        /* \"Post.sol\":13264:13289  string[] memory userNames */\n      0x00\n        /* \"Post.sol\":13305:13314  likeCount */\n      dup2\n        /* \"Post.sol\":13292:13315  new string[](likeCount) */\n      0xffffffffffffffff\n      dup2\n      gt\n      iszero\n      tag_675\n      jumpi\n      tag_675\n      tag_208\n      jump\t// in\n    tag_675:\n      mload(0x40)\n      swap1\n      dup1\n      dup3\n      mstore\n      dup1\n      0x20\n      mul\n      0x20\n      add\n      dup3\n      add\n      0x40\n      mstore\n      dup1\n      iszero\n      tag_676\n      jumpi\n      dup2\n      0x20\n      add\n    tag_677:\n      0x60\n      dup2\n      mstore\n      0x20\n      add\n      swap1\n      0x01\n      swap1\n      sub\n      swap1\n      dup2\n      tag_677\n      jumpi\n      swap1\n      pop\n    tag_676:\n      pop\n        /* \"Post.sol\":13264:13315  string[] memory userNames = new string[](likeCount) */\n      swap1\n      pop\n        /* \"Post.sol\":13325:13354  string[] memory profilePhotos */\n      0x00\n        /* \"Post.sol\":13370:13379  likeCount */\n      dup3\n        /* \"Post.sol\":13357:13380  new string[](likeCount) */\n      0xffffffffffffffff\n      dup2\n      gt\n      iszero\n      tag_679\n      jumpi\n      tag_679\n      tag_208\n      jump\t// in\n    tag_679:\n      mload(0x40)\n      swap1\n      dup1\n      dup3\n      mstore\n      dup1\n      0x20\n      mul\n      0x20\n      add\n      dup3\n      add\n      0x40\n      mstore\n      dup1\n      iszero\n      tag_680\n      jumpi\n      dup2\n      0x20\n      add\n    tag_681:\n      0x60\n      dup2\n      mstore\n      0x20\n      add\n      swap1\n      0x01\n      swap1\n      sub\n      swap1\n      dup2\n      tag_681\n      jumpi\n      swap1\n      pop\n    tag_680:\n      pop\n        /* \"Post.sol\":13325:13380  string[] memory profilePhotos = new string[](likeCount) */\n      swap1\n      pop\n        /* \"Post.sol\":13390:13420  address[] memory userAddresses */\n      0x00\n        /* \"Post.sol\":13437:13446  likeCount */\n      dup4\n        /* \"Post.sol\":13423:13447  new address[](likeCount) */\n      0xffffffffffffffff\n      dup2\n      gt\n      iszero\n      tag_683\n      jumpi\n      tag_683\n      tag_208\n      jump\t// in\n    tag_683:\n      mload(0x40)\n      swap1\n      dup1\n      dup3\n      mstore\n      dup1\n      0x20\n      mul\n      0x20\n      add\n      dup3\n      add\n      0x40\n      mstore\n      dup1\n      iszero\n      tag_684\n      jumpi\n      dup2\n      0x20\n      add\n      0x20\n      dup3\n      mul\n      dup1\n      calldatasize\n      dup4\n      calldatacopy\n      add\n      swap1\n      pop\n    tag_684:\n      pop\n        /* \"Post.sol\":13390:13447  address[] memory userAddresses = new address[](likeCount) */\n      swap1\n      pop\n        /* \"Post.sol\":13458:13479  SocialProfile profile */\n      0x00\n        /* \"Post.sol\":13496:13516  socialProfileAddress */\n      0x08\n      0x00\n      swap1\n      sload\n      swap1\n      0x0100\n      exp\n      swap1\n      div\n      sub(shl(0xa0, 0x01), 0x01)\n      and\n        /* \"Post.sol\":13458:13517  SocialProfile profile = SocialProfile(socialProfileAddress) */\n      swap1\n      pop\n        /* \"Post.sol\":13528:13541  uint256 index */\n      0x00\n        /* \"Post.sol\":13555:13579  uint256 lengthOfAllUsers */\n      dup1\n        /* \"Post.sol\":13582:13589  profile */\n      dup3\n      sub(shl(0xa0, 0x01), 0x01)\n        /* \"Post.sol\":13582:13604  profile.allUsersLength */\n      and\n      0x0d28afc7\n        /* \"Post.sol\":13582:13606  profile.allUsersLength() */\n      mload(0x40)\n      dup2\n      0xffffffff\n      and\n      0xe0\n      shl\n      dup2\n      mstore\n      0x04\n      add\n      0x20\n      mload(0x40)\n      dup1\n      dup4\n      sub\n      dup2\n      dup7\n      gas\n      staticcall\n      iszero\n      dup1\n      iszero\n      tag_686\n      jumpi\n      returndatasize\n      0x00\n      dup1\n      returndatacopy\n      revert(0x00, returndatasize)\n    tag_686:\n      pop\n      pop\n      pop\n      pop\n      mload(0x40)\n      returndatasize\n      not(0x1f)\n      0x1f\n      dup3\n      add\n      and\n      dup3\n      add\n      dup1\n      0x40\n      mstore\n      pop\n      dup2\n      add\n      swap1\n      tag_687\n      swap2\n      swap1\n      tag_590\n      jump\t// in\n    tag_687:\n        /* \"Post.sol\":13555:13606  uint256 lengthOfAllUsers = profile.allUsersLength() */\n      swap1\n      pop\n        /* \"Post.sol\":13622:13631  uint256 i */\n      0x00\n        /* \"Post.sol\":13617:14007  for (uint256 i = 0; i < lengthOfAllUsers; i++) {... */\n    tag_688:\n        /* \"Post.sol\":13641:13657  lengthOfAllUsers */\n      dup2\n        /* \"Post.sol\":13637:13638  i */\n      dup2\n        /* \"Post.sol\":13637:13657  i < lengthOfAllUsers */\n      lt\n        /* \"Post.sol\":13617:14007  for (uint256 i = 0; i < lengthOfAllUsers; i++) {... */\n      iszero\n      tag_689\n      jumpi\n        /* \"Post.sol\":13693:13719  profile.allUsersAddress(i) */\n      mload(0x40)\n      shl(0xe0, 0x9f1953c3)\n      dup2\n      mstore\n      0x04\n      dup2\n      add\n        /* \"#utility.yul\":1628:1653   */\n      dup3\n      swap1\n      mstore\n        /* \"Post.sol\":13678:13690  address user */\n      0x00\n      swap1\n      sub(shl(0xa0, 0x01), 0x01)\n        /* \"Post.sol\":13693:13716  profile.allUsersAddress */\n      dup7\n      and\n      swap1\n      0x9f1953c3\n      swap1\n        /* \"#utility.yul\":1601:1619   */\n      0x24\n      add\n        /* \"Post.sol\":13693:13719  profile.allUsersAddress(i) */\n      0x20\n      mload(0x40)\n      dup1\n      dup4\n      sub\n      dup2\n      dup7\n      gas\n      staticcall\n      iszero\n      dup1\n      iszero\n      tag_693\n      jumpi\n      returndatasize\n      0x00\n      dup1\n      returndatacopy\n      revert(0x00, returndatasize)\n    tag_693:\n      pop\n      pop\n      pop\n      pop\n      mload(0x40)\n      returndatasize\n      not(0x1f)\n      0x1f\n      dup3\n      add\n      and\n      dup3\n      add\n      dup1\n      0x40\n      mstore\n      pop\n      dup2\n      add\n      swap1\n      tag_694\n      swap2\n      swap1\n      tag_598\n      jump\t// in\n    tag_694:\n        /* \"Post.sol\":13678:13719  address user = profile.allUsersAddress(i) */\n      swap1\n      pop\n        /* \"Post.sol\":13738:13750  commentLikes */\n      0x02\n        /* \"Post.sol\":13738:13759  commentLikes[_postId] */\n      0x00\n        /* \"Post.sol\":13751:13758  _postId */\n      dup16\n        /* \"Post.sol\":13738:13759  commentLikes[_postId] */\n      dup2\n      mstore\n      0x20\n      add\n      swap1\n      dup2\n      mstore\n      0x20\n      add\n      0x00\n      keccak256\n        /* \"Post.sol\":13738:13771  commentLikes[_postId][_commentId] */\n      0x00\n        /* \"Post.sol\":13760:13770  _commentId */\n      dup15\n        /* \"Post.sol\":13738:13771  commentLikes[_postId][_commentId] */\n      dup2\n      mstore\n      0x20\n      add\n      swap1\n      dup2\n      mstore\n      0x20\n      add\n      0x00\n      keccak256\n        /* \"Post.sol\":13738:13777  commentLikes[_postId][_commentId][user] */\n      0x00\n        /* \"Post.sol\":13772:13776  user */\n      dup3\n      sub(shl(0xa0, 0x01), 0x01)\n        /* \"Post.sol\":13738:13777  commentLikes[_postId][_commentId][user] */\n      and\n      sub(shl(0xa0, 0x01), 0x01)\n      and\n      dup2\n      mstore\n      0x20\n      add\n      swap1\n      dup2\n      mstore\n      0x20\n      add\n      0x00\n      keccak256\n      0x00\n      swap1\n      sload\n      swap1\n      0x0100\n      exp\n      swap1\n      div\n      0xff\n      and\n        /* \"Post.sol\":13734:13997  if (commentLikes[_postId][_commentId][user]) {... */\n      iszero\n      tag_695\n      jumpi\n        /* \"Post.sol\":13816:13845  profile.profileUsername(user) */\n      mload(0x40)\n      shl(0xe1, 0x742df7e1)\n      dup2\n      mstore\n      sub(shl(0xa0, 0x01), 0x01)\n        /* \"#utility.yul\":11564:11619   */\n      dup3\n      dup2\n      and\n        /* \"Post.sol\":13816:13845  profile.profileUsername(user) */\n      0x04\n      dup4\n      add\n        /* \"#utility.yul\":11546:11620   */\n      mstore\n        /* \"Post.sol\":13816:13839  profile.profileUsername */\n      dup7\n      and\n      swap1\n      0xe85befc2\n      swap1\n        /* \"#utility.yul\":11519:11537   */\n      0x24\n      add\n        /* \"Post.sol\":13816:13845  profile.profileUsername(user) */\n      0x00\n      mload(0x40)\n      dup1\n      dup4\n      sub\n      dup2\n      dup7\n      gas\n      staticcall\n      iszero\n      dup1\n      iszero\n      tag_698\n      jumpi\n      returndatasize\n      0x00\n      dup1\n      returndatacopy\n      revert(0x00, returndatasize)\n    tag_698:\n      pop\n      pop\n      pop\n      pop\n      mload(0x40)\n      returndatasize\n      0x00\n      dup3\n      returndatacopy\n      0x1f\n      returndatasize\n      swap1\n      dup2\n      add\n      not(0x1f)\n      and\n      dup3\n      add\n      0x40\n      mstore\n      tag_699\n      swap2\n      swap1\n      dup2\n      add\n      swap1\n      tag_294\n      jump\t// in\n    tag_699:\n        /* \"Post.sol\":13797:13806  userNames */\n      dup9\n        /* \"Post.sol\":13807:13812  index */\n      dup6\n        /* \"Post.sol\":13797:13813  userNames[index] */\n      dup2\n      mload\n      dup2\n      lt\n      tag_701\n      jumpi\n      tag_701\n      tag_218\n      jump\t// in\n    tag_701:\n      0x20\n      swap1\n      dup2\n      mul\n      swap2\n      swap1\n      swap2\n      add\n      add\n        /* \"Post.sol\":13797:13845  userNames[index] = profile.profileUsername(user) */\n      mstore\n        /* \"Post.sol\":13886:13912  profile.profilePhoto(user) */\n      mload(0x40)\n      shl(0xe0, 0xfbf31669)\n      dup2\n      mstore\n      sub(shl(0xa0, 0x01), 0x01)\n        /* \"#utility.yul\":11564:11619   */\n      dup3\n      dup2\n      and\n        /* \"Post.sol\":13886:13912  profile.profilePhoto(user) */\n      0x04\n      dup4\n      add\n        /* \"#utility.yul\":11546:11620   */\n      mstore\n        /* \"Post.sol\":13886:13906  profile.profilePhoto */\n      dup7\n      and\n      swap1\n      0xfbf31669\n      swap1\n        /* \"#utility.yul\":11519:11537   */\n      0x24\n      add\n        /* \"Post.sol\":13886:13912  profile.profilePhoto(user) */\n      0x00\n      mload(0x40)\n      dup1\n      dup4\n      sub\n      dup2\n      dup7\n      gas\n      staticcall\n      iszero\n      dup1\n      iszero\n      tag_704\n      jumpi\n      returndatasize\n      0x00\n      dup1\n      returndatacopy\n      revert(0x00, returndatasize)\n    tag_704:\n      pop\n      pop\n      pop\n      pop\n      mload(0x40)\n      returndatasize\n      0x00\n      dup3\n      returndatacopy\n      0x1f\n      returndatasize\n      swap1\n      dup2\n      add\n      not(0x1f)\n      and\n      dup3\n      add\n      0x40\n      mstore\n      tag_705\n      swap2\n      swap1\n      dup2\n      add\n      swap1\n      tag_294\n      jump\t// in\n    tag_705:\n        /* \"Post.sol\":13863:13876  profilePhotos */\n      dup8\n        /* \"Post.sol\":13877:13882  index */\n      dup6\n        /* \"Post.sol\":13863:13883  profilePhotos[index] */\n      dup2\n      mload\n      dup2\n      lt\n      tag_707\n      jumpi\n      tag_707\n      tag_218\n      jump\t// in\n    tag_707:\n      0x20\n      mul\n      0x20\n      add\n      add\n        /* \"Post.sol\":13863:13912  profilePhotos[index] = profile.profilePhoto(user) */\n      dup2\n      swap1\n      mstore\n      pop\n        /* \"Post.sol\":13953:13957  user */\n      dup1\n        /* \"Post.sol\":13930:13943  userAddresses */\n      dup7\n        /* \"Post.sol\":13944:13949  index */\n      dup6\n        /* \"Post.sol\":13930:13950  userAddresses[index] */\n      dup2\n      mload\n      dup2\n      lt\n      tag_709\n      jumpi\n      tag_709\n      tag_218\n      jump\t// in\n    tag_709:\n      sub(shl(0xa0, 0x01), 0x01)\n        /* \"Post.sol\":13930:13957  userAddresses[index] = user */\n      swap1\n      swap3\n      and\n        /* \"Post.sol\":13930:13950  userAddresses[index] */\n      0x20\n      swap3\n      dup4\n      mul\n      swap2\n      swap1\n      swap2\n      add\n      swap1\n      swap2\n      add\n        /* \"Post.sol\":13930:13957  userAddresses[index] = user */\n      mstore\n        /* \"Post.sol\":13975:13982  index++ */\n      dup4\n      tag_710\n      dup2\n      tag_279\n      jump\t// in\n    tag_710:\n      swap5\n      pop\n      pop\n        /* \"Post.sol\":13734:13997  if (commentLikes[_postId][_commentId][user]) {... */\n    tag_695:\n      pop\n        /* \"Post.sol\":13659:13662  i++ */\n      0x01\n      add\n        /* \"Post.sol\":13617:14007  for (uint256 i = 0; i < lengthOfAllUsers; i++) {... */\n      jump(tag_688)\n    tag_689:\n      pop\n        /* \"Post.sol\":14024:14033  userNames */\n      swap5\n      swap12\n        /* \"Post.sol\":14035:14048  profilePhotos */\n      swap4\n      swap11\n      pop\n        /* \"Post.sol\":14050:14063  userAddresses */\n      swap2\n      swap9\n      pop\n        /* \"Post.sol\":12781:14071  function getCommentLikes(uint256 _postId, uint256 _commentId)... */\n      swap2\n      swap7\n      pop\n      pop\n      pop\n      pop\n      pop\n      pop\n      pop\n      jump\t// out\n        /* \"#utility.yul\":14:141   */\n    tag_208:\n        /* \"#utility.yul\":75:85   */\n      0x4e487b71\n        /* \"#utility.yul\":70:73   */\n      0xe0\n        /* \"#utility.yul\":66:86   */\n      shl\n        /* \"#utility.yul\":63:64   */\n      0x00\n        /* \"#utility.yul\":56:87   */\n      mstore\n        /* \"#utility.yul\":106:110   */\n      0x41\n        /* \"#utility.yul\":103:104   */\n      0x04\n        /* \"#utility.yul\":96:111   */\n      mstore\n        /* \"#utility.yul\":130:134   */\n      0x24\n        /* \"#utility.yul\":127:128   */\n      0x00\n        /* \"#utility.yul\":120:135   */\n      revert\n        /* \"#utility.yul\":146:421   */\n    tag_711:\n        /* \"#utility.yul\":217:219   */\n      0x40\n        /* \"#utility.yul\":211:220   */\n      mload\n        /* \"#utility.yul\":282:284   */\n      0x1f\n        /* \"#utility.yul\":263:276   */\n      dup3\n      add\n      not(0x1f)\n        /* \"#utility.yul\":259:286   */\n      and\n        /* \"#utility.yul\":247:287   */\n      dup2\n      add\n        /* \"#utility.yul\":317:335   */\n      0xffffffffffffffff\n        /* \"#utility.yul\":302:336   */\n      dup2\n      gt\n        /* \"#utility.yul\":338:360   */\n      dup3\n      dup3\n      lt\n        /* \"#utility.yul\":299:361   */\n      or\n        /* \"#utility.yul\":296:384   */\n      iszero\n      tag_730\n      jumpi\n        /* \"#utility.yul\":364:382   */\n      tag_730\n      tag_208\n      jump\t// in\n    tag_730:\n        /* \"#utility.yul\":400:402   */\n      0x40\n        /* \"#utility.yul\":393:415   */\n      mstore\n        /* \"#utility.yul\":146:421   */\n      swap2\n      swap1\n      pop\n      jump\t// out\n        /* \"#utility.yul\":426:613   */\n    tag_712:\n        /* \"#utility.yul\":475:479   */\n      0x00\n        /* \"#utility.yul\":508:526   */\n      0xffffffffffffffff\n        /* \"#utility.yul\":500:506   */\n      dup3\n        /* \"#utility.yul\":497:527   */\n      gt\n        /* \"#utility.yul\":494:550   */\n      iszero\n      tag_733\n      jumpi\n        /* \"#utility.yul\":530:548   */\n      tag_733\n      tag_208\n      jump\t// in\n    tag_733:\n      pop\n        /* \"#utility.yul\":596:598   */\n      0x1f\n        /* \"#utility.yul\":575:590   */\n      add\n      not(0x1f)\n        /* \"#utility.yul\":571:600   */\n      and\n        /* \"#utility.yul\":602:606   */\n      0x20\n        /* \"#utility.yul\":567:607   */\n      add\n      swap1\n        /* \"#utility.yul\":426:613   */\n      jump\t// out\n        /* \"#utility.yul\":618:1082   */\n    tag_713:\n        /* \"#utility.yul\":661:666   */\n      0x00\n        /* \"#utility.yul\":714:717   */\n      dup3\n        /* \"#utility.yul\":707:711   */\n      0x1f\n        /* \"#utility.yul\":699:705   */\n      dup4\n        /* \"#utility.yul\":695:712   */\n      add\n        /* \"#utility.yul\":691:718   */\n      slt\n        /* \"#utility.yul\":681:736   */\n      tag_735\n      jumpi\n        /* \"#utility.yul\":732:733   */\n      0x00\n        /* \"#utility.yul\":729:730   */\n      dup1\n        /* \"#utility.yul\":722:734   */\n      revert\n        /* \"#utility.yul\":681:736   */\n    tag_735:\n        /* \"#utility.yul\":768:774   */\n      dup2\n        /* \"#utility.yul\":755:775   */\n      calldataload\n        /* \"#utility.yul\":799:848   */\n      tag_736\n        /* \"#utility.yul\":815:847   */\n      tag_737\n        /* \"#utility.yul\":844:846   */\n      dup3\n        /* \"#utility.yul\":815:847   */\n      tag_712\n      jump\t// in\n    tag_737:\n        /* \"#utility.yul\":799:848   */\n      tag_711\n      jump\t// in\n    tag_736:\n        /* \"#utility.yul\":873:875   */\n      dup2\n        /* \"#utility.yul\":864:871   */\n      dup2\n        /* \"#utility.yul\":857:876   */\n      mstore\n        /* \"#utility.yul\":919:922   */\n      dup5\n        /* \"#utility.yul\":912:916   */\n      0x20\n        /* \"#utility.yul\":907:909   */\n      dup4\n        /* \"#utility.yul\":899:905   */\n      dup7\n        /* \"#utility.yul\":895:910   */\n      add\n        /* \"#utility.yul\":891:917   */\n      add\n        /* \"#utility.yul\":888:923   */\n      gt\n        /* \"#utility.yul\":885:940   */\n      iszero\n      tag_738\n      jumpi\n        /* \"#utility.yul\":936:937   */\n      0x00\n        /* \"#utility.yul\":933:934   */\n      dup1\n        /* \"#utility.yul\":926:938   */\n      revert\n        /* \"#utility.yul\":885:940   */\n    tag_738:\n        /* \"#utility.yul\":1001:1003   */\n      dup2\n        /* \"#utility.yul\":994:998   */\n      0x20\n        /* \"#utility.yul\":986:992   */\n      dup6\n        /* \"#utility.yul\":982:999   */\n      add\n        /* \"#utility.yul\":975:979   */\n      0x20\n        /* \"#utility.yul\":966:973   */\n      dup4\n        /* \"#utility.yul\":962:980   */\n      add\n        /* \"#utility.yul\":949:1004   */\n      calldatacopy\n        /* \"#utility.yul\":1049:1050   */\n      0x00\n        /* \"#utility.yul\":1024:1040   */\n      swap2\n      dup2\n      add\n        /* \"#utility.yul\":1042:1046   */\n      0x20\n        /* \"#utility.yul\":1020:1047   */\n      add\n        /* \"#utility.yul\":1013:1051   */\n      swap2\n      swap1\n      swap2\n      mstore\n        /* \"#utility.yul\":1028:1035   */\n      swap4\n        /* \"#utility.yul\":618:1082   */\n      swap3\n      pop\n      pop\n      pop\n      jump\t// out\n        /* \"#utility.yul\":1087:1477   */\n    tag_40:\n        /* \"#utility.yul\":1165:1171   */\n      0x00\n        /* \"#utility.yul\":1173:1179   */\n      dup1\n        /* \"#utility.yul\":1226:1228   */\n      0x40\n        /* \"#utility.yul\":1214:1223   */\n      dup4\n        /* \"#utility.yul\":1205:1212   */\n      dup6\n        /* \"#utility.yul\":1201:1224   */\n      sub\n        /* \"#utility.yul\":1197:1229   */\n      slt\n        /* \"#utility.yul\":1194:1246   */\n      iszero\n      tag_740\n      jumpi\n        /* \"#utility.yul\":1242:1243   */\n      0x00\n        /* \"#utility.yul\":1239:1240   */\n      dup1\n        /* \"#utility.yul\":1232:1244   */\n      revert\n        /* \"#utility.yul\":1194:1246   */\n    tag_740:\n        /* \"#utility.yul\":1282:1291   */\n      dup3\n        /* \"#utility.yul\":1269:1292   */\n      calldataload\n        /* \"#utility.yul\":1315:1333   */\n      0xffffffffffffffff\n        /* \"#utility.yul\":1307:1313   */\n      dup2\n        /* \"#utility.yul\":1304:1334   */\n      gt\n        /* \"#utility.yul\":1301:1351   */\n      iszero\n      tag_741\n      jumpi\n        /* \"#utility.yul\":1347:1348   */\n      0x00\n        /* \"#utility.yul\":1344:1345   */\n      dup1\n        /* \"#utility.yul\":1337:1349   */\n      revert\n        /* \"#utility.yul\":1301:1351   */\n    tag_741:\n        /* \"#utility.yul\":1370:1420   */\n      tag_742\n        /* \"#utility.yul\":1412:1419   */\n      dup6\n        /* \"#utility.yul\":1403:1409   */\n      dup3\n        /* \"#utility.yul\":1392:1401   */\n      dup7\n        /* \"#utility.yul\":1388:1410   */\n      add\n        /* \"#utility.yul\":1370:1420   */\n      tag_713\n      jump\t// in\n    tag_742:\n        /* \"#utility.yul\":1360:1420   */\n      swap6\n        /* \"#utility.yul\":1467:1469   */\n      0x20\n        /* \"#utility.yul\":1452:1470   */\n      swap5\n      swap1\n      swap5\n      add\n        /* \"#utility.yul\":1439:1471   */\n      calldataload\n      swap5\n      pop\n      pop\n      pop\n      pop\n        /* \"#utility.yul\":1087:1477   */\n      jump\t// out\n        /* \"#utility.yul\":1664:1844   */\n    tag_47:\n        /* \"#utility.yul\":1723:1729   */\n      0x00\n        /* \"#utility.yul\":1776:1778   */\n      0x20\n        /* \"#utility.yul\":1764:1773   */\n      dup3\n        /* \"#utility.yul\":1755:1762   */\n      dup5\n        /* \"#utility.yul\":1751:1774   */\n      sub\n        /* \"#utility.yul\":1747:1779   */\n      slt\n        /* \"#utility.yul\":1744:1796   */\n      iszero\n      tag_745\n      jumpi\n        /* \"#utility.yul\":1792:1793   */\n      0x00\n        /* \"#utility.yul\":1789:1790   */\n      dup1\n        /* \"#utility.yul\":1782:1794   */\n      revert\n        /* \"#utility.yul\":1744:1796   */\n    tag_745:\n      pop\n        /* \"#utility.yul\":1815:1838   */\n      calldataload\n      swap2\n        /* \"#utility.yul\":1664:1844   */\n      swap1\n      pop\n      jump\t// out\n        /* \"#utility.yul\":1981:2270   */\n    tag_715:\n        /* \"#utility.yul\":2023:2026   */\n      0x00\n        /* \"#utility.yul\":2061:2066   */\n      dup2\n        /* \"#utility.yul\":2055:2067   */\n      mload\n        /* \"#utility.yul\":2088:2094   */\n      dup1\n        /* \"#utility.yul\":2083:2086   */\n      dup5\n        /* \"#utility.yul\":2076:2095   */\n      mstore\n        /* \"#utility.yul\":2144:2150   */\n      dup1\n        /* \"#utility.yul\":2137:2141   */\n      0x20\n        /* \"#utility.yul\":2130:2135   */\n      dup5\n        /* \"#utility.yul\":2126:2142   */\n      add\n        /* \"#utility.yul\":2119:2123   */\n      0x20\n        /* \"#utility.yul\":2114:2117   */\n      dup7\n        /* \"#utility.yul\":2110:2124   */\n      add\n        /* \"#utility.yul\":2104:2151   */\n      mcopy\n        /* \"#utility.yul\":2196:2197   */\n      0x00\n        /* \"#utility.yul\":2189:2193   */\n      0x20\n        /* \"#utility.yul\":2180:2186   */\n      dup3\n        /* \"#utility.yul\":2175:2178   */\n      dup7\n        /* \"#utility.yul\":2171:2187   */\n      add\n        /* \"#utility.yul\":2167:2194   */\n      add\n        /* \"#utility.yul\":2160:2198   */\n      mstore\n        /* \"#utility.yul\":2259:2263   */\n      0x20\n        /* \"#utility.yul\":2252:2254   */\n      0x1f\n        /* \"#utility.yul\":2248:2255   */\n      not\n        /* \"#utility.yul\":2243:2245   */\n      0x1f\n        /* \"#utility.yul\":2235:2241   */\n      dup4\n        /* \"#utility.yul\":2231:2246   */\n      add\n        /* \"#utility.yul\":2227:2256   */\n      and\n        /* \"#utility.yul\":2222:2225   */\n      dup6\n        /* \"#utility.yul\":2218:2257   */\n      add\n        /* \"#utility.yul\":2214:2264   */\n      add\n        /* \"#utility.yul\":2207:2264   */\n      swap2\n      pop\n      pop\n        /* \"#utility.yul\":1981:2270   */\n      swap3\n      swap2\n      pop\n      pop\n      jump\t// out\n        /* \"#utility.yul\":2275:3251   */\n    tag_50:\n        /* \"#utility.yul\":2623:2627   */\n      0x00\n        /* \"#utility.yul\":2652:2655   */\n      0x0100\n      sub(shl(0xa0, 0x01), 0x01)\n        /* \"#utility.yul\":2686:2692   */\n      dup12\n        /* \"#utility.yul\":2682:2737   */\n      and\n        /* \"#utility.yul\":2671:2680   */\n      dup4\n        /* \"#utility.yul\":2664:2738   */\n      mstore\n        /* \"#utility.yul\":2774:2780   */\n      dup10\n        /* \"#utility.yul\":2769:2771   */\n      0x20\n        /* \"#utility.yul\":2758:2767   */\n      dup5\n        /* \"#utility.yul\":2754:2772   */\n      add\n        /* \"#utility.yul\":2747:2781   */\n      mstore\n        /* \"#utility.yul\":2817:2819   */\n      dup1\n        /* \"#utility.yul\":2812:2814   */\n      0x40\n        /* \"#utility.yul\":2801:2810   */\n      dup5\n        /* \"#utility.yul\":2797:2815   */\n      add\n        /* \"#utility.yul\":2790:2820   */\n      mstore\n        /* \"#utility.yul\":2843:2888   */\n      tag_749\n        /* \"#utility.yul\":2884:2886   */\n      dup2\n        /* \"#utility.yul\":2873:2882   */\n      dup5\n        /* \"#utility.yul\":2869:2887   */\n      add\n        /* \"#utility.yul\":2861:2867   */\n      dup11\n        /* \"#utility.yul\":2843:2888   */\n      tag_715\n      jump\t// in\n    tag_749:\n        /* \"#utility.yul\":2829:2888   */\n      swap1\n      pop\n        /* \"#utility.yul\":2936:2945   */\n      dup3\n        /* \"#utility.yul\":2928:2934   */\n      dup2\n        /* \"#utility.yul\":2924:2946   */\n      sub\n        /* \"#utility.yul\":2919:2921   */\n      0x60\n        /* \"#utility.yul\":2908:2917   */\n      dup5\n        /* \"#utility.yul\":2904:2922   */\n      add\n        /* \"#utility.yul\":2897:2947   */\n      mstore\n        /* \"#utility.yul\":2970:3003   */\n      tag_750\n        /* \"#utility.yul\":2996:3002   */\n      dup2\n        /* \"#utility.yul\":2988:2994   */\n      dup10\n        /* \"#utility.yul\":2970:3003   */\n      tag_715\n      jump\t// in\n    tag_750:\n        /* \"#utility.yul\":2956:3003   */\n      swap1\n      pop\n        /* \"#utility.yul\":3052:3061   */\n      dup3\n        /* \"#utility.yul\":3044:3050   */\n      dup2\n        /* \"#utility.yul\":3040:3062   */\n      sub\n        /* \"#utility.yul\":3034:3037   */\n      0x80\n        /* \"#utility.yul\":3023:3032   */\n      dup5\n        /* \"#utility.yul\":3019:3038   */\n      add\n        /* \"#utility.yul\":3012:3063   */\n      mstore\n        /* \"#utility.yul\":3080:3113   */\n      tag_751\n        /* \"#utility.yul\":3106:3112   */\n      dup2\n        /* \"#utility.yul\":3098:3104   */\n      dup9\n        /* \"#utility.yul\":3080:3113   */\n      tag_715\n      jump\t// in\n    tag_751:\n        /* \"#utility.yul\":3144:3147   */\n      0xa0\n        /* \"#utility.yul\":3129:3148   */\n      dup5\n      add\n        /* \"#utility.yul\":3122:3157   */\n      swap7\n      swap1\n      swap7\n      mstore\n      pop\n      pop\n        /* \"#utility.yul\":3188:3191   */\n      0xc0\n        /* \"#utility.yul\":3173:3192   */\n      dup2\n      add\n        /* \"#utility.yul\":3166:3201   */\n      swap3\n      swap1\n      swap3\n      mstore\n        /* \"#utility.yul\":3232:3235   */\n      0xe0\n        /* \"#utility.yul\":3217:3236   */\n      swap1\n      swap2\n      add\n        /* \"#utility.yul\":3210:3245   */\n      mstore\n        /* \"#utility.yul\":3072:3113   */\n      swap6\n        /* \"#utility.yul\":2275:3251   */\n      swap5\n      pop\n      pop\n      pop\n      pop\n      pop\n      jump\t// out\n        /* \"#utility.yul\":3256:3410   */\n    tag_716:\n      sub(shl(0xa0, 0x01), 0x01)\n        /* \"#utility.yul\":3335:3340   */\n      dup2\n        /* \"#utility.yul\":3331:3385   */\n      and\n        /* \"#utility.yul\":3324:3329   */\n      dup2\n        /* \"#utility.yul\":3321:3386   */\n      eq\n        /* \"#utility.yul\":3311:3404   */\n      tag_753\n      jumpi\n        /* \"#utility.yul\":3400:3401   */\n      0x00\n        /* \"#utility.yul\":3397:3398   */\n      dup1\n        /* \"#utility.yul\":3390:3402   */\n      revert\n        /* \"#utility.yul\":3311:3404   */\n    tag_753:\n        /* \"#utility.yul\":3256:3410   */\n      pop\n      jump\t// out\n        /* \"#utility.yul\":3415:3662   */\n    tag_54:\n        /* \"#utility.yul\":3474:3480   */\n      0x00\n        /* \"#utility.yul\":3527:3529   */\n      0x20\n        /* \"#utility.yul\":3515:3524   */\n      dup3\n        /* \"#utility.yul\":3506:3513   */\n      dup5\n        /* \"#utility.yul\":3502:3525   */\n      sub\n        /* \"#utility.yul\":3498:3530   */\n      slt\n        /* \"#utility.yul\":3495:3547   */\n      iszero\n      tag_755\n      jumpi\n        /* \"#utility.yul\":3543:3544   */\n      0x00\n        /* \"#utility.yul\":3540:3541   */\n      dup1\n        /* \"#utility.yul\":3533:3545   */\n      revert\n        /* \"#utility.yul\":3495:3547   */\n    tag_755:\n        /* \"#utility.yul\":3582:3591   */\n      dup2\n        /* \"#utility.yul\":3569:3592   */\n      calldataload\n        /* \"#utility.yul\":3601:3632   */\n      tag_756\n        /* \"#utility.yul\":3626:3631   */\n      dup2\n        /* \"#utility.yul\":3601:3632   */\n      tag_716\n      jump\t// in\n    tag_756:\n        /* \"#utility.yul\":3651:3656   */\n      swap4\n        /* \"#utility.yul\":3415:3662   */\n      swap3\n      pop\n      pop\n      pop\n      jump\t// out\n        /* \"#utility.yul\":3667:4155   */\n    tag_717:\n        /* \"#utility.yul\":3720:3723   */\n      0x00\n        /* \"#utility.yul\":3758:3763   */\n      dup2\n        /* \"#utility.yul\":3752:3764   */\n      mload\n        /* \"#utility.yul\":3785:3791   */\n      dup1\n        /* \"#utility.yul\":3780:3783   */\n      dup5\n        /* \"#utility.yul\":3773:3792   */\n      mstore\n        /* \"#utility.yul\":3811:3815   */\n      0x20\n        /* \"#utility.yul\":3840:3844   */\n      dup1\n        /* \"#utility.yul\":3835:3838   */\n      dup6\n        /* \"#utility.yul\":3831:3845   */\n      add\n        /* \"#utility.yul\":3824:3845   */\n      swap5\n      pop\n        /* \"#utility.yul\":3879:3883   */\n      0x20\n        /* \"#utility.yul\":3872:3877   */\n      dup5\n        /* \"#utility.yul\":3868:3884   */\n      add\n        /* \"#utility.yul\":3902:3903   */\n      0x00\n        /* \"#utility.yul\":3912:4130   */\n    tag_758:\n        /* \"#utility.yul\":3926:3932   */\n      dup4\n        /* \"#utility.yul\":3923:3924   */\n      dup2\n        /* \"#utility.yul\":3920:3933   */\n      lt\n        /* \"#utility.yul\":3912:4130   */\n      iszero\n      tag_760\n      jumpi\n        /* \"#utility.yul\":3991:4004   */\n      dup2\n      mload\n      sub(shl(0xa0, 0x01), 0x01)\n        /* \"#utility.yul\":3987:4049   */\n      and\n        /* \"#utility.yul\":3975:4050   */\n      dup8\n      mstore\n        /* \"#utility.yul\":4070:4082   */\n      swap6\n      dup3\n      add\n      swap6\n        /* \"#utility.yul\":4105:4120   */\n      swap1\n      dup3\n      add\n      swap1\n        /* \"#utility.yul\":3948:3949   */\n      0x01\n        /* \"#utility.yul\":3941:3950   */\n      add\n        /* \"#utility.yul\":3912:4130   */\n      jump(tag_758)\n    tag_760:\n      pop\n        /* \"#utility.yul\":4146:4149   */\n      swap5\n      swap6\n        /* \"#utility.yul\":3667:4155   */\n      swap5\n      pop\n      pop\n      pop\n      pop\n      pop\n      jump\t// out\n        /* \"#utility.yul\":4160:4758   */\n    tag_718:\n        /* \"#utility.yul\":4212:4215   */\n      0x00\n        /* \"#utility.yul\":4243:4246   */\n      dup3\n        /* \"#utility.yul\":4275:4280   */\n      dup3\n        /* \"#utility.yul\":4269:4281   */\n      mload\n        /* \"#utility.yul\":4302:4308   */\n      dup1\n        /* \"#utility.yul\":4297:4300   */\n      dup6\n        /* \"#utility.yul\":4290:4309   */\n      mstore\n        /* \"#utility.yul\":4328:4332   */\n      0x20\n        /* \"#utility.yul\":4357:4361   */\n      dup1\n        /* \"#utility.yul\":4352:4355   */\n      dup7\n        /* \"#utility.yul\":4348:4362   */\n      add\n        /* \"#utility.yul\":4341:4362   */\n      swap6\n      pop\n        /* \"#utility.yul\":4415:4419   */\n      0x20\n        /* \"#utility.yul\":4405:4411   */\n      dup3\n        /* \"#utility.yul\":4402:4403   */\n      0x05\n        /* \"#utility.yul\":4398:4412   */\n      shl\n        /* \"#utility.yul\":4391:4396   */\n      dup5\n        /* \"#utility.yul\":4387:4413   */\n      add\n        /* \"#utility.yul\":4383:4420   */\n      add\n        /* \"#utility.yul\":4454:4458   */\n      0x20\n        /* \"#utility.yul\":4447:4452   */\n      dup7\n        /* \"#utility.yul\":4443:4459   */\n      add\n        /* \"#utility.yul\":4477:4478   */\n      0x00\n        /* \"#utility.yul\":4487:4732   */\n    tag_762:\n        /* \"#utility.yul\":4501:4507   */\n      dup5\n        /* \"#utility.yul\":4498:4499   */\n      dup2\n        /* \"#utility.yul\":4495:4508   */\n      lt\n        /* \"#utility.yul\":4487:4732   */\n      iszero\n      tag_764\n      jumpi\n        /* \"#utility.yul\":4588:4590   */\n      0x1f\n        /* \"#utility.yul\":4584:4591   */\n      not\n        /* \"#utility.yul\":4576:4581   */\n      dup7\n        /* \"#utility.yul\":4570:4574   */\n      dup5\n        /* \"#utility.yul\":4566:4582   */\n      sub\n        /* \"#utility.yul\":4562:4592   */\n      add\n        /* \"#utility.yul\":4557:4560   */\n      dup10\n        /* \"#utility.yul\":4550:4593   */\n      mstore\n        /* \"#utility.yul\":4614:4652   */\n      tag_765\n        /* \"#utility.yul\":4647:4651   */\n      dup4\n        /* \"#utility.yul\":4638:4644   */\n      dup4\n        /* \"#utility.yul\":4632:4645   */\n      mload\n        /* \"#utility.yul\":4614:4652   */\n      tag_715\n      jump\t// in\n    tag_765:\n        /* \"#utility.yul\":4710:4722   */\n      swap9\n      dup5\n      add\n      swap9\n        /* \"#utility.yul\":4606:4652   */\n      swap3\n      pop\n        /* \"#utility.yul\":4675:4690   */\n      swap1\n      dup4\n      add\n      swap1\n        /* \"#utility.yul\":4523:4524   */\n      0x01\n        /* \"#utility.yul\":4516:4525   */\n      add\n        /* \"#utility.yul\":4487:4732   */\n      jump(tag_762)\n    tag_764:\n      pop\n        /* \"#utility.yul\":4748:4752   */\n      swap1\n      swap8\n        /* \"#utility.yul\":4160:4758   */\n      swap7\n      pop\n      pop\n      pop\n      pop\n      pop\n      pop\n      pop\n      jump\t// out\n        /* \"#utility.yul\":4763:5202   */\n    tag_719:\n        /* \"#utility.yul\":4816:4819   */\n      0x00\n        /* \"#utility.yul\":4854:4859   */\n      dup2\n        /* \"#utility.yul\":4848:4860   */\n      mload\n        /* \"#utility.yul\":4881:4887   */\n      dup1\n        /* \"#utility.yul\":4876:4879   */\n      dup5\n        /* \"#utility.yul\":4869:4888   */\n      mstore\n        /* \"#utility.yul\":4907:4911   */\n      0x20\n        /* \"#utility.yul\":4936:4940   */\n      dup1\n        /* \"#utility.yul\":4931:4934   */\n      dup6\n        /* \"#utility.yul\":4927:4941   */\n      add\n        /* \"#utility.yul\":4920:4941   */\n      swap5\n      pop\n        /* \"#utility.yul\":4975:4979   */\n      0x20\n        /* \"#utility.yul\":4968:4973   */\n      dup5\n        /* \"#utility.yul\":4964:4980   */\n      add\n        /* \"#utility.yul\":4998:4999   */\n      0x00\n        /* \"#utility.yul\":5008:5177   */\n    tag_767:\n        /* \"#utility.yul\":5022:5028   */\n      dup4\n        /* \"#utility.yul\":5019:5020   */\n      dup2\n        /* \"#utility.yul\":5016:5029   */\n      lt\n        /* \"#utility.yul\":5008:5177   */\n      iszero\n      tag_760\n      jumpi\n        /* \"#utility.yul\":5083:5096   */\n      dup2\n      mload\n        /* \"#utility.yul\":5071:5097   */\n      dup8\n      mstore\n        /* \"#utility.yul\":5117:5129   */\n      swap6\n      dup3\n      add\n      swap6\n        /* \"#utility.yul\":5152:5167   */\n      swap1\n      dup3\n      add\n      swap1\n        /* \"#utility.yul\":5044:5045   */\n      0x01\n        /* \"#utility.yul\":5037:5046   */\n      add\n        /* \"#utility.yul\":5008:5177   */\n      jump(tag_767)\n        /* \"#utility.yul\":5207:7033   */\n    tag_720:\n        /* \"#utility.yul\":5316:5328   */\n      dup1\n      mload\n      sub(shl(0xa0, 0x01), 0x01)\n        /* \"#utility.yul\":1915:1969   */\n      and\n        /* \"#utility.yul\":1903:1970   */\n      dup3\n      mstore\n        /* \"#utility.yul\":5254:5257   */\n      0x00\n        /* \"#utility.yul\":5282:5288   */\n      0x01a0\n        /* \"#utility.yul\":5383:5387   */\n      0x20\n        /* \"#utility.yul\":5376:5381   */\n      dup4\n        /* \"#utility.yul\":5372:5388   */\n      add\n        /* \"#utility.yul\":5366:5389   */\n      mload\n        /* \"#utility.yul\":5359:5363   */\n      0x20\n        /* \"#utility.yul\":5354:5357   */\n      dup6\n        /* \"#utility.yul\":5350:5364   */\n      add\n        /* \"#utility.yul\":5343:5390   */\n      mstore\n        /* \"#utility.yul\":5436:5440   */\n      0x40\n        /* \"#utility.yul\":5429:5434   */\n      dup4\n        /* \"#utility.yul\":5425:5441   */\n      add\n        /* \"#utility.yul\":5419:5442   */\n      mload\n        /* \"#utility.yul\":5474:5476   */\n      dup2\n        /* \"#utility.yul\":5467:5471   */\n      0x40\n        /* \"#utility.yul\":5462:5465   */\n      dup7\n        /* \"#utility.yul\":5458:5472   */\n      add\n        /* \"#utility.yul\":5451:5477   */\n      mstore\n        /* \"#utility.yul\":5498:5543   */\n      tag_772\n        /* \"#utility.yul\":5539:5541   */\n      dup3\n        /* \"#utility.yul\":5534:5537   */\n      dup7\n        /* \"#utility.yul\":5530:5542   */\n      add\n        /* \"#utility.yul\":5516:5528   */\n      dup3\n        /* \"#utility.yul\":5498:5543   */\n      tag_715\n      jump\t// in\n    tag_772:\n        /* \"#utility.yul\":5486:5543   */\n      swap2\n      pop\n      pop\n        /* \"#utility.yul\":5591:5595   */\n      0x60\n        /* \"#utility.yul\":5584:5589   */\n      dup4\n        /* \"#utility.yul\":5580:5596   */\n      add\n        /* \"#utility.yul\":5574:5597   */\n      mload\n        /* \"#utility.yul\":5639:5642   */\n      dup5\n        /* \"#utility.yul\":5633:5637   */\n      dup3\n        /* \"#utility.yul\":5629:5643   */\n      sub\n        /* \"#utility.yul\":5622:5626   */\n      0x60\n        /* \"#utility.yul\":5617:5620   */\n      dup7\n        /* \"#utility.yul\":5613:5627   */\n      add\n        /* \"#utility.yul\":5606:5644   */\n      mstore\n        /* \"#utility.yul\":5667:5706   */\n      tag_773\n        /* \"#utility.yul\":5701:5705   */\n      dup3\n        /* \"#utility.yul\":5685:5699   */\n      dup3\n        /* \"#utility.yul\":5667:5706   */\n      tag_715\n      jump\t// in\n    tag_773:\n        /* \"#utility.yul\":5653:5706   */\n      swap2\n      pop\n      pop\n        /* \"#utility.yul\":5754:5758   */\n      0x80\n        /* \"#utility.yul\":5747:5752   */\n      dup4\n        /* \"#utility.yul\":5743:5759   */\n      add\n        /* \"#utility.yul\":5737:5760   */\n      mload\n        /* \"#utility.yul\":5804:5807   */\n      dup5\n        /* \"#utility.yul\":5796:5802   */\n      dup3\n        /* \"#utility.yul\":5792:5808   */\n      sub\n        /* \"#utility.yul\":5785:5789   */\n      0x80\n        /* \"#utility.yul\":5780:5783   */\n      dup7\n        /* \"#utility.yul\":5776:5790   */\n      add\n        /* \"#utility.yul\":5769:5809   */\n      mstore\n        /* \"#utility.yul\":5832:5873   */\n      tag_774\n        /* \"#utility.yul\":5866:5872   */\n      dup3\n        /* \"#utility.yul\":5850:5864   */\n      dup3\n        /* \"#utility.yul\":5832:5873   */\n      tag_715\n      jump\t// in\n    tag_774:\n        /* \"#utility.yul\":5818:5873   */\n      swap2\n      pop\n      pop\n        /* \"#utility.yul\":5922:5926   */\n      0xa0\n        /* \"#utility.yul\":5915:5920   */\n      dup4\n        /* \"#utility.yul\":5911:5927   */\n      add\n        /* \"#utility.yul\":5905:5928   */\n      mload\n        /* \"#utility.yul\":5898:5902   */\n      0xa0\n        /* \"#utility.yul\":5893:5896   */\n      dup6\n        /* \"#utility.yul\":5889:5903   */\n      add\n        /* \"#utility.yul\":5882:5929   */\n      mstore\n        /* \"#utility.yul\":5978:5982   */\n      0xc0\n        /* \"#utility.yul\":5971:5976   */\n      dup4\n        /* \"#utility.yul\":5967:5983   */\n      add\n        /* \"#utility.yul\":5961:5984   */\n      mload\n        /* \"#utility.yul\":5954:5958   */\n      0xc0\n        /* \"#utility.yul\":5949:5952   */\n      dup6\n        /* \"#utility.yul\":5945:5959   */\n      add\n        /* \"#utility.yul\":5938:5985   */\n      mstore\n        /* \"#utility.yul\":6034:6038   */\n      0xe0\n        /* \"#utility.yul\":6027:6032   */\n      dup4\n        /* \"#utility.yul\":6023:6039   */\n      add\n        /* \"#utility.yul\":6017:6040   */\n      mload\n        /* \"#utility.yul\":6010:6014   */\n      0xe0\n        /* \"#utility.yul\":6005:6008   */\n      dup6\n        /* \"#utility.yul\":6001:6015   */\n      add\n        /* \"#utility.yul\":5994:6041   */\n      mstore\n        /* \"#utility.yul\":6060:6066   */\n      0x0100\n        /* \"#utility.yul\":6114:6116   */\n      dup1\n        /* \"#utility.yul\":6107:6112   */\n      dup5\n        /* \"#utility.yul\":6103:6117   */\n      add\n        /* \"#utility.yul\":6097:6118   */\n      mload\n        /* \"#utility.yul\":6160:6163   */\n      dup6\n        /* \"#utility.yul\":6152:6158   */\n      dup4\n        /* \"#utility.yul\":6148:6164   */\n      sub\n        /* \"#utility.yul\":6143:6145   */\n      dup3\n        /* \"#utility.yul\":6138:6141   */\n      dup8\n        /* \"#utility.yul\":6134:6146   */\n      add\n        /* \"#utility.yul\":6127:6165   */\n      mstore\n        /* \"#utility.yul\":6188:6240   */\n      tag_775\n        /* \"#utility.yul\":6233:6239   */\n      dup4\n        /* \"#utility.yul\":6217:6231   */\n      dup3\n        /* \"#utility.yul\":6188:6240   */\n      tag_717\n      jump\t// in\n    tag_775:\n        /* \"#utility.yul\":6174:6240   */\n      swap3\n      pop\n      pop\n      pop\n        /* \"#utility.yul\":6259:6265   */\n      0x0120\n        /* \"#utility.yul\":6313:6315   */\n      dup1\n        /* \"#utility.yul\":6306:6311   */\n      dup5\n        /* \"#utility.yul\":6302:6316   */\n      add\n        /* \"#utility.yul\":6296:6317   */\n      mload\n        /* \"#utility.yul\":6359:6362   */\n      dup6\n        /* \"#utility.yul\":6351:6357   */\n      dup4\n        /* \"#utility.yul\":6347:6363   */\n      sub\n        /* \"#utility.yul\":6342:6344   */\n      dup3\n        /* \"#utility.yul\":6337:6340   */\n      dup8\n        /* \"#utility.yul\":6333:6345   */\n      add\n        /* \"#utility.yul\":6326:6364   */\n      mstore\n        /* \"#utility.yul\":6387:6438   */\n      tag_776\n        /* \"#utility.yul\":6431:6437   */\n      dup4\n        /* \"#utility.yul\":6415:6429   */\n      dup3\n        /* \"#utility.yul\":6387:6438   */\n      tag_718\n      jump\t// in\n    tag_776:\n        /* \"#utility.yul\":6373:6438   */\n      swap3\n      pop\n      pop\n      pop\n        /* \"#utility.yul\":6457:6463   */\n      0x0140\n        /* \"#utility.yul\":6511:6513   */\n      dup1\n        /* \"#utility.yul\":6504:6509   */\n      dup5\n        /* \"#utility.yul\":6500:6514   */\n      add\n        /* \"#utility.yul\":6494:6515   */\n      mload\n        /* \"#utility.yul\":6557:6560   */\n      dup6\n        /* \"#utility.yul\":6549:6555   */\n      dup4\n        /* \"#utility.yul\":6545:6561   */\n      sub\n        /* \"#utility.yul\":6540:6542   */\n      dup3\n        /* \"#utility.yul\":6535:6538   */\n      dup8\n        /* \"#utility.yul\":6531:6543   */\n      add\n        /* \"#utility.yul\":6524:6562   */\n      mstore\n        /* \"#utility.yul\":6585:6637   */\n      tag_777\n        /* \"#utility.yul\":6630:6636   */\n      dup4\n        /* \"#utility.yul\":6614:6628   */\n      dup3\n        /* \"#utility.yul\":6585:6637   */\n      tag_719\n      jump\t// in\n    tag_777:\n        /* \"#utility.yul\":6571:6637   */\n      swap3\n      pop\n      pop\n      pop\n        /* \"#utility.yul\":6656:6662   */\n      0x0160\n        /* \"#utility.yul\":6710:6712   */\n      dup1\n        /* \"#utility.yul\":6703:6708   */\n      dup5\n        /* \"#utility.yul\":6699:6713   */\n      add\n        /* \"#utility.yul\":6693:6714   */\n      mload\n        /* \"#utility.yul\":6756:6759   */\n      dup6\n        /* \"#utility.yul\":6748:6754   */\n      dup4\n        /* \"#utility.yul\":6744:6760   */\n      sub\n        /* \"#utility.yul\":6739:6741   */\n      dup3\n        /* \"#utility.yul\":6734:6737   */\n      dup8\n        /* \"#utility.yul\":6730:6742   */\n      add\n        /* \"#utility.yul\":6723:6761   */\n      mstore\n        /* \"#utility.yul\":6784:6835   */\n      tag_778\n        /* \"#utility.yul\":6828:6834   */\n      dup4\n        /* \"#utility.yul\":6812:6826   */\n      dup3\n        /* \"#utility.yul\":6784:6835   */\n      tag_718\n      jump\t// in\n    tag_778:\n        /* \"#utility.yul\":6770:6835   */\n      swap3\n      pop\n      pop\n      pop\n        /* \"#utility.yul\":6854:6860   */\n      0x0180\n        /* \"#utility.yul\":6908:6910   */\n      dup1\n        /* \"#utility.yul\":6901:6906   */\n      dup5\n        /* \"#utility.yul\":6897:6911   */\n      add\n        /* \"#utility.yul\":6891:6912   */\n      mload\n        /* \"#utility.yul\":6954:6957   */\n      dup6\n        /* \"#utility.yul\":6946:6952   */\n      dup4\n        /* \"#utility.yul\":6942:6958   */\n      sub\n        /* \"#utility.yul\":6937:6939   */\n      dup3\n        /* \"#utility.yul\":6932:6935   */\n      dup8\n        /* \"#utility.yul\":6928:6940   */\n      add\n        /* \"#utility.yul\":6921:6959   */\n      mstore\n        /* \"#utility.yul\":6975:7027   */\n      tag_779\n        /* \"#utility.yul\":7020:7026   */\n      dup4\n        /* \"#utility.yul\":7004:7018   */\n      dup3\n        /* \"#utility.yul\":6975:7027   */\n      tag_719\n      jump\t// in\n    tag_779:\n        /* \"#utility.yul\":6968:7027   */\n      swap7\n        /* \"#utility.yul\":5207:7033   */\n      swap6\n      pop\n      pop\n      pop\n      pop\n      pop\n      pop\n      jump\t// out\n        /* \"#utility.yul\":7038:7868   */\n    tag_57:\n        /* \"#utility.yul\":7222:7226   */\n      0x00\n        /* \"#utility.yul\":7251:7253   */\n      0x20\n        /* \"#utility.yul\":7291:7293   */\n      dup1\n        /* \"#utility.yul\":7280:7289   */\n      dup4\n        /* \"#utility.yul\":7276:7294   */\n      add\n        /* \"#utility.yul\":7321:7323   */\n      0x20\n        /* \"#utility.yul\":7310:7319   */\n      dup5\n        /* \"#utility.yul\":7303:7324   */\n      mstore\n        /* \"#utility.yul\":7344:7350   */\n      dup1\n        /* \"#utility.yul\":7379:7385   */\n      dup6\n        /* \"#utility.yul\":7373:7386   */\n      mload\n        /* \"#utility.yul\":7410:7416   */\n      dup1\n        /* \"#utility.yul\":7402:7408   */\n      dup4\n        /* \"#utility.yul\":7395:7417   */\n      mstore\n        /* \"#utility.yul\":7448:7450   */\n      0x40\n        /* \"#utility.yul\":7437:7446   */\n      dup7\n        /* \"#utility.yul\":7433:7451   */\n      add\n        /* \"#utility.yul\":7426:7451   */\n      swap2\n      pop\n        /* \"#utility.yul\":7510:7512   */\n      0x40\n        /* \"#utility.yul\":7500:7506   */\n      dup2\n        /* \"#utility.yul\":7497:7498   */\n      0x05\n        /* \"#utility.yul\":7493:7507   */\n      shl\n        /* \"#utility.yul\":7482:7491   */\n      dup8\n        /* \"#utility.yul\":7478:7508   */\n      add\n        /* \"#utility.yul\":7474:7513   */\n      add\n        /* \"#utility.yul\":7460:7513   */\n      swap3\n      pop\n        /* \"#utility.yul\":7548:7550   */\n      0x20\n        /* \"#utility.yul\":7540:7546   */\n      dup8\n        /* \"#utility.yul\":7536:7551   */\n      add\n        /* \"#utility.yul\":7569:7570   */\n      0x00\n        /* \"#utility.yul\":7579:7839   */\n    tag_781:\n        /* \"#utility.yul\":7593:7599   */\n      dup3\n        /* \"#utility.yul\":7590:7591   */\n      dup2\n        /* \"#utility.yul\":7587:7600   */\n      lt\n        /* \"#utility.yul\":7579:7839   */\n      iszero\n      tag_783\n      jumpi\n        /* \"#utility.yul\":7686:7688   */\n      0x3f\n        /* \"#utility.yul\":7682:7689   */\n      not\n        /* \"#utility.yul\":7670:7679   */\n      dup9\n        /* \"#utility.yul\":7662:7668   */\n      dup7\n        /* \"#utility.yul\":7658:7680   */\n      sub\n        /* \"#utility.yul\":7654:7690   */\n      add\n        /* \"#utility.yul\":7649:7652   */\n      dup5\n        /* \"#utility.yul\":7642:7691   */\n      mstore\n        /* \"#utility.yul\":7714:7759   */\n      tag_784\n        /* \"#utility.yul\":7752:7758   */\n      dup6\n        /* \"#utility.yul\":7743:7749   */\n      dup4\n        /* \"#utility.yul\":7737:7750   */\n      mload\n        /* \"#utility.yul\":7714:7759   */\n      tag_720\n      jump\t// in\n    tag_784:\n        /* \"#utility.yul\":7704:7759   */\n      swap5\n      pop\n        /* \"#utility.yul\":7817:7829   */\n      swap3\n      dup6\n      add\n      swap3\n        /* \"#utility.yul\":7782:7797   */\n      swap1\n      dup6\n      add\n      swap1\n        /* \"#utility.yul\":7615:7616   */\n      0x01\n        /* \"#utility.yul\":7608:7617   */\n      add\n        /* \"#utility.yul\":7579:7839   */\n      jump(tag_781)\n    tag_783:\n      pop\n        /* \"#utility.yul\":7856:7862   */\n      swap3\n      swap8\n        /* \"#utility.yul\":7038:7868   */\n      swap7\n      pop\n      pop\n      pop\n      pop\n      pop\n      pop\n      pop\n      jump\t// out\n        /* \"#utility.yul\":7873:8093   */\n    tag_63:\n        /* \"#utility.yul\":8022:8024   */\n      0x20\n        /* \"#utility.yul\":8011:8020   */\n      dup2\n        /* \"#utility.yul\":8004:8025   */\n      mstore\n        /* \"#utility.yul\":7985:7989   */\n      0x00\n        /* \"#utility.yul\":8042:8087   */\n      tag_756\n        /* \"#utility.yul\":8083:8085   */\n      0x20\n        /* \"#utility.yul\":8072:8081   */\n      dup4\n        /* \"#utility.yul\":8068:8086   */\n      add\n        /* \"#utility.yul\":8060:8066   */\n      dup5\n        /* \"#utility.yul\":8042:8087   */\n      tag_715\n      jump\t// in\n        /* \"#utility.yul\":8098:8346   */\n    tag_67:\n        /* \"#utility.yul\":8166:8172   */\n      0x00\n        /* \"#utility.yul\":8174:8180   */\n      dup1\n        /* \"#utility.yul\":8227:8229   */\n      0x40\n        /* \"#utility.yul\":8215:8224   */\n      dup4\n        /* \"#utility.yul\":8206:8213   */\n      dup6\n        /* \"#utility.yul\":8202:8225   */\n      sub\n        /* \"#utility.yul\":8198:8230   */\n      slt\n        /* \"#utility.yul\":8195:8247   */\n      iszero\n      tag_788\n      jumpi\n        /* \"#utility.yul\":8243:8244   */\n      0x00\n        /* \"#utility.yul\":8240:8241   */\n      dup1\n        /* \"#utility.yul\":8233:8245   */\n      revert\n        /* \"#utility.yul\":8195:8247   */\n    tag_788:\n      pop\n      pop\n        /* \"#utility.yul\":8266:8289   */\n      dup1\n      calldataload\n      swap3\n        /* \"#utility.yul\":8336:8338   */\n      0x20\n        /* \"#utility.yul\":8321:8339   */\n      swap1\n      swap2\n      add\n        /* \"#utility.yul\":8308:8340   */\n      calldataload\n      swap2\n      pop\n        /* \"#utility.yul\":8098:8346   */\n      jump\t// out\n        /* \"#utility.yul\":8351:9372   */\n    tag_72:\n        /* \"#utility.yul\":8435:8441   */\n      0x00\n        /* \"#utility.yul\":8466:8468   */\n      0x20\n        /* \"#utility.yul\":8509:8511   */\n      dup1\n        /* \"#utility.yul\":8497:8506   */\n      dup4\n        /* \"#utility.yul\":8488:8495   */\n      dup6\n        /* \"#utility.yul\":8484:8507   */\n      sub\n        /* \"#utility.yul\":8480:8512   */\n      slt\n        /* \"#utility.yul\":8477:8529   */\n      iszero\n      tag_790\n      jumpi\n        /* \"#utility.yul\":8525:8526   */\n      0x00\n        /* \"#utility.yul\":8522:8523   */\n      dup1\n        /* \"#utility.yul\":8515:8527   */\n      revert\n        /* \"#utility.yul\":8477:8529   */\n    tag_790:\n        /* \"#utility.yul\":8565:8574   */\n      dup3\n        /* \"#utility.yul\":8552:8575   */\n      calldataload\n        /* \"#utility.yul\":8594:8612   */\n      0xffffffffffffffff\n        /* \"#utility.yul\":8635:8637   */\n      dup1\n        /* \"#utility.yul\":8627:8633   */\n      dup3\n        /* \"#utility.yul\":8624:8638   */\n      gt\n        /* \"#utility.yul\":8621:8655   */\n      iszero\n      tag_791\n      jumpi\n        /* \"#utility.yul\":8651:8652   */\n      0x00\n        /* \"#utility.yul\":8648:8649   */\n      dup1\n        /* \"#utility.yul\":8641:8653   */\n      revert\n        /* \"#utility.yul\":8621:8655   */\n    tag_791:\n        /* \"#utility.yul\":8689:8695   */\n      dup2\n        /* \"#utility.yul\":8678:8687   */\n      dup6\n        /* \"#utility.yul\":8674:8696   */\n      add\n        /* \"#utility.yul\":8664:8696   */\n      swap2\n      pop\n        /* \"#utility.yul\":8734:8741   */\n      dup6\n        /* \"#utility.yul\":8727:8731   */\n      0x1f\n        /* \"#utility.yul\":8723:8725   */\n      dup4\n        /* \"#utility.yul\":8719:8732   */\n      add\n        /* \"#utility.yul\":8715:8742   */\n      slt\n        /* \"#utility.yul\":8705:8760   */\n      tag_792\n      jumpi\n        /* \"#utility.yul\":8756:8757   */\n      0x00\n        /* \"#utility.yul\":8753:8754   */\n      dup1\n        /* \"#utility.yul\":8746:8758   */\n      revert\n        /* \"#utility.yul\":8705:8760   */\n    tag_792:\n        /* \"#utility.yul\":8792:8794   */\n      dup2\n        /* \"#utility.yul\":8779:8795   */\n      calldataload\n        /* \"#utility.yul\":8814:8816   */\n      dup2\n        /* \"#utility.yul\":8810:8812   */\n      dup2\n        /* \"#utility.yul\":8807:8817   */\n      gt\n        /* \"#utility.yul\":8804:8840   */\n      iszero\n      tag_794\n      jumpi\n        /* \"#utility.yul\":8820:8838   */\n      tag_794\n      tag_208\n      jump\t// in\n    tag_794:\n        /* \"#utility.yul\":8866:8868   */\n      dup1\n        /* \"#utility.yul\":8863:8864   */\n      0x05\n        /* \"#utility.yul\":8859:8869   */\n      shl\n        /* \"#utility.yul\":8849:8869   */\n      swap2\n      pop\n        /* \"#utility.yul\":8889:8917   */\n      tag_795\n        /* \"#utility.yul\":8913:8915   */\n      dup5\n        /* \"#utility.yul\":8909:8911   */\n      dup4\n        /* \"#utility.yul\":8905:8916   */\n      add\n        /* \"#utility.yul\":8889:8917   */\n      tag_711\n      jump\t// in\n    tag_795:\n        /* \"#utility.yul\":8951:8966   */\n      dup2\n      dup2\n      mstore\n        /* \"#utility.yul\":9021:9032   */\n      swap2\n      dup4\n      add\n        /* \"#utility.yul\":9017:9037   */\n      dup5\n      add\n      swap2\n        /* \"#utility.yul\":8982:8994   */\n      dup5\n      dup2\n      add\n      swap1\n        /* \"#utility.yul\":9049:9068   */\n      dup9\n      dup5\n      gt\n        /* \"#utility.yul\":9046:9085   */\n      iszero\n      tag_796\n      jumpi\n        /* \"#utility.yul\":9081:9082   */\n      0x00\n        /* \"#utility.yul\":9078:9079   */\n      dup1\n        /* \"#utility.yul\":9071:9083   */\n      revert\n        /* \"#utility.yul\":9046:9085   */\n    tag_796:\n        /* \"#utility.yul\":9105:9116   */\n      swap4\n      dup6\n      add\n      swap4\n        /* \"#utility.yul\":9125:9342   */\n    tag_797:\n        /* \"#utility.yul\":9141:9147   */\n      dup4\n        /* \"#utility.yul\":9136:9139   */\n      dup6\n        /* \"#utility.yul\":9133:9148   */\n      lt\n        /* \"#utility.yul\":9125:9342   */\n      iszero\n      tag_799\n      jumpi\n        /* \"#utility.yul\":9221:9224   */\n      dup5\n        /* \"#utility.yul\":9208:9225   */\n      calldataload\n        /* \"#utility.yul\":9195:9225   */\n      swap3\n      pop\n        /* \"#utility.yul\":9238:9269   */\n      tag_800\n        /* \"#utility.yul\":9263:9268   */\n      dup4\n        /* \"#utility.yul\":9238:9269   */\n      tag_716\n      jump\t// in\n    tag_800:\n        /* \"#utility.yul\":9282:9300   */\n      dup3\n      dup3\n      mstore\n        /* \"#utility.yul\":9158:9170   */\n      swap4\n      dup6\n      add\n      swap4\n        /* \"#utility.yul\":9320:9332   */\n      swap1\n      dup6\n      add\n      swap1\n        /* \"#utility.yul\":9125:9342   */\n      jump(tag_797)\n    tag_799:\n        /* \"#utility.yul\":9361:9366   */\n      swap9\n        /* \"#utility.yul\":8351:9372   */\n      swap8\n      pop\n      pop\n      pop\n      pop\n      pop\n      pop\n      pop\n      pop\n      jump\t// out\n        /* \"#utility.yul\":9377:9997   */\n    tag_721:\n        /* \"#utility.yul\":9451:9454   */\n      0x00\n        /* \"#utility.yul\":9482:9485   */\n      dup3\n        /* \"#utility.yul\":9514:9519   */\n      dup3\n        /* \"#utility.yul\":9508:9520   */\n      mload\n        /* \"#utility.yul\":9541:9547   */\n      dup1\n        /* \"#utility.yul\":9536:9539   */\n      dup6\n        /* \"#utility.yul\":9529:9548   */\n      mstore\n        /* \"#utility.yul\":9567:9571   */\n      0x20\n        /* \"#utility.yul\":9596:9600   */\n      dup1\n        /* \"#utility.yul\":9591:9594   */\n      dup7\n        /* \"#utility.yul\":9587:9601   */\n      add\n        /* \"#utility.yul\":9580:9601   */\n      swap6\n      pop\n        /* \"#utility.yul\":9654:9658   */\n      0x20\n        /* \"#utility.yul\":9644:9650   */\n      dup3\n        /* \"#utility.yul\":9641:9642   */\n      0x05\n        /* \"#utility.yul\":9637:9651   */\n      shl\n        /* \"#utility.yul\":9630:9635   */\n      dup5\n        /* \"#utility.yul\":9626:9652   */\n      add\n        /* \"#utility.yul\":9622:9659   */\n      add\n        /* \"#utility.yul\":9693:9697   */\n      0x20\n        /* \"#utility.yul\":9686:9691   */\n      dup7\n        /* \"#utility.yul\":9682:9698   */\n      add\n        /* \"#utility.yul\":9716:9717   */\n      0x00\n        /* \"#utility.yul\":9726:9971   */\n    tag_802:\n        /* \"#utility.yul\":9740:9746   */\n      dup5\n        /* \"#utility.yul\":9737:9738   */\n      dup2\n        /* \"#utility.yul\":9734:9747   */\n      lt\n        /* \"#utility.yul\":9726:9971   */\n      iszero\n      tag_764\n      jumpi\n        /* \"#utility.yul\":9827:9829   */\n      0x1f\n        /* \"#utility.yul\":9823:9830   */\n      not\n        /* \"#utility.yul\":9815:9820   */\n      dup7\n        /* \"#utility.yul\":9809:9813   */\n      dup5\n        /* \"#utility.yul\":9805:9821   */\n      sub\n        /* \"#utility.yul\":9801:9831   */\n      add\n        /* \"#utility.yul\":9796:9799   */\n      dup10\n        /* \"#utility.yul\":9789:9832   */\n      mstore\n        /* \"#utility.yul\":9853:9891   */\n      tag_805\n        /* \"#utility.yul\":9886:9890   */\n      dup4\n        /* \"#utility.yul\":9877:9883   */\n      dup4\n        /* \"#utility.yul\":9871:9884   */\n      mload\n        /* \"#utility.yul\":9853:9891   */\n      tag_715\n      jump\t// in\n    tag_805:\n        /* \"#utility.yul\":9949:9961   */\n      swap9\n      dup5\n      add\n      swap9\n        /* \"#utility.yul\":9845:9891   */\n      swap3\n      pop\n        /* \"#utility.yul\":9914:9929   */\n      swap1\n      dup4\n      add\n      swap1\n        /* \"#utility.yul\":9762:9763   */\n      0x01\n        /* \"#utility.yul\":9755:9764   */\n      add\n        /* \"#utility.yul\":9726:9971   */\n      jump(tag_802)\n        /* \"#utility.yul\":10002:10304   */\n    tag_75:\n        /* \"#utility.yul\":10201:10203   */\n      0x20\n        /* \"#utility.yul\":10190:10199   */\n      dup2\n        /* \"#utility.yul\":10183:10204   */\n      mstore\n        /* \"#utility.yul\":10164:10168   */\n      0x00\n        /* \"#utility.yul\":10221:10298   */\n      tag_756\n        /* \"#utility.yul\":10294:10296   */\n      0x20\n        /* \"#utility.yul\":10283:10292   */\n      dup4\n        /* \"#utility.yul\":10279:10297   */\n      add\n        /* \"#utility.yul\":10271:10277   */\n      dup5\n        /* \"#utility.yul\":10221:10298   */\n      tag_721\n      jump\t// in\n        /* \"#utility.yul\":10309:10624   */\n    tag_83:\n        /* \"#utility.yul\":10377:10383   */\n      0x00\n        /* \"#utility.yul\":10385:10391   */\n      dup1\n        /* \"#utility.yul\":10438:10440   */\n      0x40\n        /* \"#utility.yul\":10426:10435   */\n      dup4\n        /* \"#utility.yul\":10417:10424   */\n      dup6\n        /* \"#utility.yul\":10413:10436   */\n      sub\n        /* \"#utility.yul\":10409:10441   */\n      slt\n        /* \"#utility.yul\":10406:10458   */\n      iszero\n      tag_809\n      jumpi\n        /* \"#utility.yul\":10454:10455   */\n      0x00\n        /* \"#utility.yul\":10451:10452   */\n      dup1\n        /* \"#utility.yul\":10444:10456   */\n      revert\n        /* \"#utility.yul\":10406:10458   */\n    tag_809:\n        /* \"#utility.yul\":10493:10502   */\n      dup3\n        /* \"#utility.yul\":10480:10503   */\n      calldataload\n        /* \"#utility.yul\":10512:10543   */\n      tag_810\n        /* \"#utility.yul\":10537:10542   */\n      dup2\n        /* \"#utility.yul\":10512:10543   */\n      tag_716\n      jump\t// in\n    tag_810:\n        /* \"#utility.yul\":10562:10567   */\n      swap5\n        /* \"#utility.yul\":10614:10616   */\n      0x20\n        /* \"#utility.yul\":10599:10617   */\n      swap4\n      swap1\n      swap4\n      add\n        /* \"#utility.yul\":10586:10618   */\n      calldataload\n      swap4\n      pop\n      pop\n      pop\n        /* \"#utility.yul\":10309:10624   */\n      jump\t// out\n        /* \"#utility.yul\":10821:11143   */\n    tag_94:\n        /* \"#utility.yul\":10890:10896   */\n      0x00\n        /* \"#utility.yul\":10943:10945   */\n      0x20\n        /* \"#utility.yul\":10931:10940   */\n      dup3\n        /* \"#utility.yul\":10922:10929   */\n      dup5\n        /* \"#utility.yul\":10918:10941   */\n      sub\n        /* \"#utility.yul\":10914:10946   */\n      slt\n        /* \"#utility.yul\":10911:10963   */\n      iszero\n      tag_813\n      jumpi\n        /* \"#utility.yul\":10959:10960   */\n      0x00\n        /* \"#utility.yul\":10956:10957   */\n      dup1\n        /* \"#utility.yul\":10949:10961   */\n      revert\n        /* \"#utility.yul\":10911:10963   */\n    tag_813:\n        /* \"#utility.yul\":10999:11008   */\n      dup2\n        /* \"#utility.yul\":10986:11009   */\n      calldataload\n        /* \"#utility.yul\":11032:11050   */\n      0xffffffffffffffff\n        /* \"#utility.yul\":11024:11030   */\n      dup2\n        /* \"#utility.yul\":11021:11051   */\n      gt\n        /* \"#utility.yul\":11018:11068   */\n      iszero\n      tag_814\n      jumpi\n        /* \"#utility.yul\":11064:11065   */\n      0x00\n        /* \"#utility.yul\":11061:11062   */\n      dup1\n        /* \"#utility.yul\":11054:11066   */\n      revert\n        /* \"#utility.yul\":11018:11068   */\n    tag_814:\n        /* \"#utility.yul\":11087:11137   */\n      tag_815\n        /* \"#utility.yul\":11129:11136   */\n      dup5\n        /* \"#utility.yul\":11120:11126   */\n      dup3\n        /* \"#utility.yul\":11109:11118   */\n      dup6\n        /* \"#utility.yul\":11105:11127   */\n      add\n        /* \"#utility.yul\":11087:11137   */\n      tag_713\n      jump\t// in\n    tag_815:\n        /* \"#utility.yul\":11077:11137   */\n      swap5\n        /* \"#utility.yul\":10821:11143   */\n      swap4\n      pop\n      pop\n      pop\n      pop\n      jump\t// out\n        /* \"#utility.yul\":11148:11395   */\n    tag_106:\n        /* \"#utility.yul\":11319:11321   */\n      0x20\n        /* \"#utility.yul\":11308:11317   */\n      dup2\n        /* \"#utility.yul\":11301:11322   */\n      mstore\n        /* \"#utility.yul\":11282:11286   */\n      0x00\n        /* \"#utility.yul\":11339:11389   */\n      tag_756\n        /* \"#utility.yul\":11385:11387   */\n      0x20\n        /* \"#utility.yul\":11374:11383   */\n      dup4\n        /* \"#utility.yul\":11370:11388   */\n      add\n        /* \"#utility.yul\":11362:11368   */\n      dup5\n        /* \"#utility.yul\":11339:11389   */\n      tag_720\n      jump\t// in\n        /* \"#utility.yul\":11631:12378   */\n    tag_124:\n        /* \"#utility.yul\":11737:11743   */\n      0x00\n        /* \"#utility.yul\":11745:11751   */\n      dup1\n        /* \"#utility.yul\":11753:11759   */\n      0x00\n        /* \"#utility.yul\":11761:11767   */\n      dup1\n        /* \"#utility.yul\":11814:11817   */\n      0x80\n        /* \"#utility.yul\":11802:11811   */\n      dup6\n        /* \"#utility.yul\":11793:11800   */\n      dup8\n        /* \"#utility.yul\":11789:11812   */\n      sub\n        /* \"#utility.yul\":11785:11818   */\n      slt\n        /* \"#utility.yul\":11782:11835   */\n      iszero\n      tag_820\n      jumpi\n        /* \"#utility.yul\":11831:11832   */\n      0x00\n        /* \"#utility.yul\":11828:11829   */\n      dup1\n        /* \"#utility.yul\":11821:11833   */\n      revert\n        /* \"#utility.yul\":11782:11835   */\n    tag_820:\n        /* \"#utility.yul\":11870:11879   */\n      dup5\n        /* \"#utility.yul\":11857:11880   */\n      calldataload\n        /* \"#utility.yul\":11889:11920   */\n      tag_821\n        /* \"#utility.yul\":11914:11919   */\n      dup2\n        /* \"#utility.yul\":11889:11920   */\n      tag_716\n      jump\t// in\n    tag_821:\n        /* \"#utility.yul\":11939:11944   */\n      swap4\n      pop\n        /* \"#utility.yul\":11995:11997   */\n      0x20\n        /* \"#utility.yul\":11980:11998   */\n      dup6\n      add\n        /* \"#utility.yul\":11967:11999   */\n      calldataload\n        /* \"#utility.yul\":12018:12036   */\n      0xffffffffffffffff\n        /* \"#utility.yul\":12048:12062   */\n      dup1\n      dup3\n      gt\n        /* \"#utility.yul\":12045:12079   */\n      iszero\n      tag_822\n      jumpi\n        /* \"#utility.yul\":12075:12076   */\n      0x00\n        /* \"#utility.yul\":12072:12073   */\n      dup1\n        /* \"#utility.yul\":12065:12077   */\n      revert\n        /* \"#utility.yul\":12045:12079   */\n    tag_822:\n        /* \"#utility.yul\":12098:12148   */\n      tag_823\n        /* \"#utility.yul\":12140:12147   */\n      dup9\n        /* \"#utility.yul\":12131:12137   */\n      dup4\n        /* \"#utility.yul\":12120:12129   */\n      dup10\n        /* \"#utility.yul\":12116:12138   */\n      add\n        /* \"#utility.yul\":12098:12148   */\n      tag_713\n      jump\t// in\n    tag_823:\n        /* \"#utility.yul\":12088:12148   */\n      swap5\n      pop\n        /* \"#utility.yul\":12201:12203   */\n      0x40\n        /* \"#utility.yul\":12190:12199   */\n      dup8\n        /* \"#utility.yul\":12186:12204   */\n      add\n        /* \"#utility.yul\":12173:12205   */\n      calldataload\n        /* \"#utility.yul\":12157:12205   */\n      swap2\n      pop\n        /* \"#utility.yul\":12230:12232   */\n      dup1\n        /* \"#utility.yul\":12220:12228   */\n      dup3\n        /* \"#utility.yul\":12217:12233   */\n      gt\n        /* \"#utility.yul\":12214:12250   */\n      iszero\n      tag_824\n      jumpi\n        /* \"#utility.yul\":12246:12247   */\n      0x00\n        /* \"#utility.yul\":12243:12244   */\n      dup1\n        /* \"#utility.yul\":12236:12248   */\n      revert\n        /* \"#utility.yul\":12214:12250   */\n    tag_824:\n      pop\n        /* \"#utility.yul\":12269:12321   */\n      tag_825\n        /* \"#utility.yul\":12313:12320   */\n      dup8\n        /* \"#utility.yul\":12302:12310   */\n      dup3\n        /* \"#utility.yul\":12291:12300   */\n      dup9\n        /* \"#utility.yul\":12287:12311   */\n      add\n        /* \"#utility.yul\":12269:12321   */\n      tag_713\n      jump\t// in\n    tag_825:\n        /* \"#utility.yul\":11631:12378   */\n      swap5\n      swap8\n      swap4\n      swap7\n      pop\n        /* \"#utility.yul\":12259:12321   */\n      swap4\n      swap5\n        /* \"#utility.yul\":12368:12370   */\n      0x60\n        /* \"#utility.yul\":12353:12371   */\n      add\n        /* \"#utility.yul\":12340:12372   */\n      calldataload\n      swap4\n      pop\n      pop\n      pop\n        /* \"#utility.yul\":11631:12378   */\n      jump\t// out\n        /* \"#utility.yul\":12383:12766   */\n    tag_144:\n        /* \"#utility.yul\":12460:12466   */\n      0x00\n        /* \"#utility.yul\":12468:12474   */\n      dup1\n        /* \"#utility.yul\":12476:12482   */\n      0x00\n        /* \"#utility.yul\":12529:12531   */\n      0x60\n        /* \"#utility.yul\":12517:12526   */\n      dup5\n        /* \"#utility.yul\":12508:12515   */\n      dup7\n        /* \"#utility.yul\":12504:12527   */\n      sub\n        /* \"#utility.yul\":12500:12532   */\n      slt\n        /* \"#utility.yul\":12497:12549   */\n      iszero\n      tag_827\n      jumpi\n        /* \"#utility.yul\":12545:12546   */\n      0x00\n        /* \"#utility.yul\":12542:12543   */\n      dup1\n        /* \"#utility.yul\":12535:12547   */\n      revert\n        /* \"#utility.yul\":12497:12549   */\n    tag_827:\n        /* \"#utility.yul\":12581:12590   */\n      dup4\n        /* \"#utility.yul\":12568:12591   */\n      calldataload\n        /* \"#utility.yul\":12558:12591   */\n      swap3\n      pop\n        /* \"#utility.yul\":12638:12640   */\n      0x20\n        /* \"#utility.yul\":12627:12636   */\n      dup5\n        /* \"#utility.yul\":12623:12641   */\n      add\n        /* \"#utility.yul\":12610:12642   */\n      calldataload\n        /* \"#utility.yul\":12600:12642   */\n      swap2\n      pop\n        /* \"#utility.yul\":12692:12694   */\n      0x40\n        /* \"#utility.yul\":12681:12690   */\n      dup5\n        /* \"#utility.yul\":12677:12695   */\n      add\n        /* \"#utility.yul\":12664:12696   */\n      calldataload\n        /* \"#utility.yul\":12705:12736   */\n      tag_828\n        /* \"#utility.yul\":12730:12735   */\n      dup2\n        /* \"#utility.yul\":12705:12736   */\n      tag_716\n      jump\t// in\n    tag_828:\n        /* \"#utility.yul\":12755:12760   */\n      dup1\n        /* \"#utility.yul\":12745:12760   */\n      swap2\n      pop\n      pop\n        /* \"#utility.yul\":12383:12766   */\n      swap3\n      pop\n      swap3\n      pop\n      swap3\n      jump\t// out\n        /* \"#utility.yul\":12771:13910   */\n    tag_152:\n        /* \"#utility.yul\":13146:13148   */\n      0x60\n        /* \"#utility.yul\":13135:13144   */\n      dup2\n        /* \"#utility.yul\":13128:13149   */\n      mstore\n        /* \"#utility.yul\":13109:13113   */\n      0x00\n        /* \"#utility.yul\":13172:13249   */\n      tag_830\n        /* \"#utility.yul\":13245:13247   */\n      0x60\n        /* \"#utility.yul\":13234:13243   */\n      dup4\n        /* \"#utility.yul\":13230:13248   */\n      add\n        /* \"#utility.yul\":13222:13228   */\n      dup7\n        /* \"#utility.yul\":13172:13249   */\n      tag_721\n      jump\t// in\n    tag_830:\n        /* \"#utility.yul\":13268:13270   */\n      0x20\n        /* \"#utility.yul\":13318:13327   */\n      dup4\n        /* \"#utility.yul\":13310:13316   */\n      dup3\n        /* \"#utility.yul\":13306:13328   */\n      sub\n        /* \"#utility.yul\":13301:13303   */\n      0x20\n        /* \"#utility.yul\":13290:13299   */\n      dup6\n        /* \"#utility.yul\":13286:13304   */\n      add\n        /* \"#utility.yul\":13279:13329   */\n      mstore\n        /* \"#utility.yul\":13352:13417   */\n      tag_831\n        /* \"#utility.yul\":13410:13416   */\n      dup3\n        /* \"#utility.yul\":13402:13408   */\n      dup8\n        /* \"#utility.yul\":13352:13417   */\n      tag_721\n      jump\t// in\n    tag_831:\n        /* \"#utility.yul\":13453:13475   */\n      dup5\n      dup2\n      sub\n        /* \"#utility.yul\":13448:13450   */\n      0x40\n        /* \"#utility.yul\":13433:13451   */\n      dup7\n      add\n        /* \"#utility.yul\":13426:13476   */\n      mstore\n        /* \"#utility.yul\":13525:13538   */\n      dup6\n      mload\n        /* \"#utility.yul\":13547:13569   */\n      dup1\n      dup3\n      mstore\n        /* \"#utility.yul\":13597:13599   */\n      0x20\n        /* \"#utility.yul\":13623:13638   */\n      dup1\n      dup9\n      add\n      swap5\n      pop\n        /* \"#utility.yul\":13585:13600   */\n      swap1\n      swap2\n      add\n      swap1\n        /* \"#utility.yul\":13656:13657   */\n      0x00\n        /* \"#utility.yul\":13666:13884   */\n    tag_832:\n        /* \"#utility.yul\":13680:13686   */\n      dup2\n        /* \"#utility.yul\":13677:13678   */\n      dup2\n        /* \"#utility.yul\":13674:13687   */\n      lt\n        /* \"#utility.yul\":13666:13884   */\n      iszero\n      tag_834\n      jumpi\n        /* \"#utility.yul\":13745:13758   */\n      dup5\n      mload\n      sub(shl(0xa0, 0x01), 0x01)\n        /* \"#utility.yul\":13741:13803   */\n      and\n        /* \"#utility.yul\":13729:13804   */\n      dup4\n      mstore\n        /* \"#utility.yul\":13859:13874   */\n      swap4\n      dup4\n      add\n      swap4\n        /* \"#utility.yul\":13824:13836   */\n      swap2\n      dup4\n      add\n      swap2\n        /* \"#utility.yul\":13702:13703   */\n      0x01\n        /* \"#utility.yul\":13695:13704   */\n      add\n        /* \"#utility.yul\":13666:13884   */\n      jump(tag_832)\n    tag_834:\n      pop\n        /* \"#utility.yul\":13901:13904   */\n      swap1\n      swap9\n        /* \"#utility.yul\":12771:13910   */\n      swap8\n      pop\n      pop\n      pop\n      pop\n      pop\n      pop\n      pop\n      pop\n      jump\t// out\n        /* \"#utility.yul\":13915:14230   */\n    tag_163:\n        /* \"#utility.yul\":13983:13989   */\n      0x00\n        /* \"#utility.yul\":13991:13997   */\n      dup1\n        /* \"#utility.yul\":14044:14046   */\n      0x40\n        /* \"#utility.yul\":14032:14041   */\n      dup4\n        /* \"#utility.yul\":14023:14030   */\n      dup6\n        /* \"#utility.yul\":14019:14042   */\n      sub\n        /* \"#utility.yul\":14015:14047   */\n      slt\n        /* \"#utility.yul\":14012:14064   */\n      iszero\n      tag_836\n      jumpi\n        /* \"#utility.yul\":14060:14061   */\n      0x00\n        /* \"#utility.yul\":14057:14058   */\n      dup1\n        /* \"#utility.yul\":14050:14062   */\n      revert\n        /* \"#utility.yul\":14012:14064   */\n    tag_836:\n        /* \"#utility.yul\":14096:14105   */\n      dup3\n        /* \"#utility.yul\":14083:14106   */\n      calldataload\n        /* \"#utility.yul\":14073:14106   */\n      swap2\n      pop\n        /* \"#utility.yul\":14156:14158   */\n      0x20\n        /* \"#utility.yul\":14145:14154   */\n      dup4\n        /* \"#utility.yul\":14141:14159   */\n      add\n        /* \"#utility.yul\":14128:14160   */\n      calldataload\n        /* \"#utility.yul\":14169:14200   */\n      tag_837\n        /* \"#utility.yul\":14194:14199   */\n      dup2\n        /* \"#utility.yul\":14169:14200   */\n      tag_716\n      jump\t// in\n    tag_837:\n        /* \"#utility.yul\":14219:14224   */\n      dup1\n        /* \"#utility.yul\":14209:14224   */\n      swap2\n      pop\n      pop\n        /* \"#utility.yul\":13915:14230   */\n      swap3\n      pop\n      swap3\n      swap1\n      pop\n      jump\t// out\n        /* \"#utility.yul\":14235:14829   */\n    tag_173:\n        /* \"#utility.yul\":14331:14337   */\n      0x00\n        /* \"#utility.yul\":14339:14345   */\n      dup1\n        /* \"#utility.yul\":14347:14353   */\n      0x00\n        /* \"#utility.yul\":14355:14361   */\n      dup1\n        /* \"#utility.yul\":14408:14411   */\n      0x80\n        /* \"#utility.yul\":14396:14405   */\n      dup6\n        /* \"#utility.yul\":14387:14394   */\n      dup8\n        /* \"#utility.yul\":14383:14406   */\n      sub\n        /* \"#utility.yul\":14379:14412   */\n      slt\n        /* \"#utility.yul\":14376:14429   */\n      iszero\n      tag_839\n      jumpi\n        /* \"#utility.yul\":14425:14426   */\n      0x00\n        /* \"#utility.yul\":14422:14423   */\n      dup1\n        /* \"#utility.yul\":14415:14427   */\n      revert\n        /* \"#utility.yul\":14376:14429   */\n    tag_839:\n        /* \"#utility.yul\":14461:14470   */\n      dup5\n        /* \"#utility.yul\":14448:14471   */\n      calldataload\n        /* \"#utility.yul\":14438:14471   */\n      swap4\n      pop\n        /* \"#utility.yul\":14521:14523   */\n      0x20\n        /* \"#utility.yul\":14510:14519   */\n      dup6\n        /* \"#utility.yul\":14506:14524   */\n      add\n        /* \"#utility.yul\":14493:14525   */\n      calldataload\n        /* \"#utility.yul\":14534:14565   */\n      tag_840\n        /* \"#utility.yul\":14559:14564   */\n      dup2\n        /* \"#utility.yul\":14534:14565   */\n      tag_716\n      jump\t// in\n    tag_840:\n        /* \"#utility.yul\":14584:14589   */\n      swap3\n      pop\n        /* \"#utility.yul\":14636:14638   */\n      0x40\n        /* \"#utility.yul\":14621:14639   */\n      dup6\n      add\n        /* \"#utility.yul\":14608:14640   */\n      calldataload\n      swap2\n      pop\n        /* \"#utility.yul\":14691:14693   */\n      0x60\n        /* \"#utility.yul\":14676:14694   */\n      dup6\n      add\n        /* \"#utility.yul\":14663:14695   */\n      calldataload\n        /* \"#utility.yul\":14718:14736   */\n      0xffffffffffffffff\n        /* \"#utility.yul\":14707:14737   */\n      dup2\n      gt\n        /* \"#utility.yul\":14704:14754   */\n      iszero\n      tag_841\n      jumpi\n        /* \"#utility.yul\":14750:14751   */\n      0x00\n        /* \"#utility.yul\":14747:14748   */\n      dup1\n        /* \"#utility.yul\":14740:14752   */\n      revert\n        /* \"#utility.yul\":14704:14754   */\n    tag_841:\n        /* \"#utility.yul\":14773:14823   */\n      tag_842\n        /* \"#utility.yul\":14815:14822   */\n      dup8\n        /* \"#utility.yul\":14806:14812   */\n      dup3\n        /* \"#utility.yul\":14795:14804   */\n      dup9\n        /* \"#utility.yul\":14791:14813   */\n      add\n        /* \"#utility.yul\":14773:14823   */\n      tag_713\n      jump\t// in\n    tag_842:\n        /* \"#utility.yul\":14763:14823   */\n      swap2\n      pop\n      pop\n        /* \"#utility.yul\":14235:14829   */\n      swap3\n      swap6\n      swap2\n      swap5\n      pop\n      swap3\n      pop\n      jump\t// out\n        /* \"#utility.yul\":14834:15359   */\n    tag_178:\n        /* \"#utility.yul\":14921:14927   */\n      0x00\n        /* \"#utility.yul\":14929:14935   */\n      dup1\n        /* \"#utility.yul\":14937:14943   */\n      0x00\n        /* \"#utility.yul\":14990:14992   */\n      0x60\n        /* \"#utility.yul\":14978:14987   */\n      dup5\n        /* \"#utility.yul\":14969:14976   */\n      dup7\n        /* \"#utility.yul\":14965:14988   */\n      sub\n        /* \"#utility.yul\":14961:14993   */\n      slt\n        /* \"#utility.yul\":14958:15010   */\n      iszero\n      tag_844\n      jumpi\n        /* \"#utility.yul\":15006:15007   */\n      0x00\n        /* \"#utility.yul\":15003:15004   */\n      dup1\n        /* \"#utility.yul\":14996:15008   */\n      revert\n        /* \"#utility.yul\":14958:15010   */\n    tag_844:\n        /* \"#utility.yul\":15046:15055   */\n      dup4\n        /* \"#utility.yul\":15033:15056   */\n      calldataload\n        /* \"#utility.yul\":15079:15097   */\n      0xffffffffffffffff\n        /* \"#utility.yul\":15071:15077   */\n      dup2\n        /* \"#utility.yul\":15068:15098   */\n      gt\n        /* \"#utility.yul\":15065:15115   */\n      iszero\n      tag_845\n      jumpi\n        /* \"#utility.yul\":15111:15112   */\n      0x00\n        /* \"#utility.yul\":15108:15109   */\n      dup1\n        /* \"#utility.yul\":15101:15113   */\n      revert\n        /* \"#utility.yul\":15065:15115   */\n    tag_845:\n        /* \"#utility.yul\":15134:15184   */\n      tag_846\n        /* \"#utility.yul\":15176:15183   */\n      dup7\n        /* \"#utility.yul\":15167:15173   */\n      dup3\n        /* \"#utility.yul\":15156:15165   */\n      dup8\n        /* \"#utility.yul\":15152:15174   */\n      add\n        /* \"#utility.yul\":15134:15184   */\n      tag_713\n      jump\t// in\n    tag_846:\n        /* \"#utility.yul\":15124:15184   */\n      swap4\n      pop\n      pop\n        /* \"#utility.yul\":15231:15233   */\n      0x20\n        /* \"#utility.yul\":15220:15229   */\n      dup5\n        /* \"#utility.yul\":15216:15234   */\n      add\n        /* \"#utility.yul\":15203:15235   */\n      calldataload\n        /* \"#utility.yul\":15193:15235   */\n      swap2\n      pop\n        /* \"#utility.yul\":15285:15287   */\n      0x40\n        /* \"#utility.yul\":15274:15283   */\n      dup5\n        /* \"#utility.yul\":15270:15288   */\n      add\n        /* \"#utility.yul\":15257:15289   */\n      calldataload\n        /* \"#utility.yul\":15298:15329   */\n      tag_828\n        /* \"#utility.yul\":15323:15328   */\n      dup2\n        /* \"#utility.yul\":15298:15329   */\n      tag_716\n      jump\t// in\n        /* \"#utility.yul\":15364:15744   */\n    tag_188:\n        /* \"#utility.yul\":15443:15444   */\n      0x01\n        /* \"#utility.yul\":15439:15451   */\n      dup2\n      dup2\n      shr\n      swap1\n        /* \"#utility.yul\":15486:15498   */\n      dup3\n      and\n      dup1\n        /* \"#utility.yul\":15507:15568   */\n      tag_849\n      jumpi\n        /* \"#utility.yul\":15561:15565   */\n      0x7f\n        /* \"#utility.yul\":15553:15559   */\n      dup3\n        /* \"#utility.yul\":15549:15566   */\n      and\n        /* \"#utility.yul\":15539:15566   */\n      swap2\n      pop\n        /* \"#utility.yul\":15507:15568   */\n    tag_849:\n        /* \"#utility.yul\":15614:15616   */\n      0x20\n        /* \"#utility.yul\":15606:15612   */\n      dup3\n        /* \"#utility.yul\":15603:15617   */\n      lt\n        /* \"#utility.yul\":15583:15601   */\n      dup2\n        /* \"#utility.yul\":15580:15618   */\n      sub\n        /* \"#utility.yul\":15577:15738   */\n      tag_367\n      jumpi\n        /* \"#utility.yul\":15660:15670   */\n      0x4e487b71\n        /* \"#utility.yul\":15655:15658   */\n      0xe0\n        /* \"#utility.yul\":15651:15671   */\n      shl\n        /* \"#utility.yul\":15648:15649   */\n      0x00\n        /* \"#utility.yul\":15641:15672   */\n      mstore\n        /* \"#utility.yul\":15695:15699   */\n      0x22\n        /* \"#utility.yul\":15692:15693   */\n      0x04\n        /* \"#utility.yul\":15685:15700   */\n      mstore\n        /* \"#utility.yul\":15723:15727   */\n      0x24\n        /* \"#utility.yul\":15720:15721   */\n      0x00\n        /* \"#utility.yul\":15713:15728   */\n      revert\n        /* \"#utility.yul\":15749:15876   */\n    tag_218:\n        /* \"#utility.yul\":15810:15820   */\n      0x4e487b71\n        /* \"#utility.yul\":15805:15808   */\n      0xe0\n        /* \"#utility.yul\":15801:15821   */\n      shl\n        /* \"#utility.yul\":15798:15799   */\n      0x00\n        /* \"#utility.yul\":15791:15822   */\n      mstore\n        /* \"#utility.yul\":15841:15845   */\n      0x32\n        /* \"#utility.yul\":15838:15839   */\n      0x04\n        /* \"#utility.yul\":15831:15846   */\n      mstore\n        /* \"#utility.yul\":15865:15869   */\n      0x24\n        /* \"#utility.yul\":15862:15863   */\n      0x00\n        /* \"#utility.yul\":15855:15870   */\n      revert\n        /* \"#utility.yul\":16984:17111   */\n    tag_722:\n        /* \"#utility.yul\":17045:17055   */\n      0x4e487b71\n        /* \"#utility.yul\":17040:17043   */\n      0xe0\n        /* \"#utility.yul\":17036:17056   */\n      shl\n        /* \"#utility.yul\":17033:17034   */\n      0x00\n        /* \"#utility.yul\":17026:17057   */\n      mstore\n        /* \"#utility.yul\":17076:17080   */\n      0x11\n        /* \"#utility.yul\":17073:17074   */\n      0x04\n        /* \"#utility.yul\":17066:17081   */\n      mstore\n        /* \"#utility.yul\":17100:17104   */\n      0x24\n        /* \"#utility.yul\":17097:17098   */\n      0x00\n        /* \"#utility.yul\":17090:17105   */\n      revert\n        /* \"#utility.yul\":17116:17251   */\n    tag_279:\n        /* \"#utility.yul\":17155:17158   */\n      0x00\n        /* \"#utility.yul\":17176:17193   */\n      0x01\n      dup3\n      add\n        /* \"#utility.yul\":17173:17216   */\n      tag_858\n      jumpi\n        /* \"#utility.yul\":17196:17214   */\n      tag_858\n      tag_722\n      jump\t// in\n    tag_858:\n      pop\n        /* \"#utility.yul\":17243:17244   */\n      0x01\n        /* \"#utility.yul\":17232:17245   */\n      add\n      swap1\n        /* \"#utility.yul\":17116:17251   */\n      jump\t// out\n        /* \"#utility.yul\":17256:17919   */\n    tag_294:\n        /* \"#utility.yul\":17336:17342   */\n      0x00\n        /* \"#utility.yul\":17389:17391   */\n      0x20\n        /* \"#utility.yul\":17377:17386   */\n      dup3\n        /* \"#utility.yul\":17368:17375   */\n      dup5\n        /* \"#utility.yul\":17364:17387   */\n      sub\n        /* \"#utility.yul\":17360:17392   */\n      slt\n        /* \"#utility.yul\":17357:17409   */\n      iszero\n      tag_860\n      jumpi\n        /* \"#utility.yul\":17405:17406   */\n      0x00\n        /* \"#utility.yul\":17402:17403   */\n      dup1\n        /* \"#utility.yul\":17395:17407   */\n      revert\n        /* \"#utility.yul\":17357:17409   */\n    tag_860:\n        /* \"#utility.yul\":17438:17447   */\n      dup2\n        /* \"#utility.yul\":17432:17448   */\n      mload\n        /* \"#utility.yul\":17471:17489   */\n      0xffffffffffffffff\n        /* \"#utility.yul\":17463:17469   */\n      dup2\n        /* \"#utility.yul\":17460:17490   */\n      gt\n        /* \"#utility.yul\":17457:17507   */\n      iszero\n      tag_861\n      jumpi\n        /* \"#utility.yul\":17503:17504   */\n      0x00\n        /* \"#utility.yul\":17500:17501   */\n      dup1\n        /* \"#utility.yul\":17493:17505   */\n      revert\n        /* \"#utility.yul\":17457:17507   */\n    tag_861:\n        /* \"#utility.yul\":17526:17548   */\n      dup3\n      add\n        /* \"#utility.yul\":17579:17583   */\n      0x1f\n        /* \"#utility.yul\":17571:17584   */\n      dup2\n      add\n        /* \"#utility.yul\":17567:17594   */\n      dup5\n      sgt\n        /* \"#utility.yul\":17557:17612   */\n      tag_862\n      jumpi\n        /* \"#utility.yul\":17608:17609   */\n      0x00\n        /* \"#utility.yul\":17605:17606   */\n      dup1\n        /* \"#utility.yul\":17598:17610   */\n      revert\n        /* \"#utility.yul\":17557:17612   */\n    tag_862:\n        /* \"#utility.yul\":17637:17639   */\n      dup1\n        /* \"#utility.yul\":17631:17640   */\n      mload\n        /* \"#utility.yul\":17662:17711   */\n      tag_863\n        /* \"#utility.yul\":17678:17710   */\n      tag_737\n        /* \"#utility.yul\":17707:17709   */\n      dup3\n        /* \"#utility.yul\":17678:17710   */\n      tag_712\n      jump\t// in\n        /* \"#utility.yul\":17662:17711   */\n    tag_863:\n        /* \"#utility.yul\":17734:17736   */\n      dup2\n        /* \"#utility.yul\":17727:17732   */\n      dup2\n        /* \"#utility.yul\":17720:17737   */\n      mstore\n        /* \"#utility.yul\":17774:17781   */\n      dup6\n        /* \"#utility.yul\":17769:17771   */\n      0x20\n        /* \"#utility.yul\":17764:17766   */\n      dup4\n        /* \"#utility.yul\":17760:17762   */\n      dup6\n        /* \"#utility.yul\":17756:17767   */\n      add\n        /* \"#utility.yul\":17752:17772   */\n      add\n        /* \"#utility.yul\":17749:17782   */\n      gt\n        /* \"#utility.yul\":17746:17799   */\n      iszero\n      tag_865\n      jumpi\n        /* \"#utility.yul\":17795:17796   */\n      0x00\n        /* \"#utility.yul\":17792:17793   */\n      dup1\n        /* \"#utility.yul\":17785:17797   */\n      revert\n        /* \"#utility.yul\":17746:17799   */\n    tag_865:\n        /* \"#utility.yul\":17843:17845   */\n      dup2\n        /* \"#utility.yul\":17838:17840   */\n      0x20\n        /* \"#utility.yul\":17834:17836   */\n      dup5\n        /* \"#utility.yul\":17830:17841   */\n      add\n        /* \"#utility.yul\":17825:17827   */\n      0x20\n        /* \"#utility.yul\":17818:17823   */\n      dup4\n        /* \"#utility.yul\":17814:17828   */\n      add\n        /* \"#utility.yul\":17808:17846   */\n      mcopy\n        /* \"#utility.yul\":17887:17888   */\n      0x00\n        /* \"#utility.yul\":17866:17880   */\n      swap2\n      dup2\n      add\n        /* \"#utility.yul\":17882:17884   */\n      0x20\n        /* \"#utility.yul\":17862:17885   */\n      add\n        /* \"#utility.yul\":17855:17889   */\n      swap2\n      swap1\n      swap2\n      mstore\n        /* \"#utility.yul\":17870:17875   */\n      swap5\n        /* \"#utility.yul\":17256:17919   */\n      swap4\n      pop\n      pop\n      pop\n      pop\n      jump\t// out\n        /* \"#utility.yul\":18285:18588   */\n    tag_308:\n        /* \"#utility.yul\":18416:18419   */\n      0x00\n        /* \"#utility.yul\":18454:18460   */\n      dup3\n        /* \"#utility.yul\":18448:18461   */\n      mload\n        /* \"#utility.yul\":18500:18506   */\n      dup1\n        /* \"#utility.yul\":18493:18497   */\n      0x20\n        /* \"#utility.yul\":18485:18491   */\n      dup6\n        /* \"#utility.yul\":18481:18498   */\n      add\n        /* \"#utility.yul\":18476:18479   */\n      dup5\n        /* \"#utility.yul\":18470:18507   */\n      mcopy\n        /* \"#utility.yul\":18562:18563   */\n      0x00\n        /* \"#utility.yul\":18526:18542   */\n      swap3\n      add\n        /* \"#utility.yul\":18551:18564   */\n      swap2\n      dup3\n      mstore\n      pop\n        /* \"#utility.yul\":18526:18542   */\n      swap2\n        /* \"#utility.yul\":18285:18588   */\n      swap1\n      pop\n      jump\t// out\n        /* \"#utility.yul\":18925:19202   */\n    tag_472:\n        /* \"#utility.yul\":18992:18998   */\n      0x00\n        /* \"#utility.yul\":19045:19047   */\n      0x20\n        /* \"#utility.yul\":19033:19042   */\n      dup3\n        /* \"#utility.yul\":19024:19031   */\n      dup5\n        /* \"#utility.yul\":19020:19043   */\n      sub\n        /* \"#utility.yul\":19016:19048   */\n      slt\n        /* \"#utility.yul\":19013:19065   */\n      iszero\n      tag_870\n      jumpi\n        /* \"#utility.yul\":19061:19062   */\n      0x00\n        /* \"#utility.yul\":19058:19059   */\n      dup1\n        /* \"#utility.yul\":19051:19063   */\n      revert\n        /* \"#utility.yul\":19013:19065   */\n    tag_870:\n        /* \"#utility.yul\":19093:19102   */\n      dup2\n        /* \"#utility.yul\":19087:19103   */\n      mload\n        /* \"#utility.yul\":19146:19151   */\n      dup1\n        /* \"#utility.yul\":19139:19152   */\n      iszero\n        /* \"#utility.yul\":19132:19153   */\n      iszero\n        /* \"#utility.yul\":19125:19130   */\n      dup2\n        /* \"#utility.yul\":19122:19154   */\n      eq\n        /* \"#utility.yul\":19112:19172   */\n      tag_756\n      jumpi\n        /* \"#utility.yul\":19168:19169   */\n      0x00\n        /* \"#utility.yul\":19165:19166   */\n      dup1\n        /* \"#utility.yul\":19158:19170   */\n      revert\n        /* \"#utility.yul\":19333:19851   */\n    tag_724:\n        /* \"#utility.yul\":19435:19437   */\n      0x1f\n        /* \"#utility.yul\":19430:19433   */\n      dup3\n        /* \"#utility.yul\":19427:19438   */\n      gt\n        /* \"#utility.yul\":19424:19845   */\n      iszero\n      tag_874\n      jumpi\n        /* \"#utility.yul\":19471:19476   */\n      dup1\n        /* \"#utility.yul\":19468:19469   */\n      0x00\n        /* \"#utility.yul\":19461:19477   */\n      mstore\n        /* \"#utility.yul\":19515:19519   */\n      0x20\n        /* \"#utility.yul\":19512:19513   */\n      0x00\n        /* \"#utility.yul\":19502:19520   */\n      keccak256\n        /* \"#utility.yul\":19585:19587   */\n      0x1f\n        /* \"#utility.yul\":19573:19583   */\n      dup5\n        /* \"#utility.yul\":19569:19588   */\n      add\n        /* \"#utility.yul\":19566:19567   */\n      0x05\n        /* \"#utility.yul\":19562:19589   */\n      shr\n        /* \"#utility.yul\":19556:19560   */\n      dup2\n        /* \"#utility.yul\":19552:19590   */\n      add\n        /* \"#utility.yul\":19621:19625   */\n      0x20\n        /* \"#utility.yul\":19609:19619   */\n      dup6\n        /* \"#utility.yul\":19606:19626   */\n      lt\n        /* \"#utility.yul\":19603:19650   */\n      iszero\n      tag_875\n      jumpi\n      pop\n        /* \"#utility.yul\":19644:19648   */\n      dup1\n        /* \"#utility.yul\":19603:19650   */\n    tag_875:\n        /* \"#utility.yul\":19699:19701   */\n      0x1f\n        /* \"#utility.yul\":19694:19697   */\n      dup5\n        /* \"#utility.yul\":19690:19702   */\n      add\n        /* \"#utility.yul\":19687:19688   */\n      0x05\n        /* \"#utility.yul\":19683:19703   */\n      shr\n        /* \"#utility.yul\":19677:19681   */\n      dup3\n        /* \"#utility.yul\":19673:19704   */\n      add\n        /* \"#utility.yul\":19663:19704   */\n      swap2\n      pop\n        /* \"#utility.yul\":19754:19835   */\n    tag_876:\n        /* \"#utility.yul\":19772:19774   */\n      dup2\n        /* \"#utility.yul\":19765:19770   */\n      dup2\n        /* \"#utility.yul\":19762:19775   */\n      lt\n        /* \"#utility.yul\":19754:19835   */\n      iszero\n      tag_878\n      jumpi\n        /* \"#utility.yul\":19831:19832   */\n      0x00\n        /* \"#utility.yul\":19817:19833   */\n      dup2\n      sstore\n        /* \"#utility.yul\":19798:19799   */\n      0x01\n        /* \"#utility.yul\":19787:19800   */\n      add\n        /* \"#utility.yul\":19754:19835   */\n      jump(tag_876)\n    tag_878:\n        /* \"#utility.yul\":19758:19761   */\n      pop\n      pop\n        /* \"#utility.yul\":19424:19845   */\n    tag_874:\n        /* \"#utility.yul\":19333:19851   */\n      pop\n      pop\n      pop\n      jump\t// out\n        /* \"#utility.yul\":20027:21372   */\n    tag_533:\n        /* \"#utility.yul\":20153:20156   */\n      dup2\n        /* \"#utility.yul\":20147:20157   */\n      mload\n        /* \"#utility.yul\":20180:20198   */\n      0xffffffffffffffff\n        /* \"#utility.yul\":20172:20178   */\n      dup2\n        /* \"#utility.yul\":20169:20199   */\n      gt\n        /* \"#utility.yul\":20166:20222   */\n      iszero\n      tag_882\n      jumpi\n        /* \"#utility.yul\":20202:20220   */\n      tag_882\n      tag_208\n      jump\t// in\n    tag_882:\n        /* \"#utility.yul\":20231:20328   */\n      tag_883\n        /* \"#utility.yul\":20321:20327   */\n      dup2\n        /* \"#utility.yul\":20281:20319   */\n      tag_884\n        /* \"#utility.yul\":20313:20317   */\n      dup5\n        /* \"#utility.yul\":20307:20318   */\n      sload\n        /* \"#utility.yul\":20281:20319   */\n      tag_188\n      jump\t// in\n    tag_884:\n        /* \"#utility.yul\":20275:20279   */\n      dup5\n        /* \"#utility.yul\":20231:20328   */\n      tag_724\n      jump\t// in\n    tag_883:\n        /* \"#utility.yul\":20383:20387   */\n      0x20\n      dup1\n        /* \"#utility.yul\":20440:20442   */\n      0x1f\n        /* \"#utility.yul\":20429:20443   */\n      dup4\n      gt\n        /* \"#utility.yul\":20457:20458   */\n      0x01\n        /* \"#utility.yul\":20452:21115   */\n      dup2\n      eq\n      tag_886\n      jumpi\n        /* \"#utility.yul\":21159:21160   */\n      0x00\n        /* \"#utility.yul\":21176:21182   */\n      dup5\n        /* \"#utility.yul\":21173:21262   */\n      iszero\n      tag_887\n      jumpi\n      pop\n        /* \"#utility.yul\":21228:21247   */\n      dup6\n      dup4\n      add\n        /* \"#utility.yul\":21222:21248   */\n      mload\n        /* \"#utility.yul\":21173:21262   */\n    tag_887:\n      not(0x00)\n        /* \"#utility.yul\":19984:19985   */\n      0x03\n        /* \"#utility.yul\":19980:19991   */\n      dup7\n      swap1\n      shl\n        /* \"#utility.yul\":19976:20000   */\n      shr\n        /* \"#utility.yul\":19972:20001   */\n      not\n        /* \"#utility.yul\":19962:20002   */\n      and\n        /* \"#utility.yul\":20008:20009   */\n      0x01\n        /* \"#utility.yul\":20004:20015   */\n      dup6\n      swap1\n      shl\n        /* \"#utility.yul\":19959:20016   */\n      or\n        /* \"#utility.yul\":21275:21356   */\n      dup6\n      sstore\n        /* \"#utility.yul\":20422:21366   */\n      jump(tag_885)\n        /* \"#utility.yul\":20452:21115   */\n    tag_886:\n        /* \"#utility.yul\":19280:19281   */\n      0x00\n        /* \"#utility.yul\":19273:19287   */\n      dup6\n      dup2\n      mstore\n        /* \"#utility.yul\":19317:19321   */\n      0x20\n        /* \"#utility.yul\":19304:19322   */\n      dup2\n      keccak256\n      not(0x1f)\n        /* \"#utility.yul\":20488:20508   */\n      dup7\n      and\n      swap2\n        /* \"#utility.yul\":20606:20842   */\n    tag_890:\n        /* \"#utility.yul\":20620:20627   */\n      dup3\n        /* \"#utility.yul\":20617:20618   */\n      dup2\n        /* \"#utility.yul\":20614:20628   */\n      lt\n        /* \"#utility.yul\":20606:20842   */\n      iszero\n      tag_892\n      jumpi\n        /* \"#utility.yul\":20709:20728   */\n      dup9\n      dup7\n      add\n        /* \"#utility.yul\":20703:20729   */\n      mload\n        /* \"#utility.yul\":20688:20730   */\n      dup3\n      sstore\n        /* \"#utility.yul\":20801:20828   */\n      swap5\n      dup5\n      add\n      swap5\n        /* \"#utility.yul\":20769:20770   */\n      0x01\n        /* \"#utility.yul\":20757:20771   */\n      swap1\n      swap2\n      add\n      swap1\n        /* \"#utility.yul\":20636:20655   */\n      dup5\n      add\n        /* \"#utility.yul\":20606:20842   */\n      jump(tag_890)\n    tag_892:\n        /* \"#utility.yul\":20610:20613   */\n      pop\n        /* \"#utility.yul\":20870:20876   */\n      dup6\n        /* \"#utility.yul\":20861:20868   */\n      dup3\n        /* \"#utility.yul\":20858:20877   */\n      lt\n        /* \"#utility.yul\":20855:21056   */\n      iszero\n      tag_893\n      jumpi\n        /* \"#utility.yul\":20931:20950   */\n      dup8\n      dup6\n      add\n        /* \"#utility.yul\":20925:20951   */\n      mload\n      not(0x00)\n        /* \"#utility.yul\":21014:21015   */\n      0x03\n        /* \"#utility.yul\":21010:21024   */\n      dup9\n      swap1\n      shl\n        /* \"#utility.yul\":21026:21029   */\n      0xf8\n        /* \"#utility.yul\":21006:21030   */\n      and\n        /* \"#utility.yul\":21002:21039   */\n      shr\n        /* \"#utility.yul\":20998:21040   */\n      not\n        /* \"#utility.yul\":20983:21041   */\n      and\n        /* \"#utility.yul\":20968:21042   */\n      dup2\n      sstore\n        /* \"#utility.yul\":20855:21056   */\n    tag_893:\n      pop\n      pop\n        /* \"#utility.yul\":21102:21103   */\n      0x01\n        /* \"#utility.yul\":21093:21099   */\n      dup5\n        /* \"#utility.yul\":21090:21091   */\n      0x01\n        /* \"#utility.yul\":21086:21100   */\n      shl\n        /* \"#utility.yul\":21082:21104   */\n      add\n        /* \"#utility.yul\":21076:21080   */\n      dup6\n        /* \"#utility.yul\":21069:21105   */\n      sstore\n        /* \"#utility.yul\":20422:21366   */\n    tag_885:\n      pop\n      pop\n      pop\n      pop\n        /* \"#utility.yul\":20027:21372   */\n      pop\n      pop\n      jump\t// out\n        /* \"#utility.yul\":21377:22222   */\n    tag_552:\n        /* \"#utility.yul\":21507:21510   */\n      0x00\n        /* \"#utility.yul\":21536:21537   */\n      dup1\n        /* \"#utility.yul\":21569:21575   */\n      dup4\n        /* \"#utility.yul\":21563:21576   */\n      sload\n        /* \"#utility.yul\":21599:21635   */\n      tag_895\n        /* \"#utility.yul\":21625:21634   */\n      dup2\n        /* \"#utility.yul\":21599:21635   */\n      tag_188\n      jump\t// in\n    tag_895:\n        /* \"#utility.yul\":21654:21655   */\n      0x01\n        /* \"#utility.yul\":21671:21688   */\n      dup3\n      dup2\n      and\n        /* \"#utility.yul\":21697:21830   */\n      dup1\n      iszero\n      tag_897\n      jumpi\n        /* \"#utility.yul\":21844:21845   */\n      0x01\n        /* \"#utility.yul\":21839:22197   */\n      dup2\n      eq\n      tag_898\n      jumpi\n        /* \"#utility.yul\":21664:22197   */\n      jump(tag_896)\n        /* \"#utility.yul\":21697:21830   */\n    tag_897:\n      not(0xff)\n        /* \"#utility.yul\":21730:21754   */\n      dup5\n      and\n        /* \"#utility.yul\":21718:21755   */\n      dup8\n      mstore\n        /* \"#utility.yul\":21803:21817   */\n      dup3\n      iszero\n        /* \"#utility.yul\":21796:21818   */\n      iszero\n        /* \"#utility.yul\":21784:21819   */\n      dup4\n      mul\n        /* \"#utility.yul\":21775:21820   */\n      dup8\n      add\n      swap5\n      pop\n        /* \"#utility.yul\":21697:21830   */\n      jump(tag_896)\n        /* \"#utility.yul\":21839:22197   */\n    tag_898:\n        /* \"#utility.yul\":21870:21876   */\n      dup8\n        /* \"#utility.yul\":21867:21868   */\n      0x00\n        /* \"#utility.yul\":21860:21877   */\n      mstore\n        /* \"#utility.yul\":21900:21904   */\n      0x20\n        /* \"#utility.yul\":21945:21949   */\n      dup1\n        /* \"#utility.yul\":21942:21943   */\n      0x00\n        /* \"#utility.yul\":21932:21950   */\n      keccak256\n        /* \"#utility.yul\":21972:21973   */\n      0x00\n        /* \"#utility.yul\":21986:22151   */\n    tag_899:\n        /* \"#utility.yul\":22000:22006   */\n      dup6\n        /* \"#utility.yul\":21997:21998   */\n      dup2\n        /* \"#utility.yul\":21994:22007   */\n      lt\n        /* \"#utility.yul\":21986:22151   */\n      iszero\n      tag_901\n      jumpi\n        /* \"#utility.yul\":22078:22092   */\n      dup2\n      sload\n        /* \"#utility.yul\":22065:22076   */\n      dup11\n      dup3\n      add\n        /* \"#utility.yul\":22058:22093   */\n      mstore\n        /* \"#utility.yul\":22121:22137   */\n      swap1\n      dup5\n      add\n      swap1\n        /* \"#utility.yul\":22015:22025   */\n      dup3\n      add\n        /* \"#utility.yul\":21986:22151   */\n      jump(tag_899)\n    tag_901:\n        /* \"#utility.yul\":21990:21993   */\n      pop\n      pop\n      pop\n        /* \"#utility.yul\":22180:22186   */\n      dup3\n        /* \"#utility.yul\":22175:22178   */\n      dup8\n        /* \"#utility.yul\":22171:22187   */\n      add\n        /* \"#utility.yul\":22164:22187   */\n      swap5\n      pop\n        /* \"#utility.yul\":21664:22197   */\n    tag_896:\n      pop\n        /* \"#utility.yul\":22213:22216   */\n      swap3\n      swap7\n        /* \"#utility.yul\":21377:22222   */\n      swap6\n      pop\n      pop\n      pop\n      pop\n      pop\n      pop\n      jump\t// out\n        /* \"#utility.yul\":22227:22411   */\n    tag_590:\n        /* \"#utility.yul\":22297:22303   */\n      0x00\n        /* \"#utility.yul\":22350:22352   */\n      0x20\n        /* \"#utility.yul\":22338:22347   */\n      dup3\n        /* \"#utility.yul\":22329:22336   */\n      dup5\n        /* \"#utility.yul\":22325:22348   */\n      sub\n        /* \"#utility.yul\":22321:22353   */\n      slt\n        /* \"#utility.yul\":22318:22370   */\n      iszero\n      tag_903\n      jumpi\n        /* \"#utility.yul\":22366:22367   */\n      0x00\n        /* \"#utility.yul\":22363:22364   */\n      dup1\n        /* \"#utility.yul\":22356:22368   */\n      revert\n        /* \"#utility.yul\":22318:22370   */\n    tag_903:\n      pop\n        /* \"#utility.yul\":22389:22405   */\n      mload\n      swap2\n        /* \"#utility.yul\":22227:22411   */\n      swap1\n      pop\n      jump\t// out\n        /* \"#utility.yul\":22416:22667   */\n    tag_598:\n        /* \"#utility.yul\":22486:22492   */\n      0x00\n        /* \"#utility.yul\":22539:22541   */\n      0x20\n        /* \"#utility.yul\":22527:22536   */\n      dup3\n        /* \"#utility.yul\":22518:22525   */\n      dup5\n        /* \"#utility.yul\":22514:22537   */\n      sub\n        /* \"#utility.yul\":22510:22542   */\n      slt\n        /* \"#utility.yul\":22507:22559   */\n      iszero\n      tag_905\n      jumpi\n        /* \"#utility.yul\":22555:22556   */\n      0x00\n        /* \"#utility.yul\":22552:22553   */\n      dup1\n        /* \"#utility.yul\":22545:22557   */\n      revert\n        /* \"#utility.yul\":22507:22559   */\n    tag_905:\n        /* \"#utility.yul\":22587:22596   */\n      dup2\n        /* \"#utility.yul\":22581:22597   */\n      mload\n        /* \"#utility.yul\":22606:22637   */\n      tag_756\n        /* \"#utility.yul\":22631:22636   */\n      dup2\n        /* \"#utility.yul\":22606:22637   */\n      tag_716\n      jump\t// in\n        /* \"#utility.yul\":23634:23759   */\n    tag_630:\n        /* \"#utility.yul\":23699:23708   */\n      dup1\n      dup3\n      add\n        /* \"#utility.yul\":23720:23730   */\n      dup1\n      dup3\n      gt\n        /* \"#utility.yul\":23717:23753   */\n      iszero\n      tag_912\n      jumpi\n        /* \"#utility.yul\":23733:23751   */\n      tag_912\n      tag_722\n      jump\t// in\n    tag_912:\n        /* \"#utility.yul\":23634:23759   */\n      swap3\n      swap2\n      pop\n      pop\n      jump\t// out\n\n    auxdata: 0xa264697066735822122030f03697a995804224f2bc0f15f903b8eacf2448284d90ca79cabe03c77d342264736f6c63430008190033\n}\n",
    "bytecode": {
      "linkReferences": {},
      "object": "60806040525f6007553480156012575f80fd5b50604051614810380380614810833981016040819052602f916053565b600880546001600160a01b0319166001600160a01b0392909216919091179055607e565b5f602082840312156062575f80fd5b81516001600160a01b03811681146077575f80fd5b9392505050565b6147858061008b5f395ff3fe6080604052600436106101af575f3560e01c80637a9a33f3116100e7578063b68603b611610087578063d9524ee411610062578063d9524ee414610556578063db700dee1461056b578063e3a294281461058a578063eceeca66146105a9575f80fd5b8063b68603b6146104eb578063c992c114146104fe578063ca1f0cad1461051d575f80fd5b806386b605cb116100c257806386b605cb14610440578063901c9a5d1461045f578063a008e7151461047e578063b0b2671d146104bd575f80fd5b80637a9a33f3146103e35780637c64cff1146104025780638064d14914610421575f80fd5b806357ce06751161015257806364b09ec31161012d57806364b09ec31461035857806364e958951461036c578063702d3ebb146103985780637a8f102f146103cf575f80fd5b806357ce0675146102dc5780635950eb5b146103255780635d29a74214610339575f80fd5b80633251e5631161018d5780633251e5631461024457806336e23f4c14610270578063485cef061461029157806351be0fca146102bd575f80fd5b80630931ef4c146101b35780630b1e7f83146101e55780632853894914610218575b5f80fd5b3480156101be575f80fd5b506101d26101cd366004613d47565b6105c8565b6040519081526020015b60405180910390f35b3480156101f0575f80fd5b506102046101ff366004613d89565b610604565b6040516101dc989796959493929190613dce565b348015610223575f80fd5b50610237610232366004613e56565b6107e0565b6040516101dc919061405b565b34801561024f575f80fd5b5061026361025e366004613d89565b610e20565b6040516101dc91906140bd565b34801561027b575f80fd5b5061028f61028a3660046140cf565b610ec6565b005b34801561029c575f80fd5b506102b06102ab3660046140ef565b611059565b6040516101dc91906141e7565b3480156102c8575f80fd5b5061028f6102d7366004613d89565b611180565b3480156102e7575f80fd5b506103156102f63660046141f9565b600460209081525f928352604080842090915290825290205460ff1681565b60405190151581526020016101dc565b348015610330575f80fd5b5061023761127a565b348015610344575f80fd5b50610237610353366004614223565b61128a565b348015610363575f80fd5b506102376118c9565b348015610377575f80fd5b5061038b610386366004613d89565b611e78565b6040516101dc919061425d565b3480156103a3575f80fd5b506008546103b7906001600160a01b031681565b6040516001600160a01b0390911681526020016101dc565b3480156103da575f80fd5b506102b06123ef565b3480156103ee575f80fd5b506102376103fd366004613e56565b6124c3565b34801561040d575f80fd5b5061028f61041c36600461426f565b612c13565b34801561042c575f80fd5b506101d261043b3660046141f9565b612dab565b34801561044b575f80fd5b5061031561045a366004614223565b612dc4565b34801561046a575f80fd5b506102b0610479366004613d89565b612e27565b348015610489575f80fd5b506103156104983660046142e8565b600260209081525f938452604080852082529284528284209052825290205460ff1681565b3480156104c8575f80fd5b506104dc6104d7366004613d89565b612fd7565b6040516101dc9392919061431e565b61028f6104f9366004613d89565b613399565b348015610509575f80fd5b5061028f610518366004614223565b613506565b348015610528575f80fd5b50610315610537366004614391565b600160209081525f928352604080842090915290825290205460ff1681565b348015610561575f80fd5b506101d260075481565b348015610576575f80fd5b5061028f6105853660046143bf565b61359b565b348015610595575f80fd5b5061028f6105a436600461441e565b6136d9565b3480156105b4575f80fd5b506104dc6105c33660046140cf565b613823565b815160208184018101805160038252928201918501919091209190528054829081106105f2575f80fd5b905f5260205f20015f91509150505481565b5f602081905290815260409020805460018201546002830180546001600160a01b039093169391926106359061446a565b80601f01602080910402602001604051908101604052809291908181526020018280546106619061446a565b80156106ac5780601f10610683576101008083540402835291602001916106ac565b820191905f5260205f20905b81548152906001019060200180831161068f57829003601f168201915b5050505050908060030180546106c19061446a565b80601f01602080910402602001604051908101604052809291908181526020018280546106ed9061446a565b80156107385780601f1061070f57610100808354040283529160200191610738565b820191905f5260205f20905b81548152906001019060200180831161071b57829003601f168201915b50505050509080600401805461074d9061446a565b80601f01602080910402602001604051908101604052809291908181526020018280546107799061446a565b80156107c45780601f1061079b576101008083540402835291602001916107c4565b820191905f5260205f20905b8154815290600101906020018083116107a757829003601f168201915b5050505050908060050154908060060154908060070154905088565b6001600160a01b0381165f90815260056020908152604080832080548251818502810185019093528083526060949383018282801561083c57602002820191905f5260205f20905b815481526020019060010190808311610828575b505050505090505f815167ffffffffffffffff81111561085e5761085e613c89565b6040519080825280602002602001820160405280156108fe57816020015b6108eb604051806101a001604052805f6001600160a01b031681526020015f81526020016060815260200160608152602001606081526020015f81526020015f81526020015f815260200160608152602001606081526020016060815260200160608152602001606081525090565b81526020019060019003908161087c5790505b5090505f5b8251811015610e18575f805f8584815181106109215761092161449c565b602002602001015181526020019081526020015f209050604051806101a00160405280825f015f9054906101000a90046001600160a01b03166001600160a01b03168152602001826001015481526020018260020180546109819061446a565b80601f01602080910402602001604051908101604052809291908181526020018280546109ad9061446a565b80156109f85780601f106109cf576101008083540402835291602001916109f8565b820191905f5260205f20905b8154815290600101906020018083116109db57829003601f168201915b50505050508152602001826003018054610a119061446a565b80601f0160208091040260200160405190810160405280929190818152602001828054610a3d9061446a565b8015610a885780601f10610a5f57610100808354040283529160200191610a88565b820191905f5260205f20905b815481529060010190602001808311610a6b57829003601f168201915b50505050508152602001826004018054610aa19061446a565b80601f0160208091040260200160405190810160405280929190818152602001828054610acd9061446a565b8015610b185780601f10610aef57610100808354040283529160200191610b18565b820191905f5260205f20905b815481529060010190602001808311610afb57829003601f168201915b5050505050815260200182600501548152602001826006015481526020018260070154815260200182600801805480602002602001604051908101604052809291908181526020018280548015610b9657602002820191905f5260205f20905b81546001600160a01b03168152600190910190602001808311610b78575b5050505050815260200182600901805480602002602001604051908101604052809291908181526020015f905b82821015610c6b578382905f5260205f20018054610be09061446a565b80601f0160208091040260200160405190810160405280929190818152602001828054610c0c9061446a565b8015610c575780601f10610c2e57610100808354040283529160200191610c57565b820191905f5260205f20905b815481529060010190602001808311610c3a57829003601f168201915b505050505081526020019060010190610bc3565b50505050815260200182600a01805480602002602001604051908101604052809291908181526020018280548015610cc057602002820191905f5260205f20905b815481526020019060010190808311610cac575b5050505050815260200182600b01805480602002602001604051908101604052809291908181526020015f905b82821015610d95578382905f5260205f20018054610d0a9061446a565b80601f0160208091040260200160405190810160405280929190818152602001828054610d369061446a565b8015610d815780601f10610d5857610100808354040283529160200191610d81565b820191905f5260205f20905b815481529060010190602001808311610d6457829003601f168201915b505050505081526020019060010190610ced565b50505050815260200182600c01805480602002602001604051908101604052809291908181526020018280548015610dea57602002820191905f5260205f20905b815481526020019060010190808311610dd6575b5050505050815250838381518110610e0457610e0461449c565b602090810291909101015250600101610903565b509392505050565b60068181548110610e2f575f80fd5b905f5260205f20015f915090508054610e479061446a565b80601f0160208091040260200160405190810160405280929190818152602001828054610e739061446a565b8015610ebe5780601f10610e9557610100808354040283529160200191610ebe565b820191905f5260205f20905b815481529060010190602001808311610ea157829003601f168201915b505050505081565b6007548210610f125760405162461bcd60e51b8152602060048201526013602482015272141bdcdd08191bd95cc81b9bdd08195e1a5cdd606a1b60448201526064015b60405180910390fd5b5f828152602081905260409020600801548110610f715760405162461bcd60e51b815260206004820152601660248201527f436f6d6d656e7420646f6573206e6f74206578697374000000000000000000006044820152606401610f09565b5f828152600260209081526040808320848452825280832033845290915290205460ff1615610fee5760405162461bcd60e51b815260206004820152602360248201527f557365722068617320616c7265616479206c696b6564207468697320636f6d6d604482015262195b9d60ea1b6064820152608401610f09565b5f828152602081905260409020600c81018054839081106110115761101161449c565b5f9182526020822001805491611026836144c4565b9091555050505f91825260026020908152604080842092845291815281832033845290529020805460ff19166001179055565b60085481516060916001600160a01b0316905f9067ffffffffffffffff81111561108557611085613c89565b6040519080825280602002602001820160405280156110b857816020015b60608152602001906001900390816110a35790505b5090505f5b8451811015610e1857826001600160a01b031663fbf316698683815181106110e7576110e761449c565b60200260200101516040518263ffffffff1660e01b815260040161111a91906001600160a01b0391909116815260200190565b5f60405180830381865afa158015611134573d5f803e3d5ffd5b505050506040513d5f823e601f3d908101601f1916820160405261115b91908101906144dc565b82828151811061116d5761116d61449c565b60209081029190910101526001016110bd565b60075481106111c75760405162461bcd60e51b8152602060048201526013602482015272141bdcdd08191bd95cc81b9bdd08195e1a5cdd606a1b6044820152606401610f09565b5f81815260016020908152604080832033845290915290205460ff16156112305760405162461bcd60e51b815260206004820181905260248201527f557365722068617320616c7265616479206c696b6564207468697320706f73746044820152606401610f09565b5f818152602081905260408120600681018054919261124e836144c4565b9091555050505f908152600160208181526040808420338552909152909120805460ff19169091179055565b6060611285336107e0565b905090565b60605f60038360405161129d9190614551565b90815260408051918290036020908101832080548083028501830190935282845291908301828280156112ed57602002820191905f5260205f20905b8154815260200190600101908083116112d9575b505050505090505f815167ffffffffffffffff81111561130f5761130f613c89565b6040519080825280602002602001820160405280156113af57816020015b61139c604051806101a001604052805f6001600160a01b031681526020015f81526020016060815260200160608152602001606081526020015f81526020015f81526020015f815260200160608152602001606081526020016060815260200160608152602001606081525090565b81526020019060019003908161132d5790505b5090505f5b8251811015610e18575f805f8584815181106113d2576113d261449c565b602002602001015181526020019081526020015f209050604051806101a00160405280825f015f9054906101000a90046001600160a01b03166001600160a01b03168152602001826001015481526020018260020180546114329061446a565b80601f016020809104026020016040519081016040528092919081815260200182805461145e9061446a565b80156114a95780601f10611480576101008083540402835291602001916114a9565b820191905f5260205f20905b81548152906001019060200180831161148c57829003601f168201915b505050505081526020018260030180546114c29061446a565b80601f01602080910402602001604051908101604052809291908181526020018280546114ee9061446a565b80156115395780601f1061151057610100808354040283529160200191611539565b820191905f5260205f20905b81548152906001019060200180831161151c57829003601f168201915b505050505081526020018260040180546115529061446a565b80601f016020809104026020016040519081016040528092919081815260200182805461157e9061446a565b80156115c95780601f106115a0576101008083540402835291602001916115c9565b820191905f5260205f20905b8154815290600101906020018083116115ac57829003601f168201915b505050505081526020018260050154815260200182600601548152602001826007015481526020018260080180548060200260200160405190810160405280929190818152602001828054801561164757602002820191905f5260205f20905b81546001600160a01b03168152600190910190602001808311611629575b5050505050815260200182600901805480602002602001604051908101604052809291908181526020015f905b8282101561171c578382905f5260205f200180546116919061446a565b80601f01602080910402602001604051908101604052809291908181526020018280546116bd9061446a565b80156117085780601f106116df57610100808354040283529160200191611708565b820191905f5260205f20905b8154815290600101906020018083116116eb57829003601f168201915b505050505081526020019060010190611674565b50505050815260200182600a0180548060200260200160405190810160405280929190818152602001828054801561177157602002820191905f5260205f20905b81548152602001906001019080831161175d575b5050505050815260200182600b01805480602002602001604051908101604052809291908181526020015f905b82821015611846578382905f5260205f200180546117bb9061446a565b80601f01602080910402602001604051908101604052809291908181526020018280546117e79061446a565b80156118325780601f1061180957610100808354040283529160200191611832565b820191905f5260205f20905b81548152906001019060200180831161181557829003601f168201915b50505050508152602001906001019061179e565b50505050815260200182600c0180548060200260200160405190810160405280929190818152602001828054801561189b57602002820191905f5260205f20905b815481526020019060010190808311611887575b50505050508152508383815181106118b5576118b561449c565b6020908102919091010152506001016113b4565b60605f60075467ffffffffffffffff8111156118e7576118e7613c89565b60405190808252806020026020018201604052801561198757816020015b611974604051806101a001604052805f6001600160a01b031681526020015f81526020016060815260200160608152602001606081526020015f81526020015f81526020015f815260200160608152602001606081526020016060815260200160608152602001606081525090565b8152602001906001900390816119055790505b5090505f5b600754811015611e72575f818152602081815260409182902082516101a08101845281546001600160a01b0316815260018201549281019290925260028101805491938301916119db9061446a565b80601f0160208091040260200160405190810160405280929190818152602001828054611a079061446a565b8015611a525780601f10611a2957610100808354040283529160200191611a52565b820191905f5260205f20905b815481529060010190602001808311611a3557829003601f168201915b50505050508152602001826003018054611a6b9061446a565b80601f0160208091040260200160405190810160405280929190818152602001828054611a979061446a565b8015611ae25780601f10611ab957610100808354040283529160200191611ae2565b820191905f5260205f20905b815481529060010190602001808311611ac557829003601f168201915b50505050508152602001826004018054611afb9061446a565b80601f0160208091040260200160405190810160405280929190818152602001828054611b279061446a565b8015611b725780601f10611b4957610100808354040283529160200191611b72565b820191905f5260205f20905b815481529060010190602001808311611b5557829003601f168201915b5050505050815260200182600501548152602001826006015481526020018260070154815260200182600801805480602002602001604051908101604052809291908181526020018280548015611bf057602002820191905f5260205f20905b81546001600160a01b03168152600190910190602001808311611bd2575b5050505050815260200182600901805480602002602001604051908101604052809291908181526020015f905b82821015611cc5578382905f5260205f20018054611c3a9061446a565b80601f0160208091040260200160405190810160405280929190818152602001828054611c669061446a565b8015611cb15780601f10611c8857610100808354040283529160200191611cb1565b820191905f5260205f20905b815481529060010190602001808311611c9457829003601f168201915b505050505081526020019060010190611c1d565b50505050815260200182600a01805480602002602001604051908101604052809291908181526020018280548015611d1a57602002820191905f5260205f20905b815481526020019060010190808311611d06575b5050505050815260200182600b01805480602002602001604051908101604052809291908181526020015f905b82821015611def578382905f5260205f20018054611d649061446a565b80601f0160208091040260200160405190810160405280929190818152602001828054611d909061446a565b8015611ddb5780601f10611db257610100808354040283529160200191611ddb565b820191905f5260205f20905b815481529060010190602001808311611dbe57829003601f168201915b505050505081526020019060010190611d47565b50505050815260200182600c01805480602002602001604051908101604052809291908181526020018280548015611e4457602002820191905f5260205f20905b815481526020019060010190808311611e30575b5050505050815250838381518110611e5e57611e5e61449c565b60209081029190910101525060010161198c565b50919050565b611ee7604051806101a001604052805f6001600160a01b031681526020015f81526020016060815260200160608152602001606081526020015f81526020015f81526020015f815260200160608152602001606081526020016060815260200160608152602001606081525090565b6007548210611f2e5760405162461bcd60e51b8152602060048201526013602482015272141bdcdd08191bd95cc81b9bdd08195e1a5cdd606a1b6044820152606401610f09565b5f828152602081815260409182902082516101a08101845281546001600160a01b031681526001820154928101929092526002810180549293919291840191611f769061446a565b80601f0160208091040260200160405190810160405280929190818152602001828054611fa29061446a565b8015611fed5780601f10611fc457610100808354040283529160200191611fed565b820191905f5260205f20905b815481529060010190602001808311611fd057829003601f168201915b505050505081526020016003820180546120069061446a565b80601f01602080910402602001604051908101604052809291908181526020018280546120329061446a565b801561207d5780601f106120545761010080835404028352916020019161207d565b820191905f5260205f20905b81548152906001019060200180831161206057829003601f168201915b505050505081526020016004820180546120969061446a565b80601f01602080910402602001604051908101604052809291908181526020018280546120c29061446a565b801561210d5780601f106120e45761010080835404028352916020019161210d565b820191905f5260205f20905b8154815290600101906020018083116120f057829003601f168201915b505050505081526020016005820154815260200160068201548152602001600782015481526020016008820180548060200260200160405190810160405280929190818152602001828054801561218b57602002820191905f5260205f20905b81546001600160a01b0316815260019091019060200180831161216d575b5050505050815260200160098201805480602002602001604051908101604052809291908181526020015f905b82821015612260578382905f5260205f200180546121d59061446a565b80601f01602080910402602001604051908101604052809291908181526020018280546122019061446a565b801561224c5780601f106122235761010080835404028352916020019161224c565b820191905f5260205f20905b81548152906001019060200180831161222f57829003601f168201915b5050505050815260200190600101906121b8565b505050508152602001600a82018054806020026020016040519081016040528092919081815260200182805480156122b557602002820191905f5260205f20905b8154815260200190600101908083116122a1575b50505050508152602001600b8201805480602002602001604051908101604052809291908181526020015f905b8282101561238a578382905f5260205f200180546122ff9061446a565b80601f016020809104026020016040519081016040528092919081815260200182805461232b9061446a565b80156123765780601f1061234d57610100808354040283529160200191612376565b820191905f5260205f20905b81548152906001019060200180831161235957829003601f168201915b5050505050815260200190600101906122e2565b505050508152602001600c82018054806020026020016040519081016040528092919081815260200182805480156123df57602002820191905f5260205f20905b8154815260200190600101908083116123cb575b5050505050815250509050919050565b60606006805480602002602001604051908101604052809291908181526020015f905b828210156124ba578382905f5260205f2001805461242f9061446a565b80601f016020809104026020016040519081016040528092919081815260200182805461245b9061446a565b80156124a65780601f1061247d576101008083540402835291602001916124a6565b820191905f5260205f20905b81548152906001019060200180831161248957829003601f168201915b505050505081526020019060010190612412565b50505050905090565b60605f60075467ffffffffffffffff8111156124e1576124e1613c89565b60405190808252806020026020018201604052801561258157816020015b61256e604051806101a001604052805f6001600160a01b031681526020015f81526020016060815260200160608152602001606081526020015f81526020015f81526020015f815260200160608152602001606081526020016060815260200160608152602001606081525090565b8152602001906001900390816124ff5790505b506008549091505f906001600160a01b0316815b600754811015612b02575f818152602081905260409081902080549151632c25a89360e11b81526001600160a01b0392831660048201528883166024820152909184169063584b512690604401602060405180830381865afa1580156125fd573d5f803e3d5ffd5b505050506040513d601f19601f820116820180604052508101906126219190614567565b15612af957604080516101a08101825282546001600160a01b0316815260018301546020820152600283018054919283019161265c9061446a565b80601f01602080910402602001604051908101604052809291908181526020018280546126889061446a565b80156126d35780601f106126aa576101008083540402835291602001916126d3565b820191905f5260205f20905b8154815290600101906020018083116126b657829003601f168201915b505050505081526020018260030180546126ec9061446a565b80601f01602080910402602001604051908101604052809291908181526020018280546127189061446a565b80156127635780601f1061273a57610100808354040283529160200191612763565b820191905f5260205f20905b81548152906001019060200180831161274657829003601f168201915b5050505050815260200182600401805461277c9061446a565b80601f01602080910402602001604051908101604052809291908181526020018280546127a89061446a565b80156127f35780601f106127ca576101008083540402835291602001916127f3565b820191905f5260205f20905b8154815290600101906020018083116127d657829003601f168201915b505050505081526020018260050154815260200182600601548152602001826007015481526020018260080180548060200260200160405190810160405280929190818152602001828054801561287157602002820191905f5260205f20905b81546001600160a01b03168152600190910190602001808311612853575b5050505050815260200182600901805480602002602001604051908101604052809291908181526020015f905b82821015612946578382905f5260205f200180546128bb9061446a565b80601f01602080910402602001604051908101604052809291908181526020018280546128e79061446a565b80156129325780601f1061290957610100808354040283529160200191612932565b820191905f5260205f20905b81548152906001019060200180831161291557829003601f168201915b50505050508152602001906001019061289e565b50505050815260200182600a0180548060200260200160405190810160405280929190818152602001828054801561299b57602002820191905f5260205f20905b815481526020019060010190808311612987575b5050505050815260200182600b01805480602002602001604051908101604052809291908181526020015f905b82821015612a70578382905f5260205f200180546129e59061446a565b80601f0160208091040260200160405190810160405280929190818152602001828054612a119061446a565b8015612a5c5780601f10612a3357610100808354040283529160200191612a5c565b820191905f5260205f20905b815481529060010190602001808311612a3f57829003601f168201915b5050505050815260200190600101906129c8565b50505050815260200182600c01805480602002602001604051908101604052809291908181526020018280548015612ac557602002820191905f5260205f20905b815481526020019060010190808311612ab1575b5050505050815250858581518110612adf57612adf61449c565b60200260200101819052508380612af5906144c4565b9450505b50600101612595565b505f8267ffffffffffffffff811115612b1d57612b1d613c89565b604051908082528060200260200182016040528015612bbd57816020015b612baa604051806101a001604052805f6001600160a01b031681526020015f81526020016060815260200160608152602001606081526020015f81526020015f81526020015f815260200160608152602001606081526020016060815260200160608152602001606081525090565b815260200190600190039081612b3b5790505b5090505f5b83811015612c0957848181518110612bdc57612bdc61449c565b6020026020010151828281518110612bf657612bf661449c565b6020908102919091010152600101612bc2565b5095945050505050565b336001600160a01b03851614612c27575f80fd5b600854600780545f9081526020819052604090819020805473ffffffffffffffffffffffffffffffffffffffff19166001600160a01b03898116918217835593546001830155915163a4b65d6360e01b815260048101929092529190921691829063a4b65d63906024015f60405180830381865afa158015612cab573d5f803e3d5ffd5b505050506040513d5f823e601f3d908101601f19168201604052612cd291908101906144dc565b6002820190612ce190826145d2565b5060038101612cf086826145d2565b5060048101612cff85826145d2565b5060058181018490555f600683018190556001600160a01b038881168083526020938452604080842060075481546001810183559186529590942090930193909355905163f847211f60e01b8152600481019290925283169063f847211f906024015f604051808303815f87803b158015612d78575f80fd5b505af1158015612d8a573d5f803e3d5ffd5b505060078054925090505f612d9e836144c4565b9190505550505050505050565b6005602052815f5260405f2081815481106105f2575f80fd5b5f805b600654811015612e1f57828051906020012060068281548110612dec57612dec61449c565b905f5260205f2001604051612e019190614692565b604051809103902003612e175750600192915050565b600101612dc7565b505f92915050565b60606007548210612e705760405162461bcd60e51b8152602060048201526013602482015272141bdcdd08191bd95cc81b9bdd08195e1a5cdd606a1b6044820152606401610f09565b5f82815260208190526040812060090154908167ffffffffffffffff811115612e9b57612e9b613c89565b604051908082528060200260200182016040528015612ece57816020015b6060815260200190600190039081612eb95790505b506008545f8681526020819052604081209293506001600160a01b0390911691905b84811015612fcc57826001600160a01b031663fbf31669836008018381548110612f1c57612f1c61449c565b5f9182526020909120015460405160e083901b7fffffffff000000000000000000000000000000000000000000000000000000001681526001600160a01b0390911660048201526024015f60405180830381865afa158015612f80573d5f803e3d5ffd5b505050506040513d5f823e601f3d908101601f19168201604052612fa791908101906144dc565b848281518110612fb957612fb961449c565b6020908102919091010152600101612ef0565b509195945050505050565b606080606060075484106130235760405162461bcd60e51b8152602060048201526013602482015272141bdcdd08191bd95cc81b9bdd08195e1a5cdd606a1b6044820152606401610f09565b5f84815260208190526040812060060154908167ffffffffffffffff81111561304e5761304e613c89565b60405190808252806020026020018201604052801561308157816020015b606081526020019060019003908161306c5790505b5090505f8267ffffffffffffffff81111561309e5761309e613c89565b6040519080825280602002602001820160405280156130d157816020015b60608152602001906001900390816130bc5790505b5090505f8367ffffffffffffffff8111156130ee576130ee613c89565b604051908082528060200260200182016040528015613117578160200160208202803683370190505b5090505f60085f9054906101000a90046001600160a01b031690505f816001600160a01b0316630d28afc76040518163ffffffff1660e01b8152600401602060405180830381865afa15801561316f573d5f803e3d5ffd5b505050506040513d601f19601f820116820180604052508101906131939190614704565b90505f805b8281101561338657604051639f1953c360e01b8152600481018290525f906001600160a01b03861690639f1953c390602401602060405180830381865afa1580156131e5573d5f803e3d5ffd5b505050506040513d601f19601f82011682018060405250810190613209919061471b565b5f8e81526001602090815260408083206001600160a01b038516845290915290205490915060ff161561337d5760405163742df7e160e11b81526001600160a01b03828116600483015286169063e85befc2906024015f60405180830381865afa158015613279573d5f803e3d5ffd5b505050506040513d5f823e601f3d908101601f191682016040526132a091908101906144dc565b8884815181106132b2576132b261449c565b602090810291909101015260405163fbf3166960e01b81526001600160a01b03828116600483015286169063fbf31669906024015f60405180830381865afa158015613300573d5f803e3d5ffd5b505050506040513d5f823e601f3d908101601f1916820160405261332791908101906144dc565b8784815181106133395761333961449c565b6020026020010181905250808684815181106133575761335761449c565b6001600160a01b039092166020928302919091019091015282613379816144c4565b9350505b50600101613198565b50949a9399509197509195505050505050565b60075481106133e05760405162461bcd60e51b8152602060048201526013602482015272141bdcdd08191bd95cc81b9bdd08195e1a5cdd606a1b6044820152606401610f09565b5f341161343a5760405162461bcd60e51b815260206004820152602260248201527f446f6e6174696f6e206d7573742062652067726561746572207468616e207a65604482015261726f60f01b6064820152608401610f09565b5f8181526020819052604080822080549151349391926001600160a01b03169084908381818185875af1925050503d805f8114613492576040519150601f19603f3d011682016040523d82523d5f602084013e613497565b606091505b50509050806134e85760405162461bcd60e51b815260206004820152601460248201527f4661696c656420746f2073656e642045746865720000000000000000000000006044820152606401610f09565b82826007015f8282546134fb9190614736565b909155505050505050565b61350f81612dc4565b1561355c5760405162461bcd60e51b815260206004820152601560248201527f466f6c64657220616c72656164792065786973747300000000000000000000006044820152606401610f09565b600680546001810182555f919091527ff652222313e28459528d920b65115c16c04f3efc82aaedc97be59f3f377c0d3f0161359782826145d2565b5050565b336001600160a01b038416146135af575f80fd5b600880545f8681526020818152604080832094850180546001810182559084529190922001805473ffffffffffffffffffffffffffffffffffffffff19166001600160a01b0388811691909117909155905163a4b65d6360e01b8152336004820152911691906009820190839063a4b65d63906024015f60405180830381865afa15801561363f573d5f803e3d5ffd5b505050506040513d5f823e601f3d908101601f1916820160405261366691908101906144dc565b81546001810183555f92835260209092209091019061368590826145d2565b50600a81018054600181810183555f9283526020808420909201879055600b84018054918201815583529120016136bc84826145d2565b50600c0180546001810182555f9182526020822001555050505050565b60075482106137205760405162461bcd60e51b8152602060048201526013602482015272141bdcdd08191bd95cc81b9bdd08195e1a5cdd606a1b6044820152606401610f09565b5f6003846040516137319190614551565b908152602001604051809103902090505f5b81548110156137bd578382828154811061375f5761375f61449c565b905f5260205f200154036137b55760405162461bcd60e51b815260206004820152601c60248201527f506f737420616c726561647920736176656420696e20666f6c646572000000006044820152606401610f09565b600101613743565b506003846040516137ce9190614551565b90815260408051602092819003830190208054600180820183555f9283528483209091018790556001600160a01b039590951681526004835281812095815294909152909220805460ff191690911790555050565b6060806060600754851061386f5760405162461bcd60e51b8152602060048201526013602482015272141bdcdd08191bd95cc81b9bdd08195e1a5cdd606a1b6044820152606401610f09565b5f8581526020819052604090206008015484106138ce5760405162461bcd60e51b815260206004820152601660248201527f436f6d6d656e7420646f6573206e6f74206578697374000000000000000000006044820152606401610f09565b5f858152602081905260408120600c018054869081106138f0576138f061449c565b905f5260205f20015490505f8167ffffffffffffffff81111561391557613915613c89565b60405190808252806020026020018201604052801561394857816020015b60608152602001906001900390816139335790505b5090505f8267ffffffffffffffff81111561396557613965613c89565b60405190808252806020026020018201604052801561399857816020015b60608152602001906001900390816139835790505b5090505f8367ffffffffffffffff8111156139b5576139b5613c89565b6040519080825280602002602001820160405280156139de578160200160208202803683370190505b5090505f60085f9054906101000a90046001600160a01b031690505f80826001600160a01b0316630d28afc76040518163ffffffff1660e01b8152600401602060405180830381865afa158015613a37573d5f803e3d5ffd5b505050506040513d601f19601f82011682018060405250810190613a5b9190614704565b90505f5b81811015613c7557604051639f1953c360e01b8152600481018290525f906001600160a01b03861690639f1953c390602401602060405180830381865afa158015613aac573d5f803e3d5ffd5b505050506040513d601f19601f82011682018060405250810190613ad0919061471b565b905060025f8f81526020019081526020015f205f8e81526020019081526020015f205f826001600160a01b03166001600160a01b031681526020019081526020015f205f9054906101000a900460ff1615613c6c5760405163742df7e160e11b81526001600160a01b03828116600483015286169063e85befc2906024015f60405180830381865afa158015613b68573d5f803e3d5ffd5b505050506040513d5f823e601f3d908101601f19168201604052613b8f91908101906144dc565b888581518110613ba157613ba161449c565b602090810291909101015260405163fbf3166960e01b81526001600160a01b03828116600483015286169063fbf31669906024015f60405180830381865afa158015613bef573d5f803e3d5ffd5b505050506040513d5f823e601f3d908101601f19168201604052613c1691908101906144dc565b878581518110613c2857613c2861449c565b602002602001018190525080868581518110613c4657613c4661449c565b6001600160a01b039092166020928302919091019091015283613c68816144c4565b9450505b50600101613a5f565b50949b939a50919850919650505050505050565b634e487b7160e01b5f52604160045260245ffd5b604051601f8201601f1916810167ffffffffffffffff81118282101715613cc657613cc6613c89565b604052919050565b5f67ffffffffffffffff821115613ce757613ce7613c89565b50601f01601f191660200190565b5f82601f830112613d04575f80fd5b8135613d17613d1282613cce565b613c9d565b818152846020838601011115613d2b575f80fd5b816020850160208301375f918101602001919091529392505050565b5f8060408385031215613d58575f80fd5b823567ffffffffffffffff811115613d6e575f80fd5b613d7a85828601613cf5565b95602094909401359450505050565b5f60208284031215613d99575f80fd5b5035919050565b5f81518084528060208401602086015e5f602082860101526020601f19601f83011685010191505092915050565b5f6101006001600160a01b038b168352896020840152806040840152613df68184018a613da0565b90508281036060840152613e0a8189613da0565b90508281036080840152613e1e8188613da0565b60a0840196909652505060c081019290925260e09091015295945050505050565b6001600160a01b0381168114613e53575f80fd5b50565b5f60208284031215613e66575f80fd5b8135613e7181613e3f565b9392505050565b5f815180845260208085019450602084015f5b83811015613eb05781516001600160a01b031687529582019590820190600101613e8b565b509495945050505050565b5f8282518085526020808601955060208260051b840101602086015f5b84811015613f0657601f19868403018952613ef4838351613da0565b98840198925090830190600101613ed8565b5090979650505050505050565b5f815180845260208085019450602084015f5b83811015613eb057815187529582019590820190600101613f26565b80516001600160a01b031682525f6101a0602083015160208501526040830151816040860152613f7482860182613da0565b91505060608301518482036060860152613f8e8282613da0565b91505060808301518482036080860152613fa88282613da0565b91505060a083015160a085015260c083015160c085015260e083015160e08501526101008084015185830382870152613fe18382613e78565b925050506101208084015185830382870152613ffd8382613ebb565b9250505061014080840151858303828701526140198382613f13565b9250505061016080840151858303828701526140358382613ebb565b9250505061018080840151858303828701526140518382613f13565b9695505050505050565b5f60208083016020845280855180835260408601915060408160051b8701019250602087015f5b828110156140b057603f1988860301845261409e858351613f42565b94509285019290850190600101614082565b5092979650505050505050565b602081525f613e716020830184613da0565b5f80604083850312156140e0575f80fd5b50508035926020909101359150565b5f6020808385031215614100575f80fd5b823567ffffffffffffffff80821115614117575f80fd5b818501915085601f83011261412a575f80fd5b81358181111561413c5761413c613c89565b8060051b915061414d848301613c9d565b8181529183018401918481019088841115614166575f80fd5b938501935b83851015614190578435925061418083613e3f565b828252938501939085019061416b565b98975050505050505050565b5f8282518085526020808601955060208260051b840101602086015f5b84811015613f0657601f198684030189526141d5838351613da0565b988401989250908301906001016141b9565b602081525f613e71602083018461419c565b5f806040838503121561420a575f80fd5b823561421581613e3f565b946020939093013593505050565b5f60208284031215614233575f80fd5b813567ffffffffffffffff811115614249575f80fd5b61425584828501613cf5565b949350505050565b602081525f613e716020830184613f42565b5f805f8060808587031215614282575f80fd5b843561428d81613e3f565b9350602085013567ffffffffffffffff808211156142a9575f80fd5b6142b588838901613cf5565b945060408701359150808211156142ca575f80fd5b506142d787828801613cf5565b949793965093946060013593505050565b5f805f606084860312156142fa575f80fd5b8335925060208401359150604084013561431381613e3f565b809150509250925092565b606081525f614330606083018661419c565b60208382036020850152614344828761419c565b8481036040860152855180825260208088019450909101905f5b818110156143835784516001600160a01b03168352938301939183019160010161435e565b509098975050505050505050565b5f80604083850312156143a2575f80fd5b8235915060208301356143b481613e3f565b809150509250929050565b5f805f80608085870312156143d2575f80fd5b8435935060208501356143e481613e3f565b925060408501359150606085013567ffffffffffffffff811115614406575f80fd5b61441287828801613cf5565b91505092959194509250565b5f805f60608486031215614430575f80fd5b833567ffffffffffffffff811115614446575f80fd5b61445286828701613cf5565b93505060208401359150604084013561431381613e3f565b600181811c9082168061447e57607f821691505b602082108103611e7257634e487b7160e01b5f52602260045260245ffd5b634e487b7160e01b5f52603260045260245ffd5b634e487b7160e01b5f52601160045260245ffd5b5f600182016144d5576144d56144b0565b5060010190565b5f602082840312156144ec575f80fd5b815167ffffffffffffffff811115614502575f80fd5b8201601f81018413614512575f80fd5b8051614520613d1282613cce565b818152856020838501011115614534575f80fd5b8160208401602083015e5f91810160200191909152949350505050565b5f82518060208501845e5f920191825250919050565b5f60208284031215614577575f80fd5b81518015158114613e71575f80fd5b601f8211156145cd57805f5260205f20601f840160051c810160208510156145ab5750805b601f840160051c820191505b818110156145ca575f81556001016145b7565b50505b505050565b815167ffffffffffffffff8111156145ec576145ec613c89565b614600816145fa845461446a565b84614586565b602080601f831160018114614633575f841561461c5750858301515b5f19600386901b1c1916600185901b17855561468a565b5f85815260208120601f198616915b8281101561466157888601518255948401946001909101908401614642565b508582101561467e57878501515f19600388901b60f8161c191681555b505060018460011b0185555b505050505050565b5f80835461469f8161446a565b600182811680156146b757600181146146cc576146f8565b60ff19841687528215158302870194506146f8565b875f526020805f205f5b858110156146ef5781548a8201529084019082016146d6565b50505082870194505b50929695505050505050565b5f60208284031215614714575f80fd5b5051919050565b5f6020828403121561472b575f80fd5b8151613e7181613e3f565b80820180821115614749576147496144b0565b9291505056fea264697066735822122030f03697a995804224f2bc0f15f903b8eacf2448284d90ca79cabe03c77d342264736f6c63430008190033",
      "opcodes": "PUSH1 0x80 PUSH1 0x40 MSTORE PUSH0 PUSH1 0x7 SSTORE CALLVALUE DUP1 ISZERO PUSH1 0x12 JUMPI PUSH0 DUP1 REVERT JUMPDEST POP PUSH1 0x40 MLOAD PUSH2 0x4810 CODESIZE SUB DUP1 PUSH2 0x4810 DUP4 CODECOPY DUP2 ADD PUSH1 0x40 DUP2 SWAP1 MSTORE PUSH1 0x2F SWAP2 PUSH1 0x53 JUMP JUMPDEST PUSH1 0x8 DUP1 SLOAD PUSH1 0x1 PUSH1 0x1 PUSH1 0xA0 SHL SUB NOT AND PUSH1 0x1 PUSH1 0x1 PUSH1 0xA0 SHL SUB SWAP3 SWAP1 SWAP3 AND SWAP2 SWAP1 SWAP2 OR SWAP1 SSTORE PUSH1 0x7E JUMP JUMPDEST PUSH0 PUSH1 0x20 DUP3 DUP5 SUB SLT ISZERO PUSH1 0x62 JUMPI PUSH0 DUP1 REVERT JUMPDEST DUP2 MLOAD PUSH1 0x1 PUSH1 0x1 PUSH1 0xA0 SHL SUB DUP2 AND DUP2 EQ PUSH1 0x77 JUMPI PUSH0 DUP1 REVERT JUMPDEST SWAP4 SWAP3 POP POP POP JUMP JUMPDEST PUSH2 0x4785 DUP1 PUSH2 0x8B PUSH0 CODECOPY PUSH0 RETURN INVALID PUSH1 0x80 PUSH1 0x40 MSTORE PUSH1 0x4 CALLDATASIZE LT PUSH2 0x1AF JUMPI PUSH0 CALLDATALOAD PUSH1 0xE0 SHR DUP1 PUSH4 0x7A9A33F3 GT PUSH2 0xE7 JUMPI DUP1 PUSH4 0xB68603B6 GT PUSH2 0x87 JUMPI DUP1 PUSH4 0xD9524EE4 GT PUSH2 0x62 JUMPI DUP1 PUSH4 0xD9524EE4 EQ PUSH2 0x556 JUMPI DUP1 PUSH4 0xDB700DEE EQ PUSH2 0x56B JUMPI DUP1 PUSH4 0xE3A29428 EQ PUSH2 0x58A JUMPI DUP1 PUSH4 0xECEECA66 EQ PUSH2 0x5A9 JUMPI PUSH0 DUP1 REVERT JUMPDEST DUP1 PUSH4 0xB68603B6 EQ PUSH2 0x4EB JUMPI DUP1 PUSH4 0xC992C114 EQ PUSH2 0x4FE JUMPI DUP1 PUSH4 0xCA1F0CAD EQ PUSH2 0x51D JUMPI PUSH0 DUP1 REVERT JUMPDEST DUP1 PUSH4 0x86B605CB GT PUSH2 0xC2 JUMPI DUP1 PUSH4 0x86B605CB EQ PUSH2 0x440 JUMPI DUP1 PUSH4 0x901C9A5D EQ PUSH2 0x45F JUMPI DUP1 PUSH4 0xA008E715 EQ PUSH2 0x47E JUMPI DUP1 PUSH4 0xB0B2671D EQ PUSH2 0x4BD JUMPI PUSH0 DUP1 REVERT JUMPDEST DUP1 PUSH4 0x7A9A33F3 EQ PUSH2 0x3E3 JUMPI DUP1 PUSH4 0x7C64CFF1 EQ PUSH2 0x402 JUMPI DUP1 PUSH4 0x8064D149 EQ PUSH2 0x421 JUMPI PUSH0 DUP1 REVERT JUMPDEST DUP1 PUSH4 0x57CE0675 GT PUSH2 0x152 JUMPI DUP1 PUSH4 0x64B09EC3 GT PUSH2 0x12D JUMPI DUP1 PUSH4 0x64B09EC3 EQ PUSH2 0x358 JUMPI DUP1 PUSH4 0x64E95895 EQ PUSH2 0x36C JUMPI DUP1 PUSH4 0x702D3EBB EQ PUSH2 0x398 JUMPI DUP1 PUSH4 0x7A8F102F EQ PUSH2 0x3CF JUMPI PUSH0 DUP1 REVERT JUMPDEST DUP1 PUSH4 0x57CE0675 EQ PUSH2 0x2DC JUMPI DUP1 PUSH4 0x5950EB5B EQ PUSH2 0x325 JUMPI DUP1 PUSH4 0x5D29A742 EQ PUSH2 0x339 JUMPI PUSH0 DUP1 REVERT JUMPDEST DUP1 PUSH4 0x3251E563 GT PUSH2 0x18D JUMPI DUP1 PUSH4 0x3251E563 EQ PUSH2 0x244 JUMPI DUP1 PUSH4 0x36E23F4C EQ PUSH2 0x270 JUMPI DUP1 PUSH4 0x485CEF06 EQ PUSH2 0x291 JUMPI DUP1 PUSH4 0x51BE0FCA EQ PUSH2 0x2BD JUMPI PUSH0 DUP1 REVERT JUMPDEST DUP1 PUSH4 0x931EF4C EQ PUSH2 0x1B3 JUMPI DUP1 PUSH4 0xB1E7F83 EQ PUSH2 0x1E5 JUMPI DUP1 PUSH4 0x28538949 EQ PUSH2 0x218 JUMPI JUMPDEST PUSH0 DUP1 REVERT JUMPDEST CALLVALUE DUP1 ISZERO PUSH2 0x1BE JUMPI PUSH0 DUP1 REVERT JUMPDEST POP PUSH2 0x1D2 PUSH2 0x1CD CALLDATASIZE PUSH1 0x4 PUSH2 0x3D47 JUMP JUMPDEST PUSH2 0x5C8 JUMP JUMPDEST PUSH1 0x40 MLOAD SWAP1 DUP2 MSTORE PUSH1 0x20 ADD JUMPDEST PUSH1 0x40 MLOAD DUP1 SWAP2 SUB SWAP1 RETURN JUMPDEST CALLVALUE DUP1 ISZERO PUSH2 0x1F0 JUMPI PUSH0 DUP1 REVERT JUMPDEST POP PUSH2 0x204 PUSH2 0x1FF CALLDATASIZE PUSH1 0x4 PUSH2 0x3D89 JUMP JUMPDEST PUSH2 0x604 JUMP JUMPDEST PUSH1 0x40 MLOAD PUSH2 0x1DC SWAP9 SWAP8 SWAP7 SWAP6 SWAP5 SWAP4 SWAP3 SWAP2 SWAP1 PUSH2 0x3DCE JUMP JUMPDEST CALLVALUE DUP1 ISZERO PUSH2 0x223 JUMPI PUSH0 DUP1 REVERT JUMPDEST POP PUSH2 0x237 PUSH2 0x232 CALLDATASIZE PUSH1 0x4 PUSH2 0x3E56 JUMP JUMPDEST PUSH2 0x7E0 JUMP JUMPDEST PUSH1 0x40 MLOAD PUSH2 0x1DC SWAP2 SWAP1 PUSH2 0x405B JUMP JUMPDEST CALLVALUE DUP1 ISZERO PUSH2 0x24F JUMPI PUSH0 DUP1 REVERT JUMPDEST POP PUSH2 0x263 PUSH2 0x25E CALLDATASIZE PUSH1 0x4 PUSH2 0x3D89 JUMP JUMPDEST PUSH2 0xE20 JUMP JUMPDEST PUSH1 0x40 MLOAD PUSH2 0x1DC SWAP2 SWAP1 PUSH2 0x40BD JUMP JUMPDEST CALLVALUE DUP1 ISZERO PUSH2 0x27B JUMPI PUSH0 DUP1 REVERT JUMPDEST POP PUSH2 0x28F PUSH2 0x28A CALLDATASIZE PUSH1 0x4 PUSH2 0x40CF JUMP JUMPDEST PUSH2 0xEC6 JUMP JUMPDEST STOP JUMPDEST CALLVALUE DUP1 ISZERO PUSH2 0x29C JUMPI PUSH0 DUP1 REVERT JUMPDEST POP PUSH2 0x2B0 PUSH2 0x2AB CALLDATASIZE PUSH1 0x4 PUSH2 0x40EF JUMP JUMPDEST PUSH2 0x1059 JUMP JUMPDEST PUSH1 0x40 MLOAD PUSH2 0x1DC SWAP2 SWAP1 PUSH2 0x41E7 JUMP JUMPDEST CALLVALUE DUP1 ISZERO PUSH2 0x2C8 JUMPI PUSH0 DUP1 REVERT JUMPDEST POP PUSH2 0x28F PUSH2 0x2D7 CALLDATASIZE PUSH1 0x4 PUSH2 0x3D89 JUMP JUMPDEST PUSH2 0x1180 JUMP JUMPDEST CALLVALUE DUP1 ISZERO PUSH2 0x2E7 JUMPI PUSH0 DUP1 REVERT JUMPDEST POP PUSH2 0x315 PUSH2 0x2F6 CALLDATASIZE PUSH1 0x4 PUSH2 0x41F9 JUMP JUMPDEST PUSH1 0x4 PUSH1 0x20 SWAP1 DUP2 MSTORE PUSH0 SWAP3 DUP4 MSTORE PUSH1 0x40 DUP1 DUP5 KECCAK256 SWAP1 SWAP2 MSTORE SWAP1 DUP3 MSTORE SWAP1 KECCAK256 SLOAD PUSH1 0xFF AND DUP2 JUMP JUMPDEST PUSH1 0x40 MLOAD SWAP1 ISZERO ISZERO DUP2 MSTORE PUSH1 0x20 ADD PUSH2 0x1DC JUMP JUMPDEST CALLVALUE DUP1 ISZERO PUSH2 0x330 JUMPI PUSH0 DUP1 REVERT JUMPDEST POP PUSH2 0x237 PUSH2 0x127A JUMP JUMPDEST CALLVALUE DUP1 ISZERO PUSH2 0x344 JUMPI PUSH0 DUP1 REVERT JUMPDEST POP PUSH2 0x237 PUSH2 0x353 CALLDATASIZE PUSH1 0x4 PUSH2 0x4223 JUMP JUMPDEST PUSH2 0x128A JUMP JUMPDEST CALLVALUE DUP1 ISZERO PUSH2 0x363 JUMPI PUSH0 DUP1 REVERT JUMPDEST POP PUSH2 0x237 PUSH2 0x18C9 JUMP JUMPDEST CALLVALUE DUP1 ISZERO PUSH2 0x377 JUMPI PUSH0 DUP1 REVERT JUMPDEST POP PUSH2 0x38B PUSH2 0x386 CALLDATASIZE PUSH1 0x4 PUSH2 0x3D89 JUMP JUMPDEST PUSH2 0x1E78 JUMP JUMPDEST PUSH1 0x40 MLOAD PUSH2 0x1DC SWAP2 SWAP1 PUSH2 0x425D JUMP JUMPDEST CALLVALUE DUP1 ISZERO PUSH2 0x3A3 JUMPI PUSH0 DUP1 REVERT JUMPDEST POP PUSH1 0x8 SLOAD PUSH2 0x3B7 SWAP1 PUSH1 0x1 PUSH1 0x1 PUSH1 0xA0 SHL SUB AND DUP2 JUMP JUMPDEST PUSH1 0x40 MLOAD PUSH1 0x1 PUSH1 0x1 PUSH1 0xA0 SHL SUB SWAP1 SWAP2 AND DUP2 MSTORE PUSH1 0x20 ADD PUSH2 0x1DC JUMP JUMPDEST CALLVALUE DUP1 ISZERO PUSH2 0x3DA JUMPI PUSH0 DUP1 REVERT JUMPDEST POP PUSH2 0x2B0 PUSH2 0x23EF JUMP JUMPDEST CALLVALUE DUP1 ISZERO PUSH2 0x3EE JUMPI PUSH0 DUP1 REVERT JUMPDEST POP PUSH2 0x237 PUSH2 0x3FD CALLDATASIZE PUSH1 0x4 PUSH2 0x3E56 JUMP JUMPDEST PUSH2 0x24C3 JUMP JUMPDEST CALLVALUE DUP1 ISZERO PUSH2 0x40D JUMPI PUSH0 DUP1 REVERT JUMPDEST POP PUSH2 0x28F PUSH2 0x41C CALLDATASIZE PUSH1 0x4 PUSH2 0x426F JUMP JUMPDEST PUSH2 0x2C13 JUMP JUMPDEST CALLVALUE DUP1 ISZERO PUSH2 0x42C JUMPI PUSH0 DUP1 REVERT JUMPDEST POP PUSH2 0x1D2 PUSH2 0x43B CALLDATASIZE PUSH1 0x4 PUSH2 0x41F9 JUMP JUMPDEST PUSH2 0x2DAB JUMP JUMPDEST CALLVALUE DUP1 ISZERO PUSH2 0x44B JUMPI PUSH0 DUP1 REVERT JUMPDEST POP PUSH2 0x315 PUSH2 0x45A CALLDATASIZE PUSH1 0x4 PUSH2 0x4223 JUMP JUMPDEST PUSH2 0x2DC4 JUMP JUMPDEST CALLVALUE DUP1 ISZERO PUSH2 0x46A JUMPI PUSH0 DUP1 REVERT JUMPDEST POP PUSH2 0x2B0 PUSH2 0x479 CALLDATASIZE PUSH1 0x4 PUSH2 0x3D89 JUMP JUMPDEST PUSH2 0x2E27 JUMP JUMPDEST CALLVALUE DUP1 ISZERO PUSH2 0x489 JUMPI PUSH0 DUP1 REVERT JUMPDEST POP PUSH2 0x315 PUSH2 0x498 CALLDATASIZE PUSH1 0x4 PUSH2 0x42E8 JUMP JUMPDEST PUSH1 0x2 PUSH1 0x20 SWAP1 DUP2 MSTORE PUSH0 SWAP4 DUP5 MSTORE PUSH1 0x40 DUP1 DUP6 KECCAK256 DUP3 MSTORE SWAP3 DUP5 MSTORE DUP3 DUP5 KECCAK256 SWAP1 MSTORE DUP3 MSTORE SWAP1 KECCAK256 SLOAD PUSH1 0xFF AND DUP2 JUMP JUMPDEST CALLVALUE DUP1 ISZERO PUSH2 0x4C8 JUMPI PUSH0 DUP1 REVERT JUMPDEST POP PUSH2 0x4DC PUSH2 0x4D7 CALLDATASIZE PUSH1 0x4 PUSH2 0x3D89 JUMP JUMPDEST PUSH2 0x2FD7 JUMP JUMPDEST PUSH1 0x40 MLOAD PUSH2 0x1DC SWAP4 SWAP3 SWAP2 SWAP1 PUSH2 0x431E JUMP JUMPDEST PUSH2 0x28F PUSH2 0x4F9 CALLDATASIZE PUSH1 0x4 PUSH2 0x3D89 JUMP JUMPDEST PUSH2 0x3399 JUMP JUMPDEST CALLVALUE DUP1 ISZERO PUSH2 0x509 JUMPI PUSH0 DUP1 REVERT JUMPDEST POP PUSH2 0x28F PUSH2 0x518 CALLDATASIZE PUSH1 0x4 PUSH2 0x4223 JUMP JUMPDEST PUSH2 0x3506 JUMP JUMPDEST CALLVALUE DUP1 ISZERO PUSH2 0x528 JUMPI PUSH0 DUP1 REVERT JUMPDEST POP PUSH2 0x315 PUSH2 0x537 CALLDATASIZE PUSH1 0x4 PUSH2 0x4391 JUMP JUMPDEST PUSH1 0x1 PUSH1 0x20 SWAP1 DUP2 MSTORE PUSH0 SWAP3 DUP4 MSTORE PUSH1 0x40 DUP1 DUP5 KECCAK256 SWAP1 SWAP2 MSTORE SWAP1 DUP3 MSTORE SWAP1 KECCAK256 SLOAD PUSH1 0xFF AND DUP2 JUMP JUMPDEST CALLVALUE DUP1 ISZERO PUSH2 0x561 JUMPI PUSH0 DUP1 REVERT JUMPDEST POP PUSH2 0x1D2 PUSH1 0x7 SLOAD DUP2 JUMP JUMPDEST CALLVALUE DUP1 ISZERO PUSH2 0x576 JUMPI PUSH0 DUP1 REVERT JUMPDEST POP PUSH2 0x28F PUSH2 0x585 CALLDATASIZE PUSH1 0x4 PUSH2 0x43BF JUMP JUMPDEST PUSH2 0x359B JUMP JUMPDEST CALLVALUE DUP1 ISZERO PUSH2 0x595 JUMPI PUSH0 DUP1 REVERT JUMPDEST POP PUSH2 0x28F PUSH2 0x5A4 CALLDATASIZE PUSH1 0x4 PUSH2 0x441E JUMP JUMPDEST PUSH2 0x36D9 JUMP JUMPDEST CALLVALUE DUP1 ISZERO PUSH2 0x5B4 JUMPI PUSH0 DUP1 REVERT JUMPDEST POP PUSH2 0x4DC PUSH2 0x5C3 CALLDATASIZE PUSH1 0x4 PUSH2 0x40CF JUMP JUMPDEST PUSH2 0x3823 JUMP JUMPDEST DUP2 MLOAD PUSH1 0x20 DUP2 DUP5 ADD DUP2 ADD DUP1 MLOAD PUSH1 0x3 DUP3 MSTORE SWAP3 DUP3 ADD SWAP2 DUP6 ADD SWAP2 SWAP1 SWAP2 KECCAK256 SWAP2 SWAP1 MSTORE DUP1 SLOAD DUP3 SWAP1 DUP2 LT PUSH2 0x5F2 JUMPI PUSH0 DUP1 REVERT JUMPDEST SWAP1 PUSH0 MSTORE PUSH1 0x20 PUSH0 KECCAK256 ADD PUSH0 SWAP2 POP SWAP2 POP POP SLOAD DUP2 JUMP JUMPDEST PUSH0 PUSH1 0x20 DUP2 SWAP1 MSTORE SWAP1 DUP2 MSTORE PUSH1 0x40 SWAP1 KECCAK256 DUP1 SLOAD PUSH1 0x1 DUP3 ADD SLOAD PUSH1 0x2 DUP4 ADD DUP1 SLOAD PUSH1 0x1 PUSH1 0x1 PUSH1 0xA0 SHL SUB SWAP1 SWAP4 AND SWAP4 SWAP2 SWAP3 PUSH2 0x635 SWAP1 PUSH2 0x446A JUMP JUMPDEST DUP1 PUSH1 0x1F ADD PUSH1 0x20 DUP1 SWAP2 DIV MUL PUSH1 0x20 ADD PUSH1 0x40 MLOAD SWAP1 DUP2 ADD PUSH1 0x40 MSTORE DUP1 SWAP3 SWAP2 SWAP1 DUP2 DUP2 MSTORE PUSH1 0x20 ADD DUP3 DUP1 SLOAD PUSH2 0x661 SWAP1 PUSH2 0x446A JUMP JUMPDEST DUP1 ISZERO PUSH2 0x6AC JUMPI DUP1 PUSH1 0x1F LT PUSH2 0x683 JUMPI PUSH2 0x100 DUP1 DUP4 SLOAD DIV MUL DUP4 MSTORE SWAP2 PUSH1 0x20 ADD SWAP2 PUSH2 0x6AC JUMP JUMPDEST DUP3 ADD SWAP2 SWAP1 PUSH0 MSTORE PUSH1 0x20 PUSH0 KECCAK256 SWAP1 JUMPDEST DUP2 SLOAD DUP2 MSTORE SWAP1 PUSH1 0x1 ADD SWAP1 PUSH1 0x20 ADD DUP1 DUP4 GT PUSH2 0x68F JUMPI DUP3 SWAP1 SUB PUSH1 0x1F AND DUP3 ADD SWAP2 JUMPDEST POP POP POP POP POP SWAP1 DUP1 PUSH1 0x3 ADD DUP1 SLOAD PUSH2 0x6C1 SWAP1 PUSH2 0x446A JUMP JUMPDEST DUP1 PUSH1 0x1F ADD PUSH1 0x20 DUP1 SWAP2 DIV MUL PUSH1 0x20 ADD PUSH1 0x40 MLOAD SWAP1 DUP2 ADD PUSH1 0x40 MSTORE DUP1 SWAP3 SWAP2 SWAP1 DUP2 DUP2 MSTORE PUSH1 0x20 ADD DUP3 DUP1 SLOAD PUSH2 0x6ED SWAP1 PUSH2 0x446A JUMP JUMPDEST DUP1 ISZERO PUSH2 0x738 JUMPI DUP1 PUSH1 0x1F LT PUSH2 0x70F JUMPI PUSH2 0x100 DUP1 DUP4 SLOAD DIV MUL DUP4 MSTORE SWAP2 PUSH1 0x20 ADD SWAP2 PUSH2 0x738 JUMP JUMPDEST DUP3 ADD SWAP2 SWAP1 PUSH0 MSTORE PUSH1 0x20 PUSH0 KECCAK256 SWAP1 JUMPDEST DUP2 SLOAD DUP2 MSTORE SWAP1 PUSH1 0x1 ADD SWAP1 PUSH1 0x20 ADD DUP1 DUP4 GT PUSH2 0x71B JUMPI DUP3 SWAP1 SUB PUSH1 0x1F AND DUP3 ADD SWAP2 JUMPDEST POP POP POP POP POP SWAP1 DUP1 PUSH1 0x4 ADD DUP1 SLOAD PUSH2 0x74D SWAP1 PUSH2 0x446A JUMP JUMPDEST DUP1 PUSH1 0x1F ADD PUSH1 0x20 DUP1 SWAP2 DIV MUL PUSH1 0x20 ADD PUSH1 0x40 MLOAD SWAP1 DUP2 ADD PUSH1 0x40 MSTORE DUP1 SWAP3 SWAP2 SWAP1 DUP2 DUP2 MSTORE PUSH1 0x20 ADD DUP3 DUP1 SLOAD PUSH2 0x779 SWAP1 PUSH2 0x446A JUMP JUMPDEST DUP1 ISZERO PUSH2 0x7C4 JUMPI DUP1 PUSH1 0x1F LT PUSH2 0x79B JUMPI PUSH2 0x100 DUP1 DUP4 SLOAD DIV MUL DUP4 MSTORE SWAP2 PUSH1 0x20 ADD SWAP2 PUSH2 0x7C4 JUMP JUMPDEST DUP3 ADD SWAP2 SWAP1 PUSH0 MSTORE PUSH1 0x20 PUSH0 KECCAK256 SWAP1 JUMPDEST DUP2 SLOAD DUP2 MSTORE SWAP1 PUSH1 0x1 ADD SWAP1 PUSH1 0x20 ADD DUP1 DUP4 GT PUSH2 0x7A7 JUMPI DUP3 SWAP1 SUB PUSH1 0x1F AND DUP3 ADD SWAP2 JUMPDEST POP POP POP POP POP SWAP1 DUP1 PUSH1 0x5 ADD SLOAD SWAP1 DUP1 PUSH1 0x6 ADD SLOAD SWAP1 DUP1 PUSH1 0x7 ADD SLOAD SWAP1 POP DUP9 JUMP JUMPDEST PUSH1 0x1 PUSH1 0x1 PUSH1 0xA0 SHL SUB DUP2 AND PUSH0 SWAP1 DUP2 MSTORE PUSH1 0x5 PUSH1 0x20 SWAP1 DUP2 MSTORE PUSH1 0x40 DUP1 DUP4 KECCAK256 DUP1 SLOAD DUP3 MLOAD DUP2 DUP6 MUL DUP2 ADD DUP6 ADD SWAP1 SWAP4 MSTORE DUP1 DUP4 MSTORE PUSH1 0x60 SWAP5 SWAP4 DUP4 ADD DUP3 DUP3 DUP1 ISZERO PUSH2 0x83C JUMPI PUSH1 0x20 MUL DUP3 ADD SWAP2 SWAP1 PUSH0 MSTORE PUSH1 0x20 PUSH0 KECCAK256 SWAP1 JUMPDEST DUP2 SLOAD DUP2 MSTORE PUSH1 0x20 ADD SWAP1 PUSH1 0x1 ADD SWAP1 DUP1 DUP4 GT PUSH2 0x828 JUMPI JUMPDEST POP POP POP POP POP SWAP1 POP PUSH0 DUP2 MLOAD PUSH8 0xFFFFFFFFFFFFFFFF DUP2 GT ISZERO PUSH2 0x85E JUMPI PUSH2 0x85E PUSH2 0x3C89 JUMP JUMPDEST PUSH1 0x40 MLOAD SWAP1 DUP1 DUP3 MSTORE DUP1 PUSH1 0x20 MUL PUSH1 0x20 ADD DUP3 ADD PUSH1 0x40 MSTORE DUP1 ISZERO PUSH2 0x8FE JUMPI DUP2 PUSH1 0x20 ADD JUMPDEST PUSH2 0x8EB PUSH1 0x40 MLOAD DUP1 PUSH2 0x1A0 ADD PUSH1 0x40 MSTORE DUP1 PUSH0 PUSH1 0x1 PUSH1 0x1 PUSH1 0xA0 SHL SUB AND DUP2 MSTORE PUSH1 0x20 ADD PUSH0 DUP2 MSTORE PUSH1 0x20 ADD PUSH1 0x60 DUP2 MSTORE PUSH1 0x20 ADD PUSH1 0x60 DUP2 MSTORE PUSH1 0x20 ADD PUSH1 0x60 DUP2 MSTORE PUSH1 0x20 ADD PUSH0 DUP2 MSTORE PUSH1 0x20 ADD PUSH0 DUP2 MSTORE PUSH1 0x20 ADD PUSH0 DUP2 MSTORE PUSH1 0x20 ADD PUSH1 0x60 DUP2 MSTORE PUSH1 0x20 ADD PUSH1 0x60 DUP2 MSTORE PUSH1 0x20 ADD PUSH1 0x60 DUP2 MSTORE PUSH1 0x20 ADD PUSH1 0x60 DUP2 MSTORE PUSH1 0x20 ADD PUSH1 0x60 DUP2 MSTORE POP SWAP1 JUMP JUMPDEST DUP2 MSTORE PUSH1 0x20 ADD SWAP1 PUSH1 0x1 SWAP1 SUB SWAP1 DUP2 PUSH2 0x87C JUMPI SWAP1 POP JUMPDEST POP SWAP1 POP PUSH0 JUMPDEST DUP3 MLOAD DUP2 LT ISZERO PUSH2 0xE18 JUMPI PUSH0 DUP1 PUSH0 DUP6 DUP5 DUP2 MLOAD DUP2 LT PUSH2 0x921 JUMPI PUSH2 0x921 PUSH2 0x449C JUMP JUMPDEST PUSH1 0x20 MUL PUSH1 0x20 ADD ADD MLOAD DUP2 MSTORE PUSH1 0x20 ADD SWAP1 DUP2 MSTORE PUSH1 0x20 ADD PUSH0 KECCAK256 SWAP1 POP PUSH1 0x40 MLOAD DUP1 PUSH2 0x1A0 ADD PUSH1 0x40 MSTORE DUP1 DUP3 PUSH0 ADD PUSH0 SWAP1 SLOAD SWAP1 PUSH2 0x100 EXP SWAP1 DIV PUSH1 0x1 PUSH1 0x1 PUSH1 0xA0 SHL SUB AND PUSH1 0x1 PUSH1 0x1 PUSH1 0xA0 SHL SUB AND DUP2 MSTORE PUSH1 0x20 ADD DUP3 PUSH1 0x1 ADD SLOAD DUP2 MSTORE PUSH1 0x20 ADD DUP3 PUSH1 0x2 ADD DUP1 SLOAD PUSH2 0x981 SWAP1 PUSH2 0x446A JUMP JUMPDEST DUP1 PUSH1 0x1F ADD PUSH1 0x20 DUP1 SWAP2 DIV MUL PUSH1 0x20 ADD PUSH1 0x40 MLOAD SWAP1 DUP2 ADD PUSH1 0x40 MSTORE DUP1 SWAP3 SWAP2 SWAP1 DUP2 DUP2 MSTORE PUSH1 0x20 ADD DUP3 DUP1 SLOAD PUSH2 0x9AD SWAP1 PUSH2 0x446A JUMP JUMPDEST DUP1 ISZERO PUSH2 0x9F8 JUMPI DUP1 PUSH1 0x1F LT PUSH2 0x9CF JUMPI PUSH2 0x100 DUP1 DUP4 SLOAD DIV MUL DUP4 MSTORE SWAP2 PUSH1 0x20 ADD SWAP2 PUSH2 0x9F8 JUMP JUMPDEST DUP3 ADD SWAP2 SWAP1 PUSH0 MSTORE PUSH1 0x20 PUSH0 KECCAK256 SWAP1 JUMPDEST DUP2 SLOAD DUP2 MSTORE SWAP1 PUSH1 0x1 ADD SWAP1 PUSH1 0x20 ADD DUP1 DUP4 GT PUSH2 0x9DB JUMPI DUP3 SWAP1 SUB PUSH1 0x1F AND DUP3 ADD SWAP2 JUMPDEST POP POP POP POP POP DUP2 MSTORE PUSH1 0x20 ADD DUP3 PUSH1 0x3 ADD DUP1 SLOAD PUSH2 0xA11 SWAP1 PUSH2 0x446A JUMP JUMPDEST DUP1 PUSH1 0x1F ADD PUSH1 0x20 DUP1 SWAP2 DIV MUL PUSH1 0x20 ADD PUSH1 0x40 MLOAD SWAP1 DUP2 ADD PUSH1 0x40 MSTORE DUP1 SWAP3 SWAP2 SWAP1 DUP2 DUP2 MSTORE PUSH1 0x20 ADD DUP3 DUP1 SLOAD PUSH2 0xA3D SWAP1 PUSH2 0x446A JUMP JUMPDEST DUP1 ISZERO PUSH2 0xA88 JUMPI DUP1 PUSH1 0x1F LT PUSH2 0xA5F JUMPI PUSH2 0x100 DUP1 DUP4 SLOAD DIV MUL DUP4 MSTORE SWAP2 PUSH1 0x20 ADD SWAP2 PUSH2 0xA88 JUMP JUMPDEST DUP3 ADD SWAP2 SWAP1 PUSH0 MSTORE PUSH1 0x20 PUSH0 KECCAK256 SWAP1 JUMPDEST DUP2 SLOAD DUP2 MSTORE SWAP1 PUSH1 0x1 ADD SWAP1 PUSH1 0x20 ADD DUP1 DUP4 GT PUSH2 0xA6B JUMPI DUP3 SWAP1 SUB PUSH1 0x1F AND DUP3 ADD SWAP2 JUMPDEST POP POP POP POP POP DUP2 MSTORE PUSH1 0x20 ADD DUP3 PUSH1 0x4 ADD DUP1 SLOAD PUSH2 0xAA1 SWAP1 PUSH2 0x446A JUMP JUMPDEST DUP1 PUSH1 0x1F ADD PUSH1 0x20 DUP1 SWAP2 DIV MUL PUSH1 0x20 ADD PUSH1 0x40 MLOAD SWAP1 DUP2 ADD PUSH1 0x40 MSTORE DUP1 SWAP3 SWAP2 SWAP1 DUP2 DUP2 MSTORE PUSH1 0x20 ADD DUP3 DUP1 SLOAD PUSH2 0xACD SWAP1 PUSH2 0x446A JUMP JUMPDEST DUP1 ISZERO PUSH2 0xB18 JUMPI DUP1 PUSH1 0x1F LT PUSH2 0xAEF JUMPI PUSH2 0x100 DUP1 DUP4 SLOAD DIV MUL DUP4 MSTORE SWAP2 PUSH1 0x20 ADD SWAP2 PUSH2 0xB18 JUMP JUMPDEST DUP3 ADD SWAP2 SWAP1 PUSH0 MSTORE PUSH1 0x20 PUSH0 KECCAK256 SWAP1 JUMPDEST DUP2 SLOAD DUP2 MSTORE SWAP1 PUSH1 0x1 ADD SWAP1 PUSH1 0x20 ADD DUP1 DUP4 GT PUSH2 0xAFB JUMPI DUP3 SWAP1 SUB PUSH1 0x1F AND DUP3 ADD SWAP2 JUMPDEST POP POP POP POP POP DUP2 MSTORE PUSH1 0x20 ADD DUP3 PUSH1 0x5 ADD SLOAD DUP2 MSTORE PUSH1 0x20 ADD DUP3 PUSH1 0x6 ADD SLOAD DUP2 MSTORE PUSH1 0x20 ADD DUP3 PUSH1 0x7 ADD SLOAD DUP2 MSTORE PUSH1 0x20 ADD DUP3 PUSH1 0x8 ADD DUP1 SLOAD DUP1 PUSH1 0x20 MUL PUSH1 0x20 ADD PUSH1 0x40 MLOAD SWAP1 DUP2 ADD PUSH1 0x40 MSTORE DUP1 SWAP3 SWAP2 SWAP1 DUP2 DUP2 MSTORE PUSH1 0x20 ADD DUP3 DUP1 SLOAD DUP1 ISZERO PUSH2 0xB96 JUMPI PUSH1 0x20 MUL DUP3 ADD SWAP2 SWAP1 PUSH0 MSTORE PUSH1 0x20 PUSH0 KECCAK256 SWAP1 JUMPDEST DUP2 SLOAD PUSH1 0x1 PUSH1 0x1 PUSH1 0xA0 SHL SUB AND DUP2 MSTORE PUSH1 0x1 SWAP1 SWAP2 ADD SWAP1 PUSH1 0x20 ADD DUP1 DUP4 GT PUSH2 0xB78 JUMPI JUMPDEST POP POP POP POP POP DUP2 MSTORE PUSH1 0x20 ADD DUP3 PUSH1 0x9 ADD DUP1 SLOAD DUP1 PUSH1 0x20 MUL PUSH1 0x20 ADD PUSH1 0x40 MLOAD SWAP1 DUP2 ADD PUSH1 0x40 MSTORE DUP1 SWAP3 SWAP2 SWAP1 DUP2 DUP2 MSTORE PUSH1 0x20 ADD PUSH0 SWAP1 JUMPDEST DUP3 DUP3 LT ISZERO PUSH2 0xC6B JUMPI DUP4 DUP3 SWAP1 PUSH0 MSTORE PUSH1 0x20 PUSH0 KECCAK256 ADD DUP1 SLOAD PUSH2 0xBE0 SWAP1 PUSH2 0x446A JUMP JUMPDEST DUP1 PUSH1 0x1F ADD PUSH1 0x20 DUP1 SWAP2 DIV MUL PUSH1 0x20 ADD PUSH1 0x40 MLOAD SWAP1 DUP2 ADD PUSH1 0x40 MSTORE DUP1 SWAP3 SWAP2 SWAP1 DUP2 DUP2 MSTORE PUSH1 0x20 ADD DUP3 DUP1 SLOAD PUSH2 0xC0C SWAP1 PUSH2 0x446A JUMP JUMPDEST DUP1 ISZERO PUSH2 0xC57 JUMPI DUP1 PUSH1 0x1F LT PUSH2 0xC2E JUMPI PUSH2 0x100 DUP1 DUP4 SLOAD DIV MUL DUP4 MSTORE SWAP2 PUSH1 0x20 ADD SWAP2 PUSH2 0xC57 JUMP JUMPDEST DUP3 ADD SWAP2 SWAP1 PUSH0 MSTORE PUSH1 0x20 PUSH0 KECCAK256 SWAP1 JUMPDEST DUP2 SLOAD DUP2 MSTORE SWAP1 PUSH1 0x1 ADD SWAP1 PUSH1 0x20 ADD DUP1 DUP4 GT PUSH2 0xC3A JUMPI DUP3 SWAP1 SUB PUSH1 0x1F AND DUP3 ADD SWAP2 JUMPDEST POP POP POP POP POP DUP2 MSTORE PUSH1 0x20 ADD SWAP1 PUSH1 0x1 ADD SWAP1 PUSH2 0xBC3 JUMP JUMPDEST POP POP POP POP DUP2 MSTORE PUSH1 0x20 ADD DUP3 PUSH1 0xA ADD DUP1 SLOAD DUP1 PUSH1 0x20 MUL PUSH1 0x20 ADD PUSH1 0x40 MLOAD SWAP1 DUP2 ADD PUSH1 0x40 MSTORE DUP1 SWAP3 SWAP2 SWAP1 DUP2 DUP2 MSTORE PUSH1 0x20 ADD DUP3 DUP1 SLOAD DUP1 ISZERO PUSH2 0xCC0 JUMPI PUSH1 0x20 MUL DUP3 ADD SWAP2 SWAP1 PUSH0 MSTORE PUSH1 0x20 PUSH0 KECCAK256 SWAP1 JUMPDEST DUP2 SLOAD DUP2 MSTORE PUSH1 0x20 ADD SWAP1 PUSH1 0x1 ADD SWAP1 DUP1 DUP4 GT PUSH2 0xCAC JUMPI JUMPDEST POP POP POP POP POP DUP2 MSTORE PUSH1 0x20 ADD DUP3 PUSH1 0xB ADD DUP1 SLOAD DUP1 PUSH1 0x20 MUL PUSH1 0x20 ADD PUSH1 0x40 MLOAD SWAP1 DUP2 ADD PUSH1 0x40 MSTORE DUP1 SWAP3 SWAP2 SWAP1 DUP2 DUP2 MSTORE PUSH1 0x20 ADD PUSH0 SWAP1 JUMPDEST DUP3 DUP3 LT ISZERO PUSH2 0xD95 JUMPI DUP4 DUP3 SWAP1 PUSH0 MSTORE PUSH1 0x20 PUSH0 KECCAK256 ADD DUP1 SLOAD PUSH2 0xD0A SWAP1 PUSH2 0x446A JUMP JUMPDEST DUP1 PUSH1 0x1F ADD PUSH1 0x20 DUP1 SWAP2 DIV MUL PUSH1 0x20 ADD PUSH1 0x40 MLOAD SWAP1 DUP2 ADD PUSH1 0x40 MSTORE DUP1 SWAP3 SWAP2 SWAP1 DUP2 DUP2 MSTORE PUSH1 0x20 ADD DUP3 DUP1 SLOAD PUSH2 0xD36 SWAP1 PUSH2 0x446A JUMP JUMPDEST DUP1 ISZERO PUSH2 0xD81 JUMPI DUP1 PUSH1 0x1F LT PUSH2 0xD58 JUMPI PUSH2 0x100 DUP1 DUP4 SLOAD DIV MUL DUP4 MSTORE SWAP2 PUSH1 0x20 ADD SWAP2 PUSH2 0xD81 JUMP JUMPDEST DUP3 ADD SWAP2 SWAP1 PUSH0 MSTORE PUSH1 0x20 PUSH0 KECCAK256 SWAP1 JUMPDEST DUP2 SLOAD DUP2 MSTORE SWAP1 PUSH1 0x1 ADD SWAP1 PUSH1 0x20 ADD DUP1 DUP4 GT PUSH2 0xD64 JUMPI DUP3 SWAP1 SUB PUSH1 0x1F AND DUP3 ADD SWAP2 JUMPDEST POP POP POP POP POP DUP2 MSTORE PUSH1 0x20 ADD SWAP1 PUSH1 0x1 ADD SWAP1 PUSH2 0xCED JUMP JUMPDEST POP POP POP POP DUP2 MSTORE PUSH1 0x20 ADD DUP3 PUSH1 0xC ADD DUP1 SLOAD DUP1 PUSH1 0x20 MUL PUSH1 0x20 ADD PUSH1 0x40 MLOAD SWAP1 DUP2 ADD PUSH1 0x40 MSTORE DUP1 SWAP3 SWAP2 SWAP1 DUP2 DUP2 MSTORE PUSH1 0x20 ADD DUP3 DUP1 SLOAD DUP1 ISZERO PUSH2 0xDEA JUMPI PUSH1 0x20 MUL DUP3 ADD SWAP2 SWAP1 PUSH0 MSTORE PUSH1 0x20 PUSH0 KECCAK256 SWAP1 JUMPDEST DUP2 SLOAD DUP2 MSTORE PUSH1 0x20 ADD SWAP1 PUSH1 0x1 ADD SWAP1 DUP1 DUP4 GT PUSH2 0xDD6 JUMPI JUMPDEST POP POP POP POP POP DUP2 MSTORE POP DUP4 DUP4 DUP2 MLOAD DUP2 LT PUSH2 0xE04 JUMPI PUSH2 0xE04 PUSH2 0x449C JUMP JUMPDEST PUSH1 0x20 SWAP1 DUP2 MUL SWAP2 SWAP1 SWAP2 ADD ADD MSTORE POP PUSH1 0x1 ADD PUSH2 0x903 JUMP JUMPDEST POP SWAP4 SWAP3 POP POP POP JUMP JUMPDEST PUSH1 0x6 DUP2 DUP2 SLOAD DUP2 LT PUSH2 0xE2F JUMPI PUSH0 DUP1 REVERT JUMPDEST SWAP1 PUSH0 MSTORE PUSH1 0x20 PUSH0 KECCAK256 ADD PUSH0 SWAP2 POP SWAP1 POP DUP1 SLOAD PUSH2 0xE47 SWAP1 PUSH2 0x446A JUMP JUMPDEST DUP1 PUSH1 0x1F ADD PUSH1 0x20 DUP1 SWAP2 DIV MUL PUSH1 0x20 ADD PUSH1 0x40 MLOAD SWAP1 DUP2 ADD PUSH1 0x40 MSTORE DUP1 SWAP3 SWAP2 SWAP1 DUP2 DUP2 MSTORE PUSH1 0x20 ADD DUP3 DUP1 SLOAD PUSH2 0xE73 SWAP1 PUSH2 0x446A JUMP JUMPDEST DUP1 ISZERO PUSH2 0xEBE JUMPI DUP1 PUSH1 0x1F LT PUSH2 0xE95 JUMPI PUSH2 0x100 DUP1 DUP4 SLOAD DIV MUL DUP4 MSTORE SWAP2 PUSH1 0x20 ADD SWAP2 PUSH2 0xEBE JUMP JUMPDEST DUP3 ADD SWAP2 SWAP1 PUSH0 MSTORE PUSH1 0x20 PUSH0 KECCAK256 SWAP1 JUMPDEST DUP2 SLOAD DUP2 MSTORE SWAP1 PUSH1 0x1 ADD SWAP1 PUSH1 0x20 ADD DUP1 DUP4 GT PUSH2 0xEA1 JUMPI DUP3 SWAP1 SUB PUSH1 0x1F AND DUP3 ADD SWAP2 JUMPDEST POP POP POP POP POP DUP2 JUMP JUMPDEST PUSH1 0x7 SLOAD DUP3 LT PUSH2 0xF12 JUMPI PUSH1 0x40 MLOAD PUSH3 0x461BCD PUSH1 0xE5 SHL DUP2 MSTORE PUSH1 0x20 PUSH1 0x4 DUP3 ADD MSTORE PUSH1 0x13 PUSH1 0x24 DUP3 ADD MSTORE PUSH19 0x141BDCDD08191BD95CC81B9BDD08195E1A5CDD PUSH1 0x6A SHL PUSH1 0x44 DUP3 ADD MSTORE PUSH1 0x64 ADD JUMPDEST PUSH1 0x40 MLOAD DUP1 SWAP2 SUB SWAP1 REVERT JUMPDEST PUSH0 DUP3 DUP2 MSTORE PUSH1 0x20 DUP2 SWAP1 MSTORE PUSH1 0x40 SWAP1 KECCAK256 PUSH1 0x8 ADD SLOAD DUP2 LT PUSH2 0xF71 JUMPI PUSH1 0x40 MLOAD PUSH3 0x461BCD PUSH1 0xE5 SHL DUP2 MSTORE PUSH1 0x20 PUSH1 0x4 DUP3 ADD MSTORE PUSH1 0x16 PUSH1 0x24 DUP3 ADD MSTORE PUSH32 0x436F6D6D656E7420646F6573206E6F7420657869737400000000000000000000 PUSH1 0x44 DUP3 ADD MSTORE PUSH1 0x64 ADD PUSH2 0xF09 JUMP JUMPDEST PUSH0 DUP3 DUP2 MSTORE PUSH1 0x2 PUSH1 0x20 SWAP1 DUP2 MSTORE PUSH1 0x40 DUP1 DUP4 KECCAK256 DUP5 DUP5 MSTORE DUP3 MSTORE DUP1 DUP4 KECCAK256 CALLER DUP5 MSTORE SWAP1 SWAP2 MSTORE SWAP1 KECCAK256 SLOAD PUSH1 0xFF AND ISZERO PUSH2 0xFEE JUMPI PUSH1 0x40 MLOAD PUSH3 0x461BCD PUSH1 0xE5 SHL DUP2 MSTORE PUSH1 0x20 PUSH1 0x4 DUP3 ADD MSTORE PUSH1 0x23 PUSH1 0x24 DUP3 ADD MSTORE PUSH32 0x557365722068617320616C7265616479206C696B6564207468697320636F6D6D PUSH1 0x44 DUP3 ADD MSTORE PUSH3 0x195B9D PUSH1 0xEA SHL PUSH1 0x64 DUP3 ADD MSTORE PUSH1 0x84 ADD PUSH2 0xF09 JUMP JUMPDEST PUSH0 DUP3 DUP2 MSTORE PUSH1 0x20 DUP2 SWAP1 MSTORE PUSH1 0x40 SWAP1 KECCAK256 PUSH1 0xC DUP2 ADD DUP1 SLOAD DUP4 SWAP1 DUP2 LT PUSH2 0x1011 JUMPI PUSH2 0x1011 PUSH2 0x449C JUMP JUMPDEST PUSH0 SWAP2 DUP3 MSTORE PUSH1 0x20 DUP3 KECCAK256 ADD DUP1 SLOAD SWAP2 PUSH2 0x1026 DUP4 PUSH2 0x44C4 JUMP JUMPDEST SWAP1 SWAP2 SSTORE POP POP POP PUSH0 SWAP2 DUP3 MSTORE PUSH1 0x2 PUSH1 0x20 SWAP1 DUP2 MSTORE PUSH1 0x40 DUP1 DUP5 KECCAK256 SWAP3 DUP5 MSTORE SWAP2 DUP2 MSTORE DUP2 DUP4 KECCAK256 CALLER DUP5 MSTORE SWAP1 MSTORE SWAP1 KECCAK256 DUP1 SLOAD PUSH1 0xFF NOT AND PUSH1 0x1 OR SWAP1 SSTORE JUMP JUMPDEST PUSH1 0x8 SLOAD DUP2 MLOAD PUSH1 0x60 SWAP2 PUSH1 0x1 PUSH1 0x1 PUSH1 0xA0 SHL SUB AND SWAP1 PUSH0 SWAP1 PUSH8 0xFFFFFFFFFFFFFFFF DUP2 GT ISZERO PUSH2 0x1085 JUMPI PUSH2 0x1085 PUSH2 0x3C89 JUMP JUMPDEST PUSH1 0x40 MLOAD SWAP1 DUP1 DUP3 MSTORE DUP1 PUSH1 0x20 MUL PUSH1 0x20 ADD DUP3 ADD PUSH1 0x40 MSTORE DUP1 ISZERO PUSH2 0x10B8 JUMPI DUP2 PUSH1 0x20 ADD JUMPDEST PUSH1 0x60 DUP2 MSTORE PUSH1 0x20 ADD SWAP1 PUSH1 0x1 SWAP1 SUB SWAP1 DUP2 PUSH2 0x10A3 JUMPI SWAP1 POP JUMPDEST POP SWAP1 POP PUSH0 JUMPDEST DUP5 MLOAD DUP2 LT ISZERO PUSH2 0xE18 JUMPI DUP3 PUSH1 0x1 PUSH1 0x1 PUSH1 0xA0 SHL SUB AND PUSH4 0xFBF31669 DUP7 DUP4 DUP2 MLOAD DUP2 LT PUSH2 0x10E7 JUMPI PUSH2 0x10E7 PUSH2 0x449C JUMP JUMPDEST PUSH1 0x20 MUL PUSH1 0x20 ADD ADD MLOAD PUSH1 0x40 MLOAD DUP3 PUSH4 0xFFFFFFFF AND PUSH1 0xE0 SHL DUP2 MSTORE PUSH1 0x4 ADD PUSH2 0x111A SWAP2 SWAP1 PUSH1 0x1 PUSH1 0x1 PUSH1 0xA0 SHL SUB SWAP2 SWAP1 SWAP2 AND DUP2 MSTORE PUSH1 0x20 ADD SWAP1 JUMP JUMPDEST PUSH0 PUSH1 0x40 MLOAD DUP1 DUP4 SUB DUP2 DUP7 GAS STATICCALL ISZERO DUP1 ISZERO PUSH2 0x1134 JUMPI RETURNDATASIZE PUSH0 DUP1 RETURNDATACOPY RETURNDATASIZE PUSH0 REVERT JUMPDEST POP POP POP POP PUSH1 0x40 MLOAD RETURNDATASIZE PUSH0 DUP3 RETURNDATACOPY PUSH1 0x1F RETURNDATASIZE SWAP1 DUP2 ADD PUSH1 0x1F NOT AND DUP3 ADD PUSH1 0x40 MSTORE PUSH2 0x115B SWAP2 SWAP1 DUP2 ADD SWAP1 PUSH2 0x44DC JUMP JUMPDEST DUP3 DUP3 DUP2 MLOAD DUP2 LT PUSH2 0x116D JUMPI PUSH2 0x116D PUSH2 0x449C JUMP JUMPDEST PUSH1 0x20 SWAP1 DUP2 MUL SWAP2 SWAP1 SWAP2 ADD ADD MSTORE PUSH1 0x1 ADD PUSH2 0x10BD JUMP JUMPDEST PUSH1 0x7 SLOAD DUP2 LT PUSH2 0x11C7 JUMPI PUSH1 0x40 MLOAD PUSH3 0x461BCD PUSH1 0xE5 SHL DUP2 MSTORE PUSH1 0x20 PUSH1 0x4 DUP3 ADD MSTORE PUSH1 0x13 PUSH1 0x24 DUP3 ADD MSTORE PUSH19 0x141BDCDD08191BD95CC81B9BDD08195E1A5CDD PUSH1 0x6A SHL PUSH1 0x44 DUP3 ADD MSTORE PUSH1 0x64 ADD PUSH2 0xF09 JUMP JUMPDEST PUSH0 DUP2 DUP2 MSTORE PUSH1 0x1 PUSH1 0x20 SWAP1 DUP2 MSTORE PUSH1 0x40 DUP1 DUP4 KECCAK256 CALLER DUP5 MSTORE SWAP1 SWAP2 MSTORE SWAP1 KECCAK256 SLOAD PUSH1 0xFF AND ISZERO PUSH2 0x1230 JUMPI PUSH1 0x40 MLOAD PUSH3 0x461BCD PUSH1 0xE5 SHL DUP2 MSTORE PUSH1 0x20 PUSH1 0x4 DUP3 ADD DUP2 SWAP1 MSTORE PUSH1 0x24 DUP3 ADD MSTORE PUSH32 0x557365722068617320616C7265616479206C696B6564207468697320706F7374 PUSH1 0x44 DUP3 ADD MSTORE PUSH1 0x64 ADD PUSH2 0xF09 JUMP JUMPDEST PUSH0 DUP2 DUP2 MSTORE PUSH1 0x20 DUP2 SWAP1 MSTORE PUSH1 0x40 DUP2 KECCAK256 PUSH1 0x6 DUP2 ADD DUP1 SLOAD SWAP2 SWAP3 PUSH2 0x124E DUP4 PUSH2 0x44C4 JUMP JUMPDEST SWAP1 SWAP2 SSTORE POP POP POP PUSH0 SWAP1 DUP2 MSTORE PUSH1 0x1 PUSH1 0x20 DUP2 DUP2 MSTORE PUSH1 0x40 DUP1 DUP5 KECCAK256 CALLER DUP6 MSTORE SWAP1 SWAP2 MSTORE SWAP1 SWAP2 KECCAK256 DUP1 SLOAD PUSH1 0xFF NOT AND SWAP1 SWAP2 OR SWAP1 SSTORE JUMP JUMPDEST PUSH1 0x60 PUSH2 0x1285 CALLER PUSH2 0x7E0 JUMP JUMPDEST SWAP1 POP SWAP1 JUMP JUMPDEST PUSH1 0x60 PUSH0 PUSH1 0x3 DUP4 PUSH1 0x40 MLOAD PUSH2 0x129D SWAP2 SWAP1 PUSH2 0x4551 JUMP JUMPDEST SWAP1 DUP2 MSTORE PUSH1 0x40 DUP1 MLOAD SWAP2 DUP3 SWAP1 SUB PUSH1 0x20 SWAP1 DUP2 ADD DUP4 KECCAK256 DUP1 SLOAD DUP1 DUP4 MUL DUP6 ADD DUP4 ADD SWAP1 SWAP4 MSTORE DUP3 DUP5 MSTORE SWAP2 SWAP1 DUP4 ADD DUP3 DUP3 DUP1 ISZERO PUSH2 0x12ED JUMPI PUSH1 0x20 MUL DUP3 ADD SWAP2 SWAP1 PUSH0 MSTORE PUSH1 0x20 PUSH0 KECCAK256 SWAP1 JUMPDEST DUP2 SLOAD DUP2 MSTORE PUSH1 0x20 ADD SWAP1 PUSH1 0x1 ADD SWAP1 DUP1 DUP4 GT PUSH2 0x12D9 JUMPI JUMPDEST POP POP POP POP POP SWAP1 POP PUSH0 DUP2 MLOAD PUSH8 0xFFFFFFFFFFFFFFFF DUP2 GT ISZERO PUSH2 0x130F JUMPI PUSH2 0x130F PUSH2 0x3C89 JUMP JUMPDEST PUSH1 0x40 MLOAD SWAP1 DUP1 DUP3 MSTORE DUP1 PUSH1 0x20 MUL PUSH1 0x20 ADD DUP3 ADD PUSH1 0x40 MSTORE DUP1 ISZERO PUSH2 0x13AF JUMPI DUP2 PUSH1 0x20 ADD JUMPDEST PUSH2 0x139C PUSH1 0x40 MLOAD DUP1 PUSH2 0x1A0 ADD PUSH1 0x40 MSTORE DUP1 PUSH0 PUSH1 0x1 PUSH1 0x1 PUSH1 0xA0 SHL SUB AND DUP2 MSTORE PUSH1 0x20 ADD PUSH0 DUP2 MSTORE PUSH1 0x20 ADD PUSH1 0x60 DUP2 MSTORE PUSH1 0x20 ADD PUSH1 0x60 DUP2 MSTORE PUSH1 0x20 ADD PUSH1 0x60 DUP2 MSTORE PUSH1 0x20 ADD PUSH0 DUP2 MSTORE PUSH1 0x20 ADD PUSH0 DUP2 MSTORE PUSH1 0x20 ADD PUSH0 DUP2 MSTORE PUSH1 0x20 ADD PUSH1 0x60 DUP2 MSTORE PUSH1 0x20 ADD PUSH1 0x60 DUP2 MSTORE PUSH1 0x20 ADD PUSH1 0x60 DUP2 MSTORE PUSH1 0x20 ADD PUSH1 0x60 DUP2 MSTORE PUSH1 0x20 ADD PUSH1 0x60 DUP2 MSTORE POP SWAP1 JUMP JUMPDEST DUP2 MSTORE PUSH1 0x20 ADD SWAP1 PUSH1 0x1 SWAP1 SUB SWAP1 DUP2 PUSH2 0x132D JUMPI SWAP1 POP JUMPDEST POP SWAP1 POP PUSH0 JUMPDEST DUP3 MLOAD DUP2 LT ISZERO PUSH2 0xE18 JUMPI PUSH0 DUP1 PUSH0 DUP6 DUP5 DUP2 MLOAD DUP2 LT PUSH2 0x13D2 JUMPI PUSH2 0x13D2 PUSH2 0x449C JUMP JUMPDEST PUSH1 0x20 MUL PUSH1 0x20 ADD ADD MLOAD DUP2 MSTORE PUSH1 0x20 ADD SWAP1 DUP2 MSTORE PUSH1 0x20 ADD PUSH0 KECCAK256 SWAP1 POP PUSH1 0x40 MLOAD DUP1 PUSH2 0x1A0 ADD PUSH1 0x40 MSTORE DUP1 DUP3 PUSH0 ADD PUSH0 SWAP1 SLOAD SWAP1 PUSH2 0x100 EXP SWAP1 DIV PUSH1 0x1 PUSH1 0x1 PUSH1 0xA0 SHL SUB AND PUSH1 0x1 PUSH1 0x1 PUSH1 0xA0 SHL SUB AND DUP2 MSTORE PUSH1 0x20 ADD DUP3 PUSH1 0x1 ADD SLOAD DUP2 MSTORE PUSH1 0x20 ADD DUP3 PUSH1 0x2 ADD DUP1 SLOAD PUSH2 0x1432 SWAP1 PUSH2 0x446A JUMP JUMPDEST DUP1 PUSH1 0x1F ADD PUSH1 0x20 DUP1 SWAP2 DIV MUL PUSH1 0x20 ADD PUSH1 0x40 MLOAD SWAP1 DUP2 ADD PUSH1 0x40 MSTORE DUP1 SWAP3 SWAP2 SWAP1 DUP2 DUP2 MSTORE PUSH1 0x20 ADD DUP3 DUP1 SLOAD PUSH2 0x145E SWAP1 PUSH2 0x446A JUMP JUMPDEST DUP1 ISZERO PUSH2 0x14A9 JUMPI DUP1 PUSH1 0x1F LT PUSH2 0x1480 JUMPI PUSH2 0x100 DUP1 DUP4 SLOAD DIV MUL DUP4 MSTORE SWAP2 PUSH1 0x20 ADD SWAP2 PUSH2 0x14A9 JUMP JUMPDEST DUP3 ADD SWAP2 SWAP1 PUSH0 MSTORE PUSH1 0x20 PUSH0 KECCAK256 SWAP1 JUMPDEST DUP2 SLOAD DUP2 MSTORE SWAP1 PUSH1 0x1 ADD SWAP1 PUSH1 0x20 ADD DUP1 DUP4 GT PUSH2 0x148C JUMPI DUP3 SWAP1 SUB PUSH1 0x1F AND DUP3 ADD SWAP2 JUMPDEST POP POP POP POP POP DUP2 MSTORE PUSH1 0x20 ADD DUP3 PUSH1 0x3 ADD DUP1 SLOAD PUSH2 0x14C2 SWAP1 PUSH2 0x446A JUMP JUMPDEST DUP1 PUSH1 0x1F ADD PUSH1 0x20 DUP1 SWAP2 DIV MUL PUSH1 0x20 ADD PUSH1 0x40 MLOAD SWAP1 DUP2 ADD PUSH1 0x40 MSTORE DUP1 SWAP3 SWAP2 SWAP1 DUP2 DUP2 MSTORE PUSH1 0x20 ADD DUP3 DUP1 SLOAD PUSH2 0x14EE SWAP1 PUSH2 0x446A JUMP JUMPDEST DUP1 ISZERO PUSH2 0x1539 JUMPI DUP1 PUSH1 0x1F LT PUSH2 0x1510 JUMPI PUSH2 0x100 DUP1 DUP4 SLOAD DIV MUL DUP4 MSTORE SWAP2 PUSH1 0x20 ADD SWAP2 PUSH2 0x1539 JUMP JUMPDEST DUP3 ADD SWAP2 SWAP1 PUSH0 MSTORE PUSH1 0x20 PUSH0 KECCAK256 SWAP1 JUMPDEST DUP2 SLOAD DUP2 MSTORE SWAP1 PUSH1 0x1 ADD SWAP1 PUSH1 0x20 ADD DUP1 DUP4 GT PUSH2 0x151C JUMPI DUP3 SWAP1 SUB PUSH1 0x1F AND DUP3 ADD SWAP2 JUMPDEST POP POP POP POP POP DUP2 MSTORE PUSH1 0x20 ADD DUP3 PUSH1 0x4 ADD DUP1 SLOAD PUSH2 0x1552 SWAP1 PUSH2 0x446A JUMP JUMPDEST DUP1 PUSH1 0x1F ADD PUSH1 0x20 DUP1 SWAP2 DIV MUL PUSH1 0x20 ADD PUSH1 0x40 MLOAD SWAP1 DUP2 ADD PUSH1 0x40 MSTORE DUP1 SWAP3 SWAP2 SWAP1 DUP2 DUP2 MSTORE PUSH1 0x20 ADD DUP3 DUP1 SLOAD PUSH2 0x157E SWAP1 PUSH2 0x446A JUMP JUMPDEST DUP1 ISZERO PUSH2 0x15C9 JUMPI DUP1 PUSH1 0x1F LT PUSH2 0x15A0 JUMPI PUSH2 0x100 DUP1 DUP4 SLOAD DIV MUL DUP4 MSTORE SWAP2 PUSH1 0x20 ADD SWAP2 PUSH2 0x15C9 JUMP JUMPDEST DUP3 ADD SWAP2 SWAP1 PUSH0 MSTORE PUSH1 0x20 PUSH0 KECCAK256 SWAP1 JUMPDEST DUP2 SLOAD DUP2 MSTORE SWAP1 PUSH1 0x1 ADD SWAP1 PUSH1 0x20 ADD DUP1 DUP4 GT PUSH2 0x15AC JUMPI DUP3 SWAP1 SUB PUSH1 0x1F AND DUP3 ADD SWAP2 JUMPDEST POP POP POP POP POP DUP2 MSTORE PUSH1 0x20 ADD DUP3 PUSH1 0x5 ADD SLOAD DUP2 MSTORE PUSH1 0x20 ADD DUP3 PUSH1 0x6 ADD SLOAD DUP2 MSTORE PUSH1 0x20 ADD DUP3 PUSH1 0x7 ADD SLOAD DUP2 MSTORE PUSH1 0x20 ADD DUP3 PUSH1 0x8 ADD DUP1 SLOAD DUP1 PUSH1 0x20 MUL PUSH1 0x20 ADD PUSH1 0x40 MLOAD SWAP1 DUP2 ADD PUSH1 0x40 MSTORE DUP1 SWAP3 SWAP2 SWAP1 DUP2 DUP2 MSTORE PUSH1 0x20 ADD DUP3 DUP1 SLOAD DUP1 ISZERO PUSH2 0x1647 JUMPI PUSH1 0x20 MUL DUP3 ADD SWAP2 SWAP1 PUSH0 MSTORE PUSH1 0x20 PUSH0 KECCAK256 SWAP1 JUMPDEST DUP2 SLOAD PUSH1 0x1 PUSH1 0x1 PUSH1 0xA0 SHL SUB AND DUP2 MSTORE PUSH1 0x1 SWAP1 SWAP2 ADD SWAP1 PUSH1 0x20 ADD DUP1 DUP4 GT PUSH2 0x1629 JUMPI JUMPDEST POP POP POP POP POP DUP2 MSTORE PUSH1 0x20 ADD DUP3 PUSH1 0x9 ADD DUP1 SLOAD DUP1 PUSH1 0x20 MUL PUSH1 0x20 ADD PUSH1 0x40 MLOAD SWAP1 DUP2 ADD PUSH1 0x40 MSTORE DUP1 SWAP3 SWAP2 SWAP1 DUP2 DUP2 MSTORE PUSH1 0x20 ADD PUSH0 SWAP1 JUMPDEST DUP3 DUP3 LT ISZERO PUSH2 0x171C JUMPI DUP4 DUP3 SWAP1 PUSH0 MSTORE PUSH1 0x20 PUSH0 KECCAK256 ADD DUP1 SLOAD PUSH2 0x1691 SWAP1 PUSH2 0x446A JUMP JUMPDEST DUP1 PUSH1 0x1F ADD PUSH1 0x20 DUP1 SWAP2 DIV MUL PUSH1 0x20 ADD PUSH1 0x40 MLOAD SWAP1 DUP2 ADD PUSH1 0x40 MSTORE DUP1 SWAP3 SWAP2 SWAP1 DUP2 DUP2 MSTORE PUSH1 0x20 ADD DUP3 DUP1 SLOAD PUSH2 0x16BD SWAP1 PUSH2 0x446A JUMP JUMPDEST DUP1 ISZERO PUSH2 0x1708 JUMPI DUP1 PUSH1 0x1F LT PUSH2 0x16DF JUMPI PUSH2 0x100 DUP1 DUP4 SLOAD DIV MUL DUP4 MSTORE SWAP2 PUSH1 0x20 ADD SWAP2 PUSH2 0x1708 JUMP JUMPDEST DUP3 ADD SWAP2 SWAP1 PUSH0 MSTORE PUSH1 0x20 PUSH0 KECCAK256 SWAP1 JUMPDEST DUP2 SLOAD DUP2 MSTORE SWAP1 PUSH1 0x1 ADD SWAP1 PUSH1 0x20 ADD DUP1 DUP4 GT PUSH2 0x16EB JUMPI DUP3 SWAP1 SUB PUSH1 0x1F AND DUP3 ADD SWAP2 JUMPDEST POP POP POP POP POP DUP2 MSTORE PUSH1 0x20 ADD SWAP1 PUSH1 0x1 ADD SWAP1 PUSH2 0x1674 JUMP JUMPDEST POP POP POP POP DUP2 MSTORE PUSH1 0x20 ADD DUP3 PUSH1 0xA ADD DUP1 SLOAD DUP1 PUSH1 0x20 MUL PUSH1 0x20 ADD PUSH1 0x40 MLOAD SWAP1 DUP2 ADD PUSH1 0x40 MSTORE DUP1 SWAP3 SWAP2 SWAP1 DUP2 DUP2 MSTORE PUSH1 0x20 ADD DUP3 DUP1 SLOAD DUP1 ISZERO PUSH2 0x1771 JUMPI PUSH1 0x20 MUL DUP3 ADD SWAP2 SWAP1 PUSH0 MSTORE PUSH1 0x20 PUSH0 KECCAK256 SWAP1 JUMPDEST DUP2 SLOAD DUP2 MSTORE PUSH1 0x20 ADD SWAP1 PUSH1 0x1 ADD SWAP1 DUP1 DUP4 GT PUSH2 0x175D JUMPI JUMPDEST POP POP POP POP POP DUP2 MSTORE PUSH1 0x20 ADD DUP3 PUSH1 0xB ADD DUP1 SLOAD DUP1 PUSH1 0x20 MUL PUSH1 0x20 ADD PUSH1 0x40 MLOAD SWAP1 DUP2 ADD PUSH1 0x40 MSTORE DUP1 SWAP3 SWAP2 SWAP1 DUP2 DUP2 MSTORE PUSH1 0x20 ADD PUSH0 SWAP1 JUMPDEST DUP3 DUP3 LT ISZERO PUSH2 0x1846 JUMPI DUP4 DUP3 SWAP1 PUSH0 MSTORE PUSH1 0x20 PUSH0 KECCAK256 ADD DUP1 SLOAD PUSH2 0x17BB SWAP1 PUSH2 0x446A JUMP JUMPDEST DUP1 PUSH1 0x1F ADD PUSH1 0x20 DUP1 SWAP2 DIV MUL PUSH1 0x20 ADD PUSH1 0x40 MLOAD SWAP1 DUP2 ADD PUSH1 0x40 MSTORE DUP1 SWAP3 SWAP2 SWAP1 DUP2 DUP2 MSTORE PUSH1 0x20 ADD DUP3 DUP1 SLOAD PUSH2 0x17E7 SWAP1 PUSH2 0x446A JUMP JUMPDEST DUP1 ISZERO PUSH2 0x1832 JUMPI DUP1 PUSH1 0x1F LT PUSH2 0x1809 JUMPI PUSH2 0x100 DUP1 DUP4 SLOAD DIV MUL DUP4 MSTORE SWAP2 PUSH1 0x20 ADD SWAP2 PUSH2 0x1832 JUMP JUMPDEST DUP3 ADD SWAP2 SWAP1 PUSH0 MSTORE PUSH1 0x20 PUSH0 KECCAK256 SWAP1 JUMPDEST DUP2 SLOAD DUP2 MSTORE SWAP1 PUSH1 0x1 ADD SWAP1 PUSH1 0x20 ADD DUP1 DUP4 GT PUSH2 0x1815 JUMPI DUP3 SWAP1 SUB PUSH1 0x1F AND DUP3 ADD SWAP2 JUMPDEST POP POP POP POP POP DUP2 MSTORE PUSH1 0x20 ADD SWAP1 PUSH1 0x1 ADD SWAP1 PUSH2 0x179E JUMP JUMPDEST POP POP POP POP DUP2 MSTORE PUSH1 0x20 ADD DUP3 PUSH1 0xC ADD DUP1 SLOAD DUP1 PUSH1 0x20 MUL PUSH1 0x20 ADD PUSH1 0x40 MLOAD SWAP1 DUP2 ADD PUSH1 0x40 MSTORE DUP1 SWAP3 SWAP2 SWAP1 DUP2 DUP2 MSTORE PUSH1 0x20 ADD DUP3 DUP1 SLOAD DUP1 ISZERO PUSH2 0x189B JUMPI PUSH1 0x20 MUL DUP3 ADD SWAP2 SWAP1 PUSH0 MSTORE PUSH1 0x20 PUSH0 KECCAK256 SWAP1 JUMPDEST DUP2 SLOAD DUP2 MSTORE PUSH1 0x20 ADD SWAP1 PUSH1 0x1 ADD SWAP1 DUP1 DUP4 GT PUSH2 0x1887 JUMPI JUMPDEST POP POP POP POP POP DUP2 MSTORE POP DUP4 DUP4 DUP2 MLOAD DUP2 LT PUSH2 0x18B5 JUMPI PUSH2 0x18B5 PUSH2 0x449C JUMP JUMPDEST PUSH1 0x20 SWAP1 DUP2 MUL SWAP2 SWAP1 SWAP2 ADD ADD MSTORE POP PUSH1 0x1 ADD PUSH2 0x13B4 JUMP JUMPDEST PUSH1 0x60 PUSH0 PUSH1 0x7 SLOAD PUSH8 0xFFFFFFFFFFFFFFFF DUP2 GT ISZERO PUSH2 0x18E7 JUMPI PUSH2 0x18E7 PUSH2 0x3C89 JUMP JUMPDEST PUSH1 0x40 MLOAD SWAP1 DUP1 DUP3 MSTORE DUP1 PUSH1 0x20 MUL PUSH1 0x20 ADD DUP3 ADD PUSH1 0x40 MSTORE DUP1 ISZERO PUSH2 0x1987 JUMPI DUP2 PUSH1 0x20 ADD JUMPDEST PUSH2 0x1974 PUSH1 0x40 MLOAD DUP1 PUSH2 0x1A0 ADD PUSH1 0x40 MSTORE DUP1 PUSH0 PUSH1 0x1 PUSH1 0x1 PUSH1 0xA0 SHL SUB AND DUP2 MSTORE PUSH1 0x20 ADD PUSH0 DUP2 MSTORE PUSH1 0x20 ADD PUSH1 0x60 DUP2 MSTORE PUSH1 0x20 ADD PUSH1 0x60 DUP2 MSTORE PUSH1 0x20 ADD PUSH1 0x60 DUP2 MSTORE PUSH1 0x20 ADD PUSH0 DUP2 MSTORE PUSH1 0x20 ADD PUSH0 DUP2 MSTORE PUSH1 0x20 ADD PUSH0 DUP2 MSTORE PUSH1 0x20 ADD PUSH1 0x60 DUP2 MSTORE PUSH1 0x20 ADD PUSH1 0x60 DUP2 MSTORE PUSH1 0x20 ADD PUSH1 0x60 DUP2 MSTORE PUSH1 0x20 ADD PUSH1 0x60 DUP2 MSTORE PUSH1 0x20 ADD PUSH1 0x60 DUP2 MSTORE POP SWAP1 JUMP JUMPDEST DUP2 MSTORE PUSH1 0x20 ADD SWAP1 PUSH1 0x1 SWAP1 SUB SWAP1 DUP2 PUSH2 0x1905 JUMPI SWAP1 POP JUMPDEST POP SWAP1 POP PUSH0 JUMPDEST PUSH1 0x7 SLOAD DUP2 LT ISZERO PUSH2 0x1E72 JUMPI PUSH0 DUP2 DUP2 MSTORE PUSH1 0x20 DUP2 DUP2 MSTORE PUSH1 0x40 SWAP2 DUP3 SWAP1 KECCAK256 DUP3 MLOAD PUSH2 0x1A0 DUP2 ADD DUP5 MSTORE DUP2 SLOAD PUSH1 0x1 PUSH1 0x1 PUSH1 0xA0 SHL SUB AND DUP2 MSTORE PUSH1 0x1 DUP3 ADD SLOAD SWAP3 DUP2 ADD SWAP3 SWAP1 SWAP3 MSTORE PUSH1 0x2 DUP2 ADD DUP1 SLOAD SWAP2 SWAP4 DUP4 ADD SWAP2 PUSH2 0x19DB SWAP1 PUSH2 0x446A JUMP JUMPDEST DUP1 PUSH1 0x1F ADD PUSH1 0x20 DUP1 SWAP2 DIV MUL PUSH1 0x20 ADD PUSH1 0x40 MLOAD SWAP1 DUP2 ADD PUSH1 0x40 MSTORE DUP1 SWAP3 SWAP2 SWAP1 DUP2 DUP2 MSTORE PUSH1 0x20 ADD DUP3 DUP1 SLOAD PUSH2 0x1A07 SWAP1 PUSH2 0x446A JUMP JUMPDEST DUP1 ISZERO PUSH2 0x1A52 JUMPI DUP1 PUSH1 0x1F LT PUSH2 0x1A29 JUMPI PUSH2 0x100 DUP1 DUP4 SLOAD DIV MUL DUP4 MSTORE SWAP2 PUSH1 0x20 ADD SWAP2 PUSH2 0x1A52 JUMP JUMPDEST DUP3 ADD SWAP2 SWAP1 PUSH0 MSTORE PUSH1 0x20 PUSH0 KECCAK256 SWAP1 JUMPDEST DUP2 SLOAD DUP2 MSTORE SWAP1 PUSH1 0x1 ADD SWAP1 PUSH1 0x20 ADD DUP1 DUP4 GT PUSH2 0x1A35 JUMPI DUP3 SWAP1 SUB PUSH1 0x1F AND DUP3 ADD SWAP2 JUMPDEST POP POP POP POP POP DUP2 MSTORE PUSH1 0x20 ADD DUP3 PUSH1 0x3 ADD DUP1 SLOAD PUSH2 0x1A6B SWAP1 PUSH2 0x446A JUMP JUMPDEST DUP1 PUSH1 0x1F ADD PUSH1 0x20 DUP1 SWAP2 DIV MUL PUSH1 0x20 ADD PUSH1 0x40 MLOAD SWAP1 DUP2 ADD PUSH1 0x40 MSTORE DUP1 SWAP3 SWAP2 SWAP1 DUP2 DUP2 MSTORE PUSH1 0x20 ADD DUP3 DUP1 SLOAD PUSH2 0x1A97 SWAP1 PUSH2 0x446A JUMP JUMPDEST DUP1 ISZERO PUSH2 0x1AE2 JUMPI DUP1 PUSH1 0x1F LT PUSH2 0x1AB9 JUMPI PUSH2 0x100 DUP1 DUP4 SLOAD DIV MUL DUP4 MSTORE SWAP2 PUSH1 0x20 ADD SWAP2 PUSH2 0x1AE2 JUMP JUMPDEST DUP3 ADD SWAP2 SWAP1 PUSH0 MSTORE PUSH1 0x20 PUSH0 KECCAK256 SWAP1 JUMPDEST DUP2 SLOAD DUP2 MSTORE SWAP1 PUSH1 0x1 ADD SWAP1 PUSH1 0x20 ADD DUP1 DUP4 GT PUSH2 0x1AC5 JUMPI DUP3 SWAP1 SUB PUSH1 0x1F AND DUP3 ADD SWAP2 JUMPDEST POP POP POP POP POP DUP2 MSTORE PUSH1 0x20 ADD DUP3 PUSH1 0x4 ADD DUP1 SLOAD PUSH2 0x1AFB SWAP1 PUSH2 0x446A JUMP JUMPDEST DUP1 PUSH1 0x1F ADD PUSH1 0x20 DUP1 SWAP2 DIV MUL PUSH1 0x20 ADD PUSH1 0x40 MLOAD SWAP1 DUP2 ADD PUSH1 0x40 MSTORE DUP1 SWAP3 SWAP2 SWAP1 DUP2 DUP2 MSTORE PUSH1 0x20 ADD DUP3 DUP1 SLOAD PUSH2 0x1B27 SWAP1 PUSH2 0x446A JUMP JUMPDEST DUP1 ISZERO PUSH2 0x1B72 JUMPI DUP1 PUSH1 0x1F LT PUSH2 0x1B49 JUMPI PUSH2 0x100 DUP1 DUP4 SLOAD DIV MUL DUP4 MSTORE SWAP2 PUSH1 0x20 ADD SWAP2 PUSH2 0x1B72 JUMP JUMPDEST DUP3 ADD SWAP2 SWAP1 PUSH0 MSTORE PUSH1 0x20 PUSH0 KECCAK256 SWAP1 JUMPDEST DUP2 SLOAD DUP2 MSTORE SWAP1 PUSH1 0x1 ADD SWAP1 PUSH1 0x20 ADD DUP1 DUP4 GT PUSH2 0x1B55 JUMPI DUP3 SWAP1 SUB PUSH1 0x1F AND DUP3 ADD SWAP2 JUMPDEST POP POP POP POP POP DUP2 MSTORE PUSH1 0x20 ADD DUP3 PUSH1 0x5 ADD SLOAD DUP2 MSTORE PUSH1 0x20 ADD DUP3 PUSH1 0x6 ADD SLOAD DUP2 MSTORE PUSH1 0x20 ADD DUP3 PUSH1 0x7 ADD SLOAD DUP2 MSTORE PUSH1 0x20 ADD DUP3 PUSH1 0x8 ADD DUP1 SLOAD DUP1 PUSH1 0x20 MUL PUSH1 0x20 ADD PUSH1 0x40 MLOAD SWAP1 DUP2 ADD PUSH1 0x40 MSTORE DUP1 SWAP3 SWAP2 SWAP1 DUP2 DUP2 MSTORE PUSH1 0x20 ADD DUP3 DUP1 SLOAD DUP1 ISZERO PUSH2 0x1BF0 JUMPI PUSH1 0x20 MUL DUP3 ADD SWAP2 SWAP1 PUSH0 MSTORE PUSH1 0x20 PUSH0 KECCAK256 SWAP1 JUMPDEST DUP2 SLOAD PUSH1 0x1 PUSH1 0x1 PUSH1 0xA0 SHL SUB AND DUP2 MSTORE PUSH1 0x1 SWAP1 SWAP2 ADD SWAP1 PUSH1 0x20 ADD DUP1 DUP4 GT PUSH2 0x1BD2 JUMPI JUMPDEST POP POP POP POP POP DUP2 MSTORE PUSH1 0x20 ADD DUP3 PUSH1 0x9 ADD DUP1 SLOAD DUP1 PUSH1 0x20 MUL PUSH1 0x20 ADD PUSH1 0x40 MLOAD SWAP1 DUP2 ADD PUSH1 0x40 MSTORE DUP1 SWAP3 SWAP2 SWAP1 DUP2 DUP2 MSTORE PUSH1 0x20 ADD PUSH0 SWAP1 JUMPDEST DUP3 DUP3 LT ISZERO PUSH2 0x1CC5 JUMPI DUP4 DUP3 SWAP1 PUSH0 MSTORE PUSH1 0x20 PUSH0 KECCAK256 ADD DUP1 SLOAD PUSH2 0x1C3A SWAP1 PUSH2 0x446A JUMP JUMPDEST DUP1 PUSH1 0x1F ADD PUSH1 0x20 DUP1 SWAP2 DIV MUL PUSH1 0x20 ADD PUSH1 0x40 MLOAD SWAP1 DUP2 ADD PUSH1 0x40 MSTORE DUP1 SWAP3 SWAP2 SWAP1 DUP2 DUP2 MSTORE PUSH1 0x20 ADD DUP3 DUP1 SLOAD PUSH2 0x1C66 SWAP1 PUSH2 0x446A JUMP JUMPDEST DUP1 ISZERO PUSH2 0x1CB1 JUMPI DUP1 PUSH1 0x1F LT PUSH2 0x1C88 JUMPI PUSH2 0x100 DUP1 DUP4 SLOAD DIV MUL DUP4 MSTORE SWAP2 PUSH1 0x20 ADD SWAP2 PUSH2 0x1CB1 JUMP JUMPDEST DUP3 ADD SWAP2 SWAP1 PUSH0 MSTORE PUSH1 0x20 PUSH0 KECCAK256 SWAP1 JUMPDEST DUP2 SLOAD DUP2 MSTORE SWAP1 PUSH1 0x1 ADD SWAP1 PUSH1 0x20 ADD DUP1 DUP4 GT PUSH2 0x1C94 JUMPI DUP3 SWAP1 SUB PUSH1 0x1F AND DUP3 ADD SWAP2 JUMPDEST POP POP POP POP POP DUP2 MSTORE PUSH1 0x20 ADD SWAP1 PUSH1 0x1 ADD SWAP1 PUSH2 0x1C1D JUMP JUMPDEST POP POP POP POP DUP2 MSTORE PUSH1 0x20 ADD DUP3 PUSH1 0xA ADD DUP1 SLOAD DUP1 PUSH1 0x20 MUL PUSH1 0x20 ADD PUSH1 0x40 MLOAD SWAP1 DUP2 ADD PUSH1 0x40 MSTORE DUP1 SWAP3 SWAP2 SWAP1 DUP2 DUP2 MSTORE PUSH1 0x20 ADD DUP3 DUP1 SLOAD DUP1 ISZERO PUSH2 0x1D1A JUMPI PUSH1 0x20 MUL DUP3 ADD SWAP2 SWAP1 PUSH0 MSTORE PUSH1 0x20 PUSH0 KECCAK256 SWAP1 JUMPDEST DUP2 SLOAD DUP2 MSTORE PUSH1 0x20 ADD SWAP1 PUSH1 0x1 ADD SWAP1 DUP1 DUP4 GT PUSH2 0x1D06 JUMPI JUMPDEST POP POP POP POP POP DUP2 MSTORE PUSH1 0x20 ADD DUP3 PUSH1 0xB ADD DUP1 SLOAD DUP1 PUSH1 0x20 MUL PUSH1 0x20 ADD PUSH1 0x40 MLOAD SWAP1 DUP2 ADD PUSH1 0x40 MSTORE DUP1 SWAP3 SWAP2 SWAP1 DUP2 DUP2 MSTORE PUSH1 0x20 ADD PUSH0 SWAP1 JUMPDEST DUP3 DUP3 LT ISZERO PUSH2 0x1DEF JUMPI DUP4 DUP3 SWAP1 PUSH0 MSTORE PUSH1 0x20 PUSH0 KECCAK256 ADD DUP1 SLOAD PUSH2 0x1D64 SWAP1 PUSH2 0x446A JUMP JUMPDEST DUP1 PUSH1 0x1F ADD PUSH1 0x20 DUP1 SWAP2 DIV MUL PUSH1 0x20 ADD PUSH1 0x40 MLOAD SWAP1 DUP2 ADD PUSH1 0x40 MSTORE DUP1 SWAP3 SWAP2 SWAP1 DUP2 DUP2 MSTORE PUSH1 0x20 ADD DUP3 DUP1 SLOAD PUSH2 0x1D90 SWAP1 PUSH2 0x446A JUMP JUMPDEST DUP1 ISZERO PUSH2 0x1DDB JUMPI DUP1 PUSH1 0x1F LT PUSH2 0x1DB2 JUMPI PUSH2 0x100 DUP1 DUP4 SLOAD DIV MUL DUP4 MSTORE SWAP2 PUSH1 0x20 ADD SWAP2 PUSH2 0x1DDB JUMP JUMPDEST DUP3 ADD SWAP2 SWAP1 PUSH0 MSTORE PUSH1 0x20 PUSH0 KECCAK256 SWAP1 JUMPDEST DUP2 SLOAD DUP2 MSTORE SWAP1 PUSH1 0x1 ADD SWAP1 PUSH1 0x20 ADD DUP1 DUP4 GT PUSH2 0x1DBE JUMPI DUP3 SWAP1 SUB PUSH1 0x1F AND DUP3 ADD SWAP2 JUMPDEST POP POP POP POP POP DUP2 MSTORE PUSH1 0x20 ADD SWAP1 PUSH1 0x1 ADD SWAP1 PUSH2 0x1D47 JUMP JUMPDEST POP POP POP POP DUP2 MSTORE PUSH1 0x20 ADD DUP3 PUSH1 0xC ADD DUP1 SLOAD DUP1 PUSH1 0x20 MUL PUSH1 0x20 ADD PUSH1 0x40 MLOAD SWAP1 DUP2 ADD PUSH1 0x40 MSTORE DUP1 SWAP3 SWAP2 SWAP1 DUP2 DUP2 MSTORE PUSH1 0x20 ADD DUP3 DUP1 SLOAD DUP1 ISZERO PUSH2 0x1E44 JUMPI PUSH1 0x20 MUL DUP3 ADD SWAP2 SWAP1 PUSH0 MSTORE PUSH1 0x20 PUSH0 KECCAK256 SWAP1 JUMPDEST DUP2 SLOAD DUP2 MSTORE PUSH1 0x20 ADD SWAP1 PUSH1 0x1 ADD SWAP1 DUP1 DUP4 GT PUSH2 0x1E30 JUMPI JUMPDEST POP POP POP POP POP DUP2 MSTORE POP DUP4 DUP4 DUP2 MLOAD DUP2 LT PUSH2 0x1E5E JUMPI PUSH2 0x1E5E PUSH2 0x449C JUMP JUMPDEST PUSH1 0x20 SWAP1 DUP2 MUL SWAP2 SWAP1 SWAP2 ADD ADD MSTORE POP PUSH1 0x1 ADD PUSH2 0x198C JUMP JUMPDEST POP SWAP2 SWAP1 POP JUMP JUMPDEST PUSH2 0x1EE7 PUSH1 0x40 MLOAD DUP1 PUSH2 0x1A0 ADD PUSH1 0x40 MSTORE DUP1 PUSH0 PUSH1 0x1 PUSH1 0x1 PUSH1 0xA0 SHL SUB AND DUP2 MSTORE PUSH1 0x20 ADD PUSH0 DUP2 MSTORE PUSH1 0x20 ADD PUSH1 0x60 DUP2 MSTORE PUSH1 0x20 ADD PUSH1 0x60 DUP2 MSTORE PUSH1 0x20 ADD PUSH1 0x60 DUP2 MSTORE PUSH1 0x20 ADD PUSH0 DUP2 MSTORE PUSH1 0x20 ADD PUSH0 DUP2 MSTORE PUSH1 0x20 ADD PUSH0 DUP2 MSTORE PUSH1 0x20 ADD PUSH1 0x60 DUP2 MSTORE PUSH1 0x20 ADD PUSH1 0x60 DUP2 MSTORE PUSH1 0x20 ADD PUSH1 0x60 DUP2 MSTORE PUSH1 0x20 ADD PUSH1 0x60 DUP2 MSTORE PUSH1 0x20 ADD PUSH1 0x60 DUP2 MSTORE POP SWAP1 JUMP JUMPDEST PUSH1 0x7 SLOAD DUP3 LT PUSH2 0x1F2E JUMPI PUSH1 0x40 MLOAD PUSH3 0x461BCD PUSH1 0xE5 SHL DUP2 MSTORE PUSH1 0x20 PUSH1 0x4 DUP3 ADD MSTORE PUSH1 0x13 PUSH1 0x24 DUP3 ADD MSTORE PUSH19 0x141BDCDD08191BD95CC81B9BDD08195E1A5CDD PUSH1 0x6A SHL PUSH1 0x44 DUP3 ADD MSTORE PUSH1 0x64 ADD PUSH2 0xF09 JUMP JUMPDEST PUSH0 DUP3 DUP2 MSTORE PUSH1 0x20 DUP2 DUP2 MSTORE PUSH1 0x40 SWAP2 DUP3 SWAP1 KECCAK256 DUP3 MLOAD PUSH2 0x1A0 DUP2 ADD DUP5 MSTORE DUP2 SLOAD PUSH1 0x1 PUSH1 0x1 PUSH1 0xA0 SHL SUB AND DUP2 MSTORE PUSH1 0x1 DUP3 ADD SLOAD SWAP3 DUP2 ADD SWAP3 SWAP1 SWAP3 MSTORE PUSH1 0x2 DUP2 ADD DUP1 SLOAD SWAP3 SWAP4 SWAP2 SWAP3 SWAP2 DUP5 ADD SWAP2 PUSH2 0x1F76 SWAP1 PUSH2 0x446A JUMP JUMPDEST DUP1 PUSH1 0x1F ADD PUSH1 0x20 DUP1 SWAP2 DIV MUL PUSH1 0x20 ADD PUSH1 0x40 MLOAD SWAP1 DUP2 ADD PUSH1 0x40 MSTORE DUP1 SWAP3 SWAP2 SWAP1 DUP2 DUP2 MSTORE PUSH1 0x20 ADD DUP3 DUP1 SLOAD PUSH2 0x1FA2 SWAP1 PUSH2 0x446A JUMP JUMPDEST DUP1 ISZERO PUSH2 0x1FED JUMPI DUP1 PUSH1 0x1F LT PUSH2 0x1FC4 JUMPI PUSH2 0x100 DUP1 DUP4 SLOAD DIV MUL DUP4 MSTORE SWAP2 PUSH1 0x20 ADD SWAP2 PUSH2 0x1FED JUMP JUMPDEST DUP3 ADD SWAP2 SWAP1 PUSH0 MSTORE PUSH1 0x20 PUSH0 KECCAK256 SWAP1 JUMPDEST DUP2 SLOAD DUP2 MSTORE SWAP1 PUSH1 0x1 ADD SWAP1 PUSH1 0x20 ADD DUP1 DUP4 GT PUSH2 0x1FD0 JUMPI DUP3 SWAP1 SUB PUSH1 0x1F AND DUP3 ADD SWAP2 JUMPDEST POP POP POP POP POP DUP2 MSTORE PUSH1 0x20 ADD PUSH1 0x3 DUP3 ADD DUP1 SLOAD PUSH2 0x2006 SWAP1 PUSH2 0x446A JUMP JUMPDEST DUP1 PUSH1 0x1F ADD PUSH1 0x20 DUP1 SWAP2 DIV MUL PUSH1 0x20 ADD PUSH1 0x40 MLOAD SWAP1 DUP2 ADD PUSH1 0x40 MSTORE DUP1 SWAP3 SWAP2 SWAP1 DUP2 DUP2 MSTORE PUSH1 0x20 ADD DUP3 DUP1 SLOAD PUSH2 0x2032 SWAP1 PUSH2 0x446A JUMP JUMPDEST DUP1 ISZERO PUSH2 0x207D JUMPI DUP1 PUSH1 0x1F LT PUSH2 0x2054 JUMPI PUSH2 0x100 DUP1 DUP4 SLOAD DIV MUL DUP4 MSTORE SWAP2 PUSH1 0x20 ADD SWAP2 PUSH2 0x207D JUMP JUMPDEST DUP3 ADD SWAP2 SWAP1 PUSH0 MSTORE PUSH1 0x20 PUSH0 KECCAK256 SWAP1 JUMPDEST DUP2 SLOAD DUP2 MSTORE SWAP1 PUSH1 0x1 ADD SWAP1 PUSH1 0x20 ADD DUP1 DUP4 GT PUSH2 0x2060 JUMPI DUP3 SWAP1 SUB PUSH1 0x1F AND DUP3 ADD SWAP2 JUMPDEST POP POP POP POP POP DUP2 MSTORE PUSH1 0x20 ADD PUSH1 0x4 DUP3 ADD DUP1 SLOAD PUSH2 0x2096 SWAP1 PUSH2 0x446A JUMP JUMPDEST DUP1 PUSH1 0x1F ADD PUSH1 0x20 DUP1 SWAP2 DIV MUL PUSH1 0x20 ADD PUSH1 0x40 MLOAD SWAP1 DUP2 ADD PUSH1 0x40 MSTORE DUP1 SWAP3 SWAP2 SWAP1 DUP2 DUP2 MSTORE PUSH1 0x20 ADD DUP3 DUP1 SLOAD PUSH2 0x20C2 SWAP1 PUSH2 0x446A JUMP JUMPDEST DUP1 ISZERO PUSH2 0x210D JUMPI DUP1 PUSH1 0x1F LT PUSH2 0x20E4 JUMPI PUSH2 0x100 DUP1 DUP4 SLOAD DIV MUL DUP4 MSTORE SWAP2 PUSH1 0x20 ADD SWAP2 PUSH2 0x210D JUMP JUMPDEST DUP3 ADD SWAP2 SWAP1 PUSH0 MSTORE PUSH1 0x20 PUSH0 KECCAK256 SWAP1 JUMPDEST DUP2 SLOAD DUP2 MSTORE SWAP1 PUSH1 0x1 ADD SWAP1 PUSH1 0x20 ADD DUP1 DUP4 GT PUSH2 0x20F0 JUMPI DUP3 SWAP1 SUB PUSH1 0x1F AND DUP3 ADD SWAP2 JUMPDEST POP POP POP POP POP DUP2 MSTORE PUSH1 0x20 ADD PUSH1 0x5 DUP3 ADD SLOAD DUP2 MSTORE PUSH1 0x20 ADD PUSH1 0x6 DUP3 ADD SLOAD DUP2 MSTORE PUSH1 0x20 ADD PUSH1 0x7 DUP3 ADD SLOAD DUP2 MSTORE PUSH1 0x20 ADD PUSH1 0x8 DUP3 ADD DUP1 SLOAD DUP1 PUSH1 0x20 MUL PUSH1 0x20 ADD PUSH1 0x40 MLOAD SWAP1 DUP2 ADD PUSH1 0x40 MSTORE DUP1 SWAP3 SWAP2 SWAP1 DUP2 DUP2 MSTORE PUSH1 0x20 ADD DUP3 DUP1 SLOAD DUP1 ISZERO PUSH2 0x218B JUMPI PUSH1 0x20 MUL DUP3 ADD SWAP2 SWAP1 PUSH0 MSTORE PUSH1 0x20 PUSH0 KECCAK256 SWAP1 JUMPDEST DUP2 SLOAD PUSH1 0x1 PUSH1 0x1 PUSH1 0xA0 SHL SUB AND DUP2 MSTORE PUSH1 0x1 SWAP1 SWAP2 ADD SWAP1 PUSH1 0x20 ADD DUP1 DUP4 GT PUSH2 0x216D JUMPI JUMPDEST POP POP POP POP POP DUP2 MSTORE PUSH1 0x20 ADD PUSH1 0x9 DUP3 ADD DUP1 SLOAD DUP1 PUSH1 0x20 MUL PUSH1 0x20 ADD PUSH1 0x40 MLOAD SWAP1 DUP2 ADD PUSH1 0x40 MSTORE DUP1 SWAP3 SWAP2 SWAP1 DUP2 DUP2 MSTORE PUSH1 0x20 ADD PUSH0 SWAP1 JUMPDEST DUP3 DUP3 LT ISZERO PUSH2 0x2260 JUMPI DUP4 DUP3 SWAP1 PUSH0 MSTORE PUSH1 0x20 PUSH0 KECCAK256 ADD DUP1 SLOAD PUSH2 0x21D5 SWAP1 PUSH2 0x446A JUMP JUMPDEST DUP1 PUSH1 0x1F ADD PUSH1 0x20 DUP1 SWAP2 DIV MUL PUSH1 0x20 ADD PUSH1 0x40 MLOAD SWAP1 DUP2 ADD PUSH1 0x40 MSTORE DUP1 SWAP3 SWAP2 SWAP1 DUP2 DUP2 MSTORE PUSH1 0x20 ADD DUP3 DUP1 SLOAD PUSH2 0x2201 SWAP1 PUSH2 0x446A JUMP JUMPDEST DUP1 ISZERO PUSH2 0x224C JUMPI DUP1 PUSH1 0x1F LT PUSH2 0x2223 JUMPI PUSH2 0x100 DUP1 DUP4 SLOAD DIV MUL DUP4 MSTORE SWAP2 PUSH1 0x20 ADD SWAP2 PUSH2 0x224C JUMP JUMPDEST DUP3 ADD SWAP2 SWAP1 PUSH0 MSTORE PUSH1 0x20 PUSH0 KECCAK256 SWAP1 JUMPDEST DUP2 SLOAD DUP2 MSTORE SWAP1 PUSH1 0x1 ADD SWAP1 PUSH1 0x20 ADD DUP1 DUP4 GT PUSH2 0x222F JUMPI DUP3 SWAP1 SUB PUSH1 0x1F AND DUP3 ADD SWAP2 JUMPDEST POP POP POP POP POP DUP2 MSTORE PUSH1 0x20 ADD SWAP1 PUSH1 0x1 ADD SWAP1 PUSH2 0x21B8 JUMP JUMPDEST POP POP POP POP DUP2 MSTORE PUSH1 0x20 ADD PUSH1 0xA DUP3 ADD DUP1 SLOAD DUP1 PUSH1 0x20 MUL PUSH1 0x20 ADD PUSH1 0x40 MLOAD SWAP1 DUP2 ADD PUSH1 0x40 MSTORE DUP1 SWAP3 SWAP2 SWAP1 DUP2 DUP2 MSTORE PUSH1 0x20 ADD DUP3 DUP1 SLOAD DUP1 ISZERO PUSH2 0x22B5 JUMPI PUSH1 0x20 MUL DUP3 ADD SWAP2 SWAP1 PUSH0 MSTORE PUSH1 0x20 PUSH0 KECCAK256 SWAP1 JUMPDEST DUP2 SLOAD DUP2 MSTORE PUSH1 0x20 ADD SWAP1 PUSH1 0x1 ADD SWAP1 DUP1 DUP4 GT PUSH2 0x22A1 JUMPI JUMPDEST POP POP POP POP POP DUP2 MSTORE PUSH1 0x20 ADD PUSH1 0xB DUP3 ADD DUP1 SLOAD DUP1 PUSH1 0x20 MUL PUSH1 0x20 ADD PUSH1 0x40 MLOAD SWAP1 DUP2 ADD PUSH1 0x40 MSTORE DUP1 SWAP3 SWAP2 SWAP1 DUP2 DUP2 MSTORE PUSH1 0x20 ADD PUSH0 SWAP1 JUMPDEST DUP3 DUP3 LT ISZERO PUSH2 0x238A JUMPI DUP4 DUP3 SWAP1 PUSH0 MSTORE PUSH1 0x20 PUSH0 KECCAK256 ADD DUP1 SLOAD PUSH2 0x22FF SWAP1 PUSH2 0x446A JUMP JUMPDEST DUP1 PUSH1 0x1F ADD PUSH1 0x20 DUP1 SWAP2 DIV MUL PUSH1 0x20 ADD PUSH1 0x40 MLOAD SWAP1 DUP2 ADD PUSH1 0x40 MSTORE DUP1 SWAP3 SWAP2 SWAP1 DUP2 DUP2 MSTORE PUSH1 0x20 ADD DUP3 DUP1 SLOAD PUSH2 0x232B SWAP1 PUSH2 0x446A JUMP JUMPDEST DUP1 ISZERO PUSH2 0x2376 JUMPI DUP1 PUSH1 0x1F LT PUSH2 0x234D JUMPI PUSH2 0x100 DUP1 DUP4 SLOAD DIV MUL DUP4 MSTORE SWAP2 PUSH1 0x20 ADD SWAP2 PUSH2 0x2376 JUMP JUMPDEST DUP3 ADD SWAP2 SWAP1 PUSH0 MSTORE PUSH1 0x20 PUSH0 KECCAK256 SWAP1 JUMPDEST DUP2 SLOAD DUP2 MSTORE SWAP1 PUSH1 0x1 ADD SWAP1 PUSH1 0x20 ADD DUP1 DUP4 GT PUSH2 0x2359 JUMPI DUP3 SWAP1 SUB PUSH1 0x1F AND DUP3 ADD SWAP2 JUMPDEST POP POP POP POP POP DUP2 MSTORE PUSH1 0x20 ADD SWAP1 PUSH1 0x1 ADD SWAP1 PUSH2 0x22E2 JUMP JUMPDEST POP POP POP POP DUP2 MSTORE PUSH1 0x20 ADD PUSH1 0xC DUP3 ADD DUP1 SLOAD DUP1 PUSH1 0x20 MUL PUSH1 0x20 ADD PUSH1 0x40 MLOAD SWAP1 DUP2 ADD PUSH1 0x40 MSTORE DUP1 SWAP3 SWAP2 SWAP1 DUP2 DUP2 MSTORE PUSH1 0x20 ADD DUP3 DUP1 SLOAD DUP1 ISZERO PUSH2 0x23DF JUMPI PUSH1 0x20 MUL DUP3 ADD SWAP2 SWAP1 PUSH0 MSTORE PUSH1 0x20 PUSH0 KECCAK256 SWAP1 JUMPDEST DUP2 SLOAD DUP2 MSTORE PUSH1 0x20 ADD SWAP1 PUSH1 0x1 ADD SWAP1 DUP1 DUP4 GT PUSH2 0x23CB JUMPI JUMPDEST POP POP POP POP POP DUP2 MSTORE POP POP SWAP1 POP SWAP2 SWAP1 POP JUMP JUMPDEST PUSH1 0x60 PUSH1 0x6 DUP1 SLOAD DUP1 PUSH1 0x20 MUL PUSH1 0x20 ADD PUSH1 0x40 MLOAD SWAP1 DUP2 ADD PUSH1 0x40 MSTORE DUP1 SWAP3 SWAP2 SWAP1 DUP2 DUP2 MSTORE PUSH1 0x20 ADD PUSH0 SWAP1 JUMPDEST DUP3 DUP3 LT ISZERO PUSH2 0x24BA JUMPI DUP4 DUP3 SWAP1 PUSH0 MSTORE PUSH1 0x20 PUSH0 KECCAK256 ADD DUP1 SLOAD PUSH2 0x242F SWAP1 PUSH2 0x446A JUMP JUMPDEST DUP1 PUSH1 0x1F ADD PUSH1 0x20 DUP1 SWAP2 DIV MUL PUSH1 0x20 ADD PUSH1 0x40 MLOAD SWAP1 DUP2 ADD PUSH1 0x40 MSTORE DUP1 SWAP3 SWAP2 SWAP1 DUP2 DUP2 MSTORE PUSH1 0x20 ADD DUP3 DUP1 SLOAD PUSH2 0x245B SWAP1 PUSH2 0x446A JUMP JUMPDEST DUP1 ISZERO PUSH2 0x24A6 JUMPI DUP1 PUSH1 0x1F LT PUSH2 0x247D JUMPI PUSH2 0x100 DUP1 DUP4 SLOAD DIV MUL DUP4 MSTORE SWAP2 PUSH1 0x20 ADD SWAP2 PUSH2 0x24A6 JUMP JUMPDEST DUP3 ADD SWAP2 SWAP1 PUSH0 MSTORE PUSH1 0x20 PUSH0 KECCAK256 SWAP1 JUMPDEST DUP2 SLOAD DUP2 MSTORE SWAP1 PUSH1 0x1 ADD SWAP1 PUSH1 0x20 ADD DUP1 DUP4 GT PUSH2 0x2489 JUMPI DUP3 SWAP1 SUB PUSH1 0x1F AND DUP3 ADD SWAP2 JUMPDEST POP POP POP POP POP DUP2 MSTORE PUSH1 0x20 ADD SWAP1 PUSH1 0x1 ADD SWAP1 PUSH2 0x2412 JUMP JUMPDEST POP POP POP POP SWAP1 POP SWAP1 JUMP JUMPDEST PUSH1 0x60 PUSH0 PUSH1 0x7 SLOAD PUSH8 0xFFFFFFFFFFFFFFFF DUP2 GT ISZERO PUSH2 0x24E1 JUMPI PUSH2 0x24E1 PUSH2 0x3C89 JUMP JUMPDEST PUSH1 0x40 MLOAD SWAP1 DUP1 DUP3 MSTORE DUP1 PUSH1 0x20 MUL PUSH1 0x20 ADD DUP3 ADD PUSH1 0x40 MSTORE DUP1 ISZERO PUSH2 0x2581 JUMPI DUP2 PUSH1 0x20 ADD JUMPDEST PUSH2 0x256E PUSH1 0x40 MLOAD DUP1 PUSH2 0x1A0 ADD PUSH1 0x40 MSTORE DUP1 PUSH0 PUSH1 0x1 PUSH1 0x1 PUSH1 0xA0 SHL SUB AND DUP2 MSTORE PUSH1 0x20 ADD PUSH0 DUP2 MSTORE PUSH1 0x20 ADD PUSH1 0x60 DUP2 MSTORE PUSH1 0x20 ADD PUSH1 0x60 DUP2 MSTORE PUSH1 0x20 ADD PUSH1 0x60 DUP2 MSTORE PUSH1 0x20 ADD PUSH0 DUP2 MSTORE PUSH1 0x20 ADD PUSH0 DUP2 MSTORE PUSH1 0x20 ADD PUSH0 DUP2 MSTORE PUSH1 0x20 ADD PUSH1 0x60 DUP2 MSTORE PUSH1 0x20 ADD PUSH1 0x60 DUP2 MSTORE PUSH1 0x20 ADD PUSH1 0x60 DUP2 MSTORE PUSH1 0x20 ADD PUSH1 0x60 DUP2 MSTORE PUSH1 0x20 ADD PUSH1 0x60 DUP2 MSTORE POP SWAP1 JUMP JUMPDEST DUP2 MSTORE PUSH1 0x20 ADD SWAP1 PUSH1 0x1 SWAP1 SUB SWAP1 DUP2 PUSH2 0x24FF JUMPI SWAP1 POP JUMPDEST POP PUSH1 0x8 SLOAD SWAP1 SWAP2 POP PUSH0 SWAP1 PUSH1 0x1 PUSH1 0x1 PUSH1 0xA0 SHL SUB AND DUP2 JUMPDEST PUSH1 0x7 SLOAD DUP2 LT ISZERO PUSH2 0x2B02 JUMPI PUSH0 DUP2 DUP2 MSTORE PUSH1 0x20 DUP2 SWAP1 MSTORE PUSH1 0x40 SWAP1 DUP2 SWAP1 KECCAK256 DUP1 SLOAD SWAP2 MLOAD PUSH4 0x2C25A893 PUSH1 0xE1 SHL DUP2 MSTORE PUSH1 0x1 PUSH1 0x1 PUSH1 0xA0 SHL SUB SWAP3 DUP4 AND PUSH1 0x4 DUP3 ADD MSTORE DUP9 DUP4 AND PUSH1 0x24 DUP3 ADD MSTORE SWAP1 SWAP2 DUP5 AND SWAP1 PUSH4 0x584B5126 SWAP1 PUSH1 0x44 ADD PUSH1 0x20 PUSH1 0x40 MLOAD DUP1 DUP4 SUB DUP2 DUP7 GAS STATICCALL ISZERO DUP1 ISZERO PUSH2 0x25FD JUMPI RETURNDATASIZE PUSH0 DUP1 RETURNDATACOPY RETURNDATASIZE PUSH0 REVERT JUMPDEST POP POP POP POP PUSH1 0x40 MLOAD RETURNDATASIZE PUSH1 0x1F NOT PUSH1 0x1F DUP3 ADD AND DUP3 ADD DUP1 PUSH1 0x40 MSTORE POP DUP2 ADD SWAP1 PUSH2 0x2621 SWAP2 SWAP1 PUSH2 0x4567 JUMP JUMPDEST ISZERO PUSH2 0x2AF9 JUMPI PUSH1 0x40 DUP1 MLOAD PUSH2 0x1A0 DUP2 ADD DUP3 MSTORE DUP3 SLOAD PUSH1 0x1 PUSH1 0x1 PUSH1 0xA0 SHL SUB AND DUP2 MSTORE PUSH1 0x1 DUP4 ADD SLOAD PUSH1 0x20 DUP3 ADD MSTORE PUSH1 0x2 DUP4 ADD DUP1 SLOAD SWAP2 SWAP3 DUP4 ADD SWAP2 PUSH2 0x265C SWAP1 PUSH2 0x446A JUMP JUMPDEST DUP1 PUSH1 0x1F ADD PUSH1 0x20 DUP1 SWAP2 DIV MUL PUSH1 0x20 ADD PUSH1 0x40 MLOAD SWAP1 DUP2 ADD PUSH1 0x40 MSTORE DUP1 SWAP3 SWAP2 SWAP1 DUP2 DUP2 MSTORE PUSH1 0x20 ADD DUP3 DUP1 SLOAD PUSH2 0x2688 SWAP1 PUSH2 0x446A JUMP JUMPDEST DUP1 ISZERO PUSH2 0x26D3 JUMPI DUP1 PUSH1 0x1F LT PUSH2 0x26AA JUMPI PUSH2 0x100 DUP1 DUP4 SLOAD DIV MUL DUP4 MSTORE SWAP2 PUSH1 0x20 ADD SWAP2 PUSH2 0x26D3 JUMP JUMPDEST DUP3 ADD SWAP2 SWAP1 PUSH0 MSTORE PUSH1 0x20 PUSH0 KECCAK256 SWAP1 JUMPDEST DUP2 SLOAD DUP2 MSTORE SWAP1 PUSH1 0x1 ADD SWAP1 PUSH1 0x20 ADD DUP1 DUP4 GT PUSH2 0x26B6 JUMPI DUP3 SWAP1 SUB PUSH1 0x1F AND DUP3 ADD SWAP2 JUMPDEST POP POP POP POP POP DUP2 MSTORE PUSH1 0x20 ADD DUP3 PUSH1 0x3 ADD DUP1 SLOAD PUSH2 0x26EC SWAP1 PUSH2 0x446A JUMP JUMPDEST DUP1 PUSH1 0x1F ADD PUSH1 0x20 DUP1 SWAP2 DIV MUL PUSH1 0x20 ADD PUSH1 0x40 MLOAD SWAP1 DUP2 ADD PUSH1 0x40 MSTORE DUP1 SWAP3 SWAP2 SWAP1 DUP2 DUP2 MSTORE PUSH1 0x20 ADD DUP3 DUP1 SLOAD PUSH2 0x2718 SWAP1 PUSH2 0x446A JUMP JUMPDEST DUP1 ISZERO PUSH2 0x2763 JUMPI DUP1 PUSH1 0x1F LT PUSH2 0x273A JUMPI PUSH2 0x100 DUP1 DUP4 SLOAD DIV MUL DUP4 MSTORE SWAP2 PUSH1 0x20 ADD SWAP2 PUSH2 0x2763 JUMP JUMPDEST DUP3 ADD SWAP2 SWAP1 PUSH0 MSTORE PUSH1 0x20 PUSH0 KECCAK256 SWAP1 JUMPDEST DUP2 SLOAD DUP2 MSTORE SWAP1 PUSH1 0x1 ADD SWAP1 PUSH1 0x20 ADD DUP1 DUP4 GT PUSH2 0x2746 JUMPI DUP3 SWAP1 SUB PUSH1 0x1F AND DUP3 ADD SWAP2 JUMPDEST POP POP POP POP POP DUP2 MSTORE PUSH1 0x20 ADD DUP3 PUSH1 0x4 ADD DUP1 SLOAD PUSH2 0x277C SWAP1 PUSH2 0x446A JUMP JUMPDEST DUP1 PUSH1 0x1F ADD PUSH1 0x20 DUP1 SWAP2 DIV MUL PUSH1 0x20 ADD PUSH1 0x40 MLOAD SWAP1 DUP2 ADD PUSH1 0x40 MSTORE DUP1 SWAP3 SWAP2 SWAP1 DUP2 DUP2 MSTORE PUSH1 0x20 ADD DUP3 DUP1 SLOAD PUSH2 0x27A8 SWAP1 PUSH2 0x446A JUMP JUMPDEST DUP1 ISZERO PUSH2 0x27F3 JUMPI DUP1 PUSH1 0x1F LT PUSH2 0x27CA JUMPI PUSH2 0x100 DUP1 DUP4 SLOAD DIV MUL DUP4 MSTORE SWAP2 PUSH1 0x20 ADD SWAP2 PUSH2 0x27F3 JUMP JUMPDEST DUP3 ADD SWAP2 SWAP1 PUSH0 MSTORE PUSH1 0x20 PUSH0 KECCAK256 SWAP1 JUMPDEST DUP2 SLOAD DUP2 MSTORE SWAP1 PUSH1 0x1 ADD SWAP1 PUSH1 0x20 ADD DUP1 DUP4 GT PUSH2 0x27D6 JUMPI DUP3 SWAP1 SUB PUSH1 0x1F AND DUP3 ADD SWAP2 JUMPDEST POP POP POP POP POP DUP2 MSTORE PUSH1 0x20 ADD DUP3 PUSH1 0x5 ADD SLOAD DUP2 MSTORE PUSH1 0x20 ADD DUP3 PUSH1 0x6 ADD SLOAD DUP2 MSTORE PUSH1 0x20 ADD DUP3 PUSH1 0x7 ADD SLOAD DUP2 MSTORE PUSH1 0x20 ADD DUP3 PUSH1 0x8 ADD DUP1 SLOAD DUP1 PUSH1 0x20 MUL PUSH1 0x20 ADD PUSH1 0x40 MLOAD SWAP1 DUP2 ADD PUSH1 0x40 MSTORE DUP1 SWAP3 SWAP2 SWAP1 DUP2 DUP2 MSTORE PUSH1 0x20 ADD DUP3 DUP1 SLOAD DUP1 ISZERO PUSH2 0x2871 JUMPI PUSH1 0x20 MUL DUP3 ADD SWAP2 SWAP1 PUSH0 MSTORE PUSH1 0x20 PUSH0 KECCAK256 SWAP1 JUMPDEST DUP2 SLOAD PUSH1 0x1 PUSH1 0x1 PUSH1 0xA0 SHL SUB AND DUP2 MSTORE PUSH1 0x1 SWAP1 SWAP2 ADD SWAP1 PUSH1 0x20 ADD DUP1 DUP4 GT PUSH2 0x2853 JUMPI JUMPDEST POP POP POP POP POP DUP2 MSTORE PUSH1 0x20 ADD DUP3 PUSH1 0x9 ADD DUP1 SLOAD DUP1 PUSH1 0x20 MUL PUSH1 0x20 ADD PUSH1 0x40 MLOAD SWAP1 DUP2 ADD PUSH1 0x40 MSTORE DUP1 SWAP3 SWAP2 SWAP1 DUP2 DUP2 MSTORE PUSH1 0x20 ADD PUSH0 SWAP1 JUMPDEST DUP3 DUP3 LT ISZERO PUSH2 0x2946 JUMPI DUP4 DUP3 SWAP1 PUSH0 MSTORE PUSH1 0x20 PUSH0 KECCAK256 ADD DUP1 SLOAD PUSH2 0x28BB SWAP1 PUSH2 0x446A JUMP JUMPDEST DUP1 PUSH1 0x1F ADD PUSH1 0x20 DUP1 SWAP2 DIV MUL PUSH1 0x20 ADD PUSH1 0x40 MLOAD SWAP1 DUP2 ADD PUSH1 0x40 MSTORE DUP1 SWAP3 SWAP2 SWAP1 DUP2 DUP2 MSTORE PUSH1 0x20 ADD DUP3 DUP1 SLOAD PUSH2 0x28E7 SWAP1 PUSH2 0x446A JUMP JUMPDEST DUP1 ISZERO PUSH2 0x2932 JUMPI DUP1 PUSH1 0x1F LT PUSH2 0x2909 JUMPI PUSH2 0x100 DUP1 DUP4 SLOAD DIV MUL DUP4 MSTORE SWAP2 PUSH1 0x20 ADD SWAP2 PUSH2 0x2932 JUMP JUMPDEST DUP3 ADD SWAP2 SWAP1 PUSH0 MSTORE PUSH1 0x20 PUSH0 KECCAK256 SWAP1 JUMPDEST DUP2 SLOAD DUP2 MSTORE SWAP1 PUSH1 0x1 ADD SWAP1 PUSH1 0x20 ADD DUP1 DUP4 GT PUSH2 0x2915 JUMPI DUP3 SWAP1 SUB PUSH1 0x1F AND DUP3 ADD SWAP2 JUMPDEST POP POP POP POP POP DUP2 MSTORE PUSH1 0x20 ADD SWAP1 PUSH1 0x1 ADD SWAP1 PUSH2 0x289E JUMP JUMPDEST POP POP POP POP DUP2 MSTORE PUSH1 0x20 ADD DUP3 PUSH1 0xA ADD DUP1 SLOAD DUP1 PUSH1 0x20 MUL PUSH1 0x20 ADD PUSH1 0x40 MLOAD SWAP1 DUP2 ADD PUSH1 0x40 MSTORE DUP1 SWAP3 SWAP2 SWAP1 DUP2 DUP2 MSTORE PUSH1 0x20 ADD DUP3 DUP1 SLOAD DUP1 ISZERO PUSH2 0x299B JUMPI PUSH1 0x20 MUL DUP3 ADD SWAP2 SWAP1 PUSH0 MSTORE PUSH1 0x20 PUSH0 KECCAK256 SWAP1 JUMPDEST DUP2 SLOAD DUP2 MSTORE PUSH1 0x20 ADD SWAP1 PUSH1 0x1 ADD SWAP1 DUP1 DUP4 GT PUSH2 0x2987 JUMPI JUMPDEST POP POP POP POP POP DUP2 MSTORE PUSH1 0x20 ADD DUP3 PUSH1 0xB ADD DUP1 SLOAD DUP1 PUSH1 0x20 MUL PUSH1 0x20 ADD PUSH1 0x40 MLOAD SWAP1 DUP2 ADD PUSH1 0x40 MSTORE DUP1 SWAP3 SWAP2 SWAP1 DUP2 DUP2 MSTORE PUSH1 0x20 ADD PUSH0 SWAP1 JUMPDEST DUP3 DUP3 LT ISZERO PUSH2 0x2A70 JUMPI DUP4 DUP3 SWAP1 PUSH0 MSTORE PUSH1 0x20 PUSH0 KECCAK256 ADD DUP1 SLOAD PUSH2 0x29E5 SWAP1 PUSH2 0x446A JUMP JUMPDEST DUP1 PUSH1 0x1F ADD PUSH1 0x20 DUP1 SWAP2 DIV MUL PUSH1 0x20 ADD PUSH1 0x40 MLOAD SWAP1 DUP2 ADD PUSH1 0x40 MSTORE DUP1 SWAP3 SWAP2 SWAP1 DUP2 DUP2 MSTORE PUSH1 0x20 ADD DUP3 DUP1 SLOAD PUSH2 0x2A11 SWAP1 PUSH2 0x446A JUMP JUMPDEST DUP1 ISZERO PUSH2 0x2A5C JUMPI DUP1 PUSH1 0x1F LT PUSH2 0x2A33 JUMPI PUSH2 0x100 DUP1 DUP4 SLOAD DIV MUL DUP4 MSTORE SWAP2 PUSH1 0x20 ADD SWAP2 PUSH2 0x2A5C JUMP JUMPDEST DUP3 ADD SWAP2 SWAP1 PUSH0 MSTORE PUSH1 0x20 PUSH0 KECCAK256 SWAP1 JUMPDEST DUP2 SLOAD DUP2 MSTORE SWAP1 PUSH1 0x1 ADD SWAP1 PUSH1 0x20 ADD DUP1 DUP4 GT PUSH2 0x2A3F JUMPI DUP3 SWAP1 SUB PUSH1 0x1F AND DUP3 ADD SWAP2 JUMPDEST POP POP POP POP POP DUP2 MSTORE PUSH1 0x20 ADD SWAP1 PUSH1 0x1 ADD SWAP1 PUSH2 0x29C8 JUMP JUMPDEST POP POP POP POP DUP2 MSTORE PUSH1 0x20 ADD DUP3 PUSH1 0xC ADD DUP1 SLOAD DUP1 PUSH1 0x20 MUL PUSH1 0x20 ADD PUSH1 0x40 MLOAD SWAP1 DUP2 ADD PUSH1 0x40 MSTORE DUP1 SWAP3 SWAP2 SWAP1 DUP2 DUP2 MSTORE PUSH1 0x20 ADD DUP3 DUP1 SLOAD DUP1 ISZERO PUSH2 0x2AC5 JUMPI PUSH1 0x20 MUL DUP3 ADD SWAP2 SWAP1 PUSH0 MSTORE PUSH1 0x20 PUSH0 KECCAK256 SWAP1 JUMPDEST DUP2 SLOAD DUP2 MSTORE PUSH1 0x20 ADD SWAP1 PUSH1 0x1 ADD SWAP1 DUP1 DUP4 GT PUSH2 0x2AB1 JUMPI JUMPDEST POP POP POP POP POP DUP2 MSTORE POP DUP6 DUP6 DUP2 MLOAD DUP2 LT PUSH2 0x2ADF JUMPI PUSH2 0x2ADF PUSH2 0x449C JUMP JUMPDEST PUSH1 0x20 MUL PUSH1 0x20 ADD ADD DUP2 SWAP1 MSTORE POP DUP4 DUP1 PUSH2 0x2AF5 SWAP1 PUSH2 0x44C4 JUMP JUMPDEST SWAP5 POP POP JUMPDEST POP PUSH1 0x1 ADD PUSH2 0x2595 JUMP JUMPDEST POP PUSH0 DUP3 PUSH8 0xFFFFFFFFFFFFFFFF DUP2 GT ISZERO PUSH2 0x2B1D JUMPI PUSH2 0x2B1D PUSH2 0x3C89 JUMP JUMPDEST PUSH1 0x40 MLOAD SWAP1 DUP1 DUP3 MSTORE DUP1 PUSH1 0x20 MUL PUSH1 0x20 ADD DUP3 ADD PUSH1 0x40 MSTORE DUP1 ISZERO PUSH2 0x2BBD JUMPI DUP2 PUSH1 0x20 ADD JUMPDEST PUSH2 0x2BAA PUSH1 0x40 MLOAD DUP1 PUSH2 0x1A0 ADD PUSH1 0x40 MSTORE DUP1 PUSH0 PUSH1 0x1 PUSH1 0x1 PUSH1 0xA0 SHL SUB AND DUP2 MSTORE PUSH1 0x20 ADD PUSH0 DUP2 MSTORE PUSH1 0x20 ADD PUSH1 0x60 DUP2 MSTORE PUSH1 0x20 ADD PUSH1 0x60 DUP2 MSTORE PUSH1 0x20 ADD PUSH1 0x60 DUP2 MSTORE PUSH1 0x20 ADD PUSH0 DUP2 MSTORE PUSH1 0x20 ADD PUSH0 DUP2 MSTORE PUSH1 0x20 ADD PUSH0 DUP2 MSTORE PUSH1 0x20 ADD PUSH1 0x60 DUP2 MSTORE PUSH1 0x20 ADD PUSH1 0x60 DUP2 MSTORE PUSH1 0x20 ADD PUSH1 0x60 DUP2 MSTORE PUSH1 0x20 ADD PUSH1 0x60 DUP2 MSTORE PUSH1 0x20 ADD PUSH1 0x60 DUP2 MSTORE POP SWAP1 JUMP JUMPDEST DUP2 MSTORE PUSH1 0x20 ADD SWAP1 PUSH1 0x1 SWAP1 SUB SWAP1 DUP2 PUSH2 0x2B3B JUMPI SWAP1 POP JUMPDEST POP SWAP1 POP PUSH0 JUMPDEST DUP4 DUP2 LT ISZERO PUSH2 0x2C09 JUMPI DUP5 DUP2 DUP2 MLOAD DUP2 LT PUSH2 0x2BDC JUMPI PUSH2 0x2BDC PUSH2 0x449C JUMP JUMPDEST PUSH1 0x20 MUL PUSH1 0x20 ADD ADD MLOAD DUP3 DUP3 DUP2 MLOAD DUP2 LT PUSH2 0x2BF6 JUMPI PUSH2 0x2BF6 PUSH2 0x449C JUMP JUMPDEST PUSH1 0x20 SWAP1 DUP2 MUL SWAP2 SWAP1 SWAP2 ADD ADD MSTORE PUSH1 0x1 ADD PUSH2 0x2BC2 JUMP JUMPDEST POP SWAP6 SWAP5 POP POP POP POP POP JUMP JUMPDEST CALLER PUSH1 0x1 PUSH1 0x1 PUSH1 0xA0 SHL SUB DUP6 AND EQ PUSH2 0x2C27 JUMPI PUSH0 DUP1 REVERT JUMPDEST PUSH1 0x8 SLOAD PUSH1 0x7 DUP1 SLOAD PUSH0 SWAP1 DUP2 MSTORE PUSH1 0x20 DUP2 SWAP1 MSTORE PUSH1 0x40 SWAP1 DUP2 SWAP1 KECCAK256 DUP1 SLOAD PUSH20 0xFFFFFFFFFFFFFFFFFFFFFFFFFFFFFFFFFFFFFFFF NOT AND PUSH1 0x1 PUSH1 0x1 PUSH1 0xA0 SHL SUB DUP10 DUP2 AND SWAP2 DUP3 OR DUP4 SSTORE SWAP4 SLOAD PUSH1 0x1 DUP4 ADD SSTORE SWAP2 MLOAD PUSH4 0xA4B65D63 PUSH1 0xE0 SHL DUP2 MSTORE PUSH1 0x4 DUP2 ADD SWAP3 SWAP1 SWAP3 MSTORE SWAP2 SWAP1 SWAP3 AND SWAP2 DUP3 SWAP1 PUSH4 0xA4B65D63 SWAP1 PUSH1 0x24 ADD PUSH0 PUSH1 0x40 MLOAD DUP1 DUP4 SUB DUP2 DUP7 GAS STATICCALL ISZERO DUP1 ISZERO PUSH2 0x2CAB JUMPI RETURNDATASIZE PUSH0 DUP1 RETURNDATACOPY RETURNDATASIZE PUSH0 REVERT JUMPDEST POP POP POP POP PUSH1 0x40 MLOAD RETURNDATASIZE PUSH0 DUP3 RETURNDATACOPY PUSH1 0x1F RETURNDATASIZE SWAP1 DUP2 ADD PUSH1 0x1F NOT AND DUP3 ADD PUSH1 0x40 MSTORE PUSH2 0x2CD2 SWAP2 SWAP1 DUP2 ADD SWAP1 PUSH2 0x44DC JUMP JUMPDEST PUSH1 0x2 DUP3 ADD SWAP1 PUSH2 0x2CE1 SWAP1 DUP3 PUSH2 0x45D2 JUMP JUMPDEST POP PUSH1 0x3 DUP2 ADD PUSH2 0x2CF0 DUP7 DUP3 PUSH2 0x45D2 JUMP JUMPDEST POP PUSH1 0x4 DUP2 ADD PUSH2 0x2CFF DUP6 DUP3 PUSH2 0x45D2 JUMP JUMPDEST POP PUSH1 0x5 DUP2 DUP2 ADD DUP5 SWAP1 SSTORE PUSH0 PUSH1 0x6 DUP4 ADD DUP2 SWAP1 SSTORE PUSH1 0x1 PUSH1 0x1 PUSH1 0xA0 SHL SUB DUP9 DUP2 AND DUP1 DUP4 MSTORE PUSH1 0x20 SWAP4 DUP5 MSTORE PUSH1 0x40 DUP1 DUP5 KECCAK256 PUSH1 0x7 SLOAD DUP2 SLOAD PUSH1 0x1 DUP2 ADD DUP4 SSTORE SWAP2 DUP7 MSTORE SWAP6 SWAP1 SWAP5 KECCAK256 SWAP1 SWAP4 ADD SWAP4 SWAP1 SWAP4 SSTORE SWAP1 MLOAD PUSH4 0xF847211F PUSH1 0xE0 SHL DUP2 MSTORE PUSH1 0x4 DUP2 ADD SWAP3 SWAP1 SWAP3 MSTORE DUP4 AND SWAP1 PUSH4 0xF847211F SWAP1 PUSH1 0x24 ADD PUSH0 PUSH1 0x40 MLOAD DUP1 DUP4 SUB DUP2 PUSH0 DUP8 DUP1 EXTCODESIZE ISZERO DUP1 ISZERO PUSH2 0x2D78 JUMPI PUSH0 DUP1 REVERT JUMPDEST POP GAS CALL ISZERO DUP1 ISZERO PUSH2 0x2D8A JUMPI RETURNDATASIZE PUSH0 DUP1 RETURNDATACOPY RETURNDATASIZE PUSH0 REVERT JUMPDEST POP POP PUSH1 0x7 DUP1 SLOAD SWAP3 POP SWAP1 POP PUSH0 PUSH2 0x2D9E DUP4 PUSH2 0x44C4 JUMP JUMPDEST SWAP2 SWAP1 POP SSTORE POP POP POP POP POP POP POP JUMP JUMPDEST PUSH1 0x5 PUSH1 0x20 MSTORE DUP2 PUSH0 MSTORE PUSH1 0x40 PUSH0 KECCAK256 DUP2 DUP2 SLOAD DUP2 LT PUSH2 0x5F2 JUMPI PUSH0 DUP1 REVERT JUMPDEST PUSH0 DUP1 JUMPDEST PUSH1 0x6 SLOAD DUP2 LT ISZERO PUSH2 0x2E1F JUMPI DUP3 DUP1 MLOAD SWAP1 PUSH1 0x20 ADD KECCAK256 PUSH1 0x6 DUP3 DUP2 SLOAD DUP2 LT PUSH2 0x2DEC JUMPI PUSH2 0x2DEC PUSH2 0x449C JUMP JUMPDEST SWAP1 PUSH0 MSTORE PUSH1 0x20 PUSH0 KECCAK256 ADD PUSH1 0x40 MLOAD PUSH2 0x2E01 SWAP2 SWAP1 PUSH2 0x4692 JUMP JUMPDEST PUSH1 0x40 MLOAD DUP1 SWAP2 SUB SWAP1 KECCAK256 SUB PUSH2 0x2E17 JUMPI POP PUSH1 0x1 SWAP3 SWAP2 POP POP JUMP JUMPDEST PUSH1 0x1 ADD PUSH2 0x2DC7 JUMP JUMPDEST POP PUSH0 SWAP3 SWAP2 POP POP JUMP JUMPDEST PUSH1 0x60 PUSH1 0x7 SLOAD DUP3 LT PUSH2 0x2E70 JUMPI PUSH1 0x40 MLOAD PUSH3 0x461BCD PUSH1 0xE5 SHL DUP2 MSTORE PUSH1 0x20 PUSH1 0x4 DUP3 ADD MSTORE PUSH1 0x13 PUSH1 0x24 DUP3 ADD MSTORE PUSH19 0x141BDCDD08191BD95CC81B9BDD08195E1A5CDD PUSH1 0x6A SHL PUSH1 0x44 DUP3 ADD MSTORE PUSH1 0x64 ADD PUSH2 0xF09 JUMP JUMPDEST PUSH0 DUP3 DUP2 MSTORE PUSH1 0x20 DUP2 SWAP1 MSTORE PUSH1 0x40 DUP2 KECCAK256 PUSH1 0x9 ADD SLOAD SWAP1 DUP2 PUSH8 0xFFFFFFFFFFFFFFFF DUP2 GT ISZERO PUSH2 0x2E9B JUMPI PUSH2 0x2E9B PUSH2 0x3C89 JUMP JUMPDEST PUSH1 0x40 MLOAD SWAP1 DUP1 DUP3 MSTORE DUP1 PUSH1 0x20 MUL PUSH1 0x20 ADD DUP3 ADD PUSH1 0x40 MSTORE DUP1 ISZERO PUSH2 0x2ECE JUMPI DUP2 PUSH1 0x20 ADD JUMPDEST PUSH1 0x60 DUP2 MSTORE PUSH1 0x20 ADD SWAP1 PUSH1 0x1 SWAP1 SUB SWAP1 DUP2 PUSH2 0x2EB9 JUMPI SWAP1 POP JUMPDEST POP PUSH1 0x8 SLOAD PUSH0 DUP7 DUP2 MSTORE PUSH1 0x20 DUP2 SWAP1 MSTORE PUSH1 0x40 DUP2 KECCAK256 SWAP3 SWAP4 POP PUSH1 0x1 PUSH1 0x1 PUSH1 0xA0 SHL SUB SWAP1 SWAP2 AND SWAP2 SWAP1 JUMPDEST DUP5 DUP2 LT ISZERO PUSH2 0x2FCC JUMPI DUP3 PUSH1 0x1 PUSH1 0x1 PUSH1 0xA0 SHL SUB AND PUSH4 0xFBF31669 DUP4 PUSH1 0x8 ADD DUP4 DUP2 SLOAD DUP2 LT PUSH2 0x2F1C JUMPI PUSH2 0x2F1C PUSH2 0x449C JUMP JUMPDEST PUSH0 SWAP2 DUP3 MSTORE PUSH1 0x20 SWAP1 SWAP2 KECCAK256 ADD SLOAD PUSH1 0x40 MLOAD PUSH1 0xE0 DUP4 SWAP1 SHL PUSH32 0xFFFFFFFF00000000000000000000000000000000000000000000000000000000 AND DUP2 MSTORE PUSH1 0x1 PUSH1 0x1 PUSH1 0xA0 SHL SUB SWAP1 SWAP2 AND PUSH1 0x4 DUP3 ADD MSTORE PUSH1 0x24 ADD PUSH0 PUSH1 0x40 MLOAD DUP1 DUP4 SUB DUP2 DUP7 GAS STATICCALL ISZERO DUP1 ISZERO PUSH2 0x2F80 JUMPI RETURNDATASIZE PUSH0 DUP1 RETURNDATACOPY RETURNDATASIZE PUSH0 REVERT JUMPDEST POP POP POP POP PUSH1 0x40 MLOAD RETURNDATASIZE PUSH0 DUP3 RETURNDATACOPY PUSH1 0x1F RETURNDATASIZE SWAP1 DUP2 ADD PUSH1 0x1F NOT AND DUP3 ADD PUSH1 0x40 MSTORE PUSH2 0x2FA7 SWAP2 SWAP1 DUP2 ADD SWAP1 PUSH2 0x44DC JUMP JUMPDEST DUP5 DUP3 DUP2 MLOAD DUP2 LT PUSH2 0x2FB9 JUMPI PUSH2 0x2FB9 PUSH2 0x449C JUMP JUMPDEST PUSH1 0x20 SWAP1 DUP2 MUL SWAP2 SWAP1 SWAP2 ADD ADD MSTORE PUSH1 0x1 ADD PUSH2 0x2EF0 JUMP JUMPDEST POP SWAP2 SWAP6 SWAP5 POP POP POP POP POP JUMP JUMPDEST PUSH1 0x60 DUP1 PUSH1 0x60 PUSH1 0x7 SLOAD DUP5 LT PUSH2 0x3023 JUMPI PUSH1 0x40 MLOAD PUSH3 0x461BCD PUSH1 0xE5 SHL DUP2 MSTORE PUSH1 0x20 PUSH1 0x4 DUP3 ADD MSTORE PUSH1 0x13 PUSH1 0x24 DUP3 ADD MSTORE PUSH19 0x141BDCDD08191BD95CC81B9BDD08195E1A5CDD PUSH1 0x6A SHL PUSH1 0x44 DUP3 ADD MSTORE PUSH1 0x64 ADD PUSH2 0xF09 JUMP JUMPDEST PUSH0 DUP5 DUP2 MSTORE PUSH1 0x20 DUP2 SWAP1 MSTORE PUSH1 0x40 DUP2 KECCAK256 PUSH1 0x6 ADD SLOAD SWAP1 DUP2 PUSH8 0xFFFFFFFFFFFFFFFF DUP2 GT ISZERO PUSH2 0x304E JUMPI PUSH2 0x304E PUSH2 0x3C89 JUMP JUMPDEST PUSH1 0x40 MLOAD SWAP1 DUP1 DUP3 MSTORE DUP1 PUSH1 0x20 MUL PUSH1 0x20 ADD DUP3 ADD PUSH1 0x40 MSTORE DUP1 ISZERO PUSH2 0x3081 JUMPI DUP2 PUSH1 0x20 ADD JUMPDEST PUSH1 0x60 DUP2 MSTORE PUSH1 0x20 ADD SWAP1 PUSH1 0x1 SWAP1 SUB SWAP1 DUP2 PUSH2 0x306C JUMPI SWAP1 POP JUMPDEST POP SWAP1 POP PUSH0 DUP3 PUSH8 0xFFFFFFFFFFFFFFFF DUP2 GT ISZERO PUSH2 0x309E JUMPI PUSH2 0x309E PUSH2 0x3C89 JUMP JUMPDEST PUSH1 0x40 MLOAD SWAP1 DUP1 DUP3 MSTORE DUP1 PUSH1 0x20 MUL PUSH1 0x20 ADD DUP3 ADD PUSH1 0x40 MSTORE DUP1 ISZERO PUSH2 0x30D1 JUMPI DUP2 PUSH1 0x20 ADD JUMPDEST PUSH1 0x60 DUP2 MSTORE PUSH1 0x20 ADD SWAP1 PUSH1 0x1 SWAP1 SUB SWAP1 DUP2 PUSH2 0x30BC JUMPI SWAP1 POP JUMPDEST POP SWAP1 POP PUSH0 DUP4 PUSH8 0xFFFFFFFFFFFFFFFF DUP2 GT ISZERO PUSH2 0x30EE JUMPI PUSH2 0x30EE PUSH2 0x3C89 JUMP JUMPDEST PUSH1 0x40 MLOAD SWAP1 DUP1 DUP3 MSTORE DUP1 PUSH1 0x20 MUL PUSH1 0x20 ADD DUP3 ADD PUSH1 0x40 MSTORE DUP1 ISZERO PUSH2 0x3117 JUMPI DUP2 PUSH1 0x20 ADD PUSH1 0x20 DUP3 MUL DUP1 CALLDATASIZE DUP4 CALLDATACOPY ADD SWAP1 POP JUMPDEST POP SWAP1 POP PUSH0 PUSH1 0x8 PUSH0 SWAP1 SLOAD SWAP1 PUSH2 0x100 EXP SWAP1 DIV PUSH1 0x1 PUSH1 0x1 PUSH1 0xA0 SHL SUB AND SWAP1 POP PUSH0 DUP2 PUSH1 0x1 PUSH1 0x1 PUSH1 0xA0 SHL SUB AND PUSH4 0xD28AFC7 PUSH1 0x40 MLOAD DUP2 PUSH4 0xFFFFFFFF AND PUSH1 0xE0 SHL DUP2 MSTORE PUSH1 0x4 ADD PUSH1 0x20 PUSH1 0x40 MLOAD DUP1 DUP4 SUB DUP2 DUP7 GAS STATICCALL ISZERO DUP1 ISZERO PUSH2 0x316F JUMPI RETURNDATASIZE PUSH0 DUP1 RETURNDATACOPY RETURNDATASIZE PUSH0 REVERT JUMPDEST POP POP POP POP PUSH1 0x40 MLOAD RETURNDATASIZE PUSH1 0x1F NOT PUSH1 0x1F DUP3 ADD AND DUP3 ADD DUP1 PUSH1 0x40 MSTORE POP DUP2 ADD SWAP1 PUSH2 0x3193 SWAP2 SWAP1 PUSH2 0x4704 JUMP JUMPDEST SWAP1 POP PUSH0 DUP1 JUMPDEST DUP3 DUP2 LT ISZERO PUSH2 0x3386 JUMPI PUSH1 0x40 MLOAD PUSH4 0x9F1953C3 PUSH1 0xE0 SHL DUP2 MSTORE PUSH1 0x4 DUP2 ADD DUP3 SWAP1 MSTORE PUSH0 SWAP1 PUSH1 0x1 PUSH1 0x1 PUSH1 0xA0 SHL SUB DUP7 AND SWAP1 PUSH4 0x9F1953C3 SWAP1 PUSH1 0x24 ADD PUSH1 0x20 PUSH1 0x40 MLOAD DUP1 DUP4 SUB DUP2 DUP7 GAS STATICCALL ISZERO DUP1 ISZERO PUSH2 0x31E5 JUMPI RETURNDATASIZE PUSH0 DUP1 RETURNDATACOPY RETURNDATASIZE PUSH0 REVERT JUMPDEST POP POP POP POP PUSH1 0x40 MLOAD RETURNDATASIZE PUSH1 0x1F NOT PUSH1 0x1F DUP3 ADD AND DUP3 ADD DUP1 PUSH1 0x40 MSTORE POP DUP2 ADD SWAP1 PUSH2 0x3209 SWAP2 SWAP1 PUSH2 0x471B JUMP JUMPDEST PUSH0 DUP15 DUP2 MSTORE PUSH1 0x1 PUSH1 0x20 SWAP1 DUP2 MSTORE PUSH1 0x40 DUP1 DUP4 KECCAK256 PUSH1 0x1 PUSH1 0x1 PUSH1 0xA0 SHL SUB DUP6 AND DUP5 MSTORE SWAP1 SWAP2 MSTORE SWAP1 KECCAK256 SLOAD SWAP1 SWAP2 POP PUSH1 0xFF AND ISZERO PUSH2 0x337D JUMPI PUSH1 0x40 MLOAD PUSH4 0x742DF7E1 PUSH1 0xE1 SHL DUP2 MSTORE PUSH1 0x1 PUSH1 0x1 PUSH1 0xA0 SHL SUB DUP3 DUP2 AND PUSH1 0x4 DUP4 ADD MSTORE DUP7 AND SWAP1 PUSH4 0xE85BEFC2 SWAP1 PUSH1 0x24 ADD PUSH0 PUSH1 0x40 MLOAD DUP1 DUP4 SUB DUP2 DUP7 GAS STATICCALL ISZERO DUP1 ISZERO PUSH2 0x3279 JUMPI RETURNDATASIZE PUSH0 DUP1 RETURNDATACOPY RETURNDATASIZE PUSH0 REVERT JUMPDEST POP POP POP POP PUSH1 0x40 MLOAD RETURNDATASIZE PUSH0 DUP3 RETURNDATACOPY PUSH1 0x1F RETURNDATASIZE SWAP1 DUP2 ADD PUSH1 0x1F NOT AND DUP3 ADD PUSH1 0x40 MSTORE PUSH2 0x32A0 SWAP2 SWAP1 DUP2 ADD SWAP1 PUSH2 0x44DC JUMP JUMPDEST DUP9 DUP5 DUP2 MLOAD DUP2 LT PUSH2 0x32B2 JUMPI PUSH2 0x32B2 PUSH2 0x449C JUMP JUMPDEST PUSH1 0x20 SWAP1 DUP2 MUL SWAP2 SWAP1 SWAP2 ADD ADD MSTORE PUSH1 0x40 MLOAD PUSH4 0xFBF31669 PUSH1 0xE0 SHL DUP2 MSTORE PUSH1 0x1 PUSH1 0x1 PUSH1 0xA0 SHL SUB DUP3 DUP2 AND PUSH1 0x4 DUP4 ADD MSTORE DUP7 AND SWAP1 PUSH4 0xFBF31669 SWAP1 PUSH1 0x24 ADD PUSH0 PUSH1 0x40 MLOAD DUP1 DUP4 SUB DUP2 DUP7 GAS STATICCALL ISZERO DUP1 ISZERO PUSH2 0x3300 JUMPI RETURNDATASIZE PUSH0 DUP1 RETURNDATACOPY RETURNDATASIZE PUSH0 REVERT JUMPDEST POP POP POP POP PUSH1 0x40 MLOAD RETURNDATASIZE PUSH0 DUP3 RETURNDATACOPY PUSH1 0x1F RETURNDATASIZE SWAP1 DUP2 ADD PUSH1 0x1F NOT AND DUP3 ADD PUSH1 0x40 MSTORE PUSH2 0x3327 SWAP2 SWAP1 DUP2 ADD SWAP1 PUSH2 0x44DC JUMP JUMPDEST DUP8 DUP5 DUP2 MLOAD DUP2 LT PUSH2 0x3339 JUMPI PUSH2 0x3339 PUSH2 0x449C JUMP JUMPDEST PUSH1 0x20 MUL PUSH1 0x20 ADD ADD DUP2 SWAP1 MSTORE POP DUP1 DUP7 DUP5 DUP2 MLOAD DUP2 LT PUSH2 0x3357 JUMPI PUSH2 0x3357 PUSH2 0x449C JUMP JUMPDEST PUSH1 0x1 PUSH1 0x1 PUSH1 0xA0 SHL SUB SWAP1 SWAP3 AND PUSH1 0x20 SWAP3 DUP4 MUL SWAP2 SWAP1 SWAP2 ADD SWAP1 SWAP2 ADD MSTORE DUP3 PUSH2 0x3379 DUP2 PUSH2 0x44C4 JUMP JUMPDEST SWAP4 POP POP JUMPDEST POP PUSH1 0x1 ADD PUSH2 0x3198 JUMP JUMPDEST POP SWAP5 SWAP11 SWAP4 SWAP10 POP SWAP2 SWAP8 POP SWAP2 SWAP6 POP POP POP POP POP POP JUMP JUMPDEST PUSH1 0x7 SLOAD DUP2 LT PUSH2 0x33E0 JUMPI PUSH1 0x40 MLOAD PUSH3 0x461BCD PUSH1 0xE5 SHL DUP2 MSTORE PUSH1 0x20 PUSH1 0x4 DUP3 ADD MSTORE PUSH1 0x13 PUSH1 0x24 DUP3 ADD MSTORE PUSH19 0x141BDCDD08191BD95CC81B9BDD08195E1A5CDD PUSH1 0x6A SHL PUSH1 0x44 DUP3 ADD MSTORE PUSH1 0x64 ADD PUSH2 0xF09 JUMP JUMPDEST PUSH0 CALLVALUE GT PUSH2 0x343A JUMPI PUSH1 0x40 MLOAD PUSH3 0x461BCD PUSH1 0xE5 SHL DUP2 MSTORE PUSH1 0x20 PUSH1 0x4 DUP3 ADD MSTORE PUSH1 0x22 PUSH1 0x24 DUP3 ADD MSTORE PUSH32 0x446F6E6174696F6E206D7573742062652067726561746572207468616E207A65 PUSH1 0x44 DUP3 ADD MSTORE PUSH2 0x726F PUSH1 0xF0 SHL PUSH1 0x64 DUP3 ADD MSTORE PUSH1 0x84 ADD PUSH2 0xF09 JUMP JUMPDEST PUSH0 DUP2 DUP2 MSTORE PUSH1 0x20 DUP2 SWAP1 MSTORE PUSH1 0x40 DUP1 DUP3 KECCAK256 DUP1 SLOAD SWAP2 MLOAD CALLVALUE SWAP4 SWAP2 SWAP3 PUSH1 0x1 PUSH1 0x1 PUSH1 0xA0 SHL SUB AND SWAP1 DUP5 SWAP1 DUP4 DUP2 DUP2 DUP2 DUP6 DUP8 GAS CALL SWAP3 POP POP POP RETURNDATASIZE DUP1 PUSH0 DUP2 EQ PUSH2 0x3492 JUMPI PUSH1 0x40 MLOAD SWAP2 POP PUSH1 0x1F NOT PUSH1 0x3F RETURNDATASIZE ADD AND DUP3 ADD PUSH1 0x40 MSTORE RETURNDATASIZE DUP3 MSTORE RETURNDATASIZE PUSH0 PUSH1 0x20 DUP5 ADD RETURNDATACOPY PUSH2 0x3497 JUMP JUMPDEST PUSH1 0x60 SWAP2 POP JUMPDEST POP POP SWAP1 POP DUP1 PUSH2 0x34E8 JUMPI PUSH1 0x40 MLOAD PUSH3 0x461BCD PUSH1 0xE5 SHL DUP2 MSTORE PUSH1 0x20 PUSH1 0x4 DUP3 ADD MSTORE PUSH1 0x14 PUSH1 0x24 DUP3 ADD MSTORE PUSH32 0x4661696C656420746F2073656E64204574686572000000000000000000000000 PUSH1 0x44 DUP3 ADD MSTORE PUSH1 0x64 ADD PUSH2 0xF09 JUMP JUMPDEST DUP3 DUP3 PUSH1 0x7 ADD PUSH0 DUP3 DUP3 SLOAD PUSH2 0x34FB SWAP2 SWAP1 PUSH2 0x4736 JUMP JUMPDEST SWAP1 SWAP2 SSTORE POP POP POP POP POP POP JUMP JUMPDEST PUSH2 0x350F DUP2 PUSH2 0x2DC4 JUMP JUMPDEST ISZERO PUSH2 0x355C JUMPI PUSH1 0x40 MLOAD PUSH3 0x461BCD PUSH1 0xE5 SHL DUP2 MSTORE PUSH1 0x20 PUSH1 0x4 DUP3 ADD MSTORE PUSH1 0x15 PUSH1 0x24 DUP3 ADD MSTORE PUSH32 0x466F6C64657220616C7265616479206578697374730000000000000000000000 PUSH1 0x44 DUP3 ADD MSTORE PUSH1 0x64 ADD PUSH2 0xF09 JUMP JUMPDEST PUSH1 0x6 DUP1 SLOAD PUSH1 0x1 DUP2 ADD DUP3 SSTORE PUSH0 SWAP2 SWAP1 SWAP2 MSTORE PUSH32 0xF652222313E28459528D920B65115C16C04F3EFC82AAEDC97BE59F3F377C0D3F ADD PUSH2 0x3597 DUP3 DUP3 PUSH2 0x45D2 JUMP JUMPDEST POP POP JUMP JUMPDEST CALLER PUSH1 0x1 PUSH1 0x1 PUSH1 0xA0 SHL SUB DUP5 AND EQ PUSH2 0x35AF JUMPI PUSH0 DUP1 REVERT JUMPDEST PUSH1 0x8 DUP1 SLOAD PUSH0 DUP7 DUP2 MSTORE PUSH1 0x20 DUP2 DUP2 MSTORE PUSH1 0x40 DUP1 DUP4 KECCAK256 SWAP5 DUP6 ADD DUP1 SLOAD PUSH1 0x1 DUP2 ADD DUP3 SSTORE SWAP1 DUP5 MSTORE SWAP2 SWAP1 SWAP3 KECCAK256 ADD DUP1 SLOAD PUSH20 0xFFFFFFFFFFFFFFFFFFFFFFFFFFFFFFFFFFFFFFFF NOT AND PUSH1 0x1 PUSH1 0x1 PUSH1 0xA0 SHL SUB DUP9 DUP2 AND SWAP2 SWAP1 SWAP2 OR SWAP1 SWAP2 SSTORE SWAP1 MLOAD PUSH4 0xA4B65D63 PUSH1 0xE0 SHL DUP2 MSTORE CALLER PUSH1 0x4 DUP3 ADD MSTORE SWAP2 AND SWAP2 SWAP1 PUSH1 0x9 DUP3 ADD SWAP1 DUP4 SWAP1 PUSH4 0xA4B65D63 SWAP1 PUSH1 0x24 ADD PUSH0 PUSH1 0x40 MLOAD DUP1 DUP4 SUB DUP2 DUP7 GAS STATICCALL ISZERO DUP1 ISZERO PUSH2 0x363F JUMPI RETURNDATASIZE PUSH0 DUP1 RETURNDATACOPY RETURNDATASIZE PUSH0 REVERT JUMPDEST POP POP POP POP PUSH1 0x40 MLOAD RETURNDATASIZE PUSH0 DUP3 RETURNDATACOPY PUSH1 0x1F RETURNDATASIZE SWAP1 DUP2 ADD PUSH1 0x1F NOT AND DUP3 ADD PUSH1 0x40 MSTORE PUSH2 0x3666 SWAP2 SWAP1 DUP2 ADD SWAP1 PUSH2 0x44DC JUMP JUMPDEST DUP2 SLOAD PUSH1 0x1 DUP2 ADD DUP4 SSTORE PUSH0 SWAP3 DUP4 MSTORE PUSH1 0x20 SWAP1 SWAP3 KECCAK256 SWAP1 SWAP2 ADD SWAP1 PUSH2 0x3685 SWAP1 DUP3 PUSH2 0x45D2 JUMP JUMPDEST POP PUSH1 0xA DUP2 ADD DUP1 SLOAD PUSH1 0x1 DUP2 DUP2 ADD DUP4 SSTORE PUSH0 SWAP3 DUP4 MSTORE PUSH1 0x20 DUP1 DUP5 KECCAK256 SWAP1 SWAP3 ADD DUP8 SWAP1 SSTORE PUSH1 0xB DUP5 ADD DUP1 SLOAD SWAP2 DUP3 ADD DUP2 SSTORE DUP4 MSTORE SWAP2 KECCAK256 ADD PUSH2 0x36BC DUP5 DUP3 PUSH2 0x45D2 JUMP JUMPDEST POP PUSH1 0xC ADD DUP1 SLOAD PUSH1 0x1 DUP2 ADD DUP3 SSTORE PUSH0 SWAP2 DUP3 MSTORE PUSH1 0x20 DUP3 KECCAK256 ADD SSTORE POP POP POP POP POP JUMP JUMPDEST PUSH1 0x7 SLOAD DUP3 LT PUSH2 0x3720 JUMPI PUSH1 0x40 MLOAD PUSH3 0x461BCD PUSH1 0xE5 SHL DUP2 MSTORE PUSH1 0x20 PUSH1 0x4 DUP3 ADD MSTORE PUSH1 0x13 PUSH1 0x24 DUP3 ADD MSTORE PUSH19 0x141BDCDD08191BD95CC81B9BDD08195E1A5CDD PUSH1 0x6A SHL PUSH1 0x44 DUP3 ADD MSTORE PUSH1 0x64 ADD PUSH2 0xF09 JUMP JUMPDEST PUSH0 PUSH1 0x3 DUP5 PUSH1 0x40 MLOAD PUSH2 0x3731 SWAP2 SWAP1 PUSH2 0x4551 JUMP JUMPDEST SWAP1 DUP2 MSTORE PUSH1 0x20 ADD PUSH1 0x40 MLOAD DUP1 SWAP2 SUB SWAP1 KECCAK256 SWAP1 POP PUSH0 JUMPDEST DUP2 SLOAD DUP2 LT ISZERO PUSH2 0x37BD JUMPI DUP4 DUP3 DUP3 DUP2 SLOAD DUP2 LT PUSH2 0x375F JUMPI PUSH2 0x375F PUSH2 0x449C JUMP JUMPDEST SWAP1 PUSH0 MSTORE PUSH1 0x20 PUSH0 KECCAK256 ADD SLOAD SUB PUSH2 0x37B5 JUMPI PUSH1 0x40 MLOAD PUSH3 0x461BCD PUSH1 0xE5 SHL DUP2 MSTORE PUSH1 0x20 PUSH1 0x4 DUP3 ADD MSTORE PUSH1 0x1C PUSH1 0x24 DUP3 ADD MSTORE PUSH32 0x506F737420616C726561647920736176656420696E20666F6C64657200000000 PUSH1 0x44 DUP3 ADD MSTORE PUSH1 0x64 ADD PUSH2 0xF09 JUMP JUMPDEST PUSH1 0x1 ADD PUSH2 0x3743 JUMP JUMPDEST POP PUSH1 0x3 DUP5 PUSH1 0x40 MLOAD PUSH2 0x37CE SWAP2 SWAP1 PUSH2 0x4551 JUMP JUMPDEST SWAP1 DUP2 MSTORE PUSH1 0x40 DUP1 MLOAD PUSH1 0x20 SWAP3 DUP2 SWAP1 SUB DUP4 ADD SWAP1 KECCAK256 DUP1 SLOAD PUSH1 0x1 DUP1 DUP3 ADD DUP4 SSTORE PUSH0 SWAP3 DUP4 MSTORE DUP5 DUP4 KECCAK256 SWAP1 SWAP2 ADD DUP8 SWAP1 SSTORE PUSH1 0x1 PUSH1 0x1 PUSH1 0xA0 SHL SUB SWAP6 SWAP1 SWAP6 AND DUP2 MSTORE PUSH1 0x4 DUP4 MSTORE DUP2 DUP2 KECCAK256 SWAP6 DUP2 MSTORE SWAP5 SWAP1 SWAP2 MSTORE SWAP1 SWAP3 KECCAK256 DUP1 SLOAD PUSH1 0xFF NOT AND SWAP1 SWAP2 OR SWAP1 SSTORE POP POP JUMP JUMPDEST PUSH1 0x60 DUP1 PUSH1 0x60 PUSH1 0x7 SLOAD DUP6 LT PUSH2 0x386F JUMPI PUSH1 0x40 MLOAD PUSH3 0x461BCD PUSH1 0xE5 SHL DUP2 MSTORE PUSH1 0x20 PUSH1 0x4 DUP3 ADD MSTORE PUSH1 0x13 PUSH1 0x24 DUP3 ADD MSTORE PUSH19 0x141BDCDD08191BD95CC81B9BDD08195E1A5CDD PUSH1 0x6A SHL PUSH1 0x44 DUP3 ADD MSTORE PUSH1 0x64 ADD PUSH2 0xF09 JUMP JUMPDEST PUSH0 DUP6 DUP2 MSTORE PUSH1 0x20 DUP2 SWAP1 MSTORE PUSH1 0x40 SWAP1 KECCAK256 PUSH1 0x8 ADD SLOAD DUP5 LT PUSH2 0x38CE JUMPI PUSH1 0x40 MLOAD PUSH3 0x461BCD PUSH1 0xE5 SHL DUP2 MSTORE PUSH1 0x20 PUSH1 0x4 DUP3 ADD MSTORE PUSH1 0x16 PUSH1 0x24 DUP3 ADD MSTORE PUSH32 0x436F6D6D656E7420646F6573206E6F7420657869737400000000000000000000 PUSH1 0x44 DUP3 ADD MSTORE PUSH1 0x64 ADD PUSH2 0xF09 JUMP JUMPDEST PUSH0 DUP6 DUP2 MSTORE PUSH1 0x20 DUP2 SWAP1 MSTORE PUSH1 0x40 DUP2 KECCAK256 PUSH1 0xC ADD DUP1 SLOAD DUP7 SWAP1 DUP2 LT PUSH2 0x38F0 JUMPI PUSH2 0x38F0 PUSH2 0x449C JUMP JUMPDEST SWAP1 PUSH0 MSTORE PUSH1 0x20 PUSH0 KECCAK256 ADD SLOAD SWAP1 POP PUSH0 DUP2 PUSH8 0xFFFFFFFFFFFFFFFF DUP2 GT ISZERO PUSH2 0x3915 JUMPI PUSH2 0x3915 PUSH2 0x3C89 JUMP JUMPDEST PUSH1 0x40 MLOAD SWAP1 DUP1 DUP3 MSTORE DUP1 PUSH1 0x20 MUL PUSH1 0x20 ADD DUP3 ADD PUSH1 0x40 MSTORE DUP1 ISZERO PUSH2 0x3948 JUMPI DUP2 PUSH1 0x20 ADD JUMPDEST PUSH1 0x60 DUP2 MSTORE PUSH1 0x20 ADD SWAP1 PUSH1 0x1 SWAP1 SUB SWAP1 DUP2 PUSH2 0x3933 JUMPI SWAP1 POP JUMPDEST POP SWAP1 POP PUSH0 DUP3 PUSH8 0xFFFFFFFFFFFFFFFF DUP2 GT ISZERO PUSH2 0x3965 JUMPI PUSH2 0x3965 PUSH2 0x3C89 JUMP JUMPDEST PUSH1 0x40 MLOAD SWAP1 DUP1 DUP3 MSTORE DUP1 PUSH1 0x20 MUL PUSH1 0x20 ADD DUP3 ADD PUSH1 0x40 MSTORE DUP1 ISZERO PUSH2 0x3998 JUMPI DUP2 PUSH1 0x20 ADD JUMPDEST PUSH1 0x60 DUP2 MSTORE PUSH1 0x20 ADD SWAP1 PUSH1 0x1 SWAP1 SUB SWAP1 DUP2 PUSH2 0x3983 JUMPI SWAP1 POP JUMPDEST POP SWAP1 POP PUSH0 DUP4 PUSH8 0xFFFFFFFFFFFFFFFF DUP2 GT ISZERO PUSH2 0x39B5 JUMPI PUSH2 0x39B5 PUSH2 0x3C89 JUMP JUMPDEST PUSH1 0x40 MLOAD SWAP1 DUP1 DUP3 MSTORE DUP1 PUSH1 0x20 MUL PUSH1 0x20 ADD DUP3 ADD PUSH1 0x40 MSTORE DUP1 ISZERO PUSH2 0x39DE JUMPI DUP2 PUSH1 0x20 ADD PUSH1 0x20 DUP3 MUL DUP1 CALLDATASIZE DUP4 CALLDATACOPY ADD SWAP1 POP JUMPDEST POP SWAP1 POP PUSH0 PUSH1 0x8 PUSH0 SWAP1 SLOAD SWAP1 PUSH2 0x100 EXP SWAP1 DIV PUSH1 0x1 PUSH1 0x1 PUSH1 0xA0 SHL SUB AND SWAP1 POP PUSH0 DUP1 DUP3 PUSH1 0x1 PUSH1 0x1 PUSH1 0xA0 SHL SUB AND PUSH4 0xD28AFC7 PUSH1 0x40 MLOAD DUP2 PUSH4 0xFFFFFFFF AND PUSH1 0xE0 SHL DUP2 MSTORE PUSH1 0x4 ADD PUSH1 0x20 PUSH1 0x40 MLOAD DUP1 DUP4 SUB DUP2 DUP7 GAS STATICCALL ISZERO DUP1 ISZERO PUSH2 0x3A37 JUMPI RETURNDATASIZE PUSH0 DUP1 RETURNDATACOPY RETURNDATASIZE PUSH0 REVERT JUMPDEST POP POP POP POP PUSH1 0x40 MLOAD RETURNDATASIZE PUSH1 0x1F NOT PUSH1 0x1F DUP3 ADD AND DUP3 ADD DUP1 PUSH1 0x40 MSTORE POP DUP2 ADD SWAP1 PUSH2 0x3A5B SWAP2 SWAP1 PUSH2 0x4704 JUMP JUMPDEST SWAP1 POP PUSH0 JUMPDEST DUP2 DUP2 LT ISZERO PUSH2 0x3C75 JUMPI PUSH1 0x40 MLOAD PUSH4 0x9F1953C3 PUSH1 0xE0 SHL DUP2 MSTORE PUSH1 0x4 DUP2 ADD DUP3 SWAP1 MSTORE PUSH0 SWAP1 PUSH1 0x1 PUSH1 0x1 PUSH1 0xA0 SHL SUB DUP7 AND SWAP1 PUSH4 0x9F1953C3 SWAP1 PUSH1 0x24 ADD PUSH1 0x20 PUSH1 0x40 MLOAD DUP1 DUP4 SUB DUP2 DUP7 GAS STATICCALL ISZERO DUP1 ISZERO PUSH2 0x3AAC JUMPI RETURNDATASIZE PUSH0 DUP1 RETURNDATACOPY RETURNDATASIZE PUSH0 REVERT JUMPDEST POP POP POP POP PUSH1 0x40 MLOAD RETURNDATASIZE PUSH1 0x1F NOT PUSH1 0x1F DUP3 ADD AND DUP3 ADD DUP1 PUSH1 0x40 MSTORE POP DUP2 ADD SWAP1 PUSH2 0x3AD0 SWAP2 SWAP1 PUSH2 0x471B JUMP JUMPDEST SWAP1 POP PUSH1 0x2 PUSH0 DUP16 DUP2 MSTORE PUSH1 0x20 ADD SWAP1 DUP2 MSTORE PUSH1 0x20 ADD PUSH0 KECCAK256 PUSH0 DUP15 DUP2 MSTORE PUSH1 0x20 ADD SWAP1 DUP2 MSTORE PUSH1 0x20 ADD PUSH0 KECCAK256 PUSH0 DUP3 PUSH1 0x1 PUSH1 0x1 PUSH1 0xA0 SHL SUB AND PUSH1 0x1 PUSH1 0x1 PUSH1 0xA0 SHL SUB AND DUP2 MSTORE PUSH1 0x20 ADD SWAP1 DUP2 MSTORE PUSH1 0x20 ADD PUSH0 KECCAK256 PUSH0 SWAP1 SLOAD SWAP1 PUSH2 0x100 EXP SWAP1 DIV PUSH1 0xFF AND ISZERO PUSH2 0x3C6C JUMPI PUSH1 0x40 MLOAD PUSH4 0x742DF7E1 PUSH1 0xE1 SHL DUP2 MSTORE PUSH1 0x1 PUSH1 0x1 PUSH1 0xA0 SHL SUB DUP3 DUP2 AND PUSH1 0x4 DUP4 ADD MSTORE DUP7 AND SWAP1 PUSH4 0xE85BEFC2 SWAP1 PUSH1 0x24 ADD PUSH0 PUSH1 0x40 MLOAD DUP1 DUP4 SUB DUP2 DUP7 GAS STATICCALL ISZERO DUP1 ISZERO PUSH2 0x3B68 JUMPI RETURNDATASIZE PUSH0 DUP1 RETURNDATACOPY RETURNDATASIZE PUSH0 REVERT JUMPDEST POP POP POP POP PUSH1 0x40 MLOAD RETURNDATASIZE PUSH0 DUP3 RETURNDATACOPY PUSH1 0x1F RETURNDATASIZE SWAP1 DUP2 ADD PUSH1 0x1F NOT AND DUP3 ADD PUSH1 0x40 MSTORE PUSH2 0x3B8F SWAP2 SWAP1 DUP2 ADD SWAP1 PUSH2 0x44DC JUMP JUMPDEST DUP9 DUP6 DUP2 MLOAD DUP2 LT PUSH2 0x3BA1 JUMPI PUSH2 0x3BA1 PUSH2 0x449C JUMP JUMPDEST PUSH1 0x20 SWAP1 DUP2 MUL SWAP2 SWAP1 SWAP2 ADD ADD MSTORE PUSH1 0x40 MLOAD PUSH4 0xFBF31669 PUSH1 0xE0 SHL DUP2 MSTORE PUSH1 0x1 PUSH1 0x1 PUSH1 0xA0 SHL SUB DUP3 DUP2 AND PUSH1 0x4 DUP4 ADD MSTORE DUP7 AND SWAP1 PUSH4 0xFBF31669 SWAP1 PUSH1 0x24 ADD PUSH0 PUSH1 0x40 MLOAD DUP1 DUP4 SUB DUP2 DUP7 GAS STATICCALL ISZERO DUP1 ISZERO PUSH2 0x3BEF JUMPI RETURNDATASIZE PUSH0 DUP1 RETURNDATACOPY RETURNDATASIZE PUSH0 REVERT JUMPDEST POP POP POP POP PUSH1 0x40 MLOAD RETURNDATASIZE PUSH0 DUP3 RETURNDATACOPY PUSH1 0x1F RETURNDATASIZE SWAP1 DUP2 ADD PUSH1 0x1F NOT AND DUP3 ADD PUSH1 0x40 MSTORE PUSH2 0x3C16 SWAP2 SWAP1 DUP2 ADD SWAP1 PUSH2 0x44DC JUMP JUMPDEST DUP8 DUP6 DUP2 MLOAD DUP2 LT PUSH2 0x3C28 JUMPI PUSH2 0x3C28 PUSH2 0x449C JUMP JUMPDEST PUSH1 0x20 MUL PUSH1 0x20 ADD ADD DUP2 SWAP1 MSTORE POP DUP1 DUP7 DUP6 DUP2 MLOAD DUP2 LT PUSH2 0x3C46 JUMPI PUSH2 0x3C46 PUSH2 0x449C JUMP JUMPDEST PUSH1 0x1 PUSH1 0x1 PUSH1 0xA0 SHL SUB SWAP1 SWAP3 AND PUSH1 0x20 SWAP3 DUP4 MUL SWAP2 SWAP1 SWAP2 ADD SWAP1 SWAP2 ADD MSTORE DUP4 PUSH2 0x3C68 DUP2 PUSH2 0x44C4 JUMP JUMPDEST SWAP5 POP POP JUMPDEST POP PUSH1 0x1 ADD PUSH2 0x3A5F JUMP JUMPDEST POP SWAP5 SWAP12 SWAP4 SWAP11 POP SWAP2 SWAP9 POP SWAP2 SWAP7 POP POP POP POP POP POP POP JUMP JUMPDEST PUSH4 0x4E487B71 PUSH1 0xE0 SHL PUSH0 MSTORE PUSH1 0x41 PUSH1 0x4 MSTORE PUSH1 0x24 PUSH0 REVERT JUMPDEST PUSH1 0x40 MLOAD PUSH1 0x1F DUP3 ADD PUSH1 0x1F NOT AND DUP2 ADD PUSH8 0xFFFFFFFFFFFFFFFF DUP2 GT DUP3 DUP3 LT OR ISZERO PUSH2 0x3CC6 JUMPI PUSH2 0x3CC6 PUSH2 0x3C89 JUMP JUMPDEST PUSH1 0x40 MSTORE SWAP2 SWAP1 POP JUMP JUMPDEST PUSH0 PUSH8 0xFFFFFFFFFFFFFFFF DUP3 GT ISZERO PUSH2 0x3CE7 JUMPI PUSH2 0x3CE7 PUSH2 0x3C89 JUMP JUMPDEST POP PUSH1 0x1F ADD PUSH1 0x1F NOT AND PUSH1 0x20 ADD SWAP1 JUMP JUMPDEST PUSH0 DUP3 PUSH1 0x1F DUP4 ADD SLT PUSH2 0x3D04 JUMPI PUSH0 DUP1 REVERT JUMPDEST DUP2 CALLDATALOAD PUSH2 0x3D17 PUSH2 0x3D12 DUP3 PUSH2 0x3CCE JUMP JUMPDEST PUSH2 0x3C9D JUMP JUMPDEST DUP2 DUP2 MSTORE DUP5 PUSH1 0x20 DUP4 DUP7 ADD ADD GT ISZERO PUSH2 0x3D2B JUMPI PUSH0 DUP1 REVERT JUMPDEST DUP2 PUSH1 0x20 DUP6 ADD PUSH1 0x20 DUP4 ADD CALLDATACOPY PUSH0 SWAP2 DUP2 ADD PUSH1 0x20 ADD SWAP2 SWAP1 SWAP2 MSTORE SWAP4 SWAP3 POP POP POP JUMP JUMPDEST PUSH0 DUP1 PUSH1 0x40 DUP4 DUP6 SUB SLT ISZERO PUSH2 0x3D58 JUMPI PUSH0 DUP1 REVERT JUMPDEST DUP3 CALLDATALOAD PUSH8 0xFFFFFFFFFFFFFFFF DUP2 GT ISZERO PUSH2 0x3D6E JUMPI PUSH0 DUP1 REVERT JUMPDEST PUSH2 0x3D7A DUP6 DUP3 DUP7 ADD PUSH2 0x3CF5 JUMP JUMPDEST SWAP6 PUSH1 0x20 SWAP5 SWAP1 SWAP5 ADD CALLDATALOAD SWAP5 POP POP POP POP JUMP JUMPDEST PUSH0 PUSH1 0x20 DUP3 DUP5 SUB SLT ISZERO PUSH2 0x3D99 JUMPI PUSH0 DUP1 REVERT JUMPDEST POP CALLDATALOAD SWAP2 SWAP1 POP JUMP JUMPDEST PUSH0 DUP2 MLOAD DUP1 DUP5 MSTORE DUP1 PUSH1 0x20 DUP5 ADD PUSH1 0x20 DUP7 ADD MCOPY PUSH0 PUSH1 0x20 DUP3 DUP7 ADD ADD MSTORE PUSH1 0x20 PUSH1 0x1F NOT PUSH1 0x1F DUP4 ADD AND DUP6 ADD ADD SWAP2 POP POP SWAP3 SWAP2 POP POP JUMP JUMPDEST PUSH0 PUSH2 0x100 PUSH1 0x1 PUSH1 0x1 PUSH1 0xA0 SHL SUB DUP12 AND DUP4 MSTORE DUP10 PUSH1 0x20 DUP5 ADD MSTORE DUP1 PUSH1 0x40 DUP5 ADD MSTORE PUSH2 0x3DF6 DUP2 DUP5 ADD DUP11 PUSH2 0x3DA0 JUMP JUMPDEST SWAP1 POP DUP3 DUP2 SUB PUSH1 0x60 DUP5 ADD MSTORE PUSH2 0x3E0A DUP2 DUP10 PUSH2 0x3DA0 JUMP JUMPDEST SWAP1 POP DUP3 DUP2 SUB PUSH1 0x80 DUP5 ADD MSTORE PUSH2 0x3E1E DUP2 DUP9 PUSH2 0x3DA0 JUMP JUMPDEST PUSH1 0xA0 DUP5 ADD SWAP7 SWAP1 SWAP7 MSTORE POP POP PUSH1 0xC0 DUP2 ADD SWAP3 SWAP1 SWAP3 MSTORE PUSH1 0xE0 SWAP1 SWAP2 ADD MSTORE SWAP6 SWAP5 POP POP POP POP POP JUMP JUMPDEST PUSH1 0x1 PUSH1 0x1 PUSH1 0xA0 SHL SUB DUP2 AND DUP2 EQ PUSH2 0x3E53 JUMPI PUSH0 DUP1 REVERT JUMPDEST POP JUMP JUMPDEST PUSH0 PUSH1 0x20 DUP3 DUP5 SUB SLT ISZERO PUSH2 0x3E66 JUMPI PUSH0 DUP1 REVERT JUMPDEST DUP2 CALLDATALOAD PUSH2 0x3E71 DUP2 PUSH2 0x3E3F JUMP JUMPDEST SWAP4 SWAP3 POP POP POP JUMP JUMPDEST PUSH0 DUP2 MLOAD DUP1 DUP5 MSTORE PUSH1 0x20 DUP1 DUP6 ADD SWAP5 POP PUSH1 0x20 DUP5 ADD PUSH0 JUMPDEST DUP4 DUP2 LT ISZERO PUSH2 0x3EB0 JUMPI DUP2 MLOAD PUSH1 0x1 PUSH1 0x1 PUSH1 0xA0 SHL SUB AND DUP8 MSTORE SWAP6 DUP3 ADD SWAP6 SWAP1 DUP3 ADD SWAP1 PUSH1 0x1 ADD PUSH2 0x3E8B JUMP JUMPDEST POP SWAP5 SWAP6 SWAP5 POP POP POP POP POP JUMP JUMPDEST PUSH0 DUP3 DUP3 MLOAD DUP1 DUP6 MSTORE PUSH1 0x20 DUP1 DUP7 ADD SWAP6 POP PUSH1 0x20 DUP3 PUSH1 0x5 SHL DUP5 ADD ADD PUSH1 0x20 DUP7 ADD PUSH0 JUMPDEST DUP5 DUP2 LT ISZERO PUSH2 0x3F06 JUMPI PUSH1 0x1F NOT DUP7 DUP5 SUB ADD DUP10 MSTORE PUSH2 0x3EF4 DUP4 DUP4 MLOAD PUSH2 0x3DA0 JUMP JUMPDEST SWAP9 DUP5 ADD SWAP9 SWAP3 POP SWAP1 DUP4 ADD SWAP1 PUSH1 0x1 ADD PUSH2 0x3ED8 JUMP JUMPDEST POP SWAP1 SWAP8 SWAP7 POP POP POP POP POP POP POP JUMP JUMPDEST PUSH0 DUP2 MLOAD DUP1 DUP5 MSTORE PUSH1 0x20 DUP1 DUP6 ADD SWAP5 POP PUSH1 0x20 DUP5 ADD PUSH0 JUMPDEST DUP4 DUP2 LT ISZERO PUSH2 0x3EB0 JUMPI DUP2 MLOAD DUP8 MSTORE SWAP6 DUP3 ADD SWAP6 SWAP1 DUP3 ADD SWAP1 PUSH1 0x1 ADD PUSH2 0x3F26 JUMP JUMPDEST DUP1 MLOAD PUSH1 0x1 PUSH1 0x1 PUSH1 0xA0 SHL SUB AND DUP3 MSTORE PUSH0 PUSH2 0x1A0 PUSH1 0x20 DUP4 ADD MLOAD PUSH1 0x20 DUP6 ADD MSTORE PUSH1 0x40 DUP4 ADD MLOAD DUP2 PUSH1 0x40 DUP7 ADD MSTORE PUSH2 0x3F74 DUP3 DUP7 ADD DUP3 PUSH2 0x3DA0 JUMP JUMPDEST SWAP2 POP POP PUSH1 0x60 DUP4 ADD MLOAD DUP5 DUP3 SUB PUSH1 0x60 DUP7 ADD MSTORE PUSH2 0x3F8E DUP3 DUP3 PUSH2 0x3DA0 JUMP JUMPDEST SWAP2 POP POP PUSH1 0x80 DUP4 ADD MLOAD DUP5 DUP3 SUB PUSH1 0x80 DUP7 ADD MSTORE PUSH2 0x3FA8 DUP3 DUP3 PUSH2 0x3DA0 JUMP JUMPDEST SWAP2 POP POP PUSH1 0xA0 DUP4 ADD MLOAD PUSH1 0xA0 DUP6 ADD MSTORE PUSH1 0xC0 DUP4 ADD MLOAD PUSH1 0xC0 DUP6 ADD MSTORE PUSH1 0xE0 DUP4 ADD MLOAD PUSH1 0xE0 DUP6 ADD MSTORE PUSH2 0x100 DUP1 DUP5 ADD MLOAD DUP6 DUP4 SUB DUP3 DUP8 ADD MSTORE PUSH2 0x3FE1 DUP4 DUP3 PUSH2 0x3E78 JUMP JUMPDEST SWAP3 POP POP POP PUSH2 0x120 DUP1 DUP5 ADD MLOAD DUP6 DUP4 SUB DUP3 DUP8 ADD MSTORE PUSH2 0x3FFD DUP4 DUP3 PUSH2 0x3EBB JUMP JUMPDEST SWAP3 POP POP POP PUSH2 0x140 DUP1 DUP5 ADD MLOAD DUP6 DUP4 SUB DUP3 DUP8 ADD MSTORE PUSH2 0x4019 DUP4 DUP3 PUSH2 0x3F13 JUMP JUMPDEST SWAP3 POP POP POP PUSH2 0x160 DUP1 DUP5 ADD MLOAD DUP6 DUP4 SUB DUP3 DUP8 ADD MSTORE PUSH2 0x4035 DUP4 DUP3 PUSH2 0x3EBB JUMP JUMPDEST SWAP3 POP POP POP PUSH2 0x180 DUP1 DUP5 ADD MLOAD DUP6 DUP4 SUB DUP3 DUP8 ADD MSTORE PUSH2 0x4051 DUP4 DUP3 PUSH2 0x3F13 JUMP JUMPDEST SWAP7 SWAP6 POP POP POP POP POP POP JUMP JUMPDEST PUSH0 PUSH1 0x20 DUP1 DUP4 ADD PUSH1 0x20 DUP5 MSTORE DUP1 DUP6 MLOAD DUP1 DUP4 MSTORE PUSH1 0x40 DUP7 ADD SWAP2 POP PUSH1 0x40 DUP2 PUSH1 0x5 SHL DUP8 ADD ADD SWAP3 POP PUSH1 0x20 DUP8 ADD PUSH0 JUMPDEST DUP3 DUP2 LT ISZERO PUSH2 0x40B0 JUMPI PUSH1 0x3F NOT DUP9 DUP7 SUB ADD DUP5 MSTORE PUSH2 0x409E DUP6 DUP4 MLOAD PUSH2 0x3F42 JUMP JUMPDEST SWAP5 POP SWAP3 DUP6 ADD SWAP3 SWAP1 DUP6 ADD SWAP1 PUSH1 0x1 ADD PUSH2 0x4082 JUMP JUMPDEST POP SWAP3 SWAP8 SWAP7 POP POP POP POP POP POP POP JUMP JUMPDEST PUSH1 0x20 DUP2 MSTORE PUSH0 PUSH2 0x3E71 PUSH1 0x20 DUP4 ADD DUP5 PUSH2 0x3DA0 JUMP JUMPDEST PUSH0 DUP1 PUSH1 0x40 DUP4 DUP6 SUB SLT ISZERO PUSH2 0x40E0 JUMPI PUSH0 DUP1 REVERT JUMPDEST POP POP DUP1 CALLDATALOAD SWAP3 PUSH1 0x20 SWAP1 SWAP2 ADD CALLDATALOAD SWAP2 POP JUMP JUMPDEST PUSH0 PUSH1 0x20 DUP1 DUP4 DUP6 SUB SLT ISZERO PUSH2 0x4100 JUMPI PUSH0 DUP1 REVERT JUMPDEST DUP3 CALLDATALOAD PUSH8 0xFFFFFFFFFFFFFFFF DUP1 DUP3 GT ISZERO PUSH2 0x4117 JUMPI PUSH0 DUP1 REVERT JUMPDEST DUP2 DUP6 ADD SWAP2 POP DUP6 PUSH1 0x1F DUP4 ADD SLT PUSH2 0x412A JUMPI PUSH0 DUP1 REVERT JUMPDEST DUP2 CALLDATALOAD DUP2 DUP2 GT ISZERO PUSH2 0x413C JUMPI PUSH2 0x413C PUSH2 0x3C89 JUMP JUMPDEST DUP1 PUSH1 0x5 SHL SWAP2 POP PUSH2 0x414D DUP5 DUP4 ADD PUSH2 0x3C9D JUMP JUMPDEST DUP2 DUP2 MSTORE SWAP2 DUP4 ADD DUP5 ADD SWAP2 DUP5 DUP2 ADD SWAP1 DUP9 DUP5 GT ISZERO PUSH2 0x4166 JUMPI PUSH0 DUP1 REVERT JUMPDEST SWAP4 DUP6 ADD SWAP4 JUMPDEST DUP4 DUP6 LT ISZERO PUSH2 0x4190 JUMPI DUP5 CALLDATALOAD SWAP3 POP PUSH2 0x4180 DUP4 PUSH2 0x3E3F JUMP JUMPDEST DUP3 DUP3 MSTORE SWAP4 DUP6 ADD SWAP4 SWAP1 DUP6 ADD SWAP1 PUSH2 0x416B JUMP JUMPDEST SWAP9 SWAP8 POP POP POP POP POP POP POP POP JUMP JUMPDEST PUSH0 DUP3 DUP3 MLOAD DUP1 DUP6 MSTORE PUSH1 0x20 DUP1 DUP7 ADD SWAP6 POP PUSH1 0x20 DUP3 PUSH1 0x5 SHL DUP5 ADD ADD PUSH1 0x20 DUP7 ADD PUSH0 JUMPDEST DUP5 DUP2 LT ISZERO PUSH2 0x3F06 JUMPI PUSH1 0x1F NOT DUP7 DUP5 SUB ADD DUP10 MSTORE PUSH2 0x41D5 DUP4 DUP4 MLOAD PUSH2 0x3DA0 JUMP JUMPDEST SWAP9 DUP5 ADD SWAP9 SWAP3 POP SWAP1 DUP4 ADD SWAP1 PUSH1 0x1 ADD PUSH2 0x41B9 JUMP JUMPDEST PUSH1 0x20 DUP2 MSTORE PUSH0 PUSH2 0x3E71 PUSH1 0x20 DUP4 ADD DUP5 PUSH2 0x419C JUMP JUMPDEST PUSH0 DUP1 PUSH1 0x40 DUP4 DUP6 SUB SLT ISZERO PUSH2 0x420A JUMPI PUSH0 DUP1 REVERT JUMPDEST DUP3 CALLDATALOAD PUSH2 0x4215 DUP2 PUSH2 0x3E3F JUMP JUMPDEST SWAP5 PUSH1 0x20 SWAP4 SWAP1 SWAP4 ADD CALLDATALOAD SWAP4 POP POP POP JUMP JUMPDEST PUSH0 PUSH1 0x20 DUP3 DUP5 SUB SLT ISZERO PUSH2 0x4233 JUMPI PUSH0 DUP1 REVERT JUMPDEST DUP2 CALLDATALOAD PUSH8 0xFFFFFFFFFFFFFFFF DUP2 GT ISZERO PUSH2 0x4249 JUMPI PUSH0 DUP1 REVERT JUMPDEST PUSH2 0x4255 DUP5 DUP3 DUP6 ADD PUSH2 0x3CF5 JUMP JUMPDEST SWAP5 SWAP4 POP POP POP POP JUMP JUMPDEST PUSH1 0x20 DUP2 MSTORE PUSH0 PUSH2 0x3E71 PUSH1 0x20 DUP4 ADD DUP5 PUSH2 0x3F42 JUMP JUMPDEST PUSH0 DUP1 PUSH0 DUP1 PUSH1 0x80 DUP6 DUP8 SUB SLT ISZERO PUSH2 0x4282 JUMPI PUSH0 DUP1 REVERT JUMPDEST DUP5 CALLDATALOAD PUSH2 0x428D DUP2 PUSH2 0x3E3F JUMP JUMPDEST SWAP4 POP PUSH1 0x20 DUP6 ADD CALLDATALOAD PUSH8 0xFFFFFFFFFFFFFFFF DUP1 DUP3 GT ISZERO PUSH2 0x42A9 JUMPI PUSH0 DUP1 REVERT JUMPDEST PUSH2 0x42B5 DUP9 DUP4 DUP10 ADD PUSH2 0x3CF5 JUMP JUMPDEST SWAP5 POP PUSH1 0x40 DUP8 ADD CALLDATALOAD SWAP2 POP DUP1 DUP3 GT ISZERO PUSH2 0x42CA JUMPI PUSH0 DUP1 REVERT JUMPDEST POP PUSH2 0x42D7 DUP8 DUP3 DUP9 ADD PUSH2 0x3CF5 JUMP JUMPDEST SWAP5 SWAP8 SWAP4 SWAP7 POP SWAP4 SWAP5 PUSH1 0x60 ADD CALLDATALOAD SWAP4 POP POP POP JUMP JUMPDEST PUSH0 DUP1 PUSH0 PUSH1 0x60 DUP5 DUP7 SUB SLT ISZERO PUSH2 0x42FA JUMPI PUSH0 DUP1 REVERT JUMPDEST DUP4 CALLDATALOAD SWAP3 POP PUSH1 0x20 DUP5 ADD CALLDATALOAD SWAP2 POP PUSH1 0x40 DUP5 ADD CALLDATALOAD PUSH2 0x4313 DUP2 PUSH2 0x3E3F JUMP JUMPDEST DUP1 SWAP2 POP POP SWAP3 POP SWAP3 POP SWAP3 JUMP JUMPDEST PUSH1 0x60 DUP2 MSTORE PUSH0 PUSH2 0x4330 PUSH1 0x60 DUP4 ADD DUP7 PUSH2 0x419C JUMP JUMPDEST PUSH1 0x20 DUP4 DUP3 SUB PUSH1 0x20 DUP6 ADD MSTORE PUSH2 0x4344 DUP3 DUP8 PUSH2 0x419C JUMP JUMPDEST DUP5 DUP2 SUB PUSH1 0x40 DUP7 ADD MSTORE DUP6 MLOAD DUP1 DUP3 MSTORE PUSH1 0x20 DUP1 DUP9 ADD SWAP5 POP SWAP1 SWAP2 ADD SWAP1 PUSH0 JUMPDEST DUP2 DUP2 LT ISZERO PUSH2 0x4383 JUMPI DUP5 MLOAD PUSH1 0x1 PUSH1 0x1 PUSH1 0xA0 SHL SUB AND DUP4 MSTORE SWAP4 DUP4 ADD SWAP4 SWAP2 DUP4 ADD SWAP2 PUSH1 0x1 ADD PUSH2 0x435E JUMP JUMPDEST POP SWAP1 SWAP9 SWAP8 POP POP POP POP POP POP POP POP JUMP JUMPDEST PUSH0 DUP1 PUSH1 0x40 DUP4 DUP6 SUB SLT ISZERO PUSH2 0x43A2 JUMPI PUSH0 DUP1 REVERT JUMPDEST DUP3 CALLDATALOAD SWAP2 POP PUSH1 0x20 DUP4 ADD CALLDATALOAD PUSH2 0x43B4 DUP2 PUSH2 0x3E3F JUMP JUMPDEST DUP1 SWAP2 POP POP SWAP3 POP SWAP3 SWAP1 POP JUMP JUMPDEST PUSH0 DUP1 PUSH0 DUP1 PUSH1 0x80 DUP6 DUP8 SUB SLT ISZERO PUSH2 0x43D2 JUMPI PUSH0 DUP1 REVERT JUMPDEST DUP5 CALLDATALOAD SWAP4 POP PUSH1 0x20 DUP6 ADD CALLDATALOAD PUSH2 0x43E4 DUP2 PUSH2 0x3E3F JUMP JUMPDEST SWAP3 POP PUSH1 0x40 DUP6 ADD CALLDATALOAD SWAP2 POP PUSH1 0x60 DUP6 ADD CALLDATALOAD PUSH8 0xFFFFFFFFFFFFFFFF DUP2 GT ISZERO PUSH2 0x4406 JUMPI PUSH0 DUP1 REVERT JUMPDEST PUSH2 0x4412 DUP8 DUP3 DUP9 ADD PUSH2 0x3CF5 JUMP JUMPDEST SWAP2 POP POP SWAP3 SWAP6 SWAP2 SWAP5 POP SWAP3 POP JUMP JUMPDEST PUSH0 DUP1 PUSH0 PUSH1 0x60 DUP5 DUP7 SUB SLT ISZERO PUSH2 0x4430 JUMPI PUSH0 DUP1 REVERT JUMPDEST DUP4 CALLDATALOAD PUSH8 0xFFFFFFFFFFFFFFFF DUP2 GT ISZERO PUSH2 0x4446 JUMPI PUSH0 DUP1 REVERT JUMPDEST PUSH2 0x4452 DUP7 DUP3 DUP8 ADD PUSH2 0x3CF5 JUMP JUMPDEST SWAP4 POP POP PUSH1 0x20 DUP5 ADD CALLDATALOAD SWAP2 POP PUSH1 0x40 DUP5 ADD CALLDATALOAD PUSH2 0x4313 DUP2 PUSH2 0x3E3F JUMP JUMPDEST PUSH1 0x1 DUP2 DUP2 SHR SWAP1 DUP3 AND DUP1 PUSH2 0x447E JUMPI PUSH1 0x7F DUP3 AND SWAP2 POP JUMPDEST PUSH1 0x20 DUP3 LT DUP2 SUB PUSH2 0x1E72 JUMPI PUSH4 0x4E487B71 PUSH1 0xE0 SHL PUSH0 MSTORE PUSH1 0x22 PUSH1 0x4 MSTORE PUSH1 0x24 PUSH0 REVERT JUMPDEST PUSH4 0x4E487B71 PUSH1 0xE0 SHL PUSH0 MSTORE PUSH1 0x32 PUSH1 0x4 MSTORE PUSH1 0x24 PUSH0 REVERT JUMPDEST PUSH4 0x4E487B71 PUSH1 0xE0 SHL PUSH0 MSTORE PUSH1 0x11 PUSH1 0x4 MSTORE PUSH1 0x24 PUSH0 REVERT JUMPDEST PUSH0 PUSH1 0x1 DUP3 ADD PUSH2 0x44D5 JUMPI PUSH2 0x44D5 PUSH2 0x44B0 JUMP JUMPDEST POP PUSH1 0x1 ADD SWAP1 JUMP JUMPDEST PUSH0 PUSH1 0x20 DUP3 DUP5 SUB SLT ISZERO PUSH2 0x44EC JUMPI PUSH0 DUP1 REVERT JUMPDEST DUP2 MLOAD PUSH8 0xFFFFFFFFFFFFFFFF DUP2 GT ISZERO PUSH2 0x4502 JUMPI PUSH0 DUP1 REVERT JUMPDEST DUP3 ADD PUSH1 0x1F DUP2 ADD DUP5 SGT PUSH2 0x4512 JUMPI PUSH0 DUP1 REVERT JUMPDEST DUP1 MLOAD PUSH2 0x4520 PUSH2 0x3D12 DUP3 PUSH2 0x3CCE JUMP JUMPDEST DUP2 DUP2 MSTORE DUP6 PUSH1 0x20 DUP4 DUP6 ADD ADD GT ISZERO PUSH2 0x4534 JUMPI PUSH0 DUP1 REVERT JUMPDEST DUP2 PUSH1 0x20 DUP5 ADD PUSH1 0x20 DUP4 ADD MCOPY PUSH0 SWAP2 DUP2 ADD PUSH1 0x20 ADD SWAP2 SWAP1 SWAP2 MSTORE SWAP5 SWAP4 POP POP POP POP JUMP JUMPDEST PUSH0 DUP3 MLOAD DUP1 PUSH1 0x20 DUP6 ADD DUP5 MCOPY PUSH0 SWAP3 ADD SWAP2 DUP3 MSTORE POP SWAP2 SWAP1 POP JUMP JUMPDEST PUSH0 PUSH1 0x20 DUP3 DUP5 SUB SLT ISZERO PUSH2 0x4577 JUMPI PUSH0 DUP1 REVERT JUMPDEST DUP2 MLOAD DUP1 ISZERO ISZERO DUP2 EQ PUSH2 0x3E71 JUMPI PUSH0 DUP1 REVERT JUMPDEST PUSH1 0x1F DUP3 GT ISZERO PUSH2 0x45CD JUMPI DUP1 PUSH0 MSTORE PUSH1 0x20 PUSH0 KECCAK256 PUSH1 0x1F DUP5 ADD PUSH1 0x5 SHR DUP2 ADD PUSH1 0x20 DUP6 LT ISZERO PUSH2 0x45AB JUMPI POP DUP1 JUMPDEST PUSH1 0x1F DUP5 ADD PUSH1 0x5 SHR DUP3 ADD SWAP2 POP JUMPDEST DUP2 DUP2 LT ISZERO PUSH2 0x45CA JUMPI PUSH0 DUP2 SSTORE PUSH1 0x1 ADD PUSH2 0x45B7 JUMP JUMPDEST POP POP JUMPDEST POP POP POP JUMP JUMPDEST DUP2 MLOAD PUSH8 0xFFFFFFFFFFFFFFFF DUP2 GT ISZERO PUSH2 0x45EC JUMPI PUSH2 0x45EC PUSH2 0x3C89 JUMP JUMPDEST PUSH2 0x4600 DUP2 PUSH2 0x45FA DUP5 SLOAD PUSH2 0x446A JUMP JUMPDEST DUP5 PUSH2 0x4586 JUMP JUMPDEST PUSH1 0x20 DUP1 PUSH1 0x1F DUP4 GT PUSH1 0x1 DUP2 EQ PUSH2 0x4633 JUMPI PUSH0 DUP5 ISZERO PUSH2 0x461C JUMPI POP DUP6 DUP4 ADD MLOAD JUMPDEST PUSH0 NOT PUSH1 0x3 DUP7 SWAP1 SHL SHR NOT AND PUSH1 0x1 DUP6 SWAP1 SHL OR DUP6 SSTORE PUSH2 0x468A JUMP JUMPDEST PUSH0 DUP6 DUP2 MSTORE PUSH1 0x20 DUP2 KECCAK256 PUSH1 0x1F NOT DUP7 AND SWAP2 JUMPDEST DUP3 DUP2 LT ISZERO PUSH2 0x4661 JUMPI DUP9 DUP7 ADD MLOAD DUP3 SSTORE SWAP5 DUP5 ADD SWAP5 PUSH1 0x1 SWAP1 SWAP2 ADD SWAP1 DUP5 ADD PUSH2 0x4642 JUMP JUMPDEST POP DUP6 DUP3 LT ISZERO PUSH2 0x467E JUMPI DUP8 DUP6 ADD MLOAD PUSH0 NOT PUSH1 0x3 DUP9 SWAP1 SHL PUSH1 0xF8 AND SHR NOT AND DUP2 SSTORE JUMPDEST POP POP PUSH1 0x1 DUP5 PUSH1 0x1 SHL ADD DUP6 SSTORE JUMPDEST POP POP POP POP POP POP JUMP JUMPDEST PUSH0 DUP1 DUP4 SLOAD PUSH2 0x469F DUP2 PUSH2 0x446A JUMP JUMPDEST PUSH1 0x1 DUP3 DUP2 AND DUP1 ISZERO PUSH2 0x46B7 JUMPI PUSH1 0x1 DUP2 EQ PUSH2 0x46CC JUMPI PUSH2 0x46F8 JUMP JUMPDEST PUSH1 0xFF NOT DUP5 AND DUP8 MSTORE DUP3 ISZERO ISZERO DUP4 MUL DUP8 ADD SWAP5 POP PUSH2 0x46F8 JUMP JUMPDEST DUP8 PUSH0 MSTORE PUSH1 0x20 DUP1 PUSH0 KECCAK256 PUSH0 JUMPDEST DUP6 DUP2 LT ISZERO PUSH2 0x46EF JUMPI DUP2 SLOAD DUP11 DUP3 ADD MSTORE SWAP1 DUP5 ADD SWAP1 DUP3 ADD PUSH2 0x46D6 JUMP JUMPDEST POP POP POP DUP3 DUP8 ADD SWAP5 POP JUMPDEST POP SWAP3 SWAP7 SWAP6 POP POP POP POP POP POP JUMP JUMPDEST PUSH0 PUSH1 0x20 DUP3 DUP5 SUB SLT ISZERO PUSH2 0x4714 JUMPI PUSH0 DUP1 REVERT JUMPDEST POP MLOAD SWAP2 SWAP1 POP JUMP JUMPDEST PUSH0 PUSH1 0x20 DUP3 DUP5 SUB SLT ISZERO PUSH2 0x472B JUMPI PUSH0 DUP1 REVERT JUMPDEST DUP2 MLOAD PUSH2 0x3E71 DUP2 PUSH2 0x3E3F JUMP JUMPDEST DUP1 DUP3 ADD DUP1 DUP3 GT ISZERO PUSH2 0x4749 JUMPI PUSH2 0x4749 PUSH2 0x44B0 JUMP JUMPDEST SWAP3 SWAP2 POP POP JUMP INVALID LOG2 PUSH5 0x6970667358 0x22 SLT KECCAK256 ADDRESS CREATE CALLDATASIZE SWAP8 0xA9 SWAP6 DUP1 TIMESTAMP 0x24 CALLCODE 0xBC 0xF ISZERO 0xF9 SUB 0xB8 0xEA 0xCF 0x24 BASEFEE 0x28 0x4D SWAP1 0xCA PUSH26 0xCABE03C77D342264736F6C634300081900330000000000000000 "
    },
    "gasEstimates": {
      "creation": {
        "codeDepositCost": "3661800",
        "executionCost": "infinite",
        "totalCost": "infinite"
      },
      "external": {
        "Comment(uint256,address,uint256,string)": "infinite",
        "CommentLike(uint256,uint256)": "57924",
        "PostLike(uint256)": "53446",
        "allFolders(uint256)": "infinite",
        "commentLikes(uint256,uint256,address)": "2790",
        "createFolder(string)": "infinite",
        "createPost(address,string,string,uint256)": "infinite",
        "donateToPost(uint256)": "infinite",
        "folderExists(string)": "infinite",
        "folders(string,uint256)": "infinite",
        "getAllFolders()": "infinite",
        "getCommentLikes(uint256,uint256)": "infinite",
        "getCommentersProfilePhotos(uint256)": "infinite",
        "getExplorePage()": "infinite",
        "getHome(address)": "infinite",
        "getMyPosts()": "infinite",
        "getPostById(uint256)": "infinite",
        "getPostLikes(uint256)": "infinite",
        "getPostsByUser(address)": "infinite",
        "getPostsInFolder(string)": "infinite",
        "getProfilePictures(address[])": "infinite",
        "hasUserSavedPost(address,uint256)": "2661",
        "numberOfPosts()": "2327",
        "postLikes(uint256,address)": "2714",
        "posts(uint256)": "infinite",
        "savePostToFolder(string,uint256,address)": "infinite",
        "socialProfileAddress()": "2425",
        "userPosts(address,uint256)": "4810"
      }
    },
    "methodIdentifiers": {
      "Comment(uint256,address,uint256,string)": "db700dee",
      "CommentLike(uint256,uint256)": "36e23f4c",
      "PostLike(uint256)": "51be0fca",
      "allFolders(uint256)": "3251e563",
      "commentLikes(uint256,uint256,address)": "a008e715",
      "createFolder(string)": "c992c114",
      "createPost(address,string,string,uint256)": "7c64cff1",
      "donateToPost(uint256)": "b68603b6",
      "folderExists(string)": "86b605cb",
      "folders(string,uint256)": "0931ef4c",
      "getAllFolders()": "7a8f102f",
      "getCommentLikes(uint256,uint256)": "eceeca66",
      "getCommentersProfilePhotos(uint256)": "901c9a5d",
      "getExplorePage()": "64b09ec3",
      "getHome(address)": "7a9a33f3",
      "getMyPosts()": "5950eb5b",
      "getPostById(uint256)": "64e95895",
      "getPostLikes(uint256)": "b0b2671d",
      "getPostsByUser(address)": "28538949",
      "getPostsInFolder(string)": "5d29a742",
      "getProfilePictures(address[])": "485cef06",
      "hasUserSavedPost(address,uint256)": "57ce0675",
      "numberOfPosts()": "d9524ee4",
      "postLikes(uint256,address)": "ca1f0cad",
      "posts(uint256)": "0b1e7f83",
      "savePostToFolder(string,uint256,address)": "e3a29428",
      "socialProfileAddress()": "702d3ebb",
      "userPosts(address,uint256)": "8064d149"
    }
  },
  "storageLayout": {
    "storage": [
      {
        "astId": 777,
        "contract": "Post.sol:SocialPosts",
        "label": "posts",
        "offset": 0,
        "slot": "0",
        "type": "t_mapping(t_uint256,t_struct(Post)772_storage)"
      },
      {
        "astId": 783,
        "contract": "Post.sol:SocialPosts",
        "label": "postLikes",
        "offset": 0,
        "slot": "1",
        "type": "t_mapping(t_uint256,t_mapping(t_address,t_bool))"
      },
      {
        "astId": 791,
        "contract": "Post.sol:SocialPosts",
        "label": "commentLikes",
        "offset": 0,
        "slot": "2",
        "type": "t_mapping(t_uint256,t_mapping(t_uint256,t_mapping(t_address,t_bool)))"
      },
      {
        "astId": 796,
        "contract": "Post.sol:SocialPosts",
        "label": "folders",
        "offset": 0,
        "slot": "3",
        "type": "t_mapping(t_string_memory_ptr,t_array(t_uint256)dyn_storage)"
      },
      {
        "astId": 802,
        "contract": "Post.sol:SocialPosts",
        "label": "hasUserSavedPost",
        "offset": 0,
        "slot": "4",
        "type": "t_mapping(t_address,t_mapping(t_uint256,t_bool))"
      },
      {
        "astId": 807,
        "contract": "Post.sol:SocialPosts",
        "label": "userPosts",
        "offset": 0,
        "slot": "5",
        "type": "t_mapping(t_address,t_array(t_uint256)dyn_storage)"
      },
      {
        "astId": 810,
        "contract": "Post.sol:SocialPosts",
        "label": "allFolders",
        "offset": 0,
        "slot": "6",
        "type": "t_array(t_string_storage)dyn_storage"
      },
      {
        "astId": 813,
        "contract": "Post.sol:SocialPosts",
        "label": "numberOfPosts",
        "offset": 0,
        "slot": "7",
        "type": "t_uint256"
      },
      {
        "astId": 815,
        "contract": "Post.sol:SocialPosts",
        "label": "socialProfileAddress",
        "offset": 0,
        "slot": "8",
        "type": "t_address"
      }
    ],
    "types": {
      "t_address": {
        "encoding": "inplace",
        "label": "address",
        "numberOfBytes": "20"
      },
      "t_array(t_address)dyn_storage": {
        "base": "t_address",
        "encoding": "dynamic_array",
        "label": "address[]",
        "numberOfBytes": "32"
      },
      "t_array(t_string_storage)dyn_storage": {
        "base": "t_string_storage",
        "encoding": "dynamic_array",
        "label": "string[]",
        "numberOfBytes": "32"
      },
      "t_array(t_uint256)dyn_storage": {
        "base": "t_uint256",
        "encoding": "dynamic_array",
        "label": "uint256[]",
        "numberOfBytes": "32"
      },
      "t_bool": {
        "encoding": "inplace",
        "label": "bool",
        "numberOfBytes": "1"
      },
      "t_mapping(t_address,t_array(t_uint256)dyn_storage)": {
        "encoding": "mapping",
        "key": "t_address",
        "label": "mapping(address => uint256[])",
        "numberOfBytes": "32",
        "value": "t_array(t_uint256)dyn_storage"
      },
      "t_mapping(t_address,t_bool)": {
        "encoding": "mapping",
        "key": "t_address",
        "label": "mapping(address => bool)",
        "numberOfBytes": "32",
        "value": "t_bool"
      },
      "t_mapping(t_address,t_mapping(t_uint256,t_bool))": {
        "encoding": "mapping",
        "key": "t_address",
        "label": "mapping(address => mapping(uint256 => bool))",
        "numberOfBytes": "32",
        "value": "t_mapping(t_uint256,t_bool)"
      },
      "t_mapping(t_string_memory_ptr,t_array(t_uint256)dyn_storage)": {
        "encoding": "mapping",
        "key": "t_string_memory_ptr",
        "label": "mapping(string => uint256[])",
        "numberOfBytes": "32",
        "value": "t_array(t_uint256)dyn_storage"
      },
      "t_mapping(t_uint256,t_bool)": {
        "encoding": "mapping",
        "key": "t_uint256",
        "label": "mapping(uint256 => bool)",
        "numberOfBytes": "32",
        "value": "t_bool"
      },
      "t_mapping(t_uint256,t_mapping(t_address,t_bool))": {
        "encoding": "mapping",
        "key": "t_uint256",
        "label": "mapping(uint256 => mapping(address => bool))",
        "numberOfBytes": "32",
        "value": "t_mapping(t_address,t_bool)"
      },
      "t_mapping(t_uint256,t_mapping(t_uint256,t_mapping(t_address,t_bool)))": {
        "encoding": "mapping",
        "key": "t_uint256",
        "label": "mapping(uint256 => mapping(uint256 => mapping(address => bool)))",
        "numberOfBytes": "32",
        "value": "t_mapping(t_uint256,t_mapping(t_address,t_bool))"
      },
      "t_mapping(t_uint256,t_struct(Post)772_storage)": {
        "encoding": "mapping",
        "key": "t_uint256",
        "label": "mapping(uint256 => struct SocialPosts.Post)",
        "numberOfBytes": "32",
        "value": "t_struct(Post)772_storage"
      },
      "t_string_memory_ptr": {
        "encoding": "bytes",
        "label": "string",
        "numberOfBytes": "32"
      },
      "t_string_storage": {
        "encoding": "bytes",
        "label": "string",
        "numberOfBytes": "32"
      },
      "t_struct(Post)772_storage": {
        "encoding": "inplace",
        "label": "struct SocialPosts.Post",
        "members": [
          {
            "astId": 742,
            "contract": "Post.sol:SocialPosts",
            "label": "user",
            "offset": 0,
            "slot": "0",
            "type": "t_address"
          },
          {
            "astId": 744,
            "contract": "Post.sol:SocialPosts",
            "label": "postId",
            "offset": 0,
            "slot": "1",
            "type": "t_uint256"
          },
          {
            "astId": 746,
            "contract": "Post.sol:SocialPosts",
            "label": "userName",
            "offset": 0,
            "slot": "2",
            "type": "t_string_storage"
          },
          {
            "astId": 748,
            "contract": "Post.sol:SocialPosts",
            "label": "caption",
            "offset": 0,
            "slot": "3",
            "type": "t_string_storage"
          },
          {
            "astId": 750,
            "contract": "Post.sol:SocialPosts",
            "label": "cidPostPicture",
            "offset": 0,
            "slot": "4",
            "type": "t_string_storage"
          },
          {
            "astId": 752,
            "contract": "Post.sol:SocialPosts",
            "label": "date",
            "offset": 0,
            "slot": "5",
            "type": "t_uint256"
          },
          {
            "astId": 754,
            "contract": "Post.sol:SocialPosts",
            "label": "likeCount",
            "offset": 0,
            "slot": "6",
            "type": "t_uint256"
          },
          {
            "astId": 756,
            "contract": "Post.sol:SocialPosts",
            "label": "totalDonations",
            "offset": 0,
            "slot": "7",
            "type": "t_uint256"
          },
          {
            "astId": 759,
            "contract": "Post.sol:SocialPosts",
            "label": "CommentUser",
            "offset": 0,
            "slot": "8",
            "type": "t_array(t_address)dyn_storage"
          },
          {
            "astId": 762,
            "contract": "Post.sol:SocialPosts",
            "label": "CommentUserName",
            "offset": 0,
            "slot": "9",
            "type": "t_array(t_string_storage)dyn_storage"
          },
          {
            "astId": 765,
            "contract": "Post.sol:SocialPosts",
            "label": "CommentDate",
            "offset": 0,
            "slot": "10",
            "type": "t_array(t_uint256)dyn_storage"
          },
          {
            "astId": 768,
            "contract": "Post.sol:SocialPosts",
            "label": "CommentText",
            "offset": 0,
            "slot": "11",
            "type": "t_array(t_string_storage)dyn_storage"
          },
          {
            "astId": 771,
            "contract": "Post.sol:SocialPosts",
            "label": "CommentLikeCount",
            "offset": 0,
            "slot": "12",
            "type": "t_array(t_uint256)dyn_storage"
          }
        ],
        "numberOfBytes": "416"
      },
      "t_uint256": {
        "encoding": "inplace",
        "label": "uint256",
        "numberOfBytes": "32"
      }
    }
  },
  "userdoc": {
    "kind": "user",
    "methods": {},
    "version": 1
  }
}