{
  "abi": [
    {
      "inputs": [
        {
          "internalType": "address",
          "name": "_socialProfileAddress",
          "type": "address"
        }
      ],
      "stateMutability": "nonpayable",
      "type": "constructor"
    },
    {
      "inputs": [
        {
          "internalType": "address",
          "name": "",
          "type": "address"
        },
        {
          "internalType": "uint256",
          "name": "",
          "type": "uint256"
        }
      ],
      "name": "chatList",
      "outputs": [
        {
          "internalType": "address",
          "name": "",
          "type": "address"
        }
      ],
      "stateMutability": "view",
      "type": "function"
    },
    {
      "inputs": [
        {
          "internalType": "address",
          "name": "",
          "type": "address"
        },
        {
          "internalType": "address",
          "name": "",
          "type": "address"
        }
      ],
      "name": "chats",
      "outputs": [
        {
          "internalType": "address",
          "name": "participant1",
          "type": "address"
        },
        {
          "internalType": "address",
          "name": "participant2",
          "type": "address"
        },
        {
          "internalType": "uint256",
          "name": "unseenCount",
          "type": "uint256"
        }
      ],
      "stateMutability": "view",
      "type": "function"
    },
    {
      "inputs": [],
      "name": "getChatList",
      "outputs": [
        {
          "internalType": "address[]",
          "name": "",
          "type": "address[]"
        },
        {
          "internalType": "string[]",
          "name": "",
          "type": "string[]"
        },
        {
          "internalType": "string[]",
          "name": "",
          "type": "string[]"
        },
        {
          "internalType": "string[]",
          "name": "",
          "type": "string[]"
        },
        {
          "internalType": "uint256[]",
          "name": "",
          "type": "uint256[]"
        }
      ],
      "stateMutability": "view",
      "type": "function"
    },
    {
      "inputs": [
        {
          "internalType": "address",
          "name": "_receiver",
          "type": "address"
        }
      ],
      "name": "getIndividualChat",
      "outputs": [
        {
          "internalType": "string[]",
          "name": "texts",
          "type": "string[]"
        },
        {
          "internalType": "uint256[]",
          "name": "dates",
          "type": "uint256[]"
        },
        {
          "internalType": "bool[]",
          "name": "status",
          "type": "bool[]"
        },
        {
          "internalType": "string[]",
          "name": "senderUsernames",
          "type": "string[]"
        },
        {
          "internalType": "string[]",
          "name": "receiverUsernames",
          "type": "string[]"
        },
        {
          "internalType": "string",
          "name": "senderProfilePicture",
          "type": "string"
        },
        {
          "internalType": "string",
          "name": "recieverProfilePicture",
          "type": "string"
        }
      ],
      "stateMutability": "view",
      "type": "function"
    },
    {
      "inputs": [
        {
          "internalType": "address",
          "name": "_receiver",
          "type": "address"
        }
      ],
      "name": "markMessagesAsSeen",
      "outputs": [],
      "stateMutability": "nonpayable",
      "type": "function"
    },
    {
      "inputs": [
        {
          "internalType": "address",
          "name": "_receiver",
          "type": "address"
        },
        {
          "internalType": "string",
          "name": "_text",
          "type": "string"
        }
      ],
      "name": "sendMessage",
      "outputs": [],
      "stateMutability": "nonpayable",
      "type": "function"
    },
    {
      "inputs": [],
      "name": "socialProfileAddress",
      "outputs": [
        {
          "internalType": "address",
          "name": "",
          "type": "address"
        }
      ],
      "stateMutability": "view",
      "type": "function"
    }
  ],
  "devdoc": {
    "kind": "dev",
    "methods": {},
    "version": 1
  },
  "evm": {
    "assembly": "    /* \"Message.sol\":89:6834  contract SocialMessage {... */\n  mstore(0x40, 0x80)\n    /* \"Message.sol\":677:781  constructor(address _socialProfileAddress) {... */\n  callvalue\n  dup1\n  iszero\n  tag_1\n  jumpi\n  0x00\n  dup1\n  revert\ntag_1:\n  pop\n  mload(0x40)\n  sub(codesize, bytecodeSize)\n  dup1\n  bytecodeSize\n  dup4\n  codecopy\n  dup2\n  add\n  0x40\n  dup2\n  swap1\n  mstore\n  tag_2\n  swap2\n  tag_3\n  jump\t// in\ntag_2:\n    /* \"Message.sol\":730:750  socialProfileAddress */\n  0x02\n    /* \"Message.sol\":730:774  socialProfileAddress = _socialProfileAddress */\n  dup1\n  sload\n  not(sub(shl(0xa0, 0x01), 0x01))\n  and\n  sub(shl(0xa0, 0x01), 0x01)\n  swap3\n  swap1\n  swap3\n  and\n  swap2\n  swap1\n  swap2\n  or\n  swap1\n  sstore\n    /* \"Message.sol\":89:6834  contract SocialMessage {... */\n  jump(tag_7)\n    /* \"#utility.yul\":14:304   */\ntag_3:\n    /* \"#utility.yul\":84:90   */\n  0x00\n    /* \"#utility.yul\":137:139   */\n  0x20\n    /* \"#utility.yul\":125:134   */\n  dup3\n    /* \"#utility.yul\":116:123   */\n  dup5\n    /* \"#utility.yul\":112:135   */\n  sub\n    /* \"#utility.yul\":108:140   */\n  slt\n    /* \"#utility.yul\":105:157   */\n  iszero\n  tag_9\n  jumpi\n    /* \"#utility.yul\":153:154   */\n  0x00\n    /* \"#utility.yul\":150:151   */\n  dup1\n    /* \"#utility.yul\":143:155   */\n  revert\n    /* \"#utility.yul\":105:157   */\ntag_9:\n    /* \"#utility.yul\":179:195   */\n  dup2\n  mload\n  sub(shl(0xa0, 0x01), 0x01)\n    /* \"#utility.yul\":224:255   */\n  dup2\n  and\n    /* \"#utility.yul\":214:256   */\n  dup2\n  eq\n    /* \"#utility.yul\":204:274   */\n  tag_10\n  jumpi\n    /* \"#utility.yul\":270:271   */\n  0x00\n    /* \"#utility.yul\":267:268   */\n  dup1\n    /* \"#utility.yul\":260:272   */\n  revert\n    /* \"#utility.yul\":204:274   */\ntag_10:\n    /* \"#utility.yul\":293:298   */\n  swap4\n    /* \"#utility.yul\":14:304   */\n  swap3\n  pop\n  pop\n  pop\n  jump\t// out\ntag_7:\n    /* \"Message.sol\":89:6834  contract SocialMessage {... */\n  dataSize(sub_0)\n  dup1\n  dataOffset(sub_0)\n  0x00\n  codecopy\n  0x00\n  return\nstop\n\nsub_0: assembly {\n        /* \"Message.sol\":89:6834  contract SocialMessage {... */\n      mstore(0x40, 0x80)\n      callvalue\n      dup1\n      iszero\n      tag_1\n      jumpi\n      0x00\n      dup1\n      revert\n    tag_1:\n      pop\n      jumpi(tag_2, lt(calldatasize, 0x04))\n      shr(0xe0, calldataload(0x00))\n      dup1\n      0x7d6de736\n      gt\n      tag_10\n      jumpi\n      dup1\n      0x7d6de736\n      eq\n      tag_6\n      jumpi\n      dup1\n      0x83947039\n      eq\n      tag_7\n      jumpi\n      dup1\n      0xc8a3f1cf\n      eq\n      tag_8\n      jumpi\n      dup1\n      0xde6f24bb\n      eq\n      tag_9\n      jumpi\n      0x00\n      dup1\n      revert\n    tag_10:\n      dup1\n      0x2075ec89\n      eq\n      tag_3\n      jumpi\n      dup1\n      0x2f2c17b0\n      eq\n      tag_4\n      jumpi\n      dup1\n      0x702d3ebb\n      eq\n      tag_5\n      jumpi\n    tag_2:\n      0x00\n      dup1\n      revert\n        /* \"Message.sol\":584:629  mapping(address => address[]) public chatList */\n    tag_3:\n      tag_11\n      tag_12\n      calldatasize\n      0x04\n      tag_13\n      jump\t// in\n    tag_12:\n      tag_14\n      jump\t// in\n    tag_11:\n      mload(0x40)\n      sub(shl(0xa0, 0x01), 0x01)\n        /* \"#utility.yul\":638:693   */\n      swap1\n      swap2\n      and\n        /* \"#utility.yul\":620:694   */\n      dup2\n      mstore\n        /* \"#utility.yul\":608:610   */\n      0x20\n        /* \"#utility.yul\":593:611   */\n      add\n        /* \"Message.sol\":584:629  mapping(address => address[]) public chatList */\n    tag_15:\n      mload(0x40)\n      dup1\n      swap2\n      sub\n      swap1\n      return\n        /* \"Message.sol\":6315:6832  function markMessagesAsSeen(address _receiver) public {... */\n    tag_4:\n      tag_17\n      tag_18\n      calldatasize\n      0x04\n      tag_19\n      jump\t// in\n    tag_18:\n      tag_20\n      jump\t// in\n    tag_17:\n      stop\n        /* \"Message.sol\":635:670  address public socialProfileAddress */\n    tag_5:\n      sload(0x02)\n      tag_11\n      swap1\n      sub(shl(0xa0, 0x01), 0x01)\n      and\n      dup2\n      jump\n        /* \"Message.sol\":521:578  mapping(address => mapping(address => Chat)) public chats */\n    tag_6:\n      tag_24\n      tag_25\n      calldatasize\n      0x04\n      tag_26\n      jump\t// in\n    tag_25:\n      0x00\n      0x20\n      dup2\n      dup2\n      mstore\n      swap3\n      dup2\n      mstore\n      0x40\n      dup1\n      dup3\n      keccak256\n      swap1\n      swap4\n      mstore\n      swap1\n      dup2\n      mstore\n      keccak256\n      dup1\n      sload\n      0x01\n      dup3\n      add\n      sload\n      0x03\n      swap1\n      swap3\n      add\n      sload\n      sub(shl(0xa0, 0x01), 0x01)\n      swap2\n      dup3\n      and\n      swap3\n      swap1\n      swap2\n      and\n      swap1\n      dup4\n      jump\n    tag_24:\n      0x40\n      dup1\n      mload\n      sub(shl(0xa0, 0x01), 0x01)\n        /* \"#utility.yul\":1442:1457   */\n      swap5\n      dup6\n      and\n        /* \"#utility.yul\":1424:1458   */\n      dup2\n      mstore\n        /* \"#utility.yul\":1494:1509   */\n      swap4\n      swap1\n      swap3\n      and\n        /* \"#utility.yul\":1489:1491   */\n      0x20\n        /* \"#utility.yul\":1474:1492   */\n      dup5\n      add\n        /* \"#utility.yul\":1467:1510   */\n      mstore\n        /* \"#utility.yul\":1526:1544   */\n      swap1\n      dup3\n      add\n        /* \"#utility.yul\":1519:1553   */\n      mstore\n        /* \"#utility.yul\":1351:1353   */\n      0x60\n        /* \"#utility.yul\":1336:1354   */\n      add\n        /* \"Message.sol\":521:578  mapping(address => mapping(address => Chat)) public chats */\n      tag_15\n        /* \"#utility.yul\":1161:1559   */\n      jump\n        /* \"Message.sol\":4062:6265  function getIndividualChat(address _receiver)... */\n    tag_7:\n      tag_30\n      tag_31\n      calldatasize\n      0x04\n      tag_19\n      jump\t// in\n    tag_31:\n      tag_32\n      jump\t// in\n    tag_30:\n      mload(0x40)\n      tag_15\n      swap8\n      swap7\n      swap6\n      swap5\n      swap4\n      swap3\n      swap2\n      swap1\n      tag_34\n      jump\t// in\n        /* \"Message.sol\":2534:4012  function getChatList()... */\n    tag_8:\n      tag_35\n      tag_36\n      jump\t// in\n    tag_35:\n      mload(0x40)\n      tag_15\n      swap6\n      swap5\n      swap4\n      swap3\n      swap2\n      swap1\n      tag_38\n      jump\t// in\n        /* \"Message.sol\":855:2476  function sendMessage(address _receiver, string memory _text) public {... */\n    tag_9:\n      tag_17\n      tag_40\n      calldatasize\n      0x04\n      tag_41\n      jump\t// in\n    tag_40:\n      tag_42\n      jump\t// in\n        /* \"Message.sol\":584:629  mapping(address => address[]) public chatList */\n    tag_14:\n      mstore(0x20, 0x01)\n      dup2\n      0x00\n      mstore\n      keccak256(0x00, 0x40)\n      dup2\n      dup2\n      sload\n      dup2\n      lt\n      tag_43\n      jumpi\n      0x00\n      dup1\n      revert\n    tag_43:\n      0x00\n      swap2\n      dup3\n      mstore\n      0x20\n      swap1\n      swap2\n      keccak256\n      add\n      sload\n      sub(shl(0xa0, 0x01), 0x01)\n      and\n      swap2\n      pop\n      dup3\n      swap1\n      pop\n      jump\t// out\n        /* \"Message.sol\":6315:6832  function markMessagesAsSeen(address _receiver) public {... */\n    tag_20:\n        /* \"Message.sol\":6417:6437  socialProfileAddress */\n      sload(0x02)\n        /* \"Message.sol\":6457:6490  profile.checkUserExist(_receiver) */\n      mload(0x40)\n      shl(0xe0, 0x926bef63)\n      dup2\n      mstore\n      sub(shl(0xa0, 0x01), 0x01)\n        /* \"#utility.yul\":638:693   */\n      dup4\n      dup2\n      and\n        /* \"Message.sol\":6457:6490  profile.checkUserExist(_receiver) */\n      0x04\n      dup4\n      add\n        /* \"#utility.yul\":620:694   */\n      mstore\n        /* \"Message.sol\":6417:6437  socialProfileAddress */\n      swap1\n      swap2\n      and\n      swap1\n      dup2\n      swap1\n        /* \"Message.sol\":6457:6479  profile.checkUserExist */\n      0x926bef63\n      swap1\n        /* \"#utility.yul\":593:611   */\n      0x24\n      add\n        /* \"Message.sol\":6457:6490  profile.checkUserExist(_receiver) */\n      0x20\n      mload(0x40)\n      dup1\n      dup4\n      sub\n      dup2\n      dup7\n      gas\n      staticcall\n      iszero\n      dup1\n      iszero\n      tag_48\n      jumpi\n      returndatasize\n      0x00\n      dup1\n      returndatacopy\n      revert(0x00, returndatasize)\n    tag_48:\n      pop\n      pop\n      pop\n      pop\n      mload(0x40)\n      returndatasize\n      not(0x1f)\n      0x1f\n      dup3\n      add\n      and\n      dup3\n      add\n      dup1\n      0x40\n      mstore\n      pop\n      dup2\n      add\n      swap1\n      tag_49\n      swap2\n      swap1\n      tag_50\n      jump\t// in\n    tag_49:\n        /* \"Message.sol\":6449:6518  require(profile.checkUserExist(_receiver), \"Receiver does not exist\") */\n      tag_51\n      jumpi\n      mload(0x40)\n      shl(0xe5, 0x461bcd)\n      dup2\n      mstore\n        /* \"#utility.yul\":8069:8071   */\n      0x20\n        /* \"Message.sol\":6449:6518  require(profile.checkUserExist(_receiver), \"Receiver does not exist\") */\n      0x04\n      dup3\n      add\n        /* \"#utility.yul\":8051:8072   */\n      mstore\n        /* \"#utility.yul\":8108:8110   */\n      0x17\n        /* \"#utility.yul\":8088:8106   */\n      0x24\n      dup3\n      add\n        /* \"#utility.yul\":8081:8111   */\n      mstore\n        /* \"#utility.yul\":8147:8172   */\n      0x526563656976657220646f6573206e6f74206578697374000000000000000000\n        /* \"#utility.yul\":8127:8145   */\n      0x44\n      dup3\n      add\n        /* \"#utility.yul\":8120:8173   */\n      mstore\n        /* \"#utility.yul\":8190:8208   */\n      0x64\n      add\n        /* \"Message.sol\":6449:6518  require(profile.checkUserExist(_receiver), \"Receiver does not exist\") */\n    tag_52:\n      mload(0x40)\n      dup1\n      swap2\n      sub\n      swap1\n      revert\n    tag_51:\n        /* \"Message.sol\":6555:6565  msg.sender */\n      caller\n        /* \"Message.sol\":6529:6546  Chat storage chat */\n      0x00\n        /* \"Message.sol\":6549:6566  chats[msg.sender] */\n      swap1\n      dup2\n      mstore\n      0x20\n      dup2\n      dup2\n      mstore\n      0x40\n      dup1\n      dup4\n      keccak256\n      sub(shl(0xa0, 0x01), 0x01)\n        /* \"Message.sol\":6549:6577  chats[msg.sender][_receiver] */\n      dup7\n      and\n      dup5\n      mstore\n      swap1\n      swap2\n      mstore\n      dup2\n      keccak256\n      swap1\n        /* \"Message.sol\":6587:6765  for (uint256 i = 0; i < chat.messages.length; i++) {... */\n    tag_54:\n        /* \"Message.sol\":6611:6624  chat.messages */\n      0x02\n      dup3\n      add\n        /* \"Message.sol\":6611:6631  chat.messages.length */\n      sload\n        /* \"Message.sol\":6607:6631  i < chat.messages.length */\n      dup2\n      lt\n        /* \"Message.sol\":6587:6765  for (uint256 i = 0; i < chat.messages.length; i++) {... */\n      iszero\n      tag_55\n      jumpi\n        /* \"Message.sol\":6683:6692  _receiver */\n      dup4\n      sub(shl(0xa0, 0x01), 0x01)\n        /* \"Message.sol\":6656:6692  chat.messages[i].sender == _receiver */\n      and\n        /* \"Message.sol\":6656:6660  chat */\n      dup3\n        /* \"Message.sol\":6656:6669  chat.messages */\n      0x02\n      add\n        /* \"Message.sol\":6670:6671  i */\n      dup3\n        /* \"Message.sol\":6656:6672  chat.messages[i] */\n      dup2\n      sload\n      dup2\n      lt\n      tag_58\n      jumpi\n      tag_58\n      tag_59\n      jump\t// in\n    tag_58:\n      0x00\n      swap2\n      dup3\n      mstore\n      0x20\n      swap1\n      swap2\n      keccak256\n      0x04\n      swap1\n      swap2\n      mul\n      add\n        /* \"Message.sol\":6656:6679  chat.messages[i].sender */\n      sload\n      sub(shl(0xa0, 0x01), 0x01)\n      and\n        /* \"Message.sol\":6656:6692  chat.messages[i].sender == _receiver */\n      sub\n        /* \"Message.sol\":6652:6755  if (chat.messages[i].sender == _receiver) {... */\n      tag_61\n      jumpi\n        /* \"Message.sol\":6736:6740  true */\n      0x01\n        /* \"Message.sol\":6712:6716  chat */\n      dup3\n        /* \"Message.sol\":6712:6725  chat.messages */\n      0x02\n      add\n        /* \"Message.sol\":6726:6727  i */\n      dup3\n        /* \"Message.sol\":6712:6728  chat.messages[i] */\n      dup2\n      sload\n      dup2\n      lt\n      tag_63\n      jumpi\n      tag_63\n      tag_59\n      jump\t// in\n    tag_63:\n      swap1\n      0x00\n      mstore\n      keccak256(0x00, 0x20)\n      swap1\n      0x04\n      mul\n      add\n        /* \"Message.sol\":6712:6733  chat.messages[i].seen */\n      0x03\n      add\n      0x01\n        /* \"Message.sol\":6712:6740  chat.messages[i].seen = true */\n      0x0100\n      exp\n      dup2\n      sload\n      dup2\n      0xff\n      mul\n      not\n      and\n      swap1\n      dup4\n      iszero\n      iszero\n      mul\n      or\n      swap1\n      sstore\n      pop\n        /* \"Message.sol\":6652:6755  if (chat.messages[i].sender == _receiver) {... */\n    tag_61:\n        /* \"Message.sol\":6633:6636  i++ */\n      0x01\n      add\n        /* \"Message.sol\":6587:6765  for (uint256 i = 0; i < chat.messages.length; i++) {... */\n      jump(tag_54)\n    tag_55:\n      pop\n        /* \"Message.sol\":6824:6825  0 */\n      0x00\n        /* \"Message.sol\":6805:6821  chat.unseenCount */\n      0x03\n      swap1\n      swap2\n      add\n        /* \"Message.sol\":6805:6825  chat.unseenCount = 0 */\n      sstore\n      pop\n      pop\n        /* \"Message.sol\":6315:6832  function markMessagesAsSeen(address _receiver) public {... */\n      jump\t// out\n        /* \"Message.sol\":4062:6265  function getIndividualChat(address _receiver)... */\n    tag_32:\n        /* \"Message.sol\":4510:4530  socialProfileAddress */\n      sload(0x02)\n        /* \"Message.sol\":4550:4583  profile.checkUserExist(_receiver) */\n      mload(0x40)\n      shl(0xe0, 0x926bef63)\n      dup2\n      mstore\n      sub(shl(0xa0, 0x01), 0x01)\n        /* \"#utility.yul\":638:693   */\n      dup4\n      dup2\n      and\n        /* \"Message.sol\":4550:4583  profile.checkUserExist(_receiver) */\n      0x04\n      dup4\n      add\n        /* \"#utility.yul\":620:694   */\n      mstore\n        /* \"Message.sol\":4166:4187  string[] memory texts */\n      0x60\n      swap3\n      dup4\n      swap3\n      dup4\n      swap3\n      dup4\n      swap3\n      dup4\n      swap3\n      dup4\n      swap3\n      dup4\n      swap3\n        /* \"Message.sol\":4510:4530  socialProfileAddress */\n      and\n      swap1\n      dup2\n      swap1\n        /* \"Message.sol\":4550:4572  profile.checkUserExist */\n      0x926bef63\n      swap1\n        /* \"#utility.yul\":593:611   */\n      0x24\n      add\n        /* \"Message.sol\":4550:4583  profile.checkUserExist(_receiver) */\n      0x20\n      mload(0x40)\n      dup1\n      dup4\n      sub\n      dup2\n      dup7\n      gas\n      staticcall\n      iszero\n      dup1\n      iszero\n      tag_68\n      jumpi\n      returndatasize\n      0x00\n      dup1\n      returndatacopy\n      revert(0x00, returndatasize)\n    tag_68:\n      pop\n      pop\n      pop\n      pop\n      mload(0x40)\n      returndatasize\n      not(0x1f)\n      0x1f\n      dup3\n      add\n      and\n      dup3\n      add\n      dup1\n      0x40\n      mstore\n      pop\n      dup2\n      add\n      swap1\n      tag_69\n      swap2\n      swap1\n      tag_50\n      jump\t// in\n    tag_69:\n        /* \"Message.sol\":4542:4611  require(profile.checkUserExist(_receiver), \"Receiver does not exist\") */\n      tag_70\n      jumpi\n      mload(0x40)\n      shl(0xe5, 0x461bcd)\n      dup2\n      mstore\n        /* \"#utility.yul\":8069:8071   */\n      0x20\n        /* \"Message.sol\":4542:4611  require(profile.checkUserExist(_receiver), \"Receiver does not exist\") */\n      0x04\n      dup3\n      add\n        /* \"#utility.yul\":8051:8072   */\n      mstore\n        /* \"#utility.yul\":8108:8110   */\n      0x17\n        /* \"#utility.yul\":8088:8106   */\n      0x24\n      dup3\n      add\n        /* \"#utility.yul\":8081:8111   */\n      mstore\n        /* \"#utility.yul\":8147:8172   */\n      0x526563656976657220646f6573206e6f74206578697374000000000000000000\n        /* \"#utility.yul\":8127:8145   */\n      0x44\n      dup3\n      add\n        /* \"#utility.yul\":8120:8173   */\n      mstore\n        /* \"#utility.yul\":8190:8208   */\n      0x64\n      add\n        /* \"Message.sol\":4542:4611  require(profile.checkUserExist(_receiver), \"Receiver does not exist\") */\n      tag_52\n        /* \"#utility.yul\":7867:8214   */\n      jump\n        /* \"Message.sol\":4542:4611  require(profile.checkUserExist(_receiver), \"Receiver does not exist\") */\n    tag_70:\n        /* \"Message.sol\":4632:4642  msg.sender */\n      caller\n        /* \"Message.sol\":4679:4680  0 */\n      0x00\n        /* \"Message.sol\":4626:4643  chats[msg.sender] */\n      swap1\n      dup2\n      mstore\n      0x20\n      dup2\n      dup2\n      mstore\n      0x40\n      dup1\n      dup4\n      keccak256\n      sub(shl(0xa0, 0x01), 0x01)\n        /* \"Message.sol\":4626:4654  chats[msg.sender][_receiver] */\n      dup14\n      dup2\n      and\n      dup6\n      mstore\n      swap3\n      mstore\n      swap1\n      swap2\n      keccak256\n        /* \"Message.sol\":4626:4667  chats[msg.sender][_receiver].participant1 */\n      sload\n      and\n        /* \"Message.sol\":4622:4933  if (chats[msg.sender][_receiver].participant1 == address(0)) {... */\n      tag_72\n      jumpi\n        /* \"Message.sol\":4722:4737  new string[](0) */\n      0x40\n      dup1\n      mload\n        /* \"Message.sol\":4735:4736  0 */\n      0x00\n        /* \"Message.sol\":4722:4737  new string[](0) */\n      dup1\n      dup3\n      mstore\n      0x20\n      dup3\n      add\n      swap1\n      swap3\n      mstore\n      swap1\n      jump(tag_76)\n    tag_77:\n      0x60\n      dup2\n      mstore\n      0x20\n      add\n      swap1\n      0x01\n      swap1\n      sub\n      swap1\n      dup2\n      tag_77\n      jumpi\n      swap1\n      pop\n    tag_76:\n      pop\n        /* \"Message.sol\":4755:4771  new uint256[](0) */\n      0x40\n      dup1\n      mload\n        /* \"Message.sol\":4769:4770  0 */\n      0x00\n        /* \"Message.sol\":4755:4771  new uint256[](0) */\n      dup1\n      dup3\n      mstore\n      0x20\n      dup3\n      add\n        /* \"Message.sol\":4789:4802  new bool[](0) */\n      dup2\n      dup2\n      mstore\n      dup3\n      dup5\n      add\n        /* \"Message.sol\":4820:4835  new string[](0) */\n      dup3\n      dup2\n      mstore\n      0x60\n      dup5\n      add\n      swap1\n      swap5\n      mstore\n        /* \"Message.sol\":4755:4771  new uint256[](0) */\n      swap2\n      swap3\n        /* \"Message.sol\":4789:4802  new bool[](0) */\n      swap1\n        /* \"Message.sol\":4820:4835  new string[](0) */\n      jump(tag_86)\n    tag_87:\n      0x60\n      dup2\n      mstore\n      0x20\n      add\n      swap1\n      0x01\n      swap1\n      sub\n      swap1\n      dup2\n      tag_87\n      jumpi\n      swap1\n      pop\n    tag_86:\n      pop\n        /* \"Message.sol\":4853:4868  new string[](0) */\n      0x40\n      dup1\n      mload\n        /* \"Message.sol\":4866:4867  0 */\n      0x00\n        /* \"Message.sol\":4853:4868  new string[](0) */\n      dup1\n      dup3\n      mstore\n      0x20\n      dup3\n      add\n      swap1\n      swap3\n      mstore\n      swap1\n      jump(tag_90)\n    tag_91:\n      0x60\n      dup2\n      mstore\n      0x20\n      add\n      swap1\n      0x01\n      swap1\n      sub\n      swap1\n      dup2\n      tag_91\n      jumpi\n      swap1\n      pop\n    tag_90:\n      pop\n        /* \"Message.sol\":4697:4922  return (... */\n      mload(0x40)\n      dup1\n      0x20\n      add\n      0x40\n      mstore\n      dup1\n      0x00\n      dup2\n      mstore\n      pop\n      mload(0x40)\n      dup1\n      0x20\n      add\n      0x40\n      mstore\n      dup1\n      0x00\n      dup2\n      mstore\n      pop\n      swap8\n      pop\n      swap8\n      pop\n      swap8\n      pop\n      swap8\n      pop\n      swap8\n      pop\n      swap8\n      pop\n      swap8\n      pop\n      pop\n      jump(tag_65)\n        /* \"Message.sol\":4622:4933  if (chats[msg.sender][_receiver].participant1 == address(0)) {... */\n    tag_72:\n        /* \"Message.sol\":4969:4979  msg.sender */\n      caller\n        /* \"Message.sol\":4943:4960  Chat storage chat */\n      0x00\n        /* \"Message.sol\":4963:4980  chats[msg.sender] */\n      swap1\n      dup2\n      mstore\n      0x20\n      dup2\n      dup2\n      mstore\n      0x40\n      dup1\n      dup4\n      keccak256\n      sub(shl(0xa0, 0x01), 0x01)\n        /* \"Message.sol\":4963:4991  chats[msg.sender][_receiver] */\n      dup14\n      and\n      dup5\n      mstore\n      swap1\n      swap2\n      mstore\n      swap1\n      keccak256\n        /* \"Message.sol\":5024:5037  chat.messages */\n      0x02\n      dup2\n      add\n        /* \"Message.sol\":5024:5044  chat.messages.length */\n      sload\n      dup1\n        /* \"Message.sol\":5092:5118  new string[](messageCount) */\n      0xffffffffffffffff\n      dup2\n      gt\n      iszero\n      tag_93\n      jumpi\n      tag_93\n      tag_75\n      jump\t// in\n    tag_93:\n      mload(0x40)\n      swap1\n      dup1\n      dup3\n      mstore\n      dup1\n      0x20\n      mul\n      0x20\n      add\n      dup3\n      add\n      0x40\n      mstore\n      dup1\n      iszero\n      tag_94\n      jumpi\n      dup2\n      0x20\n      add\n    tag_95:\n      0x60\n      dup2\n      mstore\n      0x20\n      add\n      swap1\n      0x01\n      swap1\n      sub\n      swap1\n      dup2\n      tag_95\n      jumpi\n      swap1\n      pop\n    tag_94:\n      pop\n        /* \"Message.sol\":5084:5118  texts = new string[](messageCount) */\n      swap10\n      pop\n        /* \"Message.sol\":5150:5162  messageCount */\n      dup1\n        /* \"Message.sol\":5136:5163  new uint256[](messageCount) */\n      0xffffffffffffffff\n      dup2\n      gt\n      iszero\n      tag_97\n      jumpi\n      tag_97\n      tag_75\n      jump\t// in\n    tag_97:\n      mload(0x40)\n      swap1\n      dup1\n      dup3\n      mstore\n      dup1\n      0x20\n      mul\n      0x20\n      add\n      dup3\n      add\n      0x40\n      mstore\n      dup1\n      iszero\n      tag_98\n      jumpi\n      dup2\n      0x20\n      add\n      0x20\n      dup3\n      mul\n      dup1\n      calldatasize\n      dup4\n      calldatacopy\n      add\n      swap1\n      pop\n    tag_98:\n      pop\n        /* \"Message.sol\":5128:5163  dates = new uint256[](messageCount) */\n      swap9\n      pop\n        /* \"Message.sol\":5193:5205  messageCount */\n      dup1\n        /* \"Message.sol\":5182:5206  new bool[](messageCount) */\n      0xffffffffffffffff\n      dup2\n      gt\n      iszero\n      tag_100\n      jumpi\n      tag_100\n      tag_75\n      jump\t// in\n    tag_100:\n      mload(0x40)\n      swap1\n      dup1\n      dup3\n      mstore\n      dup1\n      0x20\n      mul\n      0x20\n      add\n      dup3\n      add\n      0x40\n      mstore\n      dup1\n      iszero\n      tag_101\n      jumpi\n      dup2\n      0x20\n      add\n      0x20\n      dup3\n      mul\n      dup1\n      calldatasize\n      dup4\n      calldatacopy\n      add\n      swap1\n      pop\n    tag_101:\n      pop\n        /* \"Message.sol\":5173:5206  status = new bool[](messageCount) */\n      swap8\n      pop\n        /* \"Message.sol\":5247:5259  messageCount */\n      dup1\n        /* \"Message.sol\":5234:5260  new string[](messageCount) */\n      0xffffffffffffffff\n      dup2\n      gt\n      iszero\n      tag_103\n      jumpi\n      tag_103\n      tag_75\n      jump\t// in\n    tag_103:\n      mload(0x40)\n      swap1\n      dup1\n      dup3\n      mstore\n      dup1\n      0x20\n      mul\n      0x20\n      add\n      dup3\n      add\n      0x40\n      mstore\n      dup1\n      iszero\n      tag_104\n      jumpi\n      dup2\n      0x20\n      add\n    tag_105:\n      0x60\n      dup2\n      mstore\n      0x20\n      add\n      swap1\n      0x01\n      swap1\n      sub\n      swap1\n      dup2\n      tag_105\n      jumpi\n      swap1\n      pop\n    tag_104:\n      pop\n        /* \"Message.sol\":5216:5260  senderUsernames = new string[](messageCount) */\n      swap7\n      pop\n        /* \"Message.sol\":5303:5315  messageCount */\n      dup1\n        /* \"Message.sol\":5290:5316  new string[](messageCount) */\n      0xffffffffffffffff\n      dup2\n      gt\n      iszero\n      tag_107\n      jumpi\n      tag_107\n      tag_75\n      jump\t// in\n    tag_107:\n      mload(0x40)\n      swap1\n      dup1\n      dup3\n      mstore\n      dup1\n      0x20\n      mul\n      0x20\n      add\n      dup3\n      add\n      0x40\n      mstore\n      dup1\n      iszero\n      tag_108\n      jumpi\n      dup2\n      0x20\n      add\n    tag_109:\n      0x60\n      dup2\n      mstore\n      0x20\n      add\n      swap1\n      0x01\n      swap1\n      sub\n      swap1\n      dup2\n      tag_109\n      jumpi\n      swap1\n      pop\n    tag_108:\n      pop\n        /* \"Message.sol\":5350:5382  profile.profilePhoto(msg.sender) */\n      mload(0x40)\n      shl(0xe0, 0xfbf31669)\n      dup2\n      mstore\n        /* \"Message.sol\":5371:5381  msg.sender */\n      caller\n        /* \"Message.sol\":5350:5382  profile.profilePhoto(msg.sender) */\n      0x04\n      dup3\n      add\n        /* \"#utility.yul\":620:694   */\n      mstore\n        /* \"Message.sol\":5270:5316  receiverUsernames = new string[](messageCount) */\n      swap1\n      swap7\n      pop\n      sub(shl(0xa0, 0x01), 0x01)\n        /* \"Message.sol\":5350:5370  profile.profilePhoto */\n      dup5\n      and\n      swap1\n      0xfbf31669\n      swap1\n        /* \"#utility.yul\":593:611   */\n      0x24\n      add\n        /* \"Message.sol\":5350:5382  profile.profilePhoto(msg.sender) */\n      0x00\n      mload(0x40)\n      dup1\n      dup4\n      sub\n      dup2\n      dup7\n      gas\n      staticcall\n      iszero\n      dup1\n      iszero\n      tag_112\n      jumpi\n      returndatasize\n      0x00\n      dup1\n      returndatacopy\n      revert(0x00, returndatasize)\n    tag_112:\n      pop\n      pop\n      pop\n      pop\n      mload(0x40)\n      returndatasize\n      0x00\n      dup3\n      returndatacopy\n      0x1f\n      returndatasize\n      swap1\n      dup2\n      add\n      not(0x1f)\n      and\n      dup3\n      add\n      0x40\n      mstore\n      tag_113\n      swap2\n      swap1\n      dup2\n      add\n      swap1\n      tag_114\n      jump\t// in\n    tag_113:\n        /* \"Message.sol\":5417:5448  profile.profilePhoto(_receiver) */\n      mload(0x40)\n      shl(0xe0, 0xfbf31669)\n      dup2\n      mstore\n      sub(shl(0xa0, 0x01), 0x01)\n        /* \"#utility.yul\":638:693   */\n      dup14\n      dup2\n      and\n        /* \"Message.sol\":5417:5448  profile.profilePhoto(_receiver) */\n      0x04\n      dup4\n      add\n        /* \"#utility.yul\":620:694   */\n      mstore\n        /* \"Message.sol\":5327:5382  senderProfilePicture = profile.profilePhoto(msg.sender) */\n      swap2\n      swap7\n      pop\n        /* \"Message.sol\":5417:5437  profile.profilePhoto */\n      swap1\n      dup5\n      and\n      swap1\n      0xfbf31669\n      swap1\n        /* \"#utility.yul\":593:611   */\n      0x24\n      add\n        /* \"Message.sol\":5417:5448  profile.profilePhoto(_receiver) */\n      0x00\n      mload(0x40)\n      dup1\n      dup4\n      sub\n      dup2\n      dup7\n      gas\n      staticcall\n      iszero\n      dup1\n      iszero\n      tag_117\n      jumpi\n      returndatasize\n      0x00\n      dup1\n      returndatacopy\n      revert(0x00, returndatasize)\n    tag_117:\n      pop\n      pop\n      pop\n      pop\n      mload(0x40)\n      returndatasize\n      0x00\n      dup3\n      returndatacopy\n      0x1f\n      returndatasize\n      swap1\n      dup2\n      add\n      not(0x1f)\n      and\n      dup3\n      add\n      0x40\n      mstore\n      tag_118\n      swap2\n      swap1\n      dup2\n      add\n      swap1\n      tag_114\n      jump\t// in\n    tag_118:\n        /* \"Message.sol\":5392:5448  recieverProfilePicture = profile.profilePhoto(_receiver) */\n      swap4\n      pop\n        /* \"Message.sol\":5464:5473  uint256 i */\n      0x00\n        /* \"Message.sol\":5459:6043  for (uint256 i = 0; i < messageCount; i++) {... */\n    tag_119:\n        /* \"Message.sol\":5483:5495  messageCount */\n      dup2\n        /* \"Message.sol\":5479:5480  i */\n      dup2\n        /* \"Message.sol\":5479:5495  i < messageCount */\n      lt\n        /* \"Message.sol\":5459:6043  for (uint256 i = 0; i < messageCount; i++) {... */\n      iszero\n      tag_120\n      jumpi\n        /* \"Message.sol\":5527:5531  chat */\n      dup3\n        /* \"Message.sol\":5527:5540  chat.messages */\n      0x02\n      add\n        /* \"Message.sol\":5541:5542  i */\n      dup2\n        /* \"Message.sol\":5527:5543  chat.messages[i] */\n      dup2\n      sload\n      dup2\n      lt\n      tag_123\n      jumpi\n      tag_123\n      tag_59\n      jump\t// in\n    tag_123:\n      swap1\n      0x00\n      mstore\n      keccak256(0x00, 0x20)\n      swap1\n      0x04\n      mul\n      add\n        /* \"Message.sol\":5527:5548  chat.messages[i].text */\n      0x01\n      add\n        /* \"Message.sol\":5516:5548  texts[i] = chat.messages[i].text */\n      dup1\n      sload\n      tag_125\n      swap1\n      tag_126\n      jump\t// in\n    tag_125:\n      dup1\n      0x1f\n      add\n      0x20\n      dup1\n      swap2\n      div\n      mul\n      0x20\n      add\n      mload(0x40)\n      swap1\n      dup2\n      add\n      0x40\n      mstore\n      dup1\n      swap3\n      swap2\n      swap1\n      dup2\n      dup2\n      mstore\n      0x20\n      add\n      dup3\n      dup1\n      sload\n      tag_127\n      swap1\n      tag_126\n      jump\t// in\n    tag_127:\n      dup1\n      iszero\n      tag_128\n      jumpi\n      dup1\n      0x1f\n      lt\n      tag_129\n      jumpi\n      0x0100\n      dup1\n      dup4\n      sload\n      div\n      mul\n      dup4\n      mstore\n      swap2\n      0x20\n      add\n      swap2\n      jump(tag_128)\n    tag_129:\n      dup3\n      add\n      swap2\n      swap1\n      0x00\n      mstore\n      keccak256(0x00, 0x20)\n      swap1\n    tag_130:\n      dup2\n      sload\n      dup2\n      mstore\n      swap1\n      0x01\n      add\n      swap1\n      0x20\n      add\n      dup1\n      dup4\n      gt\n      tag_130\n      jumpi\n      dup3\n      swap1\n      sub\n      0x1f\n      and\n      dup3\n      add\n      swap2\n    tag_128:\n      pop\n      pop\n      pop\n      pop\n      pop\n        /* \"Message.sol\":5516:5521  texts */\n      dup12\n        /* \"Message.sol\":5522:5523  i */\n      dup3\n        /* \"Message.sol\":5516:5524  texts[i] */\n      dup2\n      mload\n      dup2\n      lt\n      tag_132\n      jumpi\n      tag_132\n      tag_59\n      jump\t// in\n    tag_132:\n      0x20\n      mul\n      0x20\n      add\n      add\n        /* \"Message.sol\":5516:5548  texts[i] = chat.messages[i].text */\n      dup2\n      swap1\n      mstore\n      pop\n        /* \"Message.sol\":5573:5577  chat */\n      dup3\n        /* \"Message.sol\":5573:5586  chat.messages */\n      0x02\n      add\n        /* \"Message.sol\":5587:5588  i */\n      dup2\n        /* \"Message.sol\":5573:5589  chat.messages[i] */\n      dup2\n      sload\n      dup2\n      lt\n      tag_134\n      jumpi\n      tag_134\n      tag_59\n      jump\t// in\n    tag_134:\n      swap1\n      0x00\n      mstore\n      keccak256(0x00, 0x20)\n      swap1\n      0x04\n      mul\n      add\n        /* \"Message.sol\":5573:5594  chat.messages[i].date */\n      0x02\n      add\n      sload\n        /* \"Message.sol\":5562:5567  dates */\n      dup11\n        /* \"Message.sol\":5568:5569  i */\n      dup3\n        /* \"Message.sol\":5562:5570  dates[i] */\n      dup2\n      mload\n      dup2\n      lt\n      tag_137\n      jumpi\n      tag_137\n      tag_59\n      jump\t// in\n    tag_137:\n      0x20\n      mul\n      0x20\n      add\n      add\n        /* \"Message.sol\":5562:5594  dates[i] = chat.messages[i].date */\n      dup2\n      dup2\n      mstore\n      pop\n      pop\n        /* \"Message.sol\":5620:5624  chat */\n      dup3\n        /* \"Message.sol\":5620:5633  chat.messages */\n      0x02\n      add\n        /* \"Message.sol\":5634:5635  i */\n      dup2\n        /* \"Message.sol\":5620:5636  chat.messages[i] */\n      dup2\n      sload\n      dup2\n      lt\n      tag_139\n      jumpi\n      tag_139\n      tag_59\n      jump\t// in\n    tag_139:\n      swap1\n      0x00\n      mstore\n      keccak256(0x00, 0x20)\n      swap1\n      0x04\n      mul\n      add\n        /* \"Message.sol\":5620:5641  chat.messages[i].seen */\n      0x03\n      add\n      0x01\n      swap1\n      sload\n      swap1\n      0x0100\n      exp\n      swap1\n      div\n      0xff\n      and\n        /* \"Message.sol\":5608:5614  status */\n      dup10\n        /* \"Message.sol\":5615:5616  i */\n      dup3\n        /* \"Message.sol\":5608:5617  status[i] */\n      dup2\n      mload\n      dup2\n      lt\n      tag_142\n      jumpi\n      tag_142\n      tag_59\n      jump\t// in\n    tag_142:\n      0x20\n      mul\n      0x20\n      add\n      add\n        /* \"Message.sol\":5608:5641  status[i] = chat.messages[i].seen */\n      swap1\n      iszero\n      iszero\n      swap1\n      dup2\n      iszero\n      iszero\n      dup2\n      mstore\n      pop\n      pop\n        /* \"Message.sol\":5687:5697  msg.sender */\n      caller\n      sub(shl(0xa0, 0x01), 0x01)\n        /* \"Message.sol\":5660:5697  chat.messages[i].sender == msg.sender */\n      and\n        /* \"Message.sol\":5660:5664  chat */\n      dup4\n        /* \"Message.sol\":5660:5673  chat.messages */\n      0x02\n      add\n        /* \"Message.sol\":5674:5675  i */\n      dup3\n        /* \"Message.sol\":5660:5676  chat.messages[i] */\n      dup2\n      sload\n      dup2\n      lt\n      tag_144\n      jumpi\n      tag_144\n      tag_59\n      jump\t// in\n    tag_144:\n      0x00\n      swap2\n      dup3\n      mstore\n      0x20\n      swap1\n      swap2\n      keccak256\n      0x04\n      swap1\n      swap2\n      mul\n      add\n        /* \"Message.sol\":5660:5683  chat.messages[i].sender */\n      sload\n      sub(shl(0xa0, 0x01), 0x01)\n      and\n        /* \"Message.sol\":5660:5697  chat.messages[i].sender == msg.sender */\n      sub\n        /* \"Message.sol\":5656:6033  if (chat.messages[i].sender == msg.sender) {... */\n      tag_146\n      jumpi\n        /* \"Message.sol\":5738:5773  profile.profileUsername(msg.sender) */\n      mload(0x40)\n      shl(0xe1, 0x742df7e1)\n      dup2\n      mstore\n        /* \"Message.sol\":5762:5772  msg.sender */\n      caller\n        /* \"Message.sol\":5738:5773  profile.profileUsername(msg.sender) */\n      0x04\n      dup3\n      add\n        /* \"#utility.yul\":620:694   */\n      mstore\n      sub(shl(0xa0, 0x01), 0x01)\n        /* \"Message.sol\":5738:5761  profile.profileUsername */\n      dup6\n      and\n      swap1\n      0xe85befc2\n      swap1\n        /* \"#utility.yul\":593:611   */\n      0x24\n      add\n        /* \"Message.sol\":5738:5773  profile.profileUsername(msg.sender) */\n      0x00\n      mload(0x40)\n      dup1\n      dup4\n      sub\n      dup2\n      dup7\n      gas\n      staticcall\n      iszero\n      dup1\n      iszero\n      tag_149\n      jumpi\n      returndatasize\n      0x00\n      dup1\n      returndatacopy\n      revert(0x00, returndatasize)\n    tag_149:\n      pop\n      pop\n      pop\n      pop\n      mload(0x40)\n      returndatasize\n      0x00\n      dup3\n      returndatacopy\n      0x1f\n      returndatasize\n      swap1\n      dup2\n      add\n      not(0x1f)\n      and\n      dup3\n      add\n      0x40\n      mstore\n      tag_150\n      swap2\n      swap1\n      dup2\n      add\n      swap1\n      tag_114\n      jump\t// in\n    tag_150:\n        /* \"Message.sol\":5717:5732  senderUsernames */\n      dup9\n        /* \"Message.sol\":5733:5734  i */\n      dup3\n        /* \"Message.sol\":5717:5735  senderUsernames[i] */\n      dup2\n      mload\n      dup2\n      lt\n      tag_152\n      jumpi\n      tag_152\n      tag_59\n      jump\t// in\n    tag_152:\n      0x20\n      swap1\n      dup2\n      mul\n      swap2\n      swap1\n      swap2\n      add\n      add\n        /* \"Message.sol\":5717:5773  senderUsernames[i] = profile.profileUsername(msg.sender) */\n      mstore\n        /* \"Message.sol\":5814:5848  profile.profileUsername(_receiver) */\n      mload(0x40)\n      shl(0xe1, 0x742df7e1)\n      dup2\n      mstore\n      sub(shl(0xa0, 0x01), 0x01)\n        /* \"#utility.yul\":638:693   */\n      dup14\n      dup2\n      and\n        /* \"Message.sol\":5814:5848  profile.profileUsername(_receiver) */\n      0x04\n      dup4\n      add\n        /* \"#utility.yul\":620:694   */\n      mstore\n        /* \"Message.sol\":5814:5837  profile.profileUsername */\n      dup6\n      and\n      swap1\n      0xe85befc2\n      swap1\n        /* \"#utility.yul\":593:611   */\n      0x24\n      add\n        /* \"Message.sol\":5814:5848  profile.profileUsername(_receiver) */\n      0x00\n      mload(0x40)\n      dup1\n      dup4\n      sub\n      dup2\n      dup7\n      gas\n      staticcall\n      iszero\n      dup1\n      iszero\n      tag_155\n      jumpi\n      returndatasize\n      0x00\n      dup1\n      returndatacopy\n      revert(0x00, returndatasize)\n    tag_155:\n      pop\n      pop\n      pop\n      pop\n      mload(0x40)\n      returndatasize\n      0x00\n      dup3\n      returndatacopy\n      0x1f\n      returndatasize\n      swap1\n      dup2\n      add\n      not(0x1f)\n      and\n      dup3\n      add\n      0x40\n      mstore\n      tag_156\n      swap2\n      swap1\n      dup2\n      add\n      swap1\n      tag_114\n      jump\t// in\n    tag_156:\n        /* \"Message.sol\":5791:5808  receiverUsernames */\n      dup8\n        /* \"Message.sol\":5809:5810  i */\n      dup3\n        /* \"Message.sol\":5791:5811  receiverUsernames[i] */\n      dup2\n      mload\n      dup2\n      lt\n      tag_158\n      jumpi\n      tag_158\n      tag_59\n      jump\t// in\n    tag_158:\n      0x20\n      mul\n      0x20\n      add\n      add\n        /* \"Message.sol\":5791:5848  receiverUsernames[i] = profile.profileUsername(_receiver) */\n      dup2\n      swap1\n      mstore\n      pop\n        /* \"Message.sol\":5656:6033  if (chat.messages[i].sender == msg.sender) {... */\n      jump(tag_159)\n    tag_146:\n        /* \"Message.sol\":5908:5942  profile.profileUsername(_receiver) */\n      mload(0x40)\n      shl(0xe1, 0x742df7e1)\n      dup2\n      mstore\n      sub(shl(0xa0, 0x01), 0x01)\n        /* \"#utility.yul\":638:693   */\n      dup14\n      dup2\n      and\n        /* \"Message.sol\":5908:5942  profile.profileUsername(_receiver) */\n      0x04\n      dup4\n      add\n        /* \"#utility.yul\":620:694   */\n      mstore\n        /* \"Message.sol\":5908:5931  profile.profileUsername */\n      dup6\n      and\n      swap1\n      0xe85befc2\n      swap1\n        /* \"#utility.yul\":593:611   */\n      0x24\n      add\n        /* \"Message.sol\":5908:5942  profile.profileUsername(_receiver) */\n      0x00\n      mload(0x40)\n      dup1\n      dup4\n      sub\n      dup2\n      dup7\n      gas\n      staticcall\n      iszero\n      dup1\n      iszero\n      tag_162\n      jumpi\n      returndatasize\n      0x00\n      dup1\n      returndatacopy\n      revert(0x00, returndatasize)\n    tag_162:\n      pop\n      pop\n      pop\n      pop\n      mload(0x40)\n      returndatasize\n      0x00\n      dup3\n      returndatacopy\n      0x1f\n      returndatasize\n      swap1\n      dup2\n      add\n      not(0x1f)\n      and\n      dup3\n      add\n      0x40\n      mstore\n      tag_163\n      swap2\n      swap1\n      dup2\n      add\n      swap1\n      tag_114\n      jump\t// in\n    tag_163:\n        /* \"Message.sol\":5887:5902  senderUsernames */\n      dup9\n        /* \"Message.sol\":5903:5904  i */\n      dup3\n        /* \"Message.sol\":5887:5905  senderUsernames[i] */\n      dup2\n      mload\n      dup2\n      lt\n      tag_165\n      jumpi\n      tag_165\n      tag_59\n      jump\t// in\n    tag_165:\n      0x20\n      swap1\n      dup2\n      mul\n      swap2\n      swap1\n      swap2\n      add\n      add\n        /* \"Message.sol\":5887:5942  senderUsernames[i] = profile.profileUsername(_receiver) */\n      mstore\n        /* \"Message.sol\":5983:6018  profile.profileUsername(msg.sender) */\n      mload(0x40)\n      shl(0xe1, 0x742df7e1)\n      dup2\n      mstore\n        /* \"Message.sol\":6007:6017  msg.sender */\n      caller\n        /* \"Message.sol\":5983:6018  profile.profileUsername(msg.sender) */\n      0x04\n      dup3\n      add\n        /* \"#utility.yul\":620:694   */\n      mstore\n      sub(shl(0xa0, 0x01), 0x01)\n        /* \"Message.sol\":5983:6006  profile.profileUsername */\n      dup6\n      and\n      swap1\n      0xe85befc2\n      swap1\n        /* \"#utility.yul\":593:611   */\n      0x24\n      add\n        /* \"Message.sol\":5983:6018  profile.profileUsername(msg.sender) */\n      0x00\n      mload(0x40)\n      dup1\n      dup4\n      sub\n      dup2\n      dup7\n      gas\n      staticcall\n      iszero\n      dup1\n      iszero\n      tag_168\n      jumpi\n      returndatasize\n      0x00\n      dup1\n      returndatacopy\n      revert(0x00, returndatasize)\n    tag_168:\n      pop\n      pop\n      pop\n      pop\n      mload(0x40)\n      returndatasize\n      0x00\n      dup3\n      returndatacopy\n      0x1f\n      returndatasize\n      swap1\n      dup2\n      add\n      not(0x1f)\n      and\n      dup3\n      add\n      0x40\n      mstore\n      tag_169\n      swap2\n      swap1\n      dup2\n      add\n      swap1\n      tag_114\n      jump\t// in\n    tag_169:\n        /* \"Message.sol\":5960:5977  receiverUsernames */\n      dup8\n        /* \"Message.sol\":5978:5979  i */\n      dup3\n        /* \"Message.sol\":5960:5980  receiverUsernames[i] */\n      dup2\n      mload\n      dup2\n      lt\n      tag_171\n      jumpi\n      tag_171\n      tag_59\n      jump\t// in\n    tag_171:\n      0x20\n      mul\n      0x20\n      add\n      add\n        /* \"Message.sol\":5960:6018  receiverUsernames[i] = profile.profileUsername(msg.sender) */\n      dup2\n      swap1\n      mstore\n      pop\n        /* \"Message.sol\":5656:6033  if (chat.messages[i].sender == msg.sender) {... */\n    tag_159:\n        /* \"Message.sol\":5497:5500  i++ */\n      0x01\n      add\n        /* \"Message.sol\":5459:6043  for (uint256 i = 0; i < messageCount; i++) {... */\n      jump(tag_119)\n    tag_120:\n      pop\n        /* \"Message.sol\":6053:6258  return (... */\n      pop\n      pop\n      pop\n        /* \"Message.sol\":4062:6265  function getIndividualChat(address _receiver)... */\n    tag_65:\n      swap2\n      swap4\n      swap6\n      swap8\n      swap1\n      swap3\n      swap5\n      swap7\n      pop\n      jump\t// out\n        /* \"Message.sol\":2534:4012  function getChatList()... */\n    tag_36:\n        /* \"Message.sol\":2802:2812  msg.sender */\n      caller\n        /* \"Message.sol\":2773:2790  uint256 chatCount */\n      0x00\n        /* \"Message.sol\":2793:2813  chatList[msg.sender] */\n      swap1\n      dup2\n      mstore\n        /* \"Message.sol\":2793:2801  chatList */\n      0x01\n        /* \"Message.sol\":2793:2813  chatList[msg.sender] */\n      0x20\n      mstore\n      0x40\n      dup2\n      keccak256\n        /* \"Message.sol\":2793:2820  chatList[msg.sender].length */\n      sload\n        /* \"Message.sol\":2615:2631  address[] memory */\n      0x60\n      swap2\n      dup3\n      swap2\n      dup3\n      swap2\n      dup3\n      swap2\n      dup3\n      swap2\n        /* \"Message.sol\":2793:2820  chatList[msg.sender].length */\n      dup2\n        /* \"Message.sol\":2860:2884  new address[](chatCount) */\n      0xffffffffffffffff\n      dup2\n      gt\n      iszero\n      tag_174\n      jumpi\n      tag_174\n      tag_75\n      jump\t// in\n    tag_174:\n      mload(0x40)\n      swap1\n      dup1\n      dup3\n      mstore\n      dup1\n      0x20\n      mul\n      0x20\n      add\n      dup3\n      add\n      0x40\n      mstore\n      dup1\n      iszero\n      tag_175\n      jumpi\n      dup2\n      0x20\n      add\n      0x20\n      dup3\n      mul\n      dup1\n      calldatasize\n      dup4\n      calldatacopy\n      add\n      swap1\n      pop\n    tag_175:\n      pop\n        /* \"Message.sol\":2831:2884  address[] memory chatUsers = new address[](chatCount) */\n      swap1\n      pop\n        /* \"Message.sol\":2894:2919  string[] memory usernames */\n      0x00\n        /* \"Message.sol\":2935:2944  chatCount */\n      dup3\n        /* \"Message.sol\":2922:2945  new string[](chatCount) */\n      0xffffffffffffffff\n      dup2\n      gt\n      iszero\n      tag_177\n      jumpi\n      tag_177\n      tag_75\n      jump\t// in\n    tag_177:\n      mload(0x40)\n      swap1\n      dup1\n      dup3\n      mstore\n      dup1\n      0x20\n      mul\n      0x20\n      add\n      dup3\n      add\n      0x40\n      mstore\n      dup1\n      iszero\n      tag_178\n      jumpi\n      dup2\n      0x20\n      add\n    tag_179:\n      0x60\n      dup2\n      mstore\n      0x20\n      add\n      swap1\n      0x01\n      swap1\n      sub\n      swap1\n      dup2\n      tag_179\n      jumpi\n      swap1\n      pop\n    tag_178:\n      pop\n        /* \"Message.sol\":2894:2945  string[] memory usernames = new string[](chatCount) */\n      swap1\n      pop\n        /* \"Message.sol\":2955:2985  string[] memory profilePicture */\n      0x00\n        /* \"Message.sol\":3001:3010  chatCount */\n      dup4\n        /* \"Message.sol\":2988:3011  new string[](chatCount) */\n      0xffffffffffffffff\n      dup2\n      gt\n      iszero\n      tag_181\n      jumpi\n      tag_181\n      tag_75\n      jump\t// in\n    tag_181:\n      mload(0x40)\n      swap1\n      dup1\n      dup3\n      mstore\n      dup1\n      0x20\n      mul\n      0x20\n      add\n      dup3\n      add\n      0x40\n      mstore\n      dup1\n      iszero\n      tag_182\n      jumpi\n      dup2\n      0x20\n      add\n    tag_183:\n      0x60\n      dup2\n      mstore\n      0x20\n      add\n      swap1\n      0x01\n      swap1\n      sub\n      swap1\n      dup2\n      tag_183\n      jumpi\n      swap1\n      pop\n    tag_182:\n      pop\n        /* \"Message.sol\":2955:3011  string[] memory profilePicture = new string[](chatCount) */\n      swap1\n      pop\n        /* \"Message.sol\":3021:3048  string[] memory latestTexts */\n      0x00\n        /* \"Message.sol\":3064:3073  chatCount */\n      dup5\n        /* \"Message.sol\":3051:3074  new string[](chatCount) */\n      0xffffffffffffffff\n      dup2\n      gt\n      iszero\n      tag_185\n      jumpi\n      tag_185\n      tag_75\n      jump\t// in\n    tag_185:\n      mload(0x40)\n      swap1\n      dup1\n      dup3\n      mstore\n      dup1\n      0x20\n      mul\n      0x20\n      add\n      dup3\n      add\n      0x40\n      mstore\n      dup1\n      iszero\n      tag_186\n      jumpi\n      dup2\n      0x20\n      add\n    tag_187:\n      0x60\n      dup2\n      mstore\n      0x20\n      add\n      swap1\n      0x01\n      swap1\n      sub\n      swap1\n      dup2\n      tag_187\n      jumpi\n      swap1\n      pop\n    tag_186:\n      pop\n        /* \"Message.sol\":3021:3074  string[] memory latestTexts = new string[](chatCount) */\n      swap1\n      pop\n        /* \"Message.sol\":3084:3113  uint256[] memory unseenCounts */\n      0x00\n        /* \"Message.sol\":3130:3139  chatCount */\n      dup6\n        /* \"Message.sol\":3116:3140  new uint256[](chatCount) */\n      0xffffffffffffffff\n      dup2\n      gt\n      iszero\n      tag_189\n      jumpi\n      tag_189\n      tag_75\n      jump\t// in\n    tag_189:\n      mload(0x40)\n      swap1\n      dup1\n      dup3\n      mstore\n      dup1\n      0x20\n      mul\n      0x20\n      add\n      dup3\n      add\n      0x40\n      mstore\n      dup1\n      iszero\n      tag_190\n      jumpi\n      dup2\n      0x20\n      add\n      0x20\n      dup3\n      mul\n      dup1\n      calldatasize\n      dup4\n      calldatacopy\n      add\n      swap1\n      pop\n    tag_190:\n      pop\n        /* \"Message.sol\":3189:3209  socialProfileAddress */\n      sload(0x02)\n        /* \"Message.sol\":3084:3140  uint256[] memory unseenCounts = new uint256[](chatCount) */\n      swap1\n      swap2\n      pop\n      sub(shl(0xa0, 0x01), 0x01)\n        /* \"Message.sol\":3189:3209  socialProfileAddress */\n      and\n        /* \"Message.sol\":3151:3172  SocialProfile profile */\n      0x00\n        /* \"Message.sol\":3221:3853  for (uint256 i = 0; i < chatList[msg.sender].length; i++) {... */\n    tag_191:\n        /* \"Message.sol\":3254:3264  msg.sender */\n      caller\n        /* \"Message.sol\":3245:3265  chatList[msg.sender] */\n      0x00\n      swap1\n      dup2\n      mstore\n        /* \"Message.sol\":3245:3253  chatList */\n      0x01\n        /* \"Message.sol\":3245:3265  chatList[msg.sender] */\n      0x20\n      mstore\n      0x40\n      swap1\n      keccak256\n        /* \"Message.sol\":3245:3272  chatList[msg.sender].length */\n      sload\n        /* \"Message.sol\":3241:3272  i < chatList[msg.sender].length */\n      dup2\n      lt\n        /* \"Message.sol\":3221:3853  for (uint256 i = 0; i < chatList[msg.sender].length; i++) {... */\n      iszero\n      tag_192\n      jumpi\n        /* \"Message.sol\":3317:3327  msg.sender */\n      caller\n        /* \"Message.sol\":3293:3305  address user */\n      0x00\n        /* \"Message.sol\":3308:3328  chatList[msg.sender] */\n      swap1\n      dup2\n      mstore\n        /* \"Message.sol\":3308:3316  chatList */\n      0x01\n        /* \"Message.sol\":3308:3328  chatList[msg.sender] */\n      0x20\n      mstore\n      0x40\n      dup2\n      keccak256\n        /* \"Message.sol\":3308:3331  chatList[msg.sender][i] */\n      dup1\n      sload\n        /* \"Message.sol\":3329:3330  i */\n      dup4\n      swap1\n        /* \"Message.sol\":3308:3331  chatList[msg.sender][i] */\n      dup2\n      lt\n      tag_195\n      jumpi\n      tag_195\n      tag_59\n      jump\t// in\n    tag_195:\n      swap1\n      0x00\n      mstore\n      keccak256(0x00, 0x20)\n      add\n      0x00\n      swap1\n      sload\n      swap1\n      0x0100\n      exp\n      swap1\n      div\n      sub(shl(0xa0, 0x01), 0x01)\n      and\n        /* \"Message.sol\":3293:3331  address user = chatList[msg.sender][i] */\n      swap1\n      pop\n        /* \"Message.sol\":3360:3364  user */\n      dup1\n        /* \"Message.sol\":3345:3354  chatUsers */\n      dup9\n        /* \"Message.sol\":3355:3356  i */\n      dup4\n        /* \"Message.sol\":3345:3357  chatUsers[i] */\n      dup2\n      mload\n      dup2\n      lt\n      tag_198\n      jumpi\n      tag_198\n      tag_59\n      jump\t// in\n    tag_198:\n      sub(shl(0xa0, 0x01), 0x01)\n        /* \"Message.sol\":3345:3364  chatUsers[i] = user */\n      swap3\n      dup4\n      and\n        /* \"Message.sol\":3345:3357  chatUsers[i] */\n      0x20\n      swap2\n      dup3\n      mul\n      swap3\n      swap1\n      swap3\n      add\n      add\n        /* \"Message.sol\":3345:3364  chatUsers[i] = user */\n      mstore\n        /* \"Message.sol\":3394:3423  profile.profileUsername(user) */\n      mload(0x40)\n      shl(0xe1, 0x742df7e1)\n      dup2\n      mstore\n        /* \"#utility.yul\":638:693   */\n      dup3\n      dup3\n      and\n        /* \"Message.sol\":3394:3423  profile.profileUsername(user) */\n      0x04\n      dup3\n      add\n        /* \"#utility.yul\":620:694   */\n      mstore\n        /* \"Message.sol\":3394:3417  profile.profileUsername */\n      swap1\n      dup5\n      and\n      swap1\n      0xe85befc2\n      swap1\n        /* \"#utility.yul\":593:611   */\n      0x24\n      add\n        /* \"Message.sol\":3394:3423  profile.profileUsername(user) */\n      0x00\n      mload(0x40)\n      dup1\n      dup4\n      sub\n      dup2\n      dup7\n      gas\n      staticcall\n      iszero\n      dup1\n      iszero\n      tag_201\n      jumpi\n      returndatasize\n      0x00\n      dup1\n      returndatacopy\n      revert(0x00, returndatasize)\n    tag_201:\n      pop\n      pop\n      pop\n      pop\n      mload(0x40)\n      returndatasize\n      0x00\n      dup3\n      returndatacopy\n      0x1f\n      returndatasize\n      swap1\n      dup2\n      add\n      not(0x1f)\n      and\n      dup3\n      add\n      0x40\n      mstore\n      tag_202\n      swap2\n      swap1\n      dup2\n      add\n      swap1\n      tag_114\n      jump\t// in\n    tag_202:\n        /* \"Message.sol\":3379:3388  usernames */\n      dup8\n        /* \"Message.sol\":3389:3390  i */\n      dup4\n        /* \"Message.sol\":3379:3391  usernames[i] */\n      dup2\n      mload\n      dup2\n      lt\n      tag_204\n      jumpi\n      tag_204\n      tag_59\n      jump\t// in\n    tag_204:\n      0x20\n      swap1\n      dup2\n      mul\n      swap2\n      swap1\n      swap2\n      add\n      add\n        /* \"Message.sol\":3379:3423  usernames[i] = profile.profileUsername(user) */\n      mstore\n        /* \"Message.sol\":3457:3483  profile.profilePhoto(user) */\n      mload(0x40)\n      shl(0xe0, 0xfbf31669)\n      dup2\n      mstore\n      sub(shl(0xa0, 0x01), 0x01)\n        /* \"#utility.yul\":638:693   */\n      dup3\n      dup2\n      and\n        /* \"Message.sol\":3457:3483  profile.profilePhoto(user) */\n      0x04\n      dup4\n      add\n        /* \"#utility.yul\":620:694   */\n      mstore\n        /* \"Message.sol\":3457:3477  profile.profilePhoto */\n      dup5\n      and\n      swap1\n      0xfbf31669\n      swap1\n        /* \"#utility.yul\":593:611   */\n      0x24\n      add\n        /* \"Message.sol\":3457:3483  profile.profilePhoto(user) */\n      0x00\n      mload(0x40)\n      dup1\n      dup4\n      sub\n      dup2\n      dup7\n      gas\n      staticcall\n      iszero\n      dup1\n      iszero\n      tag_207\n      jumpi\n      returndatasize\n      0x00\n      dup1\n      returndatacopy\n      revert(0x00, returndatasize)\n    tag_207:\n      pop\n      pop\n      pop\n      pop\n      mload(0x40)\n      returndatasize\n      0x00\n      dup3\n      returndatacopy\n      0x1f\n      returndatasize\n      swap1\n      dup2\n      add\n      not(0x1f)\n      and\n      dup3\n      add\n      0x40\n      mstore\n      tag_208\n      swap2\n      swap1\n      dup2\n      add\n      swap1\n      tag_114\n      jump\t// in\n    tag_208:\n        /* \"Message.sol\":3437:3451  profilePicture */\n      dup7\n        /* \"Message.sol\":3452:3453  i */\n      dup4\n        /* \"Message.sol\":3437:3454  profilePicture[i] */\n      dup2\n      mload\n      dup2\n      lt\n      tag_210\n      jumpi\n      tag_210\n      tag_59\n      jump\t// in\n    tag_210:\n      0x20\n      swap1\n      dup2\n      mul\n      swap2\n      swap1\n      swap2\n      add\n      dup2\n      add\n        /* \"Message.sol\":3437:3483  profilePicture[i] = profile.profilePhoto(user) */\n      swap2\n      swap1\n      swap2\n      mstore\n        /* \"Message.sol\":3528:3538  msg.sender */\n      caller\n        /* \"Message.sol\":3498:3519  Chat storage userChat */\n      0x00\n        /* \"Message.sol\":3522:3539  chats[msg.sender] */\n      swap1\n      dup2\n      mstore\n      dup1\n      dup3\n      mstore\n      0x40\n      dup1\n      dup3\n      keccak256\n      sub(shl(0xa0, 0x01), 0x01)\n        /* \"Message.sol\":3522:3545  chats[msg.sender][user] */\n      dup6\n      and\n      dup4\n      mstore\n      swap1\n      swap3\n      mstore\n      keccak256\n        /* \"Message.sol\":3582:3599  userChat.messages */\n      0x02\n      dup2\n      add\n        /* \"Message.sol\":3582:3606  userChat.messages.length */\n      sload\n        /* \"Message.sol\":3625:3641  messageCount > 0 */\n      dup1\n      iszero\n        /* \"Message.sol\":3621:3791  if (messageCount > 0) {... */\n      tag_211\n      jumpi\n        /* \"Message.sol\":3678:3695  userChat.messages */\n      0x02\n      dup3\n      add\n        /* \"Message.sol\":3696:3712  messageCount - 1 */\n      tag_212\n        /* \"Message.sol\":3711:3712  1 */\n      0x01\n        /* \"Message.sol\":3696:3708  messageCount */\n      dup4\n        /* \"Message.sol\":3696:3712  messageCount - 1 */\n      tag_213\n      jump\t// in\n    tag_212:\n        /* \"Message.sol\":3678:3713  userChat.messages[messageCount - 1] */\n      dup2\n      sload\n      dup2\n      lt\n      tag_215\n      jumpi\n      tag_215\n      tag_59\n      jump\t// in\n    tag_215:\n      swap1\n      0x00\n      mstore\n      keccak256(0x00, 0x20)\n      swap1\n      0x04\n      mul\n      add\n        /* \"Message.sol\":3678:3718  userChat.messages[messageCount - 1].text */\n      0x01\n      add\n        /* \"Message.sol\":3661:3718  latestTexts[i] = userChat.messages[messageCount - 1].text */\n      dup1\n      sload\n      tag_217\n      swap1\n      tag_126\n      jump\t// in\n    tag_217:\n      dup1\n      0x1f\n      add\n      0x20\n      dup1\n      swap2\n      div\n      mul\n      0x20\n      add\n      mload(0x40)\n      swap1\n      dup2\n      add\n      0x40\n      mstore\n      dup1\n      swap3\n      swap2\n      swap1\n      dup2\n      dup2\n      mstore\n      0x20\n      add\n      dup3\n      dup1\n      sload\n      tag_218\n      swap1\n      tag_126\n      jump\t// in\n    tag_218:\n      dup1\n      iszero\n      tag_219\n      jumpi\n      dup1\n      0x1f\n      lt\n      tag_220\n      jumpi\n      0x0100\n      dup1\n      dup4\n      sload\n      div\n      mul\n      dup4\n      mstore\n      swap2\n      0x20\n      add\n      swap2\n      jump(tag_219)\n    tag_220:\n      dup3\n      add\n      swap2\n      swap1\n      0x00\n      mstore\n      keccak256(0x00, 0x20)\n      swap1\n    tag_221:\n      dup2\n      sload\n      dup2\n      mstore\n      swap1\n      0x01\n      add\n      swap1\n      0x20\n      add\n      dup1\n      dup4\n      gt\n      tag_221\n      jumpi\n      dup3\n      swap1\n      sub\n      0x1f\n      and\n      dup3\n      add\n      swap2\n    tag_219:\n      pop\n      pop\n      pop\n      pop\n      pop\n        /* \"Message.sol\":3661:3672  latestTexts */\n      dup8\n        /* \"Message.sol\":3673:3674  i */\n      dup6\n        /* \"Message.sol\":3661:3675  latestTexts[i] */\n      dup2\n      mload\n      dup2\n      lt\n      tag_223\n      jumpi\n      tag_223\n      tag_59\n      jump\t// in\n    tag_223:\n      0x20\n      mul\n      0x20\n      add\n      add\n        /* \"Message.sol\":3661:3718  latestTexts[i] = userChat.messages[messageCount - 1].text */\n      dup2\n      swap1\n      mstore\n      pop\n        /* \"Message.sol\":3621:3791  if (messageCount > 0) {... */\n      jump(tag_224)\n    tag_211:\n        /* \"Message.sol\":3757:3776  latestTexts[i] = \"\" */\n      mload(0x40)\n      dup1\n      0x20\n      add\n      0x40\n      mstore\n      dup1\n      0x00\n      dup2\n      mstore\n      pop\n        /* \"Message.sol\":3757:3768  latestTexts */\n      dup8\n        /* \"Message.sol\":3769:3770  i */\n      dup6\n        /* \"Message.sol\":3757:3771  latestTexts[i] */\n      dup2\n      mload\n      dup2\n      lt\n      tag_226\n      jumpi\n      tag_226\n      tag_59\n      jump\t// in\n    tag_226:\n      0x20\n      mul\n      0x20\n      add\n      add\n        /* \"Message.sol\":3757:3776  latestTexts[i] = \"\" */\n      dup2\n      swap1\n      mstore\n      pop\n        /* \"Message.sol\":3621:3791  if (messageCount > 0) {... */\n    tag_224:\n        /* \"Message.sol\":3822:3830  userChat */\n      dup2\n        /* \"Message.sol\":3822:3842  userChat.unseenCount */\n      0x03\n      add\n      sload\n        /* \"Message.sol\":3804:3816  unseenCounts */\n      dup7\n        /* \"Message.sol\":3817:3818  i */\n      dup6\n        /* \"Message.sol\":3804:3819  unseenCounts[i] */\n      dup2\n      mload\n      dup2\n      lt\n      tag_228\n      jumpi\n      tag_228\n      tag_59\n      jump\t// in\n    tag_228:\n      0x20\n      swap1\n      dup2\n      mul\n      swap2\n      swap1\n      swap2\n      add\n      add\n        /* \"Message.sol\":3804:3842  unseenCounts[i] = userChat.unseenCount */\n      mstore\n      pop\n      pop\n      pop\n        /* \"Message.sol\":3274:3277  i++ */\n      0x01\n      add\n        /* \"Message.sol\":3221:3853  for (uint256 i = 0; i < chatList[msg.sender].length; i++) {... */\n      jump(tag_191)\n    tag_192:\n      pop\n        /* \"Message.sol\":3884:3893  chatUsers */\n      swap5\n      swap12\n        /* \"Message.sol\":3907:3916  usernames */\n      swap4\n      swap11\n      pop\n        /* \"Message.sol\":3930:3944  profilePicture */\n      swap2\n      swap9\n      pop\n      swap7\n      pop\n        /* \"Message.sol\":3907:3916  usernames */\n      swap5\n      pop\n        /* \"Message.sol\":2534:4012  function getChatList()... */\n      swap3\n      pop\n      pop\n      pop\n      jump\t// out\n        /* \"Message.sol\":855:2476  function sendMessage(address _receiver, string memory _text) public {... */\n    tag_42:\n        /* \"Message.sol\":971:991  socialProfileAddress */\n      sload(0x02)\n        /* \"Message.sol\":1011:1044  profile.checkUserExist(_receiver) */\n      mload(0x40)\n      shl(0xe0, 0x926bef63)\n      dup2\n      mstore\n      sub(shl(0xa0, 0x01), 0x01)\n        /* \"#utility.yul\":638:693   */\n      dup5\n      dup2\n      and\n        /* \"Message.sol\":1011:1044  profile.checkUserExist(_receiver) */\n      0x04\n      dup4\n      add\n        /* \"#utility.yul\":620:694   */\n      mstore\n        /* \"Message.sol\":971:991  socialProfileAddress */\n      swap1\n      swap2\n      and\n      swap1\n      dup2\n      swap1\n        /* \"Message.sol\":1011:1033  profile.checkUserExist */\n      0x926bef63\n      swap1\n        /* \"#utility.yul\":593:611   */\n      0x24\n      add\n        /* \"Message.sol\":1011:1044  profile.checkUserExist(_receiver) */\n      0x20\n      mload(0x40)\n      dup1\n      dup4\n      sub\n      dup2\n      dup7\n      gas\n      staticcall\n      iszero\n      dup1\n      iszero\n      tag_232\n      jumpi\n      returndatasize\n      0x00\n      dup1\n      returndatacopy\n      revert(0x00, returndatasize)\n    tag_232:\n      pop\n      pop\n      pop\n      pop\n      mload(0x40)\n      returndatasize\n      not(0x1f)\n      0x1f\n      dup3\n      add\n      and\n      dup3\n      add\n      dup1\n      0x40\n      mstore\n      pop\n      dup2\n      add\n      swap1\n      tag_233\n      swap2\n      swap1\n      tag_50\n      jump\t// in\n    tag_233:\n        /* \"Message.sol\":1003:1072  require(profile.checkUserExist(_receiver), \"Receiver does not exist\") */\n      tag_234\n      jumpi\n      mload(0x40)\n      shl(0xe5, 0x461bcd)\n      dup2\n      mstore\n        /* \"#utility.yul\":8069:8071   */\n      0x20\n        /* \"Message.sol\":1003:1072  require(profile.checkUserExist(_receiver), \"Receiver does not exist\") */\n      0x04\n      dup3\n      add\n        /* \"#utility.yul\":8051:8072   */\n      mstore\n        /* \"#utility.yul\":8108:8110   */\n      0x17\n        /* \"#utility.yul\":8088:8106   */\n      0x24\n      dup3\n      add\n        /* \"#utility.yul\":8081:8111   */\n      mstore\n        /* \"#utility.yul\":8147:8172   */\n      0x526563656976657220646f6573206e6f74206578697374000000000000000000\n        /* \"#utility.yul\":8127:8145   */\n      0x44\n      dup3\n      add\n        /* \"#utility.yul\":8120:8173   */\n      mstore\n        /* \"#utility.yul\":8190:8208   */\n      0x64\n      add\n        /* \"Message.sol\":1003:1072  require(profile.checkUserExist(_receiver), \"Receiver does not exist\") */\n      tag_52\n        /* \"#utility.yul\":7867:8214   */\n      jump\n        /* \"Message.sol\":1003:1072  require(profile.checkUserExist(_receiver), \"Receiver does not exist\") */\n    tag_234:\n        /* \"Message.sol\":1103:1147  profile.checkFollower(msg.sender, _receiver) */\n      mload(0x40)\n      shl(0xe1, 0x2c25a893)\n      dup2\n      mstore\n        /* \"Message.sol\":1125:1135  msg.sender */\n      caller\n        /* \"Message.sol\":1103:1147  profile.checkFollower(msg.sender, _receiver) */\n      0x04\n      dup3\n      add\n        /* \"#utility.yul\":9904:9938   */\n      mstore\n      sub(shl(0xa0, 0x01), 0x01)\n        /* \"#utility.yul\":9974:9989   */\n      dup5\n      dup2\n      and\n        /* \"#utility.yul\":9954:9972   */\n      0x24\n      dup4\n      add\n        /* \"#utility.yul\":9947:9990   */\n      mstore\n        /* \"Message.sol\":1103:1124  profile.checkFollower */\n      dup3\n      and\n      swap1\n      0x584b5126\n      swap1\n        /* \"#utility.yul\":9816:9834   */\n      0x44\n      add\n        /* \"Message.sol\":1103:1147  profile.checkFollower(msg.sender, _receiver) */\n      0x20\n      mload(0x40)\n      dup1\n      dup4\n      sub\n      dup2\n      dup7\n      gas\n      staticcall\n      iszero\n      dup1\n      iszero\n      tag_239\n      jumpi\n      returndatasize\n      0x00\n      dup1\n      returndatacopy\n      revert(0x00, returndatasize)\n    tag_239:\n      pop\n      pop\n      pop\n      pop\n      mload(0x40)\n      returndatasize\n      not(0x1f)\n      0x1f\n      dup3\n      add\n      and\n      dup3\n      add\n      dup1\n      0x40\n      mstore\n      pop\n      dup2\n      add\n      swap1\n      tag_240\n      swap2\n      swap1\n      tag_50\n      jump\t// in\n    tag_240:\n        /* \"Message.sol\":1103:1211  profile.checkFollower(msg.sender, _receiver) ||... */\n      dup1\n      tag_245\n      jumpi\n      pop\n        /* \"Message.sol\":1167:1211  profile.checkFollower(_receiver, msg.sender) */\n      mload(0x40)\n      shl(0xe1, 0x2c25a893)\n      dup2\n      mstore\n      sub(shl(0xa0, 0x01), 0x01)\n        /* \"#utility.yul\":9922:9937   */\n      dup5\n      dup2\n      and\n        /* \"Message.sol\":1167:1211  profile.checkFollower(_receiver, msg.sender) */\n      0x04\n      dup4\n      add\n        /* \"#utility.yul\":9904:9938   */\n      mstore\n        /* \"Message.sol\":1200:1210  msg.sender */\n      caller\n        /* \"#utility.yul\":9954:9972   */\n      0x24\n      dup4\n      add\n        /* \"#utility.yul\":9947:9990   */\n      mstore\n        /* \"Message.sol\":1167:1188  profile.checkFollower */\n      dup3\n      and\n      swap1\n      0x584b5126\n      swap1\n        /* \"#utility.yul\":9816:9834   */\n      0x44\n      add\n        /* \"Message.sol\":1167:1211  profile.checkFollower(_receiver, msg.sender) */\n      0x20\n      mload(0x40)\n      dup1\n      dup4\n      sub\n      dup2\n      dup7\n      gas\n      staticcall\n      iszero\n      dup1\n      iszero\n      tag_244\n      jumpi\n      returndatasize\n      0x00\n      dup1\n      returndatacopy\n      revert(0x00, returndatasize)\n    tag_244:\n      pop\n      pop\n      pop\n      pop\n      mload(0x40)\n      returndatasize\n      not(0x1f)\n      0x1f\n      dup3\n      add\n      and\n      dup3\n      add\n      dup1\n      0x40\n      mstore\n      pop\n      dup2\n      add\n      swap1\n      tag_245\n      swap2\n      swap1\n      tag_50\n      jump\t// in\n    tag_245:\n        /* \"Message.sol\":1082:1271  require(... */\n      tag_246\n      jumpi\n      mload(0x40)\n      shl(0xe5, 0x461bcd)\n      dup2\n      mstore\n        /* \"#utility.yul\":10203:10205   */\n      0x20\n        /* \"Message.sol\":1082:1271  require(... */\n      0x04\n      dup3\n      add\n        /* \"#utility.yul\":10185:10206   */\n      mstore\n        /* \"#utility.yul\":10242:10244   */\n      0x22\n        /* \"#utility.yul\":10222:10240   */\n      0x24\n      dup3\n      add\n        /* \"#utility.yul\":10215:10245   */\n      mstore\n        /* \"#utility.yul\":10281:10315   */\n      0x596f75206d75737420666f6c6c6f772065616368206f7468657220746f206368\n        /* \"#utility.yul\":10261:10279   */\n      0x44\n      dup3\n      add\n        /* \"#utility.yul\":10254:10316   */\n      mstore\n      shl(0xf2, 0x185d)\n        /* \"#utility.yul\":10332:10350   */\n      0x64\n      dup3\n      add\n        /* \"#utility.yul\":10325:10357   */\n      mstore\n        /* \"#utility.yul\":10374:10393   */\n      0x84\n      add\n        /* \"Message.sol\":1082:1271  require(... */\n      tag_52\n        /* \"#utility.yul\":10001:10399   */\n      jump\n        /* \"Message.sol\":1082:1271  require(... */\n    tag_246:\n        /* \"Message.sol\":1314:1324  msg.sender */\n      caller\n        /* \"Message.sol\":1282:1305  Chat storage senderChat */\n      0x00\n        /* \"Message.sol\":1308:1325  chats[msg.sender] */\n      dup2\n      dup2\n      mstore\n      0x20\n      dup2\n      dup2\n      mstore\n      0x40\n      dup1\n      dup4\n      keccak256\n      sub(shl(0xa0, 0x01), 0x01)\n        /* \"Message.sol\":1308:1336  chats[msg.sender][_receiver] */\n      dup9\n      dup2\n      and\n      dup6\n      mstore\n      swap1\n      dup4\n      mstore\n      dup2\n      dup5\n      keccak256\n        /* \"Message.sol\":1374:1390  chats[_receiver] */\n      dup5\n      dup5\n      mstore\n      dup3\n      dup6\n      keccak256\n        /* \"Message.sol\":1374:1402  chats[_receiver][msg.sender] */\n      swap6\n      dup6\n      mstore\n      swap5\n      swap1\n      swap3\n      mstore\n      swap1\n      swap2\n      keccak256\n        /* \"Message.sol\":1417:1440  senderChat.participant1 */\n      dup3\n      sload\n        /* \"Message.sol\":1374:1402  chats[_receiver][msg.sender] */\n      swap1\n      swap2\n        /* \"Message.sol\":1417:1440  senderChat.participant1 */\n      and\n        /* \"Message.sol\":1413:1657  if (senderChat.participant1 == address(0)) {... */\n      tag_249\n      jumpi\n        /* \"Message.sol\":1470:1506  senderChat.participant1 = msg.sender */\n      dup2\n      sload\n        /* \"Message.sol\":1496:1506  msg.sender */\n      caller\n      not(sub(shl(0xa0, 0x01), 0x01))\n        /* \"Message.sol\":1470:1506  senderChat.participant1 = msg.sender */\n      swap2\n      dup3\n      and\n      dup2\n      or\n      dup5\n      sstore\n      0x01\n        /* \"Message.sol\":1520:1543  senderChat.participant2 */\n      dup1\n      dup6\n      add\n        /* \"Message.sol\":1520:1555  senderChat.participant2 = _receiver */\n      dup1\n      sload\n      dup5\n      and\n      sub(shl(0xa0, 0x01), 0x01)\n      dup11\n      and\n      swap1\n      dup2\n      or\n      swap1\n      swap2\n      sstore\n      0x00\n        /* \"Message.sol\":1569:1591  senderChat.unseenCount */\n      0x03\n      dup8\n      add\n        /* \"Message.sol\":1569:1595  senderChat.unseenCount = 0 */\n      dup2\n      swap1\n      sstore\n        /* \"Message.sol\":1610:1630  chatList[msg.sender] */\n      swap3\n      dup4\n      mstore\n      0x20\n      dup3\n      dup2\n      mstore\n      0x40\n      dup5\n      keccak256\n        /* \"Message.sol\":1610:1646  chatList[msg.sender].push(_receiver) */\n      dup1\n      sload\n      swap4\n      dup5\n      add\n      dup2\n      sstore\n      dup5\n      mstore\n      swap1\n      swap3\n      keccak256\n      add\n      dup1\n      sload\n      swap1\n      swap3\n      and\n      or\n      swap1\n      sstore\n        /* \"Message.sol\":1413:1657  if (senderChat.participant1 == address(0)) {... */\n    tag_249:\n        /* \"Message.sol\":1671:1696  receiverChat.participant1 */\n      dup1\n      sload\n      sub(shl(0xa0, 0x01), 0x01)\n      and\n        /* \"Message.sol\":1667:1919  if (receiverChat.participant1 == address(0)) {... */\n      tag_251\n      jumpi\n        /* \"Message.sol\":1726:1764  receiverChat.participant1 = msg.sender */\n      dup1\n      sload\n        /* \"Message.sol\":1754:1764  msg.sender */\n      caller\n      not(sub(shl(0xa0, 0x01), 0x01))\n        /* \"Message.sol\":1726:1764  receiverChat.participant1 = msg.sender */\n      swap2\n      dup3\n      and\n      dup2\n      or\n      dup4\n      sstore\n      0x01\n        /* \"Message.sol\":1778:1803  receiverChat.participant2 */\n      dup1\n      dup5\n      add\n        /* \"Message.sol\":1778:1815  receiverChat.participant2 = _receiver */\n      dup1\n      sload\n      dup5\n      and\n      sub(shl(0xa0, 0x01), 0x01)\n      dup11\n      and\n      swap1\n      dup2\n      or\n      swap1\n      swap2\n      sstore\n      0x00\n        /* \"Message.sol\":1829:1853  receiverChat.unseenCount */\n      0x03\n      dup7\n      add\n        /* \"Message.sol\":1829:1857  receiverChat.unseenCount = 0 */\n      dup2\n      swap1\n      sstore\n        /* \"Message.sol\":1872:1891  chatList[_receiver] */\n      swap1\n      dup2\n      mstore\n      0x20\n      dup3\n      dup2\n      mstore\n      0x40\n      dup3\n      keccak256\n        /* \"Message.sol\":1872:1908  chatList[_receiver].push(msg.sender) */\n      dup1\n      sload\n      swap4\n      dup5\n      add\n      dup2\n      sstore\n      dup3\n      mstore\n      swap1\n      keccak256\n      add\n      dup1\n      sload\n      swap1\n      swap3\n      and\n      or\n      swap1\n      sstore\n        /* \"Message.sol\":1667:1919  if (receiverChat.participant1 == address(0)) {... */\n    tag_251:\n        /* \"Message.sol\":1967:2156  Message({... */\n      0x40\n      dup1\n      mload\n      0xa0\n      dup2\n      add\n      dup3\n      mstore\n        /* \"Message.sol\":2001:2011  msg.sender */\n      caller\n        /* \"Message.sol\":1967:2156  Message({... */\n      dup2\n      mstore\n      0x20\n      dup1\n      dup3\n      add\n      dup8\n      dup2\n      mstore\n        /* \"Message.sol\":2064:2079  block.timestamp */\n      timestamp\n        /* \"Message.sol\":1967:2156  Message({... */\n      swap4\n      dup4\n      add\n      swap4\n      swap1\n      swap4\n      mstore\n        /* \"Message.sol\":2108:2112  true */\n      0x01\n        /* \"Message.sol\":1967:2156  Message({... */\n      0x60\n      dup4\n      add\n      dup2\n      swap1\n      mstore\n      0x00\n      0x80\n      dup5\n      add\n      dup2\n      swap1\n      mstore\n        /* \"Message.sol\":1929:1948  senderChat.messages */\n      0x02\n      dup8\n      add\n        /* \"Message.sol\":1929:2166  senderChat.messages.push(... */\n      dup1\n      sload\n      dup1\n      dup5\n      add\n      dup3\n      sstore\n      swap1\n      dup3\n      mstore\n      swap3\n      swap1\n      keccak256\n      dup4\n      mload\n      0x04\n      swap1\n      swap4\n      mul\n      add\n      dup1\n      sload\n      not(sub(shl(0xa0, 0x01), 0x01))\n      and\n      sub(shl(0xa0, 0x01), 0x01)\n      swap1\n      swap4\n      and\n      swap3\n      swap1\n      swap3\n      or\n      dup3\n      sstore\n      swap3\n      mload\n        /* \"Message.sol\":1967:2156  Message({... */\n      swap2\n      swap3\n        /* \"Message.sol\":1929:2166  senderChat.messages.push(... */\n      swap1\n      swap2\n      swap1\n      dup3\n      add\n      swap1\n      tag_254\n      swap1\n      dup3\n      tag_255\n      jump\t// in\n    tag_254:\n      pop\n      0x40\n      dup3\n      dup2\n      add\n      mload\n      0x02\n      dup1\n      dup5\n      add\n      swap2\n      swap1\n      swap2\n      sstore\n      0x60\n      dup1\n      dup6\n      add\n      mload\n      0x03\n      swap1\n      swap5\n      add\n      dup1\n      sload\n      0x80\n      swap7\n      dup8\n      add\n      mload\n      iszero\n      iszero\n      0x0100\n      mul\n      not(0xff00)\n      swap7\n      iszero\n      iszero\n      swap7\n      swap1\n      swap7\n      and\n      not(0xffff)\n      swap1\n      swap2\n      and\n      or\n      swap5\n      swap1\n      swap5\n      or\n      swap1\n      swap4\n      sstore\n        /* \"Message.sol\":2217:2406  Message({... */\n      dup2\n      mload\n      0xa0\n      dup2\n      add\n      dup4\n      mstore\n        /* \"Message.sol\":2251:2261  msg.sender */\n      caller\n        /* \"Message.sol\":2217:2406  Message({... */\n      dup2\n      mstore\n      0x20\n      dup1\n      dup3\n      add\n      dup11\n      dup2\n      mstore\n        /* \"Message.sol\":2314:2329  block.timestamp */\n      timestamp\n        /* \"Message.sol\":2217:2406  Message({... */\n      swap5\n      dup4\n      add\n      swap5\n      swap1\n      swap5\n      mstore\n        /* \"Message.sol\":1929:2166  senderChat.messages.push(... */\n      0x01\n        /* \"Message.sol\":2217:2406  Message({... */\n      swap5\n      dup3\n      add\n      dup6\n      swap1\n      mstore\n        /* \"Message.sol\":1929:2166  senderChat.messages.push(... */\n      0x00\n        /* \"Message.sol\":2217:2406  Message({... */\n      swap6\n      dup3\n      add\n      dup7\n      swap1\n      mstore\n        /* \"Message.sol\":2177:2198  receiverChat.messages */\n      swap2\n      dup7\n      add\n        /* \"Message.sol\":2177:2416  receiverChat.messages.push(... */\n      dup1\n      sload\n      dup1\n      dup7\n      add\n      dup3\n      sstore\n      swap1\n      dup7\n      mstore\n      swap2\n      swap1\n      swap5\n      keccak256\n      dup5\n      mload\n      0x04\n      swap1\n      swap3\n      mul\n      add\n      dup1\n      sload\n      sub(shl(0xa0, 0x01), 0x01)\n      swap3\n      swap1\n      swap3\n      and\n      not(sub(shl(0xa0, 0x01), 0x01))\n      swap1\n      swap3\n      and\n      swap2\n      swap1\n      swap2\n      or\n      dup2\n      sstore\n      swap1\n      mload\n      swap1\n      swap2\n      dup3\n      add\n      swap1\n      tag_257\n      swap1\n      dup3\n      tag_255\n      jump\t// in\n    tag_257:\n      pop\n      0x40\n      dup3\n      dup2\n      add\n      mload\n      0x02\n      dup4\n      add\n      sstore\n      0x60\n      dup4\n      add\n      mload\n      0x03\n      swap3\n      dup4\n      add\n      dup1\n      sload\n      0x80\n      swap1\n      swap6\n      add\n      mload\n      iszero\n      iszero\n      0x0100\n      mul\n      not(0xff00)\n      swap3\n      iszero\n      iszero\n      swap3\n      swap1\n      swap3\n      and\n      not(0xffff)\n      swap1\n      swap6\n      and\n      swap5\n      swap1\n      swap5\n      or\n      or\n      swap1\n      swap3\n      sstore\n      sub(shl(0xa0, 0x01), 0x01)\n        /* \"Message.sol\":2427:2443  chats[_receiver] */\n      dup8\n      and\n        /* \"Message.sol\":2177:2416  receiverChat.messages.push(... */\n      0x00\n        /* \"Message.sol\":2427:2443  chats[_receiver] */\n      swap1\n      dup2\n      mstore\n      0x20\n      dup2\n      dup2\n      mstore\n      dup4\n      dup3\n      keccak256\n        /* \"Message.sol\":2444:2454  msg.sender */\n      caller\n        /* \"Message.sol\":2427:2455  chats[_receiver][msg.sender] */\n      dup4\n      mstore\n      swap1\n      mstore\n      swap2\n      dup3\n      keccak256\n        /* \"Message.sol\":2427:2467  chats[_receiver][msg.sender].unseenCount */\n      add\n        /* \"Message.sol\":2427:2469  chats[_receiver][msg.sender].unseenCount++ */\n      dup1\n      sload\n      swap2\n      tag_258\n      dup4\n      tag_259\n      jump\t// in\n    tag_258:\n      swap2\n      swap1\n      pop\n      sstore\n      pop\n        /* \"Message.sol\":923:2476  {... */\n      pop\n      pop\n      pop\n        /* \"Message.sol\":855:2476  function sendMessage(address _receiver, string memory _text) public {... */\n      pop\n      pop\n      jump\t// out\n        /* \"#utility.yul\":14:210   */\n    tag_260:\n        /* \"#utility.yul\":82:102   */\n      dup1\n      calldataload\n      sub(shl(0xa0, 0x01), 0x01)\n        /* \"#utility.yul\":131:185   */\n      dup2\n      and\n        /* \"#utility.yul\":121:186   */\n      dup2\n      eq\n        /* \"#utility.yul\":111:204   */\n      tag_272\n      jumpi\n        /* \"#utility.yul\":200:201   */\n      0x00\n        /* \"#utility.yul\":197:198   */\n      dup1\n        /* \"#utility.yul\":190:202   */\n      revert\n        /* \"#utility.yul\":111:204   */\n    tag_272:\n        /* \"#utility.yul\":14:210   */\n      swap2\n      swap1\n      pop\n      jump\t// out\n        /* \"#utility.yul\":215:469   */\n    tag_13:\n        /* \"#utility.yul\":283:289   */\n      0x00\n        /* \"#utility.yul\":291:297   */\n      dup1\n        /* \"#utility.yul\":344:346   */\n      0x40\n        /* \"#utility.yul\":332:341   */\n      dup4\n        /* \"#utility.yul\":323:330   */\n      dup6\n        /* \"#utility.yul\":319:342   */\n      sub\n        /* \"#utility.yul\":315:347   */\n      slt\n        /* \"#utility.yul\":312:364   */\n      iszero\n      tag_274\n      jumpi\n        /* \"#utility.yul\":360:361   */\n      0x00\n        /* \"#utility.yul\":357:358   */\n      dup1\n        /* \"#utility.yul\":350:362   */\n      revert\n        /* \"#utility.yul\":312:364   */\n    tag_274:\n        /* \"#utility.yul\":383:412   */\n      tag_275\n        /* \"#utility.yul\":402:411   */\n      dup4\n        /* \"#utility.yul\":383:412   */\n      tag_260\n      jump\t// in\n    tag_275:\n        /* \"#utility.yul\":373:412   */\n      swap5\n        /* \"#utility.yul\":459:461   */\n      0x20\n        /* \"#utility.yul\":444:462   */\n      swap4\n      swap1\n      swap4\n      add\n        /* \"#utility.yul\":431:463   */\n      calldataload\n      swap4\n      pop\n      pop\n      pop\n        /* \"#utility.yul\":215:469   */\n      jump\t// out\n        /* \"#utility.yul\":705:891   */\n    tag_19:\n        /* \"#utility.yul\":764:770   */\n      0x00\n        /* \"#utility.yul\":817:819   */\n      0x20\n        /* \"#utility.yul\":805:814   */\n      dup3\n        /* \"#utility.yul\":796:803   */\n      dup5\n        /* \"#utility.yul\":792:815   */\n      sub\n        /* \"#utility.yul\":788:820   */\n      slt\n        /* \"#utility.yul\":785:837   */\n      iszero\n      tag_278\n      jumpi\n        /* \"#utility.yul\":833:834   */\n      0x00\n        /* \"#utility.yul\":830:831   */\n      dup1\n        /* \"#utility.yul\":823:835   */\n      revert\n        /* \"#utility.yul\":785:837   */\n    tag_278:\n        /* \"#utility.yul\":856:885   */\n      tag_279\n        /* \"#utility.yul\":875:884   */\n      dup3\n        /* \"#utility.yul\":856:885   */\n      tag_260\n      jump\t// in\n    tag_279:\n        /* \"#utility.yul\":846:885   */\n      swap4\n        /* \"#utility.yul\":705:891   */\n      swap3\n      pop\n      pop\n      pop\n      jump\t// out\n        /* \"#utility.yul\":896:1156   */\n    tag_26:\n        /* \"#utility.yul\":964:970   */\n      0x00\n        /* \"#utility.yul\":972:978   */\n      dup1\n        /* \"#utility.yul\":1025:1027   */\n      0x40\n        /* \"#utility.yul\":1013:1022   */\n      dup4\n        /* \"#utility.yul\":1004:1011   */\n      dup6\n        /* \"#utility.yul\":1000:1023   */\n      sub\n        /* \"#utility.yul\":996:1028   */\n      slt\n        /* \"#utility.yul\":993:1045   */\n      iszero\n      tag_281\n      jumpi\n        /* \"#utility.yul\":1041:1042   */\n      0x00\n        /* \"#utility.yul\":1038:1039   */\n      dup1\n        /* \"#utility.yul\":1031:1043   */\n      revert\n        /* \"#utility.yul\":993:1045   */\n    tag_281:\n        /* \"#utility.yul\":1064:1093   */\n      tag_282\n        /* \"#utility.yul\":1083:1092   */\n      dup4\n        /* \"#utility.yul\":1064:1093   */\n      tag_260\n      jump\t// in\n    tag_282:\n        /* \"#utility.yul\":1054:1093   */\n      swap2\n      pop\n        /* \"#utility.yul\":1112:1150   */\n      tag_283\n        /* \"#utility.yul\":1146:1148   */\n      0x20\n        /* \"#utility.yul\":1135:1144   */\n      dup5\n        /* \"#utility.yul\":1131:1149   */\n      add\n        /* \"#utility.yul\":1112:1150   */\n      tag_260\n      jump\t// in\n    tag_283:\n        /* \"#utility.yul\":1102:1150   */\n      swap1\n      pop\n        /* \"#utility.yul\":896:1156   */\n      swap3\n      pop\n      swap3\n      swap1\n      pop\n      jump\t// out\n        /* \"#utility.yul\":1564:1853   */\n    tag_261:\n        /* \"#utility.yul\":1606:1609   */\n      0x00\n        /* \"#utility.yul\":1644:1649   */\n      dup2\n        /* \"#utility.yul\":1638:1650   */\n      mload\n        /* \"#utility.yul\":1671:1677   */\n      dup1\n        /* \"#utility.yul\":1666:1669   */\n      dup5\n        /* \"#utility.yul\":1659:1678   */\n      mstore\n        /* \"#utility.yul\":1727:1733   */\n      dup1\n        /* \"#utility.yul\":1720:1724   */\n      0x20\n        /* \"#utility.yul\":1713:1718   */\n      dup5\n        /* \"#utility.yul\":1709:1725   */\n      add\n        /* \"#utility.yul\":1702:1706   */\n      0x20\n        /* \"#utility.yul\":1697:1700   */\n      dup7\n        /* \"#utility.yul\":1693:1707   */\n      add\n        /* \"#utility.yul\":1687:1734   */\n      mcopy\n        /* \"#utility.yul\":1779:1780   */\n      0x00\n        /* \"#utility.yul\":1772:1776   */\n      0x20\n        /* \"#utility.yul\":1763:1769   */\n      dup3\n        /* \"#utility.yul\":1758:1761   */\n      dup7\n        /* \"#utility.yul\":1754:1770   */\n      add\n        /* \"#utility.yul\":1750:1777   */\n      add\n        /* \"#utility.yul\":1743:1781   */\n      mstore\n        /* \"#utility.yul\":1842:1846   */\n      0x20\n        /* \"#utility.yul\":1835:1837   */\n      0x1f\n        /* \"#utility.yul\":1831:1838   */\n      not\n        /* \"#utility.yul\":1826:1828   */\n      0x1f\n        /* \"#utility.yul\":1818:1824   */\n      dup4\n        /* \"#utility.yul\":1814:1829   */\n      add\n        /* \"#utility.yul\":1810:1839   */\n      and\n        /* \"#utility.yul\":1805:1808   */\n      dup6\n        /* \"#utility.yul\":1801:1840   */\n      add\n        /* \"#utility.yul\":1797:1847   */\n      add\n        /* \"#utility.yul\":1790:1847   */\n      swap2\n      pop\n      pop\n        /* \"#utility.yul\":1564:1853   */\n      swap3\n      swap2\n      pop\n      pop\n      jump\t// out\n        /* \"#utility.yul\":1858:2456   */\n    tag_262:\n        /* \"#utility.yul\":1910:1913   */\n      0x00\n        /* \"#utility.yul\":1941:1944   */\n      dup3\n        /* \"#utility.yul\":1973:1978   */\n      dup3\n        /* \"#utility.yul\":1967:1979   */\n      mload\n        /* \"#utility.yul\":2000:2006   */\n      dup1\n        /* \"#utility.yul\":1995:1998   */\n      dup6\n        /* \"#utility.yul\":1988:2007   */\n      mstore\n        /* \"#utility.yul\":2026:2030   */\n      0x20\n        /* \"#utility.yul\":2055:2059   */\n      dup1\n        /* \"#utility.yul\":2050:2053   */\n      dup7\n        /* \"#utility.yul\":2046:2060   */\n      add\n        /* \"#utility.yul\":2039:2060   */\n      swap6\n      pop\n        /* \"#utility.yul\":2113:2117   */\n      0x20\n        /* \"#utility.yul\":2103:2109   */\n      dup3\n        /* \"#utility.yul\":2100:2101   */\n      0x05\n        /* \"#utility.yul\":2096:2110   */\n      shl\n        /* \"#utility.yul\":2089:2094   */\n      dup5\n        /* \"#utility.yul\":2085:2111   */\n      add\n        /* \"#utility.yul\":2081:2118   */\n      add\n        /* \"#utility.yul\":2152:2156   */\n      0x20\n        /* \"#utility.yul\":2145:2150   */\n      dup7\n        /* \"#utility.yul\":2141:2157   */\n      add\n        /* \"#utility.yul\":2175:2176   */\n      0x00\n        /* \"#utility.yul\":2185:2430   */\n    tag_287:\n        /* \"#utility.yul\":2199:2205   */\n      dup5\n        /* \"#utility.yul\":2196:2197   */\n      dup2\n        /* \"#utility.yul\":2193:2206   */\n      lt\n        /* \"#utility.yul\":2185:2430   */\n      iszero\n      tag_289\n      jumpi\n        /* \"#utility.yul\":2286:2288   */\n      0x1f\n        /* \"#utility.yul\":2282:2289   */\n      not\n        /* \"#utility.yul\":2274:2279   */\n      dup7\n        /* \"#utility.yul\":2268:2272   */\n      dup5\n        /* \"#utility.yul\":2264:2280   */\n      sub\n        /* \"#utility.yul\":2260:2290   */\n      add\n        /* \"#utility.yul\":2255:2258   */\n      dup10\n        /* \"#utility.yul\":2248:2291   */\n      mstore\n        /* \"#utility.yul\":2312:2350   */\n      tag_290\n        /* \"#utility.yul\":2345:2349   */\n      dup4\n        /* \"#utility.yul\":2336:2342   */\n      dup4\n        /* \"#utility.yul\":2330:2343   */\n      mload\n        /* \"#utility.yul\":2312:2350   */\n      tag_261\n      jump\t// in\n    tag_290:\n        /* \"#utility.yul\":2408:2420   */\n      swap9\n      dup5\n      add\n      swap9\n        /* \"#utility.yul\":2304:2350   */\n      swap3\n      pop\n        /* \"#utility.yul\":2373:2388   */\n      swap1\n      dup4\n      add\n      swap1\n        /* \"#utility.yul\":2221:2222   */\n      0x01\n        /* \"#utility.yul\":2214:2223   */\n      add\n        /* \"#utility.yul\":2185:2430   */\n      jump(tag_287)\n    tag_289:\n      pop\n        /* \"#utility.yul\":2446:2450   */\n      swap1\n      swap8\n        /* \"#utility.yul\":1858:2456   */\n      swap7\n      pop\n      pop\n      pop\n      pop\n      pop\n      pop\n      pop\n      jump\t// out\n        /* \"#utility.yul\":2461:2900   */\n    tag_263:\n        /* \"#utility.yul\":2514:2517   */\n      0x00\n        /* \"#utility.yul\":2552:2557   */\n      dup2\n        /* \"#utility.yul\":2546:2558   */\n      mload\n        /* \"#utility.yul\":2579:2585   */\n      dup1\n        /* \"#utility.yul\":2574:2577   */\n      dup5\n        /* \"#utility.yul\":2567:2586   */\n      mstore\n        /* \"#utility.yul\":2605:2609   */\n      0x20\n        /* \"#utility.yul\":2634:2638   */\n      dup1\n        /* \"#utility.yul\":2629:2632   */\n      dup6\n        /* \"#utility.yul\":2625:2639   */\n      add\n        /* \"#utility.yul\":2618:2639   */\n      swap5\n      pop\n        /* \"#utility.yul\":2673:2677   */\n      0x20\n        /* \"#utility.yul\":2666:2671   */\n      dup5\n        /* \"#utility.yul\":2662:2678   */\n      add\n        /* \"#utility.yul\":2696:2697   */\n      0x00\n        /* \"#utility.yul\":2706:2875   */\n    tag_292:\n        /* \"#utility.yul\":2720:2726   */\n      dup4\n        /* \"#utility.yul\":2717:2718   */\n      dup2\n        /* \"#utility.yul\":2714:2727   */\n      lt\n        /* \"#utility.yul\":2706:2875   */\n      iszero\n      tag_294\n      jumpi\n        /* \"#utility.yul\":2781:2794   */\n      dup2\n      mload\n        /* \"#utility.yul\":2769:2795   */\n      dup8\n      mstore\n        /* \"#utility.yul\":2815:2827   */\n      swap6\n      dup3\n      add\n      swap6\n        /* \"#utility.yul\":2850:2865   */\n      swap1\n      dup3\n      add\n      swap1\n        /* \"#utility.yul\":2742:2743   */\n      0x01\n        /* \"#utility.yul\":2735:2744   */\n      add\n        /* \"#utility.yul\":2706:2875   */\n      jump(tag_292)\n    tag_294:\n      pop\n        /* \"#utility.yul\":2891:2894   */\n      swap5\n      swap6\n        /* \"#utility.yul\":2461:2900   */\n      swap5\n      pop\n      pop\n      pop\n      pop\n      pop\n      jump\t// out\n        /* \"#utility.yul\":2905:4687   */\n    tag_34:\n        /* \"#utility.yul\":3546:3549   */\n      0xe0\n        /* \"#utility.yul\":3535:3544   */\n      dup2\n        /* \"#utility.yul\":3528:3550   */\n      mstore\n        /* \"#utility.yul\":3509:3513   */\n      0x00\n        /* \"#utility.yul\":3573:3629   */\n      tag_296\n        /* \"#utility.yul\":3624:3627   */\n      0xe0\n        /* \"#utility.yul\":3613:3622   */\n      dup4\n        /* \"#utility.yul\":3609:3628   */\n      add\n        /* \"#utility.yul\":3601:3607   */\n      dup11\n        /* \"#utility.yul\":3573:3629   */\n      tag_262\n      jump\t// in\n    tag_296:\n        /* \"#utility.yul\":3648:3650   */\n      0x20\n        /* \"#utility.yul\":3698:3707   */\n      dup4\n        /* \"#utility.yul\":3690:3696   */\n      dup3\n        /* \"#utility.yul\":3686:3708   */\n      sub\n        /* \"#utility.yul\":3681:3683   */\n      0x20\n        /* \"#utility.yul\":3670:3679   */\n      dup6\n        /* \"#utility.yul\":3666:3684   */\n      add\n        /* \"#utility.yul\":3659:3709   */\n      mstore\n        /* \"#utility.yul\":3732:3776   */\n      tag_297\n        /* \"#utility.yul\":3769:3775   */\n      dup3\n        /* \"#utility.yul\":3761:3767   */\n      dup12\n        /* \"#utility.yul\":3732:3776   */\n      tag_263\n      jump\t// in\n    tag_297:\n        /* \"#utility.yul\":3812:3834   */\n      dup5\n      dup2\n      sub\n        /* \"#utility.yul\":3807:3809   */\n      0x40\n        /* \"#utility.yul\":3792:3810   */\n      dup7\n      add\n        /* \"#utility.yul\":3785:3835   */\n      mstore\n        /* \"#utility.yul\":3884:3897   */\n      dup10\n      mload\n        /* \"#utility.yul\":3906:3928   */\n      dup1\n      dup3\n      mstore\n        /* \"#utility.yul\":3956:3958   */\n      0x20\n        /* \"#utility.yul\":3982:3997   */\n      dup1\n      dup13\n      add\n      swap5\n      pop\n        /* \"#utility.yul\":3944:3959   */\n      swap1\n      swap2\n      add\n      swap1\n        /* \"#utility.yul\":4015:4016   */\n      0x00\n        /* \"#utility.yul\":4025:4210   */\n    tag_298:\n        /* \"#utility.yul\":4039:4045   */\n      dup2\n        /* \"#utility.yul\":4036:4037   */\n      dup2\n        /* \"#utility.yul\":4033:4046   */\n      lt\n        /* \"#utility.yul\":4025:4210   */\n      iszero\n      tag_300\n      jumpi\n        /* \"#utility.yul\":4114:4127   */\n      dup5\n      mload\n        /* \"#utility.yul\":4107:4128   */\n      iszero\n        /* \"#utility.yul\":4100:4129   */\n      iszero\n        /* \"#utility.yul\":4088:4130   */\n      dup4\n      mstore\n        /* \"#utility.yul\":4185:4200   */\n      swap4\n      dup4\n      add\n      swap4\n        /* \"#utility.yul\":4150:4162   */\n      swap2\n      dup4\n      add\n      swap2\n        /* \"#utility.yul\":4061:4062   */\n      0x01\n        /* \"#utility.yul\":4054:4063   */\n      add\n        /* \"#utility.yul\":4025:4210   */\n      jump(tag_298)\n    tag_300:\n        /* \"#utility.yul\":4029:4032   */\n      pop\n      pop\n        /* \"#utility.yul\":4255:4264   */\n      dup5\n        /* \"#utility.yul\":4250:4253   */\n      dup2\n        /* \"#utility.yul\":4246:4265   */\n      sub\n        /* \"#utility.yul\":4241:4243   */\n      0x60\n        /* \"#utility.yul\":4230:4239   */\n      dup7\n        /* \"#utility.yul\":4226:4244   */\n      add\n        /* \"#utility.yul\":4219:4266   */\n      mstore\n        /* \"#utility.yul\":4289:4329   */\n      tag_301\n        /* \"#utility.yul\":4325:4328   */\n      dup2\n        /* \"#utility.yul\":4317:4323   */\n      dup11\n        /* \"#utility.yul\":4289:4329   */\n      tag_262\n      jump\t// in\n    tag_301:\n        /* \"#utility.yul\":4275:4329   */\n      swap3\n      pop\n      pop\n      pop\n        /* \"#utility.yul\":4378:4387   */\n      dup3\n        /* \"#utility.yul\":4370:4376   */\n      dup2\n        /* \"#utility.yul\":4366:4388   */\n      sub\n        /* \"#utility.yul\":4360:4363   */\n      0x80\n        /* \"#utility.yul\":4349:4358   */\n      dup5\n        /* \"#utility.yul\":4345:4364   */\n      add\n        /* \"#utility.yul\":4338:4389   */\n      mstore\n        /* \"#utility.yul\":4412:4455   */\n      tag_302\n        /* \"#utility.yul\":4448:4454   */\n      dup2\n        /* \"#utility.yul\":4440:4446   */\n      dup8\n        /* \"#utility.yul\":4412:4455   */\n      tag_262\n      jump\t// in\n    tag_302:\n        /* \"#utility.yul\":4398:4455   */\n      swap1\n      pop\n        /* \"#utility.yul\":4504:4513   */\n      dup3\n        /* \"#utility.yul\":4496:4502   */\n      dup2\n        /* \"#utility.yul\":4492:4514   */\n      sub\n        /* \"#utility.yul\":4486:4489   */\n      0xa0\n        /* \"#utility.yul\":4475:4484   */\n      dup5\n        /* \"#utility.yul\":4471:4490   */\n      add\n        /* \"#utility.yul\":4464:4515   */\n      mstore\n        /* \"#utility.yul\":4538:4571   */\n      tag_303\n        /* \"#utility.yul\":4564:4570   */\n      dup2\n        /* \"#utility.yul\":4556:4562   */\n      dup7\n        /* \"#utility.yul\":4538:4571   */\n      tag_261\n      jump\t// in\n    tag_303:\n        /* \"#utility.yul\":4524:4571   */\n      swap1\n      pop\n        /* \"#utility.yul\":4620:4629   */\n      dup3\n        /* \"#utility.yul\":4612:4618   */\n      dup2\n        /* \"#utility.yul\":4608:4630   */\n      sub\n        /* \"#utility.yul\":4602:4605   */\n      0xc0\n        /* \"#utility.yul\":4591:4600   */\n      dup5\n        /* \"#utility.yul\":4587:4606   */\n      add\n        /* \"#utility.yul\":4580:4631   */\n      mstore\n        /* \"#utility.yul\":4648:4681   */\n      tag_304\n        /* \"#utility.yul\":4674:4680   */\n      dup2\n        /* \"#utility.yul\":4666:4672   */\n      dup6\n        /* \"#utility.yul\":4648:4681   */\n      tag_261\n      jump\t// in\n    tag_304:\n        /* \"#utility.yul\":4640:4681   */\n      swap11\n        /* \"#utility.yul\":2905:4687   */\n      swap10\n      pop\n      pop\n      pop\n      pop\n      pop\n      pop\n      pop\n      pop\n      pop\n      pop\n      jump\t// out\n        /* \"#utility.yul\":4692:6224   */\n    tag_38:\n        /* \"#utility.yul\":5254:5257   */\n      0xa0\n        /* \"#utility.yul\":5267:5289   */\n      dup1\n      dup3\n      mstore\n        /* \"#utility.yul\":5338:5351   */\n      dup7\n      mload\n        /* \"#utility.yul\":5239:5258   */\n      swap1\n      dup3\n      add\n        /* \"#utility.yul\":5360:5382   */\n      dup2\n      swap1\n      mstore\n        /* \"#utility.yul\":5206:5210   */\n      0x00\n      swap1\n        /* \"#utility.yul\":5436:5440   */\n      0x20\n      swap1\n        /* \"#utility.yul\":5413:5416   */\n      0xc0\n        /* \"#utility.yul\":5398:5417   */\n      dup5\n      add\n      swap1\n        /* \"#utility.yul\":5463:5480   */\n      dup3\n      dup11\n      add\n        /* \"#utility.yul\":5206:5210   */\n      dup5\n        /* \"#utility.yul\":5508:5726   */\n    tag_306:\n        /* \"#utility.yul\":5522:5528   */\n      dup3\n        /* \"#utility.yul\":5519:5520   */\n      dup2\n        /* \"#utility.yul\":5516:5529   */\n      lt\n        /* \"#utility.yul\":5508:5726   */\n      iszero\n      tag_308\n      jumpi\n        /* \"#utility.yul\":5587:5600   */\n      dup2\n      mload\n      sub(shl(0xa0, 0x01), 0x01)\n        /* \"#utility.yul\":5583:5645   */\n      and\n        /* \"#utility.yul\":5571:5646   */\n      dup5\n      mstore\n        /* \"#utility.yul\":5666:5678   */\n      swap3\n      dup5\n      add\n      swap3\n        /* \"#utility.yul\":5701:5716   */\n      swap1\n      dup5\n      add\n      swap1\n        /* \"#utility.yul\":5544:5545   */\n      0x01\n        /* \"#utility.yul\":5537:5546   */\n      add\n        /* \"#utility.yul\":5508:5726   */\n      jump(tag_306)\n    tag_308:\n        /* \"#utility.yul\":5512:5515   */\n      pop\n      pop\n      pop\n        /* \"#utility.yul\":5773:5782   */\n      dup4\n        /* \"#utility.yul\":5768:5771   */\n      dup2\n        /* \"#utility.yul\":5764:5783   */\n      sub\n        /* \"#utility.yul\":5757:5761   */\n      0x20\n        /* \"#utility.yul\":5746:5755   */\n      dup6\n        /* \"#utility.yul\":5742:5762   */\n      add\n        /* \"#utility.yul\":5735:5784   */\n      mstore\n        /* \"#utility.yul\":5807:5847   */\n      tag_309\n        /* \"#utility.yul\":5843:5846   */\n      dup2\n        /* \"#utility.yul\":5835:5841   */\n      dup10\n        /* \"#utility.yul\":5807:5847   */\n      tag_262\n      jump\t// in\n    tag_309:\n        /* \"#utility.yul\":5793:5847   */\n      swap2\n      pop\n      pop\n        /* \"#utility.yul\":5895:5904   */\n      dup3\n        /* \"#utility.yul\":5887:5893   */\n      dup2\n        /* \"#utility.yul\":5883:5905   */\n      sub\n        /* \"#utility.yul\":5878:5880   */\n      0x40\n        /* \"#utility.yul\":5867:5876   */\n      dup5\n        /* \"#utility.yul\":5863:5881   */\n      add\n        /* \"#utility.yul\":5856:5906   */\n      mstore\n        /* \"#utility.yul\":5929:5972   */\n      tag_310\n        /* \"#utility.yul\":5965:5971   */\n      dup2\n        /* \"#utility.yul\":5957:5963   */\n      dup8\n        /* \"#utility.yul\":5929:5972   */\n      tag_262\n      jump\t// in\n    tag_310:\n        /* \"#utility.yul\":5915:5972   */\n      swap1\n      pop\n        /* \"#utility.yul\":6020:6029   */\n      dup3\n        /* \"#utility.yul\":6012:6018   */\n      dup2\n        /* \"#utility.yul\":6008:6030   */\n      sub\n        /* \"#utility.yul\":6003:6005   */\n      0x60\n        /* \"#utility.yul\":5992:6001   */\n      dup5\n        /* \"#utility.yul\":5988:6006   */\n      add\n        /* \"#utility.yul\":5981:6031   */\n      mstore\n        /* \"#utility.yul\":6054:6097   */\n      tag_311\n        /* \"#utility.yul\":6090:6096   */\n      dup2\n        /* \"#utility.yul\":6082:6088   */\n      dup7\n        /* \"#utility.yul\":6054:6097   */\n      tag_262\n      jump\t// in\n    tag_311:\n        /* \"#utility.yul\":6040:6097   */\n      swap1\n      pop\n        /* \"#utility.yul\":6146:6155   */\n      dup3\n        /* \"#utility.yul\":6138:6144   */\n      dup2\n        /* \"#utility.yul\":6134:6156   */\n      sub\n        /* \"#utility.yul\":6128:6131   */\n      0x80\n        /* \"#utility.yul\":6117:6126   */\n      dup5\n        /* \"#utility.yul\":6113:6132   */\n      add\n        /* \"#utility.yul\":6106:6157   */\n      mstore\n        /* \"#utility.yul\":6174:6218   */\n      tag_312\n        /* \"#utility.yul\":6211:6217   */\n      dup2\n        /* \"#utility.yul\":6203:6209   */\n      dup6\n        /* \"#utility.yul\":6174:6218   */\n      tag_263\n      jump\t// in\n    tag_312:\n        /* \"#utility.yul\":6166:6218   */\n      swap9\n        /* \"#utility.yul\":4692:6224   */\n      swap8\n      pop\n      pop\n      pop\n      pop\n      pop\n      pop\n      pop\n      pop\n      jump\t// out\n        /* \"#utility.yul\":6229:6356   */\n    tag_75:\n        /* \"#utility.yul\":6290:6300   */\n      0x4e487b71\n        /* \"#utility.yul\":6285:6288   */\n      0xe0\n        /* \"#utility.yul\":6281:6301   */\n      shl\n        /* \"#utility.yul\":6278:6279   */\n      0x00\n        /* \"#utility.yul\":6271:6302   */\n      mstore\n        /* \"#utility.yul\":6321:6325   */\n      0x41\n        /* \"#utility.yul\":6318:6319   */\n      0x04\n        /* \"#utility.yul\":6311:6326   */\n      mstore\n        /* \"#utility.yul\":6345:6349   */\n      0x24\n        /* \"#utility.yul\":6342:6343   */\n      0x00\n        /* \"#utility.yul\":6335:6350   */\n      revert\n        /* \"#utility.yul\":6361:6636   */\n    tag_264:\n        /* \"#utility.yul\":6432:6434   */\n      0x40\n        /* \"#utility.yul\":6426:6435   */\n      mload\n        /* \"#utility.yul\":6497:6499   */\n      0x1f\n        /* \"#utility.yul\":6478:6491   */\n      dup3\n      add\n      not(0x1f)\n        /* \"#utility.yul\":6474:6501   */\n      and\n        /* \"#utility.yul\":6462:6502   */\n      dup2\n      add\n        /* \"#utility.yul\":6532:6550   */\n      0xffffffffffffffff\n        /* \"#utility.yul\":6517:6551   */\n      dup2\n      gt\n        /* \"#utility.yul\":6553:6575   */\n      dup3\n      dup3\n      lt\n        /* \"#utility.yul\":6514:6576   */\n      or\n        /* \"#utility.yul\":6511:6599   */\n      iszero\n      tag_316\n      jumpi\n        /* \"#utility.yul\":6579:6597   */\n      tag_316\n      tag_75\n      jump\t// in\n    tag_316:\n        /* \"#utility.yul\":6615:6617   */\n      0x40\n        /* \"#utility.yul\":6608:6630   */\n      mstore\n        /* \"#utility.yul\":6361:6636   */\n      swap2\n      swap1\n      pop\n      jump\t// out\n        /* \"#utility.yul\":6641:6828   */\n    tag_265:\n        /* \"#utility.yul\":6690:6694   */\n      0x00\n        /* \"#utility.yul\":6723:6741   */\n      0xffffffffffffffff\n        /* \"#utility.yul\":6715:6721   */\n      dup3\n        /* \"#utility.yul\":6712:6742   */\n      gt\n        /* \"#utility.yul\":6709:6765   */\n      iszero\n      tag_319\n      jumpi\n        /* \"#utility.yul\":6745:6763   */\n      tag_319\n      tag_75\n      jump\t// in\n    tag_319:\n      pop\n        /* \"#utility.yul\":6811:6813   */\n      0x1f\n        /* \"#utility.yul\":6790:6805   */\n      add\n      not(0x1f)\n        /* \"#utility.yul\":6786:6815   */\n      and\n        /* \"#utility.yul\":6817:6821   */\n      0x20\n        /* \"#utility.yul\":6782:6822   */\n      add\n      swap1\n        /* \"#utility.yul\":6641:6828   */\n      jump\t// out\n        /* \"#utility.yul\":6833:7580   */\n    tag_41:\n        /* \"#utility.yul\":6911:6917   */\n      0x00\n        /* \"#utility.yul\":6919:6925   */\n      dup1\n        /* \"#utility.yul\":6972:6974   */\n      0x40\n        /* \"#utility.yul\":6960:6969   */\n      dup4\n        /* \"#utility.yul\":6951:6958   */\n      dup6\n        /* \"#utility.yul\":6947:6970   */\n      sub\n        /* \"#utility.yul\":6943:6975   */\n      slt\n        /* \"#utility.yul\":6940:6992   */\n      iszero\n      tag_321\n      jumpi\n        /* \"#utility.yul\":6988:6989   */\n      0x00\n        /* \"#utility.yul\":6985:6986   */\n      dup1\n        /* \"#utility.yul\":6978:6990   */\n      revert\n        /* \"#utility.yul\":6940:6992   */\n    tag_321:\n        /* \"#utility.yul\":7011:7040   */\n      tag_322\n        /* \"#utility.yul\":7030:7039   */\n      dup4\n        /* \"#utility.yul\":7011:7040   */\n      tag_260\n      jump\t// in\n    tag_322:\n        /* \"#utility.yul\":7001:7040   */\n      swap2\n      pop\n        /* \"#utility.yul\":7091:7093   */\n      0x20\n        /* \"#utility.yul\":7080:7089   */\n      dup4\n        /* \"#utility.yul\":7076:7094   */\n      add\n        /* \"#utility.yul\":7063:7095   */\n      calldataload\n        /* \"#utility.yul\":7118:7136   */\n      0xffffffffffffffff\n        /* \"#utility.yul\":7110:7116   */\n      dup2\n        /* \"#utility.yul\":7107:7137   */\n      gt\n        /* \"#utility.yul\":7104:7154   */\n      iszero\n      tag_323\n      jumpi\n        /* \"#utility.yul\":7150:7151   */\n      0x00\n        /* \"#utility.yul\":7147:7148   */\n      dup1\n        /* \"#utility.yul\":7140:7152   */\n      revert\n        /* \"#utility.yul\":7104:7154   */\n    tag_323:\n        /* \"#utility.yul\":7173:7195   */\n      dup4\n      add\n        /* \"#utility.yul\":7226:7230   */\n      0x1f\n        /* \"#utility.yul\":7218:7231   */\n      dup2\n      add\n        /* \"#utility.yul\":7214:7241   */\n      dup6\n      sgt\n        /* \"#utility.yul\":7204:7259   */\n      tag_324\n      jumpi\n        /* \"#utility.yul\":7255:7256   */\n      0x00\n        /* \"#utility.yul\":7252:7253   */\n      dup1\n        /* \"#utility.yul\":7245:7257   */\n      revert\n        /* \"#utility.yul\":7204:7259   */\n    tag_324:\n        /* \"#utility.yul\":7291:7293   */\n      dup1\n        /* \"#utility.yul\":7278:7294   */\n      calldataload\n        /* \"#utility.yul\":7316:7365   */\n      tag_325\n        /* \"#utility.yul\":7332:7364   */\n      tag_326\n        /* \"#utility.yul\":7361:7363   */\n      dup3\n        /* \"#utility.yul\":7332:7364   */\n      tag_265\n      jump\t// in\n    tag_326:\n        /* \"#utility.yul\":7316:7365   */\n      tag_264\n      jump\t// in\n    tag_325:\n        /* \"#utility.yul\":7388:7390   */\n      dup2\n        /* \"#utility.yul\":7381:7386   */\n      dup2\n        /* \"#utility.yul\":7374:7391   */\n      mstore\n        /* \"#utility.yul\":7428:7435   */\n      dup7\n        /* \"#utility.yul\":7423:7425   */\n      0x20\n        /* \"#utility.yul\":7418:7420   */\n      dup4\n        /* \"#utility.yul\":7414:7416   */\n      dup6\n        /* \"#utility.yul\":7410:7421   */\n      add\n        /* \"#utility.yul\":7406:7426   */\n      add\n        /* \"#utility.yul\":7403:7436   */\n      gt\n        /* \"#utility.yul\":7400:7453   */\n      iszero\n      tag_327\n      jumpi\n        /* \"#utility.yul\":7449:7450   */\n      0x00\n        /* \"#utility.yul\":7446:7447   */\n      dup1\n        /* \"#utility.yul\":7439:7451   */\n      revert\n        /* \"#utility.yul\":7400:7453   */\n    tag_327:\n        /* \"#utility.yul\":7504:7506   */\n      dup2\n        /* \"#utility.yul\":7499:7501   */\n      0x20\n        /* \"#utility.yul\":7495:7497   */\n      dup5\n        /* \"#utility.yul\":7491:7502   */\n      add\n        /* \"#utility.yul\":7486:7488   */\n      0x20\n        /* \"#utility.yul\":7479:7484   */\n      dup4\n        /* \"#utility.yul\":7475:7489   */\n      add\n        /* \"#utility.yul\":7462:7507   */\n      calldatacopy\n        /* \"#utility.yul\":7548:7549   */\n      0x00\n        /* \"#utility.yul\":7543:7545   */\n      0x20\n        /* \"#utility.yul\":7538:7540   */\n      dup4\n        /* \"#utility.yul\":7531:7536   */\n      dup4\n        /* \"#utility.yul\":7527:7541   */\n      add\n        /* \"#utility.yul\":7523:7546   */\n      add\n        /* \"#utility.yul\":7516:7550   */\n      mstore\n        /* \"#utility.yul\":7569:7574   */\n      dup1\n        /* \"#utility.yul\":7559:7574   */\n      swap4\n      pop\n      pop\n      pop\n      pop\n        /* \"#utility.yul\":6833:7580   */\n      swap3\n      pop\n      swap3\n      swap1\n      pop\n      jump\t// out\n        /* \"#utility.yul\":7585:7862   */\n    tag_50:\n        /* \"#utility.yul\":7652:7658   */\n      0x00\n        /* \"#utility.yul\":7705:7707   */\n      0x20\n        /* \"#utility.yul\":7693:7702   */\n      dup3\n        /* \"#utility.yul\":7684:7691   */\n      dup5\n        /* \"#utility.yul\":7680:7703   */\n      sub\n        /* \"#utility.yul\":7676:7708   */\n      slt\n        /* \"#utility.yul\":7673:7725   */\n      iszero\n      tag_329\n      jumpi\n        /* \"#utility.yul\":7721:7722   */\n      0x00\n        /* \"#utility.yul\":7718:7719   */\n      dup1\n        /* \"#utility.yul\":7711:7723   */\n      revert\n        /* \"#utility.yul\":7673:7725   */\n    tag_329:\n        /* \"#utility.yul\":7753:7762   */\n      dup2\n        /* \"#utility.yul\":7747:7763   */\n      mload\n        /* \"#utility.yul\":7806:7811   */\n      dup1\n        /* \"#utility.yul\":7799:7812   */\n      iszero\n        /* \"#utility.yul\":7792:7813   */\n      iszero\n        /* \"#utility.yul\":7785:7790   */\n      dup2\n        /* \"#utility.yul\":7782:7814   */\n      eq\n        /* \"#utility.yul\":7772:7832   */\n      tag_279\n      jumpi\n        /* \"#utility.yul\":7828:7829   */\n      0x00\n        /* \"#utility.yul\":7825:7826   */\n      dup1\n        /* \"#utility.yul\":7818:7830   */\n      revert\n        /* \"#utility.yul\":8219:8346   */\n    tag_59:\n        /* \"#utility.yul\":8280:8290   */\n      0x4e487b71\n        /* \"#utility.yul\":8275:8278   */\n      0xe0\n        /* \"#utility.yul\":8271:8291   */\n      shl\n        /* \"#utility.yul\":8268:8269   */\n      0x00\n        /* \"#utility.yul\":8261:8292   */\n      mstore\n        /* \"#utility.yul\":8311:8315   */\n      0x32\n        /* \"#utility.yul\":8308:8309   */\n      0x04\n        /* \"#utility.yul\":8301:8316   */\n      mstore\n        /* \"#utility.yul\":8335:8339   */\n      0x24\n        /* \"#utility.yul\":8332:8333   */\n      0x00\n        /* \"#utility.yul\":8325:8340   */\n      revert\n        /* \"#utility.yul\":8351:9014   */\n    tag_114:\n        /* \"#utility.yul\":8431:8437   */\n      0x00\n        /* \"#utility.yul\":8484:8486   */\n      0x20\n        /* \"#utility.yul\":8472:8481   */\n      dup3\n        /* \"#utility.yul\":8463:8470   */\n      dup5\n        /* \"#utility.yul\":8459:8482   */\n      sub\n        /* \"#utility.yul\":8455:8487   */\n      slt\n        /* \"#utility.yul\":8452:8504   */\n      iszero\n      tag_334\n      jumpi\n        /* \"#utility.yul\":8500:8501   */\n      0x00\n        /* \"#utility.yul\":8497:8498   */\n      dup1\n        /* \"#utility.yul\":8490:8502   */\n      revert\n        /* \"#utility.yul\":8452:8504   */\n    tag_334:\n        /* \"#utility.yul\":8533:8542   */\n      dup2\n        /* \"#utility.yul\":8527:8543   */\n      mload\n        /* \"#utility.yul\":8566:8584   */\n      0xffffffffffffffff\n        /* \"#utility.yul\":8558:8564   */\n      dup2\n        /* \"#utility.yul\":8555:8585   */\n      gt\n        /* \"#utility.yul\":8552:8602   */\n      iszero\n      tag_335\n      jumpi\n        /* \"#utility.yul\":8598:8599   */\n      0x00\n        /* \"#utility.yul\":8595:8596   */\n      dup1\n        /* \"#utility.yul\":8588:8600   */\n      revert\n        /* \"#utility.yul\":8552:8602   */\n    tag_335:\n        /* \"#utility.yul\":8621:8643   */\n      dup3\n      add\n        /* \"#utility.yul\":8674:8678   */\n      0x1f\n        /* \"#utility.yul\":8666:8679   */\n      dup2\n      add\n        /* \"#utility.yul\":8662:8689   */\n      dup5\n      sgt\n        /* \"#utility.yul\":8652:8707   */\n      tag_336\n      jumpi\n        /* \"#utility.yul\":8703:8704   */\n      0x00\n        /* \"#utility.yul\":8700:8701   */\n      dup1\n        /* \"#utility.yul\":8693:8705   */\n      revert\n        /* \"#utility.yul\":8652:8707   */\n    tag_336:\n        /* \"#utility.yul\":8732:8734   */\n      dup1\n        /* \"#utility.yul\":8726:8735   */\n      mload\n        /* \"#utility.yul\":8757:8806   */\n      tag_337\n        /* \"#utility.yul\":8773:8805   */\n      tag_326\n        /* \"#utility.yul\":8802:8804   */\n      dup3\n        /* \"#utility.yul\":8773:8805   */\n      tag_265\n      jump\t// in\n        /* \"#utility.yul\":8757:8806   */\n    tag_337:\n        /* \"#utility.yul\":8829:8831   */\n      dup2\n        /* \"#utility.yul\":8822:8827   */\n      dup2\n        /* \"#utility.yul\":8815:8832   */\n      mstore\n        /* \"#utility.yul\":8869:8876   */\n      dup6\n        /* \"#utility.yul\":8864:8866   */\n      0x20\n        /* \"#utility.yul\":8859:8861   */\n      dup4\n        /* \"#utility.yul\":8855:8857   */\n      dup6\n        /* \"#utility.yul\":8851:8862   */\n      add\n        /* \"#utility.yul\":8847:8867   */\n      add\n        /* \"#utility.yul\":8844:8877   */\n      gt\n        /* \"#utility.yul\":8841:8894   */\n      iszero\n      tag_339\n      jumpi\n        /* \"#utility.yul\":8890:8891   */\n      0x00\n        /* \"#utility.yul\":8887:8888   */\n      dup1\n        /* \"#utility.yul\":8880:8892   */\n      revert\n        /* \"#utility.yul\":8841:8894   */\n    tag_339:\n        /* \"#utility.yul\":8938:8940   */\n      dup2\n        /* \"#utility.yul\":8933:8935   */\n      0x20\n        /* \"#utility.yul\":8929:8931   */\n      dup5\n        /* \"#utility.yul\":8925:8936   */\n      add\n        /* \"#utility.yul\":8920:8922   */\n      0x20\n        /* \"#utility.yul\":8913:8918   */\n      dup4\n        /* \"#utility.yul\":8909:8923   */\n      add\n        /* \"#utility.yul\":8903:8941   */\n      mcopy\n        /* \"#utility.yul\":8982:8983   */\n      0x00\n        /* \"#utility.yul\":8961:8975   */\n      swap2\n      dup2\n      add\n        /* \"#utility.yul\":8977:8979   */\n      0x20\n        /* \"#utility.yul\":8957:8980   */\n      add\n        /* \"#utility.yul\":8950:8984   */\n      swap2\n      swap1\n      swap2\n      mstore\n        /* \"#utility.yul\":8965:8970   */\n      swap5\n        /* \"#utility.yul\":8351:9014   */\n      swap4\n      pop\n      pop\n      pop\n      pop\n      jump\t// out\n        /* \"#utility.yul\":9019:9399   */\n    tag_126:\n        /* \"#utility.yul\":9098:9099   */\n      0x01\n        /* \"#utility.yul\":9094:9106   */\n      dup2\n      dup2\n      shr\n      swap1\n        /* \"#utility.yul\":9141:9153   */\n      dup3\n      and\n      dup1\n        /* \"#utility.yul\":9162:9223   */\n      tag_341\n      jumpi\n        /* \"#utility.yul\":9216:9220   */\n      0x7f\n        /* \"#utility.yul\":9208:9214   */\n      dup3\n        /* \"#utility.yul\":9204:9221   */\n      and\n        /* \"#utility.yul\":9194:9221   */\n      swap2\n      pop\n        /* \"#utility.yul\":9162:9223   */\n    tag_341:\n        /* \"#utility.yul\":9269:9271   */\n      0x20\n        /* \"#utility.yul\":9261:9267   */\n      dup3\n        /* \"#utility.yul\":9258:9272   */\n      lt\n        /* \"#utility.yul\":9238:9256   */\n      dup2\n        /* \"#utility.yul\":9235:9273   */\n      sub\n        /* \"#utility.yul\":9232:9393   */\n      tag_342\n      jumpi\n        /* \"#utility.yul\":9315:9325   */\n      0x4e487b71\n        /* \"#utility.yul\":9310:9313   */\n      0xe0\n        /* \"#utility.yul\":9306:9326   */\n      shl\n        /* \"#utility.yul\":9303:9304   */\n      0x00\n        /* \"#utility.yul\":9296:9327   */\n      mstore\n        /* \"#utility.yul\":9350:9354   */\n      0x22\n        /* \"#utility.yul\":9347:9348   */\n      0x04\n        /* \"#utility.yul\":9340:9355   */\n      mstore\n        /* \"#utility.yul\":9378:9382   */\n      0x24\n        /* \"#utility.yul\":9375:9376   */\n      0x00\n        /* \"#utility.yul\":9368:9383   */\n      revert\n        /* \"#utility.yul\":9232:9393   */\n    tag_342:\n      pop\n        /* \"#utility.yul\":9019:9399   */\n      swap2\n      swap1\n      pop\n      jump\t// out\n        /* \"#utility.yul\":9404:9531   */\n    tag_266:\n        /* \"#utility.yul\":9465:9475   */\n      0x4e487b71\n        /* \"#utility.yul\":9460:9463   */\n      0xe0\n        /* \"#utility.yul\":9456:9476   */\n      shl\n        /* \"#utility.yul\":9453:9454   */\n      0x00\n        /* \"#utility.yul\":9446:9477   */\n      mstore\n        /* \"#utility.yul\":9496:9500   */\n      0x11\n        /* \"#utility.yul\":9493:9494   */\n      0x04\n        /* \"#utility.yul\":9486:9501   */\n      mstore\n        /* \"#utility.yul\":9520:9524   */\n      0x24\n        /* \"#utility.yul\":9517:9518   */\n      0x00\n        /* \"#utility.yul\":9510:9525   */\n      revert\n        /* \"#utility.yul\":9536:9664   */\n    tag_213:\n        /* \"#utility.yul\":9603:9612   */\n      dup2\n      dup2\n      sub\n        /* \"#utility.yul\":9624:9635   */\n      dup2\n      dup2\n      gt\n        /* \"#utility.yul\":9621:9658   */\n      iszero\n      tag_346\n      jumpi\n        /* \"#utility.yul\":9638:9656   */\n      tag_346\n      tag_266\n      jump\t// in\n    tag_346:\n        /* \"#utility.yul\":9536:9664   */\n      swap3\n      swap2\n      pop\n      pop\n      jump\t// out\n        /* \"#utility.yul\":10530:11048   */\n    tag_268:\n        /* \"#utility.yul\":10632:10634   */\n      0x1f\n        /* \"#utility.yul\":10627:10630   */\n      dup3\n        /* \"#utility.yul\":10624:10635   */\n      gt\n        /* \"#utility.yul\":10621:11042   */\n      iszero\n      tag_351\n      jumpi\n        /* \"#utility.yul\":10668:10673   */\n      dup1\n        /* \"#utility.yul\":10665:10666   */\n      0x00\n        /* \"#utility.yul\":10658:10674   */\n      mstore\n        /* \"#utility.yul\":10712:10716   */\n      0x20\n        /* \"#utility.yul\":10709:10710   */\n      0x00\n        /* \"#utility.yul\":10699:10717   */\n      keccak256\n        /* \"#utility.yul\":10782:10784   */\n      0x1f\n        /* \"#utility.yul\":10770:10780   */\n      dup5\n        /* \"#utility.yul\":10766:10785   */\n      add\n        /* \"#utility.yul\":10763:10764   */\n      0x05\n        /* \"#utility.yul\":10759:10786   */\n      shr\n        /* \"#utility.yul\":10753:10757   */\n      dup2\n        /* \"#utility.yul\":10749:10787   */\n      add\n        /* \"#utility.yul\":10818:10822   */\n      0x20\n        /* \"#utility.yul\":10806:10816   */\n      dup6\n        /* \"#utility.yul\":10803:10823   */\n      lt\n        /* \"#utility.yul\":10800:10847   */\n      iszero\n      tag_352\n      jumpi\n      pop\n        /* \"#utility.yul\":10841:10845   */\n      dup1\n        /* \"#utility.yul\":10800:10847   */\n    tag_352:\n        /* \"#utility.yul\":10896:10898   */\n      0x1f\n        /* \"#utility.yul\":10891:10894   */\n      dup5\n        /* \"#utility.yul\":10887:10899   */\n      add\n        /* \"#utility.yul\":10884:10885   */\n      0x05\n        /* \"#utility.yul\":10880:10900   */\n      shr\n        /* \"#utility.yul\":10874:10878   */\n      dup3\n        /* \"#utility.yul\":10870:10901   */\n      add\n        /* \"#utility.yul\":10860:10901   */\n      swap2\n      pop\n        /* \"#utility.yul\":10951:11032   */\n    tag_353:\n        /* \"#utility.yul\":10969:10971   */\n      dup2\n        /* \"#utility.yul\":10962:10967   */\n      dup2\n        /* \"#utility.yul\":10959:10972   */\n      lt\n        /* \"#utility.yul\":10951:11032   */\n      iszero\n      tag_355\n      jumpi\n        /* \"#utility.yul\":11028:11029   */\n      0x00\n        /* \"#utility.yul\":11014:11030   */\n      dup2\n      sstore\n        /* \"#utility.yul\":10995:10996   */\n      0x01\n        /* \"#utility.yul\":10984:10997   */\n      add\n        /* \"#utility.yul\":10951:11032   */\n      jump(tag_353)\n    tag_355:\n        /* \"#utility.yul\":10955:10958   */\n      pop\n      pop\n        /* \"#utility.yul\":10621:11042   */\n    tag_351:\n        /* \"#utility.yul\":10530:11048   */\n      pop\n      pop\n      pop\n      jump\t// out\n        /* \"#utility.yul\":11224:12569   */\n    tag_255:\n        /* \"#utility.yul\":11350:11353   */\n      dup2\n        /* \"#utility.yul\":11344:11354   */\n      mload\n        /* \"#utility.yul\":11377:11395   */\n      0xffffffffffffffff\n        /* \"#utility.yul\":11369:11375   */\n      dup2\n        /* \"#utility.yul\":11366:11396   */\n      gt\n        /* \"#utility.yul\":11363:11419   */\n      iszero\n      tag_359\n      jumpi\n        /* \"#utility.yul\":11399:11417   */\n      tag_359\n      tag_75\n      jump\t// in\n    tag_359:\n        /* \"#utility.yul\":11428:11525   */\n      tag_360\n        /* \"#utility.yul\":11518:11524   */\n      dup2\n        /* \"#utility.yul\":11478:11516   */\n      tag_361\n        /* \"#utility.yul\":11510:11514   */\n      dup5\n        /* \"#utility.yul\":11504:11515   */\n      sload\n        /* \"#utility.yul\":11478:11516   */\n      tag_126\n      jump\t// in\n    tag_361:\n        /* \"#utility.yul\":11472:11476   */\n      dup5\n        /* \"#utility.yul\":11428:11525   */\n      tag_268\n      jump\t// in\n    tag_360:\n        /* \"#utility.yul\":11580:11584   */\n      0x20\n      dup1\n        /* \"#utility.yul\":11637:11639   */\n      0x1f\n        /* \"#utility.yul\":11626:11640   */\n      dup4\n      gt\n        /* \"#utility.yul\":11654:11655   */\n      0x01\n        /* \"#utility.yul\":11649:12312   */\n      dup2\n      eq\n      tag_363\n      jumpi\n        /* \"#utility.yul\":12356:12357   */\n      0x00\n        /* \"#utility.yul\":12373:12379   */\n      dup5\n        /* \"#utility.yul\":12370:12459   */\n      iszero\n      tag_364\n      jumpi\n      pop\n        /* \"#utility.yul\":12425:12444   */\n      dup6\n      dup4\n      add\n        /* \"#utility.yul\":12419:12445   */\n      mload\n        /* \"#utility.yul\":12370:12459   */\n    tag_364:\n      not(0x00)\n        /* \"#utility.yul\":11181:11182   */\n      0x03\n        /* \"#utility.yul\":11177:11188   */\n      dup7\n      swap1\n      shl\n        /* \"#utility.yul\":11173:11197   */\n      shr\n        /* \"#utility.yul\":11169:11198   */\n      not\n        /* \"#utility.yul\":11159:11199   */\n      and\n        /* \"#utility.yul\":11205:11206   */\n      0x01\n        /* \"#utility.yul\":11201:11212   */\n      dup6\n      swap1\n      shl\n        /* \"#utility.yul\":11156:11213   */\n      or\n        /* \"#utility.yul\":12472:12553   */\n      dup6\n      sstore\n        /* \"#utility.yul\":11619:12563   */\n      jump(tag_362)\n        /* \"#utility.yul\":11649:12312   */\n    tag_363:\n        /* \"#utility.yul\":10477:10478   */\n      0x00\n        /* \"#utility.yul\":10470:10484   */\n      dup6\n      dup2\n      mstore\n        /* \"#utility.yul\":10514:10518   */\n      0x20\n        /* \"#utility.yul\":10501:10519   */\n      dup2\n      keccak256\n      not(0x1f)\n        /* \"#utility.yul\":11685:11705   */\n      dup7\n      and\n      swap2\n        /* \"#utility.yul\":11803:12039   */\n    tag_367:\n        /* \"#utility.yul\":11817:11824   */\n      dup3\n        /* \"#utility.yul\":11814:11815   */\n      dup2\n        /* \"#utility.yul\":11811:11825   */\n      lt\n        /* \"#utility.yul\":11803:12039   */\n      iszero\n      tag_369\n      jumpi\n        /* \"#utility.yul\":11906:11925   */\n      dup9\n      dup7\n      add\n        /* \"#utility.yul\":11900:11926   */\n      mload\n        /* \"#utility.yul\":11885:11927   */\n      dup3\n      sstore\n        /* \"#utility.yul\":11998:12025   */\n      swap5\n      dup5\n      add\n      swap5\n        /* \"#utility.yul\":11966:11967   */\n      0x01\n        /* \"#utility.yul\":11954:11968   */\n      swap1\n      swap2\n      add\n      swap1\n        /* \"#utility.yul\":11833:11852   */\n      dup5\n      add\n        /* \"#utility.yul\":11803:12039   */\n      jump(tag_367)\n    tag_369:\n        /* \"#utility.yul\":11807:11810   */\n      pop\n        /* \"#utility.yul\":12067:12073   */\n      dup6\n        /* \"#utility.yul\":12058:12065   */\n      dup3\n        /* \"#utility.yul\":12055:12074   */\n      lt\n        /* \"#utility.yul\":12052:12253   */\n      iszero\n      tag_370\n      jumpi\n        /* \"#utility.yul\":12128:12147   */\n      dup8\n      dup6\n      add\n        /* \"#utility.yul\":12122:12148   */\n      mload\n      not(0x00)\n        /* \"#utility.yul\":12211:12212   */\n      0x03\n        /* \"#utility.yul\":12207:12221   */\n      dup9\n      swap1\n      shl\n        /* \"#utility.yul\":12223:12226   */\n      0xf8\n        /* \"#utility.yul\":12203:12227   */\n      and\n        /* \"#utility.yul\":12199:12236   */\n      shr\n        /* \"#utility.yul\":12195:12237   */\n      not\n        /* \"#utility.yul\":12180:12238   */\n      and\n        /* \"#utility.yul\":12165:12239   */\n      dup2\n      sstore\n        /* \"#utility.yul\":12052:12253   */\n    tag_370:\n      pop\n      pop\n        /* \"#utility.yul\":12299:12300   */\n      0x01\n        /* \"#utility.yul\":12290:12296   */\n      dup5\n        /* \"#utility.yul\":12287:12288   */\n      0x01\n        /* \"#utility.yul\":12283:12297   */\n      shl\n        /* \"#utility.yul\":12279:12301   */\n      add\n        /* \"#utility.yul\":12273:12277   */\n      dup6\n        /* \"#utility.yul\":12266:12302   */\n      sstore\n        /* \"#utility.yul\":11619:12563   */\n    tag_362:\n      pop\n      pop\n      pop\n      pop\n        /* \"#utility.yul\":11224:12569   */\n      pop\n      pop\n      jump\t// out\n        /* \"#utility.yul\":12574:12709   */\n    tag_259:\n        /* \"#utility.yul\":12613:12616   */\n      0x00\n        /* \"#utility.yul\":12634:12651   */\n      0x01\n      dup3\n      add\n        /* \"#utility.yul\":12631:12674   */\n      tag_373\n      jumpi\n        /* \"#utility.yul\":12654:12672   */\n      tag_373\n      tag_266\n      jump\t// in\n    tag_373:\n      pop\n        /* \"#utility.yul\":12701:12702   */\n      0x01\n        /* \"#utility.yul\":12690:12703   */\n      add\n      swap1\n        /* \"#utility.yul\":12574:12709   */\n      jump\t// out\n\n    auxdata: 0xa26469706673582212203ffabcd7c10ac95dd98cd5a37fdd0d04c820ad710e7147b256d84c731b50c82564736f6c63430008190033\n}\n",
    "bytecode": {
      "linkReferences": {},
      "object": "6080604052348015600e575f80fd5b50604051611afd380380611afd833981016040819052602b91604f565b600280546001600160a01b0319166001600160a01b0392909216919091179055607a565b5f60208284031215605e575f80fd5b81516001600160a01b03811681146073575f80fd5b9392505050565b611a76806100875f395ff3fe608060405234801561000f575f80fd5b506004361061007a575f3560e01c80637d6de736116100585780637d6de736146100d6578063839470391461013f578063c8a3f1cf14610165578063de6f24bb1461017e575f80fd5b80632075ec891461007e5780632f2c17b0146100ae578063702d3ebb146100c3575b5f80fd5b61009161008c366004611482565b610191565b6040516001600160a01b0390911681526020015b60405180910390f35b6100c16100bc3660046114aa565b6101c5565b005b600254610091906001600160a01b031681565b6101196100e43660046114ca565b5f6020818152928152604080822090935290815220805460018201546003909201546001600160a01b03918216929091169083565b604080516001600160a01b039485168152939092166020840152908201526060016100a5565b61015261014d3660046114aa565b610341565b6040516100a597969594939291906115bb565b61016d610b44565b6040516100a5959493929190611679565b6100c161018c366004611784565b610fdb565b6001602052815f5260405f2081815481106101aa575f80fd5b5f918252602090912001546001600160a01b03169150829050565b60025460405163926bef6360e01b81526001600160a01b03838116600483015290911690819063926bef6390602401602060405180830381865afa15801561020f573d5f803e3d5ffd5b505050506040513d601f19601f82011682018060405250810190610233919061180f565b6102845760405162461bcd60e51b815260206004820152601760248201527f526563656976657220646f6573206e6f7420657869737400000000000000000060448201526064015b60405180910390fd5b335f908152602081815260408083206001600160a01b03861684529091528120905b600282015481101561033557836001600160a01b03168260020182815481106102d1576102d161182e565b5f9182526020909120600490910201546001600160a01b03160361032d5760018260020182815481106103065761030661182e565b905f5260205f20906004020160030160016101000a81548160ff0219169083151502179055505b6001016102a6565b505f6003909101555050565b60025460405163926bef6360e01b81526001600160a01b0383811660048301526060928392839283928392839283921690819063926bef6390602401602060405180830381865afa158015610398573d5f803e3d5ffd5b505050506040513d601f19601f820116820180604052508101906103bc919061180f565b6104085760405162461bcd60e51b815260206004820152601760248201527f526563656976657220646f6573206e6f74206578697374000000000000000000604482015260640161027b565b335f908152602081815260408083206001600160a01b038d81168552925290912054166104f157604080515f8082526020820190925290610459565b60608152602001906001900390816104445790505b50604080515f8082526020820181815282840182815260608401909452919290610493565b606081526020019060019003908161047e5790505b50604080515f80825260208201909252906104be565b60608152602001906001900390816104a95790505b5060405180602001604052805f81525060405180602001604052805f815250975097509750975097509750975050610b39565b335f908152602081815260408083206001600160a01b038d168452909152902060028101548067ffffffffffffffff81111561052f5761052f611718565b60405190808252806020026020018201604052801561056257816020015b606081526020019060019003908161054d5790505b5099508067ffffffffffffffff81111561057e5761057e611718565b6040519080825280602002602001820160405280156105a7578160200160208202803683370190505b5098508067ffffffffffffffff8111156105c3576105c3611718565b6040519080825280602002602001820160405280156105ec578160200160208202803683370190505b5097508067ffffffffffffffff81111561060857610608611718565b60405190808252806020026020018201604052801561063b57816020015b60608152602001906001900390816106265790505b5096508067ffffffffffffffff81111561065757610657611718565b60405190808252806020026020018201604052801561068a57816020015b60608152602001906001900390816106755790505b5060405163fbf3166960e01b81523360048201529096506001600160a01b0384169063fbf31669906024015f60405180830381865afa1580156106cf573d5f803e3d5ffd5b505050506040513d5f823e601f3d908101601f191682016040526106f69190810190611842565b60405163fbf3166960e01b81526001600160a01b038d811660048301529196509084169063fbf31669906024015f60405180830381865afa15801561073d573d5f803e3d5ffd5b505050506040513d5f823e601f3d908101601f191682016040526107649190810190611842565b93505f5b81811015610b34578260020181815481106107855761078561182e565b905f5260205f209060040201600101805461079f906118b7565b80601f01602080910402602001604051908101604052809291908181526020018280546107cb906118b7565b80156108165780601f106107ed57610100808354040283529160200191610816565b820191905f5260205f20905b8154815290600101906020018083116107f957829003601f168201915b50505050508b828151811061082d5761082d61182e565b602002602001018190525082600201818154811061084d5761084d61182e565b905f5260205f209060040201600201548a828151811061086f5761086f61182e565b6020026020010181815250508260020181815481106108905761089061182e565b905f5260205f20906004020160030160019054906101000a900460ff168982815181106108bf576108bf61182e565b602002602001019015159081151581525050336001600160a01b03168360020182815481106108f0576108f061182e565b5f9182526020909120600490910201546001600160a01b031603610a1f5760405163742df7e160e11b81523360048201526001600160a01b0385169063e85befc2906024015f60405180830381865afa15801561094f573d5f803e3d5ffd5b505050506040513d5f823e601f3d908101601f191682016040526109769190810190611842565b8882815181106109885761098861182e565b602090810291909101015260405163742df7e160e11b81526001600160a01b038d8116600483015285169063e85befc2906024015f60405180830381865afa1580156109d6573d5f803e3d5ffd5b505050506040513d5f823e601f3d908101601f191682016040526109fd9190810190611842565b878281518110610a0f57610a0f61182e565b6020026020010181905250610b2c565b60405163742df7e160e11b81526001600160a01b038d8116600483015285169063e85befc2906024015f60405180830381865afa158015610a62573d5f803e3d5ffd5b505050506040513d5f823e601f3d908101601f19168201604052610a899190810190611842565b888281518110610a9b57610a9b61182e565b602090810291909101015260405163742df7e160e11b81523360048201526001600160a01b0385169063e85befc2906024015f60405180830381865afa158015610ae7573d5f803e3d5ffd5b505050506040513d5f823e601f3d908101601f19168201604052610b0e9190810190611842565b878281518110610b2057610b2061182e565b60200260200101819052505b600101610768565b505050505b919395979092949650565b335f9081526001602052604081205460609182918291829182918167ffffffffffffffff811115610b7757610b77611718565b604051908082528060200260200182016040528015610ba0578160200160208202803683370190505b5090505f8267ffffffffffffffff811115610bbd57610bbd611718565b604051908082528060200260200182016040528015610bf057816020015b6060815260200190600190039081610bdb5790505b5090505f8367ffffffffffffffff811115610c0d57610c0d611718565b604051908082528060200260200182016040528015610c4057816020015b6060815260200190600190039081610c2b5790505b5090505f8467ffffffffffffffff811115610c5d57610c5d611718565b604051908082528060200260200182016040528015610c9057816020015b6060815260200190600190039081610c7b5790505b5090505f8567ffffffffffffffff811115610cad57610cad611718565b604051908082528060200260200182016040528015610cd6578160200160208202803683370190505b506002549091506001600160a01b03165f5b335f90815260016020526040902054811015610fc857335f908152600160205260408120805483908110610d1e57610d1e61182e565b905f5260205f20015f9054906101000a90046001600160a01b0316905080888381518110610d4e57610d4e61182e565b6001600160a01b03928316602091820292909201015260405163742df7e160e11b815282821660048201529084169063e85befc2906024015f60405180830381865afa158015610da0573d5f803e3d5ffd5b505050506040513d5f823e601f3d908101601f19168201604052610dc79190810190611842565b878381518110610dd957610dd961182e565b602090810291909101015260405163fbf3166960e01b81526001600160a01b03828116600483015284169063fbf31669906024015f60405180830381865afa158015610e27573d5f803e3d5ffd5b505050506040513d5f823e601f3d908101601f19168201604052610e4e9190810190611842565b868381518110610e6057610e6061182e565b602090810291909101810191909152335f90815280825260408082206001600160a01b03851683529092522060028101548015610f6e5760028201610ea6600183611903565b81548110610eb657610eb661182e565b905f5260205f2090600402016001018054610ed0906118b7565b80601f0160208091040260200160405190810160405280929190818152602001828054610efc906118b7565b8015610f475780601f10610f1e57610100808354040283529160200191610f47565b820191905f5260205f20905b815481529060010190602001808311610f2a57829003601f168201915b5050505050878581518110610f5e57610f5e61182e565b6020026020010181905250610f9b565b60405180602001604052805f815250878581518110610f8f57610f8f61182e565b60200260200101819052505b8160030154868581518110610fb257610fb261182e565b6020908102919091010152505050600101610ce8565b50949b939a509198509650945092505050565b60025460405163926bef6360e01b81526001600160a01b03848116600483015290911690819063926bef6390602401602060405180830381865afa158015611025573d5f803e3d5ffd5b505050506040513d601f19601f82011682018060405250810190611049919061180f565b6110955760405162461bcd60e51b815260206004820152601760248201527f526563656976657220646f6573206e6f74206578697374000000000000000000604482015260640161027b565b604051632c25a89360e11b81523360048201526001600160a01b03848116602483015282169063584b512690604401602060405180830381865afa1580156110df573d5f803e3d5ffd5b505050506040513d601f19601f82011682018060405250810190611103919061180f565b806111775750604051632c25a89360e11b81526001600160a01b03848116600483015233602483015282169063584b512690604401602060405180830381865afa158015611153573d5f803e3d5ffd5b505050506040513d601f19601f82011682018060405250810190611177919061180f565b6111ce5760405162461bcd60e51b815260206004820152602260248201527f596f75206d75737420666f6c6c6f772065616368206f7468657220746f206368604482015261185d60f21b606482015260840161027b565b335f818152602081815260408083206001600160a01b03888116855290835281842084845282852095855294909252909120825490911661125f578154336001600160a01b0319918216811784556001808501805484166001600160a01b038a169081179091555f600387018190559283526020828152604084208054938401815584529092200180549092161790555b80546001600160a01b03166112c3578054336001600160a01b0319918216811783556001808401805484166001600160a01b038a169081179091555f6003860181905590815260208281526040822080549384018155825290200180549092161790555b6040805160a081018252338152602080820187815242938301939093526001606083018190525f608084018190526002870180548084018255908252929020835160049093020180546001600160a01b0319166001600160a01b039093169290921782559251919290919082019061133b9082611968565b506040828101516002808401919091556060808501516003909401805460809687015115156101000261ff00199615159690961661ffff199091161794909417909355815160a08101835233815260208082018a8152429483019490945260019482018590525f9582018690529186018054808601825590865291909420845160049092020180546001600160a01b03929092166001600160a01b0319909216919091178155905190918201906113f29082611968565b50604082810151600283015560608301516003928301805460809095015115156101000261ff00199215159290921661ffff1990951694909417179092556001600160a01b0387165f908152602081815283822033835290529182200180549161145b83611a28565b91905055505050505050565b80356001600160a01b038116811461147d575f80fd5b919050565b5f8060408385031215611493575f80fd5b61149c83611467565b946020939093013593505050565b5f602082840312156114ba575f80fd5b6114c382611467565b9392505050565b5f80604083850312156114db575f80fd5b6114e483611467565b91506114f260208401611467565b90509250929050565b5f81518084528060208401602086015e5f602082860101526020601f19601f83011685010191505092915050565b5f8282518085526020808601955060208260051b840101602086015f5b8481101561157457601f198684030189526115628383516114fb565b98840198925090830190600101611546565b5090979650505050505050565b5f815180845260208085019450602084015f5b838110156115b057815187529582019590820190600101611594565b509495945050505050565b60e081525f6115cd60e083018a611529565b602083820360208501526115e1828b611581565b848103604086015289518082526020808c019450909101905f5b818110156116195784511515835293830193918301916001016115fb565b5050848103606086015261162d818a611529565b9250505082810360808401526116438187611529565b905082810360a084015261165781866114fb565b905082810360c084015261166b81856114fb565b9a9950505050505050505050565b60a080825286519082018190525f9060209060c0840190828a01845b828110156116ba5781516001600160a01b031684529284019290840190600101611695565b50505083810360208501526116cf8189611529565b91505082810360408401526116e48187611529565b905082810360608401526116f88186611529565b9050828103608084015261170c8185611581565b98975050505050505050565b634e487b7160e01b5f52604160045260245ffd5b604051601f8201601f1916810167ffffffffffffffff8111828210171561175557611755611718565b604052919050565b5f67ffffffffffffffff82111561177657611776611718565b50601f01601f191660200190565b5f8060408385031215611795575f80fd5b61179e83611467565b9150602083013567ffffffffffffffff8111156117b9575f80fd5b8301601f810185136117c9575f80fd5b80356117dc6117d78261175d565b61172c565b8181528660208385010111156117f0575f80fd5b816020840160208301375f602083830101528093505050509250929050565b5f6020828403121561181f575f80fd5b815180151581146114c3575f80fd5b634e487b7160e01b5f52603260045260245ffd5b5f60208284031215611852575f80fd5b815167ffffffffffffffff811115611868575f80fd5b8201601f81018413611878575f80fd5b80516118866117d78261175d565b81815285602083850101111561189a575f80fd5b8160208401602083015e5f91810160200191909152949350505050565b600181811c908216806118cb57607f821691505b6020821081036118e957634e487b7160e01b5f52602260045260245ffd5b50919050565b634e487b7160e01b5f52601160045260245ffd5b81810381811115611916576119166118ef565b92915050565b601f82111561196357805f5260205f20601f840160051c810160208510156119415750805b601f840160051c820191505b81811015611960575f815560010161194d565b50505b505050565b815167ffffffffffffffff81111561198257611982611718565b6119968161199084546118b7565b8461191c565b602080601f8311600181146119c9575f84156119b25750858301515b5f19600386901b1c1916600185901b178555611a20565b5f85815260208120601f198616915b828110156119f7578886015182559484019460019091019084016119d8565b5085821015611a1457878501515f19600388901b60f8161c191681555b505060018460011b0185555b505050505050565b5f60018201611a3957611a396118ef565b506001019056fea26469706673582212203ffabcd7c10ac95dd98cd5a37fdd0d04c820ad710e7147b256d84c731b50c82564736f6c63430008190033",
      "opcodes": "PUSH1 0x80 PUSH1 0x40 MSTORE CALLVALUE DUP1 ISZERO PUSH1 0xE JUMPI PUSH0 DUP1 REVERT JUMPDEST POP PUSH1 0x40 MLOAD PUSH2 0x1AFD CODESIZE SUB DUP1 PUSH2 0x1AFD DUP4 CODECOPY DUP2 ADD PUSH1 0x40 DUP2 SWAP1 MSTORE PUSH1 0x2B SWAP2 PUSH1 0x4F JUMP JUMPDEST PUSH1 0x2 DUP1 SLOAD PUSH1 0x1 PUSH1 0x1 PUSH1 0xA0 SHL SUB NOT AND PUSH1 0x1 PUSH1 0x1 PUSH1 0xA0 SHL SUB SWAP3 SWAP1 SWAP3 AND SWAP2 SWAP1 SWAP2 OR SWAP1 SSTORE PUSH1 0x7A JUMP JUMPDEST PUSH0 PUSH1 0x20 DUP3 DUP5 SUB SLT ISZERO PUSH1 0x5E JUMPI PUSH0 DUP1 REVERT JUMPDEST DUP2 MLOAD PUSH1 0x1 PUSH1 0x1 PUSH1 0xA0 SHL SUB DUP2 AND DUP2 EQ PUSH1 0x73 JUMPI PUSH0 DUP1 REVERT JUMPDEST SWAP4 SWAP3 POP POP POP JUMP JUMPDEST PUSH2 0x1A76 DUP1 PUSH2 0x87 PUSH0 CODECOPY PUSH0 RETURN INVALID PUSH1 0x80 PUSH1 0x40 MSTORE CALLVALUE DUP1 ISZERO PUSH2 0xF JUMPI PUSH0 DUP1 REVERT JUMPDEST POP PUSH1 0x4 CALLDATASIZE LT PUSH2 0x7A JUMPI PUSH0 CALLDATALOAD PUSH1 0xE0 SHR DUP1 PUSH4 0x7D6DE736 GT PUSH2 0x58 JUMPI DUP1 PUSH4 0x7D6DE736 EQ PUSH2 0xD6 JUMPI DUP1 PUSH4 0x83947039 EQ PUSH2 0x13F JUMPI DUP1 PUSH4 0xC8A3F1CF EQ PUSH2 0x165 JUMPI DUP1 PUSH4 0xDE6F24BB EQ PUSH2 0x17E JUMPI PUSH0 DUP1 REVERT JUMPDEST DUP1 PUSH4 0x2075EC89 EQ PUSH2 0x7E JUMPI DUP1 PUSH4 0x2F2C17B0 EQ PUSH2 0xAE JUMPI DUP1 PUSH4 0x702D3EBB EQ PUSH2 0xC3 JUMPI JUMPDEST PUSH0 DUP1 REVERT JUMPDEST PUSH2 0x91 PUSH2 0x8C CALLDATASIZE PUSH1 0x4 PUSH2 0x1482 JUMP JUMPDEST PUSH2 0x191 JUMP JUMPDEST PUSH1 0x40 MLOAD PUSH1 0x1 PUSH1 0x1 PUSH1 0xA0 SHL SUB SWAP1 SWAP2 AND DUP2 MSTORE PUSH1 0x20 ADD JUMPDEST PUSH1 0x40 MLOAD DUP1 SWAP2 SUB SWAP1 RETURN JUMPDEST PUSH2 0xC1 PUSH2 0xBC CALLDATASIZE PUSH1 0x4 PUSH2 0x14AA JUMP JUMPDEST PUSH2 0x1C5 JUMP JUMPDEST STOP JUMPDEST PUSH1 0x2 SLOAD PUSH2 0x91 SWAP1 PUSH1 0x1 PUSH1 0x1 PUSH1 0xA0 SHL SUB AND DUP2 JUMP JUMPDEST PUSH2 0x119 PUSH2 0xE4 CALLDATASIZE PUSH1 0x4 PUSH2 0x14CA JUMP JUMPDEST PUSH0 PUSH1 0x20 DUP2 DUP2 MSTORE SWAP3 DUP2 MSTORE PUSH1 0x40 DUP1 DUP3 KECCAK256 SWAP1 SWAP4 MSTORE SWAP1 DUP2 MSTORE KECCAK256 DUP1 SLOAD PUSH1 0x1 DUP3 ADD SLOAD PUSH1 0x3 SWAP1 SWAP3 ADD SLOAD PUSH1 0x1 PUSH1 0x1 PUSH1 0xA0 SHL SUB SWAP2 DUP3 AND SWAP3 SWAP1 SWAP2 AND SWAP1 DUP4 JUMP JUMPDEST PUSH1 0x40 DUP1 MLOAD PUSH1 0x1 PUSH1 0x1 PUSH1 0xA0 SHL SUB SWAP5 DUP6 AND DUP2 MSTORE SWAP4 SWAP1 SWAP3 AND PUSH1 0x20 DUP5 ADD MSTORE SWAP1 DUP3 ADD MSTORE PUSH1 0x60 ADD PUSH2 0xA5 JUMP JUMPDEST PUSH2 0x152 PUSH2 0x14D CALLDATASIZE PUSH1 0x4 PUSH2 0x14AA JUMP JUMPDEST PUSH2 0x341 JUMP JUMPDEST PUSH1 0x40 MLOAD PUSH2 0xA5 SWAP8 SWAP7 SWAP6 SWAP5 SWAP4 SWAP3 SWAP2 SWAP1 PUSH2 0x15BB JUMP JUMPDEST PUSH2 0x16D PUSH2 0xB44 JUMP JUMPDEST PUSH1 0x40 MLOAD PUSH2 0xA5 SWAP6 SWAP5 SWAP4 SWAP3 SWAP2 SWAP1 PUSH2 0x1679 JUMP JUMPDEST PUSH2 0xC1 PUSH2 0x18C CALLDATASIZE PUSH1 0x4 PUSH2 0x1784 JUMP JUMPDEST PUSH2 0xFDB JUMP JUMPDEST PUSH1 0x1 PUSH1 0x20 MSTORE DUP2 PUSH0 MSTORE PUSH1 0x40 PUSH0 KECCAK256 DUP2 DUP2 SLOAD DUP2 LT PUSH2 0x1AA JUMPI PUSH0 DUP1 REVERT JUMPDEST PUSH0 SWAP2 DUP3 MSTORE PUSH1 0x20 SWAP1 SWAP2 KECCAK256 ADD SLOAD PUSH1 0x1 PUSH1 0x1 PUSH1 0xA0 SHL SUB AND SWAP2 POP DUP3 SWAP1 POP JUMP JUMPDEST PUSH1 0x2 SLOAD PUSH1 0x40 MLOAD PUSH4 0x926BEF63 PUSH1 0xE0 SHL DUP2 MSTORE PUSH1 0x1 PUSH1 0x1 PUSH1 0xA0 SHL SUB DUP4 DUP2 AND PUSH1 0x4 DUP4 ADD MSTORE SWAP1 SWAP2 AND SWAP1 DUP2 SWAP1 PUSH4 0x926BEF63 SWAP1 PUSH1 0x24 ADD PUSH1 0x20 PUSH1 0x40 MLOAD DUP1 DUP4 SUB DUP2 DUP7 GAS STATICCALL ISZERO DUP1 ISZERO PUSH2 0x20F JUMPI RETURNDATASIZE PUSH0 DUP1 RETURNDATACOPY RETURNDATASIZE PUSH0 REVERT JUMPDEST POP POP POP POP PUSH1 0x40 MLOAD RETURNDATASIZE PUSH1 0x1F NOT PUSH1 0x1F DUP3 ADD AND DUP3 ADD DUP1 PUSH1 0x40 MSTORE POP DUP2 ADD SWAP1 PUSH2 0x233 SWAP2 SWAP1 PUSH2 0x180F JUMP JUMPDEST PUSH2 0x284 JUMPI PUSH1 0x40 MLOAD PUSH3 0x461BCD PUSH1 0xE5 SHL DUP2 MSTORE PUSH1 0x20 PUSH1 0x4 DUP3 ADD MSTORE PUSH1 0x17 PUSH1 0x24 DUP3 ADD MSTORE PUSH32 0x526563656976657220646F6573206E6F74206578697374000000000000000000 PUSH1 0x44 DUP3 ADD MSTORE PUSH1 0x64 ADD JUMPDEST PUSH1 0x40 MLOAD DUP1 SWAP2 SUB SWAP1 REVERT JUMPDEST CALLER PUSH0 SWAP1 DUP2 MSTORE PUSH1 0x20 DUP2 DUP2 MSTORE PUSH1 0x40 DUP1 DUP4 KECCAK256 PUSH1 0x1 PUSH1 0x1 PUSH1 0xA0 SHL SUB DUP7 AND DUP5 MSTORE SWAP1 SWAP2 MSTORE DUP2 KECCAK256 SWAP1 JUMPDEST PUSH1 0x2 DUP3 ADD SLOAD DUP2 LT ISZERO PUSH2 0x335 JUMPI DUP4 PUSH1 0x1 PUSH1 0x1 PUSH1 0xA0 SHL SUB AND DUP3 PUSH1 0x2 ADD DUP3 DUP2 SLOAD DUP2 LT PUSH2 0x2D1 JUMPI PUSH2 0x2D1 PUSH2 0x182E JUMP JUMPDEST PUSH0 SWAP2 DUP3 MSTORE PUSH1 0x20 SWAP1 SWAP2 KECCAK256 PUSH1 0x4 SWAP1 SWAP2 MUL ADD SLOAD PUSH1 0x1 PUSH1 0x1 PUSH1 0xA0 SHL SUB AND SUB PUSH2 0x32D JUMPI PUSH1 0x1 DUP3 PUSH1 0x2 ADD DUP3 DUP2 SLOAD DUP2 LT PUSH2 0x306 JUMPI PUSH2 0x306 PUSH2 0x182E JUMP JUMPDEST SWAP1 PUSH0 MSTORE PUSH1 0x20 PUSH0 KECCAK256 SWAP1 PUSH1 0x4 MUL ADD PUSH1 0x3 ADD PUSH1 0x1 PUSH2 0x100 EXP DUP2 SLOAD DUP2 PUSH1 0xFF MUL NOT AND SWAP1 DUP4 ISZERO ISZERO MUL OR SWAP1 SSTORE POP JUMPDEST PUSH1 0x1 ADD PUSH2 0x2A6 JUMP JUMPDEST POP PUSH0 PUSH1 0x3 SWAP1 SWAP2 ADD SSTORE POP POP JUMP JUMPDEST PUSH1 0x2 SLOAD PUSH1 0x40 MLOAD PUSH4 0x926BEF63 PUSH1 0xE0 SHL DUP2 MSTORE PUSH1 0x1 PUSH1 0x1 PUSH1 0xA0 SHL SUB DUP4 DUP2 AND PUSH1 0x4 DUP4 ADD MSTORE PUSH1 0x60 SWAP3 DUP4 SWAP3 DUP4 SWAP3 DUP4 SWAP3 DUP4 SWAP3 DUP4 SWAP3 DUP4 SWAP3 AND SWAP1 DUP2 SWAP1 PUSH4 0x926BEF63 SWAP1 PUSH1 0x24 ADD PUSH1 0x20 PUSH1 0x40 MLOAD DUP1 DUP4 SUB DUP2 DUP7 GAS STATICCALL ISZERO DUP1 ISZERO PUSH2 0x398 JUMPI RETURNDATASIZE PUSH0 DUP1 RETURNDATACOPY RETURNDATASIZE PUSH0 REVERT JUMPDEST POP POP POP POP PUSH1 0x40 MLOAD RETURNDATASIZE PUSH1 0x1F NOT PUSH1 0x1F DUP3 ADD AND DUP3 ADD DUP1 PUSH1 0x40 MSTORE POP DUP2 ADD SWAP1 PUSH2 0x3BC SWAP2 SWAP1 PUSH2 0x180F JUMP JUMPDEST PUSH2 0x408 JUMPI PUSH1 0x40 MLOAD PUSH3 0x461BCD PUSH1 0xE5 SHL DUP2 MSTORE PUSH1 0x20 PUSH1 0x4 DUP3 ADD MSTORE PUSH1 0x17 PUSH1 0x24 DUP3 ADD MSTORE PUSH32 0x526563656976657220646F6573206E6F74206578697374000000000000000000 PUSH1 0x44 DUP3 ADD MSTORE PUSH1 0x64 ADD PUSH2 0x27B JUMP JUMPDEST CALLER PUSH0 SWAP1 DUP2 MSTORE PUSH1 0x20 DUP2 DUP2 MSTORE PUSH1 0x40 DUP1 DUP4 KECCAK256 PUSH1 0x1 PUSH1 0x1 PUSH1 0xA0 SHL SUB DUP14 DUP2 AND DUP6 MSTORE SWAP3 MSTORE SWAP1 SWAP2 KECCAK256 SLOAD AND PUSH2 0x4F1 JUMPI PUSH1 0x40 DUP1 MLOAD PUSH0 DUP1 DUP3 MSTORE PUSH1 0x20 DUP3 ADD SWAP1 SWAP3 MSTORE SWAP1 PUSH2 0x459 JUMP JUMPDEST PUSH1 0x60 DUP2 MSTORE PUSH1 0x20 ADD SWAP1 PUSH1 0x1 SWAP1 SUB SWAP1 DUP2 PUSH2 0x444 JUMPI SWAP1 POP JUMPDEST POP PUSH1 0x40 DUP1 MLOAD PUSH0 DUP1 DUP3 MSTORE PUSH1 0x20 DUP3 ADD DUP2 DUP2 MSTORE DUP3 DUP5 ADD DUP3 DUP2 MSTORE PUSH1 0x60 DUP5 ADD SWAP1 SWAP5 MSTORE SWAP2 SWAP3 SWAP1 PUSH2 0x493 JUMP JUMPDEST PUSH1 0x60 DUP2 MSTORE PUSH1 0x20 ADD SWAP1 PUSH1 0x1 SWAP1 SUB SWAP1 DUP2 PUSH2 0x47E JUMPI SWAP1 POP JUMPDEST POP PUSH1 0x40 DUP1 MLOAD PUSH0 DUP1 DUP3 MSTORE PUSH1 0x20 DUP3 ADD SWAP1 SWAP3 MSTORE SWAP1 PUSH2 0x4BE JUMP JUMPDEST PUSH1 0x60 DUP2 MSTORE PUSH1 0x20 ADD SWAP1 PUSH1 0x1 SWAP1 SUB SWAP1 DUP2 PUSH2 0x4A9 JUMPI SWAP1 POP JUMPDEST POP PUSH1 0x40 MLOAD DUP1 PUSH1 0x20 ADD PUSH1 0x40 MSTORE DUP1 PUSH0 DUP2 MSTORE POP PUSH1 0x40 MLOAD DUP1 PUSH1 0x20 ADD PUSH1 0x40 MSTORE DUP1 PUSH0 DUP2 MSTORE POP SWAP8 POP SWAP8 POP SWAP8 POP SWAP8 POP SWAP8 POP SWAP8 POP SWAP8 POP POP PUSH2 0xB39 JUMP JUMPDEST CALLER PUSH0 SWAP1 DUP2 MSTORE PUSH1 0x20 DUP2 DUP2 MSTORE PUSH1 0x40 DUP1 DUP4 KECCAK256 PUSH1 0x1 PUSH1 0x1 PUSH1 0xA0 SHL SUB DUP14 AND DUP5 MSTORE SWAP1 SWAP2 MSTORE SWAP1 KECCAK256 PUSH1 0x2 DUP2 ADD SLOAD DUP1 PUSH8 0xFFFFFFFFFFFFFFFF DUP2 GT ISZERO PUSH2 0x52F JUMPI PUSH2 0x52F PUSH2 0x1718 JUMP JUMPDEST PUSH1 0x40 MLOAD SWAP1 DUP1 DUP3 MSTORE DUP1 PUSH1 0x20 MUL PUSH1 0x20 ADD DUP3 ADD PUSH1 0x40 MSTORE DUP1 ISZERO PUSH2 0x562 JUMPI DUP2 PUSH1 0x20 ADD JUMPDEST PUSH1 0x60 DUP2 MSTORE PUSH1 0x20 ADD SWAP1 PUSH1 0x1 SWAP1 SUB SWAP1 DUP2 PUSH2 0x54D JUMPI SWAP1 POP JUMPDEST POP SWAP10 POP DUP1 PUSH8 0xFFFFFFFFFFFFFFFF DUP2 GT ISZERO PUSH2 0x57E JUMPI PUSH2 0x57E PUSH2 0x1718 JUMP JUMPDEST PUSH1 0x40 MLOAD SWAP1 DUP1 DUP3 MSTORE DUP1 PUSH1 0x20 MUL PUSH1 0x20 ADD DUP3 ADD PUSH1 0x40 MSTORE DUP1 ISZERO PUSH2 0x5A7 JUMPI DUP2 PUSH1 0x20 ADD PUSH1 0x20 DUP3 MUL DUP1 CALLDATASIZE DUP4 CALLDATACOPY ADD SWAP1 POP JUMPDEST POP SWAP9 POP DUP1 PUSH8 0xFFFFFFFFFFFFFFFF DUP2 GT ISZERO PUSH2 0x5C3 JUMPI PUSH2 0x5C3 PUSH2 0x1718 JUMP JUMPDEST PUSH1 0x40 MLOAD SWAP1 DUP1 DUP3 MSTORE DUP1 PUSH1 0x20 MUL PUSH1 0x20 ADD DUP3 ADD PUSH1 0x40 MSTORE DUP1 ISZERO PUSH2 0x5EC JUMPI DUP2 PUSH1 0x20 ADD PUSH1 0x20 DUP3 MUL DUP1 CALLDATASIZE DUP4 CALLDATACOPY ADD SWAP1 POP JUMPDEST POP SWAP8 POP DUP1 PUSH8 0xFFFFFFFFFFFFFFFF DUP2 GT ISZERO PUSH2 0x608 JUMPI PUSH2 0x608 PUSH2 0x1718 JUMP JUMPDEST PUSH1 0x40 MLOAD SWAP1 DUP1 DUP3 MSTORE DUP1 PUSH1 0x20 MUL PUSH1 0x20 ADD DUP3 ADD PUSH1 0x40 MSTORE DUP1 ISZERO PUSH2 0x63B JUMPI DUP2 PUSH1 0x20 ADD JUMPDEST PUSH1 0x60 DUP2 MSTORE PUSH1 0x20 ADD SWAP1 PUSH1 0x1 SWAP1 SUB SWAP1 DUP2 PUSH2 0x626 JUMPI SWAP1 POP JUMPDEST POP SWAP7 POP DUP1 PUSH8 0xFFFFFFFFFFFFFFFF DUP2 GT ISZERO PUSH2 0x657 JUMPI PUSH2 0x657 PUSH2 0x1718 JUMP JUMPDEST PUSH1 0x40 MLOAD SWAP1 DUP1 DUP3 MSTORE DUP1 PUSH1 0x20 MUL PUSH1 0x20 ADD DUP3 ADD PUSH1 0x40 MSTORE DUP1 ISZERO PUSH2 0x68A JUMPI DUP2 PUSH1 0x20 ADD JUMPDEST PUSH1 0x60 DUP2 MSTORE PUSH1 0x20 ADD SWAP1 PUSH1 0x1 SWAP1 SUB SWAP1 DUP2 PUSH2 0x675 JUMPI SWAP1 POP JUMPDEST POP PUSH1 0x40 MLOAD PUSH4 0xFBF31669 PUSH1 0xE0 SHL DUP2 MSTORE CALLER PUSH1 0x4 DUP3 ADD MSTORE SWAP1 SWAP7 POP PUSH1 0x1 PUSH1 0x1 PUSH1 0xA0 SHL SUB DUP5 AND SWAP1 PUSH4 0xFBF31669 SWAP1 PUSH1 0x24 ADD PUSH0 PUSH1 0x40 MLOAD DUP1 DUP4 SUB DUP2 DUP7 GAS STATICCALL ISZERO DUP1 ISZERO PUSH2 0x6CF JUMPI RETURNDATASIZE PUSH0 DUP1 RETURNDATACOPY RETURNDATASIZE PUSH0 REVERT JUMPDEST POP POP POP POP PUSH1 0x40 MLOAD RETURNDATASIZE PUSH0 DUP3 RETURNDATACOPY PUSH1 0x1F RETURNDATASIZE SWAP1 DUP2 ADD PUSH1 0x1F NOT AND DUP3 ADD PUSH1 0x40 MSTORE PUSH2 0x6F6 SWAP2 SWAP1 DUP2 ADD SWAP1 PUSH2 0x1842 JUMP JUMPDEST PUSH1 0x40 MLOAD PUSH4 0xFBF31669 PUSH1 0xE0 SHL DUP2 MSTORE PUSH1 0x1 PUSH1 0x1 PUSH1 0xA0 SHL SUB DUP14 DUP2 AND PUSH1 0x4 DUP4 ADD MSTORE SWAP2 SWAP7 POP SWAP1 DUP5 AND SWAP1 PUSH4 0xFBF31669 SWAP1 PUSH1 0x24 ADD PUSH0 PUSH1 0x40 MLOAD DUP1 DUP4 SUB DUP2 DUP7 GAS STATICCALL ISZERO DUP1 ISZERO PUSH2 0x73D JUMPI RETURNDATASIZE PUSH0 DUP1 RETURNDATACOPY RETURNDATASIZE PUSH0 REVERT JUMPDEST POP POP POP POP PUSH1 0x40 MLOAD RETURNDATASIZE PUSH0 DUP3 RETURNDATACOPY PUSH1 0x1F RETURNDATASIZE SWAP1 DUP2 ADD PUSH1 0x1F NOT AND DUP3 ADD PUSH1 0x40 MSTORE PUSH2 0x764 SWAP2 SWAP1 DUP2 ADD SWAP1 PUSH2 0x1842 JUMP JUMPDEST SWAP4 POP PUSH0 JUMPDEST DUP2 DUP2 LT ISZERO PUSH2 0xB34 JUMPI DUP3 PUSH1 0x2 ADD DUP2 DUP2 SLOAD DUP2 LT PUSH2 0x785 JUMPI PUSH2 0x785 PUSH2 0x182E JUMP JUMPDEST SWAP1 PUSH0 MSTORE PUSH1 0x20 PUSH0 KECCAK256 SWAP1 PUSH1 0x4 MUL ADD PUSH1 0x1 ADD DUP1 SLOAD PUSH2 0x79F SWAP1 PUSH2 0x18B7 JUMP JUMPDEST DUP1 PUSH1 0x1F ADD PUSH1 0x20 DUP1 SWAP2 DIV MUL PUSH1 0x20 ADD PUSH1 0x40 MLOAD SWAP1 DUP2 ADD PUSH1 0x40 MSTORE DUP1 SWAP3 SWAP2 SWAP1 DUP2 DUP2 MSTORE PUSH1 0x20 ADD DUP3 DUP1 SLOAD PUSH2 0x7CB SWAP1 PUSH2 0x18B7 JUMP JUMPDEST DUP1 ISZERO PUSH2 0x816 JUMPI DUP1 PUSH1 0x1F LT PUSH2 0x7ED JUMPI PUSH2 0x100 DUP1 DUP4 SLOAD DIV MUL DUP4 MSTORE SWAP2 PUSH1 0x20 ADD SWAP2 PUSH2 0x816 JUMP JUMPDEST DUP3 ADD SWAP2 SWAP1 PUSH0 MSTORE PUSH1 0x20 PUSH0 KECCAK256 SWAP1 JUMPDEST DUP2 SLOAD DUP2 MSTORE SWAP1 PUSH1 0x1 ADD SWAP1 PUSH1 0x20 ADD DUP1 DUP4 GT PUSH2 0x7F9 JUMPI DUP3 SWAP1 SUB PUSH1 0x1F AND DUP3 ADD SWAP2 JUMPDEST POP POP POP POP POP DUP12 DUP3 DUP2 MLOAD DUP2 LT PUSH2 0x82D JUMPI PUSH2 0x82D PUSH2 0x182E JUMP JUMPDEST PUSH1 0x20 MUL PUSH1 0x20 ADD ADD DUP2 SWAP1 MSTORE POP DUP3 PUSH1 0x2 ADD DUP2 DUP2 SLOAD DUP2 LT PUSH2 0x84D JUMPI PUSH2 0x84D PUSH2 0x182E JUMP JUMPDEST SWAP1 PUSH0 MSTORE PUSH1 0x20 PUSH0 KECCAK256 SWAP1 PUSH1 0x4 MUL ADD PUSH1 0x2 ADD SLOAD DUP11 DUP3 DUP2 MLOAD DUP2 LT PUSH2 0x86F JUMPI PUSH2 0x86F PUSH2 0x182E JUMP JUMPDEST PUSH1 0x20 MUL PUSH1 0x20 ADD ADD DUP2 DUP2 MSTORE POP POP DUP3 PUSH1 0x2 ADD DUP2 DUP2 SLOAD DUP2 LT PUSH2 0x890 JUMPI PUSH2 0x890 PUSH2 0x182E JUMP JUMPDEST SWAP1 PUSH0 MSTORE PUSH1 0x20 PUSH0 KECCAK256 SWAP1 PUSH1 0x4 MUL ADD PUSH1 0x3 ADD PUSH1 0x1 SWAP1 SLOAD SWAP1 PUSH2 0x100 EXP SWAP1 DIV PUSH1 0xFF AND DUP10 DUP3 DUP2 MLOAD DUP2 LT PUSH2 0x8BF JUMPI PUSH2 0x8BF PUSH2 0x182E JUMP JUMPDEST PUSH1 0x20 MUL PUSH1 0x20 ADD ADD SWAP1 ISZERO ISZERO SWAP1 DUP2 ISZERO ISZERO DUP2 MSTORE POP POP CALLER PUSH1 0x1 PUSH1 0x1 PUSH1 0xA0 SHL SUB AND DUP4 PUSH1 0x2 ADD DUP3 DUP2 SLOAD DUP2 LT PUSH2 0x8F0 JUMPI PUSH2 0x8F0 PUSH2 0x182E JUMP JUMPDEST PUSH0 SWAP2 DUP3 MSTORE PUSH1 0x20 SWAP1 SWAP2 KECCAK256 PUSH1 0x4 SWAP1 SWAP2 MUL ADD SLOAD PUSH1 0x1 PUSH1 0x1 PUSH1 0xA0 SHL SUB AND SUB PUSH2 0xA1F JUMPI PUSH1 0x40 MLOAD PUSH4 0x742DF7E1 PUSH1 0xE1 SHL DUP2 MSTORE CALLER PUSH1 0x4 DUP3 ADD MSTORE PUSH1 0x1 PUSH1 0x1 PUSH1 0xA0 SHL SUB DUP6 AND SWAP1 PUSH4 0xE85BEFC2 SWAP1 PUSH1 0x24 ADD PUSH0 PUSH1 0x40 MLOAD DUP1 DUP4 SUB DUP2 DUP7 GAS STATICCALL ISZERO DUP1 ISZERO PUSH2 0x94F JUMPI RETURNDATASIZE PUSH0 DUP1 RETURNDATACOPY RETURNDATASIZE PUSH0 REVERT JUMPDEST POP POP POP POP PUSH1 0x40 MLOAD RETURNDATASIZE PUSH0 DUP3 RETURNDATACOPY PUSH1 0x1F RETURNDATASIZE SWAP1 DUP2 ADD PUSH1 0x1F NOT AND DUP3 ADD PUSH1 0x40 MSTORE PUSH2 0x976 SWAP2 SWAP1 DUP2 ADD SWAP1 PUSH2 0x1842 JUMP JUMPDEST DUP9 DUP3 DUP2 MLOAD DUP2 LT PUSH2 0x988 JUMPI PUSH2 0x988 PUSH2 0x182E JUMP JUMPDEST PUSH1 0x20 SWAP1 DUP2 MUL SWAP2 SWAP1 SWAP2 ADD ADD MSTORE PUSH1 0x40 MLOAD PUSH4 0x742DF7E1 PUSH1 0xE1 SHL DUP2 MSTORE PUSH1 0x1 PUSH1 0x1 PUSH1 0xA0 SHL SUB DUP14 DUP2 AND PUSH1 0x4 DUP4 ADD MSTORE DUP6 AND SWAP1 PUSH4 0xE85BEFC2 SWAP1 PUSH1 0x24 ADD PUSH0 PUSH1 0x40 MLOAD DUP1 DUP4 SUB DUP2 DUP7 GAS STATICCALL ISZERO DUP1 ISZERO PUSH2 0x9D6 JUMPI RETURNDATASIZE PUSH0 DUP1 RETURNDATACOPY RETURNDATASIZE PUSH0 REVERT JUMPDEST POP POP POP POP PUSH1 0x40 MLOAD RETURNDATASIZE PUSH0 DUP3 RETURNDATACOPY PUSH1 0x1F RETURNDATASIZE SWAP1 DUP2 ADD PUSH1 0x1F NOT AND DUP3 ADD PUSH1 0x40 MSTORE PUSH2 0x9FD SWAP2 SWAP1 DUP2 ADD SWAP1 PUSH2 0x1842 JUMP JUMPDEST DUP8 DUP3 DUP2 MLOAD DUP2 LT PUSH2 0xA0F JUMPI PUSH2 0xA0F PUSH2 0x182E JUMP JUMPDEST PUSH1 0x20 MUL PUSH1 0x20 ADD ADD DUP2 SWAP1 MSTORE POP PUSH2 0xB2C JUMP JUMPDEST PUSH1 0x40 MLOAD PUSH4 0x742DF7E1 PUSH1 0xE1 SHL DUP2 MSTORE PUSH1 0x1 PUSH1 0x1 PUSH1 0xA0 SHL SUB DUP14 DUP2 AND PUSH1 0x4 DUP4 ADD MSTORE DUP6 AND SWAP1 PUSH4 0xE85BEFC2 SWAP1 PUSH1 0x24 ADD PUSH0 PUSH1 0x40 MLOAD DUP1 DUP4 SUB DUP2 DUP7 GAS STATICCALL ISZERO DUP1 ISZERO PUSH2 0xA62 JUMPI RETURNDATASIZE PUSH0 DUP1 RETURNDATACOPY RETURNDATASIZE PUSH0 REVERT JUMPDEST POP POP POP POP PUSH1 0x40 MLOAD RETURNDATASIZE PUSH0 DUP3 RETURNDATACOPY PUSH1 0x1F RETURNDATASIZE SWAP1 DUP2 ADD PUSH1 0x1F NOT AND DUP3 ADD PUSH1 0x40 MSTORE PUSH2 0xA89 SWAP2 SWAP1 DUP2 ADD SWAP1 PUSH2 0x1842 JUMP JUMPDEST DUP9 DUP3 DUP2 MLOAD DUP2 LT PUSH2 0xA9B JUMPI PUSH2 0xA9B PUSH2 0x182E JUMP JUMPDEST PUSH1 0x20 SWAP1 DUP2 MUL SWAP2 SWAP1 SWAP2 ADD ADD MSTORE PUSH1 0x40 MLOAD PUSH4 0x742DF7E1 PUSH1 0xE1 SHL DUP2 MSTORE CALLER PUSH1 0x4 DUP3 ADD MSTORE PUSH1 0x1 PUSH1 0x1 PUSH1 0xA0 SHL SUB DUP6 AND SWAP1 PUSH4 0xE85BEFC2 SWAP1 PUSH1 0x24 ADD PUSH0 PUSH1 0x40 MLOAD DUP1 DUP4 SUB DUP2 DUP7 GAS STATICCALL ISZERO DUP1 ISZERO PUSH2 0xAE7 JUMPI RETURNDATASIZE PUSH0 DUP1 RETURNDATACOPY RETURNDATASIZE PUSH0 REVERT JUMPDEST POP POP POP POP PUSH1 0x40 MLOAD RETURNDATASIZE PUSH0 DUP3 RETURNDATACOPY PUSH1 0x1F RETURNDATASIZE SWAP1 DUP2 ADD PUSH1 0x1F NOT AND DUP3 ADD PUSH1 0x40 MSTORE PUSH2 0xB0E SWAP2 SWAP1 DUP2 ADD SWAP1 PUSH2 0x1842 JUMP JUMPDEST DUP8 DUP3 DUP2 MLOAD DUP2 LT PUSH2 0xB20 JUMPI PUSH2 0xB20 PUSH2 0x182E JUMP JUMPDEST PUSH1 0x20 MUL PUSH1 0x20 ADD ADD DUP2 SWAP1 MSTORE POP JUMPDEST PUSH1 0x1 ADD PUSH2 0x768 JUMP JUMPDEST POP POP POP POP JUMPDEST SWAP2 SWAP4 SWAP6 SWAP8 SWAP1 SWAP3 SWAP5 SWAP7 POP JUMP JUMPDEST CALLER PUSH0 SWAP1 DUP2 MSTORE PUSH1 0x1 PUSH1 0x20 MSTORE PUSH1 0x40 DUP2 KECCAK256 SLOAD PUSH1 0x60 SWAP2 DUP3 SWAP2 DUP3 SWAP2 DUP3 SWAP2 DUP3 SWAP2 DUP2 PUSH8 0xFFFFFFFFFFFFFFFF DUP2 GT ISZERO PUSH2 0xB77 JUMPI PUSH2 0xB77 PUSH2 0x1718 JUMP JUMPDEST PUSH1 0x40 MLOAD SWAP1 DUP1 DUP3 MSTORE DUP1 PUSH1 0x20 MUL PUSH1 0x20 ADD DUP3 ADD PUSH1 0x40 MSTORE DUP1 ISZERO PUSH2 0xBA0 JUMPI DUP2 PUSH1 0x20 ADD PUSH1 0x20 DUP3 MUL DUP1 CALLDATASIZE DUP4 CALLDATACOPY ADD SWAP1 POP JUMPDEST POP SWAP1 POP PUSH0 DUP3 PUSH8 0xFFFFFFFFFFFFFFFF DUP2 GT ISZERO PUSH2 0xBBD JUMPI PUSH2 0xBBD PUSH2 0x1718 JUMP JUMPDEST PUSH1 0x40 MLOAD SWAP1 DUP1 DUP3 MSTORE DUP1 PUSH1 0x20 MUL PUSH1 0x20 ADD DUP3 ADD PUSH1 0x40 MSTORE DUP1 ISZERO PUSH2 0xBF0 JUMPI DUP2 PUSH1 0x20 ADD JUMPDEST PUSH1 0x60 DUP2 MSTORE PUSH1 0x20 ADD SWAP1 PUSH1 0x1 SWAP1 SUB SWAP1 DUP2 PUSH2 0xBDB JUMPI SWAP1 POP JUMPDEST POP SWAP1 POP PUSH0 DUP4 PUSH8 0xFFFFFFFFFFFFFFFF DUP2 GT ISZERO PUSH2 0xC0D JUMPI PUSH2 0xC0D PUSH2 0x1718 JUMP JUMPDEST PUSH1 0x40 MLOAD SWAP1 DUP1 DUP3 MSTORE DUP1 PUSH1 0x20 MUL PUSH1 0x20 ADD DUP3 ADD PUSH1 0x40 MSTORE DUP1 ISZERO PUSH2 0xC40 JUMPI DUP2 PUSH1 0x20 ADD JUMPDEST PUSH1 0x60 DUP2 MSTORE PUSH1 0x20 ADD SWAP1 PUSH1 0x1 SWAP1 SUB SWAP1 DUP2 PUSH2 0xC2B JUMPI SWAP1 POP JUMPDEST POP SWAP1 POP PUSH0 DUP5 PUSH8 0xFFFFFFFFFFFFFFFF DUP2 GT ISZERO PUSH2 0xC5D JUMPI PUSH2 0xC5D PUSH2 0x1718 JUMP JUMPDEST PUSH1 0x40 MLOAD SWAP1 DUP1 DUP3 MSTORE DUP1 PUSH1 0x20 MUL PUSH1 0x20 ADD DUP3 ADD PUSH1 0x40 MSTORE DUP1 ISZERO PUSH2 0xC90 JUMPI DUP2 PUSH1 0x20 ADD JUMPDEST PUSH1 0x60 DUP2 MSTORE PUSH1 0x20 ADD SWAP1 PUSH1 0x1 SWAP1 SUB SWAP1 DUP2 PUSH2 0xC7B JUMPI SWAP1 POP JUMPDEST POP SWAP1 POP PUSH0 DUP6 PUSH8 0xFFFFFFFFFFFFFFFF DUP2 GT ISZERO PUSH2 0xCAD JUMPI PUSH2 0xCAD PUSH2 0x1718 JUMP JUMPDEST PUSH1 0x40 MLOAD SWAP1 DUP1 DUP3 MSTORE DUP1 PUSH1 0x20 MUL PUSH1 0x20 ADD DUP3 ADD PUSH1 0x40 MSTORE DUP1 ISZERO PUSH2 0xCD6 JUMPI DUP2 PUSH1 0x20 ADD PUSH1 0x20 DUP3 MUL DUP1 CALLDATASIZE DUP4 CALLDATACOPY ADD SWAP1 POP JUMPDEST POP PUSH1 0x2 SLOAD SWAP1 SWAP2 POP PUSH1 0x1 PUSH1 0x1 PUSH1 0xA0 SHL SUB AND PUSH0 JUMPDEST CALLER PUSH0 SWAP1 DUP2 MSTORE PUSH1 0x1 PUSH1 0x20 MSTORE PUSH1 0x40 SWAP1 KECCAK256 SLOAD DUP2 LT ISZERO PUSH2 0xFC8 JUMPI CALLER PUSH0 SWAP1 DUP2 MSTORE PUSH1 0x1 PUSH1 0x20 MSTORE PUSH1 0x40 DUP2 KECCAK256 DUP1 SLOAD DUP4 SWAP1 DUP2 LT PUSH2 0xD1E JUMPI PUSH2 0xD1E PUSH2 0x182E JUMP JUMPDEST SWAP1 PUSH0 MSTORE PUSH1 0x20 PUSH0 KECCAK256 ADD PUSH0 SWAP1 SLOAD SWAP1 PUSH2 0x100 EXP SWAP1 DIV PUSH1 0x1 PUSH1 0x1 PUSH1 0xA0 SHL SUB AND SWAP1 POP DUP1 DUP9 DUP4 DUP2 MLOAD DUP2 LT PUSH2 0xD4E JUMPI PUSH2 0xD4E PUSH2 0x182E JUMP JUMPDEST PUSH1 0x1 PUSH1 0x1 PUSH1 0xA0 SHL SUB SWAP3 DUP4 AND PUSH1 0x20 SWAP2 DUP3 MUL SWAP3 SWAP1 SWAP3 ADD ADD MSTORE PUSH1 0x40 MLOAD PUSH4 0x742DF7E1 PUSH1 0xE1 SHL DUP2 MSTORE DUP3 DUP3 AND PUSH1 0x4 DUP3 ADD MSTORE SWAP1 DUP5 AND SWAP1 PUSH4 0xE85BEFC2 SWAP1 PUSH1 0x24 ADD PUSH0 PUSH1 0x40 MLOAD DUP1 DUP4 SUB DUP2 DUP7 GAS STATICCALL ISZERO DUP1 ISZERO PUSH2 0xDA0 JUMPI RETURNDATASIZE PUSH0 DUP1 RETURNDATACOPY RETURNDATASIZE PUSH0 REVERT JUMPDEST POP POP POP POP PUSH1 0x40 MLOAD RETURNDATASIZE PUSH0 DUP3 RETURNDATACOPY PUSH1 0x1F RETURNDATASIZE SWAP1 DUP2 ADD PUSH1 0x1F NOT AND DUP3 ADD PUSH1 0x40 MSTORE PUSH2 0xDC7 SWAP2 SWAP1 DUP2 ADD SWAP1 PUSH2 0x1842 JUMP JUMPDEST DUP8 DUP4 DUP2 MLOAD DUP2 LT PUSH2 0xDD9 JUMPI PUSH2 0xDD9 PUSH2 0x182E JUMP JUMPDEST PUSH1 0x20 SWAP1 DUP2 MUL SWAP2 SWAP1 SWAP2 ADD ADD MSTORE PUSH1 0x40 MLOAD PUSH4 0xFBF31669 PUSH1 0xE0 SHL DUP2 MSTORE PUSH1 0x1 PUSH1 0x1 PUSH1 0xA0 SHL SUB DUP3 DUP2 AND PUSH1 0x4 DUP4 ADD MSTORE DUP5 AND SWAP1 PUSH4 0xFBF31669 SWAP1 PUSH1 0x24 ADD PUSH0 PUSH1 0x40 MLOAD DUP1 DUP4 SUB DUP2 DUP7 GAS STATICCALL ISZERO DUP1 ISZERO PUSH2 0xE27 JUMPI RETURNDATASIZE PUSH0 DUP1 RETURNDATACOPY RETURNDATASIZE PUSH0 REVERT JUMPDEST POP POP POP POP PUSH1 0x40 MLOAD RETURNDATASIZE PUSH0 DUP3 RETURNDATACOPY PUSH1 0x1F RETURNDATASIZE SWAP1 DUP2 ADD PUSH1 0x1F NOT AND DUP3 ADD PUSH1 0x40 MSTORE PUSH2 0xE4E SWAP2 SWAP1 DUP2 ADD SWAP1 PUSH2 0x1842 JUMP JUMPDEST DUP7 DUP4 DUP2 MLOAD DUP2 LT PUSH2 0xE60 JUMPI PUSH2 0xE60 PUSH2 0x182E JUMP JUMPDEST PUSH1 0x20 SWAP1 DUP2 MUL SWAP2 SWAP1 SWAP2 ADD DUP2 ADD SWAP2 SWAP1 SWAP2 MSTORE CALLER PUSH0 SWAP1 DUP2 MSTORE DUP1 DUP3 MSTORE PUSH1 0x40 DUP1 DUP3 KECCAK256 PUSH1 0x1 PUSH1 0x1 PUSH1 0xA0 SHL SUB DUP6 AND DUP4 MSTORE SWAP1 SWAP3 MSTORE KECCAK256 PUSH1 0x2 DUP2 ADD SLOAD DUP1 ISZERO PUSH2 0xF6E JUMPI PUSH1 0x2 DUP3 ADD PUSH2 0xEA6 PUSH1 0x1 DUP4 PUSH2 0x1903 JUMP JUMPDEST DUP2 SLOAD DUP2 LT PUSH2 0xEB6 JUMPI PUSH2 0xEB6 PUSH2 0x182E JUMP JUMPDEST SWAP1 PUSH0 MSTORE PUSH1 0x20 PUSH0 KECCAK256 SWAP1 PUSH1 0x4 MUL ADD PUSH1 0x1 ADD DUP1 SLOAD PUSH2 0xED0 SWAP1 PUSH2 0x18B7 JUMP JUMPDEST DUP1 PUSH1 0x1F ADD PUSH1 0x20 DUP1 SWAP2 DIV MUL PUSH1 0x20 ADD PUSH1 0x40 MLOAD SWAP1 DUP2 ADD PUSH1 0x40 MSTORE DUP1 SWAP3 SWAP2 SWAP1 DUP2 DUP2 MSTORE PUSH1 0x20 ADD DUP3 DUP1 SLOAD PUSH2 0xEFC SWAP1 PUSH2 0x18B7 JUMP JUMPDEST DUP1 ISZERO PUSH2 0xF47 JUMPI DUP1 PUSH1 0x1F LT PUSH2 0xF1E JUMPI PUSH2 0x100 DUP1 DUP4 SLOAD DIV MUL DUP4 MSTORE SWAP2 PUSH1 0x20 ADD SWAP2 PUSH2 0xF47 JUMP JUMPDEST DUP3 ADD SWAP2 SWAP1 PUSH0 MSTORE PUSH1 0x20 PUSH0 KECCAK256 SWAP1 JUMPDEST DUP2 SLOAD DUP2 MSTORE SWAP1 PUSH1 0x1 ADD SWAP1 PUSH1 0x20 ADD DUP1 DUP4 GT PUSH2 0xF2A JUMPI DUP3 SWAP1 SUB PUSH1 0x1F AND DUP3 ADD SWAP2 JUMPDEST POP POP POP POP POP DUP8 DUP6 DUP2 MLOAD DUP2 LT PUSH2 0xF5E JUMPI PUSH2 0xF5E PUSH2 0x182E JUMP JUMPDEST PUSH1 0x20 MUL PUSH1 0x20 ADD ADD DUP2 SWAP1 MSTORE POP PUSH2 0xF9B JUMP JUMPDEST PUSH1 0x40 MLOAD DUP1 PUSH1 0x20 ADD PUSH1 0x40 MSTORE DUP1 PUSH0 DUP2 MSTORE POP DUP8 DUP6 DUP2 MLOAD DUP2 LT PUSH2 0xF8F JUMPI PUSH2 0xF8F PUSH2 0x182E JUMP JUMPDEST PUSH1 0x20 MUL PUSH1 0x20 ADD ADD DUP2 SWAP1 MSTORE POP JUMPDEST DUP2 PUSH1 0x3 ADD SLOAD DUP7 DUP6 DUP2 MLOAD DUP2 LT PUSH2 0xFB2 JUMPI PUSH2 0xFB2 PUSH2 0x182E JUMP JUMPDEST PUSH1 0x20 SWAP1 DUP2 MUL SWAP2 SWAP1 SWAP2 ADD ADD MSTORE POP POP POP PUSH1 0x1 ADD PUSH2 0xCE8 JUMP JUMPDEST POP SWAP5 SWAP12 SWAP4 SWAP11 POP SWAP2 SWAP9 POP SWAP7 POP SWAP5 POP SWAP3 POP POP POP JUMP JUMPDEST PUSH1 0x2 SLOAD PUSH1 0x40 MLOAD PUSH4 0x926BEF63 PUSH1 0xE0 SHL DUP2 MSTORE PUSH1 0x1 PUSH1 0x1 PUSH1 0xA0 SHL SUB DUP5 DUP2 AND PUSH1 0x4 DUP4 ADD MSTORE SWAP1 SWAP2 AND SWAP1 DUP2 SWAP1 PUSH4 0x926BEF63 SWAP1 PUSH1 0x24 ADD PUSH1 0x20 PUSH1 0x40 MLOAD DUP1 DUP4 SUB DUP2 DUP7 GAS STATICCALL ISZERO DUP1 ISZERO PUSH2 0x1025 JUMPI RETURNDATASIZE PUSH0 DUP1 RETURNDATACOPY RETURNDATASIZE PUSH0 REVERT JUMPDEST POP POP POP POP PUSH1 0x40 MLOAD RETURNDATASIZE PUSH1 0x1F NOT PUSH1 0x1F DUP3 ADD AND DUP3 ADD DUP1 PUSH1 0x40 MSTORE POP DUP2 ADD SWAP1 PUSH2 0x1049 SWAP2 SWAP1 PUSH2 0x180F JUMP JUMPDEST PUSH2 0x1095 JUMPI PUSH1 0x40 MLOAD PUSH3 0x461BCD PUSH1 0xE5 SHL DUP2 MSTORE PUSH1 0x20 PUSH1 0x4 DUP3 ADD MSTORE PUSH1 0x17 PUSH1 0x24 DUP3 ADD MSTORE PUSH32 0x526563656976657220646F6573206E6F74206578697374000000000000000000 PUSH1 0x44 DUP3 ADD MSTORE PUSH1 0x64 ADD PUSH2 0x27B JUMP JUMPDEST PUSH1 0x40 MLOAD PUSH4 0x2C25A893 PUSH1 0xE1 SHL DUP2 MSTORE CALLER PUSH1 0x4 DUP3 ADD MSTORE PUSH1 0x1 PUSH1 0x1 PUSH1 0xA0 SHL SUB DUP5 DUP2 AND PUSH1 0x24 DUP4 ADD MSTORE DUP3 AND SWAP1 PUSH4 0x584B5126 SWAP1 PUSH1 0x44 ADD PUSH1 0x20 PUSH1 0x40 MLOAD DUP1 DUP4 SUB DUP2 DUP7 GAS STATICCALL ISZERO DUP1 ISZERO PUSH2 0x10DF JUMPI RETURNDATASIZE PUSH0 DUP1 RETURNDATACOPY RETURNDATASIZE PUSH0 REVERT JUMPDEST POP POP POP POP PUSH1 0x40 MLOAD RETURNDATASIZE PUSH1 0x1F NOT PUSH1 0x1F DUP3 ADD AND DUP3 ADD DUP1 PUSH1 0x40 MSTORE POP DUP2 ADD SWAP1 PUSH2 0x1103 SWAP2 SWAP1 PUSH2 0x180F JUMP JUMPDEST DUP1 PUSH2 0x1177 JUMPI POP PUSH1 0x40 MLOAD PUSH4 0x2C25A893 PUSH1 0xE1 SHL DUP2 MSTORE PUSH1 0x1 PUSH1 0x1 PUSH1 0xA0 SHL SUB DUP5 DUP2 AND PUSH1 0x4 DUP4 ADD MSTORE CALLER PUSH1 0x24 DUP4 ADD MSTORE DUP3 AND SWAP1 PUSH4 0x584B5126 SWAP1 PUSH1 0x44 ADD PUSH1 0x20 PUSH1 0x40 MLOAD DUP1 DUP4 SUB DUP2 DUP7 GAS STATICCALL ISZERO DUP1 ISZERO PUSH2 0x1153 JUMPI RETURNDATASIZE PUSH0 DUP1 RETURNDATACOPY RETURNDATASIZE PUSH0 REVERT JUMPDEST POP POP POP POP PUSH1 0x40 MLOAD RETURNDATASIZE PUSH1 0x1F NOT PUSH1 0x1F DUP3 ADD AND DUP3 ADD DUP1 PUSH1 0x40 MSTORE POP DUP2 ADD SWAP1 PUSH2 0x1177 SWAP2 SWAP1 PUSH2 0x180F JUMP JUMPDEST PUSH2 0x11CE JUMPI PUSH1 0x40 MLOAD PUSH3 0x461BCD PUSH1 0xE5 SHL DUP2 MSTORE PUSH1 0x20 PUSH1 0x4 DUP3 ADD MSTORE PUSH1 0x22 PUSH1 0x24 DUP3 ADD MSTORE PUSH32 0x596F75206D75737420666F6C6C6F772065616368206F7468657220746F206368 PUSH1 0x44 DUP3 ADD MSTORE PUSH2 0x185D PUSH1 0xF2 SHL PUSH1 0x64 DUP3 ADD MSTORE PUSH1 0x84 ADD PUSH2 0x27B JUMP JUMPDEST CALLER PUSH0 DUP2 DUP2 MSTORE PUSH1 0x20 DUP2 DUP2 MSTORE PUSH1 0x40 DUP1 DUP4 KECCAK256 PUSH1 0x1 PUSH1 0x1 PUSH1 0xA0 SHL SUB DUP9 DUP2 AND DUP6 MSTORE SWAP1 DUP4 MSTORE DUP2 DUP5 KECCAK256 DUP5 DUP5 MSTORE DUP3 DUP6 KECCAK256 SWAP6 DUP6 MSTORE SWAP5 SWAP1 SWAP3 MSTORE SWAP1 SWAP2 KECCAK256 DUP3 SLOAD SWAP1 SWAP2 AND PUSH2 0x125F JUMPI DUP2 SLOAD CALLER PUSH1 0x1 PUSH1 0x1 PUSH1 0xA0 SHL SUB NOT SWAP2 DUP3 AND DUP2 OR DUP5 SSTORE PUSH1 0x1 DUP1 DUP6 ADD DUP1 SLOAD DUP5 AND PUSH1 0x1 PUSH1 0x1 PUSH1 0xA0 SHL SUB DUP11 AND SWAP1 DUP2 OR SWAP1 SWAP2 SSTORE PUSH0 PUSH1 0x3 DUP8 ADD DUP2 SWAP1 SSTORE SWAP3 DUP4 MSTORE PUSH1 0x20 DUP3 DUP2 MSTORE PUSH1 0x40 DUP5 KECCAK256 DUP1 SLOAD SWAP4 DUP5 ADD DUP2 SSTORE DUP5 MSTORE SWAP1 SWAP3 KECCAK256 ADD DUP1 SLOAD SWAP1 SWAP3 AND OR SWAP1 SSTORE JUMPDEST DUP1 SLOAD PUSH1 0x1 PUSH1 0x1 PUSH1 0xA0 SHL SUB AND PUSH2 0x12C3 JUMPI DUP1 SLOAD CALLER PUSH1 0x1 PUSH1 0x1 PUSH1 0xA0 SHL SUB NOT SWAP2 DUP3 AND DUP2 OR DUP4 SSTORE PUSH1 0x1 DUP1 DUP5 ADD DUP1 SLOAD DUP5 AND PUSH1 0x1 PUSH1 0x1 PUSH1 0xA0 SHL SUB DUP11 AND SWAP1 DUP2 OR SWAP1 SWAP2 SSTORE PUSH0 PUSH1 0x3 DUP7 ADD DUP2 SWAP1 SSTORE SWAP1 DUP2 MSTORE PUSH1 0x20 DUP3 DUP2 MSTORE PUSH1 0x40 DUP3 KECCAK256 DUP1 SLOAD SWAP4 DUP5 ADD DUP2 SSTORE DUP3 MSTORE SWAP1 KECCAK256 ADD DUP1 SLOAD SWAP1 SWAP3 AND OR SWAP1 SSTORE JUMPDEST PUSH1 0x40 DUP1 MLOAD PUSH1 0xA0 DUP2 ADD DUP3 MSTORE CALLER DUP2 MSTORE PUSH1 0x20 DUP1 DUP3 ADD DUP8 DUP2 MSTORE TIMESTAMP SWAP4 DUP4 ADD SWAP4 SWAP1 SWAP4 MSTORE PUSH1 0x1 PUSH1 0x60 DUP4 ADD DUP2 SWAP1 MSTORE PUSH0 PUSH1 0x80 DUP5 ADD DUP2 SWAP1 MSTORE PUSH1 0x2 DUP8 ADD DUP1 SLOAD DUP1 DUP5 ADD DUP3 SSTORE SWAP1 DUP3 MSTORE SWAP3 SWAP1 KECCAK256 DUP4 MLOAD PUSH1 0x4 SWAP1 SWAP4 MUL ADD DUP1 SLOAD PUSH1 0x1 PUSH1 0x1 PUSH1 0xA0 SHL SUB NOT AND PUSH1 0x1 PUSH1 0x1 PUSH1 0xA0 SHL SUB SWAP1 SWAP4 AND SWAP3 SWAP1 SWAP3 OR DUP3 SSTORE SWAP3 MLOAD SWAP2 SWAP3 SWAP1 SWAP2 SWAP1 DUP3 ADD SWAP1 PUSH2 0x133B SWAP1 DUP3 PUSH2 0x1968 JUMP JUMPDEST POP PUSH1 0x40 DUP3 DUP2 ADD MLOAD PUSH1 0x2 DUP1 DUP5 ADD SWAP2 SWAP1 SWAP2 SSTORE PUSH1 0x60 DUP1 DUP6 ADD MLOAD PUSH1 0x3 SWAP1 SWAP5 ADD DUP1 SLOAD PUSH1 0x80 SWAP7 DUP8 ADD MLOAD ISZERO ISZERO PUSH2 0x100 MUL PUSH2 0xFF00 NOT SWAP7 ISZERO ISZERO SWAP7 SWAP1 SWAP7 AND PUSH2 0xFFFF NOT SWAP1 SWAP2 AND OR SWAP5 SWAP1 SWAP5 OR SWAP1 SWAP4 SSTORE DUP2 MLOAD PUSH1 0xA0 DUP2 ADD DUP4 MSTORE CALLER DUP2 MSTORE PUSH1 0x20 DUP1 DUP3 ADD DUP11 DUP2 MSTORE TIMESTAMP SWAP5 DUP4 ADD SWAP5 SWAP1 SWAP5 MSTORE PUSH1 0x1 SWAP5 DUP3 ADD DUP6 SWAP1 MSTORE PUSH0 SWAP6 DUP3 ADD DUP7 SWAP1 MSTORE SWAP2 DUP7 ADD DUP1 SLOAD DUP1 DUP7 ADD DUP3 SSTORE SWAP1 DUP7 MSTORE SWAP2 SWAP1 SWAP5 KECCAK256 DUP5 MLOAD PUSH1 0x4 SWAP1 SWAP3 MUL ADD DUP1 SLOAD PUSH1 0x1 PUSH1 0x1 PUSH1 0xA0 SHL SUB SWAP3 SWAP1 SWAP3 AND PUSH1 0x1 PUSH1 0x1 PUSH1 0xA0 SHL SUB NOT SWAP1 SWAP3 AND SWAP2 SWAP1 SWAP2 OR DUP2 SSTORE SWAP1 MLOAD SWAP1 SWAP2 DUP3 ADD SWAP1 PUSH2 0x13F2 SWAP1 DUP3 PUSH2 0x1968 JUMP JUMPDEST POP PUSH1 0x40 DUP3 DUP2 ADD MLOAD PUSH1 0x2 DUP4 ADD SSTORE PUSH1 0x60 DUP4 ADD MLOAD PUSH1 0x3 SWAP3 DUP4 ADD DUP1 SLOAD PUSH1 0x80 SWAP1 SWAP6 ADD MLOAD ISZERO ISZERO PUSH2 0x100 MUL PUSH2 0xFF00 NOT SWAP3 ISZERO ISZERO SWAP3 SWAP1 SWAP3 AND PUSH2 0xFFFF NOT SWAP1 SWAP6 AND SWAP5 SWAP1 SWAP5 OR OR SWAP1 SWAP3 SSTORE PUSH1 0x1 PUSH1 0x1 PUSH1 0xA0 SHL SUB DUP8 AND PUSH0 SWAP1 DUP2 MSTORE PUSH1 0x20 DUP2 DUP2 MSTORE DUP4 DUP3 KECCAK256 CALLER DUP4 MSTORE SWAP1 MSTORE SWAP2 DUP3 KECCAK256 ADD DUP1 SLOAD SWAP2 PUSH2 0x145B DUP4 PUSH2 0x1A28 JUMP JUMPDEST SWAP2 SWAP1 POP SSTORE POP POP POP POP POP POP JUMP JUMPDEST DUP1 CALLDATALOAD PUSH1 0x1 PUSH1 0x1 PUSH1 0xA0 SHL SUB DUP2 AND DUP2 EQ PUSH2 0x147D JUMPI PUSH0 DUP1 REVERT JUMPDEST SWAP2 SWAP1 POP JUMP JUMPDEST PUSH0 DUP1 PUSH1 0x40 DUP4 DUP6 SUB SLT ISZERO PUSH2 0x1493 JUMPI PUSH0 DUP1 REVERT JUMPDEST PUSH2 0x149C DUP4 PUSH2 0x1467 JUMP JUMPDEST SWAP5 PUSH1 0x20 SWAP4 SWAP1 SWAP4 ADD CALLDATALOAD SWAP4 POP POP POP JUMP JUMPDEST PUSH0 PUSH1 0x20 DUP3 DUP5 SUB SLT ISZERO PUSH2 0x14BA JUMPI PUSH0 DUP1 REVERT JUMPDEST PUSH2 0x14C3 DUP3 PUSH2 0x1467 JUMP JUMPDEST SWAP4 SWAP3 POP POP POP JUMP JUMPDEST PUSH0 DUP1 PUSH1 0x40 DUP4 DUP6 SUB SLT ISZERO PUSH2 0x14DB JUMPI PUSH0 DUP1 REVERT JUMPDEST PUSH2 0x14E4 DUP4 PUSH2 0x1467 JUMP JUMPDEST SWAP2 POP PUSH2 0x14F2 PUSH1 0x20 DUP5 ADD PUSH2 0x1467 JUMP JUMPDEST SWAP1 POP SWAP3 POP SWAP3 SWAP1 POP JUMP JUMPDEST PUSH0 DUP2 MLOAD DUP1 DUP5 MSTORE DUP1 PUSH1 0x20 DUP5 ADD PUSH1 0x20 DUP7 ADD MCOPY PUSH0 PUSH1 0x20 DUP3 DUP7 ADD ADD MSTORE PUSH1 0x20 PUSH1 0x1F NOT PUSH1 0x1F DUP4 ADD AND DUP6 ADD ADD SWAP2 POP POP SWAP3 SWAP2 POP POP JUMP JUMPDEST PUSH0 DUP3 DUP3 MLOAD DUP1 DUP6 MSTORE PUSH1 0x20 DUP1 DUP7 ADD SWAP6 POP PUSH1 0x20 DUP3 PUSH1 0x5 SHL DUP5 ADD ADD PUSH1 0x20 DUP7 ADD PUSH0 JUMPDEST DUP5 DUP2 LT ISZERO PUSH2 0x1574 JUMPI PUSH1 0x1F NOT DUP7 DUP5 SUB ADD DUP10 MSTORE PUSH2 0x1562 DUP4 DUP4 MLOAD PUSH2 0x14FB JUMP JUMPDEST SWAP9 DUP5 ADD SWAP9 SWAP3 POP SWAP1 DUP4 ADD SWAP1 PUSH1 0x1 ADD PUSH2 0x1546 JUMP JUMPDEST POP SWAP1 SWAP8 SWAP7 POP POP POP POP POP POP POP JUMP JUMPDEST PUSH0 DUP2 MLOAD DUP1 DUP5 MSTORE PUSH1 0x20 DUP1 DUP6 ADD SWAP5 POP PUSH1 0x20 DUP5 ADD PUSH0 JUMPDEST DUP4 DUP2 LT ISZERO PUSH2 0x15B0 JUMPI DUP2 MLOAD DUP8 MSTORE SWAP6 DUP3 ADD SWAP6 SWAP1 DUP3 ADD SWAP1 PUSH1 0x1 ADD PUSH2 0x1594 JUMP JUMPDEST POP SWAP5 SWAP6 SWAP5 POP POP POP POP POP JUMP JUMPDEST PUSH1 0xE0 DUP2 MSTORE PUSH0 PUSH2 0x15CD PUSH1 0xE0 DUP4 ADD DUP11 PUSH2 0x1529 JUMP JUMPDEST PUSH1 0x20 DUP4 DUP3 SUB PUSH1 0x20 DUP6 ADD MSTORE PUSH2 0x15E1 DUP3 DUP12 PUSH2 0x1581 JUMP JUMPDEST DUP5 DUP2 SUB PUSH1 0x40 DUP7 ADD MSTORE DUP10 MLOAD DUP1 DUP3 MSTORE PUSH1 0x20 DUP1 DUP13 ADD SWAP5 POP SWAP1 SWAP2 ADD SWAP1 PUSH0 JUMPDEST DUP2 DUP2 LT ISZERO PUSH2 0x1619 JUMPI DUP5 MLOAD ISZERO ISZERO DUP4 MSTORE SWAP4 DUP4 ADD SWAP4 SWAP2 DUP4 ADD SWAP2 PUSH1 0x1 ADD PUSH2 0x15FB JUMP JUMPDEST POP POP DUP5 DUP2 SUB PUSH1 0x60 DUP7 ADD MSTORE PUSH2 0x162D DUP2 DUP11 PUSH2 0x1529 JUMP JUMPDEST SWAP3 POP POP POP DUP3 DUP2 SUB PUSH1 0x80 DUP5 ADD MSTORE PUSH2 0x1643 DUP2 DUP8 PUSH2 0x1529 JUMP JUMPDEST SWAP1 POP DUP3 DUP2 SUB PUSH1 0xA0 DUP5 ADD MSTORE PUSH2 0x1657 DUP2 DUP7 PUSH2 0x14FB JUMP JUMPDEST SWAP1 POP DUP3 DUP2 SUB PUSH1 0xC0 DUP5 ADD MSTORE PUSH2 0x166B DUP2 DUP6 PUSH2 0x14FB JUMP JUMPDEST SWAP11 SWAP10 POP POP POP POP POP POP POP POP POP POP JUMP JUMPDEST PUSH1 0xA0 DUP1 DUP3 MSTORE DUP7 MLOAD SWAP1 DUP3 ADD DUP2 SWAP1 MSTORE PUSH0 SWAP1 PUSH1 0x20 SWAP1 PUSH1 0xC0 DUP5 ADD SWAP1 DUP3 DUP11 ADD DUP5 JUMPDEST DUP3 DUP2 LT ISZERO PUSH2 0x16BA JUMPI DUP2 MLOAD PUSH1 0x1 PUSH1 0x1 PUSH1 0xA0 SHL SUB AND DUP5 MSTORE SWAP3 DUP5 ADD SWAP3 SWAP1 DUP5 ADD SWAP1 PUSH1 0x1 ADD PUSH2 0x1695 JUMP JUMPDEST POP POP POP DUP4 DUP2 SUB PUSH1 0x20 DUP6 ADD MSTORE PUSH2 0x16CF DUP2 DUP10 PUSH2 0x1529 JUMP JUMPDEST SWAP2 POP POP DUP3 DUP2 SUB PUSH1 0x40 DUP5 ADD MSTORE PUSH2 0x16E4 DUP2 DUP8 PUSH2 0x1529 JUMP JUMPDEST SWAP1 POP DUP3 DUP2 SUB PUSH1 0x60 DUP5 ADD MSTORE PUSH2 0x16F8 DUP2 DUP7 PUSH2 0x1529 JUMP JUMPDEST SWAP1 POP DUP3 DUP2 SUB PUSH1 0x80 DUP5 ADD MSTORE PUSH2 0x170C DUP2 DUP6 PUSH2 0x1581 JUMP JUMPDEST SWAP9 SWAP8 POP POP POP POP POP POP POP POP JUMP JUMPDEST PUSH4 0x4E487B71 PUSH1 0xE0 SHL PUSH0 MSTORE PUSH1 0x41 PUSH1 0x4 MSTORE PUSH1 0x24 PUSH0 REVERT JUMPDEST PUSH1 0x40 MLOAD PUSH1 0x1F DUP3 ADD PUSH1 0x1F NOT AND DUP2 ADD PUSH8 0xFFFFFFFFFFFFFFFF DUP2 GT DUP3 DUP3 LT OR ISZERO PUSH2 0x1755 JUMPI PUSH2 0x1755 PUSH2 0x1718 JUMP JUMPDEST PUSH1 0x40 MSTORE SWAP2 SWAP1 POP JUMP JUMPDEST PUSH0 PUSH8 0xFFFFFFFFFFFFFFFF DUP3 GT ISZERO PUSH2 0x1776 JUMPI PUSH2 0x1776 PUSH2 0x1718 JUMP JUMPDEST POP PUSH1 0x1F ADD PUSH1 0x1F NOT AND PUSH1 0x20 ADD SWAP1 JUMP JUMPDEST PUSH0 DUP1 PUSH1 0x40 DUP4 DUP6 SUB SLT ISZERO PUSH2 0x1795 JUMPI PUSH0 DUP1 REVERT JUMPDEST PUSH2 0x179E DUP4 PUSH2 0x1467 JUMP JUMPDEST SWAP2 POP PUSH1 0x20 DUP4 ADD CALLDATALOAD PUSH8 0xFFFFFFFFFFFFFFFF DUP2 GT ISZERO PUSH2 0x17B9 JUMPI PUSH0 DUP1 REVERT JUMPDEST DUP4 ADD PUSH1 0x1F DUP2 ADD DUP6 SGT PUSH2 0x17C9 JUMPI PUSH0 DUP1 REVERT JUMPDEST DUP1 CALLDATALOAD PUSH2 0x17DC PUSH2 0x17D7 DUP3 PUSH2 0x175D JUMP JUMPDEST PUSH2 0x172C JUMP JUMPDEST DUP2 DUP2 MSTORE DUP7 PUSH1 0x20 DUP4 DUP6 ADD ADD GT ISZERO PUSH2 0x17F0 JUMPI PUSH0 DUP1 REVERT JUMPDEST DUP2 PUSH1 0x20 DUP5 ADD PUSH1 0x20 DUP4 ADD CALLDATACOPY PUSH0 PUSH1 0x20 DUP4 DUP4 ADD ADD MSTORE DUP1 SWAP4 POP POP POP POP SWAP3 POP SWAP3 SWAP1 POP JUMP JUMPDEST PUSH0 PUSH1 0x20 DUP3 DUP5 SUB SLT ISZERO PUSH2 0x181F JUMPI PUSH0 DUP1 REVERT JUMPDEST DUP2 MLOAD DUP1 ISZERO ISZERO DUP2 EQ PUSH2 0x14C3 JUMPI PUSH0 DUP1 REVERT JUMPDEST PUSH4 0x4E487B71 PUSH1 0xE0 SHL PUSH0 MSTORE PUSH1 0x32 PUSH1 0x4 MSTORE PUSH1 0x24 PUSH0 REVERT JUMPDEST PUSH0 PUSH1 0x20 DUP3 DUP5 SUB SLT ISZERO PUSH2 0x1852 JUMPI PUSH0 DUP1 REVERT JUMPDEST DUP2 MLOAD PUSH8 0xFFFFFFFFFFFFFFFF DUP2 GT ISZERO PUSH2 0x1868 JUMPI PUSH0 DUP1 REVERT JUMPDEST DUP3 ADD PUSH1 0x1F DUP2 ADD DUP5 SGT PUSH2 0x1878 JUMPI PUSH0 DUP1 REVERT JUMPDEST DUP1 MLOAD PUSH2 0x1886 PUSH2 0x17D7 DUP3 PUSH2 0x175D JUMP JUMPDEST DUP2 DUP2 MSTORE DUP6 PUSH1 0x20 DUP4 DUP6 ADD ADD GT ISZERO PUSH2 0x189A JUMPI PUSH0 DUP1 REVERT JUMPDEST DUP2 PUSH1 0x20 DUP5 ADD PUSH1 0x20 DUP4 ADD MCOPY PUSH0 SWAP2 DUP2 ADD PUSH1 0x20 ADD SWAP2 SWAP1 SWAP2 MSTORE SWAP5 SWAP4 POP POP POP POP JUMP JUMPDEST PUSH1 0x1 DUP2 DUP2 SHR SWAP1 DUP3 AND DUP1 PUSH2 0x18CB JUMPI PUSH1 0x7F DUP3 AND SWAP2 POP JUMPDEST PUSH1 0x20 DUP3 LT DUP2 SUB PUSH2 0x18E9 JUMPI PUSH4 0x4E487B71 PUSH1 0xE0 SHL PUSH0 MSTORE PUSH1 0x22 PUSH1 0x4 MSTORE PUSH1 0x24 PUSH0 REVERT JUMPDEST POP SWAP2 SWAP1 POP JUMP JUMPDEST PUSH4 0x4E487B71 PUSH1 0xE0 SHL PUSH0 MSTORE PUSH1 0x11 PUSH1 0x4 MSTORE PUSH1 0x24 PUSH0 REVERT JUMPDEST DUP2 DUP2 SUB DUP2 DUP2 GT ISZERO PUSH2 0x1916 JUMPI PUSH2 0x1916 PUSH2 0x18EF JUMP JUMPDEST SWAP3 SWAP2 POP POP JUMP JUMPDEST PUSH1 0x1F DUP3 GT ISZERO PUSH2 0x1963 JUMPI DUP1 PUSH0 MSTORE PUSH1 0x20 PUSH0 KECCAK256 PUSH1 0x1F DUP5 ADD PUSH1 0x5 SHR DUP2 ADD PUSH1 0x20 DUP6 LT ISZERO PUSH2 0x1941 JUMPI POP DUP1 JUMPDEST PUSH1 0x1F DUP5 ADD PUSH1 0x5 SHR DUP3 ADD SWAP2 POP JUMPDEST DUP2 DUP2 LT ISZERO PUSH2 0x1960 JUMPI PUSH0 DUP2 SSTORE PUSH1 0x1 ADD PUSH2 0x194D JUMP JUMPDEST POP POP JUMPDEST POP POP POP JUMP JUMPDEST DUP2 MLOAD PUSH8 0xFFFFFFFFFFFFFFFF DUP2 GT ISZERO PUSH2 0x1982 JUMPI PUSH2 0x1982 PUSH2 0x1718 JUMP JUMPDEST PUSH2 0x1996 DUP2 PUSH2 0x1990 DUP5 SLOAD PUSH2 0x18B7 JUMP JUMPDEST DUP5 PUSH2 0x191C JUMP JUMPDEST PUSH1 0x20 DUP1 PUSH1 0x1F DUP4 GT PUSH1 0x1 DUP2 EQ PUSH2 0x19C9 JUMPI PUSH0 DUP5 ISZERO PUSH2 0x19B2 JUMPI POP DUP6 DUP4 ADD MLOAD JUMPDEST PUSH0 NOT PUSH1 0x3 DUP7 SWAP1 SHL SHR NOT AND PUSH1 0x1 DUP6 SWAP1 SHL OR DUP6 SSTORE PUSH2 0x1A20 JUMP JUMPDEST PUSH0 DUP6 DUP2 MSTORE PUSH1 0x20 DUP2 KECCAK256 PUSH1 0x1F NOT DUP7 AND SWAP2 JUMPDEST DUP3 DUP2 LT ISZERO PUSH2 0x19F7 JUMPI DUP9 DUP7 ADD MLOAD DUP3 SSTORE SWAP5 DUP5 ADD SWAP5 PUSH1 0x1 SWAP1 SWAP2 ADD SWAP1 DUP5 ADD PUSH2 0x19D8 JUMP JUMPDEST POP DUP6 DUP3 LT ISZERO PUSH2 0x1A14 JUMPI DUP8 DUP6 ADD MLOAD PUSH0 NOT PUSH1 0x3 DUP9 SWAP1 SHL PUSH1 0xF8 AND SHR NOT AND DUP2 SSTORE JUMPDEST POP POP PUSH1 0x1 DUP5 PUSH1 0x1 SHL ADD DUP6 SSTORE JUMPDEST POP POP POP POP POP POP JUMP JUMPDEST PUSH0 PUSH1 0x1 DUP3 ADD PUSH2 0x1A39 JUMPI PUSH2 0x1A39 PUSH2 0x18EF JUMP JUMPDEST POP PUSH1 0x1 ADD SWAP1 JUMP INVALID LOG2 PUSH5 0x6970667358 0x22 SLT KECCAK256 EXTCODEHASH STATICCALL 0xBC 0xD7 0xC1 EXP 0xC9 TSTORE 0xD9 DUP13 0xD5 LOG3 PUSH32 0xDD0D04C820AD710E7147B256D84C731B50C82564736F6C634300081900330000 "
    },
    "gasEstimates": {
      "creation": {
        "codeDepositCost": "1354800",
        "executionCost": "infinite",
        "totalCost": "infinite"
      },
      "external": {
        "chatList(address,uint256)": "4769",
        "chats(address,address)": "infinite",
        "getChatList()": "infinite",
        "getIndividualChat(address)": "infinite",
        "markMessagesAsSeen(address)": "infinite",
        "sendMessage(address,string)": "infinite",
        "socialProfileAddress()": "2370"
      }
    },
    "methodIdentifiers": {
      "chatList(address,uint256)": "2075ec89",
      "chats(address,address)": "7d6de736",
      "getChatList()": "c8a3f1cf",
      "getIndividualChat(address)": "83947039",
      "markMessagesAsSeen(address)": "2f2c17b0",
      "sendMessage(address,string)": "de6f24bb",
      "socialProfileAddress()": "702d3ebb"
    }
  },
  "storageLayout": {
    "storage": [
      {
        "astId": 31,
        "contract": "Message.sol:SocialMessage",
        "label": "chats",
        "offset": 0,
        "slot": "0",
        "type": "t_mapping(t_address,t_mapping(t_address,t_struct(Chat)24_storage))"
      },
      {
        "astId": 36,
        "contract": "Message.sol:SocialMessage",
        "label": "chatList",
        "offset": 0,
        "slot": "1",
        "type": "t_mapping(t_address,t_array(t_address)dyn_storage)"
      },
      {
        "astId": 38,
        "contract": "Message.sol:SocialMessage",
        "label": "socialProfileAddress",
        "offset": 0,
        "slot": "2",
        "type": "t_address"
      }
    ],
    "types": {
      "t_address": {
        "encoding": "inplace",
        "label": "address",
        "numberOfBytes": "20"
      },
      "t_array(t_address)dyn_storage": {
        "base": "t_address",
        "encoding": "dynamic_array",
        "label": "address[]",
        "numberOfBytes": "32"
      },
      "t_array(t_struct(Message)13_storage)dyn_storage": {
        "base": "t_struct(Message)13_storage",
        "encoding": "dynamic_array",
        "label": "struct SocialMessage.Message[]",
        "numberOfBytes": "32"
      },
      "t_bool": {
        "encoding": "inplace",
        "label": "bool",
        "numberOfBytes": "1"
      },
      "t_mapping(t_address,t_array(t_address)dyn_storage)": {
        "encoding": "mapping",
        "key": "t_address",
        "label": "mapping(address => address[])",
        "numberOfBytes": "32",
        "value": "t_array(t_address)dyn_storage"
      },
      "t_mapping(t_address,t_mapping(t_address,t_struct(Chat)24_storage))": {
        "encoding": "mapping",
        "key": "t_address",
        "label": "mapping(address => mapping(address => struct SocialMessage.Chat))",
        "numberOfBytes": "32",
        "value": "t_mapping(t_address,t_struct(Chat)24_storage)"
      },
      "t_mapping(t_address,t_struct(Chat)24_storage)": {
        "encoding": "mapping",
        "key": "t_address",
        "label": "mapping(address => struct SocialMessage.Chat)",
        "numberOfBytes": "32",
        "value": "t_struct(Chat)24_storage"
      },
      "t_string_storage": {
        "encoding": "bytes",
        "label": "string",
        "numberOfBytes": "32"
      },
      "t_struct(Chat)24_storage": {
        "encoding": "inplace",
        "label": "struct SocialMessage.Chat",
        "members": [
          {
            "astId": 15,
            "contract": "Message.sol:SocialMessage",
            "label": "participant1",
            "offset": 0,
            "slot": "0",
            "type": "t_address"
          },
          {
            "astId": 17,
            "contract": "Message.sol:SocialMessage",
            "label": "participant2",
            "offset": 0,
            "slot": "1",
            "type": "t_address"
          },
          {
            "astId": 21,
            "contract": "Message.sol:SocialMessage",
            "label": "messages",
            "offset": 0,
            "slot": "2",
            "type": "t_array(t_struct(Message)13_storage)dyn_storage"
          },
          {
            "astId": 23,
            "contract": "Message.sol:SocialMessage",
            "label": "unseenCount",
            "offset": 0,
            "slot": "3",
            "type": "t_uint256"
          }
        ],
        "numberOfBytes": "128"
      },
      "t_struct(Message)13_storage": {
        "encoding": "inplace",
        "label": "struct SocialMessage.Message",
        "members": [
          {
            "astId": 4,
            "contract": "Message.sol:SocialMessage",
            "label": "sender",
            "offset": 0,
            "slot": "0",
            "type": "t_address"
          },
          {
            "astId": 6,
            "contract": "Message.sol:SocialMessage",
            "label": "text",
            "offset": 0,
            "slot": "1",
            "type": "t_string_storage"
          },
          {
            "astId": 8,
            "contract": "Message.sol:SocialMessage",
            "label": "date",
            "offset": 0,
            "slot": "2",
            "type": "t_uint256"
          },
          {
            "astId": 10,
            "contract": "Message.sol:SocialMessage",
            "label": "delivered",
            "offset": 0,
            "slot": "3",
            "type": "t_bool"
          },
          {
            "astId": 12,
            "contract": "Message.sol:SocialMessage",
            "label": "seen",
            "offset": 1,
            "slot": "3",
            "type": "t_bool"
          }
        ],
        "numberOfBytes": "128"
      },
      "t_uint256": {
        "encoding": "inplace",
        "label": "uint256",
        "numberOfBytes": "32"
      }
    }
  },
  "userdoc": {
    "kind": "user",
    "methods": {},
    "version": 1
  }
}